{
	"Contracts/FundMe/FundMe.sol": {
		"FundMe": {
			"abi": [
				{
					"inputs": [],
					"stateMutability": "nonpayable",
					"type": "constructor"
				},
				{
					"inputs": [],
					"name": "NotOwner",
					"type": "error"
				},
				{
					"stateMutability": "payable",
					"type": "fallback"
				},
				{
					"inputs": [],
					"name": "MINIMUM_USD",
					"outputs": [
						{
							"internalType": "uint256",
							"name": "",
							"type": "uint256"
						}
					],
					"stateMutability": "view",
					"type": "function"
				},
				{
					"inputs": [
						{
							"internalType": "address",
							"name": "funder",
							"type": "address"
						}
					],
					"name": "addressToAmountFounded",
					"outputs": [
						{
							"internalType": "uint256",
							"name": "amountFounded",
							"type": "uint256"
						}
					],
					"stateMutability": "view",
					"type": "function"
				},
				{
					"inputs": [],
					"name": "fund",
					"outputs": [],
					"stateMutability": "payable",
					"type": "function"
				},
				{
					"inputs": [
						{
							"internalType": "uint256",
							"name": "",
							"type": "uint256"
						}
					],
					"name": "funders",
					"outputs": [
						{
							"internalType": "address",
							"name": "",
							"type": "address"
						}
					],
					"stateMutability": "view",
					"type": "function"
				},
				{
					"inputs": [],
					"name": "getVersion",
					"outputs": [
						{
							"internalType": "uint256",
							"name": "",
							"type": "uint256"
						}
					],
					"stateMutability": "view",
					"type": "function"
				},
				{
					"inputs": [],
					"name": "i_owner",
					"outputs": [
						{
							"internalType": "address",
							"name": "",
							"type": "address"
						}
					],
					"stateMutability": "view",
					"type": "function"
				},
				{
					"inputs": [],
					"name": "withdraw",
					"outputs": [],
					"stateMutability": "nonpayable",
					"type": "function"
				},
				{
					"stateMutability": "payable",
					"type": "receive"
				}
			],
			"devdoc": {
				"kind": "dev",
				"methods": {},
				"version": 1
			},
			"evm": {
				"assembly": "    /* \"Contracts/FundMe/FundMe.sol\":328:2594  contract FundMe {... */\n  mstore(0x40, 0x80)\n    /* \"Contracts/FundMe/FundMe.sol\":673:726  constructor() {... */\n  callvalue\n  dup1\n  iszero\n  tag_1\n  jumpi\n  revert(0x00, 0x00)\ntag_1:\n  pop\n    /* \"Contracts/FundMe/FundMe.sol\":708:718  msg.sender */\n  caller\n    /* \"Contracts/FundMe/FundMe.sol\":698:705  i_owner */\n  0x01\n  0x00\n    /* \"Contracts/FundMe/FundMe.sol\":698:718  i_owner = msg.sender */\n  0x0100\n  exp\n  dup2\n  sload\n  dup2\n  0xffffffffffffffffffffffffffffffffffffffff\n  mul\n  not\n  and\n  swap1\n  dup4\n  0xffffffffffffffffffffffffffffffffffffffff\n  and\n  mul\n  or\n  swap1\n  sstore\n  pop\n    /* \"Contracts/FundMe/FundMe.sol\":328:2594  contract FundMe {... */\n  dataSize(sub_0)\n  dup1\n  dataOffset(sub_0)\n  0x00\n  codecopy\n  0x00\n  return\nstop\n\nsub_0: assembly {\n        /* \"Contracts/FundMe/FundMe.sol\":328:2594  contract FundMe {... */\n      mstore(0x40, 0x80)\n      jumpi(tag_1, lt(calldatasize, 0x04))\n      shr(0xe0, calldataload(0x00))\n      dup1\n      0x6b69a592\n      gt\n      tag_10\n      jumpi\n      dup1\n      0x6b69a592\n      eq\n      tag_6\n      jumpi\n      dup1\n      0xb60d4288\n      eq\n      tag_7\n      jumpi\n      dup1\n      0xdba6335f\n      eq\n      tag_8\n      jumpi\n      dup1\n      0xdc0d3dff\n      eq\n      tag_9\n      jumpi\n      jump(tag_2)\n    tag_10:\n      dup1\n      0x0d8e6e2c\n      eq\n      tag_3\n      jumpi\n      dup1\n      0x3ccfd60b\n      eq\n      tag_4\n      jumpi\n      dup1\n      0x69d1c5af\n      eq\n      tag_5\n      jumpi\n      jump(tag_2)\n    tag_1:\n      jumpi(tag_2, calldatasize)\n        /* \"Contracts/FundMe/FundMe.sol\":2349:2355  fund() */\n      tag_13\n        /* \"Contracts/FundMe/FundMe.sol\":2349:2353  fund */\n      tag_14\n        /* \"Contracts/FundMe/FundMe.sol\":2349:2355  fund() */\n      jump\t// in\n    tag_13:\n        /* \"Contracts/FundMe/FundMe.sol\":328:2594  contract FundMe {... */\n      stop\n    tag_2:\n        /* \"Contracts/FundMe/FundMe.sol\":2286:2292  fund() */\n      tag_17\n        /* \"Contracts/FundMe/FundMe.sol\":2286:2290  fund */\n      tag_14\n        /* \"Contracts/FundMe/FundMe.sol\":2286:2292  fund() */\n      jump\t// in\n    tag_17:\n        /* \"Contracts/FundMe/FundMe.sol\":328:2594  contract FundMe {... */\n      stop\n        /* \"Contracts/FundMe/FundMe.sol\":2372:2578  function getVersion() public view returns (uint256){... */\n    tag_3:\n      callvalue\n      dup1\n      iszero\n      tag_18\n      jumpi\n      revert(0x00, 0x00)\n    tag_18:\n      pop\n      tag_19\n      tag_20\n      jump\t// in\n    tag_19:\n      mload(0x40)\n      tag_21\n      swap2\n      swap1\n      tag_22\n      jump\t// in\n    tag_21:\n      mload(0x40)\n      dup1\n      swap2\n      sub\n      swap1\n      return\n        /* \"Contracts/FundMe/FundMe.sol\":1246:2241  function withdraw() public onlyOwner{... */\n    tag_4:\n      callvalue\n      dup1\n      iszero\n      tag_23\n      jumpi\n      revert(0x00, 0x00)\n    tag_23:\n      pop\n      tag_24\n      tag_25\n      jump\t// in\n    tag_24:\n      stop\n        /* \"Contracts/FundMe/FundMe.sol\":585:664  mapping (address funder => uint256 amountFounded) public addressToAmountFounded */\n    tag_5:\n      callvalue\n      dup1\n      iszero\n      tag_26\n      jumpi\n      revert(0x00, 0x00)\n    tag_26:\n      pop\n      tag_27\n      0x04\n      dup1\n      calldatasize\n      sub\n      dup2\n      add\n      swap1\n      tag_28\n      swap2\n      swap1\n      tag_29\n      jump\t// in\n    tag_28:\n      tag_30\n      jump\t// in\n    tag_27:\n      mload(0x40)\n      tag_31\n      swap2\n      swap1\n      tag_22\n      jump\t// in\n    tag_31:\n      mload(0x40)\n      dup1\n      swap2\n      sub\n      swap1\n      return\n        /* \"Contracts/FundMe/FundMe.sol\":392:443  uint256 public constant MINIMUM_USD =  1 * 10 ** 18 */\n    tag_6:\n      callvalue\n      dup1\n      iszero\n      tag_32\n      jumpi\n      revert(0x00, 0x00)\n    tag_32:\n      pop\n      tag_33\n      tag_34\n      jump\t// in\n    tag_33:\n      mload(0x40)\n      tag_35\n      swap2\n      swap1\n      tag_22\n      jump\t// in\n    tag_35:\n      mload(0x40)\n      dup1\n      swap2\n      sub\n      swap1\n      return\n        /* \"Contracts/FundMe/FundMe.sol\":844:1234  function fund() public payable {... */\n    tag_7:\n      tag_36\n      tag_14\n      jump\t// in\n    tag_36:\n      stop\n        /* \"Contracts/FundMe/FundMe.sol\":481:503  address public i_owner */\n    tag_8:\n      callvalue\n      dup1\n      iszero\n      tag_37\n      jumpi\n      revert(0x00, 0x00)\n    tag_37:\n      pop\n      tag_38\n      tag_39\n      jump\t// in\n    tag_38:\n      mload(0x40)\n      tag_40\n      swap2\n      swap1\n      tag_41\n      jump\t// in\n    tag_40:\n      mload(0x40)\n      dup1\n      swap2\n      sub\n      swap1\n      return\n        /* \"Contracts/FundMe/FundMe.sol\":450:474  address[] public funders */\n    tag_9:\n      callvalue\n      dup1\n      iszero\n      tag_42\n      jumpi\n      revert(0x00, 0x00)\n    tag_42:\n      pop\n      tag_43\n      0x04\n      dup1\n      calldatasize\n      sub\n      dup2\n      add\n      swap1\n      tag_44\n      swap2\n      swap1\n      tag_45\n      jump\t// in\n    tag_44:\n      tag_46\n      jump\t// in\n    tag_43:\n      mload(0x40)\n      tag_47\n      swap2\n      swap1\n      tag_41\n      jump\t// in\n    tag_47:\n      mload(0x40)\n      dup1\n      swap2\n      sub\n      swap1\n      return\n        /* \"Contracts/FundMe/FundMe.sol\":844:1234  function fund() public payable {... */\n    tag_14:\n        /* \"Contracts/FundMe/FundMe.sol\":431:443  1 * 10 ** 18 */\n      0x0de0b6b3a7640000\n        /* \"Contracts/FundMe/FundMe.sol\":1035:1064  msg.value.getConversionRate() */\n      tag_49\n        /* \"Contracts/FundMe/FundMe.sol\":1035:1044  msg.value */\n      callvalue\n        /* \"Contracts/FundMe/FundMe.sol\":1035:1062  msg.value.getConversionRate */\n      tag_50\n        /* \"Contracts/FundMe/FundMe.sol\":1035:1064  msg.value.getConversionRate() */\n      jump\t// in\n    tag_49:\n        /* \"Contracts/FundMe/FundMe.sol\":1035:1079  msg.value.getConversionRate() >= MINIMUM_USD */\n      lt\n      iszero\n        /* \"Contracts/FundMe/FundMe.sol\":1027:1133  require(msg.value.getConversionRate() >= MINIMUM_USD,\"didn't send enough eth. minimum requirement :1 eth\") */\n      tag_51\n      jumpi\n      mload(0x40)\n      0x08c379a000000000000000000000000000000000000000000000000000000000\n      dup2\n      mstore\n      0x04\n      add\n      tag_52\n      swap1\n      tag_53\n      jump\t// in\n    tag_52:\n      mload(0x40)\n      dup1\n      swap2\n      sub\n      swap1\n      revert\n    tag_51:\n        /* \"Contracts/FundMe/FundMe.sol\":1144:1151  funders */\n      0x00\n        /* \"Contracts/FundMe/FundMe.sol\":1157:1167  msg.sender */\n      caller\n        /* \"Contracts/FundMe/FundMe.sol\":1144:1168  funders.push(msg.sender) */\n      swap1\n      dup1\n      0x01\n      dup2\n      sload\n      add\n      dup1\n      dup3\n      sstore\n      dup1\n      swap2\n      pop\n      pop\n      0x01\n      swap1\n      sub\n      swap1\n      0x00\n      mstore\n      keccak256(0x00, 0x20)\n      add\n      0x00\n      swap1\n      swap2\n      swap1\n      swap2\n      swap1\n      swap2\n      0x0100\n      exp\n      dup2\n      sload\n      dup2\n      0xffffffffffffffffffffffffffffffffffffffff\n      mul\n      not\n      and\n      swap1\n      dup4\n      0xffffffffffffffffffffffffffffffffffffffff\n      and\n      mul\n      or\n      swap1\n      sstore\n      pop\n        /* \"Contracts/FundMe/FundMe.sol\":1217:1226  msg.value */\n      callvalue\n        /* \"Contracts/FundMe/FundMe.sol\":1179:1201  addressToAmountFounded */\n      0x02\n        /* \"Contracts/FundMe/FundMe.sol\":1179:1213  addressToAmountFounded[msg.sender] */\n      0x00\n        /* \"Contracts/FundMe/FundMe.sol\":1202:1212  msg.sender */\n      caller\n        /* \"Contracts/FundMe/FundMe.sol\":1179:1213  addressToAmountFounded[msg.sender] */\n      0xffffffffffffffffffffffffffffffffffffffff\n      and\n      0xffffffffffffffffffffffffffffffffffffffff\n      and\n      dup2\n      mstore\n      0x20\n      add\n      swap1\n      dup2\n      mstore\n      0x20\n      add\n      0x00\n      keccak256\n      0x00\n        /* \"Contracts/FundMe/FundMe.sol\":1179:1226  addressToAmountFounded[msg.sender] += msg.value */\n      dup3\n      dup3\n      sload\n      tag_55\n      swap2\n      swap1\n      tag_56\n      jump\t// in\n    tag_55:\n      swap3\n      pop\n      pop\n      dup2\n      swap1\n      sstore\n      pop\n        /* \"Contracts/FundMe/FundMe.sol\":844:1234  function fund() public payable {... */\n      jump\t// out\n        /* \"Contracts/FundMe/FundMe.sol\":2372:2578  function getVersion() public view returns (uint256){... */\n    tag_20:\n        /* \"Contracts/FundMe/FundMe.sol\":2415:2422  uint256 */\n      0x00\n        /* \"Contracts/FundMe/FundMe.sol\":2434:2465  AggregatorV3Interface priceFeed */\n      0x00\n        /* \"Contracts/FundMe/FundMe.sol\":2490:2532  0x694AA1769357215DE4FAC081bf1f309aDC325306 */\n      0x694aa1769357215de4fac081bf1f309adc325306\n        /* \"Contracts/FundMe/FundMe.sol\":2434:2533  AggregatorV3Interface priceFeed = AggregatorV3Interface(0x694AA1769357215DE4FAC081bf1f309aDC325306) */\n      swap1\n      pop\n        /* \"Contracts/FundMe/FundMe.sol\":2551:2560  priceFeed */\n      dup1\n        /* \"Contracts/FundMe/FundMe.sol\":2551:2568  priceFeed.version */\n      0xffffffffffffffffffffffffffffffffffffffff\n      and\n      0x54fd4d50\n        /* \"Contracts/FundMe/FundMe.sol\":2551:2570  priceFeed.version() */\n      mload(0x40)\n      dup2\n      0xffffffff\n      and\n      0xe0\n      shl\n      dup2\n      mstore\n      0x04\n      add\n      0x20\n      mload(0x40)\n      dup1\n      dup4\n      sub\n      dup2\n      dup7\n      gas\n      staticcall\n      iszero\n      dup1\n      iszero\n      tag_59\n      jumpi\n      returndatacopy(0x00, 0x00, returndatasize)\n      revert(0x00, returndatasize)\n    tag_59:\n      pop\n      pop\n      pop\n      pop\n      mload(0x40)\n      returndatasize\n      not(0x1f)\n      0x1f\n      dup3\n      add\n      and\n      dup3\n      add\n      dup1\n      0x40\n      mstore\n      pop\n      dup2\n      add\n      swap1\n      tag_60\n      swap2\n      swap1\n      tag_61\n      jump\t// in\n    tag_60:\n        /* \"Contracts/FundMe/FundMe.sol\":2544:2570  return priceFeed.version() */\n      swap2\n      pop\n      pop\n        /* \"Contracts/FundMe/FundMe.sol\":2372:2578  function getVersion() public view returns (uint256){... */\n      swap1\n      jump\t// out\n        /* \"Contracts/FundMe/FundMe.sol\":1246:2241  function withdraw() public onlyOwner{... */\n    tag_25:\n        /* \"Contracts/FundMe/FundMe.sol\":782:789  i_owner */\n      0x01\n      0x00\n      swap1\n      sload\n      swap1\n      0x0100\n      exp\n      swap1\n      div\n      0xffffffffffffffffffffffffffffffffffffffff\n      and\n        /* \"Contracts/FundMe/FundMe.sol\":768:789  msg.sender != i_owner */\n      0xffffffffffffffffffffffffffffffffffffffff\n      and\n        /* \"Contracts/FundMe/FundMe.sol\":768:778  msg.sender */\n      caller\n        /* \"Contracts/FundMe/FundMe.sol\":768:789  msg.sender != i_owner */\n      0xffffffffffffffffffffffffffffffffffffffff\n      and\n      eq\n        /* \"Contracts/FundMe/FundMe.sol\":765:808  if(msg.sender != i_owner) revert NotOwner() */\n      tag_63\n      jumpi\n        /* \"Contracts/FundMe/FundMe.sol\":798:808  NotOwner() */\n      mload(0x40)\n      0x30cd747100000000000000000000000000000000000000000000000000000000\n      dup2\n      mstore\n      0x04\n      add\n      mload(0x40)\n      dup1\n      swap2\n      sub\n      swap1\n      revert\n        /* \"Contracts/FundMe/FundMe.sol\":765:808  if(msg.sender != i_owner) revert NotOwner() */\n    tag_63:\n        /* \"Contracts/FundMe/FundMe.sol\":1298:1317  uint256 funderIndex */\n      0x00\n        /* \"Contracts/FundMe/FundMe.sol\":1320:1321  0 */\n      0x00\n        /* \"Contracts/FundMe/FundMe.sol\":1298:1321  uint256 funderIndex = 0 */\n      swap1\n      pop\n        /* \"Contracts/FundMe/FundMe.sol\":1293:1480  for (uint256 funderIndex = 0; funderIndex < funders.length; funderIndex++){... */\n    tag_65:\n        /* \"Contracts/FundMe/FundMe.sol\":1337:1344  funders */\n      0x00\n        /* \"Contracts/FundMe/FundMe.sol\":1337:1351  funders.length */\n      dup1\n      sload\n      swap1\n      pop\n        /* \"Contracts/FundMe/FundMe.sol\":1323:1334  funderIndex */\n      dup2\n        /* \"Contracts/FundMe/FundMe.sol\":1323:1351  funderIndex < funders.length */\n      lt\n        /* \"Contracts/FundMe/FundMe.sol\":1293:1480  for (uint256 funderIndex = 0; funderIndex < funders.length; funderIndex++){... */\n      iszero\n      tag_66\n      jumpi\n        /* \"Contracts/FundMe/FundMe.sol\":1382:1396  address funder */\n      0x00\n        /* \"Contracts/FundMe/FundMe.sol\":1399:1406  funders */\n      0x00\n        /* \"Contracts/FundMe/FundMe.sol\":1407:1418  funderIndex */\n      dup3\n        /* \"Contracts/FundMe/FundMe.sol\":1399:1419  funders[funderIndex] */\n      dup2\n      sload\n      dup2\n      lt\n      tag_68\n      jumpi\n      tag_69\n      tag_70\n      jump\t// in\n    tag_69:\n    tag_68:\n      swap1\n      0x00\n      mstore\n      keccak256(0x00, 0x20)\n      add\n      0x00\n      swap1\n      sload\n      swap1\n      0x0100\n      exp\n      swap1\n      div\n      0xffffffffffffffffffffffffffffffffffffffff\n      and\n        /* \"Contracts/FundMe/FundMe.sol\":1382:1419  address funder = funders[funderIndex] */\n      swap1\n      pop\n        /* \"Contracts/FundMe/FundMe.sol\":1467:1468  0 */\n      0x00\n        /* \"Contracts/FundMe/FundMe.sol\":1434:1456  addressToAmountFounded */\n      0x02\n        /* \"Contracts/FundMe/FundMe.sol\":1434:1464  addressToAmountFounded[funder] */\n      0x00\n        /* \"Contracts/FundMe/FundMe.sol\":1457:1463  funder */\n      dup4\n        /* \"Contracts/FundMe/FundMe.sol\":1434:1464  addressToAmountFounded[funder] */\n      0xffffffffffffffffffffffffffffffffffffffff\n      and\n      0xffffffffffffffffffffffffffffffffffffffff\n      and\n      dup2\n      mstore\n      0x20\n      add\n      swap1\n      dup2\n      mstore\n      0x20\n      add\n      0x00\n      keccak256\n        /* \"Contracts/FundMe/FundMe.sol\":1434:1468  addressToAmountFounded[funder] = 0 */\n      dup2\n      swap1\n      sstore\n      pop\n        /* \"Contracts/FundMe/FundMe.sol\":1367:1480  {... */\n      pop\n        /* \"Contracts/FundMe/FundMe.sol\":1353:1366  funderIndex++ */\n      dup1\n      dup1\n      0x01\n      add\n      swap2\n      pop\n      pop\n        /* \"Contracts/FundMe/FundMe.sol\":1293:1480  for (uint256 funderIndex = 0; funderIndex < funders.length; funderIndex++){... */\n      jump(tag_65)\n    tag_66:\n      pop\n        /* \"Contracts/FundMe/FundMe.sol\":1514:1515  0 */\n      0x00\n        /* \"Contracts/FundMe/FundMe.sol\":1500:1516  new address[](0) */\n      0xffffffffffffffff\n      dup2\n      gt\n      iszero\n      tag_72\n      jumpi\n      tag_73\n      tag_74\n      jump\t// in\n    tag_73:\n    tag_72:\n      mload(0x40)\n      swap1\n      dup1\n      dup3\n      mstore\n      dup1\n      0x20\n      mul\n      0x20\n      add\n      dup3\n      add\n      0x40\n      mstore\n      dup1\n      iszero\n      tag_75\n      jumpi\n      dup2\n      0x20\n      add\n      0x20\n      dup3\n      mul\n      dup1\n      calldatasize\n      dup4\n      calldatacopy\n      dup1\n      dup3\n      add\n      swap2\n      pop\n      pop\n      swap1\n      pop\n    tag_75:\n      pop\n        /* \"Contracts/FundMe/FundMe.sol\":1490:1497  funders */\n      0x00\n        /* \"Contracts/FundMe/FundMe.sol\":1490:1516  funders = new address[](0) */\n      swap1\n      dup1\n      mload\n      swap1\n      0x20\n      add\n      swap1\n      tag_76\n      swap3\n      swap2\n      swap1\n      tag_77\n      jump\t// in\n    tag_76:\n      pop\n        /* \"Contracts/FundMe/FundMe.sol\":1544:1560  bool callSuccess */\n      0x00\n        /* \"Contracts/FundMe/FundMe.sol\":1573:1583  msg.sender */\n      caller\n        /* \"Contracts/FundMe/FundMe.sol\":1565:1589  payable(msg.sender).call */\n      0xffffffffffffffffffffffffffffffffffffffff\n      and\n        /* \"Contracts/FundMe/FundMe.sol\":1597:1618  address(this).balance */\n      selfbalance\n        /* \"Contracts/FundMe/FundMe.sol\":1565:1623  payable(msg.sender).call{value: address(this).balance}(\"\") */\n      mload(0x40)\n      tag_78\n      swap1\n      tag_79\n      jump\t// in\n    tag_78:\n      0x00\n      mload(0x40)\n      dup1\n      dup4\n      sub\n      dup2\n      dup6\n      dup8\n      gas\n      call\n      swap3\n      pop\n      pop\n      pop\n      returndatasize\n      dup1\n      0x00\n      dup2\n      eq\n      tag_82\n      jumpi\n      mload(0x40)\n      swap2\n      pop\n      and(add(returndatasize, 0x3f), not(0x1f))\n      dup3\n      add\n      0x40\n      mstore\n      returndatasize\n      dup3\n      mstore\n      returndatasize\n      0x00\n      0x20\n      dup5\n      add\n      returndatacopy\n      jump(tag_81)\n    tag_82:\n      0x60\n      swap2\n      pop\n    tag_81:\n      pop\n        /* \"Contracts/FundMe/FundMe.sol\":1543:1623  (bool callSuccess,) = payable(msg.sender).call{value: address(this).balance}(\"\") */\n      pop\n      swap1\n      pop\n        /* \"Contracts/FundMe/FundMe.sol\":1642:1653  callSuccess */\n      dup1\n        /* \"Contracts/FundMe/FundMe.sol\":1634:1668  require(callSuccess,\"call failed\") */\n      tag_83\n      jumpi\n      mload(0x40)\n      0x08c379a000000000000000000000000000000000000000000000000000000000\n      dup2\n      mstore\n      0x04\n      add\n      tag_84\n      swap1\n      tag_85\n      jump\t// in\n    tag_84:\n      mload(0x40)\n      dup1\n      swap2\n      sub\n      swap1\n      revert\n    tag_83:\n        /* \"Contracts/FundMe/FundMe.sol\":1282:2241  {... */\n      pop\n        /* \"Contracts/FundMe/FundMe.sol\":1246:2241  function withdraw() public onlyOwner{... */\n      jump\t// out\n        /* \"Contracts/FundMe/FundMe.sol\":585:664  mapping (address funder => uint256 amountFounded) public addressToAmountFounded */\n    tag_30:\n      mstore(0x20, 0x02)\n      dup1\n      0x00\n      mstore\n      keccak256(0x00, 0x40)\n      0x00\n      swap2\n      pop\n      swap1\n      pop\n      sload\n      dup2\n      jump\t// out\n        /* \"Contracts/FundMe/FundMe.sol\":392:443  uint256 public constant MINIMUM_USD =  1 * 10 ** 18 */\n    tag_34:\n        /* \"Contracts/FundMe/FundMe.sol\":431:443  1 * 10 ** 18 */\n      0x0de0b6b3a7640000\n        /* \"Contracts/FundMe/FundMe.sol\":392:443  uint256 public constant MINIMUM_USD =  1 * 10 ** 18 */\n      dup2\n      jump\t// out\n        /* \"Contracts/FundMe/FundMe.sol\":481:503  address public i_owner */\n    tag_39:\n      0x01\n      0x00\n      swap1\n      sload\n      swap1\n      0x0100\n      exp\n      swap1\n      div\n      0xffffffffffffffffffffffffffffffffffffffff\n      and\n      dup2\n      jump\t// out\n        /* \"Contracts/FundMe/FundMe.sol\":450:474  address[] public funders */\n    tag_46:\n      0x00\n      dup2\n      dup2\n      sload\n      dup2\n      lt\n      tag_86\n      jumpi\n      0x00\n      dup1\n      revert\n    tag_86:\n      swap1\n      0x00\n      mstore\n      keccak256(0x00, 0x20)\n      add\n      0x00\n      swap2\n      pop\n      sload\n      swap1\n      0x0100\n      exp\n      swap1\n      div\n      0xffffffffffffffffffffffffffffffffffffffff\n      and\n      dup2\n      jump\t// out\n        /* \"Contracts/FundMe/PriceConverter.sol\":594:911  function getConversionRate(uint256 ethAmount) internal view returns (uint256) {... */\n    tag_50:\n        /* \"Contracts/FundMe/PriceConverter.sol\":663:670  uint256 */\n      0x00\n        /* \"Contracts/FundMe/PriceConverter.sol\":683:699  uint256 ethPrice */\n      0x00\n        /* \"Contracts/FundMe/PriceConverter.sol\":702:712  getPrice() */\n      tag_89\n        /* \"Contracts/FundMe/PriceConverter.sol\":702:710  getPrice */\n      tag_90\n        /* \"Contracts/FundMe/PriceConverter.sol\":702:712  getPrice() */\n      jump\t// in\n    tag_89:\n        /* \"Contracts/FundMe/PriceConverter.sol\":683:712  uint256 ethPrice = getPrice() */\n      swap1\n      pop\n        /* \"Contracts/FundMe/PriceConverter.sol\":723:745  uint256 ethAmountInUsd */\n      0x00\n        /* \"Contracts/FundMe/PriceConverter.sol\":772:791  1000000000000000000 */\n      0x0de0b6b3a7640000\n        /* \"Contracts/FundMe/PriceConverter.sol\":760:769  ethAmount */\n      dup5\n        /* \"Contracts/FundMe/PriceConverter.sol\":749:757  ethPrice */\n      dup4\n        /* \"Contracts/FundMe/PriceConverter.sol\":749:769  ethPrice * ethAmount */\n      tag_91\n      swap2\n      swap1\n      tag_92\n      jump\t// in\n    tag_91:\n        /* \"Contracts/FundMe/PriceConverter.sol\":748:791  (ethPrice * ethAmount)/ 1000000000000000000 */\n      tag_93\n      swap2\n      swap1\n      tag_94\n      jump\t// in\n    tag_93:\n        /* \"Contracts/FundMe/PriceConverter.sol\":723:791  uint256 ethAmountInUsd = (ethPrice * ethAmount)/ 1000000000000000000 */\n      swap1\n      pop\n        /* \"Contracts/FundMe/PriceConverter.sol\":889:903  ethAmountInUsd */\n      dup1\n        /* \"Contracts/FundMe/PriceConverter.sol\":882:903  return ethAmountInUsd */\n      swap3\n      pop\n      pop\n      pop\n        /* \"Contracts/FundMe/PriceConverter.sol\":594:911  function getConversionRate(uint256 ethAmount) internal view returns (uint256) {... */\n      swap2\n      swap1\n      pop\n      jump\t// out\n        /* \"Contracts/FundMe/PriceConverter.sol\":211:586  function getPrice() internal view returns (uint256){... */\n    tag_90:\n        /* \"Contracts/FundMe/PriceConverter.sol\":254:261  uint256 */\n      0x00\n        /* \"Contracts/FundMe/PriceConverter.sol\":275:306  AggregatorV3Interface priceFeed */\n      0x00\n        /* \"Contracts/FundMe/PriceConverter.sol\":331:373  0x694AA1769357215DE4FAC081bf1f309aDC325306 */\n      0x694aa1769357215de4fac081bf1f309adc325306\n        /* \"Contracts/FundMe/PriceConverter.sol\":275:374  AggregatorV3Interface priceFeed = AggregatorV3Interface(0x694AA1769357215DE4FAC081bf1f309aDC325306) */\n      swap1\n      pop\n        /* \"Contracts/FundMe/PriceConverter.sol\":387:400  int256 answer */\n      0x00\n        /* \"Contracts/FundMe/PriceConverter.sol\":410:419  priceFeed */\n      dup2\n        /* \"Contracts/FundMe/PriceConverter.sol\":410:435  priceFeed.latestRoundData */\n      0xffffffffffffffffffffffffffffffffffffffff\n      and\n      0xfeaf968c\n        /* \"Contracts/FundMe/PriceConverter.sol\":410:437  priceFeed.latestRoundData() */\n      mload(0x40)\n      dup2\n      0xffffffff\n      and\n      0xe0\n      shl\n      dup2\n      mstore\n      0x04\n      add\n      0xa0\n      mload(0x40)\n      dup1\n      dup4\n      sub\n      dup2\n      dup7\n      gas\n      staticcall\n      iszero\n      dup1\n      iszero\n      tag_97\n      jumpi\n      returndatacopy(0x00, 0x00, returndatasize)\n      revert(0x00, returndatasize)\n    tag_97:\n      pop\n      pop\n      pop\n      pop\n      mload(0x40)\n      returndatasize\n      not(0x1f)\n      0x1f\n      dup3\n      add\n      and\n      dup3\n      add\n      dup1\n      0x40\n      mstore\n      pop\n      dup2\n      add\n      swap1\n      tag_98\n      swap2\n      swap1\n      tag_99\n      jump\t// in\n    tag_98:\n        /* \"Contracts/FundMe/PriceConverter.sol\":385:437  (,int256 answer, , , ) = priceFeed.latestRoundData() */\n      pop\n      pop\n      pop\n      swap2\n      pop\n      pop\n        /* \"Contracts/FundMe/PriceConverter.sol\":544:555  10000000000 */\n      0x02540be400\n        /* \"Contracts/FundMe/PriceConverter.sol\":535:541  answer */\n      dup2\n        /* \"Contracts/FundMe/PriceConverter.sol\":535:555  answer * 10000000000 */\n      tag_100\n      swap2\n      swap1\n      tag_101\n      jump\t// in\n    tag_100:\n        /* \"Contracts/FundMe/PriceConverter.sol\":520:556  return uint256(answer * 10000000000) */\n      swap3\n      pop\n      pop\n      pop\n        /* \"Contracts/FundMe/PriceConverter.sol\":211:586  function getPrice() internal view returns (uint256){... */\n      swap1\n      jump\t// out\n    tag_77:\n      dup3\n      dup1\n      sload\n      dup3\n      dup3\n      sstore\n      swap1\n      0x00\n      mstore\n      keccak256(0x00, 0x20)\n      swap1\n      dup2\n      add\n      swap3\n      dup3\n      iszero\n      tag_102\n      jumpi\n      swap2\n      0x20\n      mul\n      dup3\n      add\n    tag_103:\n      dup3\n      dup2\n      gt\n      iszero\n      tag_104\n      jumpi\n      dup3\n      mload\n      dup3\n      exp(0x0100, 0x00)\n      dup2\n      sload\n      dup2\n      0xffffffffffffffffffffffffffffffffffffffff\n      mul\n      not\n      and\n      swap1\n      dup4\n      0xffffffffffffffffffffffffffffffffffffffff\n      and\n      mul\n      or\n      swap1\n      sstore\n      pop\n      swap2\n      0x20\n      add\n      swap2\n      swap1\n      0x01\n      add\n      swap1\n      jump(tag_103)\n    tag_104:\n    tag_102:\n      pop\n      swap1\n      pop\n      tag_105\n      swap2\n      swap1\n      tag_106\n      jump\t// in\n    tag_105:\n      pop\n      swap1\n      jump\t// out\n    tag_106:\n    tag_107:\n      dup1\n      dup3\n      gt\n      iszero\n      tag_108\n      jumpi\n      0x00\n      dup2\n      0x00\n      swap1\n      sstore\n      pop\n      0x01\n      add\n      jump(tag_107)\n    tag_108:\n      pop\n      swap1\n      jump\t// out\n        /* \"#utility.yul\":7:84   */\n    tag_109:\n        /* \"#utility.yul\":44:51   */\n      0x00\n        /* \"#utility.yul\":73:78   */\n      dup2\n        /* \"#utility.yul\":62:78   */\n      swap1\n      pop\n        /* \"#utility.yul\":7:84   */\n      swap2\n      swap1\n      pop\n      jump\t// out\n        /* \"#utility.yul\":90:208   */\n    tag_110:\n        /* \"#utility.yul\":177:201   */\n      tag_141\n        /* \"#utility.yul\":195:200   */\n      dup2\n        /* \"#utility.yul\":177:201   */\n      tag_109\n      jump\t// in\n    tag_141:\n        /* \"#utility.yul\":172:175   */\n      dup3\n        /* \"#utility.yul\":165:202   */\n      mstore\n        /* \"#utility.yul\":90:208   */\n      pop\n      pop\n      jump\t// out\n        /* \"#utility.yul\":214:436   */\n    tag_22:\n        /* \"#utility.yul\":307:311   */\n      0x00\n        /* \"#utility.yul\":345:347   */\n      0x20\n        /* \"#utility.yul\":334:343   */\n      dup3\n        /* \"#utility.yul\":330:348   */\n      add\n        /* \"#utility.yul\":322:348   */\n      swap1\n      pop\n        /* \"#utility.yul\":358:429   */\n      tag_143\n        /* \"#utility.yul\":426:427   */\n      0x00\n        /* \"#utility.yul\":415:424   */\n      dup4\n        /* \"#utility.yul\":411:428   */\n      add\n        /* \"#utility.yul\":402:408   */\n      dup5\n        /* \"#utility.yul\":358:429   */\n      tag_110\n      jump\t// in\n    tag_143:\n        /* \"#utility.yul\":214:436   */\n      swap3\n      swap2\n      pop\n      pop\n      jump\t// out\n        /* \"#utility.yul\":523:640   */\n    tag_112:\n        /* \"#utility.yul\":632:633   */\n      0x00\n        /* \"#utility.yul\":629:630   */\n      0x00\n        /* \"#utility.yul\":622:634   */\n      revert\n        /* \"#utility.yul\":769:895   */\n    tag_114:\n        /* \"#utility.yul\":806:813   */\n      0x00\n        /* \"#utility.yul\":846:888   */\n      0xffffffffffffffffffffffffffffffffffffffff\n        /* \"#utility.yul\":839:844   */\n      dup3\n        /* \"#utility.yul\":835:889   */\n      and\n        /* \"#utility.yul\":824:889   */\n      swap1\n      pop\n        /* \"#utility.yul\":769:895   */\n      swap2\n      swap1\n      pop\n      jump\t// out\n        /* \"#utility.yul\":901:997   */\n    tag_115:\n        /* \"#utility.yul\":938:945   */\n      0x00\n        /* \"#utility.yul\":967:991   */\n      tag_149\n        /* \"#utility.yul\":985:990   */\n      dup3\n        /* \"#utility.yul\":967:991   */\n      tag_114\n      jump\t// in\n    tag_149:\n        /* \"#utility.yul\":956:991   */\n      swap1\n      pop\n        /* \"#utility.yul\":901:997   */\n      swap2\n      swap1\n      pop\n      jump\t// out\n        /* \"#utility.yul\":1003:1125   */\n    tag_116:\n        /* \"#utility.yul\":1076:1100   */\n      tag_151\n        /* \"#utility.yul\":1094:1099   */\n      dup2\n        /* \"#utility.yul\":1076:1100   */\n      tag_115\n      jump\t// in\n    tag_151:\n        /* \"#utility.yul\":1069:1074   */\n      dup2\n        /* \"#utility.yul\":1066:1101   */\n      eq\n        /* \"#utility.yul\":1056:1119   */\n      tag_152\n      jumpi\n        /* \"#utility.yul\":1115:1116   */\n      0x00\n        /* \"#utility.yul\":1112:1113   */\n      0x00\n        /* \"#utility.yul\":1105:1117   */\n      revert\n        /* \"#utility.yul\":1056:1119   */\n    tag_152:\n        /* \"#utility.yul\":1003:1125   */\n      pop\n      jump\t// out\n        /* \"#utility.yul\":1131:1270   */\n    tag_117:\n        /* \"#utility.yul\":1177:1182   */\n      0x00\n        /* \"#utility.yul\":1215:1221   */\n      dup2\n        /* \"#utility.yul\":1202:1222   */\n      calldataload\n        /* \"#utility.yul\":1193:1222   */\n      swap1\n      pop\n        /* \"#utility.yul\":1231:1264   */\n      tag_154\n        /* \"#utility.yul\":1258:1263   */\n      dup2\n        /* \"#utility.yul\":1231:1264   */\n      tag_116\n      jump\t// in\n    tag_154:\n        /* \"#utility.yul\":1131:1270   */\n      swap3\n      swap2\n      pop\n      pop\n      jump\t// out\n        /* \"#utility.yul\":1276:1605   */\n    tag_29:\n        /* \"#utility.yul\":1335:1341   */\n      0x00\n        /* \"#utility.yul\":1384:1386   */\n      0x20\n        /* \"#utility.yul\":1372:1381   */\n      dup3\n        /* \"#utility.yul\":1363:1370   */\n      dup5\n        /* \"#utility.yul\":1359:1382   */\n      sub\n        /* \"#utility.yul\":1355:1387   */\n      slt\n        /* \"#utility.yul\":1352:1471   */\n      iszero\n      tag_156\n      jumpi\n        /* \"#utility.yul\":1390:1469   */\n      tag_157\n      tag_112\n      jump\t// in\n    tag_157:\n        /* \"#utility.yul\":1352:1471   */\n    tag_156:\n        /* \"#utility.yul\":1510:1511   */\n      0x00\n        /* \"#utility.yul\":1535:1588   */\n      tag_158\n        /* \"#utility.yul\":1580:1587   */\n      dup5\n        /* \"#utility.yul\":1571:1577   */\n      dup3\n        /* \"#utility.yul\":1560:1569   */\n      dup6\n        /* \"#utility.yul\":1556:1578   */\n      add\n        /* \"#utility.yul\":1535:1588   */\n      tag_117\n      jump\t// in\n    tag_158:\n        /* \"#utility.yul\":1525:1588   */\n      swap2\n      pop\n        /* \"#utility.yul\":1481:1598   */\n      pop\n        /* \"#utility.yul\":1276:1605   */\n      swap3\n      swap2\n      pop\n      pop\n      jump\t// out\n        /* \"#utility.yul\":1611:1729   */\n    tag_118:\n        /* \"#utility.yul\":1698:1722   */\n      tag_160\n        /* \"#utility.yul\":1716:1721   */\n      dup2\n        /* \"#utility.yul\":1698:1722   */\n      tag_115\n      jump\t// in\n    tag_160:\n        /* \"#utility.yul\":1693:1696   */\n      dup3\n        /* \"#utility.yul\":1686:1723   */\n      mstore\n        /* \"#utility.yul\":1611:1729   */\n      pop\n      pop\n      jump\t// out\n        /* \"#utility.yul\":1735:1957   */\n    tag_41:\n        /* \"#utility.yul\":1828:1832   */\n      0x00\n        /* \"#utility.yul\":1866:1868   */\n      0x20\n        /* \"#utility.yul\":1855:1864   */\n      dup3\n        /* \"#utility.yul\":1851:1869   */\n      add\n        /* \"#utility.yul\":1843:1869   */\n      swap1\n      pop\n        /* \"#utility.yul\":1879:1950   */\n      tag_162\n        /* \"#utility.yul\":1947:1948   */\n      0x00\n        /* \"#utility.yul\":1936:1945   */\n      dup4\n        /* \"#utility.yul\":1932:1949   */\n      add\n        /* \"#utility.yul\":1923:1929   */\n      dup5\n        /* \"#utility.yul\":1879:1950   */\n      tag_118\n      jump\t// in\n    tag_162:\n        /* \"#utility.yul\":1735:1957   */\n      swap3\n      swap2\n      pop\n      pop\n      jump\t// out\n        /* \"#utility.yul\":1963:2085   */\n    tag_119:\n        /* \"#utility.yul\":2036:2060   */\n      tag_164\n        /* \"#utility.yul\":2054:2059   */\n      dup2\n        /* \"#utility.yul\":2036:2060   */\n      tag_109\n      jump\t// in\n    tag_164:\n        /* \"#utility.yul\":2029:2034   */\n      dup2\n        /* \"#utility.yul\":2026:2061   */\n      eq\n        /* \"#utility.yul\":2016:2079   */\n      tag_165\n      jumpi\n        /* \"#utility.yul\":2075:2076   */\n      0x00\n        /* \"#utility.yul\":2072:2073   */\n      0x00\n        /* \"#utility.yul\":2065:2077   */\n      revert\n        /* \"#utility.yul\":2016:2079   */\n    tag_165:\n        /* \"#utility.yul\":1963:2085   */\n      pop\n      jump\t// out\n        /* \"#utility.yul\":2091:2230   */\n    tag_120:\n        /* \"#utility.yul\":2137:2142   */\n      0x00\n        /* \"#utility.yul\":2175:2181   */\n      dup2\n        /* \"#utility.yul\":2162:2182   */\n      calldataload\n        /* \"#utility.yul\":2153:2182   */\n      swap1\n      pop\n        /* \"#utility.yul\":2191:2224   */\n      tag_167\n        /* \"#utility.yul\":2218:2223   */\n      dup2\n        /* \"#utility.yul\":2191:2224   */\n      tag_119\n      jump\t// in\n    tag_167:\n        /* \"#utility.yul\":2091:2230   */\n      swap3\n      swap2\n      pop\n      pop\n      jump\t// out\n        /* \"#utility.yul\":2236:2565   */\n    tag_45:\n        /* \"#utility.yul\":2295:2301   */\n      0x00\n        /* \"#utility.yul\":2344:2346   */\n      0x20\n        /* \"#utility.yul\":2332:2341   */\n      dup3\n        /* \"#utility.yul\":2323:2330   */\n      dup5\n        /* \"#utility.yul\":2319:2342   */\n      sub\n        /* \"#utility.yul\":2315:2347   */\n      slt\n        /* \"#utility.yul\":2312:2431   */\n      iszero\n      tag_169\n      jumpi\n        /* \"#utility.yul\":2350:2429   */\n      tag_170\n      tag_112\n      jump\t// in\n    tag_170:\n        /* \"#utility.yul\":2312:2431   */\n    tag_169:\n        /* \"#utility.yul\":2470:2471   */\n      0x00\n        /* \"#utility.yul\":2495:2548   */\n      tag_171\n        /* \"#utility.yul\":2540:2547   */\n      dup5\n        /* \"#utility.yul\":2531:2537   */\n      dup3\n        /* \"#utility.yul\":2520:2529   */\n      dup6\n        /* \"#utility.yul\":2516:2538   */\n      add\n        /* \"#utility.yul\":2495:2548   */\n      tag_120\n      jump\t// in\n    tag_171:\n        /* \"#utility.yul\":2485:2548   */\n      swap2\n      pop\n        /* \"#utility.yul\":2441:2558   */\n      pop\n        /* \"#utility.yul\":2236:2565   */\n      swap3\n      swap2\n      pop\n      pop\n      jump\t// out\n        /* \"#utility.yul\":2571:2740   */\n    tag_121:\n        /* \"#utility.yul\":2655:2666   */\n      0x00\n        /* \"#utility.yul\":2689:2695   */\n      dup3\n        /* \"#utility.yul\":2684:2687   */\n      dup3\n        /* \"#utility.yul\":2677:2696   */\n      mstore\n        /* \"#utility.yul\":2729:2733   */\n      0x20\n        /* \"#utility.yul\":2724:2727   */\n      dup3\n        /* \"#utility.yul\":2720:2734   */\n      add\n        /* \"#utility.yul\":2705:2734   */\n      swap1\n      pop\n        /* \"#utility.yul\":2571:2740   */\n      swap3\n      swap2\n      pop\n      pop\n      jump\t// out\n        /* \"#utility.yul\":2746:2983   */\n    tag_122:\n        /* \"#utility.yul\":2886:2920   */\n      0x6469646e27742073656e6420656e6f756768206574682e206d696e696d756d20\n        /* \"#utility.yul\":2882:2883   */\n      0x00\n        /* \"#utility.yul\":2874:2880   */\n      dup3\n        /* \"#utility.yul\":2870:2884   */\n      add\n        /* \"#utility.yul\":2863:2921   */\n      mstore\n        /* \"#utility.yul\":2955:2975   */\n      0x726571756972656d656e74203a31206574680000000000000000000000000000\n        /* \"#utility.yul\":2950:2952   */\n      0x20\n        /* \"#utility.yul\":2942:2948   */\n      dup3\n        /* \"#utility.yul\":2938:2953   */\n      add\n        /* \"#utility.yul\":2931:2976   */\n      mstore\n        /* \"#utility.yul\":2746:2983   */\n      pop\n      jump\t// out\n        /* \"#utility.yul\":2989:3355   */\n    tag_123:\n        /* \"#utility.yul\":3131:3134   */\n      0x00\n        /* \"#utility.yul\":3152:3219   */\n      tag_175\n        /* \"#utility.yul\":3216:3218   */\n      0x32\n        /* \"#utility.yul\":3211:3214   */\n      dup4\n        /* \"#utility.yul\":3152:3219   */\n      tag_121\n      jump\t// in\n    tag_175:\n        /* \"#utility.yul\":3145:3219   */\n      swap2\n      pop\n        /* \"#utility.yul\":3228:3321   */\n      tag_176\n        /* \"#utility.yul\":3317:3320   */\n      dup3\n        /* \"#utility.yul\":3228:3321   */\n      tag_122\n      jump\t// in\n    tag_176:\n        /* \"#utility.yul\":3346:3348   */\n      0x40\n        /* \"#utility.yul\":3341:3344   */\n      dup3\n        /* \"#utility.yul\":3337:3349   */\n      add\n        /* \"#utility.yul\":3330:3349   */\n      swap1\n      pop\n        /* \"#utility.yul\":2989:3355   */\n      swap2\n      swap1\n      pop\n      jump\t// out\n        /* \"#utility.yul\":3361:3780   */\n    tag_53:\n        /* \"#utility.yul\":3527:3531   */\n      0x00\n        /* \"#utility.yul\":3565:3567   */\n      0x20\n        /* \"#utility.yul\":3554:3563   */\n      dup3\n        /* \"#utility.yul\":3550:3568   */\n      add\n        /* \"#utility.yul\":3542:3568   */\n      swap1\n      pop\n        /* \"#utility.yul\":3614:3623   */\n      dup2\n        /* \"#utility.yul\":3608:3612   */\n      dup2\n        /* \"#utility.yul\":3604:3624   */\n      sub\n        /* \"#utility.yul\":3600:3601   */\n      0x00\n        /* \"#utility.yul\":3589:3598   */\n      dup4\n        /* \"#utility.yul\":3585:3602   */\n      add\n        /* \"#utility.yul\":3578:3625   */\n      mstore\n        /* \"#utility.yul\":3642:3773   */\n      tag_178\n        /* \"#utility.yul\":3768:3772   */\n      dup2\n        /* \"#utility.yul\":3642:3773   */\n      tag_123\n      jump\t// in\n    tag_178:\n        /* \"#utility.yul\":3634:3773   */\n      swap1\n      pop\n        /* \"#utility.yul\":3361:3780   */\n      swap2\n      swap1\n      pop\n      jump\t// out\n        /* \"#utility.yul\":3786:3966   */\n    tag_124:\n        /* \"#utility.yul\":3834:3911   */\n      0x4e487b7100000000000000000000000000000000000000000000000000000000\n        /* \"#utility.yul\":3831:3832   */\n      0x00\n        /* \"#utility.yul\":3824:3912   */\n      mstore\n        /* \"#utility.yul\":3931:3935   */\n      0x11\n        /* \"#utility.yul\":3928:3929   */\n      0x04\n        /* \"#utility.yul\":3921:3936   */\n      mstore\n        /* \"#utility.yul\":3955:3959   */\n      0x24\n        /* \"#utility.yul\":3952:3953   */\n      0x00\n        /* \"#utility.yul\":3945:3960   */\n      revert\n        /* \"#utility.yul\":3972:4163   */\n    tag_56:\n        /* \"#utility.yul\":4012:4015   */\n      0x00\n        /* \"#utility.yul\":4031:4051   */\n      tag_181\n        /* \"#utility.yul\":4049:4050   */\n      dup3\n        /* \"#utility.yul\":4031:4051   */\n      tag_109\n      jump\t// in\n    tag_181:\n        /* \"#utility.yul\":4026:4051   */\n      swap2\n      pop\n        /* \"#utility.yul\":4065:4085   */\n      tag_182\n        /* \"#utility.yul\":4083:4084   */\n      dup4\n        /* \"#utility.yul\":4065:4085   */\n      tag_109\n      jump\t// in\n    tag_182:\n        /* \"#utility.yul\":4060:4085   */\n      swap3\n      pop\n        /* \"#utility.yul\":4108:4109   */\n      dup3\n        /* \"#utility.yul\":4105:4106   */\n      dup3\n        /* \"#utility.yul\":4101:4110   */\n      add\n        /* \"#utility.yul\":4094:4110   */\n      swap1\n      pop\n        /* \"#utility.yul\":4129:4132   */\n      dup1\n        /* \"#utility.yul\":4126:4127   */\n      dup3\n        /* \"#utility.yul\":4123:4133   */\n      gt\n        /* \"#utility.yul\":4120:4156   */\n      iszero\n      tag_183\n      jumpi\n        /* \"#utility.yul\":4136:4154   */\n      tag_184\n      tag_124\n      jump\t// in\n    tag_184:\n        /* \"#utility.yul\":4120:4156   */\n    tag_183:\n        /* \"#utility.yul\":3972:4163   */\n      swap3\n      swap2\n      pop\n      pop\n      jump\t// out\n        /* \"#utility.yul\":4169:4312   */\n    tag_125:\n        /* \"#utility.yul\":4226:4231   */\n      0x00\n        /* \"#utility.yul\":4257:4263   */\n      dup2\n        /* \"#utility.yul\":4251:4264   */\n      mload\n        /* \"#utility.yul\":4242:4264   */\n      swap1\n      pop\n        /* \"#utility.yul\":4273:4306   */\n      tag_186\n        /* \"#utility.yul\":4300:4305   */\n      dup2\n        /* \"#utility.yul\":4273:4306   */\n      tag_119\n      jump\t// in\n    tag_186:\n        /* \"#utility.yul\":4169:4312   */\n      swap3\n      swap2\n      pop\n      pop\n      jump\t// out\n        /* \"#utility.yul\":4318:4669   */\n    tag_61:\n        /* \"#utility.yul\":4388:4394   */\n      0x00\n        /* \"#utility.yul\":4437:4439   */\n      0x20\n        /* \"#utility.yul\":4425:4434   */\n      dup3\n        /* \"#utility.yul\":4416:4423   */\n      dup5\n        /* \"#utility.yul\":4412:4435   */\n      sub\n        /* \"#utility.yul\":4408:4440   */\n      slt\n        /* \"#utility.yul\":4405:4524   */\n      iszero\n      tag_188\n      jumpi\n        /* \"#utility.yul\":4443:4522   */\n      tag_189\n      tag_112\n      jump\t// in\n    tag_189:\n        /* \"#utility.yul\":4405:4524   */\n    tag_188:\n        /* \"#utility.yul\":4563:4564   */\n      0x00\n        /* \"#utility.yul\":4588:4652   */\n      tag_190\n        /* \"#utility.yul\":4644:4651   */\n      dup5\n        /* \"#utility.yul\":4635:4641   */\n      dup3\n        /* \"#utility.yul\":4624:4633   */\n      dup6\n        /* \"#utility.yul\":4620:4642   */\n      add\n        /* \"#utility.yul\":4588:4652   */\n      tag_125\n      jump\t// in\n    tag_190:\n        /* \"#utility.yul\":4578:4652   */\n      swap2\n      pop\n        /* \"#utility.yul\":4534:4662   */\n      pop\n        /* \"#utility.yul\":4318:4669   */\n      swap3\n      swap2\n      pop\n      pop\n      jump\t// out\n        /* \"#utility.yul\":4675:4855   */\n    tag_70:\n        /* \"#utility.yul\":4723:4800   */\n      0x4e487b7100000000000000000000000000000000000000000000000000000000\n        /* \"#utility.yul\":4720:4721   */\n      0x00\n        /* \"#utility.yul\":4713:4801   */\n      mstore\n        /* \"#utility.yul\":4820:4824   */\n      0x32\n        /* \"#utility.yul\":4817:4818   */\n      0x04\n        /* \"#utility.yul\":4810:4825   */\n      mstore\n        /* \"#utility.yul\":4844:4848   */\n      0x24\n        /* \"#utility.yul\":4841:4842   */\n      0x00\n        /* \"#utility.yul\":4834:4849   */\n      revert\n        /* \"#utility.yul\":4861:5041   */\n    tag_74:\n        /* \"#utility.yul\":4909:4986   */\n      0x4e487b7100000000000000000000000000000000000000000000000000000000\n        /* \"#utility.yul\":4906:4907   */\n      0x00\n        /* \"#utility.yul\":4899:4987   */\n      mstore\n        /* \"#utility.yul\":5006:5010   */\n      0x41\n        /* \"#utility.yul\":5003:5004   */\n      0x04\n        /* \"#utility.yul\":4996:5011   */\n      mstore\n        /* \"#utility.yul\":5030:5034   */\n      0x24\n        /* \"#utility.yul\":5027:5028   */\n      0x00\n        /* \"#utility.yul\":5020:5035   */\n      revert\n        /* \"#utility.yul\":5047:5194   */\n    tag_126:\n        /* \"#utility.yul\":5148:5159   */\n      0x00\n        /* \"#utility.yul\":5185:5188   */\n      dup2\n        /* \"#utility.yul\":5170:5188   */\n      swap1\n      pop\n        /* \"#utility.yul\":5047:5194   */\n      swap3\n      swap2\n      pop\n      pop\n      jump\t// out\n        /* \"#utility.yul\":5200:5314   */\n    tag_127:\n      pop\n      jump\t// out\n        /* \"#utility.yul\":5320:5718   */\n    tag_128:\n        /* \"#utility.yul\":5479:5482   */\n      0x00\n        /* \"#utility.yul\":5500:5583   */\n      tag_196\n        /* \"#utility.yul\":5581:5582   */\n      0x00\n        /* \"#utility.yul\":5576:5579   */\n      dup4\n        /* \"#utility.yul\":5500:5583   */\n      tag_126\n      jump\t// in\n    tag_196:\n        /* \"#utility.yul\":5493:5583   */\n      swap2\n      pop\n        /* \"#utility.yul\":5592:5685   */\n      tag_197\n        /* \"#utility.yul\":5681:5684   */\n      dup3\n        /* \"#utility.yul\":5592:5685   */\n      tag_127\n      jump\t// in\n    tag_197:\n        /* \"#utility.yul\":5710:5711   */\n      0x00\n        /* \"#utility.yul\":5705:5708   */\n      dup3\n        /* \"#utility.yul\":5701:5712   */\n      add\n        /* \"#utility.yul\":5694:5712   */\n      swap1\n      pop\n        /* \"#utility.yul\":5320:5718   */\n      swap2\n      swap1\n      pop\n      jump\t// out\n        /* \"#utility.yul\":5724:6103   */\n    tag_79:\n        /* \"#utility.yul\":5908:5911   */\n      0x00\n        /* \"#utility.yul\":5930:6077   */\n      tag_199\n        /* \"#utility.yul\":6073:6076   */\n      dup3\n        /* \"#utility.yul\":5930:6077   */\n      tag_128\n      jump\t// in\n    tag_199:\n        /* \"#utility.yul\":5923:6077   */\n      swap2\n      pop\n        /* \"#utility.yul\":6094:6097   */\n      dup2\n        /* \"#utility.yul\":6087:6097   */\n      swap1\n      pop\n        /* \"#utility.yul\":5724:6103   */\n      swap2\n      swap1\n      pop\n      jump\t// out\n        /* \"#utility.yul\":6109:6270   */\n    tag_129:\n        /* \"#utility.yul\":6249:6262   */\n      0x63616c6c206661696c6564000000000000000000000000000000000000000000\n        /* \"#utility.yul\":6245:6246   */\n      0x00\n        /* \"#utility.yul\":6237:6243   */\n      dup3\n        /* \"#utility.yul\":6233:6247   */\n      add\n        /* \"#utility.yul\":6226:6263   */\n      mstore\n        /* \"#utility.yul\":6109:6270   */\n      pop\n      jump\t// out\n        /* \"#utility.yul\":6276:6642   */\n    tag_130:\n        /* \"#utility.yul\":6418:6421   */\n      0x00\n        /* \"#utility.yul\":6439:6506   */\n      tag_202\n        /* \"#utility.yul\":6503:6505   */\n      0x0b\n        /* \"#utility.yul\":6498:6501   */\n      dup4\n        /* \"#utility.yul\":6439:6506   */\n      tag_121\n      jump\t// in\n    tag_202:\n        /* \"#utility.yul\":6432:6506   */\n      swap2\n      pop\n        /* \"#utility.yul\":6515:6608   */\n      tag_203\n        /* \"#utility.yul\":6604:6607   */\n      dup3\n        /* \"#utility.yul\":6515:6608   */\n      tag_129\n      jump\t// in\n    tag_203:\n        /* \"#utility.yul\":6633:6635   */\n      0x20\n        /* \"#utility.yul\":6628:6631   */\n      dup3\n        /* \"#utility.yul\":6624:6636   */\n      add\n        /* \"#utility.yul\":6617:6636   */\n      swap1\n      pop\n        /* \"#utility.yul\":6276:6642   */\n      swap2\n      swap1\n      pop\n      jump\t// out\n        /* \"#utility.yul\":6648:7067   */\n    tag_85:\n        /* \"#utility.yul\":6814:6818   */\n      0x00\n        /* \"#utility.yul\":6852:6854   */\n      0x20\n        /* \"#utility.yul\":6841:6850   */\n      dup3\n        /* \"#utility.yul\":6837:6855   */\n      add\n        /* \"#utility.yul\":6829:6855   */\n      swap1\n      pop\n        /* \"#utility.yul\":6901:6910   */\n      dup2\n        /* \"#utility.yul\":6895:6899   */\n      dup2\n        /* \"#utility.yul\":6891:6911   */\n      sub\n        /* \"#utility.yul\":6887:6888   */\n      0x00\n        /* \"#utility.yul\":6876:6885   */\n      dup4\n        /* \"#utility.yul\":6872:6889   */\n      add\n        /* \"#utility.yul\":6865:6912   */\n      mstore\n        /* \"#utility.yul\":6929:7060   */\n      tag_205\n        /* \"#utility.yul\":7055:7059   */\n      dup2\n        /* \"#utility.yul\":6929:7060   */\n      tag_130\n      jump\t// in\n    tag_205:\n        /* \"#utility.yul\":6921:7060   */\n      swap1\n      pop\n        /* \"#utility.yul\":6648:7067   */\n      swap2\n      swap1\n      pop\n      jump\t// out\n        /* \"#utility.yul\":7073:7483   */\n    tag_92:\n        /* \"#utility.yul\":7113:7120   */\n      0x00\n        /* \"#utility.yul\":7136:7156   */\n      tag_207\n        /* \"#utility.yul\":7154:7155   */\n      dup3\n        /* \"#utility.yul\":7136:7156   */\n      tag_109\n      jump\t// in\n    tag_207:\n        /* \"#utility.yul\":7131:7156   */\n      swap2\n      pop\n        /* \"#utility.yul\":7170:7190   */\n      tag_208\n        /* \"#utility.yul\":7188:7189   */\n      dup4\n        /* \"#utility.yul\":7170:7190   */\n      tag_109\n      jump\t// in\n    tag_208:\n        /* \"#utility.yul\":7165:7190   */\n      swap3\n      pop\n        /* \"#utility.yul\":7225:7226   */\n      dup3\n        /* \"#utility.yul\":7222:7223   */\n      dup3\n        /* \"#utility.yul\":7218:7227   */\n      mul\n        /* \"#utility.yul\":7247:7277   */\n      tag_209\n        /* \"#utility.yul\":7265:7276   */\n      dup2\n        /* \"#utility.yul\":7247:7277   */\n      tag_109\n      jump\t// in\n    tag_209:\n        /* \"#utility.yul\":7236:7277   */\n      swap2\n      pop\n        /* \"#utility.yul\":7426:7427   */\n      dup3\n        /* \"#utility.yul\":7417:7424   */\n      dup3\n        /* \"#utility.yul\":7413:7428   */\n      div\n        /* \"#utility.yul\":7410:7411   */\n      dup5\n        /* \"#utility.yul\":7407:7429   */\n      eq\n        /* \"#utility.yul\":7387:7388   */\n      dup4\n        /* \"#utility.yul\":7380:7389   */\n      iszero\n        /* \"#utility.yul\":7360:7443   */\n      or\n        /* \"#utility.yul\":7337:7476   */\n      tag_210\n      jumpi\n        /* \"#utility.yul\":7456:7474   */\n      tag_211\n      tag_124\n      jump\t// in\n    tag_211:\n        /* \"#utility.yul\":7337:7476   */\n    tag_210:\n        /* \"#utility.yul\":7121:7483   */\n      pop\n        /* \"#utility.yul\":7073:7483   */\n      swap3\n      swap2\n      pop\n      pop\n      jump\t// out\n        /* \"#utility.yul\":7489:7669   */\n    tag_131:\n        /* \"#utility.yul\":7537:7614   */\n      0x4e487b7100000000000000000000000000000000000000000000000000000000\n        /* \"#utility.yul\":7534:7535   */\n      0x00\n        /* \"#utility.yul\":7527:7615   */\n      mstore\n        /* \"#utility.yul\":7634:7638   */\n      0x12\n        /* \"#utility.yul\":7631:7632   */\n      0x04\n        /* \"#utility.yul\":7624:7639   */\n      mstore\n        /* \"#utility.yul\":7658:7662   */\n      0x24\n        /* \"#utility.yul\":7655:7656   */\n      0x00\n        /* \"#utility.yul\":7648:7663   */\n      revert\n        /* \"#utility.yul\":7675:7860   */\n    tag_94:\n        /* \"#utility.yul\":7715:7716   */\n      0x00\n        /* \"#utility.yul\":7732:7752   */\n      tag_214\n        /* \"#utility.yul\":7750:7751   */\n      dup3\n        /* \"#utility.yul\":7732:7752   */\n      tag_109\n      jump\t// in\n    tag_214:\n        /* \"#utility.yul\":7727:7752   */\n      swap2\n      pop\n        /* \"#utility.yul\":7766:7786   */\n      tag_215\n        /* \"#utility.yul\":7784:7785   */\n      dup4\n        /* \"#utility.yul\":7766:7786   */\n      tag_109\n      jump\t// in\n    tag_215:\n        /* \"#utility.yul\":7761:7786   */\n      swap3\n      pop\n        /* \"#utility.yul\":7805:7806   */\n      dup3\n        /* \"#utility.yul\":7795:7830   */\n      tag_216\n      jumpi\n        /* \"#utility.yul\":7810:7828   */\n      tag_217\n      tag_131\n      jump\t// in\n    tag_217:\n        /* \"#utility.yul\":7795:7830   */\n    tag_216:\n        /* \"#utility.yul\":7852:7853   */\n      dup3\n        /* \"#utility.yul\":7849:7850   */\n      dup3\n        /* \"#utility.yul\":7845:7854   */\n      div\n        /* \"#utility.yul\":7840:7854   */\n      swap1\n      pop\n        /* \"#utility.yul\":7675:7860   */\n      swap3\n      swap2\n      pop\n      pop\n      jump\t// out\n        /* \"#utility.yul\":7866:7971   */\n    tag_132:\n        /* \"#utility.yul\":7902:7909   */\n      0x00\n        /* \"#utility.yul\":7942:7964   */\n      0xffffffffffffffffffff\n        /* \"#utility.yul\":7935:7940   */\n      dup3\n        /* \"#utility.yul\":7931:7965   */\n      and\n        /* \"#utility.yul\":7920:7965   */\n      swap1\n      pop\n        /* \"#utility.yul\":7866:7971   */\n      swap2\n      swap1\n      pop\n      jump\t// out\n        /* \"#utility.yul\":7977:8097   */\n    tag_133:\n        /* \"#utility.yul\":8049:8072   */\n      tag_220\n        /* \"#utility.yul\":8066:8071   */\n      dup2\n        /* \"#utility.yul\":8049:8072   */\n      tag_132\n      jump\t// in\n    tag_220:\n        /* \"#utility.yul\":8042:8047   */\n      dup2\n        /* \"#utility.yul\":8039:8073   */\n      eq\n        /* \"#utility.yul\":8029:8091   */\n      tag_221\n      jumpi\n        /* \"#utility.yul\":8087:8088   */\n      0x00\n        /* \"#utility.yul\":8084:8085   */\n      0x00\n        /* \"#utility.yul\":8077:8089   */\n      revert\n        /* \"#utility.yul\":8029:8091   */\n    tag_221:\n        /* \"#utility.yul\":7977:8097   */\n      pop\n      jump\t// out\n        /* \"#utility.yul\":8103:8244   */\n    tag_134:\n        /* \"#utility.yul\":8159:8164   */\n      0x00\n        /* \"#utility.yul\":8190:8196   */\n      dup2\n        /* \"#utility.yul\":8184:8197   */\n      mload\n        /* \"#utility.yul\":8175:8197   */\n      swap1\n      pop\n        /* \"#utility.yul\":8206:8238   */\n      tag_223\n        /* \"#utility.yul\":8232:8237   */\n      dup2\n        /* \"#utility.yul\":8206:8238   */\n      tag_133\n      jump\t// in\n    tag_223:\n        /* \"#utility.yul\":8103:8244   */\n      swap3\n      swap2\n      pop\n      pop\n      jump\t// out\n        /* \"#utility.yul\":8250:8326   */\n    tag_135:\n        /* \"#utility.yul\":8286:8293   */\n      0x00\n        /* \"#utility.yul\":8315:8320   */\n      dup2\n        /* \"#utility.yul\":8304:8320   */\n      swap1\n      pop\n        /* \"#utility.yul\":8250:8326   */\n      swap2\n      swap1\n      pop\n      jump\t// out\n        /* \"#utility.yul\":8332:8452   */\n    tag_136:\n        /* \"#utility.yul\":8404:8427   */\n      tag_226\n        /* \"#utility.yul\":8421:8426   */\n      dup2\n        /* \"#utility.yul\":8404:8427   */\n      tag_135\n      jump\t// in\n    tag_226:\n        /* \"#utility.yul\":8397:8402   */\n      dup2\n        /* \"#utility.yul\":8394:8428   */\n      eq\n        /* \"#utility.yul\":8384:8446   */\n      tag_227\n      jumpi\n        /* \"#utility.yul\":8442:8443   */\n      0x00\n        /* \"#utility.yul\":8439:8440   */\n      0x00\n        /* \"#utility.yul\":8432:8444   */\n      revert\n        /* \"#utility.yul\":8384:8446   */\n    tag_227:\n        /* \"#utility.yul\":8332:8452   */\n      pop\n      jump\t// out\n        /* \"#utility.yul\":8458:8599   */\n    tag_137:\n        /* \"#utility.yul\":8514:8519   */\n      0x00\n        /* \"#utility.yul\":8545:8551   */\n      dup2\n        /* \"#utility.yul\":8539:8552   */\n      mload\n        /* \"#utility.yul\":8530:8552   */\n      swap1\n      pop\n        /* \"#utility.yul\":8561:8593   */\n      tag_229\n        /* \"#utility.yul\":8587:8592   */\n      dup2\n        /* \"#utility.yul\":8561:8593   */\n      tag_136\n      jump\t// in\n    tag_229:\n        /* \"#utility.yul\":8458:8599   */\n      swap3\n      swap2\n      pop\n      pop\n      jump\t// out\n        /* \"#utility.yul\":8605:9576   */\n    tag_99:\n        /* \"#utility.yul\":8708:8714   */\n      0x00\n        /* \"#utility.yul\":8716:8722   */\n      0x00\n        /* \"#utility.yul\":8724:8730   */\n      0x00\n        /* \"#utility.yul\":8732:8738   */\n      0x00\n        /* \"#utility.yul\":8740:8746   */\n      0x00\n        /* \"#utility.yul\":8789:8792   */\n      0xa0\n        /* \"#utility.yul\":8777:8786   */\n      dup7\n        /* \"#utility.yul\":8768:8775   */\n      dup9\n        /* \"#utility.yul\":8764:8787   */\n      sub\n        /* \"#utility.yul\":8760:8793   */\n      slt\n        /* \"#utility.yul\":8757:8877   */\n      iszero\n      tag_231\n      jumpi\n        /* \"#utility.yul\":8796:8875   */\n      tag_232\n      tag_112\n      jump\t// in\n    tag_232:\n        /* \"#utility.yul\":8757:8877   */\n    tag_231:\n        /* \"#utility.yul\":8916:8917   */\n      0x00\n        /* \"#utility.yul\":8941:9004   */\n      tag_233\n        /* \"#utility.yul\":8996:9003   */\n      dup9\n        /* \"#utility.yul\":8987:8993   */\n      dup3\n        /* \"#utility.yul\":8976:8985   */\n      dup10\n        /* \"#utility.yul\":8972:8994   */\n      add\n        /* \"#utility.yul\":8941:9004   */\n      tag_134\n      jump\t// in\n    tag_233:\n        /* \"#utility.yul\":8931:9004   */\n      swap6\n      pop\n        /* \"#utility.yul\":8887:9014   */\n      pop\n        /* \"#utility.yul\":9053:9055   */\n      0x20\n        /* \"#utility.yul\":9079:9142   */\n      tag_234\n        /* \"#utility.yul\":9134:9141   */\n      dup9\n        /* \"#utility.yul\":9125:9131   */\n      dup3\n        /* \"#utility.yul\":9114:9123   */\n      dup10\n        /* \"#utility.yul\":9110:9132   */\n      add\n        /* \"#utility.yul\":9079:9142   */\n      tag_137\n      jump\t// in\n    tag_234:\n        /* \"#utility.yul\":9069:9142   */\n      swap5\n      pop\n        /* \"#utility.yul\":9024:9152   */\n      pop\n        /* \"#utility.yul\":9191:9193   */\n      0x40\n        /* \"#utility.yul\":9217:9281   */\n      tag_235\n        /* \"#utility.yul\":9273:9280   */\n      dup9\n        /* \"#utility.yul\":9264:9270   */\n      dup3\n        /* \"#utility.yul\":9253:9262   */\n      dup10\n        /* \"#utility.yul\":9249:9271   */\n      add\n        /* \"#utility.yul\":9217:9281   */\n      tag_125\n      jump\t// in\n    tag_235:\n        /* \"#utility.yul\":9207:9281   */\n      swap4\n      pop\n        /* \"#utility.yul\":9162:9291   */\n      pop\n        /* \"#utility.yul\":9330:9332   */\n      0x60\n        /* \"#utility.yul\":9356:9420   */\n      tag_236\n        /* \"#utility.yul\":9412:9419   */\n      dup9\n        /* \"#utility.yul\":9403:9409   */\n      dup3\n        /* \"#utility.yul\":9392:9401   */\n      dup10\n        /* \"#utility.yul\":9388:9410   */\n      add\n        /* \"#utility.yul\":9356:9420   */\n      tag_125\n      jump\t// in\n    tag_236:\n        /* \"#utility.yul\":9346:9420   */\n      swap3\n      pop\n        /* \"#utility.yul\":9301:9430   */\n      pop\n        /* \"#utility.yul\":9469:9472   */\n      0x80\n        /* \"#utility.yul\":9496:9559   */\n      tag_237\n        /* \"#utility.yul\":9551:9558   */\n      dup9\n        /* \"#utility.yul\":9542:9548   */\n      dup3\n        /* \"#utility.yul\":9531:9540   */\n      dup10\n        /* \"#utility.yul\":9527:9549   */\n      add\n        /* \"#utility.yul\":9496:9559   */\n      tag_134\n      jump\t// in\n    tag_237:\n        /* \"#utility.yul\":9486:9559   */\n      swap2\n      pop\n        /* \"#utility.yul\":9440:9569   */\n      pop\n        /* \"#utility.yul\":8605:9576   */\n      swap3\n      swap6\n      pop\n      swap3\n      swap6\n      swap1\n      swap4\n      pop\n      jump\t// out\n        /* \"#utility.yul\":9582:10138   */\n    tag_101:\n        /* \"#utility.yul\":9621:9628   */\n      0x00\n        /* \"#utility.yul\":9644:9663   */\n      tag_239\n        /* \"#utility.yul\":9661:9662   */\n      dup3\n        /* \"#utility.yul\":9644:9663   */\n      tag_135\n      jump\t// in\n    tag_239:\n        /* \"#utility.yul\":9639:9663   */\n      swap2\n      pop\n        /* \"#utility.yul\":9677:9696   */\n      tag_240\n        /* \"#utility.yul\":9694:9695   */\n      dup4\n        /* \"#utility.yul\":9677:9696   */\n      tag_135\n      jump\t// in\n    tag_240:\n        /* \"#utility.yul\":9672:9696   */\n      swap3\n      pop\n        /* \"#utility.yul\":9731:9732   */\n      dup3\n        /* \"#utility.yul\":9728:9729   */\n      dup3\n        /* \"#utility.yul\":9724:9733   */\n      mul\n        /* \"#utility.yul\":9753:9782   */\n      tag_241\n        /* \"#utility.yul\":9770:9781   */\n      dup2\n        /* \"#utility.yul\":9753:9782   */\n      tag_135\n      jump\t// in\n    tag_241:\n        /* \"#utility.yul\":9742:9782   */\n      swap2\n      pop\n        /* \"#utility.yul\":9840:9906   */\n      0x8000000000000000000000000000000000000000000000000000000000000000\n        /* \"#utility.yul\":9837:9838   */\n      dup5\n        /* \"#utility.yul\":9834:9907   */\n      eq\n        /* \"#utility.yul\":9830:9831   */\n      0x00\n        /* \"#utility.yul\":9827:9828   */\n      dup5\n        /* \"#utility.yul\":9823:9832   */\n      slt\n        /* \"#utility.yul\":9819:9908   */\n      and\n        /* \"#utility.yul\":9816:9931   */\n      iszero\n      tag_242\n      jumpi\n        /* \"#utility.yul\":9911:9929   */\n      tag_243\n      tag_124\n      jump\t// in\n    tag_243:\n        /* \"#utility.yul\":9816:9931   */\n    tag_242:\n        /* \"#utility.yul\":10081:10082   */\n      dup3\n        /* \"#utility.yul\":10072:10079   */\n      dup3\n        /* \"#utility.yul\":10067:10083   */\n      sdiv\n        /* \"#utility.yul\":10064:10065   */\n      dup5\n        /* \"#utility.yul\":10061:10084   */\n      eq\n        /* \"#utility.yul\":10041:10042   */\n      dup4\n        /* \"#utility.yul\":10034:10043   */\n      iszero\n        /* \"#utility.yul\":10014:10098   */\n      or\n        /* \"#utility.yul\":9991:10131   */\n      tag_244\n      jumpi\n        /* \"#utility.yul\":10111:10129   */\n      tag_245\n      tag_124\n      jump\t// in\n    tag_245:\n        /* \"#utility.yul\":9991:10131   */\n    tag_244:\n        /* \"#utility.yul\":9629:10138   */\n      pop\n        /* \"#utility.yul\":9582:10138   */\n      swap3\n      swap2\n      pop\n      pop\n      jump\t// out\n\n    auxdata: 0xa2646970667358221220204f92f7ce08455f5caae89033ca637bcb5698bf2530969da45466ed4b107a4564736f6c634300081e0033\n}\n",
				"bytecode": {
					"linkReferences": {},
					"object": "6080604052348015600e575f5ffd5b503360015f6101000a81548173ffffffffffffffffffffffffffffffffffffffff021916908373ffffffffffffffffffffffffffffffffffffffff160217905550610d0d8061005c5f395ff3fe608060405260043610610073575f3560e01c80636b69a5921161004d5780636b69a59214610108578063b60d428814610132578063dba6335f1461013c578063dc0d3dff1461016657610082565b80630d8e6e2c1461008c5780633ccfd60b146100b657806369d1c5af146100cc57610082565b36610082576100806101a2565b005b61008a6101a2565b005b348015610097575f5ffd5b506100a06102a9565b6040516100ad919061077b565b60405180910390f35b3480156100c1575f5ffd5b506100ca610335565b005b3480156100d7575f5ffd5b506100f260048036038101906100ed91906107f2565b610564565b6040516100ff919061077b565b60405180910390f35b348015610113575f5ffd5b5061011c610579565b604051610129919061077b565b60405180910390f35b61013a6101a2565b005b348015610147575f5ffd5b50610150610585565b60405161015d919061082c565b60405180910390f35b348015610171575f5ffd5b5061018c6004803603810190610187919061086f565b6105aa565b604051610199919061082c565b60405180910390f35b670de0b6b3a76400006101b4346105e4565b10156101f5576040517f08c379a00000000000000000000000000000000000000000000000000000000081526004016101ec9061091a565b60405180910390fd5b5f33908060018154018082558091505060019003905f5260205f20015f9091909190916101000a81548173ffffffffffffffffffffffffffffffffffffffff021916908373ffffffffffffffffffffffffffffffffffffffff1602179055503460025f3373ffffffffffffffffffffffffffffffffffffffff1673ffffffffffffffffffffffffffffffffffffffff1681526020019081526020015f205f8282546102a09190610965565b92505081905550565b5f5f73694aa1769357215de4fac081bf1f309adc32530690508073ffffffffffffffffffffffffffffffffffffffff166354fd4d506040518163ffffffff1660e01b8152600401602060405180830381865afa15801561030b573d5f5f3e3d5ffd5b505050506040513d601f19601f8201168201806040525081019061032f91906109ac565b91505090565b60015f9054906101000a900473ffffffffffffffffffffffffffffffffffffffff1673ffffffffffffffffffffffffffffffffffffffff163373ffffffffffffffffffffffffffffffffffffffff16146103bb576040517f30cd747100000000000000000000000000000000000000000000000000000000815260040160405180910390fd5b5f5f90505b5f8054905081101561045a575f5f82815481106103e0576103df6109d7565b5b905f5260205f20015f9054906101000a900473ffffffffffffffffffffffffffffffffffffffff1690505f60025f8373ffffffffffffffffffffffffffffffffffffffff1673ffffffffffffffffffffffffffffffffffffffff1681526020019081526020015f20819055505080806001019150506103c0565b505f67ffffffffffffffff81111561047557610474610a04565b5b6040519080825280602002602001820160405280156104a35781602001602082028036833780820191505090505b505f90805190602001906104b89291906106c1565b505f3373ffffffffffffffffffffffffffffffffffffffff16476040516104de90610a5e565b5f6040518083038185875af1925050503d805f8114610518576040519150601f19603f3d011682016040523d82523d5f602084013e61051d565b606091505b5050905080610561576040517f08c379a000000000000000000000000000000000000000000000000000000000815260040161055890610abc565b60405180910390fd5b50565b6002602052805f5260405f205f915090505481565b670de0b6b3a764000081565b60015f9054906101000a900473ffffffffffffffffffffffffffffffffffffffff1681565b5f81815481106105b8575f80fd5b905f5260205f20015f915054906101000a900473ffffffffffffffffffffffffffffffffffffffff1681565b5f5f6105ee61061c565b90505f670de0b6b3a764000084836106069190610ada565b6106109190610b48565b90508092505050919050565b5f5f73694aa1769357215de4fac081bf1f309adc32530690505f8173ffffffffffffffffffffffffffffffffffffffff1663feaf968c6040518163ffffffff1660e01b815260040160a060405180830381865afa15801561067f573d5f5f3e3d5ffd5b505050506040513d601f19601f820116820180604052508101906106a39190610bea565b5050509150506402540be400816106ba9190610c61565b9250505090565b828054828255905f5260205f20908101928215610737579160200282015b82811115610736578251825f6101000a81548173ffffffffffffffffffffffffffffffffffffffff021916908373ffffffffffffffffffffffffffffffffffffffff160217905550916020019190600101906106df565b5b5090506107449190610748565b5090565b5b8082111561075f575f815f905550600101610749565b5090565b5f819050919050565b61077581610763565b82525050565b5f60208201905061078e5f83018461076c565b92915050565b5f5ffd5b5f73ffffffffffffffffffffffffffffffffffffffff82169050919050565b5f6107c182610798565b9050919050565b6107d1816107b7565b81146107db575f5ffd5b50565b5f813590506107ec816107c8565b92915050565b5f6020828403121561080757610806610794565b5b5f610814848285016107de565b91505092915050565b610826816107b7565b82525050565b5f60208201905061083f5f83018461081d565b92915050565b61084e81610763565b8114610858575f5ffd5b50565b5f8135905061086981610845565b92915050565b5f6020828403121561088457610883610794565b5b5f6108918482850161085b565b91505092915050565b5f82825260208201905092915050565b7f6469646e27742073656e6420656e6f756768206574682e206d696e696d756d205f8201527f726571756972656d656e74203a31206574680000000000000000000000000000602082015250565b5f61090460328361089a565b915061090f826108aa565b604082019050919050565b5f6020820190508181035f830152610931816108f8565b9050919050565b7f4e487b71000000000000000000000000000000000000000000000000000000005f52601160045260245ffd5b5f61096f82610763565b915061097a83610763565b925082820190508082111561099257610991610938565b5b92915050565b5f815190506109a681610845565b92915050565b5f602082840312156109c1576109c0610794565b5b5f6109ce84828501610998565b91505092915050565b7f4e487b71000000000000000000000000000000000000000000000000000000005f52603260045260245ffd5b7f4e487b71000000000000000000000000000000000000000000000000000000005f52604160045260245ffd5b5f81905092915050565b50565b5f610a495f83610a31565b9150610a5482610a3b565b5f82019050919050565b5f610a6882610a3e565b9150819050919050565b7f63616c6c206661696c65640000000000000000000000000000000000000000005f82015250565b5f610aa6600b8361089a565b9150610ab182610a72565b602082019050919050565b5f6020820190508181035f830152610ad381610a9a565b9050919050565b5f610ae482610763565b9150610aef83610763565b9250828202610afd81610763565b91508282048414831517610b1457610b13610938565b5b5092915050565b7f4e487b71000000000000000000000000000000000000000000000000000000005f52601260045260245ffd5b5f610b5282610763565b9150610b5d83610763565b925082610b6d57610b6c610b1b565b5b828204905092915050565b5f69ffffffffffffffffffff82169050919050565b610b9681610b78565b8114610ba0575f5ffd5b50565b5f81519050610bb181610b8d565b92915050565b5f819050919050565b610bc981610bb7565b8114610bd3575f5ffd5b50565b5f81519050610be481610bc0565b92915050565b5f5f5f5f5f60a08688031215610c0357610c02610794565b5b5f610c1088828901610ba3565b9550506020610c2188828901610bd6565b9450506040610c3288828901610998565b9350506060610c4388828901610998565b9250506080610c5488828901610ba3565b9150509295509295909350565b5f610c6b82610bb7565b9150610c7683610bb7565b9250828202610c8481610bb7565b91507f800000000000000000000000000000000000000000000000000000000000000084145f84121615610cbb57610cba610938565b5b8282058414831517610cd057610ccf610938565b5b509291505056fea2646970667358221220204f92f7ce08455f5caae89033ca637bcb5698bf2530969da45466ed4b107a4564736f6c634300081e0033",
					"opcodes": "PUSH1 0x80 PUSH1 0x40 MSTORE CALLVALUE DUP1 ISZERO PUSH1 0xE JUMPI PUSH0 PUSH0 REVERT JUMPDEST POP CALLER PUSH1 0x1 PUSH0 PUSH2 0x100 EXP DUP2 SLOAD DUP2 PUSH20 0xFFFFFFFFFFFFFFFFFFFFFFFFFFFFFFFFFFFFFFFF MUL NOT AND SWAP1 DUP4 PUSH20 0xFFFFFFFFFFFFFFFFFFFFFFFFFFFFFFFFFFFFFFFF AND MUL OR SWAP1 SSTORE POP PUSH2 0xD0D DUP1 PUSH2 0x5C PUSH0 CODECOPY PUSH0 RETURN INVALID PUSH1 0x80 PUSH1 0x40 MSTORE PUSH1 0x4 CALLDATASIZE LT PUSH2 0x73 JUMPI PUSH0 CALLDATALOAD PUSH1 0xE0 SHR DUP1 PUSH4 0x6B69A592 GT PUSH2 0x4D JUMPI DUP1 PUSH4 0x6B69A592 EQ PUSH2 0x108 JUMPI DUP1 PUSH4 0xB60D4288 EQ PUSH2 0x132 JUMPI DUP1 PUSH4 0xDBA6335F EQ PUSH2 0x13C JUMPI DUP1 PUSH4 0xDC0D3DFF EQ PUSH2 0x166 JUMPI PUSH2 0x82 JUMP JUMPDEST DUP1 PUSH4 0xD8E6E2C EQ PUSH2 0x8C JUMPI DUP1 PUSH4 0x3CCFD60B EQ PUSH2 0xB6 JUMPI DUP1 PUSH4 0x69D1C5AF EQ PUSH2 0xCC JUMPI PUSH2 0x82 JUMP JUMPDEST CALLDATASIZE PUSH2 0x82 JUMPI PUSH2 0x80 PUSH2 0x1A2 JUMP JUMPDEST STOP JUMPDEST PUSH2 0x8A PUSH2 0x1A2 JUMP JUMPDEST STOP JUMPDEST CALLVALUE DUP1 ISZERO PUSH2 0x97 JUMPI PUSH0 PUSH0 REVERT JUMPDEST POP PUSH2 0xA0 PUSH2 0x2A9 JUMP JUMPDEST PUSH1 0x40 MLOAD PUSH2 0xAD SWAP2 SWAP1 PUSH2 0x77B JUMP JUMPDEST PUSH1 0x40 MLOAD DUP1 SWAP2 SUB SWAP1 RETURN JUMPDEST CALLVALUE DUP1 ISZERO PUSH2 0xC1 JUMPI PUSH0 PUSH0 REVERT JUMPDEST POP PUSH2 0xCA PUSH2 0x335 JUMP JUMPDEST STOP JUMPDEST CALLVALUE DUP1 ISZERO PUSH2 0xD7 JUMPI PUSH0 PUSH0 REVERT JUMPDEST POP PUSH2 0xF2 PUSH1 0x4 DUP1 CALLDATASIZE SUB DUP2 ADD SWAP1 PUSH2 0xED SWAP2 SWAP1 PUSH2 0x7F2 JUMP JUMPDEST PUSH2 0x564 JUMP JUMPDEST PUSH1 0x40 MLOAD PUSH2 0xFF SWAP2 SWAP1 PUSH2 0x77B JUMP JUMPDEST PUSH1 0x40 MLOAD DUP1 SWAP2 SUB SWAP1 RETURN JUMPDEST CALLVALUE DUP1 ISZERO PUSH2 0x113 JUMPI PUSH0 PUSH0 REVERT JUMPDEST POP PUSH2 0x11C PUSH2 0x579 JUMP JUMPDEST PUSH1 0x40 MLOAD PUSH2 0x129 SWAP2 SWAP1 PUSH2 0x77B JUMP JUMPDEST PUSH1 0x40 MLOAD DUP1 SWAP2 SUB SWAP1 RETURN JUMPDEST PUSH2 0x13A PUSH2 0x1A2 JUMP JUMPDEST STOP JUMPDEST CALLVALUE DUP1 ISZERO PUSH2 0x147 JUMPI PUSH0 PUSH0 REVERT JUMPDEST POP PUSH2 0x150 PUSH2 0x585 JUMP JUMPDEST PUSH1 0x40 MLOAD PUSH2 0x15D SWAP2 SWAP1 PUSH2 0x82C JUMP JUMPDEST PUSH1 0x40 MLOAD DUP1 SWAP2 SUB SWAP1 RETURN JUMPDEST CALLVALUE DUP1 ISZERO PUSH2 0x171 JUMPI PUSH0 PUSH0 REVERT JUMPDEST POP PUSH2 0x18C PUSH1 0x4 DUP1 CALLDATASIZE SUB DUP2 ADD SWAP1 PUSH2 0x187 SWAP2 SWAP1 PUSH2 0x86F JUMP JUMPDEST PUSH2 0x5AA JUMP JUMPDEST PUSH1 0x40 MLOAD PUSH2 0x199 SWAP2 SWAP1 PUSH2 0x82C JUMP JUMPDEST PUSH1 0x40 MLOAD DUP1 SWAP2 SUB SWAP1 RETURN JUMPDEST PUSH8 0xDE0B6B3A7640000 PUSH2 0x1B4 CALLVALUE PUSH2 0x5E4 JUMP JUMPDEST LT ISZERO PUSH2 0x1F5 JUMPI PUSH1 0x40 MLOAD PUSH32 0x8C379A000000000000000000000000000000000000000000000000000000000 DUP2 MSTORE PUSH1 0x4 ADD PUSH2 0x1EC SWAP1 PUSH2 0x91A JUMP JUMPDEST PUSH1 0x40 MLOAD DUP1 SWAP2 SUB SWAP1 REVERT JUMPDEST PUSH0 CALLER SWAP1 DUP1 PUSH1 0x1 DUP2 SLOAD ADD DUP1 DUP3 SSTORE DUP1 SWAP2 POP POP PUSH1 0x1 SWAP1 SUB SWAP1 PUSH0 MSTORE PUSH1 0x20 PUSH0 KECCAK256 ADD PUSH0 SWAP1 SWAP2 SWAP1 SWAP2 SWAP1 SWAP2 PUSH2 0x100 EXP DUP2 SLOAD DUP2 PUSH20 0xFFFFFFFFFFFFFFFFFFFFFFFFFFFFFFFFFFFFFFFF MUL NOT AND SWAP1 DUP4 PUSH20 0xFFFFFFFFFFFFFFFFFFFFFFFFFFFFFFFFFFFFFFFF AND MUL OR SWAP1 SSTORE POP CALLVALUE PUSH1 0x2 PUSH0 CALLER PUSH20 0xFFFFFFFFFFFFFFFFFFFFFFFFFFFFFFFFFFFFFFFF AND PUSH20 0xFFFFFFFFFFFFFFFFFFFFFFFFFFFFFFFFFFFFFFFF AND DUP2 MSTORE PUSH1 0x20 ADD SWAP1 DUP2 MSTORE PUSH1 0x20 ADD PUSH0 KECCAK256 PUSH0 DUP3 DUP3 SLOAD PUSH2 0x2A0 SWAP2 SWAP1 PUSH2 0x965 JUMP JUMPDEST SWAP3 POP POP DUP2 SWAP1 SSTORE POP JUMP JUMPDEST PUSH0 PUSH0 PUSH20 0x694AA1769357215DE4FAC081BF1F309ADC325306 SWAP1 POP DUP1 PUSH20 0xFFFFFFFFFFFFFFFFFFFFFFFFFFFFFFFFFFFFFFFF AND PUSH4 0x54FD4D50 PUSH1 0x40 MLOAD DUP2 PUSH4 0xFFFFFFFF AND PUSH1 0xE0 SHL DUP2 MSTORE PUSH1 0x4 ADD PUSH1 0x20 PUSH1 0x40 MLOAD DUP1 DUP4 SUB DUP2 DUP7 GAS STATICCALL ISZERO DUP1 ISZERO PUSH2 0x30B JUMPI RETURNDATASIZE PUSH0 PUSH0 RETURNDATACOPY RETURNDATASIZE PUSH0 REVERT JUMPDEST POP POP POP POP PUSH1 0x40 MLOAD RETURNDATASIZE PUSH1 0x1F NOT PUSH1 0x1F DUP3 ADD AND DUP3 ADD DUP1 PUSH1 0x40 MSTORE POP DUP2 ADD SWAP1 PUSH2 0x32F SWAP2 SWAP1 PUSH2 0x9AC JUMP JUMPDEST SWAP2 POP POP SWAP1 JUMP JUMPDEST PUSH1 0x1 PUSH0 SWAP1 SLOAD SWAP1 PUSH2 0x100 EXP SWAP1 DIV PUSH20 0xFFFFFFFFFFFFFFFFFFFFFFFFFFFFFFFFFFFFFFFF AND PUSH20 0xFFFFFFFFFFFFFFFFFFFFFFFFFFFFFFFFFFFFFFFF AND CALLER PUSH20 0xFFFFFFFFFFFFFFFFFFFFFFFFFFFFFFFFFFFFFFFF AND EQ PUSH2 0x3BB JUMPI PUSH1 0x40 MLOAD PUSH32 0x30CD747100000000000000000000000000000000000000000000000000000000 DUP2 MSTORE PUSH1 0x4 ADD PUSH1 0x40 MLOAD DUP1 SWAP2 SUB SWAP1 REVERT JUMPDEST PUSH0 PUSH0 SWAP1 POP JUMPDEST PUSH0 DUP1 SLOAD SWAP1 POP DUP2 LT ISZERO PUSH2 0x45A JUMPI PUSH0 PUSH0 DUP3 DUP2 SLOAD DUP2 LT PUSH2 0x3E0 JUMPI PUSH2 0x3DF PUSH2 0x9D7 JUMP JUMPDEST JUMPDEST SWAP1 PUSH0 MSTORE PUSH1 0x20 PUSH0 KECCAK256 ADD PUSH0 SWAP1 SLOAD SWAP1 PUSH2 0x100 EXP SWAP1 DIV PUSH20 0xFFFFFFFFFFFFFFFFFFFFFFFFFFFFFFFFFFFFFFFF AND SWAP1 POP PUSH0 PUSH1 0x2 PUSH0 DUP4 PUSH20 0xFFFFFFFFFFFFFFFFFFFFFFFFFFFFFFFFFFFFFFFF AND PUSH20 0xFFFFFFFFFFFFFFFFFFFFFFFFFFFFFFFFFFFFFFFF AND DUP2 MSTORE PUSH1 0x20 ADD SWAP1 DUP2 MSTORE PUSH1 0x20 ADD PUSH0 KECCAK256 DUP2 SWAP1 SSTORE POP POP DUP1 DUP1 PUSH1 0x1 ADD SWAP2 POP POP PUSH2 0x3C0 JUMP JUMPDEST POP PUSH0 PUSH8 0xFFFFFFFFFFFFFFFF DUP2 GT ISZERO PUSH2 0x475 JUMPI PUSH2 0x474 PUSH2 0xA04 JUMP JUMPDEST JUMPDEST PUSH1 0x40 MLOAD SWAP1 DUP1 DUP3 MSTORE DUP1 PUSH1 0x20 MUL PUSH1 0x20 ADD DUP3 ADD PUSH1 0x40 MSTORE DUP1 ISZERO PUSH2 0x4A3 JUMPI DUP2 PUSH1 0x20 ADD PUSH1 0x20 DUP3 MUL DUP1 CALLDATASIZE DUP4 CALLDATACOPY DUP1 DUP3 ADD SWAP2 POP POP SWAP1 POP JUMPDEST POP PUSH0 SWAP1 DUP1 MLOAD SWAP1 PUSH1 0x20 ADD SWAP1 PUSH2 0x4B8 SWAP3 SWAP2 SWAP1 PUSH2 0x6C1 JUMP JUMPDEST POP PUSH0 CALLER PUSH20 0xFFFFFFFFFFFFFFFFFFFFFFFFFFFFFFFFFFFFFFFF AND SELFBALANCE PUSH1 0x40 MLOAD PUSH2 0x4DE SWAP1 PUSH2 0xA5E JUMP JUMPDEST PUSH0 PUSH1 0x40 MLOAD DUP1 DUP4 SUB DUP2 DUP6 DUP8 GAS CALL SWAP3 POP POP POP RETURNDATASIZE DUP1 PUSH0 DUP2 EQ PUSH2 0x518 JUMPI PUSH1 0x40 MLOAD SWAP2 POP PUSH1 0x1F NOT PUSH1 0x3F RETURNDATASIZE ADD AND DUP3 ADD PUSH1 0x40 MSTORE RETURNDATASIZE DUP3 MSTORE RETURNDATASIZE PUSH0 PUSH1 0x20 DUP5 ADD RETURNDATACOPY PUSH2 0x51D JUMP JUMPDEST PUSH1 0x60 SWAP2 POP JUMPDEST POP POP SWAP1 POP DUP1 PUSH2 0x561 JUMPI PUSH1 0x40 MLOAD PUSH32 0x8C379A000000000000000000000000000000000000000000000000000000000 DUP2 MSTORE PUSH1 0x4 ADD PUSH2 0x558 SWAP1 PUSH2 0xABC JUMP JUMPDEST PUSH1 0x40 MLOAD DUP1 SWAP2 SUB SWAP1 REVERT JUMPDEST POP JUMP JUMPDEST PUSH1 0x2 PUSH1 0x20 MSTORE DUP1 PUSH0 MSTORE PUSH1 0x40 PUSH0 KECCAK256 PUSH0 SWAP2 POP SWAP1 POP SLOAD DUP2 JUMP JUMPDEST PUSH8 0xDE0B6B3A7640000 DUP2 JUMP JUMPDEST PUSH1 0x1 PUSH0 SWAP1 SLOAD SWAP1 PUSH2 0x100 EXP SWAP1 DIV PUSH20 0xFFFFFFFFFFFFFFFFFFFFFFFFFFFFFFFFFFFFFFFF AND DUP2 JUMP JUMPDEST PUSH0 DUP2 DUP2 SLOAD DUP2 LT PUSH2 0x5B8 JUMPI PUSH0 DUP1 REVERT JUMPDEST SWAP1 PUSH0 MSTORE PUSH1 0x20 PUSH0 KECCAK256 ADD PUSH0 SWAP2 POP SLOAD SWAP1 PUSH2 0x100 EXP SWAP1 DIV PUSH20 0xFFFFFFFFFFFFFFFFFFFFFFFFFFFFFFFFFFFFFFFF AND DUP2 JUMP JUMPDEST PUSH0 PUSH0 PUSH2 0x5EE PUSH2 0x61C JUMP JUMPDEST SWAP1 POP PUSH0 PUSH8 0xDE0B6B3A7640000 DUP5 DUP4 PUSH2 0x606 SWAP2 SWAP1 PUSH2 0xADA JUMP JUMPDEST PUSH2 0x610 SWAP2 SWAP1 PUSH2 0xB48 JUMP JUMPDEST SWAP1 POP DUP1 SWAP3 POP POP POP SWAP2 SWAP1 POP JUMP JUMPDEST PUSH0 PUSH0 PUSH20 0x694AA1769357215DE4FAC081BF1F309ADC325306 SWAP1 POP PUSH0 DUP2 PUSH20 0xFFFFFFFFFFFFFFFFFFFFFFFFFFFFFFFFFFFFFFFF AND PUSH4 0xFEAF968C PUSH1 0x40 MLOAD DUP2 PUSH4 0xFFFFFFFF AND PUSH1 0xE0 SHL DUP2 MSTORE PUSH1 0x4 ADD PUSH1 0xA0 PUSH1 0x40 MLOAD DUP1 DUP4 SUB DUP2 DUP7 GAS STATICCALL ISZERO DUP1 ISZERO PUSH2 0x67F JUMPI RETURNDATASIZE PUSH0 PUSH0 RETURNDATACOPY RETURNDATASIZE PUSH0 REVERT JUMPDEST POP POP POP POP PUSH1 0x40 MLOAD RETURNDATASIZE PUSH1 0x1F NOT PUSH1 0x1F DUP3 ADD AND DUP3 ADD DUP1 PUSH1 0x40 MSTORE POP DUP2 ADD SWAP1 PUSH2 0x6A3 SWAP2 SWAP1 PUSH2 0xBEA JUMP JUMPDEST POP POP POP SWAP2 POP POP PUSH5 0x2540BE400 DUP2 PUSH2 0x6BA SWAP2 SWAP1 PUSH2 0xC61 JUMP JUMPDEST SWAP3 POP POP POP SWAP1 JUMP JUMPDEST DUP3 DUP1 SLOAD DUP3 DUP3 SSTORE SWAP1 PUSH0 MSTORE PUSH1 0x20 PUSH0 KECCAK256 SWAP1 DUP2 ADD SWAP3 DUP3 ISZERO PUSH2 0x737 JUMPI SWAP2 PUSH1 0x20 MUL DUP3 ADD JUMPDEST DUP3 DUP2 GT ISZERO PUSH2 0x736 JUMPI DUP3 MLOAD DUP3 PUSH0 PUSH2 0x100 EXP DUP2 SLOAD DUP2 PUSH20 0xFFFFFFFFFFFFFFFFFFFFFFFFFFFFFFFFFFFFFFFF MUL NOT AND SWAP1 DUP4 PUSH20 0xFFFFFFFFFFFFFFFFFFFFFFFFFFFFFFFFFFFFFFFF AND MUL OR SWAP1 SSTORE POP SWAP2 PUSH1 0x20 ADD SWAP2 SWAP1 PUSH1 0x1 ADD SWAP1 PUSH2 0x6DF JUMP JUMPDEST JUMPDEST POP SWAP1 POP PUSH2 0x744 SWAP2 SWAP1 PUSH2 0x748 JUMP JUMPDEST POP SWAP1 JUMP JUMPDEST JUMPDEST DUP1 DUP3 GT ISZERO PUSH2 0x75F JUMPI PUSH0 DUP2 PUSH0 SWAP1 SSTORE POP PUSH1 0x1 ADD PUSH2 0x749 JUMP JUMPDEST POP SWAP1 JUMP JUMPDEST PUSH0 DUP2 SWAP1 POP SWAP2 SWAP1 POP JUMP JUMPDEST PUSH2 0x775 DUP2 PUSH2 0x763 JUMP JUMPDEST DUP3 MSTORE POP POP JUMP JUMPDEST PUSH0 PUSH1 0x20 DUP3 ADD SWAP1 POP PUSH2 0x78E PUSH0 DUP4 ADD DUP5 PUSH2 0x76C JUMP JUMPDEST SWAP3 SWAP2 POP POP JUMP JUMPDEST PUSH0 PUSH0 REVERT JUMPDEST PUSH0 PUSH20 0xFFFFFFFFFFFFFFFFFFFFFFFFFFFFFFFFFFFFFFFF DUP3 AND SWAP1 POP SWAP2 SWAP1 POP JUMP JUMPDEST PUSH0 PUSH2 0x7C1 DUP3 PUSH2 0x798 JUMP JUMPDEST SWAP1 POP SWAP2 SWAP1 POP JUMP JUMPDEST PUSH2 0x7D1 DUP2 PUSH2 0x7B7 JUMP JUMPDEST DUP2 EQ PUSH2 0x7DB JUMPI PUSH0 PUSH0 REVERT JUMPDEST POP JUMP JUMPDEST PUSH0 DUP2 CALLDATALOAD SWAP1 POP PUSH2 0x7EC DUP2 PUSH2 0x7C8 JUMP JUMPDEST SWAP3 SWAP2 POP POP JUMP JUMPDEST PUSH0 PUSH1 0x20 DUP3 DUP5 SUB SLT ISZERO PUSH2 0x807 JUMPI PUSH2 0x806 PUSH2 0x794 JUMP JUMPDEST JUMPDEST PUSH0 PUSH2 0x814 DUP5 DUP3 DUP6 ADD PUSH2 0x7DE JUMP JUMPDEST SWAP2 POP POP SWAP3 SWAP2 POP POP JUMP JUMPDEST PUSH2 0x826 DUP2 PUSH2 0x7B7 JUMP JUMPDEST DUP3 MSTORE POP POP JUMP JUMPDEST PUSH0 PUSH1 0x20 DUP3 ADD SWAP1 POP PUSH2 0x83F PUSH0 DUP4 ADD DUP5 PUSH2 0x81D JUMP JUMPDEST SWAP3 SWAP2 POP POP JUMP JUMPDEST PUSH2 0x84E DUP2 PUSH2 0x763 JUMP JUMPDEST DUP2 EQ PUSH2 0x858 JUMPI PUSH0 PUSH0 REVERT JUMPDEST POP JUMP JUMPDEST PUSH0 DUP2 CALLDATALOAD SWAP1 POP PUSH2 0x869 DUP2 PUSH2 0x845 JUMP JUMPDEST SWAP3 SWAP2 POP POP JUMP JUMPDEST PUSH0 PUSH1 0x20 DUP3 DUP5 SUB SLT ISZERO PUSH2 0x884 JUMPI PUSH2 0x883 PUSH2 0x794 JUMP JUMPDEST JUMPDEST PUSH0 PUSH2 0x891 DUP5 DUP3 DUP6 ADD PUSH2 0x85B JUMP JUMPDEST SWAP2 POP POP SWAP3 SWAP2 POP POP JUMP JUMPDEST PUSH0 DUP3 DUP3 MSTORE PUSH1 0x20 DUP3 ADD SWAP1 POP SWAP3 SWAP2 POP POP JUMP JUMPDEST PUSH32 0x6469646E27742073656E6420656E6F756768206574682E206D696E696D756D20 PUSH0 DUP3 ADD MSTORE PUSH32 0x726571756972656D656E74203A31206574680000000000000000000000000000 PUSH1 0x20 DUP3 ADD MSTORE POP JUMP JUMPDEST PUSH0 PUSH2 0x904 PUSH1 0x32 DUP4 PUSH2 0x89A JUMP JUMPDEST SWAP2 POP PUSH2 0x90F DUP3 PUSH2 0x8AA JUMP JUMPDEST PUSH1 0x40 DUP3 ADD SWAP1 POP SWAP2 SWAP1 POP JUMP JUMPDEST PUSH0 PUSH1 0x20 DUP3 ADD SWAP1 POP DUP2 DUP2 SUB PUSH0 DUP4 ADD MSTORE PUSH2 0x931 DUP2 PUSH2 0x8F8 JUMP JUMPDEST SWAP1 POP SWAP2 SWAP1 POP JUMP JUMPDEST PUSH32 0x4E487B7100000000000000000000000000000000000000000000000000000000 PUSH0 MSTORE PUSH1 0x11 PUSH1 0x4 MSTORE PUSH1 0x24 PUSH0 REVERT JUMPDEST PUSH0 PUSH2 0x96F DUP3 PUSH2 0x763 JUMP JUMPDEST SWAP2 POP PUSH2 0x97A DUP4 PUSH2 0x763 JUMP JUMPDEST SWAP3 POP DUP3 DUP3 ADD SWAP1 POP DUP1 DUP3 GT ISZERO PUSH2 0x992 JUMPI PUSH2 0x991 PUSH2 0x938 JUMP JUMPDEST JUMPDEST SWAP3 SWAP2 POP POP JUMP JUMPDEST PUSH0 DUP2 MLOAD SWAP1 POP PUSH2 0x9A6 DUP2 PUSH2 0x845 JUMP JUMPDEST SWAP3 SWAP2 POP POP JUMP JUMPDEST PUSH0 PUSH1 0x20 DUP3 DUP5 SUB SLT ISZERO PUSH2 0x9C1 JUMPI PUSH2 0x9C0 PUSH2 0x794 JUMP JUMPDEST JUMPDEST PUSH0 PUSH2 0x9CE DUP5 DUP3 DUP6 ADD PUSH2 0x998 JUMP JUMPDEST SWAP2 POP POP SWAP3 SWAP2 POP POP JUMP JUMPDEST PUSH32 0x4E487B7100000000000000000000000000000000000000000000000000000000 PUSH0 MSTORE PUSH1 0x32 PUSH1 0x4 MSTORE PUSH1 0x24 PUSH0 REVERT JUMPDEST PUSH32 0x4E487B7100000000000000000000000000000000000000000000000000000000 PUSH0 MSTORE PUSH1 0x41 PUSH1 0x4 MSTORE PUSH1 0x24 PUSH0 REVERT JUMPDEST PUSH0 DUP2 SWAP1 POP SWAP3 SWAP2 POP POP JUMP JUMPDEST POP JUMP JUMPDEST PUSH0 PUSH2 0xA49 PUSH0 DUP4 PUSH2 0xA31 JUMP JUMPDEST SWAP2 POP PUSH2 0xA54 DUP3 PUSH2 0xA3B JUMP JUMPDEST PUSH0 DUP3 ADD SWAP1 POP SWAP2 SWAP1 POP JUMP JUMPDEST PUSH0 PUSH2 0xA68 DUP3 PUSH2 0xA3E JUMP JUMPDEST SWAP2 POP DUP2 SWAP1 POP SWAP2 SWAP1 POP JUMP JUMPDEST PUSH32 0x63616C6C206661696C6564000000000000000000000000000000000000000000 PUSH0 DUP3 ADD MSTORE POP JUMP JUMPDEST PUSH0 PUSH2 0xAA6 PUSH1 0xB DUP4 PUSH2 0x89A JUMP JUMPDEST SWAP2 POP PUSH2 0xAB1 DUP3 PUSH2 0xA72 JUMP JUMPDEST PUSH1 0x20 DUP3 ADD SWAP1 POP SWAP2 SWAP1 POP JUMP JUMPDEST PUSH0 PUSH1 0x20 DUP3 ADD SWAP1 POP DUP2 DUP2 SUB PUSH0 DUP4 ADD MSTORE PUSH2 0xAD3 DUP2 PUSH2 0xA9A JUMP JUMPDEST SWAP1 POP SWAP2 SWAP1 POP JUMP JUMPDEST PUSH0 PUSH2 0xAE4 DUP3 PUSH2 0x763 JUMP JUMPDEST SWAP2 POP PUSH2 0xAEF DUP4 PUSH2 0x763 JUMP JUMPDEST SWAP3 POP DUP3 DUP3 MUL PUSH2 0xAFD DUP2 PUSH2 0x763 JUMP JUMPDEST SWAP2 POP DUP3 DUP3 DIV DUP5 EQ DUP4 ISZERO OR PUSH2 0xB14 JUMPI PUSH2 0xB13 PUSH2 0x938 JUMP JUMPDEST JUMPDEST POP SWAP3 SWAP2 POP POP JUMP JUMPDEST PUSH32 0x4E487B7100000000000000000000000000000000000000000000000000000000 PUSH0 MSTORE PUSH1 0x12 PUSH1 0x4 MSTORE PUSH1 0x24 PUSH0 REVERT JUMPDEST PUSH0 PUSH2 0xB52 DUP3 PUSH2 0x763 JUMP JUMPDEST SWAP2 POP PUSH2 0xB5D DUP4 PUSH2 0x763 JUMP JUMPDEST SWAP3 POP DUP3 PUSH2 0xB6D JUMPI PUSH2 0xB6C PUSH2 0xB1B JUMP JUMPDEST JUMPDEST DUP3 DUP3 DIV SWAP1 POP SWAP3 SWAP2 POP POP JUMP JUMPDEST PUSH0 PUSH10 0xFFFFFFFFFFFFFFFFFFFF DUP3 AND SWAP1 POP SWAP2 SWAP1 POP JUMP JUMPDEST PUSH2 0xB96 DUP2 PUSH2 0xB78 JUMP JUMPDEST DUP2 EQ PUSH2 0xBA0 JUMPI PUSH0 PUSH0 REVERT JUMPDEST POP JUMP JUMPDEST PUSH0 DUP2 MLOAD SWAP1 POP PUSH2 0xBB1 DUP2 PUSH2 0xB8D JUMP JUMPDEST SWAP3 SWAP2 POP POP JUMP JUMPDEST PUSH0 DUP2 SWAP1 POP SWAP2 SWAP1 POP JUMP JUMPDEST PUSH2 0xBC9 DUP2 PUSH2 0xBB7 JUMP JUMPDEST DUP2 EQ PUSH2 0xBD3 JUMPI PUSH0 PUSH0 REVERT JUMPDEST POP JUMP JUMPDEST PUSH0 DUP2 MLOAD SWAP1 POP PUSH2 0xBE4 DUP2 PUSH2 0xBC0 JUMP JUMPDEST SWAP3 SWAP2 POP POP JUMP JUMPDEST PUSH0 PUSH0 PUSH0 PUSH0 PUSH0 PUSH1 0xA0 DUP7 DUP9 SUB SLT ISZERO PUSH2 0xC03 JUMPI PUSH2 0xC02 PUSH2 0x794 JUMP JUMPDEST JUMPDEST PUSH0 PUSH2 0xC10 DUP9 DUP3 DUP10 ADD PUSH2 0xBA3 JUMP JUMPDEST SWAP6 POP POP PUSH1 0x20 PUSH2 0xC21 DUP9 DUP3 DUP10 ADD PUSH2 0xBD6 JUMP JUMPDEST SWAP5 POP POP PUSH1 0x40 PUSH2 0xC32 DUP9 DUP3 DUP10 ADD PUSH2 0x998 JUMP JUMPDEST SWAP4 POP POP PUSH1 0x60 PUSH2 0xC43 DUP9 DUP3 DUP10 ADD PUSH2 0x998 JUMP JUMPDEST SWAP3 POP POP PUSH1 0x80 PUSH2 0xC54 DUP9 DUP3 DUP10 ADD PUSH2 0xBA3 JUMP JUMPDEST SWAP2 POP POP SWAP3 SWAP6 POP SWAP3 SWAP6 SWAP1 SWAP4 POP JUMP JUMPDEST PUSH0 PUSH2 0xC6B DUP3 PUSH2 0xBB7 JUMP JUMPDEST SWAP2 POP PUSH2 0xC76 DUP4 PUSH2 0xBB7 JUMP JUMPDEST SWAP3 POP DUP3 DUP3 MUL PUSH2 0xC84 DUP2 PUSH2 0xBB7 JUMP JUMPDEST SWAP2 POP PUSH32 0x8000000000000000000000000000000000000000000000000000000000000000 DUP5 EQ PUSH0 DUP5 SLT AND ISZERO PUSH2 0xCBB JUMPI PUSH2 0xCBA PUSH2 0x938 JUMP JUMPDEST JUMPDEST DUP3 DUP3 SDIV DUP5 EQ DUP4 ISZERO OR PUSH2 0xCD0 JUMPI PUSH2 0xCCF PUSH2 0x938 JUMP JUMPDEST JUMPDEST POP SWAP3 SWAP2 POP POP JUMP INVALID LOG2 PUSH5 0x6970667358 0x22 SLT KECCAK256 KECCAK256 0x4F SWAP3 0xF7 0xCE ADDMOD GASLIMIT PUSH0 TLOAD 0xAA 0xE8 SWAP1 CALLER 0xCA PUSH4 0x7BCB5698 0xBF 0x25 ADDRESS SWAP7 SWAP14 LOG4 SLOAD PUSH7 0xED4B107A456473 PUSH16 0x6C634300081E00330000000000000000 "
				},
				"gasEstimates": {
					"creation": {
						"codeDepositCost": "668200",
						"executionCost": "24965",
						"totalCost": "693165"
					},
					"external": {
						"": "infinite",
						"MINIMUM_USD()": "325",
						"addressToAmountFounded(address)": "2847",
						"fund()": "infinite",
						"funders(uint256)": "5009",
						"getVersion()": "infinite",
						"i_owner()": "2552",
						"withdraw()": "infinite"
					}
				},
				"methodIdentifiers": {
					"MINIMUM_USD()": "6b69a592",
					"addressToAmountFounded(address)": "69d1c5af",
					"fund()": "b60d4288",
					"funders(uint256)": "dc0d3dff",
					"getVersion()": "0d8e6e2c",
					"i_owner()": "dba6335f",
					"withdraw()": "3ccfd60b"
				}
			},
			"storageLayout": {
				"storage": [
					{
						"astId": 66,
						"contract": "Contracts/FundMe/FundMe.sol:FundMe",
						"label": "funders",
						"offset": 0,
						"slot": "0",
						"type": "t_array(t_address)dyn_storage"
					},
					{
						"astId": 68,
						"contract": "Contracts/FundMe/FundMe.sol:FundMe",
						"label": "i_owner",
						"offset": 0,
						"slot": "1",
						"type": "t_address"
					},
					{
						"astId": 72,
						"contract": "Contracts/FundMe/FundMe.sol:FundMe",
						"label": "addressToAmountFounded",
						"offset": 0,
						"slot": "2",
						"type": "t_mapping(t_address,t_uint256)"
					}
				],
				"types": {
					"t_address": {
						"encoding": "inplace",
						"label": "address",
						"numberOfBytes": "20"
					},
					"t_array(t_address)dyn_storage": {
						"base": "t_address",
						"encoding": "dynamic_array",
						"label": "address[]",
						"numberOfBytes": "32"
					},
					"t_mapping(t_address,t_uint256)": {
						"encoding": "mapping",
						"key": "t_address",
						"label": "mapping(address => uint256)",
						"numberOfBytes": "32",
						"value": "t_uint256"
					},
					"t_uint256": {
						"encoding": "inplace",
						"label": "uint256",
						"numberOfBytes": "32"
					}
				}
			},
			"userdoc": {
				"kind": "user",
				"methods": {},
				"version": 1
			}
		}
	}
}