{
	"Contract Conqueror/swaptoken/swap.sol": {
		"StakingRewards": {
			"abi": [
				{
					"inputs": [
						{
							"internalType": "address",
							"name": "_stakingToken",
							"type": "address"
						},
						{
							"internalType": "address",
							"name": "_rewardToken",
							"type": "address"
						},
						{
							"internalType": "address",
							"name": "_simpleSwap",
							"type": "address"
						},
						{
							"internalType": "uint256",
							"name": "_rewardRate",
							"type": "uint256"
						}
					],
					"stateMutability": "nonpayable",
					"type": "constructor"
				},
				{
					"inputs": [],
					"name": "InsufficientBalance",
					"type": "error"
				},
				{
					"inputs": [],
					"name": "InvalidAddress",
					"type": "error"
				},
				{
					"inputs": [],
					"name": "InvalidAmount",
					"type": "error"
				},
				{
					"inputs": [],
					"name": "NoRewards",
					"type": "error"
				},
				{
					"inputs": [],
					"name": "RewardPeriodNotFinished",
					"type": "error"
				},
				{
					"inputs": [],
					"name": "TransferFailed",
					"type": "error"
				},
				{
					"inputs": [],
					"name": "Unauthorized",
					"type": "error"
				},
				{
					"anonymous": false,
					"inputs": [
						{
							"indexed": false,
							"internalType": "uint256",
							"name": "reward",
							"type": "uint256"
						}
					],
					"name": "RewardAdded",
					"type": "event"
				},
				{
					"anonymous": false,
					"inputs": [
						{
							"indexed": true,
							"internalType": "address",
							"name": "user",
							"type": "address"
						},
						{
							"indexed": false,
							"internalType": "uint256",
							"name": "reward",
							"type": "uint256"
						}
					],
					"name": "RewardPaid",
					"type": "event"
				},
				{
					"anonymous": false,
					"inputs": [
						{
							"indexed": false,
							"internalType": "uint256",
							"name": "newDuration",
							"type": "uint256"
						}
					],
					"name": "RewardsDurationUpdated",
					"type": "event"
				},
				{
					"anonymous": false,
					"inputs": [
						{
							"indexed": true,
							"internalType": "address",
							"name": "user",
							"type": "address"
						},
						{
							"indexed": false,
							"internalType": "uint256",
							"name": "amount",
							"type": "uint256"
						}
					],
					"name": "Staked",
					"type": "event"
				},
				{
					"anonymous": false,
					"inputs": [
						{
							"indexed": true,
							"internalType": "address",
							"name": "user",
							"type": "address"
						},
						{
							"indexed": false,
							"internalType": "uint256",
							"name": "rewardAmount",
							"type": "uint256"
						},
						{
							"indexed": false,
							"internalType": "uint256",
							"name": "swappedAmount",
							"type": "uint256"
						}
					],
					"name": "SwappedRewards",
					"type": "event"
				},
				{
					"anonymous": false,
					"inputs": [
						{
							"indexed": true,
							"internalType": "address",
							"name": "user",
							"type": "address"
						},
						{
							"indexed": false,
							"internalType": "uint256",
							"name": "amount",
							"type": "uint256"
						}
					],
					"name": "Withdrawn",
					"type": "event"
				},
				{
					"inputs": [
						{
							"internalType": "address",
							"name": "account",
							"type": "address"
						}
					],
					"name": "earned",
					"outputs": [
						{
							"internalType": "uint256",
							"name": "",
							"type": "uint256"
						}
					],
					"stateMutability": "view",
					"type": "function"
				},
				{
					"inputs": [
						{
							"internalType": "address",
							"name": "token",
							"type": "address"
						},
						{
							"internalType": "uint256",
							"name": "amount",
							"type": "uint256"
						}
					],
					"name": "emergencyWithdraw",
					"outputs": [],
					"stateMutability": "nonpayable",
					"type": "function"
				},
				{
					"inputs": [],
					"name": "exit",
					"outputs": [],
					"stateMutability": "nonpayable",
					"type": "function"
				},
				{
					"inputs": [],
					"name": "exitAndSwap",
					"outputs": [],
					"stateMutability": "nonpayable",
					"type": "function"
				},
				{
					"inputs": [],
					"name": "getReward",
					"outputs": [],
					"stateMutability": "nonpayable",
					"type": "function"
				},
				{
					"inputs": [],
					"name": "getRewardAndSwap",
					"outputs": [],
					"stateMutability": "nonpayable",
					"type": "function"
				},
				{
					"inputs": [],
					"name": "getRewardForDuration",
					"outputs": [
						{
							"internalType": "uint256",
							"name": "",
							"type": "uint256"
						}
					],
					"stateMutability": "view",
					"type": "function"
				},
				{
					"inputs": [
						{
							"internalType": "address",
							"name": "user",
							"type": "address"
						}
					],
					"name": "getSwapQuote",
					"outputs": [
						{
							"internalType": "uint256",
							"name": "",
							"type": "uint256"
						}
					],
					"stateMutability": "view",
					"type": "function"
				},
				{
					"inputs": [
						{
							"internalType": "address",
							"name": "user",
							"type": "address"
						}
					],
					"name": "getUserInfo",
					"outputs": [
						{
							"internalType": "uint256",
							"name": "staked",
							"type": "uint256"
						},
						{
							"internalType": "uint256",
							"name": "earnedRewards",
							"type": "uint256"
						},
						{
							"internalType": "uint256",
							"name": "stakingDuration",
							"type": "uint256"
						},
						{
							"internalType": "uint256",
							"name": "potentialSwapAmount",
							"type": "uint256"
						}
					],
					"stateMutability": "view",
					"type": "function"
				},
				{
					"inputs": [],
					"name": "lastTimeRewardApplicable",
					"outputs": [
						{
							"internalType": "uint256",
							"name": "",
							"type": "uint256"
						}
					],
					"stateMutability": "view",
					"type": "function"
				},
				{
					"inputs": [],
					"name": "lastUpdateTime",
					"outputs": [
						{
							"internalType": "uint256",
							"name": "",
							"type": "uint256"
						}
					],
					"stateMutability": "view",
					"type": "function"
				},
				{
					"inputs": [
						{
							"internalType": "uint256",
							"name": "reward",
							"type": "uint256"
						}
					],
					"name": "notifyRewardAmount",
					"outputs": [],
					"stateMutability": "nonpayable",
					"type": "function"
				},
				{
					"inputs": [],
					"name": "owner",
					"outputs": [
						{
							"internalType": "address",
							"name": "",
							"type": "address"
						}
					],
					"stateMutability": "view",
					"type": "function"
				},
				{
					"inputs": [],
					"name": "periodFinish",
					"outputs": [
						{
							"internalType": "uint256",
							"name": "",
							"type": "uint256"
						}
					],
					"stateMutability": "view",
					"type": "function"
				},
				{
					"inputs": [],
					"name": "rewardPerToken",
					"outputs": [
						{
							"internalType": "uint256",
							"name": "",
							"type": "uint256"
						}
					],
					"stateMutability": "view",
					"type": "function"
				},
				{
					"inputs": [],
					"name": "rewardPerTokenStored",
					"outputs": [
						{
							"internalType": "uint256",
							"name": "",
							"type": "uint256"
						}
					],
					"stateMutability": "view",
					"type": "function"
				},
				{
					"inputs": [],
					"name": "rewardRate",
					"outputs": [
						{
							"internalType": "uint256",
							"name": "",
							"type": "uint256"
						}
					],
					"stateMutability": "view",
					"type": "function"
				},
				{
					"inputs": [],
					"name": "rewardToken",
					"outputs": [
						{
							"internalType": "address",
							"name": "",
							"type": "address"
						}
					],
					"stateMutability": "view",
					"type": "function"
				},
				{
					"inputs": [
						{
							"internalType": "address",
							"name": "",
							"type": "address"
						}
					],
					"name": "rewards",
					"outputs": [
						{
							"internalType": "uint256",
							"name": "",
							"type": "uint256"
						}
					],
					"stateMutability": "view",
					"type": "function"
				},
				{
					"inputs": [],
					"name": "rewardsDuration",
					"outputs": [
						{
							"internalType": "uint256",
							"name": "",
							"type": "uint256"
						}
					],
					"stateMutability": "view",
					"type": "function"
				},
				{
					"inputs": [
						{
							"internalType": "uint256",
							"name": "_rewardsDuration",
							"type": "uint256"
						}
					],
					"name": "setRewardsDuration",
					"outputs": [],
					"stateMutability": "nonpayable",
					"type": "function"
				},
				{
					"inputs": [
						{
							"internalType": "address",
							"name": "_simpleSwap",
							"type": "address"
						}
					],
					"name": "setSimpleSwap",
					"outputs": [],
					"stateMutability": "nonpayable",
					"type": "function"
				},
				{
					"inputs": [],
					"name": "simpleSwap",
					"outputs": [
						{
							"internalType": "address",
							"name": "",
							"type": "address"
						}
					],
					"stateMutability": "view",
					"type": "function"
				},
				{
					"inputs": [
						{
							"internalType": "uint256",
							"name": "amount",
							"type": "uint256"
						}
					],
					"name": "stake",
					"outputs": [],
					"stateMutability": "nonpayable",
					"type": "function"
				},
				{
					"inputs": [
						{
							"internalType": "address",
							"name": "",
							"type": "address"
						}
					],
					"name": "stakedBalance",
					"outputs": [
						{
							"internalType": "uint256",
							"name": "",
							"type": "uint256"
						}
					],
					"stateMutability": "view",
					"type": "function"
				},
				{
					"inputs": [
						{
							"internalType": "address",
							"name": "",
							"type": "address"
						}
					],
					"name": "stakingTime",
					"outputs": [
						{
							"internalType": "uint256",
							"name": "",
							"type": "uint256"
						}
					],
					"stateMutability": "view",
					"type": "function"
				},
				{
					"inputs": [],
					"name": "stakingToken",
					"outputs": [
						{
							"internalType": "address",
							"name": "",
							"type": "address"
						}
					],
					"stateMutability": "view",
					"type": "function"
				},
				{
					"inputs": [],
					"name": "totalStaked",
					"outputs": [
						{
							"internalType": "uint256",
							"name": "",
							"type": "uint256"
						}
					],
					"stateMutability": "view",
					"type": "function"
				},
				{
					"inputs": [
						{
							"internalType": "address",
							"name": "newOwner",
							"type": "address"
						}
					],
					"name": "transferOwnership",
					"outputs": [],
					"stateMutability": "nonpayable",
					"type": "function"
				},
				{
					"inputs": [
						{
							"internalType": "address",
							"name": "",
							"type": "address"
						}
					],
					"name": "userRewardPerTokenPaid",
					"outputs": [
						{
							"internalType": "uint256",
							"name": "",
							"type": "uint256"
						}
					],
					"stateMutability": "view",
					"type": "function"
				},
				{
					"inputs": [
						{
							"internalType": "uint256",
							"name": "amount",
							"type": "uint256"
						}
					],
					"name": "withdraw",
					"outputs": [],
					"stateMutability": "nonpayable",
					"type": "function"
				}
			],
			"devdoc": {
				"kind": "dev",
				"methods": {
					"earned(address)": {
						"details": "Calculate earned rewards for an account"
					},
					"emergencyWithdraw(address,uint256)": {
						"details": "Emergency withdraw for owner (only when rewards period is finished)",
						"params": {
							"amount": "Amount to withdraw",
							"token": "Token address to withdraw"
						}
					},
					"exit()": {
						"details": "Exit - withdraw all staked tokens and claim rewards"
					},
					"getReward()": {
						"details": "Claim rewards"
					},
					"getRewardAndSwap()": {
						"details": "Claim rewards and automatically swap to staking token"
					},
					"getRewardForDuration()": {
						"details": "Get reward for duration"
					},
					"getSwapQuote(address)": {
						"details": "Get quote for swapping rewards",
						"params": {
							"user": "User address to check rewards for"
						}
					},
					"getUserInfo(address)": {
						"details": "Get user staking info",
						"params": {
							"user": "User address"
						}
					},
					"lastTimeRewardApplicable()": {
						"details": "Returns the last time rewards were applicable"
					},
					"notifyRewardAmount(uint256)": {
						"details": "Add rewards to the pool (only owner)",
						"params": {
							"reward": "Amount of reward tokens to add"
						}
					},
					"rewardPerToken()": {
						"details": "Calculate reward per token"
					},
					"setRewardsDuration(uint256)": {
						"details": "Set rewards duration (only owner)",
						"params": {
							"_rewardsDuration": "New rewards duration in seconds"
						}
					},
					"setSimpleSwap(address)": {
						"details": "Update SimpleSwap address (only owner)",
						"params": {
							"_simpleSwap": "New SimpleSwap address"
						}
					},
					"stake(uint256)": {
						"details": "Stake tokens",
						"params": {
							"amount": "Amount to stake"
						}
					},
					"transferOwnership(address)": {
						"details": "Transfer ownership",
						"params": {
							"newOwner": "New owner address"
						}
					},
					"withdraw(uint256)": {
						"details": "Withdraw staked tokens",
						"params": {
							"amount": "Amount to withdraw"
						}
					}
				},
				"version": 1
			},
			"evm": {
				"assembly": "    /* \"Contract Conqueror/swaptoken/swap.sol\":804:11177  contract StakingRewards {... */\n  mstore(0x40, 0x80)\n    /* \"Contract Conqueror/swaptoken/swap.sol\":1189:1195  7 days */\n  0x093a80\n    /* \"Contract Conqueror/swaptoken/swap.sol\":1156:1195  uint256 public rewardsDuration = 7 days */\n  0x08\n  sstore\n    /* \"Contract Conqueror/swaptoken/swap.sol\":2839:3243  constructor(... */\n  callvalue\n  dup1\n  iszero\n  tag_1\n  jumpi\n  revert(0x00, 0x00)\ntag_1:\n  pop\n  mload(0x40)\n  sub(codesize, bytecodeSize)\n  dup1\n  bytecodeSize\n  dup4\n  codecopy\n  dup2\n  dup2\n  add\n  0x40\n  mstore\n  dup2\n  add\n  swap1\n  tag_2\n  swap2\n  swap1\n  tag_3\n  jump\t// in\ntag_2:\n    /* \"Contract Conqueror/swaptoken/swap.sol\":3004:3017  _stakingToken */\n  dup4\n    /* \"Contract Conqueror/swaptoken/swap.sol\":2307:2308  0 */\n  0x00\n    /* \"Contract Conqueror/swaptoken/swap.sol\":2290:2309  _addr == address(0) */\n  0xffffffffffffffffffffffffffffffffffffffff\n  and\n    /* \"Contract Conqueror/swaptoken/swap.sol\":2290:2295  _addr */\n  dup2\n    /* \"Contract Conqueror/swaptoken/swap.sol\":2290:2309  _addr == address(0) */\n  0xffffffffffffffffffffffffffffffffffffffff\n  and\n  sub\n    /* \"Contract Conqueror/swaptoken/swap.sol\":2286:2334  if (_addr == address(0)) revert InvalidAddress() */\n  tag_6\n  jumpi\n    /* \"Contract Conqueror/swaptoken/swap.sol\":2318:2334  InvalidAddress() */\n  mload(0x40)\n  0xe6c4247b00000000000000000000000000000000000000000000000000000000\n  dup2\n  mstore\n  0x04\n  add\n  mload(0x40)\n  dup1\n  swap2\n  sub\n  swap1\n  revert\n    /* \"Contract Conqueror/swaptoken/swap.sol\":2286:2334  if (_addr == address(0)) revert InvalidAddress() */\ntag_6:\n    /* \"Contract Conqueror/swaptoken/swap.sol\":3041:3053  _rewardToken */\n  dup4\n    /* \"Contract Conqueror/swaptoken/swap.sol\":2307:2308  0 */\n  0x00\n    /* \"Contract Conqueror/swaptoken/swap.sol\":2290:2309  _addr == address(0) */\n  0xffffffffffffffffffffffffffffffffffffffff\n  and\n    /* \"Contract Conqueror/swaptoken/swap.sol\":2290:2295  _addr */\n  dup2\n    /* \"Contract Conqueror/swaptoken/swap.sol\":2290:2309  _addr == address(0) */\n  0xffffffffffffffffffffffffffffffffffffffff\n  and\n  sub\n    /* \"Contract Conqueror/swaptoken/swap.sol\":2286:2334  if (_addr == address(0)) revert InvalidAddress() */\n  tag_8\n  jumpi\n    /* \"Contract Conqueror/swaptoken/swap.sol\":2318:2334  InvalidAddress() */\n  mload(0x40)\n  0xe6c4247b00000000000000000000000000000000000000000000000000000000\n  dup2\n  mstore\n  0x04\n  add\n  mload(0x40)\n  dup1\n  swap2\n  sub\n  swap1\n  revert\n    /* \"Contract Conqueror/swaptoken/swap.sol\":2286:2334  if (_addr == address(0)) revert InvalidAddress() */\ntag_8:\n    /* \"Contract Conqueror/swaptoken/swap.sol\":3079:3089  msg.sender */\n  caller\n    /* \"Contract Conqueror/swaptoken/swap.sol\":3071:3076  owner */\n  0x00\n  0x00\n    /* \"Contract Conqueror/swaptoken/swap.sol\":3071:3089  owner = msg.sender */\n  0x0100\n  exp\n  dup2\n  sload\n  dup2\n  0xffffffffffffffffffffffffffffffffffffffff\n  mul\n  not\n  and\n  swap1\n  dup4\n  0xffffffffffffffffffffffffffffffffffffffff\n  and\n  mul\n  or\n  swap1\n  sstore\n  pop\n    /* \"Contract Conqueror/swaptoken/swap.sol\":3115:3128  _stakingToken */\n  dup6\n    /* \"Contract Conqueror/swaptoken/swap.sol\":3100:3112  stakingToken */\n  0x01\n  0x00\n    /* \"Contract Conqueror/swaptoken/swap.sol\":3100:3128  stakingToken = _stakingToken */\n  0x0100\n  exp\n  dup2\n  sload\n  dup2\n  0xffffffffffffffffffffffffffffffffffffffff\n  mul\n  not\n  and\n  swap1\n  dup4\n  0xffffffffffffffffffffffffffffffffffffffff\n  and\n  mul\n  or\n  swap1\n  sstore\n  pop\n    /* \"Contract Conqueror/swaptoken/swap.sol\":3153:3165  _rewardToken */\n  dup5\n    /* \"Contract Conqueror/swaptoken/swap.sol\":3139:3150  rewardToken */\n  0x02\n  0x00\n    /* \"Contract Conqueror/swaptoken/swap.sol\":3139:3165  rewardToken = _rewardToken */\n  0x0100\n  exp\n  dup2\n  sload\n  dup2\n  0xffffffffffffffffffffffffffffffffffffffff\n  mul\n  not\n  and\n  swap1\n  dup4\n  0xffffffffffffffffffffffffffffffffffffffff\n  and\n  mul\n  or\n  swap1\n  sstore\n  pop\n    /* \"Contract Conqueror/swaptoken/swap.sol\":3189:3200  _simpleSwap */\n  dup4\n    /* \"Contract Conqueror/swaptoken/swap.sol\":3176:3186  simpleSwap */\n  0x03\n  0x00\n    /* \"Contract Conqueror/swaptoken/swap.sol\":3176:3200  simpleSwap = _simpleSwap */\n  0x0100\n  exp\n  dup2\n  sload\n  dup2\n  0xffffffffffffffffffffffffffffffffffffffff\n  mul\n  not\n  and\n  swap1\n  dup4\n  0xffffffffffffffffffffffffffffffffffffffff\n  and\n  mul\n  or\n  swap1\n  sstore\n  pop\n    /* \"Contract Conqueror/swaptoken/swap.sol\":3224:3235  _rewardRate */\n  dup3\n    /* \"Contract Conqueror/swaptoken/swap.sol\":3211:3221  rewardRate */\n  0x04\n    /* \"Contract Conqueror/swaptoken/swap.sol\":3211:3235  rewardRate = _rewardRate */\n  dup2\n  swap1\n  sstore\n  pop\n    /* \"Contract Conqueror/swaptoken/swap.sol\":2345:2346  _ */\n  pop\n    /* \"Contract Conqueror/swaptoken/swap.sol\":2839:3243  constructor(... */\n  pop\n  pop\n  pop\n  pop\n  pop\n    /* \"Contract Conqueror/swaptoken/swap.sol\":804:11177  contract StakingRewards {... */\n  jump(tag_10)\n    /* \"#utility.yul\":88:205   */\ntag_12:\n    /* \"#utility.yul\":197:198   */\n  0x00\n    /* \"#utility.yul\":194:195   */\n  0x00\n    /* \"#utility.yul\":187:199   */\n  revert\n    /* \"#utility.yul\":334:460   */\ntag_14:\n    /* \"#utility.yul\":371:378   */\n  0x00\n    /* \"#utility.yul\":411:453   */\n  0xffffffffffffffffffffffffffffffffffffffff\n    /* \"#utility.yul\":404:409   */\n  dup3\n    /* \"#utility.yul\":400:454   */\n  and\n    /* \"#utility.yul\":389:454   */\n  swap1\n  pop\n    /* \"#utility.yul\":334:460   */\n  swap2\n  swap1\n  pop\n  jump\t// out\n    /* \"#utility.yul\":466:562   */\ntag_15:\n    /* \"#utility.yul\":503:510   */\n  0x00\n    /* \"#utility.yul\":532:556   */\n  tag_27\n    /* \"#utility.yul\":550:555   */\n  dup3\n    /* \"#utility.yul\":532:556   */\n  tag_14\n  jump\t// in\ntag_27:\n    /* \"#utility.yul\":521:556   */\n  swap1\n  pop\n    /* \"#utility.yul\":466:562   */\n  swap2\n  swap1\n  pop\n  jump\t// out\n    /* \"#utility.yul\":568:690   */\ntag_16:\n    /* \"#utility.yul\":641:665   */\n  tag_29\n    /* \"#utility.yul\":659:664   */\n  dup2\n    /* \"#utility.yul\":641:665   */\n  tag_15\n  jump\t// in\ntag_29:\n    /* \"#utility.yul\":634:639   */\n  dup2\n    /* \"#utility.yul\":631:666   */\n  eq\n    /* \"#utility.yul\":621:684   */\n  tag_30\n  jumpi\n    /* \"#utility.yul\":680:681   */\n  0x00\n    /* \"#utility.yul\":677:678   */\n  0x00\n    /* \"#utility.yul\":670:682   */\n  revert\n    /* \"#utility.yul\":621:684   */\ntag_30:\n    /* \"#utility.yul\":568:690   */\n  pop\n  jump\t// out\n    /* \"#utility.yul\":696:839   */\ntag_17:\n    /* \"#utility.yul\":753:758   */\n  0x00\n    /* \"#utility.yul\":784:790   */\n  dup2\n    /* \"#utility.yul\":778:791   */\n  mload\n    /* \"#utility.yul\":769:791   */\n  swap1\n  pop\n    /* \"#utility.yul\":800:833   */\n  tag_32\n    /* \"#utility.yul\":827:832   */\n  dup2\n    /* \"#utility.yul\":800:833   */\n  tag_16\n  jump\t// in\ntag_32:\n    /* \"#utility.yul\":696:839   */\n  swap3\n  swap2\n  pop\n  pop\n  jump\t// out\n    /* \"#utility.yul\":845:922   */\ntag_18:\n    /* \"#utility.yul\":882:889   */\n  0x00\n    /* \"#utility.yul\":911:916   */\n  dup2\n    /* \"#utility.yul\":900:916   */\n  swap1\n  pop\n    /* \"#utility.yul\":845:922   */\n  swap2\n  swap1\n  pop\n  jump\t// out\n    /* \"#utility.yul\":928:1050   */\ntag_19:\n    /* \"#utility.yul\":1001:1025   */\n  tag_35\n    /* \"#utility.yul\":1019:1024   */\n  dup2\n    /* \"#utility.yul\":1001:1025   */\n  tag_18\n  jump\t// in\ntag_35:\n    /* \"#utility.yul\":994:999   */\n  dup2\n    /* \"#utility.yul\":991:1026   */\n  eq\n    /* \"#utility.yul\":981:1044   */\n  tag_36\n  jumpi\n    /* \"#utility.yul\":1040:1041   */\n  0x00\n    /* \"#utility.yul\":1037:1038   */\n  0x00\n    /* \"#utility.yul\":1030:1042   */\n  revert\n    /* \"#utility.yul\":981:1044   */\ntag_36:\n    /* \"#utility.yul\":928:1050   */\n  pop\n  jump\t// out\n    /* \"#utility.yul\":1056:1199   */\ntag_20:\n    /* \"#utility.yul\":1113:1118   */\n  0x00\n    /* \"#utility.yul\":1144:1150   */\n  dup2\n    /* \"#utility.yul\":1138:1151   */\n  mload\n    /* \"#utility.yul\":1129:1151   */\n  swap1\n  pop\n    /* \"#utility.yul\":1160:1193   */\n  tag_38\n    /* \"#utility.yul\":1187:1192   */\n  dup2\n    /* \"#utility.yul\":1160:1193   */\n  tag_19\n  jump\t// in\ntag_38:\n    /* \"#utility.yul\":1056:1199   */\n  swap3\n  swap2\n  pop\n  pop\n  jump\t// out\n    /* \"#utility.yul\":1205:2025   */\ntag_3:\n    /* \"#utility.yul\":1302:1308   */\n  0x00\n    /* \"#utility.yul\":1310:1316   */\n  0x00\n    /* \"#utility.yul\":1318:1324   */\n  0x00\n    /* \"#utility.yul\":1326:1332   */\n  0x00\n    /* \"#utility.yul\":1375:1378   */\n  0x80\n    /* \"#utility.yul\":1363:1372   */\n  dup6\n    /* \"#utility.yul\":1354:1361   */\n  dup8\n    /* \"#utility.yul\":1350:1373   */\n  sub\n    /* \"#utility.yul\":1346:1379   */\n  slt\n    /* \"#utility.yul\":1343:1463   */\n  iszero\n  tag_40\n  jumpi\n    /* \"#utility.yul\":1382:1461   */\n  tag_41\n  tag_12\n  jump\t// in\ntag_41:\n    /* \"#utility.yul\":1343:1463   */\ntag_40:\n    /* \"#utility.yul\":1502:1503   */\n  0x00\n    /* \"#utility.yul\":1527:1591   */\n  tag_42\n    /* \"#utility.yul\":1583:1590   */\n  dup8\n    /* \"#utility.yul\":1574:1580   */\n  dup3\n    /* \"#utility.yul\":1563:1572   */\n  dup9\n    /* \"#utility.yul\":1559:1581   */\n  add\n    /* \"#utility.yul\":1527:1591   */\n  tag_17\n  jump\t// in\ntag_42:\n    /* \"#utility.yul\":1517:1591   */\n  swap5\n  pop\n    /* \"#utility.yul\":1473:1601   */\n  pop\n    /* \"#utility.yul\":1640:1642   */\n  0x20\n    /* \"#utility.yul\":1666:1730   */\n  tag_43\n    /* \"#utility.yul\":1722:1729   */\n  dup8\n    /* \"#utility.yul\":1713:1719   */\n  dup3\n    /* \"#utility.yul\":1702:1711   */\n  dup9\n    /* \"#utility.yul\":1698:1720   */\n  add\n    /* \"#utility.yul\":1666:1730   */\n  tag_17\n  jump\t// in\ntag_43:\n    /* \"#utility.yul\":1656:1730   */\n  swap4\n  pop\n    /* \"#utility.yul\":1611:1740   */\n  pop\n    /* \"#utility.yul\":1779:1781   */\n  0x40\n    /* \"#utility.yul\":1805:1869   */\n  tag_44\n    /* \"#utility.yul\":1861:1868   */\n  dup8\n    /* \"#utility.yul\":1852:1858   */\n  dup3\n    /* \"#utility.yul\":1841:1850   */\n  dup9\n    /* \"#utility.yul\":1837:1859   */\n  add\n    /* \"#utility.yul\":1805:1869   */\n  tag_17\n  jump\t// in\ntag_44:\n    /* \"#utility.yul\":1795:1869   */\n  swap3\n  pop\n    /* \"#utility.yul\":1750:1879   */\n  pop\n    /* \"#utility.yul\":1918:1920   */\n  0x60\n    /* \"#utility.yul\":1944:2008   */\n  tag_45\n    /* \"#utility.yul\":2000:2007   */\n  dup8\n    /* \"#utility.yul\":1991:1997   */\n  dup3\n    /* \"#utility.yul\":1980:1989   */\n  dup9\n    /* \"#utility.yul\":1976:1998   */\n  add\n    /* \"#utility.yul\":1944:2008   */\n  tag_20\n  jump\t// in\ntag_45:\n    /* \"#utility.yul\":1934:2008   */\n  swap2\n  pop\n    /* \"#utility.yul\":1889:2018   */\n  pop\n    /* \"#utility.yul\":1205:2025   */\n  swap3\n  swap6\n  swap2\n  swap5\n  pop\n  swap3\n  pop\n  jump\t// out\n    /* \"Contract Conqueror/swaptoken/swap.sol\":804:11177  contract StakingRewards {... */\ntag_10:\n  dataSize(sub_0)\n  dup1\n  dataOffset(sub_0)\n  0x00\n  codecopy\n  0x00\n  return\nstop\n\nsub_0: assembly {\n        /* \"Contract Conqueror/swaptoken/swap.sol\":804:11177  contract StakingRewards {... */\n      mstore(0x40, 0x80)\n      callvalue\n      dup1\n      iszero\n      tag_1\n      jumpi\n      revert(0x00, 0x00)\n    tag_1:\n      pop\n      jumpi(tag_2, lt(calldatasize, 0x04))\n      shr(0xe0, calldataload(0x00))\n      dup1\n      0x80faa57d\n      gt\n      tag_34\n      jumpi\n      dup1\n      0xcc1a378f\n      gt\n      tag_35\n      jumpi\n      dup1\n      0xebe2b12b\n      gt\n      tag_36\n      jumpi\n      dup1\n      0xebe2b12b\n      eq\n      tag_30\n      jumpi\n      dup1\n      0xf2fde38b\n      eq\n      tag_31\n      jumpi\n      dup1\n      0xf7c618c1\n      eq\n      tag_32\n      jumpi\n      dup1\n      0xf84dbd58\n      eq\n      tag_33\n      jumpi\n      jump(tag_2)\n    tag_36:\n      dup1\n      0xcc1a378f\n      eq\n      tag_26\n      jumpi\n      dup1\n      0xcd3daf9d\n      eq\n      tag_27\n      jumpi\n      dup1\n      0xdf136d65\n      eq\n      tag_28\n      jumpi\n      dup1\n      0xe9fad8ee\n      eq\n      tag_29\n      jumpi\n      jump(tag_2)\n    tag_35:\n      dup1\n      0x8da5cb5b\n      gt\n      tag_37\n      jumpi\n      dup1\n      0x8da5cb5b\n      eq\n      tag_22\n      jumpi\n      dup1\n      0x95ccea67\n      eq\n      tag_23\n      jumpi\n      dup1\n      0xa694fc3a\n      eq\n      tag_24\n      jumpi\n      dup1\n      0xc8f33c91\n      eq\n      tag_25\n      jumpi\n      jump(tag_2)\n    tag_37:\n      dup1\n      0x80faa57d\n      eq\n      tag_18\n      jumpi\n      dup1\n      0x817b1cd2\n      eq\n      tag_19\n      jumpi\n      dup1\n      0x8927e052\n      eq\n      tag_20\n      jumpi\n      dup1\n      0x8b876347\n      eq\n      tag_21\n      jumpi\n      jump(tag_2)\n    tag_34:\n      dup1\n      0x386a9525\n      gt\n      tag_38\n      jumpi\n      dup1\n      0x60217267\n      gt\n      tag_39\n      jumpi\n      dup1\n      0x60217267\n      eq\n      tag_14\n      jumpi\n      dup1\n      0x6386c1c7\n      eq\n      tag_15\n      jumpi\n      dup1\n      0x72f702f3\n      eq\n      tag_16\n      jumpi\n      dup1\n      0x7b0a47ee\n      eq\n      tag_17\n      jumpi\n      jump(tag_2)\n    tag_39:\n      dup1\n      0x386a9525\n      eq\n      tag_10\n      jumpi\n      dup1\n      0x3c6b16ab\n      eq\n      tag_11\n      jumpi\n      dup1\n      0x3d18b912\n      eq\n      tag_12\n      jumpi\n      dup1\n      0x583d42fd\n      eq\n      tag_13\n      jumpi\n      jump(tag_2)\n    tag_38:\n      dup1\n      0x1c1f78eb\n      gt\n      tag_40\n      jumpi\n      dup1\n      0x1c1f78eb\n      eq\n      tag_6\n      jumpi\n      dup1\n      0x1f5870ef\n      eq\n      tag_7\n      jumpi\n      dup1\n      0x2b52c526\n      eq\n      tag_8\n      jumpi\n      dup1\n      0x2e1a7d4d\n      eq\n      tag_9\n      jumpi\n      jump(tag_2)\n    tag_40:\n      dup1\n      0x8cc262\n      eq\n      tag_3\n      jumpi\n      dup1\n      0x0700037d\n      eq\n      tag_4\n      jumpi\n      dup1\n      0x1227ed1f\n      eq\n      tag_5\n      jumpi\n    tag_2:\n      revert(0x00, 0x00)\n        /* \"Contract Conqueror/swaptoken/swap.sol\":3928:4138  function earned(address account) public view returns (uint256) {... */\n    tag_3:\n      tag_41\n      0x04\n      dup1\n      calldatasize\n      sub\n      dup2\n      add\n      swap1\n      tag_42\n      swap2\n      swap1\n      tag_43\n      jump\t// in\n    tag_42:\n      tag_44\n      jump\t// in\n    tag_41:\n      mload(0x40)\n      tag_45\n      swap2\n      swap1\n      tag_46\n      jump\t// in\n    tag_45:\n      mload(0x40)\n      dup1\n      swap2\n      sub\n      swap1\n      return\n        /* \"Contract Conqueror/swaptoken/swap.sol\":1401:1443  mapping(address => uint256) public rewards */\n    tag_4:\n      tag_47\n      0x04\n      dup1\n      calldatasize\n      sub\n      dup2\n      add\n      swap1\n      tag_48\n      swap2\n      swap1\n      tag_43\n      jump\t// in\n    tag_48:\n      tag_49\n      jump\t// in\n    tag_47:\n      mload(0x40)\n      tag_50\n      swap2\n      swap1\n      tag_46\n      jump\t// in\n    tag_50:\n      mload(0x40)\n      dup1\n      swap2\n      sub\n      swap1\n      return\n        /* \"Contract Conqueror/swaptoken/swap.sol\":9293:9599  function getSwapQuote(address user) external view returns (uint256) {... */\n    tag_5:\n      tag_51\n      0x04\n      dup1\n      calldatasize\n      sub\n      dup2\n      add\n      swap1\n      tag_52\n      swap2\n      swap1\n      tag_43\n      jump\t// in\n    tag_52:\n      tag_53\n      jump\t// in\n    tag_51:\n      mload(0x40)\n      tag_54\n      swap2\n      swap1\n      tag_46\n      jump\t// in\n    tag_54:\n      mload(0x40)\n      dup1\n      swap2\n      sub\n      swap1\n      return\n        /* \"Contract Conqueror/swaptoken/swap.sol\":4205:4323  function getRewardForDuration() external view returns (uint256) {... */\n    tag_6:\n      tag_55\n      tag_56\n      jump\t// in\n    tag_55:\n      mload(0x40)\n      tag_57\n      swap2\n      swap1\n      tag_46\n      jump\t// in\n    tag_57:\n      mload(0x40)\n      dup1\n      swap2\n      sub\n      swap1\n      return\n        /* \"Contract Conqueror/swaptoken/swap.sol\":9059:9165  function setSimpleSwap(address _simpleSwap) external onlyOwner {... */\n    tag_7:\n      tag_58\n      0x04\n      dup1\n      calldatasize\n      sub\n      dup2\n      add\n      swap1\n      tag_59\n      swap2\n      swap1\n      tag_43\n      jump\t// in\n    tag_59:\n      tag_60\n      jump\t// in\n    tag_58:\n      stop\n        /* \"Contract Conqueror/swaptoken/swap.sol\":7311:7426  function exitAndSwap() external {... */\n    tag_8:\n      tag_61\n      tag_62\n      jump\t// in\n    tag_61:\n      stop\n        /* \"Contract Conqueror/swaptoken/swap.sol\":5208:5686  function withdraw(uint256 amount) ... */\n    tag_9:\n      tag_63\n      0x04\n      dup1\n      calldatasize\n      sub\n      dup2\n      add\n      swap1\n      tag_64\n      swap2\n      swap1\n      tag_65\n      jump\t// in\n    tag_64:\n      tag_66\n      jump\t// in\n    tag_63:\n      stop\n        /* \"Contract Conqueror/swaptoken/swap.sol\":1156:1195  uint256 public rewardsDuration = 7 days */\n    tag_10:\n      tag_67\n      tag_68\n      jump\t// in\n    tag_67:\n      mload(0x40)\n      tag_69\n      swap2\n      swap1\n      tag_46\n      jump\t// in\n    tag_69:\n      mload(0x40)\n      dup1\n      swap2\n      sub\n      swap1\n      return\n        /* \"Contract Conqueror/swaptoken/swap.sol\":7559:8449  function notifyRewardAmount(uint256 reward) ... */\n    tag_11:\n      tag_70\n      0x04\n      dup1\n      calldatasize\n      sub\n      dup2\n      add\n      swap1\n      tag_71\n      swap2\n      swap1\n      tag_65\n      jump\t// in\n    tag_71:\n      tag_72\n      jump\t// in\n    tag_70:\n      stop\n        /* \"Contract Conqueror/swaptoken/swap.sol\":5743:6123  function getReward() public  updateReward(msg.sender) {... */\n    tag_12:\n      tag_73\n      tag_74\n      jump\t// in\n    tag_73:\n      stop\n        /* \"Contract Conqueror/swaptoken/swap.sol\":1450:1496  mapping(address => uint256) public stakingTime */\n    tag_13:\n      tag_75\n      0x04\n      dup1\n      calldatasize\n      sub\n      dup2\n      add\n      swap1\n      tag_76\n      swap2\n      swap1\n      tag_43\n      jump\t// in\n    tag_76:\n      tag_77\n      jump\t// in\n    tag_75:\n      mload(0x40)\n      tag_78\n      swap2\n      swap1\n      tag_46\n      jump\t// in\n    tag_78:\n      mload(0x40)\n      dup1\n      swap2\n      sub\n      swap1\n      return\n        /* \"Contract Conqueror/swaptoken/swap.sol\":1282:1330  mapping(address => uint256) public stakedBalance */\n    tag_14:\n      tag_79\n      0x04\n      dup1\n      calldatasize\n      sub\n      dup2\n      add\n      swap1\n      tag_80\n      swap2\n      swap1\n      tag_43\n      jump\t// in\n    tag_80:\n      tag_81\n      jump\t// in\n    tag_79:\n      mload(0x40)\n      tag_82\n      swap2\n      swap1\n      tag_46\n      jump\t// in\n    tag_82:\n      mload(0x40)\n      dup1\n      swap2\n      sub\n      swap1\n      return\n        /* \"Contract Conqueror/swaptoken/swap.sol\":9697:10387  function getUserInfo(address user) ... */\n    tag_15:\n      tag_83\n      0x04\n      dup1\n      calldatasize\n      sub\n      dup2\n      add\n      swap1\n      tag_84\n      swap2\n      swap1\n      tag_43\n      jump\t// in\n    tag_84:\n      tag_85\n      jump\t// in\n    tag_83:\n      mload(0x40)\n      tag_86\n      swap5\n      swap4\n      swap3\n      swap2\n      swap1\n      tag_87\n      jump\t// in\n    tag_86:\n      mload(0x40)\n      dup1\n      swap2\n      sub\n      swap1\n      return\n        /* \"Contract Conqueror/swaptoken/swap.sol\":886:913  address public stakingToken */\n    tag_16:\n      tag_88\n      tag_89\n      jump\t// in\n    tag_88:\n      mload(0x40)\n      tag_90\n      swap2\n      swap1\n      tag_91\n      jump\t// in\n    tag_90:\n      mload(0x40)\n      dup1\n      swap2\n      sub\n      swap1\n      return\n        /* \"Contract Conqueror/swaptoken/swap.sol\":991:1016  uint256 public rewardRate */\n    tag_17:\n      tag_92\n      tag_93\n      jump\t// in\n    tag_92:\n      mload(0x40)\n      tag_94\n      swap2\n      swap1\n      tag_46\n      jump\t// in\n    tag_94:\n      mload(0x40)\n      dup1\n      swap2\n      sub\n      swap1\n      return\n        /* \"Contract Conqueror/swaptoken/swap.sol\":3332:3487  function lastTimeRewardApplicable() public view returns (uint256) {... */\n    tag_18:\n      tag_95\n      tag_96\n      jump\t// in\n    tag_95:\n      mload(0x40)\n      tag_97\n      swap2\n      swap1\n      tag_46\n      jump\t// in\n    tag_97:\n      mload(0x40)\n      dup1\n      swap2\n      sub\n      swap1\n      return\n        /* \"Contract Conqueror/swaptoken/swap.sol\":1123:1149  uint256 public totalStaked */\n    tag_19:\n      tag_98\n      tag_99\n      jump\t// in\n    tag_98:\n      mload(0x40)\n      tag_100\n      swap2\n      swap1\n      tag_46\n      jump\t// in\n    tag_100:\n      mload(0x40)\n      dup1\n      swap2\n      sub\n      swap1\n      return\n        /* \"Contract Conqueror/swaptoken/swap.sol\":953:978  address public simpleSwap */\n    tag_20:\n      tag_101\n      tag_102\n      jump\t// in\n    tag_101:\n      mload(0x40)\n      tag_103\n      swap2\n      swap1\n      tag_91\n      jump\t// in\n    tag_103:\n      mload(0x40)\n      dup1\n      swap2\n      sub\n      swap1\n      return\n        /* \"Contract Conqueror/swaptoken/swap.sol\":1337:1394  mapping(address => uint256) public userRewardPerTokenPaid */\n    tag_21:\n      tag_104\n      0x04\n      dup1\n      calldatasize\n      sub\n      dup2\n      add\n      swap1\n      tag_105\n      swap2\n      swap1\n      tag_43\n      jump\t// in\n    tag_105:\n      tag_106\n      jump\t// in\n    tag_104:\n      mload(0x40)\n      tag_107\n      swap2\n      swap1\n      tag_46\n      jump\t// in\n    tag_107:\n      mload(0x40)\n      dup1\n      swap2\n      sub\n      swap1\n      return\n        /* \"Contract Conqueror/swaptoken/swap.sol\":859:879  address public owner */\n    tag_22:\n      tag_108\n      tag_109\n      jump\t// in\n    tag_108:\n      mload(0x40)\n      tag_110\n      swap2\n      swap1\n      tag_91\n      jump\t// in\n    tag_110:\n      mload(0x40)\n      dup1\n      swap2\n      sub\n      swap1\n      return\n        /* \"Contract Conqueror/swaptoken/swap.sol\":10812:11174  function emergencyWithdraw(address token, uint256 amount) ... */\n    tag_23:\n      tag_111\n      0x04\n      dup1\n      calldatasize\n      sub\n      dup2\n      add\n      swap1\n      tag_112\n      swap2\n      swap1\n      tag_113\n      jump\t// in\n    tag_112:\n      tag_114\n      jump\t// in\n    tag_111:\n      stop\n        /* \"Contract Conqueror/swaptoken/swap.sol\":4417:5101  function stake(uint256 amount) ... */\n    tag_24:\n      tag_115\n      0x04\n      dup1\n      calldatasize\n      sub\n      dup2\n      add\n      swap1\n      tag_116\n      swap2\n      swap1\n      tag_65\n      jump\t// in\n    tag_116:\n      tag_117\n      jump\t// in\n    tag_115:\n      stop\n        /* \"Contract Conqueror/swaptoken/swap.sol\":1045:1074  uint256 public lastUpdateTime */\n    tag_25:\n      tag_118\n      tag_119\n      jump\t// in\n    tag_118:\n      mload(0x40)\n      tag_120\n      swap2\n      swap1\n      tag_46\n      jump\t// in\n    tag_120:\n      mload(0x40)\n      dup1\n      swap2\n      sub\n      swap1\n      return\n        /* \"Contract Conqueror/swaptoken/swap.sol\":8590:8927  function setRewardsDuration(uint256 _rewardsDuration) ... */\n    tag_26:\n      tag_121\n      0x04\n      dup1\n      calldatasize\n      sub\n      dup2\n      add\n      swap1\n      tag_122\n      swap2\n      swap1\n      tag_65\n      jump\t// in\n    tag_122:\n      tag_123\n      jump\t// in\n    tag_121:\n      stop\n        /* \"Contract Conqueror/swaptoken/swap.sol\":3557:3845  function rewardPerToken() public view returns (uint256) {... */\n    tag_27:\n      tag_124\n      tag_125\n      jump\t// in\n    tag_124:\n      mload(0x40)\n      tag_126\n      swap2\n      swap1\n      tag_46\n      jump\t// in\n    tag_126:\n      mload(0x40)\n      dup1\n      swap2\n      sub\n      swap1\n      return\n        /* \"Contract Conqueror/swaptoken/swap.sol\":1081:1116  uint256 public rewardPerTokenStored */\n    tag_28:\n      tag_127\n      tag_128\n      jump\t// in\n    tag_127:\n      mload(0x40)\n      tag_129\n      swap2\n      swap1\n      tag_46\n      jump\t// in\n    tag_129:\n      mload(0x40)\n      dup1\n      swap2\n      sub\n      swap1\n      return\n        /* \"Contract Conqueror/swaptoken/swap.sol\":7098:7199  function exit() external {... */\n    tag_29:\n      tag_130\n      tag_131\n      jump\t// in\n    tag_130:\n      stop\n        /* \"Contract Conqueror/swaptoken/swap.sol\":1220:1247  uint256 public periodFinish */\n    tag_30:\n      tag_132\n      tag_133\n      jump\t// in\n    tag_132:\n      mload(0x40)\n      tag_134\n      swap2\n      swap1\n      tag_46\n      jump\t// in\n    tag_134:\n      mload(0x40)\n      dup1\n      swap2\n      sub\n      swap1\n      return\n        /* \"Contract Conqueror/swaptoken/swap.sol\":10491:10613  function transferOwnership(address newOwner) external onlyOwner validAddress(newOwner) {... */\n    tag_31:\n      tag_135\n      0x04\n      dup1\n      calldatasize\n      sub\n      dup2\n      add\n      swap1\n      tag_136\n      swap2\n      swap1\n      tag_43\n      jump\t// in\n    tag_136:\n      tag_137\n      jump\t// in\n    tag_135:\n      stop\n        /* \"Contract Conqueror/swaptoken/swap.sol\":920:946  address public rewardToken */\n    tag_32:\n      tag_138\n      tag_139\n      jump\t// in\n    tag_138:\n      mload(0x40)\n      tag_140\n      swap2\n      swap1\n      tag_91\n      jump\t// in\n    tag_140:\n      mload(0x40)\n      dup1\n      swap2\n      sub\n      swap1\n      return\n        /* \"Contract Conqueror/swaptoken/swap.sol\":6220:7003  function getRewardAndSwap() public  updateReward(msg.sender) {... */\n    tag_33:\n      tag_141\n      tag_142\n      jump\t// in\n    tag_141:\n      stop\n        /* \"Contract Conqueror/swaptoken/swap.sol\":3928:4138  function earned(address account) public view returns (uint256) {... */\n    tag_44:\n        /* \"Contract Conqueror/swaptoken/swap.sol\":3982:3989  uint256 */\n      0x00\n        /* \"Contract Conqueror/swaptoken/swap.sol\":4114:4121  rewards */\n      0x0c\n        /* \"Contract Conqueror/swaptoken/swap.sol\":4114:4130  rewards[account] */\n      0x00\n        /* \"Contract Conqueror/swaptoken/swap.sol\":4122:4129  account */\n      dup4\n        /* \"Contract Conqueror/swaptoken/swap.sol\":4114:4130  rewards[account] */\n      0xffffffffffffffffffffffffffffffffffffffff\n      and\n      0xffffffffffffffffffffffffffffffffffffffff\n      and\n      dup2\n      mstore\n      0x20\n      add\n      swap1\n      dup2\n      mstore\n      0x20\n      add\n      0x00\n      keccak256\n      sload\n        /* \"Contract Conqueror/swaptoken/swap.sol\":4092:4096  1e18 */\n      0x0de0b6b3a7640000\n        /* \"Contract Conqueror/swaptoken/swap.sol\":4056:4078  userRewardPerTokenPaid */\n      0x0b\n        /* \"Contract Conqueror/swaptoken/swap.sol\":4056:4087  userRewardPerTokenPaid[account] */\n      0x00\n        /* \"Contract Conqueror/swaptoken/swap.sol\":4079:4086  account */\n      dup6\n        /* \"Contract Conqueror/swaptoken/swap.sol\":4056:4087  userRewardPerTokenPaid[account] */\n      0xffffffffffffffffffffffffffffffffffffffff\n      and\n      0xffffffffffffffffffffffffffffffffffffffff\n      and\n      dup2\n      mstore\n      0x20\n      add\n      swap1\n      dup2\n      mstore\n      0x20\n      add\n      0x00\n      keccak256\n      sload\n        /* \"Contract Conqueror/swaptoken/swap.sol\":4037:4053  rewardPerToken() */\n      tag_144\n        /* \"Contract Conqueror/swaptoken/swap.sol\":4037:4051  rewardPerToken */\n      tag_125\n        /* \"Contract Conqueror/swaptoken/swap.sol\":4037:4053  rewardPerToken() */\n      jump\t// in\n    tag_144:\n        /* \"Contract Conqueror/swaptoken/swap.sol\":4037:4087  rewardPerToken() - userRewardPerTokenPaid[account] */\n      tag_145\n      swap2\n      swap1\n      tag_146\n      jump\t// in\n    tag_145:\n        /* \"Contract Conqueror/swaptoken/swap.sol\":4011:4024  stakedBalance */\n      0x0a\n        /* \"Contract Conqueror/swaptoken/swap.sol\":4011:4033  stakedBalance[account] */\n      0x00\n        /* \"Contract Conqueror/swaptoken/swap.sol\":4025:4032  account */\n      dup7\n        /* \"Contract Conqueror/swaptoken/swap.sol\":4011:4033  stakedBalance[account] */\n      0xffffffffffffffffffffffffffffffffffffffff\n      and\n      0xffffffffffffffffffffffffffffffffffffffff\n      and\n      dup2\n      mstore\n      0x20\n      add\n      swap1\n      dup2\n      mstore\n      0x20\n      add\n      0x00\n      keccak256\n      sload\n        /* \"Contract Conqueror/swaptoken/swap.sol\":4011:4088  stakedBalance[account] * (rewardPerToken() - userRewardPerTokenPaid[account]) */\n      tag_147\n      swap2\n      swap1\n      tag_148\n      jump\t// in\n    tag_147:\n        /* \"Contract Conqueror/swaptoken/swap.sol\":4010:4096  (stakedBalance[account] * (rewardPerToken() - userRewardPerTokenPaid[account])) / 1e18 */\n      tag_149\n      swap2\n      swap1\n      tag_150\n      jump\t// in\n    tag_149:\n        /* \"Contract Conqueror/swaptoken/swap.sol\":4009:4130  ((stakedBalance[account] * (rewardPerToken() - userRewardPerTokenPaid[account])) / 1e18) + ... */\n      tag_151\n      swap2\n      swap1\n      tag_152\n      jump\t// in\n    tag_151:\n        /* \"Contract Conqueror/swaptoken/swap.sol\":4002:4130  return ((stakedBalance[account] * (rewardPerToken() - userRewardPerTokenPaid[account])) / 1e18) + ... */\n      swap1\n      pop\n        /* \"Contract Conqueror/swaptoken/swap.sol\":3928:4138  function earned(address account) public view returns (uint256) {... */\n      swap2\n      swap1\n      pop\n      jump\t// out\n        /* \"Contract Conqueror/swaptoken/swap.sol\":1401:1443  mapping(address => uint256) public rewards */\n    tag_49:\n      mstore(0x20, 0x0c)\n      dup1\n      0x00\n      mstore\n      keccak256(0x00, 0x40)\n      0x00\n      swap2\n      pop\n      swap1\n      pop\n      sload\n      dup2\n      jump\t// out\n        /* \"Contract Conqueror/swaptoken/swap.sol\":9293:9599  function getSwapQuote(address user) external view returns (uint256) {... */\n    tag_53:\n        /* \"Contract Conqueror/swaptoken/swap.sol\":9352:9359  uint256 */\n      0x00\n        /* \"Contract Conqueror/swaptoken/swap.sol\":9398:9399  0 */\n      0x00\n        /* \"Contract Conqueror/swaptoken/swap.sol\":9376:9400  simpleSwap == address(0) */\n      0xffffffffffffffffffffffffffffffffffffffff\n      and\n        /* \"Contract Conqueror/swaptoken/swap.sol\":9376:9386  simpleSwap */\n      0x03\n      0x00\n      swap1\n      sload\n      swap1\n      0x0100\n      exp\n      swap1\n      div\n      0xffffffffffffffffffffffffffffffffffffffff\n      and\n        /* \"Contract Conqueror/swaptoken/swap.sol\":9376:9400  simpleSwap == address(0) */\n      0xffffffffffffffffffffffffffffffffffffffff\n      and\n      sub\n        /* \"Contract Conqueror/swaptoken/swap.sol\":9372:9410  if (simpleSwap == address(0)) return 0 */\n      tag_154\n      jumpi\n        /* \"Contract Conqueror/swaptoken/swap.sol\":9409:9410  0 */\n      0x00\n        /* \"Contract Conqueror/swaptoken/swap.sol\":9402:9410  return 0 */\n      swap1\n      pop\n      jump(tag_153)\n        /* \"Contract Conqueror/swaptoken/swap.sol\":9372:9410  if (simpleSwap == address(0)) return 0 */\n    tag_154:\n        /* \"Contract Conqueror/swaptoken/swap.sol\":9431:9445  uint256 reward */\n      0x00\n        /* \"Contract Conqueror/swaptoken/swap.sol\":9448:9460  earned(user) */\n      tag_155\n        /* \"Contract Conqueror/swaptoken/swap.sol\":9455:9459  user */\n      dup4\n        /* \"Contract Conqueror/swaptoken/swap.sol\":9448:9454  earned */\n      tag_44\n        /* \"Contract Conqueror/swaptoken/swap.sol\":9448:9460  earned(user) */\n      jump\t// in\n    tag_155:\n        /* \"Contract Conqueror/swaptoken/swap.sol\":9431:9460  uint256 reward = earned(user) */\n      swap1\n      pop\n        /* \"Contract Conqueror/swaptoken/swap.sol\":9485:9486  0 */\n      0x00\n        /* \"Contract Conqueror/swaptoken/swap.sol\":9475:9481  reward */\n      dup2\n        /* \"Contract Conqueror/swaptoken/swap.sol\":9475:9486  reward == 0 */\n      sub\n        /* \"Contract Conqueror/swaptoken/swap.sol\":9471:9496  if (reward == 0) return 0 */\n      tag_156\n      jumpi\n        /* \"Contract Conqueror/swaptoken/swap.sol\":9495:9496  0 */\n      0x00\n        /* \"Contract Conqueror/swaptoken/swap.sol\":9488:9496  return 0 */\n      swap2\n      pop\n      pop\n      jump(tag_153)\n        /* \"Contract Conqueror/swaptoken/swap.sol\":9471:9496  if (reward == 0) return 0 */\n    tag_156:\n        /* \"Contract Conqueror/swaptoken/swap.sol\":9536:9546  simpleSwap */\n      0x03\n      0x00\n      swap1\n      sload\n      swap1\n      0x0100\n      exp\n      swap1\n      div\n      0xffffffffffffffffffffffffffffffffffffffff\n      and\n        /* \"Contract Conqueror/swaptoken/swap.sol\":9524:9556  ISimpleSwap(simpleSwap).getQuote */\n      0xffffffffffffffffffffffffffffffffffffffff\n      and\n      0xc515ee23\n        /* \"Contract Conqueror/swaptoken/swap.sol\":9557:9568  rewardToken */\n      0x02\n      0x00\n      swap1\n      sload\n      swap1\n      0x0100\n      exp\n      swap1\n      div\n      0xffffffffffffffffffffffffffffffffffffffff\n      and\n        /* \"Contract Conqueror/swaptoken/swap.sol\":9570:9582  stakingToken */\n      0x01\n      0x00\n      swap1\n      sload\n      swap1\n      0x0100\n      exp\n      swap1\n      div\n      0xffffffffffffffffffffffffffffffffffffffff\n      and\n        /* \"Contract Conqueror/swaptoken/swap.sol\":9584:9590  reward */\n      dup5\n        /* \"Contract Conqueror/swaptoken/swap.sol\":9524:9591  ISimpleSwap(simpleSwap).getQuote(rewardToken, stakingToken, reward) */\n      mload(0x40)\n      dup5\n      0xffffffff\n      and\n      0xe0\n      shl\n      dup2\n      mstore\n      0x04\n      add\n      tag_157\n      swap4\n      swap3\n      swap2\n      swap1\n      tag_158\n      jump\t// in\n    tag_157:\n      0x20\n      mload(0x40)\n      dup1\n      dup4\n      sub\n      dup2\n      dup7\n      gas\n      staticcall\n      iszero\n      dup1\n      iszero\n      tag_160\n      jumpi\n      returndatacopy(0x00, 0x00, returndatasize)\n      revert(0x00, returndatasize)\n    tag_160:\n      pop\n      pop\n      pop\n      pop\n      mload(0x40)\n      returndatasize\n      not(0x1f)\n      0x1f\n      dup3\n      add\n      and\n      dup3\n      add\n      dup1\n      0x40\n      mstore\n      pop\n      dup2\n      add\n      swap1\n      tag_161\n      swap2\n      swap1\n      tag_162\n      jump\t// in\n    tag_161:\n        /* \"Contract Conqueror/swaptoken/swap.sol\":9517:9591  return ISimpleSwap(simpleSwap).getQuote(rewardToken, stakingToken, reward) */\n      swap2\n      pop\n      pop\n        /* \"Contract Conqueror/swaptoken/swap.sol\":9293:9599  function getSwapQuote(address user) external view returns (uint256) {... */\n    tag_153:\n      swap2\n      swap1\n      pop\n      jump\t// out\n        /* \"Contract Conqueror/swaptoken/swap.sol\":4205:4323  function getRewardForDuration() external view returns (uint256) {... */\n    tag_56:\n        /* \"Contract Conqueror/swaptoken/swap.sol\":4260:4267  uint256 */\n      0x00\n        /* \"Contract Conqueror/swaptoken/swap.sol\":4300:4315  rewardsDuration */\n      sload(0x08)\n        /* \"Contract Conqueror/swaptoken/swap.sol\":4287:4297  rewardRate */\n      sload(0x04)\n        /* \"Contract Conqueror/swaptoken/swap.sol\":4287:4315  rewardRate * rewardsDuration */\n      tag_164\n      swap2\n      swap1\n      tag_148\n      jump\t// in\n    tag_164:\n        /* \"Contract Conqueror/swaptoken/swap.sol\":4280:4315  return rewardRate * rewardsDuration */\n      swap1\n      pop\n        /* \"Contract Conqueror/swaptoken/swap.sol\":4205:4323  function getRewardForDuration() external view returns (uint256) {... */\n      swap1\n      jump\t// out\n        /* \"Contract Conqueror/swaptoken/swap.sol\":9059:9165  function setSimpleSwap(address _simpleSwap) external onlyOwner {... */\n    tag_60:\n        /* \"Contract Conqueror/swaptoken/swap.sol\":2178:2183  owner */\n      0x00\n      0x00\n      swap1\n      sload\n      swap1\n      0x0100\n      exp\n      swap1\n      div\n      0xffffffffffffffffffffffffffffffffffffffff\n      and\n        /* \"Contract Conqueror/swaptoken/swap.sol\":2164:2183  msg.sender != owner */\n      0xffffffffffffffffffffffffffffffffffffffff\n      and\n        /* \"Contract Conqueror/swaptoken/swap.sol\":2164:2174  msg.sender */\n      caller\n        /* \"Contract Conqueror/swaptoken/swap.sol\":2164:2183  msg.sender != owner */\n      0xffffffffffffffffffffffffffffffffffffffff\n      and\n      eq\n        /* \"Contract Conqueror/swaptoken/swap.sol\":2160:2206  if (msg.sender != owner) revert Unauthorized() */\n      tag_166\n      jumpi\n        /* \"Contract Conqueror/swaptoken/swap.sol\":2192:2206  Unauthorized() */\n      mload(0x40)\n      0x82b4290000000000000000000000000000000000000000000000000000000000\n      dup2\n      mstore\n      0x04\n      add\n      mload(0x40)\n      dup1\n      swap2\n      sub\n      swap1\n      revert\n        /* \"Contract Conqueror/swaptoken/swap.sol\":2160:2206  if (msg.sender != owner) revert Unauthorized() */\n    tag_166:\n        /* \"Contract Conqueror/swaptoken/swap.sol\":9146:9157  _simpleSwap */\n      dup1\n        /* \"Contract Conqueror/swaptoken/swap.sol\":9133:9143  simpleSwap */\n      0x03\n      0x00\n        /* \"Contract Conqueror/swaptoken/swap.sol\":9133:9157  simpleSwap = _simpleSwap */\n      0x0100\n      exp\n      dup2\n      sload\n      dup2\n      0xffffffffffffffffffffffffffffffffffffffff\n      mul\n      not\n      and\n      swap1\n      dup4\n      0xffffffffffffffffffffffffffffffffffffffff\n      and\n      mul\n      or\n      swap1\n      sstore\n      pop\n        /* \"Contract Conqueror/swaptoken/swap.sol\":9059:9165  function setSimpleSwap(address _simpleSwap) external onlyOwner {... */\n      pop\n      jump\t// out\n        /* \"Contract Conqueror/swaptoken/swap.sol\":7311:7426  function exitAndSwap() external {... */\n    tag_62:\n        /* \"Contract Conqueror/swaptoken/swap.sol\":7354:7389  withdraw(stakedBalance[msg.sender]) */\n      tag_169\n        /* \"Contract Conqueror/swaptoken/swap.sol\":7363:7376  stakedBalance */\n      0x0a\n        /* \"Contract Conqueror/swaptoken/swap.sol\":7363:7388  stakedBalance[msg.sender] */\n      0x00\n        /* \"Contract Conqueror/swaptoken/swap.sol\":7377:7387  msg.sender */\n      caller\n        /* \"Contract Conqueror/swaptoken/swap.sol\":7363:7388  stakedBalance[msg.sender] */\n      0xffffffffffffffffffffffffffffffffffffffff\n      and\n      0xffffffffffffffffffffffffffffffffffffffff\n      and\n      dup2\n      mstore\n      0x20\n      add\n      swap1\n      dup2\n      mstore\n      0x20\n      add\n      0x00\n      keccak256\n      sload\n        /* \"Contract Conqueror/swaptoken/swap.sol\":7354:7362  withdraw */\n      tag_66\n        /* \"Contract Conqueror/swaptoken/swap.sol\":7354:7389  withdraw(stakedBalance[msg.sender]) */\n      jump\t// in\n    tag_169:\n        /* \"Contract Conqueror/swaptoken/swap.sol\":7400:7418  getRewardAndSwap() */\n      tag_170\n        /* \"Contract Conqueror/swaptoken/swap.sol\":7400:7416  getRewardAndSwap */\n      tag_142\n        /* \"Contract Conqueror/swaptoken/swap.sol\":7400:7418  getRewardAndSwap() */\n      jump\t// in\n    tag_170:\n        /* \"Contract Conqueror/swaptoken/swap.sol\":7311:7426  function exitAndSwap() external {... */\n      jump\t// out\n        /* \"Contract Conqueror/swaptoken/swap.sol\":5208:5686  function withdraw(uint256 amount) ... */\n    tag_66:\n        /* \"Contract Conqueror/swaptoken/swap.sol\":5281:5287  amount */\n      dup1\n        /* \"Contract Conqueror/swaptoken/swap.sol\":2430:2431  0 */\n      0x00\n        /* \"Contract Conqueror/swaptoken/swap.sol\":2419:2426  _amount */\n      dup2\n        /* \"Contract Conqueror/swaptoken/swap.sol\":2419:2431  _amount == 0 */\n      sub\n        /* \"Contract Conqueror/swaptoken/swap.sol\":2415:2455  if (_amount == 0) revert InvalidAmount() */\n      tag_172\n      jumpi\n        /* \"Contract Conqueror/swaptoken/swap.sol\":2440:2455  InvalidAmount() */\n      mload(0x40)\n      0x2c5211c600000000000000000000000000000000000000000000000000000000\n      dup2\n      mstore\n      0x04\n      add\n      mload(0x40)\n      dup1\n      swap2\n      sub\n      swap1\n      revert\n        /* \"Contract Conqueror/swaptoken/swap.sol\":2415:2455  if (_amount == 0) revert InvalidAmount() */\n    tag_172:\n        /* \"Contract Conqueror/swaptoken/swap.sol\":5312:5322  msg.sender */\n      caller\n        /* \"Contract Conqueror/swaptoken/swap.sol\":2560:2576  rewardPerToken() */\n      tag_174\n        /* \"Contract Conqueror/swaptoken/swap.sol\":2560:2574  rewardPerToken */\n      tag_125\n        /* \"Contract Conqueror/swaptoken/swap.sol\":2560:2576  rewardPerToken() */\n      jump\t// in\n    tag_174:\n        /* \"Contract Conqueror/swaptoken/swap.sol\":2537:2557  rewardPerTokenStored */\n      0x06\n        /* \"Contract Conqueror/swaptoken/swap.sol\":2537:2576  rewardPerTokenStored = rewardPerToken() */\n      dup2\n      swap1\n      sstore\n      pop\n        /* \"Contract Conqueror/swaptoken/swap.sol\":2604:2630  lastTimeRewardApplicable() */\n      tag_175\n        /* \"Contract Conqueror/swaptoken/swap.sol\":2604:2628  lastTimeRewardApplicable */\n      tag_96\n        /* \"Contract Conqueror/swaptoken/swap.sol\":2604:2630  lastTimeRewardApplicable() */\n      jump\t// in\n    tag_175:\n        /* \"Contract Conqueror/swaptoken/swap.sol\":2587:2601  lastUpdateTime */\n      0x05\n        /* \"Contract Conqueror/swaptoken/swap.sol\":2587:2630  lastUpdateTime = lastTimeRewardApplicable() */\n      dup2\n      swap1\n      sstore\n      pop\n        /* \"Contract Conqueror/swaptoken/swap.sol\":2674:2675  0 */\n      0x00\n        /* \"Contract Conqueror/swaptoken/swap.sol\":2655:2676  account != address(0) */\n      0xffffffffffffffffffffffffffffffffffffffff\n      and\n        /* \"Contract Conqueror/swaptoken/swap.sol\":2655:2662  account */\n      dup2\n        /* \"Contract Conqueror/swaptoken/swap.sol\":2655:2676  account != address(0) */\n      0xffffffffffffffffffffffffffffffffffffffff\n      and\n      eq\n        /* \"Contract Conqueror/swaptoken/swap.sol\":2651:2808  if (account != address(0)) {... */\n      tag_176\n      jumpi\n        /* \"Contract Conqueror/swaptoken/swap.sol\":2712:2727  earned(account) */\n      tag_177\n        /* \"Contract Conqueror/swaptoken/swap.sol\":2719:2726  account */\n      dup2\n        /* \"Contract Conqueror/swaptoken/swap.sol\":2712:2718  earned */\n      tag_44\n        /* \"Contract Conqueror/swaptoken/swap.sol\":2712:2727  earned(account) */\n      jump\t// in\n    tag_177:\n        /* \"Contract Conqueror/swaptoken/swap.sol\":2693:2700  rewards */\n      0x0c\n        /* \"Contract Conqueror/swaptoken/swap.sol\":2693:2709  rewards[account] */\n      0x00\n        /* \"Contract Conqueror/swaptoken/swap.sol\":2701:2708  account */\n      dup4\n        /* \"Contract Conqueror/swaptoken/swap.sol\":2693:2709  rewards[account] */\n      0xffffffffffffffffffffffffffffffffffffffff\n      and\n      0xffffffffffffffffffffffffffffffffffffffff\n      and\n      dup2\n      mstore\n      0x20\n      add\n      swap1\n      dup2\n      mstore\n      0x20\n      add\n      0x00\n      keccak256\n        /* \"Contract Conqueror/swaptoken/swap.sol\":2693:2727  rewards[account] = earned(account) */\n      dup2\n      swap1\n      sstore\n      pop\n        /* \"Contract Conqueror/swaptoken/swap.sol\":2776:2796  rewardPerTokenStored */\n      sload(0x06)\n        /* \"Contract Conqueror/swaptoken/swap.sol\":2742:2764  userRewardPerTokenPaid */\n      0x0b\n        /* \"Contract Conqueror/swaptoken/swap.sol\":2742:2773  userRewardPerTokenPaid[account] */\n      0x00\n        /* \"Contract Conqueror/swaptoken/swap.sol\":2765:2772  account */\n      dup4\n        /* \"Contract Conqueror/swaptoken/swap.sol\":2742:2773  userRewardPerTokenPaid[account] */\n      0xffffffffffffffffffffffffffffffffffffffff\n      and\n      0xffffffffffffffffffffffffffffffffffffffff\n      and\n      dup2\n      mstore\n      0x20\n      add\n      swap1\n      dup2\n      mstore\n      0x20\n      add\n      0x00\n      keccak256\n        /* \"Contract Conqueror/swaptoken/swap.sol\":2742:2796  userRewardPerTokenPaid[account] = rewardPerTokenStored */\n      dup2\n      swap1\n      sstore\n      pop\n        /* \"Contract Conqueror/swaptoken/swap.sol\":2651:2808  if (account != address(0)) {... */\n    tag_176:\n        /* \"Contract Conqueror/swaptoken/swap.sol\":5373:5379  amount */\n      dup3\n        /* \"Contract Conqueror/swaptoken/swap.sol\":5345:5358  stakedBalance */\n      0x0a\n        /* \"Contract Conqueror/swaptoken/swap.sol\":5345:5370  stakedBalance[msg.sender] */\n      0x00\n        /* \"Contract Conqueror/swaptoken/swap.sol\":5359:5369  msg.sender */\n      caller\n        /* \"Contract Conqueror/swaptoken/swap.sol\":5345:5370  stakedBalance[msg.sender] */\n      0xffffffffffffffffffffffffffffffffffffffff\n      and\n      0xffffffffffffffffffffffffffffffffffffffff\n      and\n      dup2\n      mstore\n      0x20\n      add\n      swap1\n      dup2\n      mstore\n      0x20\n      add\n      0x00\n      keccak256\n      sload\n        /* \"Contract Conqueror/swaptoken/swap.sol\":5345:5379  stakedBalance[msg.sender] < amount */\n      lt\n        /* \"Contract Conqueror/swaptoken/swap.sol\":5341:5409  if (stakedBalance[msg.sender] < amount) revert InsufficientBalance() */\n      iszero\n      tag_179\n      jumpi\n        /* \"Contract Conqueror/swaptoken/swap.sol\":5388:5409  InsufficientBalance() */\n      mload(0x40)\n      0xf4d678b800000000000000000000000000000000000000000000000000000000\n      dup2\n      mstore\n      0x04\n      add\n      mload(0x40)\n      dup1\n      swap2\n      sub\n      swap1\n      revert\n        /* \"Contract Conqueror/swaptoken/swap.sol\":5341:5409  if (stakedBalance[msg.sender] < amount) revert InsufficientBalance() */\n    tag_179:\n        /* \"Contract Conqueror/swaptoken/swap.sol\":5445:5451  amount */\n      dup3\n        /* \"Contract Conqueror/swaptoken/swap.sol\":5430:5441  totalStaked */\n      0x07\n      0x00\n        /* \"Contract Conqueror/swaptoken/swap.sol\":5430:5451  totalStaked -= amount */\n      dup3\n      dup3\n      sload\n      tag_180\n      swap2\n      swap1\n      tag_146\n      jump\t// in\n    tag_180:\n      swap3\n      pop\n      pop\n      dup2\n      swap1\n      sstore\n      pop\n        /* \"Contract Conqueror/swaptoken/swap.sol\":5491:5497  amount */\n      dup3\n        /* \"Contract Conqueror/swaptoken/swap.sol\":5462:5475  stakedBalance */\n      0x0a\n        /* \"Contract Conqueror/swaptoken/swap.sol\":5462:5487  stakedBalance[msg.sender] */\n      0x00\n        /* \"Contract Conqueror/swaptoken/swap.sol\":5476:5486  msg.sender */\n      caller\n        /* \"Contract Conqueror/swaptoken/swap.sol\":5462:5487  stakedBalance[msg.sender] */\n      0xffffffffffffffffffffffffffffffffffffffff\n      and\n      0xffffffffffffffffffffffffffffffffffffffff\n      and\n      dup2\n      mstore\n      0x20\n      add\n      swap1\n      dup2\n      mstore\n      0x20\n      add\n      0x00\n      keccak256\n      0x00\n        /* \"Contract Conqueror/swaptoken/swap.sol\":5462:5497  stakedBalance[msg.sender] -= amount */\n      dup3\n      dup3\n      sload\n      tag_181\n      swap2\n      swap1\n      tag_146\n      jump\t// in\n    tag_181:\n      swap3\n      pop\n      pop\n      dup2\n      swap1\n      sstore\n      pop\n        /* \"Contract Conqueror/swaptoken/swap.sol\":5530:5542  stakingToken */\n      0x01\n      0x00\n      swap1\n      sload\n      swap1\n      0x0100\n      exp\n      swap1\n      div\n      0xffffffffffffffffffffffffffffffffffffffff\n      and\n        /* \"Contract Conqueror/swaptoken/swap.sol\":5523:5552  IERC20(stakingToken).transfer */\n      0xffffffffffffffffffffffffffffffffffffffff\n      and\n      0xa9059cbb\n        /* \"Contract Conqueror/swaptoken/swap.sol\":5553:5563  msg.sender */\n      caller\n        /* \"Contract Conqueror/swaptoken/swap.sol\":5565:5571  amount */\n      dup6\n        /* \"Contract Conqueror/swaptoken/swap.sol\":5523:5572  IERC20(stakingToken).transfer(msg.sender, amount) */\n      mload(0x40)\n      dup4\n      0xffffffff\n      and\n      0xe0\n      shl\n      dup2\n      mstore\n      0x04\n      add\n      tag_182\n      swap3\n      swap2\n      swap1\n      tag_183\n      jump\t// in\n    tag_182:\n      0x20\n      mload(0x40)\n      dup1\n      dup4\n      sub\n      dup2\n      0x00\n      dup8\n      gas\n      call\n      iszero\n      dup1\n      iszero\n      tag_185\n      jumpi\n      returndatacopy(0x00, 0x00, returndatasize)\n      revert(0x00, returndatasize)\n    tag_185:\n      pop\n      pop\n      pop\n      pop\n      mload(0x40)\n      returndatasize\n      not(0x1f)\n      0x1f\n      dup3\n      add\n      and\n      dup3\n      add\n      dup1\n      0x40\n      mstore\n      pop\n      dup2\n      add\n      swap1\n      tag_186\n      swap2\n      swap1\n      tag_187\n      jump\t// in\n    tag_186:\n        /* \"Contract Conqueror/swaptoken/swap.sol\":5518:5624  if (!IERC20(stakingToken).transfer(msg.sender, amount)) {... */\n      tag_188\n      jumpi\n        /* \"Contract Conqueror/swaptoken/swap.sol\":5596:5612  TransferFailed() */\n      mload(0x40)\n      0x90b8ec1800000000000000000000000000000000000000000000000000000000\n      dup2\n      mstore\n      0x04\n      add\n      mload(0x40)\n      dup1\n      swap2\n      sub\n      swap1\n      revert\n        /* \"Contract Conqueror/swaptoken/swap.sol\":5518:5624  if (!IERC20(stakingToken).transfer(msg.sender, amount)) {... */\n    tag_188:\n        /* \"Contract Conqueror/swaptoken/swap.sol\":5659:5669  msg.sender */\n      caller\n        /* \"Contract Conqueror/swaptoken/swap.sol\":5649:5678  Withdrawn(msg.sender, amount) */\n      0xffffffffffffffffffffffffffffffffffffffff\n      and\n      0x7084f5476618d8e60b11ef0d7d3f06914655adb8793e28ff7f018d4c76d505d5\n        /* \"Contract Conqueror/swaptoken/swap.sol\":5671:5677  amount */\n      dup5\n        /* \"Contract Conqueror/swaptoken/swap.sol\":5649:5678  Withdrawn(msg.sender, amount) */\n      mload(0x40)\n      tag_189\n      swap2\n      swap1\n      tag_46\n      jump\t// in\n    tag_189:\n      mload(0x40)\n      dup1\n      swap2\n      sub\n      swap1\n      log2\n        /* \"Contract Conqueror/swaptoken/swap.sol\":2466:2467  _ */\n      pop\n        /* \"Contract Conqueror/swaptoken/swap.sol\":5208:5686  function withdraw(uint256 amount) ... */\n      pop\n      pop\n      jump\t// out\n        /* \"Contract Conqueror/swaptoken/swap.sol\":1156:1195  uint256 public rewardsDuration = 7 days */\n    tag_68:\n      sload(0x08)\n      dup2\n      jump\t// out\n        /* \"Contract Conqueror/swaptoken/swap.sol\":7559:8449  function notifyRewardAmount(uint256 reward) ... */\n    tag_72:\n        /* \"Contract Conqueror/swaptoken/swap.sol\":2178:2183  owner */\n      0x00\n      0x00\n      swap1\n      sload\n      swap1\n      0x0100\n      exp\n      swap1\n      div\n      0xffffffffffffffffffffffffffffffffffffffff\n      and\n        /* \"Contract Conqueror/swaptoken/swap.sol\":2164:2183  msg.sender != owner */\n      0xffffffffffffffffffffffffffffffffffffffff\n      and\n        /* \"Contract Conqueror/swaptoken/swap.sol\":2164:2174  msg.sender */\n      caller\n        /* \"Contract Conqueror/swaptoken/swap.sol\":2164:2183  msg.sender != owner */\n      0xffffffffffffffffffffffffffffffffffffffff\n      and\n      eq\n        /* \"Contract Conqueror/swaptoken/swap.sol\":2160:2206  if (msg.sender != owner) revert Unauthorized() */\n      tag_191\n      jumpi\n        /* \"Contract Conqueror/swaptoken/swap.sol\":2192:2206  Unauthorized() */\n      mload(0x40)\n      0x82b4290000000000000000000000000000000000000000000000000000000000\n      dup2\n      mstore\n      0x04\n      add\n      mload(0x40)\n      dup1\n      swap2\n      sub\n      swap1\n      revert\n        /* \"Contract Conqueror/swaptoken/swap.sol\":2160:2206  if (msg.sender != owner) revert Unauthorized() */\n    tag_191:\n        /* \"Contract Conqueror/swaptoken/swap.sol\":7664:7670  reward */\n      dup1\n        /* \"Contract Conqueror/swaptoken/swap.sol\":2430:2431  0 */\n      0x00\n        /* \"Contract Conqueror/swaptoken/swap.sol\":2419:2426  _amount */\n      dup2\n        /* \"Contract Conqueror/swaptoken/swap.sol\":2419:2431  _amount == 0 */\n      sub\n        /* \"Contract Conqueror/swaptoken/swap.sol\":2415:2455  if (_amount == 0) revert InvalidAmount() */\n      tag_193\n      jumpi\n        /* \"Contract Conqueror/swaptoken/swap.sol\":2440:2455  InvalidAmount() */\n      mload(0x40)\n      0x2c5211c600000000000000000000000000000000000000000000000000000000\n      dup2\n      mstore\n      0x04\n      add\n      mload(0x40)\n      dup1\n      swap2\n      sub\n      swap1\n      revert\n        /* \"Contract Conqueror/swaptoken/swap.sol\":2415:2455  if (_amount == 0) revert InvalidAmount() */\n    tag_193:\n        /* \"Contract Conqueror/swaptoken/swap.sol\":7702:7703  0 */\n      0x00\n        /* \"Contract Conqueror/swaptoken/swap.sol\":2560:2576  rewardPerToken() */\n      tag_195\n        /* \"Contract Conqueror/swaptoken/swap.sol\":2560:2574  rewardPerToken */\n      tag_125\n        /* \"Contract Conqueror/swaptoken/swap.sol\":2560:2576  rewardPerToken() */\n      jump\t// in\n    tag_195:\n        /* \"Contract Conqueror/swaptoken/swap.sol\":2537:2557  rewardPerTokenStored */\n      0x06\n        /* \"Contract Conqueror/swaptoken/swap.sol\":2537:2576  rewardPerTokenStored = rewardPerToken() */\n      dup2\n      swap1\n      sstore\n      pop\n        /* \"Contract Conqueror/swaptoken/swap.sol\":2604:2630  lastTimeRewardApplicable() */\n      tag_196\n        /* \"Contract Conqueror/swaptoken/swap.sol\":2604:2628  lastTimeRewardApplicable */\n      tag_96\n        /* \"Contract Conqueror/swaptoken/swap.sol\":2604:2630  lastTimeRewardApplicable() */\n      jump\t// in\n    tag_196:\n        /* \"Contract Conqueror/swaptoken/swap.sol\":2587:2601  lastUpdateTime */\n      0x05\n        /* \"Contract Conqueror/swaptoken/swap.sol\":2587:2630  lastUpdateTime = lastTimeRewardApplicable() */\n      dup2\n      swap1\n      sstore\n      pop\n        /* \"Contract Conqueror/swaptoken/swap.sol\":2674:2675  0 */\n      0x00\n        /* \"Contract Conqueror/swaptoken/swap.sol\":2655:2676  account != address(0) */\n      0xffffffffffffffffffffffffffffffffffffffff\n      and\n        /* \"Contract Conqueror/swaptoken/swap.sol\":2655:2662  account */\n      dup2\n        /* \"Contract Conqueror/swaptoken/swap.sol\":2655:2676  account != address(0) */\n      0xffffffffffffffffffffffffffffffffffffffff\n      and\n      eq\n        /* \"Contract Conqueror/swaptoken/swap.sol\":2651:2808  if (account != address(0)) {... */\n      tag_197\n      jumpi\n        /* \"Contract Conqueror/swaptoken/swap.sol\":2712:2727  earned(account) */\n      tag_198\n        /* \"Contract Conqueror/swaptoken/swap.sol\":2719:2726  account */\n      dup2\n        /* \"Contract Conqueror/swaptoken/swap.sol\":2712:2718  earned */\n      tag_44\n        /* \"Contract Conqueror/swaptoken/swap.sol\":2712:2727  earned(account) */\n      jump\t// in\n    tag_198:\n        /* \"Contract Conqueror/swaptoken/swap.sol\":2693:2700  rewards */\n      0x0c\n        /* \"Contract Conqueror/swaptoken/swap.sol\":2693:2709  rewards[account] */\n      0x00\n        /* \"Contract Conqueror/swaptoken/swap.sol\":2701:2708  account */\n      dup4\n        /* \"Contract Conqueror/swaptoken/swap.sol\":2693:2709  rewards[account] */\n      0xffffffffffffffffffffffffffffffffffffffff\n      and\n      0xffffffffffffffffffffffffffffffffffffffff\n      and\n      dup2\n      mstore\n      0x20\n      add\n      swap1\n      dup2\n      mstore\n      0x20\n      add\n      0x00\n      keccak256\n        /* \"Contract Conqueror/swaptoken/swap.sol\":2693:2727  rewards[account] = earned(account) */\n      dup2\n      swap1\n      sstore\n      pop\n        /* \"Contract Conqueror/swaptoken/swap.sol\":2776:2796  rewardPerTokenStored */\n      sload(0x06)\n        /* \"Contract Conqueror/swaptoken/swap.sol\":2742:2764  userRewardPerTokenPaid */\n      0x0b\n        /* \"Contract Conqueror/swaptoken/swap.sol\":2742:2773  userRewardPerTokenPaid[account] */\n      0x00\n        /* \"Contract Conqueror/swaptoken/swap.sol\":2765:2772  account */\n      dup4\n        /* \"Contract Conqueror/swaptoken/swap.sol\":2742:2773  userRewardPerTokenPaid[account] */\n      0xffffffffffffffffffffffffffffffffffffffff\n      and\n      0xffffffffffffffffffffffffffffffffffffffff\n      and\n      dup2\n      mstore\n      0x20\n      add\n      swap1\n      dup2\n      mstore\n      0x20\n      add\n      0x00\n      keccak256\n        /* \"Contract Conqueror/swaptoken/swap.sol\":2742:2796  userRewardPerTokenPaid[account] = rewardPerTokenStored */\n      dup2\n      swap1\n      sstore\n      pop\n        /* \"Contract Conqueror/swaptoken/swap.sol\":2651:2808  if (account != address(0)) {... */\n    tag_197:\n        /* \"Contract Conqueror/swaptoken/swap.sol\":7746:7758  periodFinish */\n      sload(0x09)\n        /* \"Contract Conqueror/swaptoken/swap.sol\":7727:7742  block.timestamp */\n      timestamp\n        /* \"Contract Conqueror/swaptoken/swap.sol\":7727:7758  block.timestamp >= periodFinish */\n      lt\n        /* \"Contract Conqueror/swaptoken/swap.sol\":7723:8028  if (block.timestamp >= periodFinish) {... */\n      tag_200\n      jumpi\n        /* \"Contract Conqueror/swaptoken/swap.sol\":7797:7812  rewardsDuration */\n      sload(0x08)\n        /* \"Contract Conqueror/swaptoken/swap.sol\":7788:7794  reward */\n      dup4\n        /* \"Contract Conqueror/swaptoken/swap.sol\":7788:7812  reward / rewardsDuration */\n      tag_201\n      swap2\n      swap1\n      tag_150\n      jump\t// in\n    tag_201:\n        /* \"Contract Conqueror/swaptoken/swap.sol\":7775:7785  rewardRate */\n      0x04\n        /* \"Contract Conqueror/swaptoken/swap.sol\":7775:7812  rewardRate = reward / rewardsDuration */\n      dup2\n      swap1\n      sstore\n      pop\n        /* \"Contract Conqueror/swaptoken/swap.sol\":7723:8028  if (block.timestamp >= periodFinish) {... */\n      jump(tag_202)\n    tag_200:\n        /* \"Contract Conqueror/swaptoken/swap.sol\":7845:7862  uint256 remaining */\n      0x00\n        /* \"Contract Conqueror/swaptoken/swap.sol\":7880:7895  block.timestamp */\n      timestamp\n        /* \"Contract Conqueror/swaptoken/swap.sol\":7865:7877  periodFinish */\n      sload(0x09)\n        /* \"Contract Conqueror/swaptoken/swap.sol\":7865:7895  periodFinish - block.timestamp */\n      tag_203\n      swap2\n      swap1\n      tag_146\n      jump\t// in\n    tag_203:\n        /* \"Contract Conqueror/swaptoken/swap.sol\":7845:7895  uint256 remaining = periodFinish - block.timestamp */\n      swap1\n      pop\n        /* \"Contract Conqueror/swaptoken/swap.sol\":7910:7926  uint256 leftover */\n      0x00\n        /* \"Contract Conqueror/swaptoken/swap.sol\":7941:7951  rewardRate */\n      sload(0x04)\n        /* \"Contract Conqueror/swaptoken/swap.sol\":7929:7938  remaining */\n      dup3\n        /* \"Contract Conqueror/swaptoken/swap.sol\":7929:7951  remaining * rewardRate */\n      tag_204\n      swap2\n      swap1\n      tag_148\n      jump\t// in\n    tag_204:\n        /* \"Contract Conqueror/swaptoken/swap.sol\":7910:7951  uint256 leftover = remaining * rewardRate */\n      swap1\n      pop\n        /* \"Contract Conqueror/swaptoken/swap.sol\":8001:8016  rewardsDuration */\n      sload(0x08)\n        /* \"Contract Conqueror/swaptoken/swap.sol\":7989:7997  leftover */\n      dup2\n        /* \"Contract Conqueror/swaptoken/swap.sol\":7980:7986  reward */\n      dup7\n        /* \"Contract Conqueror/swaptoken/swap.sol\":7980:7997  reward + leftover */\n      tag_205\n      swap2\n      swap1\n      tag_152\n      jump\t// in\n    tag_205:\n        /* \"Contract Conqueror/swaptoken/swap.sol\":7979:8016  (reward + leftover) / rewardsDuration */\n      tag_206\n      swap2\n      swap1\n      tag_150\n      jump\t// in\n    tag_206:\n        /* \"Contract Conqueror/swaptoken/swap.sol\":7966:7976  rewardRate */\n      0x04\n        /* \"Contract Conqueror/swaptoken/swap.sol\":7966:8016  rewardRate = (reward + leftover) / rewardsDuration */\n      dup2\n      swap1\n      sstore\n      pop\n        /* \"Contract Conqueror/swaptoken/swap.sol\":7830:8028  {... */\n      pop\n      pop\n        /* \"Contract Conqueror/swaptoken/swap.sol\":7723:8028  if (block.timestamp >= periodFinish) {... */\n    tag_202:\n        /* \"Contract Conqueror/swaptoken/swap.sol\":8139:8154  uint256 balance */\n      0x00\n        /* \"Contract Conqueror/swaptoken/swap.sol\":8164:8175  rewardToken */\n      0x02\n      0x00\n      swap1\n      sload\n      swap1\n      0x0100\n      exp\n      swap1\n      div\n      0xffffffffffffffffffffffffffffffffffffffff\n      and\n        /* \"Contract Conqueror/swaptoken/swap.sol\":8157:8186  IERC20(rewardToken).balanceOf */\n      0xffffffffffffffffffffffffffffffffffffffff\n      and\n      0x70a08231\n        /* \"Contract Conqueror/swaptoken/swap.sol\":8195:8199  this */\n      address\n        /* \"Contract Conqueror/swaptoken/swap.sol\":8157:8201  IERC20(rewardToken).balanceOf(address(this)) */\n      mload(0x40)\n      dup3\n      0xffffffff\n      and\n      0xe0\n      shl\n      dup2\n      mstore\n      0x04\n      add\n      tag_207\n      swap2\n      swap1\n      tag_91\n      jump\t// in\n    tag_207:\n      0x20\n      mload(0x40)\n      dup1\n      dup4\n      sub\n      dup2\n      dup7\n      gas\n      staticcall\n      iszero\n      dup1\n      iszero\n      tag_209\n      jumpi\n      returndatacopy(0x00, 0x00, returndatasize)\n      revert(0x00, returndatasize)\n    tag_209:\n      pop\n      pop\n      pop\n      pop\n      mload(0x40)\n      returndatasize\n      not(0x1f)\n      0x1f\n      dup3\n      add\n      and\n      dup3\n      add\n      dup1\n      0x40\n      mstore\n      pop\n      dup2\n      add\n      swap1\n      tag_210\n      swap2\n      swap1\n      tag_162\n      jump\t// in\n    tag_210:\n        /* \"Contract Conqueror/swaptoken/swap.sol\":8139:8201  uint256 balance = IERC20(rewardToken).balanceOf(address(this)) */\n      swap1\n      pop\n        /* \"Contract Conqueror/swaptoken/swap.sol\":8239:8254  rewardsDuration */\n      sload(0x08)\n        /* \"Contract Conqueror/swaptoken/swap.sol\":8229:8236  balance */\n      dup2\n        /* \"Contract Conqueror/swaptoken/swap.sol\":8229:8254  balance / rewardsDuration */\n      tag_211\n      swap2\n      swap1\n      tag_150\n      jump\t// in\n    tag_211:\n        /* \"Contract Conqueror/swaptoken/swap.sol\":8216:8226  rewardRate */\n      sload(0x04)\n        /* \"Contract Conqueror/swaptoken/swap.sol\":8216:8254  rewardRate > balance / rewardsDuration */\n      gt\n        /* \"Contract Conqueror/swaptoken/swap.sol\":8212:8284  if (rewardRate > balance / rewardsDuration) revert InsufficientBalance() */\n      iszero\n      tag_212\n      jumpi\n        /* \"Contract Conqueror/swaptoken/swap.sol\":8263:8284  InsufficientBalance() */\n      mload(0x40)\n      0xf4d678b800000000000000000000000000000000000000000000000000000000\n      dup2\n      mstore\n      0x04\n      add\n      mload(0x40)\n      dup1\n      swap2\n      sub\n      swap1\n      revert\n        /* \"Contract Conqueror/swaptoken/swap.sol\":8212:8284  if (rewardRate > balance / rewardsDuration) revert InsufficientBalance() */\n    tag_212:\n        /* \"Contract Conqueror/swaptoken/swap.sol\":8322:8337  block.timestamp */\n      timestamp\n        /* \"Contract Conqueror/swaptoken/swap.sol\":8305:8319  lastUpdateTime */\n      0x05\n        /* \"Contract Conqueror/swaptoken/swap.sol\":8305:8337  lastUpdateTime = block.timestamp */\n      dup2\n      swap1\n      sstore\n      pop\n        /* \"Contract Conqueror/swaptoken/swap.sol\":8381:8396  rewardsDuration */\n      sload(0x08)\n        /* \"Contract Conqueror/swaptoken/swap.sol\":8363:8378  block.timestamp */\n      timestamp\n        /* \"Contract Conqueror/swaptoken/swap.sol\":8363:8396  block.timestamp + rewardsDuration */\n      tag_213\n      swap2\n      swap1\n      tag_152\n      jump\t// in\n    tag_213:\n        /* \"Contract Conqueror/swaptoken/swap.sol\":8348:8360  periodFinish */\n      0x09\n        /* \"Contract Conqueror/swaptoken/swap.sol\":8348:8396  periodFinish = block.timestamp + rewardsDuration */\n      dup2\n      swap1\n      sstore\n      pop\n        /* \"Contract Conqueror/swaptoken/swap.sol\":8422:8441  RewardAdded(reward) */\n      0xde88a922e0d3b88b24e9623efeb464919c6bf9f66857a65e2bfcf2ce87a9433d\n        /* \"Contract Conqueror/swaptoken/swap.sol\":8434:8440  reward */\n      dup5\n        /* \"Contract Conqueror/swaptoken/swap.sol\":8422:8441  RewardAdded(reward) */\n      mload(0x40)\n      tag_214\n      swap2\n      swap1\n      tag_46\n      jump\t// in\n    tag_214:\n      mload(0x40)\n      dup1\n      swap2\n      sub\n      swap1\n      log1\n        /* \"Contract Conqueror/swaptoken/swap.sol\":7712:8449  {... */\n      pop\n        /* \"Contract Conqueror/swaptoken/swap.sol\":2466:2467  _ */\n      pop\n        /* \"Contract Conqueror/swaptoken/swap.sol\":2217:2218  _ */\n      pop\n        /* \"Contract Conqueror/swaptoken/swap.sol\":7559:8449  function notifyRewardAmount(uint256 reward) ... */\n      pop\n      jump\t// out\n        /* \"Contract Conqueror/swaptoken/swap.sol\":5743:6123  function getReward() public  updateReward(msg.sender) {... */\n    tag_74:\n        /* \"Contract Conqueror/swaptoken/swap.sol\":5785:5795  msg.sender */\n      caller\n        /* \"Contract Conqueror/swaptoken/swap.sol\":2560:2576  rewardPerToken() */\n      tag_216\n        /* \"Contract Conqueror/swaptoken/swap.sol\":2560:2574  rewardPerToken */\n      tag_125\n        /* \"Contract Conqueror/swaptoken/swap.sol\":2560:2576  rewardPerToken() */\n      jump\t// in\n    tag_216:\n        /* \"Contract Conqueror/swaptoken/swap.sol\":2537:2557  rewardPerTokenStored */\n      0x06\n        /* \"Contract Conqueror/swaptoken/swap.sol\":2537:2576  rewardPerTokenStored = rewardPerToken() */\n      dup2\n      swap1\n      sstore\n      pop\n        /* \"Contract Conqueror/swaptoken/swap.sol\":2604:2630  lastTimeRewardApplicable() */\n      tag_217\n        /* \"Contract Conqueror/swaptoken/swap.sol\":2604:2628  lastTimeRewardApplicable */\n      tag_96\n        /* \"Contract Conqueror/swaptoken/swap.sol\":2604:2630  lastTimeRewardApplicable() */\n      jump\t// in\n    tag_217:\n        /* \"Contract Conqueror/swaptoken/swap.sol\":2587:2601  lastUpdateTime */\n      0x05\n        /* \"Contract Conqueror/swaptoken/swap.sol\":2587:2630  lastUpdateTime = lastTimeRewardApplicable() */\n      dup2\n      swap1\n      sstore\n      pop\n        /* \"Contract Conqueror/swaptoken/swap.sol\":2674:2675  0 */\n      0x00\n        /* \"Contract Conqueror/swaptoken/swap.sol\":2655:2676  account != address(0) */\n      0xffffffffffffffffffffffffffffffffffffffff\n      and\n        /* \"Contract Conqueror/swaptoken/swap.sol\":2655:2662  account */\n      dup2\n        /* \"Contract Conqueror/swaptoken/swap.sol\":2655:2676  account != address(0) */\n      0xffffffffffffffffffffffffffffffffffffffff\n      and\n      eq\n        /* \"Contract Conqueror/swaptoken/swap.sol\":2651:2808  if (account != address(0)) {... */\n      tag_218\n      jumpi\n        /* \"Contract Conqueror/swaptoken/swap.sol\":2712:2727  earned(account) */\n      tag_219\n        /* \"Contract Conqueror/swaptoken/swap.sol\":2719:2726  account */\n      dup2\n        /* \"Contract Conqueror/swaptoken/swap.sol\":2712:2718  earned */\n      tag_44\n        /* \"Contract Conqueror/swaptoken/swap.sol\":2712:2727  earned(account) */\n      jump\t// in\n    tag_219:\n        /* \"Contract Conqueror/swaptoken/swap.sol\":2693:2700  rewards */\n      0x0c\n        /* \"Contract Conqueror/swaptoken/swap.sol\":2693:2709  rewards[account] */\n      0x00\n        /* \"Contract Conqueror/swaptoken/swap.sol\":2701:2708  account */\n      dup4\n        /* \"Contract Conqueror/swaptoken/swap.sol\":2693:2709  rewards[account] */\n      0xffffffffffffffffffffffffffffffffffffffff\n      and\n      0xffffffffffffffffffffffffffffffffffffffff\n      and\n      dup2\n      mstore\n      0x20\n      add\n      swap1\n      dup2\n      mstore\n      0x20\n      add\n      0x00\n      keccak256\n        /* \"Contract Conqueror/swaptoken/swap.sol\":2693:2727  rewards[account] = earned(account) */\n      dup2\n      swap1\n      sstore\n      pop\n        /* \"Contract Conqueror/swaptoken/swap.sol\":2776:2796  rewardPerTokenStored */\n      sload(0x06)\n        /* \"Contract Conqueror/swaptoken/swap.sol\":2742:2764  userRewardPerTokenPaid */\n      0x0b\n        /* \"Contract Conqueror/swaptoken/swap.sol\":2742:2773  userRewardPerTokenPaid[account] */\n      0x00\n        /* \"Contract Conqueror/swaptoken/swap.sol\":2765:2772  account */\n      dup4\n        /* \"Contract Conqueror/swaptoken/swap.sol\":2742:2773  userRewardPerTokenPaid[account] */\n      0xffffffffffffffffffffffffffffffffffffffff\n      and\n      0xffffffffffffffffffffffffffffffffffffffff\n      and\n      dup2\n      mstore\n      0x20\n      add\n      swap1\n      dup2\n      mstore\n      0x20\n      add\n      0x00\n      keccak256\n        /* \"Contract Conqueror/swaptoken/swap.sol\":2742:2796  userRewardPerTokenPaid[account] = rewardPerTokenStored */\n      dup2\n      swap1\n      sstore\n      pop\n        /* \"Contract Conqueror/swaptoken/swap.sol\":2651:2808  if (account != address(0)) {... */\n    tag_218:\n        /* \"Contract Conqueror/swaptoken/swap.sol\":5808:5822  uint256 reward */\n      0x00\n        /* \"Contract Conqueror/swaptoken/swap.sol\":5825:5832  rewards */\n      0x0c\n        /* \"Contract Conqueror/swaptoken/swap.sol\":5825:5844  rewards[msg.sender] */\n      0x00\n        /* \"Contract Conqueror/swaptoken/swap.sol\":5833:5843  msg.sender */\n      caller\n        /* \"Contract Conqueror/swaptoken/swap.sol\":5825:5844  rewards[msg.sender] */\n      0xffffffffffffffffffffffffffffffffffffffff\n      and\n      0xffffffffffffffffffffffffffffffffffffffff\n      and\n      dup2\n      mstore\n      0x20\n      add\n      swap1\n      dup2\n      mstore\n      0x20\n      add\n      0x00\n      keccak256\n      sload\n        /* \"Contract Conqueror/swaptoken/swap.sol\":5808:5844  uint256 reward = rewards[msg.sender] */\n      swap1\n      pop\n        /* \"Contract Conqueror/swaptoken/swap.sol\":5869:5870  0 */\n      0x00\n        /* \"Contract Conqueror/swaptoken/swap.sol\":5859:5865  reward */\n      dup2\n        /* \"Contract Conqueror/swaptoken/swap.sol\":5859:5870  reward == 0 */\n      sub\n        /* \"Contract Conqueror/swaptoken/swap.sol\":5855:5890  if (reward == 0) revert NoRewards() */\n      tag_221\n      jumpi\n        /* \"Contract Conqueror/swaptoken/swap.sol\":5879:5890  NoRewards() */\n      mload(0x40)\n      0x3fb087f400000000000000000000000000000000000000000000000000000000\n      dup2\n      mstore\n      0x04\n      add\n      mload(0x40)\n      dup1\n      swap2\n      sub\n      swap1\n      revert\n        /* \"Contract Conqueror/swaptoken/swap.sol\":5855:5890  if (reward == 0) revert NoRewards() */\n    tag_221:\n        /* \"Contract Conqueror/swaptoken/swap.sol\":5933:5934  0 */\n      0x00\n        /* \"Contract Conqueror/swaptoken/swap.sol\":5911:5918  rewards */\n      0x0c\n        /* \"Contract Conqueror/swaptoken/swap.sol\":5911:5930  rewards[msg.sender] */\n      0x00\n        /* \"Contract Conqueror/swaptoken/swap.sol\":5919:5929  msg.sender */\n      caller\n        /* \"Contract Conqueror/swaptoken/swap.sol\":5911:5930  rewards[msg.sender] */\n      0xffffffffffffffffffffffffffffffffffffffff\n      and\n      0xffffffffffffffffffffffffffffffffffffffff\n      and\n      dup2\n      mstore\n      0x20\n      add\n      swap1\n      dup2\n      mstore\n      0x20\n      add\n      0x00\n      keccak256\n        /* \"Contract Conqueror/swaptoken/swap.sol\":5911:5934  rewards[msg.sender] = 0 */\n      dup2\n      swap1\n      sstore\n      pop\n        /* \"Contract Conqueror/swaptoken/swap.sol\":5967:5978  rewardToken */\n      0x02\n      0x00\n      swap1\n      sload\n      swap1\n      0x0100\n      exp\n      swap1\n      div\n      0xffffffffffffffffffffffffffffffffffffffff\n      and\n        /* \"Contract Conqueror/swaptoken/swap.sol\":5960:5988  IERC20(rewardToken).transfer */\n      0xffffffffffffffffffffffffffffffffffffffff\n      and\n      0xa9059cbb\n        /* \"Contract Conqueror/swaptoken/swap.sol\":5989:5999  msg.sender */\n      caller\n        /* \"Contract Conqueror/swaptoken/swap.sol\":6001:6007  reward */\n      dup4\n        /* \"Contract Conqueror/swaptoken/swap.sol\":5960:6008  IERC20(rewardToken).transfer(msg.sender, reward) */\n      mload(0x40)\n      dup4\n      0xffffffff\n      and\n      0xe0\n      shl\n      dup2\n      mstore\n      0x04\n      add\n      tag_222\n      swap3\n      swap2\n      swap1\n      tag_183\n      jump\t// in\n    tag_222:\n      0x20\n      mload(0x40)\n      dup1\n      dup4\n      sub\n      dup2\n      0x00\n      dup8\n      gas\n      call\n      iszero\n      dup1\n      iszero\n      tag_224\n      jumpi\n      returndatacopy(0x00, 0x00, returndatasize)\n      revert(0x00, returndatasize)\n    tag_224:\n      pop\n      pop\n      pop\n      pop\n      mload(0x40)\n      returndatasize\n      not(0x1f)\n      0x1f\n      dup3\n      add\n      and\n      dup3\n      add\n      dup1\n      0x40\n      mstore\n      pop\n      dup2\n      add\n      swap1\n      tag_225\n      swap2\n      swap1\n      tag_187\n      jump\t// in\n    tag_225:\n        /* \"Contract Conqueror/swaptoken/swap.sol\":5955:6060  if (!IERC20(rewardToken).transfer(msg.sender, reward)) {... */\n      tag_226\n      jumpi\n        /* \"Contract Conqueror/swaptoken/swap.sol\":6032:6048  TransferFailed() */\n      mload(0x40)\n      0x90b8ec1800000000000000000000000000000000000000000000000000000000\n      dup2\n      mstore\n      0x04\n      add\n      mload(0x40)\n      dup1\n      swap2\n      sub\n      swap1\n      revert\n        /* \"Contract Conqueror/swaptoken/swap.sol\":5955:6060  if (!IERC20(rewardToken).transfer(msg.sender, reward)) {... */\n    tag_226:\n        /* \"Contract Conqueror/swaptoken/swap.sol\":6096:6106  msg.sender */\n      caller\n        /* \"Contract Conqueror/swaptoken/swap.sol\":6085:6115  RewardPaid(msg.sender, reward) */\n      0xffffffffffffffffffffffffffffffffffffffff\n      and\n      0xe2403640ba68fed3a2f88b7557551d1993f84b99bb10ff833f0cf8db0c5e0486\n        /* \"Contract Conqueror/swaptoken/swap.sol\":6108:6114  reward */\n      dup3\n        /* \"Contract Conqueror/swaptoken/swap.sol\":6085:6115  RewardPaid(msg.sender, reward) */\n      mload(0x40)\n      tag_227\n      swap2\n      swap1\n      tag_46\n      jump\t// in\n    tag_227:\n      mload(0x40)\n      dup1\n      swap2\n      sub\n      swap1\n      log2\n        /* \"Contract Conqueror/swaptoken/swap.sol\":5797:6123  {... */\n      pop\n        /* \"Contract Conqueror/swaptoken/swap.sol\":5743:6123  function getReward() public  updateReward(msg.sender) {... */\n      pop\n      jump\t// out\n        /* \"Contract Conqueror/swaptoken/swap.sol\":1450:1496  mapping(address => uint256) public stakingTime */\n    tag_77:\n      mstore(0x20, 0x0d)\n      dup1\n      0x00\n      mstore\n      keccak256(0x00, 0x40)\n      0x00\n      swap2\n      pop\n      swap1\n      pop\n      sload\n      dup2\n      jump\t// out\n        /* \"Contract Conqueror/swaptoken/swap.sol\":1282:1330  mapping(address => uint256) public stakedBalance */\n    tag_81:\n      mstore(0x20, 0x0a)\n      dup1\n      0x00\n      mstore\n      keccak256(0x00, 0x40)\n      0x00\n      swap2\n      pop\n      swap1\n      pop\n      sload\n      dup2\n      jump\t// out\n        /* \"Contract Conqueror/swaptoken/swap.sol\":9697:10387  function getUserInfo(address user) ... */\n    tag_85:\n        /* \"Contract Conqueror/swaptoken/swap.sol\":9799:9813  uint256 staked */\n      0x00\n        /* \"Contract Conqueror/swaptoken/swap.sol\":9828:9849  uint256 earnedRewards */\n      0x00\n        /* \"Contract Conqueror/swaptoken/swap.sol\":9864:9887  uint256 stakingDuration */\n      0x00\n        /* \"Contract Conqueror/swaptoken/swap.sol\":9902:9929  uint256 potentialSwapAmount */\n      0x00\n        /* \"Contract Conqueror/swaptoken/swap.sol\":9967:9980  stakedBalance */\n      0x0a\n        /* \"Contract Conqueror/swaptoken/swap.sol\":9967:9986  stakedBalance[user] */\n      0x00\n        /* \"Contract Conqueror/swaptoken/swap.sol\":9981:9985  user */\n      dup7\n        /* \"Contract Conqueror/swaptoken/swap.sol\":9967:9986  stakedBalance[user] */\n      0xffffffffffffffffffffffffffffffffffffffff\n      and\n      0xffffffffffffffffffffffffffffffffffffffff\n      and\n      dup2\n      mstore\n      0x20\n      add\n      swap1\n      dup2\n      mstore\n      0x20\n      add\n      0x00\n      keccak256\n      sload\n        /* \"Contract Conqueror/swaptoken/swap.sol\":9958:9986  staked = stakedBalance[user] */\n      swap4\n      pop\n        /* \"Contract Conqueror/swaptoken/swap.sol\":10013:10025  earned(user) */\n      tag_229\n        /* \"Contract Conqueror/swaptoken/swap.sol\":10020:10024  user */\n      dup6\n        /* \"Contract Conqueror/swaptoken/swap.sol\":10013:10019  earned */\n      tag_44\n        /* \"Contract Conqueror/swaptoken/swap.sol\":10013:10025  earned(user) */\n      jump\t// in\n    tag_229:\n        /* \"Contract Conqueror/swaptoken/swap.sol\":9997:10025  earnedRewards = earned(user) */\n      swap3\n      pop\n        /* \"Contract Conqueror/swaptoken/swap.sol\":10074:10075  0 */\n      0x00\n        /* \"Contract Conqueror/swaptoken/swap.sol\":10054:10065  stakingTime */\n      0x0d\n        /* \"Contract Conqueror/swaptoken/swap.sol\":10054:10071  stakingTime[user] */\n      0x00\n        /* \"Contract Conqueror/swaptoken/swap.sol\":10066:10070  user */\n      dup8\n        /* \"Contract Conqueror/swaptoken/swap.sol\":10054:10071  stakingTime[user] */\n      0xffffffffffffffffffffffffffffffffffffffff\n      and\n      0xffffffffffffffffffffffffffffffffffffffff\n      and\n      dup2\n      mstore\n      0x20\n      add\n      swap1\n      dup2\n      mstore\n      0x20\n      add\n      0x00\n      keccak256\n      sload\n        /* \"Contract Conqueror/swaptoken/swap.sol\":10054:10075  stakingTime[user] > 0 */\n      gt\n        /* \"Contract Conqueror/swaptoken/swap.sol\":10054:10117  stakingTime[user] > 0 ? block.timestamp - stakingTime[user] : 0 */\n      tag_230\n      jumpi\n        /* \"Contract Conqueror/swaptoken/swap.sol\":10116:10117  0 */\n      0x00\n        /* \"Contract Conqueror/swaptoken/swap.sol\":10054:10117  stakingTime[user] > 0 ? block.timestamp - stakingTime[user] : 0 */\n      jump(tag_231)\n    tag_230:\n        /* \"Contract Conqueror/swaptoken/swap.sol\":10096:10107  stakingTime */\n      0x0d\n        /* \"Contract Conqueror/swaptoken/swap.sol\":10096:10113  stakingTime[user] */\n      0x00\n        /* \"Contract Conqueror/swaptoken/swap.sol\":10108:10112  user */\n      dup7\n        /* \"Contract Conqueror/swaptoken/swap.sol\":10096:10113  stakingTime[user] */\n      0xffffffffffffffffffffffffffffffffffffffff\n      and\n      0xffffffffffffffffffffffffffffffffffffffff\n      and\n      dup2\n      mstore\n      0x20\n      add\n      swap1\n      dup2\n      mstore\n      0x20\n      add\n      0x00\n      keccak256\n      sload\n        /* \"Contract Conqueror/swaptoken/swap.sol\":10078:10093  block.timestamp */\n      timestamp\n        /* \"Contract Conqueror/swaptoken/swap.sol\":10078:10113  block.timestamp - stakingTime[user] */\n      tag_232\n      swap2\n      swap1\n      tag_146\n      jump\t// in\n    tag_232:\n        /* \"Contract Conqueror/swaptoken/swap.sol\":10054:10117  stakingTime[user] > 0 ? block.timestamp - stakingTime[user] : 0 */\n    tag_231:\n        /* \"Contract Conqueror/swaptoken/swap.sol\":10036:10117  stakingDuration = stakingTime[user] > 0 ? block.timestamp - stakingTime[user] : 0 */\n      swap2\n      pop\n        /* \"Contract Conqueror/swaptoken/swap.sol\":10164:10165  0 */\n      0x00\n        /* \"Contract Conqueror/swaptoken/swap.sol\":10142:10166  simpleSwap != address(0) */\n      0xffffffffffffffffffffffffffffffffffffffff\n      and\n        /* \"Contract Conqueror/swaptoken/swap.sol\":10142:10152  simpleSwap */\n      0x03\n      0x00\n      swap1\n      sload\n      swap1\n      0x0100\n      exp\n      swap1\n      div\n      0xffffffffffffffffffffffffffffffffffffffff\n      and\n        /* \"Contract Conqueror/swaptoken/swap.sol\":10142:10166  simpleSwap != address(0) */\n      0xffffffffffffffffffffffffffffffffffffffff\n      and\n      eq\n      iszero\n        /* \"Contract Conqueror/swaptoken/swap.sol\":10142:10187  simpleSwap != address(0) && earnedRewards > 0 */\n      dup1\n      iszero\n      tag_233\n      jumpi\n      pop\n        /* \"Contract Conqueror/swaptoken/swap.sol\":10186:10187  0 */\n      0x00\n        /* \"Contract Conqueror/swaptoken/swap.sol\":10170:10183  earnedRewards */\n      dup4\n        /* \"Contract Conqueror/swaptoken/swap.sol\":10170:10187  earnedRewards > 0 */\n      gt\n        /* \"Contract Conqueror/swaptoken/swap.sol\":10142:10187  simpleSwap != address(0) && earnedRewards > 0 */\n    tag_233:\n        /* \"Contract Conqueror/swaptoken/swap.sol\":10138:10380  if (simpleSwap != address(0) && earnedRewards > 0) {... */\n      iszero\n      tag_234\n      jumpi\n        /* \"Contract Conqueror/swaptoken/swap.sol\":10238:10248  simpleSwap */\n      0x03\n      0x00\n      swap1\n      sload\n      swap1\n      0x0100\n      exp\n      swap1\n      div\n      0xffffffffffffffffffffffffffffffffffffffff\n      and\n        /* \"Contract Conqueror/swaptoken/swap.sol\":10226:10258  ISimpleSwap(simpleSwap).getQuote */\n      0xffffffffffffffffffffffffffffffffffffffff\n      and\n      0xc515ee23\n        /* \"Contract Conqueror/swaptoken/swap.sol\":10277:10288  rewardToken */\n      0x02\n      0x00\n      swap1\n      sload\n      swap1\n      0x0100\n      exp\n      swap1\n      div\n      0xffffffffffffffffffffffffffffffffffffffff\n      and\n        /* \"Contract Conqueror/swaptoken/swap.sol\":10308:10320  stakingToken */\n      0x01\n      0x00\n      swap1\n      sload\n      swap1\n      0x0100\n      exp\n      swap1\n      div\n      0xffffffffffffffffffffffffffffffffffffffff\n      and\n        /* \"Contract Conqueror/swaptoken/swap.sol\":10340:10353  earnedRewards */\n      dup7\n        /* \"Contract Conqueror/swaptoken/swap.sol\":10226:10368  ISimpleSwap(simpleSwap).getQuote(... */\n      mload(0x40)\n      dup5\n      0xffffffff\n      and\n      0xe0\n      shl\n      dup2\n      mstore\n      0x04\n      add\n      tag_235\n      swap4\n      swap3\n      swap2\n      swap1\n      tag_158\n      jump\t// in\n    tag_235:\n      0x20\n      mload(0x40)\n      dup1\n      dup4\n      sub\n      dup2\n      dup7\n      gas\n      staticcall\n      iszero\n      dup1\n      iszero\n      tag_237\n      jumpi\n      returndatacopy(0x00, 0x00, returndatasize)\n      revert(0x00, returndatasize)\n    tag_237:\n      pop\n      pop\n      pop\n      pop\n      mload(0x40)\n      returndatasize\n      not(0x1f)\n      0x1f\n      dup3\n      add\n      and\n      dup3\n      add\n      dup1\n      0x40\n      mstore\n      pop\n      dup2\n      add\n      swap1\n      tag_238\n      swap2\n      swap1\n      tag_162\n      jump\t// in\n    tag_238:\n        /* \"Contract Conqueror/swaptoken/swap.sol\":10204:10368  potentialSwapAmount = ISimpleSwap(simpleSwap).getQuote(... */\n      swap1\n      pop\n        /* \"Contract Conqueror/swaptoken/swap.sol\":10138:10380  if (simpleSwap != address(0) && earnedRewards > 0) {... */\n    tag_234:\n        /* \"Contract Conqueror/swaptoken/swap.sol\":9697:10387  function getUserInfo(address user) ... */\n      swap2\n      swap4\n      pop\n      swap2\n      swap4\n      jump\t// out\n        /* \"Contract Conqueror/swaptoken/swap.sol\":886:913  address public stakingToken */\n    tag_89:\n      0x01\n      0x00\n      swap1\n      sload\n      swap1\n      0x0100\n      exp\n      swap1\n      div\n      0xffffffffffffffffffffffffffffffffffffffff\n      and\n      dup2\n      jump\t// out\n        /* \"Contract Conqueror/swaptoken/swap.sol\":991:1016  uint256 public rewardRate */\n    tag_93:\n      sload(0x04)\n      dup2\n      jump\t// out\n        /* \"Contract Conqueror/swaptoken/swap.sol\":3332:3487  function lastTimeRewardApplicable() public view returns (uint256) {... */\n    tag_96:\n        /* \"Contract Conqueror/swaptoken/swap.sol\":3389:3396  uint256 */\n      0x00\n        /* \"Contract Conqueror/swaptoken/swap.sol\":3434:3446  periodFinish */\n      sload(0x09)\n        /* \"Contract Conqueror/swaptoken/swap.sol\":3416:3431  block.timestamp */\n      timestamp\n        /* \"Contract Conqueror/swaptoken/swap.sol\":3416:3446  block.timestamp < periodFinish */\n      lt\n        /* \"Contract Conqueror/swaptoken/swap.sol\":3416:3479  block.timestamp < periodFinish ? block.timestamp : periodFinish */\n      tag_240\n      jumpi\n        /* \"Contract Conqueror/swaptoken/swap.sol\":3467:3479  periodFinish */\n      sload(0x09)\n        /* \"Contract Conqueror/swaptoken/swap.sol\":3416:3479  block.timestamp < periodFinish ? block.timestamp : periodFinish */\n      jump(tag_241)\n    tag_240:\n        /* \"Contract Conqueror/swaptoken/swap.sol\":3449:3464  block.timestamp */\n      timestamp\n        /* \"Contract Conqueror/swaptoken/swap.sol\":3416:3479  block.timestamp < periodFinish ? block.timestamp : periodFinish */\n    tag_241:\n        /* \"Contract Conqueror/swaptoken/swap.sol\":3409:3479  return block.timestamp < periodFinish ? block.timestamp : periodFinish */\n      swap1\n      pop\n        /* \"Contract Conqueror/swaptoken/swap.sol\":3332:3487  function lastTimeRewardApplicable() public view returns (uint256) {... */\n      swap1\n      jump\t// out\n        /* \"Contract Conqueror/swaptoken/swap.sol\":1123:1149  uint256 public totalStaked */\n    tag_99:\n      sload(0x07)\n      dup2\n      jump\t// out\n        /* \"Contract Conqueror/swaptoken/swap.sol\":953:978  address public simpleSwap */\n    tag_102:\n      0x03\n      0x00\n      swap1\n      sload\n      swap1\n      0x0100\n      exp\n      swap1\n      div\n      0xffffffffffffffffffffffffffffffffffffffff\n      and\n      dup2\n      jump\t// out\n        /* \"Contract Conqueror/swaptoken/swap.sol\":1337:1394  mapping(address => uint256) public userRewardPerTokenPaid */\n    tag_106:\n      mstore(0x20, 0x0b)\n      dup1\n      0x00\n      mstore\n      keccak256(0x00, 0x40)\n      0x00\n      swap2\n      pop\n      swap1\n      pop\n      sload\n      dup2\n      jump\t// out\n        /* \"Contract Conqueror/swaptoken/swap.sol\":859:879  address public owner */\n    tag_109:\n      0x00\n      0x00\n      swap1\n      sload\n      swap1\n      0x0100\n      exp\n      swap1\n      div\n      0xffffffffffffffffffffffffffffffffffffffff\n      and\n      dup2\n      jump\t// out\n        /* \"Contract Conqueror/swaptoken/swap.sol\":10812:11174  function emergencyWithdraw(address token, uint256 amount) ... */\n    tag_114:\n        /* \"Contract Conqueror/swaptoken/swap.sol\":2178:2183  owner */\n      0x00\n      0x00\n      swap1\n      sload\n      swap1\n      0x0100\n      exp\n      swap1\n      div\n      0xffffffffffffffffffffffffffffffffffffffff\n      and\n        /* \"Contract Conqueror/swaptoken/swap.sol\":2164:2183  msg.sender != owner */\n      0xffffffffffffffffffffffffffffffffffffffff\n      and\n        /* \"Contract Conqueror/swaptoken/swap.sol\":2164:2174  msg.sender */\n      caller\n        /* \"Contract Conqueror/swaptoken/swap.sol\":2164:2183  msg.sender != owner */\n      0xffffffffffffffffffffffffffffffffffffffff\n      and\n      eq\n        /* \"Contract Conqueror/swaptoken/swap.sol\":2160:2206  if (msg.sender != owner) revert Unauthorized() */\n      tag_243\n      jumpi\n        /* \"Contract Conqueror/swaptoken/swap.sol\":2192:2206  Unauthorized() */\n      mload(0x40)\n      0x82b4290000000000000000000000000000000000000000000000000000000000\n      dup2\n      mstore\n      0x04\n      add\n      mload(0x40)\n      dup1\n      swap2\n      sub\n      swap1\n      revert\n        /* \"Contract Conqueror/swaptoken/swap.sol\":2160:2206  if (msg.sender != owner) revert Unauthorized() */\n    tag_243:\n        /* \"Contract Conqueror/swaptoken/swap.sol\":10932:10937  token */\n      dup2\n        /* \"Contract Conqueror/swaptoken/swap.sol\":2307:2308  0 */\n      0x00\n        /* \"Contract Conqueror/swaptoken/swap.sol\":2290:2309  _addr == address(0) */\n      0xffffffffffffffffffffffffffffffffffffffff\n      and\n        /* \"Contract Conqueror/swaptoken/swap.sol\":2290:2295  _addr */\n      dup2\n        /* \"Contract Conqueror/swaptoken/swap.sol\":2290:2309  _addr == address(0) */\n      0xffffffffffffffffffffffffffffffffffffffff\n      and\n      sub\n        /* \"Contract Conqueror/swaptoken/swap.sol\":2286:2334  if (_addr == address(0)) revert InvalidAddress() */\n      tag_245\n      jumpi\n        /* \"Contract Conqueror/swaptoken/swap.sol\":2318:2334  InvalidAddress() */\n      mload(0x40)\n      0xe6c4247b00000000000000000000000000000000000000000000000000000000\n      dup2\n      mstore\n      0x04\n      add\n      mload(0x40)\n      dup1\n      swap2\n      sub\n      swap1\n      revert\n        /* \"Contract Conqueror/swaptoken/swap.sol\":2286:2334  if (_addr == address(0)) revert InvalidAddress() */\n    tag_245:\n        /* \"Contract Conqueror/swaptoken/swap.sol\":10960:10966  amount */\n      dup2\n        /* \"Contract Conqueror/swaptoken/swap.sol\":2430:2431  0 */\n      0x00\n        /* \"Contract Conqueror/swaptoken/swap.sol\":2419:2426  _amount */\n      dup2\n        /* \"Contract Conqueror/swaptoken/swap.sol\":2419:2431  _amount == 0 */\n      sub\n        /* \"Contract Conqueror/swaptoken/swap.sol\":2415:2455  if (_amount == 0) revert InvalidAmount() */\n      tag_247\n      jumpi\n        /* \"Contract Conqueror/swaptoken/swap.sol\":2440:2455  InvalidAmount() */\n      mload(0x40)\n      0x2c5211c600000000000000000000000000000000000000000000000000000000\n      dup2\n      mstore\n      0x04\n      add\n      mload(0x40)\n      dup1\n      swap2\n      sub\n      swap1\n      revert\n        /* \"Contract Conqueror/swaptoken/swap.sol\":2415:2455  if (_amount == 0) revert InvalidAmount() */\n    tag_247:\n        /* \"Contract Conqueror/swaptoken/swap.sol\":11006:11018  periodFinish */\n      sload(0x09)\n        /* \"Contract Conqueror/swaptoken/swap.sol\":10988:11003  block.timestamp */\n      timestamp\n        /* \"Contract Conqueror/swaptoken/swap.sol\":10988:11018  block.timestamp < periodFinish */\n      lt\n        /* \"Contract Conqueror/swaptoken/swap.sol\":10984:11052  if (block.timestamp < periodFinish) revert RewardPeriodNotFinished() */\n      iszero\n      tag_249\n      jumpi\n        /* \"Contract Conqueror/swaptoken/swap.sol\":11027:11052  RewardPeriodNotFinished() */\n      mload(0x40)\n      0x9634abc100000000000000000000000000000000000000000000000000000000\n      dup2\n      mstore\n      0x04\n      add\n      mload(0x40)\n      dup1\n      swap2\n      sub\n      swap1\n      revert\n        /* \"Contract Conqueror/swaptoken/swap.sol\":10984:11052  if (block.timestamp < periodFinish) revert RewardPeriodNotFinished() */\n    tag_249:\n        /* \"Contract Conqueror/swaptoken/swap.sol\":11085:11090  token */\n      dup4\n        /* \"Contract Conqueror/swaptoken/swap.sol\":11078:11100  IERC20(token).transfer */\n      0xffffffffffffffffffffffffffffffffffffffff\n      and\n      0xa9059cbb\n        /* \"Contract Conqueror/swaptoken/swap.sol\":11101:11106  owner */\n      0x00\n      0x00\n      swap1\n      sload\n      swap1\n      0x0100\n      exp\n      swap1\n      div\n      0xffffffffffffffffffffffffffffffffffffffff\n      and\n        /* \"Contract Conqueror/swaptoken/swap.sol\":11108:11114  amount */\n      dup6\n        /* \"Contract Conqueror/swaptoken/swap.sol\":11078:11115  IERC20(token).transfer(owner, amount) */\n      mload(0x40)\n      dup4\n      0xffffffff\n      and\n      0xe0\n      shl\n      dup2\n      mstore\n      0x04\n      add\n      tag_250\n      swap3\n      swap2\n      swap1\n      tag_183\n      jump\t// in\n    tag_250:\n      0x20\n      mload(0x40)\n      dup1\n      dup4\n      sub\n      dup2\n      0x00\n      dup8\n      gas\n      call\n      iszero\n      dup1\n      iszero\n      tag_252\n      jumpi\n      returndatacopy(0x00, 0x00, returndatasize)\n      revert(0x00, returndatasize)\n    tag_252:\n      pop\n      pop\n      pop\n      pop\n      mload(0x40)\n      returndatasize\n      not(0x1f)\n      0x1f\n      dup3\n      add\n      and\n      dup3\n      add\n      dup1\n      0x40\n      mstore\n      pop\n      dup2\n      add\n      swap1\n      tag_253\n      swap2\n      swap1\n      tag_187\n      jump\t// in\n    tag_253:\n        /* \"Contract Conqueror/swaptoken/swap.sol\":11073:11167  if (!IERC20(token).transfer(owner, amount)) {... */\n      tag_254\n      jumpi\n        /* \"Contract Conqueror/swaptoken/swap.sol\":11139:11155  TransferFailed() */\n      mload(0x40)\n      0x90b8ec1800000000000000000000000000000000000000000000000000000000\n      dup2\n      mstore\n      0x04\n      add\n      mload(0x40)\n      dup1\n      swap2\n      sub\n      swap1\n      revert\n        /* \"Contract Conqueror/swaptoken/swap.sol\":11073:11167  if (!IERC20(token).transfer(owner, amount)) {... */\n    tag_254:\n        /* \"Contract Conqueror/swaptoken/swap.sol\":2345:2346  _ */\n      pop\n        /* \"Contract Conqueror/swaptoken/swap.sol\":2217:2218  _ */\n      pop\n        /* \"Contract Conqueror/swaptoken/swap.sol\":10812:11174  function emergencyWithdraw(address token, uint256 amount) ... */\n      pop\n      pop\n      jump\t// out\n        /* \"Contract Conqueror/swaptoken/swap.sol\":4417:5101  function stake(uint256 amount) ... */\n    tag_117:\n        /* \"Contract Conqueror/swaptoken/swap.sol\":4489:4495  amount */\n      dup1\n        /* \"Contract Conqueror/swaptoken/swap.sol\":2430:2431  0 */\n      0x00\n        /* \"Contract Conqueror/swaptoken/swap.sol\":2419:2426  _amount */\n      dup2\n        /* \"Contract Conqueror/swaptoken/swap.sol\":2419:2431  _amount == 0 */\n      sub\n        /* \"Contract Conqueror/swaptoken/swap.sol\":2415:2455  if (_amount == 0) revert InvalidAmount() */\n      tag_256\n      jumpi\n        /* \"Contract Conqueror/swaptoken/swap.sol\":2440:2455  InvalidAmount() */\n      mload(0x40)\n      0x2c5211c600000000000000000000000000000000000000000000000000000000\n      dup2\n      mstore\n      0x04\n      add\n      mload(0x40)\n      dup1\n      swap2\n      sub\n      swap1\n      revert\n        /* \"Contract Conqueror/swaptoken/swap.sol\":2415:2455  if (_amount == 0) revert InvalidAmount() */\n    tag_256:\n        /* \"Contract Conqueror/swaptoken/swap.sol\":4520:4530  msg.sender */\n      caller\n        /* \"Contract Conqueror/swaptoken/swap.sol\":2560:2576  rewardPerToken() */\n      tag_258\n        /* \"Contract Conqueror/swaptoken/swap.sol\":2560:2574  rewardPerToken */\n      tag_125\n        /* \"Contract Conqueror/swaptoken/swap.sol\":2560:2576  rewardPerToken() */\n      jump\t// in\n    tag_258:\n        /* \"Contract Conqueror/swaptoken/swap.sol\":2537:2557  rewardPerTokenStored */\n      0x06\n        /* \"Contract Conqueror/swaptoken/swap.sol\":2537:2576  rewardPerTokenStored = rewardPerToken() */\n      dup2\n      swap1\n      sstore\n      pop\n        /* \"Contract Conqueror/swaptoken/swap.sol\":2604:2630  lastTimeRewardApplicable() */\n      tag_259\n        /* \"Contract Conqueror/swaptoken/swap.sol\":2604:2628  lastTimeRewardApplicable */\n      tag_96\n        /* \"Contract Conqueror/swaptoken/swap.sol\":2604:2630  lastTimeRewardApplicable() */\n      jump\t// in\n    tag_259:\n        /* \"Contract Conqueror/swaptoken/swap.sol\":2587:2601  lastUpdateTime */\n      0x05\n        /* \"Contract Conqueror/swaptoken/swap.sol\":2587:2630  lastUpdateTime = lastTimeRewardApplicable() */\n      dup2\n      swap1\n      sstore\n      pop\n        /* \"Contract Conqueror/swaptoken/swap.sol\":2674:2675  0 */\n      0x00\n        /* \"Contract Conqueror/swaptoken/swap.sol\":2655:2676  account != address(0) */\n      0xffffffffffffffffffffffffffffffffffffffff\n      and\n        /* \"Contract Conqueror/swaptoken/swap.sol\":2655:2662  account */\n      dup2\n        /* \"Contract Conqueror/swaptoken/swap.sol\":2655:2676  account != address(0) */\n      0xffffffffffffffffffffffffffffffffffffffff\n      and\n      eq\n        /* \"Contract Conqueror/swaptoken/swap.sol\":2651:2808  if (account != address(0)) {... */\n      tag_260\n      jumpi\n        /* \"Contract Conqueror/swaptoken/swap.sol\":2712:2727  earned(account) */\n      tag_261\n        /* \"Contract Conqueror/swaptoken/swap.sol\":2719:2726  account */\n      dup2\n        /* \"Contract Conqueror/swaptoken/swap.sol\":2712:2718  earned */\n      tag_44\n        /* \"Contract Conqueror/swaptoken/swap.sol\":2712:2727  earned(account) */\n      jump\t// in\n    tag_261:\n        /* \"Contract Conqueror/swaptoken/swap.sol\":2693:2700  rewards */\n      0x0c\n        /* \"Contract Conqueror/swaptoken/swap.sol\":2693:2709  rewards[account] */\n      0x00\n        /* \"Contract Conqueror/swaptoken/swap.sol\":2701:2708  account */\n      dup4\n        /* \"Contract Conqueror/swaptoken/swap.sol\":2693:2709  rewards[account] */\n      0xffffffffffffffffffffffffffffffffffffffff\n      and\n      0xffffffffffffffffffffffffffffffffffffffff\n      and\n      dup2\n      mstore\n      0x20\n      add\n      swap1\n      dup2\n      mstore\n      0x20\n      add\n      0x00\n      keccak256\n        /* \"Contract Conqueror/swaptoken/swap.sol\":2693:2727  rewards[account] = earned(account) */\n      dup2\n      swap1\n      sstore\n      pop\n        /* \"Contract Conqueror/swaptoken/swap.sol\":2776:2796  rewardPerTokenStored */\n      sload(0x06)\n        /* \"Contract Conqueror/swaptoken/swap.sol\":2742:2764  userRewardPerTokenPaid */\n      0x0b\n        /* \"Contract Conqueror/swaptoken/swap.sol\":2742:2773  userRewardPerTokenPaid[account] */\n      0x00\n        /* \"Contract Conqueror/swaptoken/swap.sol\":2765:2772  account */\n      dup4\n        /* \"Contract Conqueror/swaptoken/swap.sol\":2742:2773  userRewardPerTokenPaid[account] */\n      0xffffffffffffffffffffffffffffffffffffffff\n      and\n      0xffffffffffffffffffffffffffffffffffffffff\n      and\n      dup2\n      mstore\n      0x20\n      add\n      swap1\n      dup2\n      mstore\n      0x20\n      add\n      0x00\n      keccak256\n        /* \"Contract Conqueror/swaptoken/swap.sol\":2742:2796  userRewardPerTokenPaid[account] = rewardPerTokenStored */\n      dup2\n      swap1\n      sstore\n      pop\n        /* \"Contract Conqueror/swaptoken/swap.sol\":2651:2808  if (account != address(0)) {... */\n    tag_260:\n        /* \"Contract Conqueror/swaptoken/swap.sol\":4549:4561  IERC20 token */\n      0x00\n        /* \"Contract Conqueror/swaptoken/swap.sol\":4571:4583  stakingToken */\n      0x01\n      0x00\n      swap1\n      sload\n      swap1\n      0x0100\n      exp\n      swap1\n      div\n      0xffffffffffffffffffffffffffffffffffffffff\n      and\n        /* \"Contract Conqueror/swaptoken/swap.sol\":4549:4584  IERC20 token = IERC20(stakingToken) */\n      swap1\n      pop\n        /* \"Contract Conqueror/swaptoken/swap.sol\":4639:4645  amount */\n      dup4\n        /* \"Contract Conqueror/swaptoken/swap.sol\":4609:4614  token */\n      dup2\n        /* \"Contract Conqueror/swaptoken/swap.sol\":4609:4624  token.balanceOf */\n      0xffffffffffffffffffffffffffffffffffffffff\n      and\n      0x70a08231\n        /* \"Contract Conqueror/swaptoken/swap.sol\":4625:4635  msg.sender */\n      caller\n        /* \"Contract Conqueror/swaptoken/swap.sol\":4609:4636  token.balanceOf(msg.sender) */\n      mload(0x40)\n      dup3\n      0xffffffff\n      and\n      0xe0\n      shl\n      dup2\n      mstore\n      0x04\n      add\n      tag_263\n      swap2\n      swap1\n      tag_91\n      jump\t// in\n    tag_263:\n      0x20\n      mload(0x40)\n      dup1\n      dup4\n      sub\n      dup2\n      dup7\n      gas\n      staticcall\n      iszero\n      dup1\n      iszero\n      tag_265\n      jumpi\n      returndatacopy(0x00, 0x00, returndatasize)\n      revert(0x00, returndatasize)\n    tag_265:\n      pop\n      pop\n      pop\n      pop\n      mload(0x40)\n      returndatasize\n      not(0x1f)\n      0x1f\n      dup3\n      add\n      and\n      dup3\n      add\n      dup1\n      0x40\n      mstore\n      pop\n      dup2\n      add\n      swap1\n      tag_266\n      swap2\n      swap1\n      tag_162\n      jump\t// in\n    tag_266:\n        /* \"Contract Conqueror/swaptoken/swap.sol\":4609:4645  token.balanceOf(msg.sender) < amount */\n      lt\n        /* \"Contract Conqueror/swaptoken/swap.sol\":4605:4675  if (token.balanceOf(msg.sender) < amount) revert InsufficientBalance() */\n      iszero\n      tag_267\n      jumpi\n        /* \"Contract Conqueror/swaptoken/swap.sol\":4654:4675  InsufficientBalance() */\n      mload(0x40)\n      0xf4d678b800000000000000000000000000000000000000000000000000000000\n      dup2\n      mstore\n      0x04\n      add\n      mload(0x40)\n      dup1\n      swap2\n      sub\n      swap1\n      revert\n        /* \"Contract Conqueror/swaptoken/swap.sol\":4605:4675  if (token.balanceOf(msg.sender) < amount) revert InsufficientBalance() */\n    tag_267:\n        /* \"Contract Conqueror/swaptoken/swap.sol\":4735:4741  amount */\n      dup4\n        /* \"Contract Conqueror/swaptoken/swap.sol\":4690:4695  token */\n      dup2\n        /* \"Contract Conqueror/swaptoken/swap.sol\":4690:4705  token.allowance */\n      0xffffffffffffffffffffffffffffffffffffffff\n      and\n      0xdd62ed3e\n        /* \"Contract Conqueror/swaptoken/swap.sol\":4706:4716  msg.sender */\n      caller\n        /* \"Contract Conqueror/swaptoken/swap.sol\":4726:4730  this */\n      address\n        /* \"Contract Conqueror/swaptoken/swap.sol\":4690:4732  token.allowance(msg.sender, address(this)) */\n      mload(0x40)\n      dup4\n      0xffffffff\n      and\n      0xe0\n      shl\n      dup2\n      mstore\n      0x04\n      add\n      tag_268\n      swap3\n      swap2\n      swap1\n      tag_269\n      jump\t// in\n    tag_268:\n      0x20\n      mload(0x40)\n      dup1\n      dup4\n      sub\n      dup2\n      dup7\n      gas\n      staticcall\n      iszero\n      dup1\n      iszero\n      tag_271\n      jumpi\n      returndatacopy(0x00, 0x00, returndatasize)\n      revert(0x00, returndatasize)\n    tag_271:\n      pop\n      pop\n      pop\n      pop\n      mload(0x40)\n      returndatasize\n      not(0x1f)\n      0x1f\n      dup3\n      add\n      and\n      dup3\n      add\n      dup1\n      0x40\n      mstore\n      pop\n      dup2\n      add\n      swap1\n      tag_272\n      swap2\n      swap1\n      tag_162\n      jump\t// in\n    tag_272:\n        /* \"Contract Conqueror/swaptoken/swap.sol\":4690:4741  token.allowance(msg.sender, address(this)) < amount */\n      lt\n        /* \"Contract Conqueror/swaptoken/swap.sol\":4686:4771  if (token.allowance(msg.sender, address(this)) < amount) revert InsufficientBalance() */\n      iszero\n      tag_273\n      jumpi\n        /* \"Contract Conqueror/swaptoken/swap.sol\":4750:4771  InsufficientBalance() */\n      mload(0x40)\n      0xf4d678b800000000000000000000000000000000000000000000000000000000\n      dup2\n      mstore\n      0x04\n      add\n      mload(0x40)\n      dup1\n      swap2\n      sub\n      swap1\n      revert\n        /* \"Contract Conqueror/swaptoken/swap.sol\":4686:4771  if (token.allowance(msg.sender, address(this)) < amount) revert InsufficientBalance() */\n    tag_273:\n        /* \"Contract Conqueror/swaptoken/swap.sol\":4797:4802  token */\n      dup1\n        /* \"Contract Conqueror/swaptoken/swap.sol\":4797:4815  token.transferFrom */\n      0xffffffffffffffffffffffffffffffffffffffff\n      and\n      0x23b872dd\n        /* \"Contract Conqueror/swaptoken/swap.sol\":4816:4826  msg.sender */\n      caller\n        /* \"Contract Conqueror/swaptoken/swap.sol\":4836:4840  this */\n      address\n        /* \"Contract Conqueror/swaptoken/swap.sol\":4843:4849  amount */\n      dup8\n        /* \"Contract Conqueror/swaptoken/swap.sol\":4797:4850  token.transferFrom(msg.sender, address(this), amount) */\n      mload(0x40)\n      dup5\n      0xffffffff\n      and\n      0xe0\n      shl\n      dup2\n      mstore\n      0x04\n      add\n      tag_274\n      swap4\n      swap3\n      swap2\n      swap1\n      tag_158\n      jump\t// in\n    tag_274:\n      0x20\n      mload(0x40)\n      dup1\n      dup4\n      sub\n      dup2\n      0x00\n      dup8\n      gas\n      call\n      iszero\n      dup1\n      iszero\n      tag_276\n      jumpi\n      returndatacopy(0x00, 0x00, returndatasize)\n      revert(0x00, returndatasize)\n    tag_276:\n      pop\n      pop\n      pop\n      pop\n      mload(0x40)\n      returndatasize\n      not(0x1f)\n      0x1f\n      dup3\n      add\n      and\n      dup3\n      add\n      dup1\n      0x40\n      mstore\n      pop\n      dup2\n      add\n      swap1\n      tag_277\n      swap2\n      swap1\n      tag_187\n      jump\t// in\n    tag_277:\n        /* \"Contract Conqueror/swaptoken/swap.sol\":4792:4902  if (!token.transferFrom(msg.sender, address(this), amount)) {... */\n      tag_278\n      jumpi\n        /* \"Contract Conqueror/swaptoken/swap.sol\":4874:4890  TransferFailed() */\n      mload(0x40)\n      0x90b8ec1800000000000000000000000000000000000000000000000000000000\n      dup2\n      mstore\n      0x04\n      add\n      mload(0x40)\n      dup1\n      swap2\n      sub\n      swap1\n      revert\n        /* \"Contract Conqueror/swaptoken/swap.sol\":4792:4902  if (!token.transferFrom(msg.sender, address(this), amount)) {... */\n    tag_278:\n        /* \"Contract Conqueror/swaptoken/swap.sol\":4937:4943  amount */\n      dup4\n        /* \"Contract Conqueror/swaptoken/swap.sol\":4922:4933  totalStaked */\n      0x07\n      0x00\n        /* \"Contract Conqueror/swaptoken/swap.sol\":4922:4943  totalStaked += amount */\n      dup3\n      dup3\n      sload\n      tag_279\n      swap2\n      swap1\n      tag_152\n      jump\t// in\n    tag_279:\n      swap3\n      pop\n      pop\n      dup2\n      swap1\n      sstore\n      pop\n        /* \"Contract Conqueror/swaptoken/swap.sol\":4983:4989  amount */\n      dup4\n        /* \"Contract Conqueror/swaptoken/swap.sol\":4954:4967  stakedBalance */\n      0x0a\n        /* \"Contract Conqueror/swaptoken/swap.sol\":4954:4979  stakedBalance[msg.sender] */\n      0x00\n        /* \"Contract Conqueror/swaptoken/swap.sol\":4968:4978  msg.sender */\n      caller\n        /* \"Contract Conqueror/swaptoken/swap.sol\":4954:4979  stakedBalance[msg.sender] */\n      0xffffffffffffffffffffffffffffffffffffffff\n      and\n      0xffffffffffffffffffffffffffffffffffffffff\n      and\n      dup2\n      mstore\n      0x20\n      add\n      swap1\n      dup2\n      mstore\n      0x20\n      add\n      0x00\n      keccak256\n      0x00\n        /* \"Contract Conqueror/swaptoken/swap.sol\":4954:4989  stakedBalance[msg.sender] += amount */\n      dup3\n      dup3\n      sload\n      tag_280\n      swap2\n      swap1\n      tag_152\n      jump\t// in\n    tag_280:\n      swap3\n      pop\n      pop\n      dup2\n      swap1\n      sstore\n      pop\n        /* \"Contract Conqueror/swaptoken/swap.sol\":5026:5041  block.timestamp */\n      timestamp\n        /* \"Contract Conqueror/swaptoken/swap.sol\":5000:5011  stakingTime */\n      0x0d\n        /* \"Contract Conqueror/swaptoken/swap.sol\":5000:5023  stakingTime[msg.sender] */\n      0x00\n        /* \"Contract Conqueror/swaptoken/swap.sol\":5012:5022  msg.sender */\n      caller\n        /* \"Contract Conqueror/swaptoken/swap.sol\":5000:5023  stakingTime[msg.sender] */\n      0xffffffffffffffffffffffffffffffffffffffff\n      and\n      0xffffffffffffffffffffffffffffffffffffffff\n      and\n      dup2\n      mstore\n      0x20\n      add\n      swap1\n      dup2\n      mstore\n      0x20\n      add\n      0x00\n      keccak256\n        /* \"Contract Conqueror/swaptoken/swap.sol\":5000:5041  stakingTime[msg.sender] = block.timestamp */\n      dup2\n      swap1\n      sstore\n      pop\n        /* \"Contract Conqueror/swaptoken/swap.sol\":5074:5084  msg.sender */\n      caller\n        /* \"Contract Conqueror/swaptoken/swap.sol\":5067:5093  Staked(msg.sender, amount) */\n      0xffffffffffffffffffffffffffffffffffffffff\n      and\n      0x9e71bc8eea02a63969f509818f2dafb9254532904319f9dbda79b67bd34a5f3d\n        /* \"Contract Conqueror/swaptoken/swap.sol\":5086:5092  amount */\n      dup6\n        /* \"Contract Conqueror/swaptoken/swap.sol\":5067:5093  Staked(msg.sender, amount) */\n      mload(0x40)\n      tag_281\n      swap2\n      swap1\n      tag_46\n      jump\t// in\n    tag_281:\n      mload(0x40)\n      dup1\n      swap2\n      sub\n      swap1\n      log2\n        /* \"Contract Conqueror/swaptoken/swap.sol\":4538:5101  {... */\n      pop\n        /* \"Contract Conqueror/swaptoken/swap.sol\":2466:2467  _ */\n      pop\n        /* \"Contract Conqueror/swaptoken/swap.sol\":4417:5101  function stake(uint256 amount) ... */\n      pop\n      pop\n      jump\t// out\n        /* \"Contract Conqueror/swaptoken/swap.sol\":1045:1074  uint256 public lastUpdateTime */\n    tag_119:\n      sload(0x05)\n      dup2\n      jump\t// out\n        /* \"Contract Conqueror/swaptoken/swap.sol\":8590:8927  function setRewardsDuration(uint256 _rewardsDuration) ... */\n    tag_123:\n        /* \"Contract Conqueror/swaptoken/swap.sol\":2178:2183  owner */\n      0x00\n      0x00\n      swap1\n      sload\n      swap1\n      0x0100\n      exp\n      swap1\n      div\n      0xffffffffffffffffffffffffffffffffffffffff\n      and\n        /* \"Contract Conqueror/swaptoken/swap.sol\":2164:2183  msg.sender != owner */\n      0xffffffffffffffffffffffffffffffffffffffff\n      and\n        /* \"Contract Conqueror/swaptoken/swap.sol\":2164:2174  msg.sender */\n      caller\n        /* \"Contract Conqueror/swaptoken/swap.sol\":2164:2183  msg.sender != owner */\n      0xffffffffffffffffffffffffffffffffffffffff\n      and\n      eq\n        /* \"Contract Conqueror/swaptoken/swap.sol\":2160:2206  if (msg.sender != owner) revert Unauthorized() */\n      tag_283\n      jumpi\n        /* \"Contract Conqueror/swaptoken/swap.sol\":2192:2206  Unauthorized() */\n      mload(0x40)\n      0x82b4290000000000000000000000000000000000000000000000000000000000\n      dup2\n      mstore\n      0x04\n      add\n      mload(0x40)\n      dup1\n      swap2\n      sub\n      swap1\n      revert\n        /* \"Contract Conqueror/swaptoken/swap.sol\":2160:2206  if (msg.sender != owner) revert Unauthorized() */\n    tag_283:\n        /* \"Contract Conqueror/swaptoken/swap.sol\":8705:8721  _rewardsDuration */\n      dup1\n        /* \"Contract Conqueror/swaptoken/swap.sol\":2430:2431  0 */\n      0x00\n        /* \"Contract Conqueror/swaptoken/swap.sol\":2419:2426  _amount */\n      dup2\n        /* \"Contract Conqueror/swaptoken/swap.sol\":2419:2431  _amount == 0 */\n      sub\n        /* \"Contract Conqueror/swaptoken/swap.sol\":2415:2455  if (_amount == 0) revert InvalidAmount() */\n      tag_285\n      jumpi\n        /* \"Contract Conqueror/swaptoken/swap.sol\":2440:2455  InvalidAmount() */\n      mload(0x40)\n      0x2c5211c600000000000000000000000000000000000000000000000000000000\n      dup2\n      mstore\n      0x04\n      add\n      mload(0x40)\n      dup1\n      swap2\n      sub\n      swap1\n      revert\n        /* \"Contract Conqueror/swaptoken/swap.sol\":2415:2455  if (_amount == 0) revert InvalidAmount() */\n    tag_285:\n        /* \"Contract Conqueror/swaptoken/swap.sol\":8762:8774  periodFinish */\n      sload(0x09)\n        /* \"Contract Conqueror/swaptoken/swap.sol\":8743:8758  block.timestamp */\n      timestamp\n        /* \"Contract Conqueror/swaptoken/swap.sol\":8743:8774  block.timestamp <= periodFinish */\n      gt\n        /* \"Contract Conqueror/swaptoken/swap.sol\":8739:8808  if (block.timestamp <= periodFinish) revert RewardPeriodNotFinished() */\n      tag_287\n      jumpi\n        /* \"Contract Conqueror/swaptoken/swap.sol\":8783:8808  RewardPeriodNotFinished() */\n      mload(0x40)\n      0x9634abc100000000000000000000000000000000000000000000000000000000\n      dup2\n      mstore\n      0x04\n      add\n      mload(0x40)\n      dup1\n      swap2\n      sub\n      swap1\n      revert\n        /* \"Contract Conqueror/swaptoken/swap.sol\":8739:8808  if (block.timestamp <= periodFinish) revert RewardPeriodNotFinished() */\n    tag_287:\n        /* \"Contract Conqueror/swaptoken/swap.sol\":8847:8863  _rewardsDuration */\n      dup2\n        /* \"Contract Conqueror/swaptoken/swap.sol\":8829:8844  rewardsDuration */\n      0x08\n        /* \"Contract Conqueror/swaptoken/swap.sol\":8829:8863  rewardsDuration = _rewardsDuration */\n      dup2\n      swap1\n      sstore\n      pop\n        /* \"Contract Conqueror/swaptoken/swap.sol\":8879:8919  RewardsDurationUpdated(_rewardsDuration) */\n      0xfb46ca5a5e06d4540d6387b930a7c978bce0db5f449ec6b3f5d07c6e1d44f2d3\n        /* \"Contract Conqueror/swaptoken/swap.sol\":8902:8918  _rewardsDuration */\n      dup3\n        /* \"Contract Conqueror/swaptoken/swap.sol\":8879:8919  RewardsDurationUpdated(_rewardsDuration) */\n      mload(0x40)\n      tag_288\n      swap2\n      swap1\n      tag_46\n      jump\t// in\n    tag_288:\n      mload(0x40)\n      dup1\n      swap2\n      sub\n      swap1\n      log1\n        /* \"Contract Conqueror/swaptoken/swap.sol\":2217:2218  _ */\n      pop\n        /* \"Contract Conqueror/swaptoken/swap.sol\":8590:8927  function setRewardsDuration(uint256 _rewardsDuration) ... */\n      pop\n      jump\t// out\n        /* \"Contract Conqueror/swaptoken/swap.sol\":3557:3845  function rewardPerToken() public view returns (uint256) {... */\n    tag_125:\n        /* \"Contract Conqueror/swaptoken/swap.sol\":3604:3611  uint256 */\n      0x00\n        /* \"Contract Conqueror/swaptoken/swap.sol\":3643:3644  0 */\n      0x00\n        /* \"Contract Conqueror/swaptoken/swap.sol\":3628:3639  totalStaked */\n      sload(0x07)\n        /* \"Contract Conqueror/swaptoken/swap.sol\":3628:3644  totalStaked == 0 */\n      sub\n        /* \"Contract Conqueror/swaptoken/swap.sol\":3624:3700  if (totalStaked == 0) {... */\n      tag_290\n      jumpi\n        /* \"Contract Conqueror/swaptoken/swap.sol\":3668:3688  rewardPerTokenStored */\n      sload(0x06)\n        /* \"Contract Conqueror/swaptoken/swap.sol\":3661:3688  return rewardPerTokenStored */\n      swap1\n      pop\n      jump(tag_289)\n        /* \"Contract Conqueror/swaptoken/swap.sol\":3624:3700  if (totalStaked == 0) {... */\n    tag_290:\n        /* \"Contract Conqueror/swaptoken/swap.sol\":3825:3836  totalStaked */\n      sload(0x07)\n        /* \"Contract Conqueror/swaptoken/swap.sol\":3817:3821  1e18 */\n      0x0de0b6b3a7640000\n        /* \"Contract Conqueror/swaptoken/swap.sol\":3804:3814  rewardRate */\n      sload(0x04)\n        /* \"Contract Conqueror/swaptoken/swap.sol\":3786:3800  lastUpdateTime */\n      sload(0x05)\n        /* \"Contract Conqueror/swaptoken/swap.sol\":3757:3783  lastTimeRewardApplicable() */\n      tag_291\n        /* \"Contract Conqueror/swaptoken/swap.sol\":3757:3781  lastTimeRewardApplicable */\n      tag_96\n        /* \"Contract Conqueror/swaptoken/swap.sol\":3757:3783  lastTimeRewardApplicable() */\n      jump\t// in\n    tag_291:\n        /* \"Contract Conqueror/swaptoken/swap.sol\":3757:3800  lastTimeRewardApplicable() - lastUpdateTime */\n      tag_292\n      swap2\n      swap1\n      tag_146\n      jump\t// in\n    tag_292:\n        /* \"Contract Conqueror/swaptoken/swap.sol\":3756:3814  (lastTimeRewardApplicable() - lastUpdateTime) * rewardRate */\n      tag_293\n      swap2\n      swap1\n      tag_148\n      jump\t// in\n    tag_293:\n        /* \"Contract Conqueror/swaptoken/swap.sol\":3756:3821  (lastTimeRewardApplicable() - lastUpdateTime) * rewardRate * 1e18 */\n      tag_294\n      swap2\n      swap1\n      tag_148\n      jump\t// in\n    tag_294:\n        /* \"Contract Conqueror/swaptoken/swap.sol\":3755:3836  ((lastTimeRewardApplicable() - lastUpdateTime) * rewardRate * 1e18) / totalStaked */\n      tag_295\n      swap2\n      swap1\n      tag_150\n      jump\t// in\n    tag_295:\n        /* \"Contract Conqueror/swaptoken/swap.sol\":3717:3737  rewardPerTokenStored */\n      sload(0x06)\n        /* \"Contract Conqueror/swaptoken/swap.sol\":3717:3837  rewardPerTokenStored + ... */\n      tag_296\n      swap2\n      swap1\n      tag_152\n      jump\t// in\n    tag_296:\n        /* \"Contract Conqueror/swaptoken/swap.sol\":3710:3837  return rewardPerTokenStored + ... */\n      swap1\n      pop\n        /* \"Contract Conqueror/swaptoken/swap.sol\":3557:3845  function rewardPerToken() public view returns (uint256) {... */\n    tag_289:\n      swap1\n      jump\t// out\n        /* \"Contract Conqueror/swaptoken/swap.sol\":1081:1116  uint256 public rewardPerTokenStored */\n    tag_128:\n      sload(0x06)\n      dup2\n      jump\t// out\n        /* \"Contract Conqueror/swaptoken/swap.sol\":7098:7199  function exit() external {... */\n    tag_131:\n        /* \"Contract Conqueror/swaptoken/swap.sol\":7134:7169  withdraw(stakedBalance[msg.sender]) */\n      tag_298\n        /* \"Contract Conqueror/swaptoken/swap.sol\":7143:7156  stakedBalance */\n      0x0a\n        /* \"Contract Conqueror/swaptoken/swap.sol\":7143:7168  stakedBalance[msg.sender] */\n      0x00\n        /* \"Contract Conqueror/swaptoken/swap.sol\":7157:7167  msg.sender */\n      caller\n        /* \"Contract Conqueror/swaptoken/swap.sol\":7143:7168  stakedBalance[msg.sender] */\n      0xffffffffffffffffffffffffffffffffffffffff\n      and\n      0xffffffffffffffffffffffffffffffffffffffff\n      and\n      dup2\n      mstore\n      0x20\n      add\n      swap1\n      dup2\n      mstore\n      0x20\n      add\n      0x00\n      keccak256\n      sload\n        /* \"Contract Conqueror/swaptoken/swap.sol\":7134:7142  withdraw */\n      tag_66\n        /* \"Contract Conqueror/swaptoken/swap.sol\":7134:7169  withdraw(stakedBalance[msg.sender]) */\n      jump\t// in\n    tag_298:\n        /* \"Contract Conqueror/swaptoken/swap.sol\":7180:7191  getReward() */\n      tag_299\n        /* \"Contract Conqueror/swaptoken/swap.sol\":7180:7189  getReward */\n      tag_74\n        /* \"Contract Conqueror/swaptoken/swap.sol\":7180:7191  getReward() */\n      jump\t// in\n    tag_299:\n        /* \"Contract Conqueror/swaptoken/swap.sol\":7098:7199  function exit() external {... */\n      jump\t// out\n        /* \"Contract Conqueror/swaptoken/swap.sol\":1220:1247  uint256 public periodFinish */\n    tag_133:\n      sload(0x09)\n      dup2\n      jump\t// out\n        /* \"Contract Conqueror/swaptoken/swap.sol\":10491:10613  function transferOwnership(address newOwner) external onlyOwner validAddress(newOwner) {... */\n    tag_137:\n        /* \"Contract Conqueror/swaptoken/swap.sol\":2178:2183  owner */\n      0x00\n      0x00\n      swap1\n      sload\n      swap1\n      0x0100\n      exp\n      swap1\n      div\n      0xffffffffffffffffffffffffffffffffffffffff\n      and\n        /* \"Contract Conqueror/swaptoken/swap.sol\":2164:2183  msg.sender != owner */\n      0xffffffffffffffffffffffffffffffffffffffff\n      and\n        /* \"Contract Conqueror/swaptoken/swap.sol\":2164:2174  msg.sender */\n      caller\n        /* \"Contract Conqueror/swaptoken/swap.sol\":2164:2183  msg.sender != owner */\n      0xffffffffffffffffffffffffffffffffffffffff\n      and\n      eq\n        /* \"Contract Conqueror/swaptoken/swap.sol\":2160:2206  if (msg.sender != owner) revert Unauthorized() */\n      tag_301\n      jumpi\n        /* \"Contract Conqueror/swaptoken/swap.sol\":2192:2206  Unauthorized() */\n      mload(0x40)\n      0x82b4290000000000000000000000000000000000000000000000000000000000\n      dup2\n      mstore\n      0x04\n      add\n      mload(0x40)\n      dup1\n      swap2\n      sub\n      swap1\n      revert\n        /* \"Contract Conqueror/swaptoken/swap.sol\":2160:2206  if (msg.sender != owner) revert Unauthorized() */\n    tag_301:\n        /* \"Contract Conqueror/swaptoken/swap.sol\":10568:10576  newOwner */\n      dup1\n        /* \"Contract Conqueror/swaptoken/swap.sol\":2307:2308  0 */\n      0x00\n        /* \"Contract Conqueror/swaptoken/swap.sol\":2290:2309  _addr == address(0) */\n      0xffffffffffffffffffffffffffffffffffffffff\n      and\n        /* \"Contract Conqueror/swaptoken/swap.sol\":2290:2295  _addr */\n      dup2\n        /* \"Contract Conqueror/swaptoken/swap.sol\":2290:2309  _addr == address(0) */\n      0xffffffffffffffffffffffffffffffffffffffff\n      and\n      sub\n        /* \"Contract Conqueror/swaptoken/swap.sol\":2286:2334  if (_addr == address(0)) revert InvalidAddress() */\n      tag_303\n      jumpi\n        /* \"Contract Conqueror/swaptoken/swap.sol\":2318:2334  InvalidAddress() */\n      mload(0x40)\n      0xe6c4247b00000000000000000000000000000000000000000000000000000000\n      dup2\n      mstore\n      0x04\n      add\n      mload(0x40)\n      dup1\n      swap2\n      sub\n      swap1\n      revert\n        /* \"Contract Conqueror/swaptoken/swap.sol\":2286:2334  if (_addr == address(0)) revert InvalidAddress() */\n    tag_303:\n        /* \"Contract Conqueror/swaptoken/swap.sol\":10597:10605  newOwner */\n      dup2\n        /* \"Contract Conqueror/swaptoken/swap.sol\":10589:10594  owner */\n      0x00\n      0x00\n        /* \"Contract Conqueror/swaptoken/swap.sol\":10589:10605  owner = newOwner */\n      0x0100\n      exp\n      dup2\n      sload\n      dup2\n      0xffffffffffffffffffffffffffffffffffffffff\n      mul\n      not\n      and\n      swap1\n      dup4\n      0xffffffffffffffffffffffffffffffffffffffff\n      and\n      mul\n      or\n      swap1\n      sstore\n      pop\n        /* \"Contract Conqueror/swaptoken/swap.sol\":2217:2218  _ */\n      pop\n        /* \"Contract Conqueror/swaptoken/swap.sol\":10491:10613  function transferOwnership(address newOwner) external onlyOwner validAddress(newOwner) {... */\n      pop\n      jump\t// out\n        /* \"Contract Conqueror/swaptoken/swap.sol\":920:946  address public rewardToken */\n    tag_139:\n      0x02\n      0x00\n      swap1\n      sload\n      swap1\n      0x0100\n      exp\n      swap1\n      div\n      0xffffffffffffffffffffffffffffffffffffffff\n      and\n      dup2\n      jump\t// out\n        /* \"Contract Conqueror/swaptoken/swap.sol\":6220:7003  function getRewardAndSwap() public  updateReward(msg.sender) {... */\n    tag_142:\n        /* \"Contract Conqueror/swaptoken/swap.sol\":6269:6279  msg.sender */\n      caller\n        /* \"Contract Conqueror/swaptoken/swap.sol\":2560:2576  rewardPerToken() */\n      tag_306\n        /* \"Contract Conqueror/swaptoken/swap.sol\":2560:2574  rewardPerToken */\n      tag_125\n        /* \"Contract Conqueror/swaptoken/swap.sol\":2560:2576  rewardPerToken() */\n      jump\t// in\n    tag_306:\n        /* \"Contract Conqueror/swaptoken/swap.sol\":2537:2557  rewardPerTokenStored */\n      0x06\n        /* \"Contract Conqueror/swaptoken/swap.sol\":2537:2576  rewardPerTokenStored = rewardPerToken() */\n      dup2\n      swap1\n      sstore\n      pop\n        /* \"Contract Conqueror/swaptoken/swap.sol\":2604:2630  lastTimeRewardApplicable() */\n      tag_307\n        /* \"Contract Conqueror/swaptoken/swap.sol\":2604:2628  lastTimeRewardApplicable */\n      tag_96\n        /* \"Contract Conqueror/swaptoken/swap.sol\":2604:2630  lastTimeRewardApplicable() */\n      jump\t// in\n    tag_307:\n        /* \"Contract Conqueror/swaptoken/swap.sol\":2587:2601  lastUpdateTime */\n      0x05\n        /* \"Contract Conqueror/swaptoken/swap.sol\":2587:2630  lastUpdateTime = lastTimeRewardApplicable() */\n      dup2\n      swap1\n      sstore\n      pop\n        /* \"Contract Conqueror/swaptoken/swap.sol\":2674:2675  0 */\n      0x00\n        /* \"Contract Conqueror/swaptoken/swap.sol\":2655:2676  account != address(0) */\n      0xffffffffffffffffffffffffffffffffffffffff\n      and\n        /* \"Contract Conqueror/swaptoken/swap.sol\":2655:2662  account */\n      dup2\n        /* \"Contract Conqueror/swaptoken/swap.sol\":2655:2676  account != address(0) */\n      0xffffffffffffffffffffffffffffffffffffffff\n      and\n      eq\n        /* \"Contract Conqueror/swaptoken/swap.sol\":2651:2808  if (account != address(0)) {... */\n      tag_308\n      jumpi\n        /* \"Contract Conqueror/swaptoken/swap.sol\":2712:2727  earned(account) */\n      tag_309\n        /* \"Contract Conqueror/swaptoken/swap.sol\":2719:2726  account */\n      dup2\n        /* \"Contract Conqueror/swaptoken/swap.sol\":2712:2718  earned */\n      tag_44\n        /* \"Contract Conqueror/swaptoken/swap.sol\":2712:2727  earned(account) */\n      jump\t// in\n    tag_309:\n        /* \"Contract Conqueror/swaptoken/swap.sol\":2693:2700  rewards */\n      0x0c\n        /* \"Contract Conqueror/swaptoken/swap.sol\":2693:2709  rewards[account] */\n      0x00\n        /* \"Contract Conqueror/swaptoken/swap.sol\":2701:2708  account */\n      dup4\n        /* \"Contract Conqueror/swaptoken/swap.sol\":2693:2709  rewards[account] */\n      0xffffffffffffffffffffffffffffffffffffffff\n      and\n      0xffffffffffffffffffffffffffffffffffffffff\n      and\n      dup2\n      mstore\n      0x20\n      add\n      swap1\n      dup2\n      mstore\n      0x20\n      add\n      0x00\n      keccak256\n        /* \"Contract Conqueror/swaptoken/swap.sol\":2693:2727  rewards[account] = earned(account) */\n      dup2\n      swap1\n      sstore\n      pop\n        /* \"Contract Conqueror/swaptoken/swap.sol\":2776:2796  rewardPerTokenStored */\n      sload(0x06)\n        /* \"Contract Conqueror/swaptoken/swap.sol\":2742:2764  userRewardPerTokenPaid */\n      0x0b\n        /* \"Contract Conqueror/swaptoken/swap.sol\":2742:2773  userRewardPerTokenPaid[account] */\n      0x00\n        /* \"Contract Conqueror/swaptoken/swap.sol\":2765:2772  account */\n      dup4\n        /* \"Contract Conqueror/swaptoken/swap.sol\":2742:2773  userRewardPerTokenPaid[account] */\n      0xffffffffffffffffffffffffffffffffffffffff\n      and\n      0xffffffffffffffffffffffffffffffffffffffff\n      and\n      dup2\n      mstore\n      0x20\n      add\n      swap1\n      dup2\n      mstore\n      0x20\n      add\n      0x00\n      keccak256\n        /* \"Contract Conqueror/swaptoken/swap.sol\":2742:2796  userRewardPerTokenPaid[account] = rewardPerTokenStored */\n      dup2\n      swap1\n      sstore\n      pop\n        /* \"Contract Conqueror/swaptoken/swap.sol\":2651:2808  if (account != address(0)) {... */\n    tag_308:\n        /* \"Contract Conqueror/swaptoken/swap.sol\":6292:6306  uint256 reward */\n      0x00\n        /* \"Contract Conqueror/swaptoken/swap.sol\":6309:6316  rewards */\n      0x0c\n        /* \"Contract Conqueror/swaptoken/swap.sol\":6309:6328  rewards[msg.sender] */\n      0x00\n        /* \"Contract Conqueror/swaptoken/swap.sol\":6317:6327  msg.sender */\n      caller\n        /* \"Contract Conqueror/swaptoken/swap.sol\":6309:6328  rewards[msg.sender] */\n      0xffffffffffffffffffffffffffffffffffffffff\n      and\n      0xffffffffffffffffffffffffffffffffffffffff\n      and\n      dup2\n      mstore\n      0x20\n      add\n      swap1\n      dup2\n      mstore\n      0x20\n      add\n      0x00\n      keccak256\n      sload\n        /* \"Contract Conqueror/swaptoken/swap.sol\":6292:6328  uint256 reward = rewards[msg.sender] */\n      swap1\n      pop\n        /* \"Contract Conqueror/swaptoken/swap.sol\":6353:6354  0 */\n      0x00\n        /* \"Contract Conqueror/swaptoken/swap.sol\":6343:6349  reward */\n      dup2\n        /* \"Contract Conqueror/swaptoken/swap.sol\":6343:6354  reward == 0 */\n      sub\n        /* \"Contract Conqueror/swaptoken/swap.sol\":6339:6374  if (reward == 0) revert NoRewards() */\n      tag_311\n      jumpi\n        /* \"Contract Conqueror/swaptoken/swap.sol\":6363:6374  NoRewards() */\n      mload(0x40)\n      0x3fb087f400000000000000000000000000000000000000000000000000000000\n      dup2\n      mstore\n      0x04\n      add\n      mload(0x40)\n      dup1\n      swap2\n      sub\n      swap1\n      revert\n        /* \"Contract Conqueror/swaptoken/swap.sol\":6339:6374  if (reward == 0) revert NoRewards() */\n    tag_311:\n        /* \"Contract Conqueror/swaptoken/swap.sol\":6411:6412  0 */\n      0x00\n        /* \"Contract Conqueror/swaptoken/swap.sol\":6389:6413  simpleSwap == address(0) */\n      0xffffffffffffffffffffffffffffffffffffffff\n      and\n        /* \"Contract Conqueror/swaptoken/swap.sol\":6389:6399  simpleSwap */\n      0x03\n      0x00\n      swap1\n      sload\n      swap1\n      0x0100\n      exp\n      swap1\n      div\n      0xffffffffffffffffffffffffffffffffffffffff\n      and\n        /* \"Contract Conqueror/swaptoken/swap.sol\":6389:6413  simpleSwap == address(0) */\n      0xffffffffffffffffffffffffffffffffffffffff\n      and\n      sub\n        /* \"Contract Conqueror/swaptoken/swap.sol\":6385:6438  if (simpleSwap == address(0)) revert InvalidAddress() */\n      tag_312\n      jumpi\n        /* \"Contract Conqueror/swaptoken/swap.sol\":6422:6438  InvalidAddress() */\n      mload(0x40)\n      0xe6c4247b00000000000000000000000000000000000000000000000000000000\n      dup2\n      mstore\n      0x04\n      add\n      mload(0x40)\n      dup1\n      swap2\n      sub\n      swap1\n      revert\n        /* \"Contract Conqueror/swaptoken/swap.sol\":6385:6438  if (simpleSwap == address(0)) revert InvalidAddress() */\n    tag_312:\n        /* \"Contract Conqueror/swaptoken/swap.sol\":6481:6482  0 */\n      0x00\n        /* \"Contract Conqueror/swaptoken/swap.sol\":6459:6466  rewards */\n      0x0c\n        /* \"Contract Conqueror/swaptoken/swap.sol\":6459:6478  rewards[msg.sender] */\n      0x00\n        /* \"Contract Conqueror/swaptoken/swap.sol\":6467:6477  msg.sender */\n      caller\n        /* \"Contract Conqueror/swaptoken/swap.sol\":6459:6478  rewards[msg.sender] */\n      0xffffffffffffffffffffffffffffffffffffffff\n      and\n      0xffffffffffffffffffffffffffffffffffffffff\n      and\n      dup2\n      mstore\n      0x20\n      add\n      swap1\n      dup2\n      mstore\n      0x20\n      add\n      0x00\n      keccak256\n        /* \"Contract Conqueror/swaptoken/swap.sol\":6459:6482  rewards[msg.sender] = 0 */\n      dup2\n      swap1\n      sstore\n      pop\n        /* \"Contract Conqueror/swaptoken/swap.sol\":6569:6580  rewardToken */\n      0x02\n      0x00\n      swap1\n      sload\n      swap1\n      0x0100\n      exp\n      swap1\n      div\n      0xffffffffffffffffffffffffffffffffffffffff\n      and\n        /* \"Contract Conqueror/swaptoken/swap.sol\":6562:6589  IERC20(rewardToken).approve */\n      0xffffffffffffffffffffffffffffffffffffffff\n      and\n      0x095ea7b3\n        /* \"Contract Conqueror/swaptoken/swap.sol\":6590:6600  simpleSwap */\n      0x03\n      0x00\n      swap1\n      sload\n      swap1\n      0x0100\n      exp\n      swap1\n      div\n      0xffffffffffffffffffffffffffffffffffffffff\n      and\n        /* \"Contract Conqueror/swaptoken/swap.sol\":6602:6608  reward */\n      dup4\n        /* \"Contract Conqueror/swaptoken/swap.sol\":6562:6609  IERC20(rewardToken).approve(simpleSwap, reward) */\n      mload(0x40)\n      dup4\n      0xffffffff\n      and\n      0xe0\n      shl\n      dup2\n      mstore\n      0x04\n      add\n      tag_313\n      swap3\n      swap2\n      swap1\n      tag_183\n      jump\t// in\n    tag_313:\n      0x20\n      mload(0x40)\n      dup1\n      dup4\n      sub\n      dup2\n      0x00\n      dup8\n      gas\n      call\n      iszero\n      dup1\n      iszero\n      tag_315\n      jumpi\n      returndatacopy(0x00, 0x00, returndatasize)\n      revert(0x00, returndatasize)\n    tag_315:\n      pop\n      pop\n      pop\n      pop\n      mload(0x40)\n      returndatasize\n      not(0x1f)\n      0x1f\n      dup3\n      add\n      and\n      dup3\n      add\n      dup1\n      0x40\n      mstore\n      pop\n      dup2\n      add\n      swap1\n      tag_316\n      swap2\n      swap1\n      tag_187\n      jump\t// in\n    tag_316:\n        /* \"Contract Conqueror/swaptoken/swap.sol\":6557:6661  if (!IERC20(rewardToken).approve(simpleSwap, reward)) {... */\n      tag_317\n      jumpi\n        /* \"Contract Conqueror/swaptoken/swap.sol\":6633:6649  TransferFailed() */\n      mload(0x40)\n      0x90b8ec1800000000000000000000000000000000000000000000000000000000\n      dup2\n      mstore\n      0x04\n      add\n      mload(0x40)\n      dup1\n      swap2\n      sub\n      swap1\n      revert\n        /* \"Contract Conqueror/swaptoken/swap.sol\":6557:6661  if (!IERC20(rewardToken).approve(simpleSwap, reward)) {... */\n    tag_317:\n        /* \"Contract Conqueror/swaptoken/swap.sol\":6731:6752  uint256 swappedAmount */\n      0x00\n        /* \"Contract Conqueror/swaptoken/swap.sol\":6767:6777  simpleSwap */\n      0x03\n      0x00\n      swap1\n      sload\n      swap1\n      0x0100\n      exp\n      swap1\n      div\n      0xffffffffffffffffffffffffffffffffffffffff\n      and\n        /* \"Contract Conqueror/swaptoken/swap.sol\":6755:6789  ISimpleSwap(simpleSwap).swapTokens */\n      0xffffffffffffffffffffffffffffffffffffffff\n      and\n      0xec6cc0cc\n        /* \"Contract Conqueror/swaptoken/swap.sol\":6804:6815  rewardToken */\n      0x02\n      0x00\n      swap1\n      sload\n      swap1\n      0x0100\n      exp\n      swap1\n      div\n      0xffffffffffffffffffffffffffffffffffffffff\n      and\n        /* \"Contract Conqueror/swaptoken/swap.sol\":6830:6842  stakingToken */\n      0x01\n      0x00\n      swap1\n      sload\n      swap1\n      0x0100\n      exp\n      swap1\n      div\n      0xffffffffffffffffffffffffffffffffffffffff\n      and\n        /* \"Contract Conqueror/swaptoken/swap.sol\":6857:6863  reward */\n      dup6\n        /* \"Contract Conqueror/swaptoken/swap.sol\":6755:6874  ISimpleSwap(simpleSwap).swapTokens(... */\n      mload(0x40)\n      dup5\n      0xffffffff\n      and\n      0xe0\n      shl\n      dup2\n      mstore\n      0x04\n      add\n      tag_318\n      swap4\n      swap3\n      swap2\n      swap1\n      tag_158\n      jump\t// in\n    tag_318:\n      0x20\n      mload(0x40)\n      dup1\n      dup4\n      sub\n      dup2\n      0x00\n      dup8\n      gas\n      call\n      iszero\n      dup1\n      iszero\n      tag_320\n      jumpi\n      returndatacopy(0x00, 0x00, returndatasize)\n      revert(0x00, returndatasize)\n    tag_320:\n      pop\n      pop\n      pop\n      pop\n      mload(0x40)\n      returndatasize\n      not(0x1f)\n      0x1f\n      dup3\n      add\n      and\n      dup3\n      add\n      dup1\n      0x40\n      mstore\n      pop\n      dup2\n      add\n      swap1\n      tag_321\n      swap2\n      swap1\n      tag_162\n      jump\t// in\n    tag_321:\n        /* \"Contract Conqueror/swaptoken/swap.sol\":6731:6874  uint256 swappedAmount = ISimpleSwap(simpleSwap).swapTokens(... */\n      swap1\n      pop\n        /* \"Contract Conqueror/swaptoken/swap.sol\":6911:6921  msg.sender */\n      caller\n        /* \"Contract Conqueror/swaptoken/swap.sol\":6900:6930  RewardPaid(msg.sender, reward) */\n      0xffffffffffffffffffffffffffffffffffffffff\n      and\n      0xe2403640ba68fed3a2f88b7557551d1993f84b99bb10ff833f0cf8db0c5e0486\n        /* \"Contract Conqueror/swaptoken/swap.sol\":6923:6929  reward */\n      dup4\n        /* \"Contract Conqueror/swaptoken/swap.sol\":6900:6930  RewardPaid(msg.sender, reward) */\n      mload(0x40)\n      tag_322\n      swap2\n      swap1\n      tag_46\n      jump\t// in\n    tag_322:\n      mload(0x40)\n      dup1\n      swap2\n      sub\n      swap1\n      log2\n        /* \"Contract Conqueror/swaptoken/swap.sol\":6961:6971  msg.sender */\n      caller\n        /* \"Contract Conqueror/swaptoken/swap.sol\":6946:6995  SwappedRewards(msg.sender, reward, swappedAmount) */\n      0xffffffffffffffffffffffffffffffffffffffff\n      and\n      0x3db0354f0c91dc092813e532740020eb4752968fa4302b450af365fda1827ef7\n        /* \"Contract Conqueror/swaptoken/swap.sol\":6973:6979  reward */\n      dup4\n        /* \"Contract Conqueror/swaptoken/swap.sol\":6981:6994  swappedAmount */\n      dup4\n        /* \"Contract Conqueror/swaptoken/swap.sol\":6946:6995  SwappedRewards(msg.sender, reward, swappedAmount) */\n      mload(0x40)\n      tag_323\n      swap3\n      swap2\n      swap1\n      tag_324\n      jump\t// in\n    tag_323:\n      mload(0x40)\n      dup1\n      swap2\n      sub\n      swap1\n      log2\n        /* \"Contract Conqueror/swaptoken/swap.sol\":6281:7003  {... */\n      pop\n      pop\n        /* \"Contract Conqueror/swaptoken/swap.sol\":6220:7003  function getRewardAndSwap() public  updateReward(msg.sender) {... */\n      pop\n      jump\t// out\n        /* \"#utility.yul\":88:205   */\n    tag_326:\n        /* \"#utility.yul\":197:198   */\n      0x00\n        /* \"#utility.yul\":194:195   */\n      0x00\n        /* \"#utility.yul\":187:199   */\n      revert\n        /* \"#utility.yul\":334:460   */\n    tag_328:\n        /* \"#utility.yul\":371:378   */\n      0x00\n        /* \"#utility.yul\":411:453   */\n      0xffffffffffffffffffffffffffffffffffffffff\n        /* \"#utility.yul\":404:409   */\n      dup3\n        /* \"#utility.yul\":400:454   */\n      and\n        /* \"#utility.yul\":389:454   */\n      swap1\n      pop\n        /* \"#utility.yul\":334:460   */\n      swap2\n      swap1\n      pop\n      jump\t// out\n        /* \"#utility.yul\":466:562   */\n    tag_329:\n        /* \"#utility.yul\":503:510   */\n      0x00\n        /* \"#utility.yul\":532:556   */\n      tag_349\n        /* \"#utility.yul\":550:555   */\n      dup3\n        /* \"#utility.yul\":532:556   */\n      tag_328\n      jump\t// in\n    tag_349:\n        /* \"#utility.yul\":521:556   */\n      swap1\n      pop\n        /* \"#utility.yul\":466:562   */\n      swap2\n      swap1\n      pop\n      jump\t// out\n        /* \"#utility.yul\":568:690   */\n    tag_330:\n        /* \"#utility.yul\":641:665   */\n      tag_351\n        /* \"#utility.yul\":659:664   */\n      dup2\n        /* \"#utility.yul\":641:665   */\n      tag_329\n      jump\t// in\n    tag_351:\n        /* \"#utility.yul\":634:639   */\n      dup2\n        /* \"#utility.yul\":631:666   */\n      eq\n        /* \"#utility.yul\":621:684   */\n      tag_352\n      jumpi\n        /* \"#utility.yul\":680:681   */\n      0x00\n        /* \"#utility.yul\":677:678   */\n      0x00\n        /* \"#utility.yul\":670:682   */\n      revert\n        /* \"#utility.yul\":621:684   */\n    tag_352:\n        /* \"#utility.yul\":568:690   */\n      pop\n      jump\t// out\n        /* \"#utility.yul\":696:835   */\n    tag_331:\n        /* \"#utility.yul\":742:747   */\n      0x00\n        /* \"#utility.yul\":780:786   */\n      dup2\n        /* \"#utility.yul\":767:787   */\n      calldataload\n        /* \"#utility.yul\":758:787   */\n      swap1\n      pop\n        /* \"#utility.yul\":796:829   */\n      tag_354\n        /* \"#utility.yul\":823:828   */\n      dup2\n        /* \"#utility.yul\":796:829   */\n      tag_330\n      jump\t// in\n    tag_354:\n        /* \"#utility.yul\":696:835   */\n      swap3\n      swap2\n      pop\n      pop\n      jump\t// out\n        /* \"#utility.yul\":841:1170   */\n    tag_43:\n        /* \"#utility.yul\":900:906   */\n      0x00\n        /* \"#utility.yul\":949:951   */\n      0x20\n        /* \"#utility.yul\":937:946   */\n      dup3\n        /* \"#utility.yul\":928:935   */\n      dup5\n        /* \"#utility.yul\":924:947   */\n      sub\n        /* \"#utility.yul\":920:952   */\n      slt\n        /* \"#utility.yul\":917:1036   */\n      iszero\n      tag_356\n      jumpi\n        /* \"#utility.yul\":955:1034   */\n      tag_357\n      tag_326\n      jump\t// in\n    tag_357:\n        /* \"#utility.yul\":917:1036   */\n    tag_356:\n        /* \"#utility.yul\":1075:1076   */\n      0x00\n        /* \"#utility.yul\":1100:1153   */\n      tag_358\n        /* \"#utility.yul\":1145:1152   */\n      dup5\n        /* \"#utility.yul\":1136:1142   */\n      dup3\n        /* \"#utility.yul\":1125:1134   */\n      dup6\n        /* \"#utility.yul\":1121:1143   */\n      add\n        /* \"#utility.yul\":1100:1153   */\n      tag_331\n      jump\t// in\n    tag_358:\n        /* \"#utility.yul\":1090:1153   */\n      swap2\n      pop\n        /* \"#utility.yul\":1046:1163   */\n      pop\n        /* \"#utility.yul\":841:1170   */\n      swap3\n      swap2\n      pop\n      pop\n      jump\t// out\n        /* \"#utility.yul\":1176:1253   */\n    tag_332:\n        /* \"#utility.yul\":1213:1220   */\n      0x00\n        /* \"#utility.yul\":1242:1247   */\n      dup2\n        /* \"#utility.yul\":1231:1247   */\n      swap1\n      pop\n        /* \"#utility.yul\":1176:1253   */\n      swap2\n      swap1\n      pop\n      jump\t// out\n        /* \"#utility.yul\":1259:1377   */\n    tag_333:\n        /* \"#utility.yul\":1346:1370   */\n      tag_361\n        /* \"#utility.yul\":1364:1369   */\n      dup2\n        /* \"#utility.yul\":1346:1370   */\n      tag_332\n      jump\t// in\n    tag_361:\n        /* \"#utility.yul\":1341:1344   */\n      dup3\n        /* \"#utility.yul\":1334:1371   */\n      mstore\n        /* \"#utility.yul\":1259:1377   */\n      pop\n      pop\n      jump\t// out\n        /* \"#utility.yul\":1383:1605   */\n    tag_46:\n        /* \"#utility.yul\":1476:1480   */\n      0x00\n        /* \"#utility.yul\":1514:1516   */\n      0x20\n        /* \"#utility.yul\":1503:1512   */\n      dup3\n        /* \"#utility.yul\":1499:1517   */\n      add\n        /* \"#utility.yul\":1491:1517   */\n      swap1\n      pop\n        /* \"#utility.yul\":1527:1598   */\n      tag_363\n        /* \"#utility.yul\":1595:1596   */\n      0x00\n        /* \"#utility.yul\":1584:1593   */\n      dup4\n        /* \"#utility.yul\":1580:1597   */\n      add\n        /* \"#utility.yul\":1571:1577   */\n      dup5\n        /* \"#utility.yul\":1527:1598   */\n      tag_333\n      jump\t// in\n    tag_363:\n        /* \"#utility.yul\":1383:1605   */\n      swap3\n      swap2\n      pop\n      pop\n      jump\t// out\n        /* \"#utility.yul\":1611:1733   */\n    tag_334:\n        /* \"#utility.yul\":1684:1708   */\n      tag_365\n        /* \"#utility.yul\":1702:1707   */\n      dup2\n        /* \"#utility.yul\":1684:1708   */\n      tag_332\n      jump\t// in\n    tag_365:\n        /* \"#utility.yul\":1677:1682   */\n      dup2\n        /* \"#utility.yul\":1674:1709   */\n      eq\n        /* \"#utility.yul\":1664:1727   */\n      tag_366\n      jumpi\n        /* \"#utility.yul\":1723:1724   */\n      0x00\n        /* \"#utility.yul\":1720:1721   */\n      0x00\n        /* \"#utility.yul\":1713:1725   */\n      revert\n        /* \"#utility.yul\":1664:1727   */\n    tag_366:\n        /* \"#utility.yul\":1611:1733   */\n      pop\n      jump\t// out\n        /* \"#utility.yul\":1739:1878   */\n    tag_335:\n        /* \"#utility.yul\":1785:1790   */\n      0x00\n        /* \"#utility.yul\":1823:1829   */\n      dup2\n        /* \"#utility.yul\":1810:1830   */\n      calldataload\n        /* \"#utility.yul\":1801:1830   */\n      swap1\n      pop\n        /* \"#utility.yul\":1839:1872   */\n      tag_368\n        /* \"#utility.yul\":1866:1871   */\n      dup2\n        /* \"#utility.yul\":1839:1872   */\n      tag_334\n      jump\t// in\n    tag_368:\n        /* \"#utility.yul\":1739:1878   */\n      swap3\n      swap2\n      pop\n      pop\n      jump\t// out\n        /* \"#utility.yul\":1884:2213   */\n    tag_65:\n        /* \"#utility.yul\":1943:1949   */\n      0x00\n        /* \"#utility.yul\":1992:1994   */\n      0x20\n        /* \"#utility.yul\":1980:1989   */\n      dup3\n        /* \"#utility.yul\":1971:1978   */\n      dup5\n        /* \"#utility.yul\":1967:1990   */\n      sub\n        /* \"#utility.yul\":1963:1995   */\n      slt\n        /* \"#utility.yul\":1960:2079   */\n      iszero\n      tag_370\n      jumpi\n        /* \"#utility.yul\":1998:2077   */\n      tag_371\n      tag_326\n      jump\t// in\n    tag_371:\n        /* \"#utility.yul\":1960:2079   */\n    tag_370:\n        /* \"#utility.yul\":2118:2119   */\n      0x00\n        /* \"#utility.yul\":2143:2196   */\n      tag_372\n        /* \"#utility.yul\":2188:2195   */\n      dup5\n        /* \"#utility.yul\":2179:2185   */\n      dup3\n        /* \"#utility.yul\":2168:2177   */\n      dup6\n        /* \"#utility.yul\":2164:2186   */\n      add\n        /* \"#utility.yul\":2143:2196   */\n      tag_335\n      jump\t// in\n    tag_372:\n        /* \"#utility.yul\":2133:2196   */\n      swap2\n      pop\n        /* \"#utility.yul\":2089:2206   */\n      pop\n        /* \"#utility.yul\":1884:2213   */\n      swap3\n      swap2\n      pop\n      pop\n      jump\t// out\n        /* \"#utility.yul\":2219:2772   */\n    tag_87:\n        /* \"#utility.yul\":2396:2400   */\n      0x00\n        /* \"#utility.yul\":2434:2437   */\n      0x80\n        /* \"#utility.yul\":2423:2432   */\n      dup3\n        /* \"#utility.yul\":2419:2438   */\n      add\n        /* \"#utility.yul\":2411:2438   */\n      swap1\n      pop\n        /* \"#utility.yul\":2448:2519   */\n      tag_374\n        /* \"#utility.yul\":2516:2517   */\n      0x00\n        /* \"#utility.yul\":2505:2514   */\n      dup4\n        /* \"#utility.yul\":2501:2518   */\n      add\n        /* \"#utility.yul\":2492:2498   */\n      dup8\n        /* \"#utility.yul\":2448:2519   */\n      tag_333\n      jump\t// in\n    tag_374:\n        /* \"#utility.yul\":2529:2601   */\n      tag_375\n        /* \"#utility.yul\":2597:2599   */\n      0x20\n        /* \"#utility.yul\":2586:2595   */\n      dup4\n        /* \"#utility.yul\":2582:2600   */\n      add\n        /* \"#utility.yul\":2573:2579   */\n      dup7\n        /* \"#utility.yul\":2529:2601   */\n      tag_333\n      jump\t// in\n    tag_375:\n        /* \"#utility.yul\":2611:2683   */\n      tag_376\n        /* \"#utility.yul\":2679:2681   */\n      0x40\n        /* \"#utility.yul\":2668:2677   */\n      dup4\n        /* \"#utility.yul\":2664:2682   */\n      add\n        /* \"#utility.yul\":2655:2661   */\n      dup6\n        /* \"#utility.yul\":2611:2683   */\n      tag_333\n      jump\t// in\n    tag_376:\n        /* \"#utility.yul\":2693:2765   */\n      tag_377\n        /* \"#utility.yul\":2761:2763   */\n      0x60\n        /* \"#utility.yul\":2750:2759   */\n      dup4\n        /* \"#utility.yul\":2746:2764   */\n      add\n        /* \"#utility.yul\":2737:2743   */\n      dup5\n        /* \"#utility.yul\":2693:2765   */\n      tag_333\n      jump\t// in\n    tag_377:\n        /* \"#utility.yul\":2219:2772   */\n      swap6\n      swap5\n      pop\n      pop\n      pop\n      pop\n      pop\n      jump\t// out\n        /* \"#utility.yul\":2778:2896   */\n    tag_336:\n        /* \"#utility.yul\":2865:2889   */\n      tag_379\n        /* \"#utility.yul\":2883:2888   */\n      dup2\n        /* \"#utility.yul\":2865:2889   */\n      tag_329\n      jump\t// in\n    tag_379:\n        /* \"#utility.yul\":2860:2863   */\n      dup3\n        /* \"#utility.yul\":2853:2890   */\n      mstore\n        /* \"#utility.yul\":2778:2896   */\n      pop\n      pop\n      jump\t// out\n        /* \"#utility.yul\":2902:3124   */\n    tag_91:\n        /* \"#utility.yul\":2995:2999   */\n      0x00\n        /* \"#utility.yul\":3033:3035   */\n      0x20\n        /* \"#utility.yul\":3022:3031   */\n      dup3\n        /* \"#utility.yul\":3018:3036   */\n      add\n        /* \"#utility.yul\":3010:3036   */\n      swap1\n      pop\n        /* \"#utility.yul\":3046:3117   */\n      tag_381\n        /* \"#utility.yul\":3114:3115   */\n      0x00\n        /* \"#utility.yul\":3103:3112   */\n      dup4\n        /* \"#utility.yul\":3099:3116   */\n      add\n        /* \"#utility.yul\":3090:3096   */\n      dup5\n        /* \"#utility.yul\":3046:3117   */\n      tag_336\n      jump\t// in\n    tag_381:\n        /* \"#utility.yul\":2902:3124   */\n      swap3\n      swap2\n      pop\n      pop\n      jump\t// out\n        /* \"#utility.yul\":3130:3604   */\n    tag_113:\n        /* \"#utility.yul\":3198:3204   */\n      0x00\n        /* \"#utility.yul\":3206:3212   */\n      0x00\n        /* \"#utility.yul\":3255:3257   */\n      0x40\n        /* \"#utility.yul\":3243:3252   */\n      dup4\n        /* \"#utility.yul\":3234:3241   */\n      dup6\n        /* \"#utility.yul\":3230:3253   */\n      sub\n        /* \"#utility.yul\":3226:3258   */\n      slt\n        /* \"#utility.yul\":3223:3342   */\n      iszero\n      tag_383\n      jumpi\n        /* \"#utility.yul\":3261:3340   */\n      tag_384\n      tag_326\n      jump\t// in\n    tag_384:\n        /* \"#utility.yul\":3223:3342   */\n    tag_383:\n        /* \"#utility.yul\":3381:3382   */\n      0x00\n        /* \"#utility.yul\":3406:3459   */\n      tag_385\n        /* \"#utility.yul\":3451:3458   */\n      dup6\n        /* \"#utility.yul\":3442:3448   */\n      dup3\n        /* \"#utility.yul\":3431:3440   */\n      dup7\n        /* \"#utility.yul\":3427:3449   */\n      add\n        /* \"#utility.yul\":3406:3459   */\n      tag_331\n      jump\t// in\n    tag_385:\n        /* \"#utility.yul\":3396:3459   */\n      swap3\n      pop\n        /* \"#utility.yul\":3352:3469   */\n      pop\n        /* \"#utility.yul\":3508:3510   */\n      0x20\n        /* \"#utility.yul\":3534:3587   */\n      tag_386\n        /* \"#utility.yul\":3579:3586   */\n      dup6\n        /* \"#utility.yul\":3570:3576   */\n      dup3\n        /* \"#utility.yul\":3559:3568   */\n      dup7\n        /* \"#utility.yul\":3555:3577   */\n      add\n        /* \"#utility.yul\":3534:3587   */\n      tag_335\n      jump\t// in\n    tag_386:\n        /* \"#utility.yul\":3524:3587   */\n      swap2\n      pop\n        /* \"#utility.yul\":3479:3597   */\n      pop\n        /* \"#utility.yul\":3130:3604   */\n      swap3\n      pop\n      swap3\n      swap1\n      pop\n      jump\t// out\n        /* \"#utility.yul\":3610:3790   */\n    tag_337:\n        /* \"#utility.yul\":3658:3735   */\n      0x4e487b7100000000000000000000000000000000000000000000000000000000\n        /* \"#utility.yul\":3655:3656   */\n      0x00\n        /* \"#utility.yul\":3648:3736   */\n      mstore\n        /* \"#utility.yul\":3755:3759   */\n      0x11\n        /* \"#utility.yul\":3752:3753   */\n      0x04\n        /* \"#utility.yul\":3745:3760   */\n      mstore\n        /* \"#utility.yul\":3779:3783   */\n      0x24\n        /* \"#utility.yul\":3776:3777   */\n      0x00\n        /* \"#utility.yul\":3769:3784   */\n      revert\n        /* \"#utility.yul\":3796:3990   */\n    tag_146:\n        /* \"#utility.yul\":3836:3840   */\n      0x00\n        /* \"#utility.yul\":3856:3876   */\n      tag_389\n        /* \"#utility.yul\":3874:3875   */\n      dup3\n        /* \"#utility.yul\":3856:3876   */\n      tag_332\n      jump\t// in\n    tag_389:\n        /* \"#utility.yul\":3851:3876   */\n      swap2\n      pop\n        /* \"#utility.yul\":3890:3910   */\n      tag_390\n        /* \"#utility.yul\":3908:3909   */\n      dup4\n        /* \"#utility.yul\":3890:3910   */\n      tag_332\n      jump\t// in\n    tag_390:\n        /* \"#utility.yul\":3885:3910   */\n      swap3\n      pop\n        /* \"#utility.yul\":3934:3935   */\n      dup3\n        /* \"#utility.yul\":3931:3932   */\n      dup3\n        /* \"#utility.yul\":3927:3936   */\n      sub\n        /* \"#utility.yul\":3919:3936   */\n      swap1\n      pop\n        /* \"#utility.yul\":3958:3959   */\n      dup2\n        /* \"#utility.yul\":3952:3956   */\n      dup2\n        /* \"#utility.yul\":3949:3960   */\n      gt\n        /* \"#utility.yul\":3946:3983   */\n      iszero\n      tag_391\n      jumpi\n        /* \"#utility.yul\":3963:3981   */\n      tag_392\n      tag_337\n      jump\t// in\n    tag_392:\n        /* \"#utility.yul\":3946:3983   */\n    tag_391:\n        /* \"#utility.yul\":3796:3990   */\n      swap3\n      swap2\n      pop\n      pop\n      jump\t// out\n        /* \"#utility.yul\":3996:4406   */\n    tag_148:\n        /* \"#utility.yul\":4036:4043   */\n      0x00\n        /* \"#utility.yul\":4059:4079   */\n      tag_394\n        /* \"#utility.yul\":4077:4078   */\n      dup3\n        /* \"#utility.yul\":4059:4079   */\n      tag_332\n      jump\t// in\n    tag_394:\n        /* \"#utility.yul\":4054:4079   */\n      swap2\n      pop\n        /* \"#utility.yul\":4093:4113   */\n      tag_395\n        /* \"#utility.yul\":4111:4112   */\n      dup4\n        /* \"#utility.yul\":4093:4113   */\n      tag_332\n      jump\t// in\n    tag_395:\n        /* \"#utility.yul\":4088:4113   */\n      swap3\n      pop\n        /* \"#utility.yul\":4148:4149   */\n      dup3\n        /* \"#utility.yul\":4145:4146   */\n      dup3\n        /* \"#utility.yul\":4141:4150   */\n      mul\n        /* \"#utility.yul\":4170:4200   */\n      tag_396\n        /* \"#utility.yul\":4188:4199   */\n      dup2\n        /* \"#utility.yul\":4170:4200   */\n      tag_332\n      jump\t// in\n    tag_396:\n        /* \"#utility.yul\":4159:4200   */\n      swap2\n      pop\n        /* \"#utility.yul\":4349:4350   */\n      dup3\n        /* \"#utility.yul\":4340:4347   */\n      dup3\n        /* \"#utility.yul\":4336:4351   */\n      div\n        /* \"#utility.yul\":4333:4334   */\n      dup5\n        /* \"#utility.yul\":4330:4352   */\n      eq\n        /* \"#utility.yul\":4310:4311   */\n      dup4\n        /* \"#utility.yul\":4303:4312   */\n      iszero\n        /* \"#utility.yul\":4283:4366   */\n      or\n        /* \"#utility.yul\":4260:4399   */\n      tag_397\n      jumpi\n        /* \"#utility.yul\":4379:4397   */\n      tag_398\n      tag_337\n      jump\t// in\n    tag_398:\n        /* \"#utility.yul\":4260:4399   */\n    tag_397:\n        /* \"#utility.yul\":4044:4406   */\n      pop\n        /* \"#utility.yul\":3996:4406   */\n      swap3\n      swap2\n      pop\n      pop\n      jump\t// out\n        /* \"#utility.yul\":4412:4592   */\n    tag_338:\n        /* \"#utility.yul\":4460:4537   */\n      0x4e487b7100000000000000000000000000000000000000000000000000000000\n        /* \"#utility.yul\":4457:4458   */\n      0x00\n        /* \"#utility.yul\":4450:4538   */\n      mstore\n        /* \"#utility.yul\":4557:4561   */\n      0x12\n        /* \"#utility.yul\":4554:4555   */\n      0x04\n        /* \"#utility.yul\":4547:4562   */\n      mstore\n        /* \"#utility.yul\":4581:4585   */\n      0x24\n        /* \"#utility.yul\":4578:4579   */\n      0x00\n        /* \"#utility.yul\":4571:4586   */\n      revert\n        /* \"#utility.yul\":4598:4783   */\n    tag_150:\n        /* \"#utility.yul\":4638:4639   */\n      0x00\n        /* \"#utility.yul\":4655:4675   */\n      tag_401\n        /* \"#utility.yul\":4673:4674   */\n      dup3\n        /* \"#utility.yul\":4655:4675   */\n      tag_332\n      jump\t// in\n    tag_401:\n        /* \"#utility.yul\":4650:4675   */\n      swap2\n      pop\n        /* \"#utility.yul\":4689:4709   */\n      tag_402\n        /* \"#utility.yul\":4707:4708   */\n      dup4\n        /* \"#utility.yul\":4689:4709   */\n      tag_332\n      jump\t// in\n    tag_402:\n        /* \"#utility.yul\":4684:4709   */\n      swap3\n      pop\n        /* \"#utility.yul\":4728:4729   */\n      dup3\n        /* \"#utility.yul\":4718:4753   */\n      tag_403\n      jumpi\n        /* \"#utility.yul\":4733:4751   */\n      tag_404\n      tag_338\n      jump\t// in\n    tag_404:\n        /* \"#utility.yul\":4718:4753   */\n    tag_403:\n        /* \"#utility.yul\":4775:4776   */\n      dup3\n        /* \"#utility.yul\":4772:4773   */\n      dup3\n        /* \"#utility.yul\":4768:4777   */\n      div\n        /* \"#utility.yul\":4763:4777   */\n      swap1\n      pop\n        /* \"#utility.yul\":4598:4783   */\n      swap3\n      swap2\n      pop\n      pop\n      jump\t// out\n        /* \"#utility.yul\":4789:4980   */\n    tag_152:\n        /* \"#utility.yul\":4829:4832   */\n      0x00\n        /* \"#utility.yul\":4848:4868   */\n      tag_406\n        /* \"#utility.yul\":4866:4867   */\n      dup3\n        /* \"#utility.yul\":4848:4868   */\n      tag_332\n      jump\t// in\n    tag_406:\n        /* \"#utility.yul\":4843:4868   */\n      swap2\n      pop\n        /* \"#utility.yul\":4882:4902   */\n      tag_407\n        /* \"#utility.yul\":4900:4901   */\n      dup4\n        /* \"#utility.yul\":4882:4902   */\n      tag_332\n      jump\t// in\n    tag_407:\n        /* \"#utility.yul\":4877:4902   */\n      swap3\n      pop\n        /* \"#utility.yul\":4925:4926   */\n      dup3\n        /* \"#utility.yul\":4922:4923   */\n      dup3\n        /* \"#utility.yul\":4918:4927   */\n      add\n        /* \"#utility.yul\":4911:4927   */\n      swap1\n      pop\n        /* \"#utility.yul\":4946:4949   */\n      dup1\n        /* \"#utility.yul\":4943:4944   */\n      dup3\n        /* \"#utility.yul\":4940:4950   */\n      gt\n        /* \"#utility.yul\":4937:4973   */\n      iszero\n      tag_408\n      jumpi\n        /* \"#utility.yul\":4953:4971   */\n      tag_409\n      tag_337\n      jump\t// in\n    tag_409:\n        /* \"#utility.yul\":4937:4973   */\n    tag_408:\n        /* \"#utility.yul\":4789:4980   */\n      swap3\n      swap2\n      pop\n      pop\n      jump\t// out\n        /* \"#utility.yul\":4986:5428   */\n    tag_158:\n        /* \"#utility.yul\":5135:5139   */\n      0x00\n        /* \"#utility.yul\":5173:5175   */\n      0x60\n        /* \"#utility.yul\":5162:5171   */\n      dup3\n        /* \"#utility.yul\":5158:5176   */\n      add\n        /* \"#utility.yul\":5150:5176   */\n      swap1\n      pop\n        /* \"#utility.yul\":5186:5257   */\n      tag_411\n        /* \"#utility.yul\":5254:5255   */\n      0x00\n        /* \"#utility.yul\":5243:5252   */\n      dup4\n        /* \"#utility.yul\":5239:5256   */\n      add\n        /* \"#utility.yul\":5230:5236   */\n      dup7\n        /* \"#utility.yul\":5186:5257   */\n      tag_336\n      jump\t// in\n    tag_411:\n        /* \"#utility.yul\":5267:5339   */\n      tag_412\n        /* \"#utility.yul\":5335:5337   */\n      0x20\n        /* \"#utility.yul\":5324:5333   */\n      dup4\n        /* \"#utility.yul\":5320:5338   */\n      add\n        /* \"#utility.yul\":5311:5317   */\n      dup6\n        /* \"#utility.yul\":5267:5339   */\n      tag_336\n      jump\t// in\n    tag_412:\n        /* \"#utility.yul\":5349:5421   */\n      tag_413\n        /* \"#utility.yul\":5417:5419   */\n      0x40\n        /* \"#utility.yul\":5406:5415   */\n      dup4\n        /* \"#utility.yul\":5402:5420   */\n      add\n        /* \"#utility.yul\":5393:5399   */\n      dup5\n        /* \"#utility.yul\":5349:5421   */\n      tag_333\n      jump\t// in\n    tag_413:\n        /* \"#utility.yul\":4986:5428   */\n      swap5\n      swap4\n      pop\n      pop\n      pop\n      pop\n      jump\t// out\n        /* \"#utility.yul\":5434:5577   */\n    tag_339:\n        /* \"#utility.yul\":5491:5496   */\n      0x00\n        /* \"#utility.yul\":5522:5528   */\n      dup2\n        /* \"#utility.yul\":5516:5529   */\n      mload\n        /* \"#utility.yul\":5507:5529   */\n      swap1\n      pop\n        /* \"#utility.yul\":5538:5571   */\n      tag_415\n        /* \"#utility.yul\":5565:5570   */\n      dup2\n        /* \"#utility.yul\":5538:5571   */\n      tag_334\n      jump\t// in\n    tag_415:\n        /* \"#utility.yul\":5434:5577   */\n      swap3\n      swap2\n      pop\n      pop\n      jump\t// out\n        /* \"#utility.yul\":5583:5934   */\n    tag_162:\n        /* \"#utility.yul\":5653:5659   */\n      0x00\n        /* \"#utility.yul\":5702:5704   */\n      0x20\n        /* \"#utility.yul\":5690:5699   */\n      dup3\n        /* \"#utility.yul\":5681:5688   */\n      dup5\n        /* \"#utility.yul\":5677:5700   */\n      sub\n        /* \"#utility.yul\":5673:5705   */\n      slt\n        /* \"#utility.yul\":5670:5789   */\n      iszero\n      tag_417\n      jumpi\n        /* \"#utility.yul\":5708:5787   */\n      tag_418\n      tag_326\n      jump\t// in\n    tag_418:\n        /* \"#utility.yul\":5670:5789   */\n    tag_417:\n        /* \"#utility.yul\":5828:5829   */\n      0x00\n        /* \"#utility.yul\":5853:5917   */\n      tag_419\n        /* \"#utility.yul\":5909:5916   */\n      dup5\n        /* \"#utility.yul\":5900:5906   */\n      dup3\n        /* \"#utility.yul\":5889:5898   */\n      dup6\n        /* \"#utility.yul\":5885:5907   */\n      add\n        /* \"#utility.yul\":5853:5917   */\n      tag_339\n      jump\t// in\n    tag_419:\n        /* \"#utility.yul\":5843:5917   */\n      swap2\n      pop\n        /* \"#utility.yul\":5799:5927   */\n      pop\n        /* \"#utility.yul\":5583:5934   */\n      swap3\n      swap2\n      pop\n      pop\n      jump\t// out\n        /* \"#utility.yul\":5940:6272   */\n    tag_183:\n        /* \"#utility.yul\":6061:6065   */\n      0x00\n        /* \"#utility.yul\":6099:6101   */\n      0x40\n        /* \"#utility.yul\":6088:6097   */\n      dup3\n        /* \"#utility.yul\":6084:6102   */\n      add\n        /* \"#utility.yul\":6076:6102   */\n      swap1\n      pop\n        /* \"#utility.yul\":6112:6183   */\n      tag_421\n        /* \"#utility.yul\":6180:6181   */\n      0x00\n        /* \"#utility.yul\":6169:6178   */\n      dup4\n        /* \"#utility.yul\":6165:6182   */\n      add\n        /* \"#utility.yul\":6156:6162   */\n      dup6\n        /* \"#utility.yul\":6112:6183   */\n      tag_336\n      jump\t// in\n    tag_421:\n        /* \"#utility.yul\":6193:6265   */\n      tag_422\n        /* \"#utility.yul\":6261:6263   */\n      0x20\n        /* \"#utility.yul\":6250:6259   */\n      dup4\n        /* \"#utility.yul\":6246:6264   */\n      add\n        /* \"#utility.yul\":6237:6243   */\n      dup5\n        /* \"#utility.yul\":6193:6265   */\n      tag_333\n      jump\t// in\n    tag_422:\n        /* \"#utility.yul\":5940:6272   */\n      swap4\n      swap3\n      pop\n      pop\n      pop\n      jump\t// out\n        /* \"#utility.yul\":6278:6368   */\n    tag_340:\n        /* \"#utility.yul\":6312:6319   */\n      0x00\n        /* \"#utility.yul\":6355:6360   */\n      dup2\n        /* \"#utility.yul\":6348:6361   */\n      iszero\n        /* \"#utility.yul\":6341:6362   */\n      iszero\n        /* \"#utility.yul\":6330:6362   */\n      swap1\n      pop\n        /* \"#utility.yul\":6278:6368   */\n      swap2\n      swap1\n      pop\n      jump\t// out\n        /* \"#utility.yul\":6374:6490   */\n    tag_341:\n        /* \"#utility.yul\":6444:6465   */\n      tag_425\n        /* \"#utility.yul\":6459:6464   */\n      dup2\n        /* \"#utility.yul\":6444:6465   */\n      tag_340\n      jump\t// in\n    tag_425:\n        /* \"#utility.yul\":6437:6442   */\n      dup2\n        /* \"#utility.yul\":6434:6466   */\n      eq\n        /* \"#utility.yul\":6424:6484   */\n      tag_426\n      jumpi\n        /* \"#utility.yul\":6480:6481   */\n      0x00\n        /* \"#utility.yul\":6477:6478   */\n      0x00\n        /* \"#utility.yul\":6470:6482   */\n      revert\n        /* \"#utility.yul\":6424:6484   */\n    tag_426:\n        /* \"#utility.yul\":6374:6490   */\n      pop\n      jump\t// out\n        /* \"#utility.yul\":6496:6633   */\n    tag_342:\n        /* \"#utility.yul\":6550:6555   */\n      0x00\n        /* \"#utility.yul\":6581:6587   */\n      dup2\n        /* \"#utility.yul\":6575:6588   */\n      mload\n        /* \"#utility.yul\":6566:6588   */\n      swap1\n      pop\n        /* \"#utility.yul\":6597:6627   */\n      tag_428\n        /* \"#utility.yul\":6621:6626   */\n      dup2\n        /* \"#utility.yul\":6597:6627   */\n      tag_341\n      jump\t// in\n    tag_428:\n        /* \"#utility.yul\":6496:6633   */\n      swap3\n      swap2\n      pop\n      pop\n      jump\t// out\n        /* \"#utility.yul\":6639:6984   */\n    tag_187:\n        /* \"#utility.yul\":6706:6712   */\n      0x00\n        /* \"#utility.yul\":6755:6757   */\n      0x20\n        /* \"#utility.yul\":6743:6752   */\n      dup3\n        /* \"#utility.yul\":6734:6741   */\n      dup5\n        /* \"#utility.yul\":6730:6753   */\n      sub\n        /* \"#utility.yul\":6726:6758   */\n      slt\n        /* \"#utility.yul\":6723:6842   */\n      iszero\n      tag_430\n      jumpi\n        /* \"#utility.yul\":6761:6840   */\n      tag_431\n      tag_326\n      jump\t// in\n    tag_431:\n        /* \"#utility.yul\":6723:6842   */\n    tag_430:\n        /* \"#utility.yul\":6881:6882   */\n      0x00\n        /* \"#utility.yul\":6906:6967   */\n      tag_432\n        /* \"#utility.yul\":6959:6966   */\n      dup5\n        /* \"#utility.yul\":6950:6956   */\n      dup3\n        /* \"#utility.yul\":6939:6948   */\n      dup6\n        /* \"#utility.yul\":6935:6957   */\n      add\n        /* \"#utility.yul\":6906:6967   */\n      tag_342\n      jump\t// in\n    tag_432:\n        /* \"#utility.yul\":6896:6967   */\n      swap2\n      pop\n        /* \"#utility.yul\":6852:6977   */\n      pop\n        /* \"#utility.yul\":6639:6984   */\n      swap3\n      swap2\n      pop\n      pop\n      jump\t// out\n        /* \"#utility.yul\":6990:7322   */\n    tag_269:\n        /* \"#utility.yul\":7111:7115   */\n      0x00\n        /* \"#utility.yul\":7149:7151   */\n      0x40\n        /* \"#utility.yul\":7138:7147   */\n      dup3\n        /* \"#utility.yul\":7134:7152   */\n      add\n        /* \"#utility.yul\":7126:7152   */\n      swap1\n      pop\n        /* \"#utility.yul\":7162:7233   */\n      tag_434\n        /* \"#utility.yul\":7230:7231   */\n      0x00\n        /* \"#utility.yul\":7219:7228   */\n      dup4\n        /* \"#utility.yul\":7215:7232   */\n      add\n        /* \"#utility.yul\":7206:7212   */\n      dup6\n        /* \"#utility.yul\":7162:7233   */\n      tag_336\n      jump\t// in\n    tag_434:\n        /* \"#utility.yul\":7243:7315   */\n      tag_435\n        /* \"#utility.yul\":7311:7313   */\n      0x20\n        /* \"#utility.yul\":7300:7309   */\n      dup4\n        /* \"#utility.yul\":7296:7314   */\n      add\n        /* \"#utility.yul\":7287:7293   */\n      dup5\n        /* \"#utility.yul\":7243:7315   */\n      tag_336\n      jump\t// in\n    tag_435:\n        /* \"#utility.yul\":6990:7322   */\n      swap4\n      swap3\n      pop\n      pop\n      pop\n      jump\t// out\n        /* \"#utility.yul\":7328:7660   */\n    tag_324:\n        /* \"#utility.yul\":7449:7453   */\n      0x00\n        /* \"#utility.yul\":7487:7489   */\n      0x40\n        /* \"#utility.yul\":7476:7485   */\n      dup3\n        /* \"#utility.yul\":7472:7490   */\n      add\n        /* \"#utility.yul\":7464:7490   */\n      swap1\n      pop\n        /* \"#utility.yul\":7500:7571   */\n      tag_437\n        /* \"#utility.yul\":7568:7569   */\n      0x00\n        /* \"#utility.yul\":7557:7566   */\n      dup4\n        /* \"#utility.yul\":7553:7570   */\n      add\n        /* \"#utility.yul\":7544:7550   */\n      dup6\n        /* \"#utility.yul\":7500:7571   */\n      tag_333\n      jump\t// in\n    tag_437:\n        /* \"#utility.yul\":7581:7653   */\n      tag_438\n        /* \"#utility.yul\":7649:7651   */\n      0x20\n        /* \"#utility.yul\":7638:7647   */\n      dup4\n        /* \"#utility.yul\":7634:7652   */\n      add\n        /* \"#utility.yul\":7625:7631   */\n      dup5\n        /* \"#utility.yul\":7581:7653   */\n      tag_333\n      jump\t// in\n    tag_438:\n        /* \"#utility.yul\":7328:7660   */\n      swap4\n      swap3\n      pop\n      pop\n      pop\n      jump\t// out\n\n    auxdata: 0xa2646970667358221220b8a521bdf9b7f485948bb21f1ecb04b7e9e14a952600095744e98fa50a87141464736f6c634300081e0033\n}\n",
				"bytecode": {
					"linkReferences": {},
					"object": "608060405262093a80600855348015610016575f5ffd5b50604051612b72380380612b72833981810160405281019061003891906102a6565b835f73ffffffffffffffffffffffffffffffffffffffff168173ffffffffffffffffffffffffffffffffffffffff160361009e576040517fe6c4247b00000000000000000000000000000000000000000000000000000000815260040160405180910390fd5b835f73ffffffffffffffffffffffffffffffffffffffff168173ffffffffffffffffffffffffffffffffffffffff1603610104576040517fe6c4247b00000000000000000000000000000000000000000000000000000000815260040160405180910390fd5b335f5f6101000a81548173ffffffffffffffffffffffffffffffffffffffff021916908373ffffffffffffffffffffffffffffffffffffffff1602179055508560015f6101000a81548173ffffffffffffffffffffffffffffffffffffffff021916908373ffffffffffffffffffffffffffffffffffffffff1602179055508460025f6101000a81548173ffffffffffffffffffffffffffffffffffffffff021916908373ffffffffffffffffffffffffffffffffffffffff1602179055508360035f6101000a81548173ffffffffffffffffffffffffffffffffffffffff021916908373ffffffffffffffffffffffffffffffffffffffff1602179055508260048190555050505050505061030a565b5f5ffd5b5f73ffffffffffffffffffffffffffffffffffffffff82169050919050565b5f61024282610219565b9050919050565b61025281610238565b811461025c575f5ffd5b50565b5f8151905061026d81610249565b92915050565b5f819050919050565b61028581610273565b811461028f575f5ffd5b50565b5f815190506102a08161027c565b92915050565b5f5f5f5f608085870312156102be576102bd610215565b5b5f6102cb8782880161025f565b94505060206102dc8782880161025f565b93505060406102ed8782880161025f565b92505060606102fe87828801610292565b91505092959194509250565b61285b806103175f395ff3fe608060405234801561000f575f5ffd5b50600436106101e2575f3560e01c806380faa57d1161010d578063cc1a378f116100a0578063ebe2b12b1161006f578063ebe2b12b14610549578063f2fde38b14610567578063f7c618c114610583578063f84dbd58146105a1576101e2565b8063cc1a378f146104e7578063cd3daf9d14610503578063df136d6514610521578063e9fad8ee1461053f576101e2565b80638da5cb5b116100dc5780638da5cb5b1461047357806395ccea6714610491578063a694fc3a146104ad578063c8f33c91146104c9576101e2565b806380faa57d146103e9578063817b1cd2146104075780638927e052146104255780638b87634714610443576101e2565b8063386a9525116101855780636021726711610154578063602172671461034a5780636386c1c71461037a57806372f702f3146103ad5780637b0a47ee146103cb576101e2565b8063386a9525146102d65780633c6b16ab146102f45780633d18b91214610310578063583d42fd1461031a576101e2565b80631c1f78eb116101c15780631c1f78eb146102765780631f5870ef146102945780632b52c526146102b05780632e1a7d4d146102ba576101e2565b80628cc262146101e65780630700037d146102165780631227ed1f14610246575b5f5ffd5b61020060048036038101906101fb9190612451565b6105ab565b60405161020d9190612494565b60405180910390f35b610230600480360381019061022b9190612451565b6106a6565b60405161023d9190612494565b60405180910390f35b610260600480360381019061025b9190612451565b6106bb565b60405161026d9190612494565b60405180910390f35b61027e61081c565b60405161028b9190612494565b60405180910390f35b6102ae60048036038101906102a99190612451565b610832565b005b6102b86108fa565b005b6102d460048036038101906102cf91906124d7565b61094a565b005b6102de610c6a565b6040516102eb9190612494565b60405180910390f35b61030e600480360381019061030991906124d7565b610c70565b005b610318610fb1565b005b610334600480360381019061032f9190612451565b611270565b6040516103419190612494565b60405180910390f35b610364600480360381019061035f9190612451565b611285565b6040516103719190612494565b60405180910390f35b610394600480360381019061038f9190612451565b61129a565b6040516103a49493929190612502565b60405180910390f35b6103b56114c9565b6040516103c29190612554565b60405180910390f35b6103d36114ee565b6040516103e09190612494565b60405180910390f35b6103f16114f4565b6040516103fe9190612494565b60405180910390f35b61040f61150d565b60405161041c9190612494565b60405180910390f35b61042d611513565b60405161043a9190612554565b60405180910390f35b61045d60048036038101906104589190612451565b611538565b60405161046a9190612494565b60405180910390f35b61047b61154d565b6040516104889190612554565b60405180910390f35b6104ab60048036038101906104a6919061256d565b611571565b005b6104c760048036038101906104c291906124d7565b6117a9565b005b6104d1611bff565b6040516104de9190612494565b60405180910390f35b61050160048036038101906104fc91906124d7565b611c05565b005b61050b611d41565b6040516105189190612494565b60405180910390f35b610529611daa565b6040516105369190612494565b60405180910390f35b610547611db0565b005b610551611e00565b60405161055e9190612494565b60405180910390f35b610581600480360381019061057c9190612451565b611e06565b005b61058b611f34565b6040516105989190612554565b60405180910390f35b6105a9611f59565b005b5f600c5f8373ffffffffffffffffffffffffffffffffffffffff1673ffffffffffffffffffffffffffffffffffffffff1681526020019081526020015f2054670de0b6b3a7640000600b5f8573ffffffffffffffffffffffffffffffffffffffff1673ffffffffffffffffffffffffffffffffffffffff1681526020019081526020015f2054610639611d41565b61064391906125d8565b600a5f8673ffffffffffffffffffffffffffffffffffffffff1673ffffffffffffffffffffffffffffffffffffffff1681526020019081526020015f205461068b919061260b565b6106959190612679565b61069f91906126a9565b9050919050565b600c602052805f5260405f205f915090505481565b5f5f73ffffffffffffffffffffffffffffffffffffffff1660035f9054906101000a900473ffffffffffffffffffffffffffffffffffffffff1673ffffffffffffffffffffffffffffffffffffffff1603610718575f9050610817565b5f610722836105ab565b90505f8103610734575f915050610817565b60035f9054906101000a900473ffffffffffffffffffffffffffffffffffffffff1673ffffffffffffffffffffffffffffffffffffffff1663c515ee2360025f9054906101000a900473ffffffffffffffffffffffffffffffffffffffff1660015f9054906101000a900473ffffffffffffffffffffffffffffffffffffffff16846040518463ffffffff1660e01b81526004016107d4939291906126dc565b602060405180830381865afa1580156107ef573d5f5f3e3d5ffd5b505050506040513d601f19601f820116820180604052508101906108139190612725565b9150505b919050565b5f60085460045461082d919061260b565b905090565b5f5f9054906101000a900473ffffffffffffffffffffffffffffffffffffffff1673ffffffffffffffffffffffffffffffffffffffff163373ffffffffffffffffffffffffffffffffffffffff16146108b7576040517f82b4290000000000000000000000000000000000000000000000000000000000815260040160405180910390fd5b8060035f6101000a81548173ffffffffffffffffffffffffffffffffffffffff021916908373ffffffffffffffffffffffffffffffffffffffff16021790555050565b610940600a5f3373ffffffffffffffffffffffffffffffffffffffff1673ffffffffffffffffffffffffffffffffffffffff1681526020019081526020015f205461094a565b610948611f59565b565b805f8103610984576040517f2c5211c600000000000000000000000000000000000000000000000000000000815260040160405180910390fd5b3361098d611d41565b60068190555061099b6114f4565b6005819055505f73ffffffffffffffffffffffffffffffffffffffff168173ffffffffffffffffffffffffffffffffffffffff1614610a63576109dd816105ab565b600c5f8373ffffffffffffffffffffffffffffffffffffffff1673ffffffffffffffffffffffffffffffffffffffff1681526020019081526020015f2081905550600654600b5f8373ffffffffffffffffffffffffffffffffffffffff1673ffffffffffffffffffffffffffffffffffffffff1681526020019081526020015f20819055505b82600a5f3373ffffffffffffffffffffffffffffffffffffffff1673ffffffffffffffffffffffffffffffffffffffff1681526020019081526020015f20541015610ada576040517ff4d678b800000000000000000000000000000000000000000000000000000000815260040160405180910390fd5b8260075f828254610aeb91906125d8565b9250508190555082600a5f3373ffffffffffffffffffffffffffffffffffffffff1673ffffffffffffffffffffffffffffffffffffffff1681526020019081526020015f205f828254610b3e91906125d8565b9250508190555060015f9054906101000a900473ffffffffffffffffffffffffffffffffffffffff1673ffffffffffffffffffffffffffffffffffffffff1663a9059cbb33856040518363ffffffff1660e01b8152600401610ba1929190612750565b6020604051808303815f875af1158015610bbd573d5f5f3e3d5ffd5b505050506040513d601f19601f82011682018060405250810190610be191906127ac565b610c17576040517f90b8ec1800000000000000000000000000000000000000000000000000000000815260040160405180910390fd5b3373ffffffffffffffffffffffffffffffffffffffff167f7084f5476618d8e60b11ef0d7d3f06914655adb8793e28ff7f018d4c76d505d584604051610c5d9190612494565b60405180910390a2505050565b60085481565b5f5f9054906101000a900473ffffffffffffffffffffffffffffffffffffffff1673ffffffffffffffffffffffffffffffffffffffff163373ffffffffffffffffffffffffffffffffffffffff1614610cf5576040517f82b4290000000000000000000000000000000000000000000000000000000000815260040160405180910390fd5b805f8103610d2f576040517f2c5211c600000000000000000000000000000000000000000000000000000000815260040160405180910390fd5b5f610d38611d41565b600681905550610d466114f4565b6005819055505f73ffffffffffffffffffffffffffffffffffffffff168173ffffffffffffffffffffffffffffffffffffffff1614610e0e57610d88816105ab565b600c5f8373ffffffffffffffffffffffffffffffffffffffff1673ffffffffffffffffffffffffffffffffffffffff1681526020019081526020015f2081905550600654600b5f8373ffffffffffffffffffffffffffffffffffffffff1673ffffffffffffffffffffffffffffffffffffffff1681526020019081526020015f20819055505b6009544210610e305760085483610e259190612679565b600481905550610e74565b5f42600954610e3f91906125d8565b90505f60045482610e50919061260b565b90506008548186610e6191906126a9565b610e6b9190612679565b60048190555050505b5f60025f9054906101000a900473ffffffffffffffffffffffffffffffffffffffff1673ffffffffffffffffffffffffffffffffffffffff166370a08231306040518263ffffffff1660e01b8152600401610ecf9190612554565b602060405180830381865afa158015610eea573d5f5f3e3d5ffd5b505050506040513d601f19601f82011682018060405250810190610f0e9190612725565b905060085481610f1e9190612679565b6004541115610f59576040517ff4d678b800000000000000000000000000000000000000000000000000000000815260040160405180910390fd5b4260058190555060085442610f6e91906126a9565b6009819055507fde88a922e0d3b88b24e9623efeb464919c6bf9f66857a65e2bfcf2ce87a9433d84604051610fa39190612494565b60405180910390a150505050565b33610fba611d41565b600681905550610fc86114f4565b6005819055505f73ffffffffffffffffffffffffffffffffffffffff168173ffffffffffffffffffffffffffffffffffffffff16146110905761100a816105ab565b600c5f8373ffffffffffffffffffffffffffffffffffffffff1673ffffffffffffffffffffffffffffffffffffffff1681526020019081526020015f2081905550600654600b5f8373ffffffffffffffffffffffffffffffffffffffff1673ffffffffffffffffffffffffffffffffffffffff1681526020019081526020015f20819055505b5f600c5f3373ffffffffffffffffffffffffffffffffffffffff1673ffffffffffffffffffffffffffffffffffffffff1681526020019081526020015f205490505f810361110a576040517f3fb087f400000000000000000000000000000000000000000000000000000000815260040160405180910390fd5b5f600c5f3373ffffffffffffffffffffffffffffffffffffffff1673ffffffffffffffffffffffffffffffffffffffff1681526020019081526020015f208190555060025f9054906101000a900473ffffffffffffffffffffffffffffffffffffffff1673ffffffffffffffffffffffffffffffffffffffff1663a9059cbb33836040518363ffffffff1660e01b81526004016111a8929190612750565b6020604051808303815f875af11580156111c4573d5f5f3e3d5ffd5b505050506040513d601f19601f820116820180604052508101906111e891906127ac565b61121e576040517f90b8ec1800000000000000000000000000000000000000000000000000000000815260040160405180910390fd5b3373ffffffffffffffffffffffffffffffffffffffff167fe2403640ba68fed3a2f88b7557551d1993f84b99bb10ff833f0cf8db0c5e0486826040516112649190612494565b60405180910390a25050565b600d602052805f5260405f205f915090505481565b600a602052805f5260405f205f915090505481565b5f5f5f5f600a5f8673ffffffffffffffffffffffffffffffffffffffff1673ffffffffffffffffffffffffffffffffffffffff1681526020019081526020015f205493506112e7856105ab565b92505f600d5f8773ffffffffffffffffffffffffffffffffffffffff1673ffffffffffffffffffffffffffffffffffffffff1681526020019081526020015f205411611333575f61137d565b600d5f8673ffffffffffffffffffffffffffffffffffffffff1673ffffffffffffffffffffffffffffffffffffffff1681526020019081526020015f20544261137c91906125d8565b5b91505f73ffffffffffffffffffffffffffffffffffffffff1660035f9054906101000a900473ffffffffffffffffffffffffffffffffffffffff1673ffffffffffffffffffffffffffffffffffffffff16141580156113db57505f83115b156114c25760035f9054906101000a900473ffffffffffffffffffffffffffffffffffffffff1673ffffffffffffffffffffffffffffffffffffffff1663c515ee2360025f9054906101000a900473ffffffffffffffffffffffffffffffffffffffff1660015f9054906101000a900473ffffffffffffffffffffffffffffffffffffffff16866040518463ffffffff1660e01b8152600401611480939291906126dc565b602060405180830381865afa15801561149b573d5f5f3e3d5ffd5b505050506040513d601f19601f820116820180604052508101906114bf9190612725565b90505b9193509193565b60015f9054906101000a900473ffffffffffffffffffffffffffffffffffffffff1681565b60045481565b5f600954421061150657600954611508565b425b905090565b60075481565b60035f9054906101000a900473ffffffffffffffffffffffffffffffffffffffff1681565b600b602052805f5260405f205f915090505481565b5f5f9054906101000a900473ffffffffffffffffffffffffffffffffffffffff1681565b5f5f9054906101000a900473ffffffffffffffffffffffffffffffffffffffff1673ffffffffffffffffffffffffffffffffffffffff163373ffffffffffffffffffffffffffffffffffffffff16146115f6576040517f82b4290000000000000000000000000000000000000000000000000000000000815260040160405180910390fd5b815f73ffffffffffffffffffffffffffffffffffffffff168173ffffffffffffffffffffffffffffffffffffffff160361165c576040517fe6c4247b00000000000000000000000000000000000000000000000000000000815260040160405180910390fd5b815f8103611696576040517f2c5211c600000000000000000000000000000000000000000000000000000000815260040160405180910390fd5b6009544210156116d2576040517f9634abc100000000000000000000000000000000000000000000000000000000815260040160405180910390fd5b8373ffffffffffffffffffffffffffffffffffffffff1663a9059cbb5f5f9054906101000a900473ffffffffffffffffffffffffffffffffffffffff16856040518363ffffffff1660e01b815260040161172d929190612750565b6020604051808303815f875af1158015611749573d5f5f3e3d5ffd5b505050506040513d601f19601f8201168201806040525081019061176d91906127ac565b6117a3576040517f90b8ec1800000000000000000000000000000000000000000000000000000000815260040160405180910390fd5b50505050565b805f81036117e3576040517f2c5211c600000000000000000000000000000000000000000000000000000000815260040160405180910390fd5b336117ec611d41565b6006819055506117fa6114f4565b6005819055505f73ffffffffffffffffffffffffffffffffffffffff168173ffffffffffffffffffffffffffffffffffffffff16146118c25761183c816105ab565b600c5f8373ffffffffffffffffffffffffffffffffffffffff1673ffffffffffffffffffffffffffffffffffffffff1681526020019081526020015f2081905550600654600b5f8373ffffffffffffffffffffffffffffffffffffffff1673ffffffffffffffffffffffffffffffffffffffff1681526020019081526020015f20819055505b5f60015f9054906101000a900473ffffffffffffffffffffffffffffffffffffffff169050838173ffffffffffffffffffffffffffffffffffffffff166370a08231336040518263ffffffff1660e01b81526004016119219190612554565b602060405180830381865afa15801561193c573d5f5f3e3d5ffd5b505050506040513d601f19601f820116820180604052508101906119609190612725565b1015611998576040517ff4d678b800000000000000000000000000000000000000000000000000000000815260040160405180910390fd5b838173ffffffffffffffffffffffffffffffffffffffff1663dd62ed3e33306040518363ffffffff1660e01b81526004016119d49291906127d7565b602060405180830381865afa1580156119ef573d5f5f3e3d5ffd5b505050506040513d601f19601f82011682018060405250810190611a139190612725565b1015611a4b576040517ff4d678b800000000000000000000000000000000000000000000000000000000815260040160405180910390fd5b8073ffffffffffffffffffffffffffffffffffffffff166323b872dd3330876040518463ffffffff1660e01b8152600401611a88939291906126dc565b6020604051808303815f875af1158015611aa4573d5f5f3e3d5ffd5b505050506040513d601f19601f82011682018060405250810190611ac891906127ac565b611afe576040517f90b8ec1800000000000000000000000000000000000000000000000000000000815260040160405180910390fd5b8360075f828254611b0f91906126a9565b9250508190555083600a5f3373ffffffffffffffffffffffffffffffffffffffff1673ffffffffffffffffffffffffffffffffffffffff1681526020019081526020015f205f828254611b6291906126a9565b9250508190555042600d5f3373ffffffffffffffffffffffffffffffffffffffff1673ffffffffffffffffffffffffffffffffffffffff1681526020019081526020015f20819055503373ffffffffffffffffffffffffffffffffffffffff167f9e71bc8eea02a63969f509818f2dafb9254532904319f9dbda79b67bd34a5f3d85604051611bf19190612494565b60405180910390a250505050565b60055481565b5f5f9054906101000a900473ffffffffffffffffffffffffffffffffffffffff1673ffffffffffffffffffffffffffffffffffffffff163373ffffffffffffffffffffffffffffffffffffffff1614611c8a576040517f82b4290000000000000000000000000000000000000000000000000000000000815260040160405180910390fd5b805f8103611cc4576040517f2c5211c600000000000000000000000000000000000000000000000000000000815260040160405180910390fd5b6009544211611cff576040517f9634abc100000000000000000000000000000000000000000000000000000000815260040160405180910390fd5b816008819055507ffb46ca5a5e06d4540d6387b930a7c978bce0db5f449ec6b3f5d07c6e1d44f2d382604051611d359190612494565b60405180910390a15050565b5f5f60075403611d55576006549050611da7565b600754670de0b6b3a7640000600454600554611d6f6114f4565b611d7991906125d8565b611d83919061260b565b611d8d919061260b565b611d979190612679565b600654611da491906126a9565b90505b90565b60065481565b611df6600a5f3373ffffffffffffffffffffffffffffffffffffffff1673ffffffffffffffffffffffffffffffffffffffff1681526020019081526020015f205461094a565b611dfe610fb1565b565b60095481565b5f5f9054906101000a900473ffffffffffffffffffffffffffffffffffffffff1673ffffffffffffffffffffffffffffffffffffffff163373ffffffffffffffffffffffffffffffffffffffff1614611e8b576040517f82b4290000000000000000000000000000000000000000000000000000000000815260040160405180910390fd5b805f73ffffffffffffffffffffffffffffffffffffffff168173ffffffffffffffffffffffffffffffffffffffff1603611ef1576040517fe6c4247b00000000000000000000000000000000000000000000000000000000815260040160405180910390fd5b815f5f6101000a81548173ffffffffffffffffffffffffffffffffffffffff021916908373ffffffffffffffffffffffffffffffffffffffff1602179055505050565b60025f9054906101000a900473ffffffffffffffffffffffffffffffffffffffff1681565b33611f62611d41565b600681905550611f706114f4565b6005819055505f73ffffffffffffffffffffffffffffffffffffffff168173ffffffffffffffffffffffffffffffffffffffff161461203857611fb2816105ab565b600c5f8373ffffffffffffffffffffffffffffffffffffffff1673ffffffffffffffffffffffffffffffffffffffff1681526020019081526020015f2081905550600654600b5f8373ffffffffffffffffffffffffffffffffffffffff1673ffffffffffffffffffffffffffffffffffffffff1681526020019081526020015f20819055505b5f600c5f3373ffffffffffffffffffffffffffffffffffffffff1673ffffffffffffffffffffffffffffffffffffffff1681526020019081526020015f205490505f81036120b2576040517f3fb087f400000000000000000000000000000000000000000000000000000000815260040160405180910390fd5b5f73ffffffffffffffffffffffffffffffffffffffff1660035f9054906101000a900473ffffffffffffffffffffffffffffffffffffffff1673ffffffffffffffffffffffffffffffffffffffff1603612138576040517fe6c4247b00000000000000000000000000000000000000000000000000000000815260040160405180910390fd5b5f600c5f3373ffffffffffffffffffffffffffffffffffffffff1673ffffffffffffffffffffffffffffffffffffffff1681526020019081526020015f208190555060025f9054906101000a900473ffffffffffffffffffffffffffffffffffffffff1673ffffffffffffffffffffffffffffffffffffffff1663095ea7b360035f9054906101000a900473ffffffffffffffffffffffffffffffffffffffff16836040518363ffffffff1660e01b81526004016121f7929190612750565b6020604051808303815f875af1158015612213573d5f5f3e3d5ffd5b505050506040513d601f19601f8201168201806040525081019061223791906127ac565b61226d576040517f90b8ec1800000000000000000000000000000000000000000000000000000000815260040160405180910390fd5b5f60035f9054906101000a900473ffffffffffffffffffffffffffffffffffffffff1673ffffffffffffffffffffffffffffffffffffffff1663ec6cc0cc60025f9054906101000a900473ffffffffffffffffffffffffffffffffffffffff1660015f9054906101000a900473ffffffffffffffffffffffffffffffffffffffff16856040518463ffffffff1660e01b815260040161230e939291906126dc565b6020604051808303815f875af115801561232a573d5f5f3e3d5ffd5b505050506040513d601f19601f8201168201806040525081019061234e9190612725565b90503373ffffffffffffffffffffffffffffffffffffffff167fe2403640ba68fed3a2f88b7557551d1993f84b99bb10ff833f0cf8db0c5e0486836040516123969190612494565b60405180910390a23373ffffffffffffffffffffffffffffffffffffffff167f3db0354f0c91dc092813e532740020eb4752968fa4302b450af365fda1827ef783836040516123e69291906127fe565b60405180910390a2505050565b5f5ffd5b5f73ffffffffffffffffffffffffffffffffffffffff82169050919050565b5f612420826123f7565b9050919050565b61243081612416565b811461243a575f5ffd5b50565b5f8135905061244b81612427565b92915050565b5f60208284031215612466576124656123f3565b5b5f6124738482850161243d565b91505092915050565b5f819050919050565b61248e8161247c565b82525050565b5f6020820190506124a75f830184612485565b92915050565b6124b68161247c565b81146124c0575f5ffd5b50565b5f813590506124d1816124ad565b92915050565b5f602082840312156124ec576124eb6123f3565b5b5f6124f9848285016124c3565b91505092915050565b5f6080820190506125155f830187612485565b6125226020830186612485565b61252f6040830185612485565b61253c6060830184612485565b95945050505050565b61254e81612416565b82525050565b5f6020820190506125675f830184612545565b92915050565b5f5f60408385031215612583576125826123f3565b5b5f6125908582860161243d565b92505060206125a1858286016124c3565b9150509250929050565b7f4e487b71000000000000000000000000000000000000000000000000000000005f52601160045260245ffd5b5f6125e28261247c565b91506125ed8361247c565b9250828203905081811115612605576126046125ab565b5b92915050565b5f6126158261247c565b91506126208361247c565b925082820261262e8161247c565b91508282048414831517612645576126446125ab565b5b5092915050565b7f4e487b71000000000000000000000000000000000000000000000000000000005f52601260045260245ffd5b5f6126838261247c565b915061268e8361247c565b92508261269e5761269d61264c565b5b828204905092915050565b5f6126b38261247c565b91506126be8361247c565b92508282019050808211156126d6576126d56125ab565b5b92915050565b5f6060820190506126ef5f830186612545565b6126fc6020830185612545565b6127096040830184612485565b949350505050565b5f8151905061271f816124ad565b92915050565b5f6020828403121561273a576127396123f3565b5b5f61274784828501612711565b91505092915050565b5f6040820190506127635f830185612545565b6127706020830184612485565b9392505050565b5f8115159050919050565b61278b81612777565b8114612795575f5ffd5b50565b5f815190506127a681612782565b92915050565b5f602082840312156127c1576127c06123f3565b5b5f6127ce84828501612798565b91505092915050565b5f6040820190506127ea5f830185612545565b6127f76020830184612545565b9392505050565b5f6040820190506128115f830185612485565b61281e6020830184612485565b939250505056fea2646970667358221220b8a521bdf9b7f485948bb21f1ecb04b7e9e14a952600095744e98fa50a87141464736f6c634300081e0033",
					"opcodes": "PUSH1 0x80 PUSH1 0x40 MSTORE PUSH3 0x93A80 PUSH1 0x8 SSTORE CALLVALUE DUP1 ISZERO PUSH2 0x16 JUMPI PUSH0 PUSH0 REVERT JUMPDEST POP PUSH1 0x40 MLOAD PUSH2 0x2B72 CODESIZE SUB DUP1 PUSH2 0x2B72 DUP4 CODECOPY DUP2 DUP2 ADD PUSH1 0x40 MSTORE DUP2 ADD SWAP1 PUSH2 0x38 SWAP2 SWAP1 PUSH2 0x2A6 JUMP JUMPDEST DUP4 PUSH0 PUSH20 0xFFFFFFFFFFFFFFFFFFFFFFFFFFFFFFFFFFFFFFFF AND DUP2 PUSH20 0xFFFFFFFFFFFFFFFFFFFFFFFFFFFFFFFFFFFFFFFF AND SUB PUSH2 0x9E JUMPI PUSH1 0x40 MLOAD PUSH32 0xE6C4247B00000000000000000000000000000000000000000000000000000000 DUP2 MSTORE PUSH1 0x4 ADD PUSH1 0x40 MLOAD DUP1 SWAP2 SUB SWAP1 REVERT JUMPDEST DUP4 PUSH0 PUSH20 0xFFFFFFFFFFFFFFFFFFFFFFFFFFFFFFFFFFFFFFFF AND DUP2 PUSH20 0xFFFFFFFFFFFFFFFFFFFFFFFFFFFFFFFFFFFFFFFF AND SUB PUSH2 0x104 JUMPI PUSH1 0x40 MLOAD PUSH32 0xE6C4247B00000000000000000000000000000000000000000000000000000000 DUP2 MSTORE PUSH1 0x4 ADD PUSH1 0x40 MLOAD DUP1 SWAP2 SUB SWAP1 REVERT JUMPDEST CALLER PUSH0 PUSH0 PUSH2 0x100 EXP DUP2 SLOAD DUP2 PUSH20 0xFFFFFFFFFFFFFFFFFFFFFFFFFFFFFFFFFFFFFFFF MUL NOT AND SWAP1 DUP4 PUSH20 0xFFFFFFFFFFFFFFFFFFFFFFFFFFFFFFFFFFFFFFFF AND MUL OR SWAP1 SSTORE POP DUP6 PUSH1 0x1 PUSH0 PUSH2 0x100 EXP DUP2 SLOAD DUP2 PUSH20 0xFFFFFFFFFFFFFFFFFFFFFFFFFFFFFFFFFFFFFFFF MUL NOT AND SWAP1 DUP4 PUSH20 0xFFFFFFFFFFFFFFFFFFFFFFFFFFFFFFFFFFFFFFFF AND MUL OR SWAP1 SSTORE POP DUP5 PUSH1 0x2 PUSH0 PUSH2 0x100 EXP DUP2 SLOAD DUP2 PUSH20 0xFFFFFFFFFFFFFFFFFFFFFFFFFFFFFFFFFFFFFFFF MUL NOT AND SWAP1 DUP4 PUSH20 0xFFFFFFFFFFFFFFFFFFFFFFFFFFFFFFFFFFFFFFFF AND MUL OR SWAP1 SSTORE POP DUP4 PUSH1 0x3 PUSH0 PUSH2 0x100 EXP DUP2 SLOAD DUP2 PUSH20 0xFFFFFFFFFFFFFFFFFFFFFFFFFFFFFFFFFFFFFFFF MUL NOT AND SWAP1 DUP4 PUSH20 0xFFFFFFFFFFFFFFFFFFFFFFFFFFFFFFFFFFFFFFFF AND MUL OR SWAP1 SSTORE POP DUP3 PUSH1 0x4 DUP2 SWAP1 SSTORE POP POP POP POP POP POP POP PUSH2 0x30A JUMP JUMPDEST PUSH0 PUSH0 REVERT JUMPDEST PUSH0 PUSH20 0xFFFFFFFFFFFFFFFFFFFFFFFFFFFFFFFFFFFFFFFF DUP3 AND SWAP1 POP SWAP2 SWAP1 POP JUMP JUMPDEST PUSH0 PUSH2 0x242 DUP3 PUSH2 0x219 JUMP JUMPDEST SWAP1 POP SWAP2 SWAP1 POP JUMP JUMPDEST PUSH2 0x252 DUP2 PUSH2 0x238 JUMP JUMPDEST DUP2 EQ PUSH2 0x25C JUMPI PUSH0 PUSH0 REVERT JUMPDEST POP JUMP JUMPDEST PUSH0 DUP2 MLOAD SWAP1 POP PUSH2 0x26D DUP2 PUSH2 0x249 JUMP JUMPDEST SWAP3 SWAP2 POP POP JUMP JUMPDEST PUSH0 DUP2 SWAP1 POP SWAP2 SWAP1 POP JUMP JUMPDEST PUSH2 0x285 DUP2 PUSH2 0x273 JUMP JUMPDEST DUP2 EQ PUSH2 0x28F JUMPI PUSH0 PUSH0 REVERT JUMPDEST POP JUMP JUMPDEST PUSH0 DUP2 MLOAD SWAP1 POP PUSH2 0x2A0 DUP2 PUSH2 0x27C JUMP JUMPDEST SWAP3 SWAP2 POP POP JUMP JUMPDEST PUSH0 PUSH0 PUSH0 PUSH0 PUSH1 0x80 DUP6 DUP8 SUB SLT ISZERO PUSH2 0x2BE JUMPI PUSH2 0x2BD PUSH2 0x215 JUMP JUMPDEST JUMPDEST PUSH0 PUSH2 0x2CB DUP8 DUP3 DUP9 ADD PUSH2 0x25F JUMP JUMPDEST SWAP5 POP POP PUSH1 0x20 PUSH2 0x2DC DUP8 DUP3 DUP9 ADD PUSH2 0x25F JUMP JUMPDEST SWAP4 POP POP PUSH1 0x40 PUSH2 0x2ED DUP8 DUP3 DUP9 ADD PUSH2 0x25F JUMP JUMPDEST SWAP3 POP POP PUSH1 0x60 PUSH2 0x2FE DUP8 DUP3 DUP9 ADD PUSH2 0x292 JUMP JUMPDEST SWAP2 POP POP SWAP3 SWAP6 SWAP2 SWAP5 POP SWAP3 POP JUMP JUMPDEST PUSH2 0x285B DUP1 PUSH2 0x317 PUSH0 CODECOPY PUSH0 RETURN INVALID PUSH1 0x80 PUSH1 0x40 MSTORE CALLVALUE DUP1 ISZERO PUSH2 0xF JUMPI PUSH0 PUSH0 REVERT JUMPDEST POP PUSH1 0x4 CALLDATASIZE LT PUSH2 0x1E2 JUMPI PUSH0 CALLDATALOAD PUSH1 0xE0 SHR DUP1 PUSH4 0x80FAA57D GT PUSH2 0x10D JUMPI DUP1 PUSH4 0xCC1A378F GT PUSH2 0xA0 JUMPI DUP1 PUSH4 0xEBE2B12B GT PUSH2 0x6F JUMPI DUP1 PUSH4 0xEBE2B12B EQ PUSH2 0x549 JUMPI DUP1 PUSH4 0xF2FDE38B EQ PUSH2 0x567 JUMPI DUP1 PUSH4 0xF7C618C1 EQ PUSH2 0x583 JUMPI DUP1 PUSH4 0xF84DBD58 EQ PUSH2 0x5A1 JUMPI PUSH2 0x1E2 JUMP JUMPDEST DUP1 PUSH4 0xCC1A378F EQ PUSH2 0x4E7 JUMPI DUP1 PUSH4 0xCD3DAF9D EQ PUSH2 0x503 JUMPI DUP1 PUSH4 0xDF136D65 EQ PUSH2 0x521 JUMPI DUP1 PUSH4 0xE9FAD8EE EQ PUSH2 0x53F JUMPI PUSH2 0x1E2 JUMP JUMPDEST DUP1 PUSH4 0x8DA5CB5B GT PUSH2 0xDC JUMPI DUP1 PUSH4 0x8DA5CB5B EQ PUSH2 0x473 JUMPI DUP1 PUSH4 0x95CCEA67 EQ PUSH2 0x491 JUMPI DUP1 PUSH4 0xA694FC3A EQ PUSH2 0x4AD JUMPI DUP1 PUSH4 0xC8F33C91 EQ PUSH2 0x4C9 JUMPI PUSH2 0x1E2 JUMP JUMPDEST DUP1 PUSH4 0x80FAA57D EQ PUSH2 0x3E9 JUMPI DUP1 PUSH4 0x817B1CD2 EQ PUSH2 0x407 JUMPI DUP1 PUSH4 0x8927E052 EQ PUSH2 0x425 JUMPI DUP1 PUSH4 0x8B876347 EQ PUSH2 0x443 JUMPI PUSH2 0x1E2 JUMP JUMPDEST DUP1 PUSH4 0x386A9525 GT PUSH2 0x185 JUMPI DUP1 PUSH4 0x60217267 GT PUSH2 0x154 JUMPI DUP1 PUSH4 0x60217267 EQ PUSH2 0x34A JUMPI DUP1 PUSH4 0x6386C1C7 EQ PUSH2 0x37A JUMPI DUP1 PUSH4 0x72F702F3 EQ PUSH2 0x3AD JUMPI DUP1 PUSH4 0x7B0A47EE EQ PUSH2 0x3CB JUMPI PUSH2 0x1E2 JUMP JUMPDEST DUP1 PUSH4 0x386A9525 EQ PUSH2 0x2D6 JUMPI DUP1 PUSH4 0x3C6B16AB EQ PUSH2 0x2F4 JUMPI DUP1 PUSH4 0x3D18B912 EQ PUSH2 0x310 JUMPI DUP1 PUSH4 0x583D42FD EQ PUSH2 0x31A JUMPI PUSH2 0x1E2 JUMP JUMPDEST DUP1 PUSH4 0x1C1F78EB GT PUSH2 0x1C1 JUMPI DUP1 PUSH4 0x1C1F78EB EQ PUSH2 0x276 JUMPI DUP1 PUSH4 0x1F5870EF EQ PUSH2 0x294 JUMPI DUP1 PUSH4 0x2B52C526 EQ PUSH2 0x2B0 JUMPI DUP1 PUSH4 0x2E1A7D4D EQ PUSH2 0x2BA JUMPI PUSH2 0x1E2 JUMP JUMPDEST DUP1 PUSH3 0x8CC262 EQ PUSH2 0x1E6 JUMPI DUP1 PUSH4 0x700037D EQ PUSH2 0x216 JUMPI DUP1 PUSH4 0x1227ED1F EQ PUSH2 0x246 JUMPI JUMPDEST PUSH0 PUSH0 REVERT JUMPDEST PUSH2 0x200 PUSH1 0x4 DUP1 CALLDATASIZE SUB DUP2 ADD SWAP1 PUSH2 0x1FB SWAP2 SWAP1 PUSH2 0x2451 JUMP JUMPDEST PUSH2 0x5AB JUMP JUMPDEST PUSH1 0x40 MLOAD PUSH2 0x20D SWAP2 SWAP1 PUSH2 0x2494 JUMP JUMPDEST PUSH1 0x40 MLOAD DUP1 SWAP2 SUB SWAP1 RETURN JUMPDEST PUSH2 0x230 PUSH1 0x4 DUP1 CALLDATASIZE SUB DUP2 ADD SWAP1 PUSH2 0x22B SWAP2 SWAP1 PUSH2 0x2451 JUMP JUMPDEST PUSH2 0x6A6 JUMP JUMPDEST PUSH1 0x40 MLOAD PUSH2 0x23D SWAP2 SWAP1 PUSH2 0x2494 JUMP JUMPDEST PUSH1 0x40 MLOAD DUP1 SWAP2 SUB SWAP1 RETURN JUMPDEST PUSH2 0x260 PUSH1 0x4 DUP1 CALLDATASIZE SUB DUP2 ADD SWAP1 PUSH2 0x25B SWAP2 SWAP1 PUSH2 0x2451 JUMP JUMPDEST PUSH2 0x6BB JUMP JUMPDEST PUSH1 0x40 MLOAD PUSH2 0x26D SWAP2 SWAP1 PUSH2 0x2494 JUMP JUMPDEST PUSH1 0x40 MLOAD DUP1 SWAP2 SUB SWAP1 RETURN JUMPDEST PUSH2 0x27E PUSH2 0x81C JUMP JUMPDEST PUSH1 0x40 MLOAD PUSH2 0x28B SWAP2 SWAP1 PUSH2 0x2494 JUMP JUMPDEST PUSH1 0x40 MLOAD DUP1 SWAP2 SUB SWAP1 RETURN JUMPDEST PUSH2 0x2AE PUSH1 0x4 DUP1 CALLDATASIZE SUB DUP2 ADD SWAP1 PUSH2 0x2A9 SWAP2 SWAP1 PUSH2 0x2451 JUMP JUMPDEST PUSH2 0x832 JUMP JUMPDEST STOP JUMPDEST PUSH2 0x2B8 PUSH2 0x8FA JUMP JUMPDEST STOP JUMPDEST PUSH2 0x2D4 PUSH1 0x4 DUP1 CALLDATASIZE SUB DUP2 ADD SWAP1 PUSH2 0x2CF SWAP2 SWAP1 PUSH2 0x24D7 JUMP JUMPDEST PUSH2 0x94A JUMP JUMPDEST STOP JUMPDEST PUSH2 0x2DE PUSH2 0xC6A JUMP JUMPDEST PUSH1 0x40 MLOAD PUSH2 0x2EB SWAP2 SWAP1 PUSH2 0x2494 JUMP JUMPDEST PUSH1 0x40 MLOAD DUP1 SWAP2 SUB SWAP1 RETURN JUMPDEST PUSH2 0x30E PUSH1 0x4 DUP1 CALLDATASIZE SUB DUP2 ADD SWAP1 PUSH2 0x309 SWAP2 SWAP1 PUSH2 0x24D7 JUMP JUMPDEST PUSH2 0xC70 JUMP JUMPDEST STOP JUMPDEST PUSH2 0x318 PUSH2 0xFB1 JUMP JUMPDEST STOP JUMPDEST PUSH2 0x334 PUSH1 0x4 DUP1 CALLDATASIZE SUB DUP2 ADD SWAP1 PUSH2 0x32F SWAP2 SWAP1 PUSH2 0x2451 JUMP JUMPDEST PUSH2 0x1270 JUMP JUMPDEST PUSH1 0x40 MLOAD PUSH2 0x341 SWAP2 SWAP1 PUSH2 0x2494 JUMP JUMPDEST PUSH1 0x40 MLOAD DUP1 SWAP2 SUB SWAP1 RETURN JUMPDEST PUSH2 0x364 PUSH1 0x4 DUP1 CALLDATASIZE SUB DUP2 ADD SWAP1 PUSH2 0x35F SWAP2 SWAP1 PUSH2 0x2451 JUMP JUMPDEST PUSH2 0x1285 JUMP JUMPDEST PUSH1 0x40 MLOAD PUSH2 0x371 SWAP2 SWAP1 PUSH2 0x2494 JUMP JUMPDEST PUSH1 0x40 MLOAD DUP1 SWAP2 SUB SWAP1 RETURN JUMPDEST PUSH2 0x394 PUSH1 0x4 DUP1 CALLDATASIZE SUB DUP2 ADD SWAP1 PUSH2 0x38F SWAP2 SWAP1 PUSH2 0x2451 JUMP JUMPDEST PUSH2 0x129A JUMP JUMPDEST PUSH1 0x40 MLOAD PUSH2 0x3A4 SWAP5 SWAP4 SWAP3 SWAP2 SWAP1 PUSH2 0x2502 JUMP JUMPDEST PUSH1 0x40 MLOAD DUP1 SWAP2 SUB SWAP1 RETURN JUMPDEST PUSH2 0x3B5 PUSH2 0x14C9 JUMP JUMPDEST PUSH1 0x40 MLOAD PUSH2 0x3C2 SWAP2 SWAP1 PUSH2 0x2554 JUMP JUMPDEST PUSH1 0x40 MLOAD DUP1 SWAP2 SUB SWAP1 RETURN JUMPDEST PUSH2 0x3D3 PUSH2 0x14EE JUMP JUMPDEST PUSH1 0x40 MLOAD PUSH2 0x3E0 SWAP2 SWAP1 PUSH2 0x2494 JUMP JUMPDEST PUSH1 0x40 MLOAD DUP1 SWAP2 SUB SWAP1 RETURN JUMPDEST PUSH2 0x3F1 PUSH2 0x14F4 JUMP JUMPDEST PUSH1 0x40 MLOAD PUSH2 0x3FE SWAP2 SWAP1 PUSH2 0x2494 JUMP JUMPDEST PUSH1 0x40 MLOAD DUP1 SWAP2 SUB SWAP1 RETURN JUMPDEST PUSH2 0x40F PUSH2 0x150D JUMP JUMPDEST PUSH1 0x40 MLOAD PUSH2 0x41C SWAP2 SWAP1 PUSH2 0x2494 JUMP JUMPDEST PUSH1 0x40 MLOAD DUP1 SWAP2 SUB SWAP1 RETURN JUMPDEST PUSH2 0x42D PUSH2 0x1513 JUMP JUMPDEST PUSH1 0x40 MLOAD PUSH2 0x43A SWAP2 SWAP1 PUSH2 0x2554 JUMP JUMPDEST PUSH1 0x40 MLOAD DUP1 SWAP2 SUB SWAP1 RETURN JUMPDEST PUSH2 0x45D PUSH1 0x4 DUP1 CALLDATASIZE SUB DUP2 ADD SWAP1 PUSH2 0x458 SWAP2 SWAP1 PUSH2 0x2451 JUMP JUMPDEST PUSH2 0x1538 JUMP JUMPDEST PUSH1 0x40 MLOAD PUSH2 0x46A SWAP2 SWAP1 PUSH2 0x2494 JUMP JUMPDEST PUSH1 0x40 MLOAD DUP1 SWAP2 SUB SWAP1 RETURN JUMPDEST PUSH2 0x47B PUSH2 0x154D JUMP JUMPDEST PUSH1 0x40 MLOAD PUSH2 0x488 SWAP2 SWAP1 PUSH2 0x2554 JUMP JUMPDEST PUSH1 0x40 MLOAD DUP1 SWAP2 SUB SWAP1 RETURN JUMPDEST PUSH2 0x4AB PUSH1 0x4 DUP1 CALLDATASIZE SUB DUP2 ADD SWAP1 PUSH2 0x4A6 SWAP2 SWAP1 PUSH2 0x256D JUMP JUMPDEST PUSH2 0x1571 JUMP JUMPDEST STOP JUMPDEST PUSH2 0x4C7 PUSH1 0x4 DUP1 CALLDATASIZE SUB DUP2 ADD SWAP1 PUSH2 0x4C2 SWAP2 SWAP1 PUSH2 0x24D7 JUMP JUMPDEST PUSH2 0x17A9 JUMP JUMPDEST STOP JUMPDEST PUSH2 0x4D1 PUSH2 0x1BFF JUMP JUMPDEST PUSH1 0x40 MLOAD PUSH2 0x4DE SWAP2 SWAP1 PUSH2 0x2494 JUMP JUMPDEST PUSH1 0x40 MLOAD DUP1 SWAP2 SUB SWAP1 RETURN JUMPDEST PUSH2 0x501 PUSH1 0x4 DUP1 CALLDATASIZE SUB DUP2 ADD SWAP1 PUSH2 0x4FC SWAP2 SWAP1 PUSH2 0x24D7 JUMP JUMPDEST PUSH2 0x1C05 JUMP JUMPDEST STOP JUMPDEST PUSH2 0x50B PUSH2 0x1D41 JUMP JUMPDEST PUSH1 0x40 MLOAD PUSH2 0x518 SWAP2 SWAP1 PUSH2 0x2494 JUMP JUMPDEST PUSH1 0x40 MLOAD DUP1 SWAP2 SUB SWAP1 RETURN JUMPDEST PUSH2 0x529 PUSH2 0x1DAA JUMP JUMPDEST PUSH1 0x40 MLOAD PUSH2 0x536 SWAP2 SWAP1 PUSH2 0x2494 JUMP JUMPDEST PUSH1 0x40 MLOAD DUP1 SWAP2 SUB SWAP1 RETURN JUMPDEST PUSH2 0x547 PUSH2 0x1DB0 JUMP JUMPDEST STOP JUMPDEST PUSH2 0x551 PUSH2 0x1E00 JUMP JUMPDEST PUSH1 0x40 MLOAD PUSH2 0x55E SWAP2 SWAP1 PUSH2 0x2494 JUMP JUMPDEST PUSH1 0x40 MLOAD DUP1 SWAP2 SUB SWAP1 RETURN JUMPDEST PUSH2 0x581 PUSH1 0x4 DUP1 CALLDATASIZE SUB DUP2 ADD SWAP1 PUSH2 0x57C SWAP2 SWAP1 PUSH2 0x2451 JUMP JUMPDEST PUSH2 0x1E06 JUMP JUMPDEST STOP JUMPDEST PUSH2 0x58B PUSH2 0x1F34 JUMP JUMPDEST PUSH1 0x40 MLOAD PUSH2 0x598 SWAP2 SWAP1 PUSH2 0x2554 JUMP JUMPDEST PUSH1 0x40 MLOAD DUP1 SWAP2 SUB SWAP1 RETURN JUMPDEST PUSH2 0x5A9 PUSH2 0x1F59 JUMP JUMPDEST STOP JUMPDEST PUSH0 PUSH1 0xC PUSH0 DUP4 PUSH20 0xFFFFFFFFFFFFFFFFFFFFFFFFFFFFFFFFFFFFFFFF AND PUSH20 0xFFFFFFFFFFFFFFFFFFFFFFFFFFFFFFFFFFFFFFFF AND DUP2 MSTORE PUSH1 0x20 ADD SWAP1 DUP2 MSTORE PUSH1 0x20 ADD PUSH0 KECCAK256 SLOAD PUSH8 0xDE0B6B3A7640000 PUSH1 0xB PUSH0 DUP6 PUSH20 0xFFFFFFFFFFFFFFFFFFFFFFFFFFFFFFFFFFFFFFFF AND PUSH20 0xFFFFFFFFFFFFFFFFFFFFFFFFFFFFFFFFFFFFFFFF AND DUP2 MSTORE PUSH1 0x20 ADD SWAP1 DUP2 MSTORE PUSH1 0x20 ADD PUSH0 KECCAK256 SLOAD PUSH2 0x639 PUSH2 0x1D41 JUMP JUMPDEST PUSH2 0x643 SWAP2 SWAP1 PUSH2 0x25D8 JUMP JUMPDEST PUSH1 0xA PUSH0 DUP7 PUSH20 0xFFFFFFFFFFFFFFFFFFFFFFFFFFFFFFFFFFFFFFFF AND PUSH20 0xFFFFFFFFFFFFFFFFFFFFFFFFFFFFFFFFFFFFFFFF AND DUP2 MSTORE PUSH1 0x20 ADD SWAP1 DUP2 MSTORE PUSH1 0x20 ADD PUSH0 KECCAK256 SLOAD PUSH2 0x68B SWAP2 SWAP1 PUSH2 0x260B JUMP JUMPDEST PUSH2 0x695 SWAP2 SWAP1 PUSH2 0x2679 JUMP JUMPDEST PUSH2 0x69F SWAP2 SWAP1 PUSH2 0x26A9 JUMP JUMPDEST SWAP1 POP SWAP2 SWAP1 POP JUMP JUMPDEST PUSH1 0xC PUSH1 0x20 MSTORE DUP1 PUSH0 MSTORE PUSH1 0x40 PUSH0 KECCAK256 PUSH0 SWAP2 POP SWAP1 POP SLOAD DUP2 JUMP JUMPDEST PUSH0 PUSH0 PUSH20 0xFFFFFFFFFFFFFFFFFFFFFFFFFFFFFFFFFFFFFFFF AND PUSH1 0x3 PUSH0 SWAP1 SLOAD SWAP1 PUSH2 0x100 EXP SWAP1 DIV PUSH20 0xFFFFFFFFFFFFFFFFFFFFFFFFFFFFFFFFFFFFFFFF AND PUSH20 0xFFFFFFFFFFFFFFFFFFFFFFFFFFFFFFFFFFFFFFFF AND SUB PUSH2 0x718 JUMPI PUSH0 SWAP1 POP PUSH2 0x817 JUMP JUMPDEST PUSH0 PUSH2 0x722 DUP4 PUSH2 0x5AB JUMP JUMPDEST SWAP1 POP PUSH0 DUP2 SUB PUSH2 0x734 JUMPI PUSH0 SWAP2 POP POP PUSH2 0x817 JUMP JUMPDEST PUSH1 0x3 PUSH0 SWAP1 SLOAD SWAP1 PUSH2 0x100 EXP SWAP1 DIV PUSH20 0xFFFFFFFFFFFFFFFFFFFFFFFFFFFFFFFFFFFFFFFF AND PUSH20 0xFFFFFFFFFFFFFFFFFFFFFFFFFFFFFFFFFFFFFFFF AND PUSH4 0xC515EE23 PUSH1 0x2 PUSH0 SWAP1 SLOAD SWAP1 PUSH2 0x100 EXP SWAP1 DIV PUSH20 0xFFFFFFFFFFFFFFFFFFFFFFFFFFFFFFFFFFFFFFFF AND PUSH1 0x1 PUSH0 SWAP1 SLOAD SWAP1 PUSH2 0x100 EXP SWAP1 DIV PUSH20 0xFFFFFFFFFFFFFFFFFFFFFFFFFFFFFFFFFFFFFFFF AND DUP5 PUSH1 0x40 MLOAD DUP5 PUSH4 0xFFFFFFFF AND PUSH1 0xE0 SHL DUP2 MSTORE PUSH1 0x4 ADD PUSH2 0x7D4 SWAP4 SWAP3 SWAP2 SWAP1 PUSH2 0x26DC JUMP JUMPDEST PUSH1 0x20 PUSH1 0x40 MLOAD DUP1 DUP4 SUB DUP2 DUP7 GAS STATICCALL ISZERO DUP1 ISZERO PUSH2 0x7EF JUMPI RETURNDATASIZE PUSH0 PUSH0 RETURNDATACOPY RETURNDATASIZE PUSH0 REVERT JUMPDEST POP POP POP POP PUSH1 0x40 MLOAD RETURNDATASIZE PUSH1 0x1F NOT PUSH1 0x1F DUP3 ADD AND DUP3 ADD DUP1 PUSH1 0x40 MSTORE POP DUP2 ADD SWAP1 PUSH2 0x813 SWAP2 SWAP1 PUSH2 0x2725 JUMP JUMPDEST SWAP2 POP POP JUMPDEST SWAP2 SWAP1 POP JUMP JUMPDEST PUSH0 PUSH1 0x8 SLOAD PUSH1 0x4 SLOAD PUSH2 0x82D SWAP2 SWAP1 PUSH2 0x260B JUMP JUMPDEST SWAP1 POP SWAP1 JUMP JUMPDEST PUSH0 PUSH0 SWAP1 SLOAD SWAP1 PUSH2 0x100 EXP SWAP1 DIV PUSH20 0xFFFFFFFFFFFFFFFFFFFFFFFFFFFFFFFFFFFFFFFF AND PUSH20 0xFFFFFFFFFFFFFFFFFFFFFFFFFFFFFFFFFFFFFFFF AND CALLER PUSH20 0xFFFFFFFFFFFFFFFFFFFFFFFFFFFFFFFFFFFFFFFF AND EQ PUSH2 0x8B7 JUMPI PUSH1 0x40 MLOAD PUSH32 0x82B4290000000000000000000000000000000000000000000000000000000000 DUP2 MSTORE PUSH1 0x4 ADD PUSH1 0x40 MLOAD DUP1 SWAP2 SUB SWAP1 REVERT JUMPDEST DUP1 PUSH1 0x3 PUSH0 PUSH2 0x100 EXP DUP2 SLOAD DUP2 PUSH20 0xFFFFFFFFFFFFFFFFFFFFFFFFFFFFFFFFFFFFFFFF MUL NOT AND SWAP1 DUP4 PUSH20 0xFFFFFFFFFFFFFFFFFFFFFFFFFFFFFFFFFFFFFFFF AND MUL OR SWAP1 SSTORE POP POP JUMP JUMPDEST PUSH2 0x940 PUSH1 0xA PUSH0 CALLER PUSH20 0xFFFFFFFFFFFFFFFFFFFFFFFFFFFFFFFFFFFFFFFF AND PUSH20 0xFFFFFFFFFFFFFFFFFFFFFFFFFFFFFFFFFFFFFFFF AND DUP2 MSTORE PUSH1 0x20 ADD SWAP1 DUP2 MSTORE PUSH1 0x20 ADD PUSH0 KECCAK256 SLOAD PUSH2 0x94A JUMP JUMPDEST PUSH2 0x948 PUSH2 0x1F59 JUMP JUMPDEST JUMP JUMPDEST DUP1 PUSH0 DUP2 SUB PUSH2 0x984 JUMPI PUSH1 0x40 MLOAD PUSH32 0x2C5211C600000000000000000000000000000000000000000000000000000000 DUP2 MSTORE PUSH1 0x4 ADD PUSH1 0x40 MLOAD DUP1 SWAP2 SUB SWAP1 REVERT JUMPDEST CALLER PUSH2 0x98D PUSH2 0x1D41 JUMP JUMPDEST PUSH1 0x6 DUP2 SWAP1 SSTORE POP PUSH2 0x99B PUSH2 0x14F4 JUMP JUMPDEST PUSH1 0x5 DUP2 SWAP1 SSTORE POP PUSH0 PUSH20 0xFFFFFFFFFFFFFFFFFFFFFFFFFFFFFFFFFFFFFFFF AND DUP2 PUSH20 0xFFFFFFFFFFFFFFFFFFFFFFFFFFFFFFFFFFFFFFFF AND EQ PUSH2 0xA63 JUMPI PUSH2 0x9DD DUP2 PUSH2 0x5AB JUMP JUMPDEST PUSH1 0xC PUSH0 DUP4 PUSH20 0xFFFFFFFFFFFFFFFFFFFFFFFFFFFFFFFFFFFFFFFF AND PUSH20 0xFFFFFFFFFFFFFFFFFFFFFFFFFFFFFFFFFFFFFFFF AND DUP2 MSTORE PUSH1 0x20 ADD SWAP1 DUP2 MSTORE PUSH1 0x20 ADD PUSH0 KECCAK256 DUP2 SWAP1 SSTORE POP PUSH1 0x6 SLOAD PUSH1 0xB PUSH0 DUP4 PUSH20 0xFFFFFFFFFFFFFFFFFFFFFFFFFFFFFFFFFFFFFFFF AND PUSH20 0xFFFFFFFFFFFFFFFFFFFFFFFFFFFFFFFFFFFFFFFF AND DUP2 MSTORE PUSH1 0x20 ADD SWAP1 DUP2 MSTORE PUSH1 0x20 ADD PUSH0 KECCAK256 DUP2 SWAP1 SSTORE POP JUMPDEST DUP3 PUSH1 0xA PUSH0 CALLER PUSH20 0xFFFFFFFFFFFFFFFFFFFFFFFFFFFFFFFFFFFFFFFF AND PUSH20 0xFFFFFFFFFFFFFFFFFFFFFFFFFFFFFFFFFFFFFFFF AND DUP2 MSTORE PUSH1 0x20 ADD SWAP1 DUP2 MSTORE PUSH1 0x20 ADD PUSH0 KECCAK256 SLOAD LT ISZERO PUSH2 0xADA JUMPI PUSH1 0x40 MLOAD PUSH32 0xF4D678B800000000000000000000000000000000000000000000000000000000 DUP2 MSTORE PUSH1 0x4 ADD PUSH1 0x40 MLOAD DUP1 SWAP2 SUB SWAP1 REVERT JUMPDEST DUP3 PUSH1 0x7 PUSH0 DUP3 DUP3 SLOAD PUSH2 0xAEB SWAP2 SWAP1 PUSH2 0x25D8 JUMP JUMPDEST SWAP3 POP POP DUP2 SWAP1 SSTORE POP DUP3 PUSH1 0xA PUSH0 CALLER PUSH20 0xFFFFFFFFFFFFFFFFFFFFFFFFFFFFFFFFFFFFFFFF AND PUSH20 0xFFFFFFFFFFFFFFFFFFFFFFFFFFFFFFFFFFFFFFFF AND DUP2 MSTORE PUSH1 0x20 ADD SWAP1 DUP2 MSTORE PUSH1 0x20 ADD PUSH0 KECCAK256 PUSH0 DUP3 DUP3 SLOAD PUSH2 0xB3E SWAP2 SWAP1 PUSH2 0x25D8 JUMP JUMPDEST SWAP3 POP POP DUP2 SWAP1 SSTORE POP PUSH1 0x1 PUSH0 SWAP1 SLOAD SWAP1 PUSH2 0x100 EXP SWAP1 DIV PUSH20 0xFFFFFFFFFFFFFFFFFFFFFFFFFFFFFFFFFFFFFFFF AND PUSH20 0xFFFFFFFFFFFFFFFFFFFFFFFFFFFFFFFFFFFFFFFF AND PUSH4 0xA9059CBB CALLER DUP6 PUSH1 0x40 MLOAD DUP4 PUSH4 0xFFFFFFFF AND PUSH1 0xE0 SHL DUP2 MSTORE PUSH1 0x4 ADD PUSH2 0xBA1 SWAP3 SWAP2 SWAP1 PUSH2 0x2750 JUMP JUMPDEST PUSH1 0x20 PUSH1 0x40 MLOAD DUP1 DUP4 SUB DUP2 PUSH0 DUP8 GAS CALL ISZERO DUP1 ISZERO PUSH2 0xBBD JUMPI RETURNDATASIZE PUSH0 PUSH0 RETURNDATACOPY RETURNDATASIZE PUSH0 REVERT JUMPDEST POP POP POP POP PUSH1 0x40 MLOAD RETURNDATASIZE PUSH1 0x1F NOT PUSH1 0x1F DUP3 ADD AND DUP3 ADD DUP1 PUSH1 0x40 MSTORE POP DUP2 ADD SWAP1 PUSH2 0xBE1 SWAP2 SWAP1 PUSH2 0x27AC JUMP JUMPDEST PUSH2 0xC17 JUMPI PUSH1 0x40 MLOAD PUSH32 0x90B8EC1800000000000000000000000000000000000000000000000000000000 DUP2 MSTORE PUSH1 0x4 ADD PUSH1 0x40 MLOAD DUP1 SWAP2 SUB SWAP1 REVERT JUMPDEST CALLER PUSH20 0xFFFFFFFFFFFFFFFFFFFFFFFFFFFFFFFFFFFFFFFF AND PUSH32 0x7084F5476618D8E60B11EF0D7D3F06914655ADB8793E28FF7F018D4C76D505D5 DUP5 PUSH1 0x40 MLOAD PUSH2 0xC5D SWAP2 SWAP1 PUSH2 0x2494 JUMP JUMPDEST PUSH1 0x40 MLOAD DUP1 SWAP2 SUB SWAP1 LOG2 POP POP POP JUMP JUMPDEST PUSH1 0x8 SLOAD DUP2 JUMP JUMPDEST PUSH0 PUSH0 SWAP1 SLOAD SWAP1 PUSH2 0x100 EXP SWAP1 DIV PUSH20 0xFFFFFFFFFFFFFFFFFFFFFFFFFFFFFFFFFFFFFFFF AND PUSH20 0xFFFFFFFFFFFFFFFFFFFFFFFFFFFFFFFFFFFFFFFF AND CALLER PUSH20 0xFFFFFFFFFFFFFFFFFFFFFFFFFFFFFFFFFFFFFFFF AND EQ PUSH2 0xCF5 JUMPI PUSH1 0x40 MLOAD PUSH32 0x82B4290000000000000000000000000000000000000000000000000000000000 DUP2 MSTORE PUSH1 0x4 ADD PUSH1 0x40 MLOAD DUP1 SWAP2 SUB SWAP1 REVERT JUMPDEST DUP1 PUSH0 DUP2 SUB PUSH2 0xD2F JUMPI PUSH1 0x40 MLOAD PUSH32 0x2C5211C600000000000000000000000000000000000000000000000000000000 DUP2 MSTORE PUSH1 0x4 ADD PUSH1 0x40 MLOAD DUP1 SWAP2 SUB SWAP1 REVERT JUMPDEST PUSH0 PUSH2 0xD38 PUSH2 0x1D41 JUMP JUMPDEST PUSH1 0x6 DUP2 SWAP1 SSTORE POP PUSH2 0xD46 PUSH2 0x14F4 JUMP JUMPDEST PUSH1 0x5 DUP2 SWAP1 SSTORE POP PUSH0 PUSH20 0xFFFFFFFFFFFFFFFFFFFFFFFFFFFFFFFFFFFFFFFF AND DUP2 PUSH20 0xFFFFFFFFFFFFFFFFFFFFFFFFFFFFFFFFFFFFFFFF AND EQ PUSH2 0xE0E JUMPI PUSH2 0xD88 DUP2 PUSH2 0x5AB JUMP JUMPDEST PUSH1 0xC PUSH0 DUP4 PUSH20 0xFFFFFFFFFFFFFFFFFFFFFFFFFFFFFFFFFFFFFFFF AND PUSH20 0xFFFFFFFFFFFFFFFFFFFFFFFFFFFFFFFFFFFFFFFF AND DUP2 MSTORE PUSH1 0x20 ADD SWAP1 DUP2 MSTORE PUSH1 0x20 ADD PUSH0 KECCAK256 DUP2 SWAP1 SSTORE POP PUSH1 0x6 SLOAD PUSH1 0xB PUSH0 DUP4 PUSH20 0xFFFFFFFFFFFFFFFFFFFFFFFFFFFFFFFFFFFFFFFF AND PUSH20 0xFFFFFFFFFFFFFFFFFFFFFFFFFFFFFFFFFFFFFFFF AND DUP2 MSTORE PUSH1 0x20 ADD SWAP1 DUP2 MSTORE PUSH1 0x20 ADD PUSH0 KECCAK256 DUP2 SWAP1 SSTORE POP JUMPDEST PUSH1 0x9 SLOAD TIMESTAMP LT PUSH2 0xE30 JUMPI PUSH1 0x8 SLOAD DUP4 PUSH2 0xE25 SWAP2 SWAP1 PUSH2 0x2679 JUMP JUMPDEST PUSH1 0x4 DUP2 SWAP1 SSTORE POP PUSH2 0xE74 JUMP JUMPDEST PUSH0 TIMESTAMP PUSH1 0x9 SLOAD PUSH2 0xE3F SWAP2 SWAP1 PUSH2 0x25D8 JUMP JUMPDEST SWAP1 POP PUSH0 PUSH1 0x4 SLOAD DUP3 PUSH2 0xE50 SWAP2 SWAP1 PUSH2 0x260B JUMP JUMPDEST SWAP1 POP PUSH1 0x8 SLOAD DUP2 DUP7 PUSH2 0xE61 SWAP2 SWAP1 PUSH2 0x26A9 JUMP JUMPDEST PUSH2 0xE6B SWAP2 SWAP1 PUSH2 0x2679 JUMP JUMPDEST PUSH1 0x4 DUP2 SWAP1 SSTORE POP POP POP JUMPDEST PUSH0 PUSH1 0x2 PUSH0 SWAP1 SLOAD SWAP1 PUSH2 0x100 EXP SWAP1 DIV PUSH20 0xFFFFFFFFFFFFFFFFFFFFFFFFFFFFFFFFFFFFFFFF AND PUSH20 0xFFFFFFFFFFFFFFFFFFFFFFFFFFFFFFFFFFFFFFFF AND PUSH4 0x70A08231 ADDRESS PUSH1 0x40 MLOAD DUP3 PUSH4 0xFFFFFFFF AND PUSH1 0xE0 SHL DUP2 MSTORE PUSH1 0x4 ADD PUSH2 0xECF SWAP2 SWAP1 PUSH2 0x2554 JUMP JUMPDEST PUSH1 0x20 PUSH1 0x40 MLOAD DUP1 DUP4 SUB DUP2 DUP7 GAS STATICCALL ISZERO DUP1 ISZERO PUSH2 0xEEA JUMPI RETURNDATASIZE PUSH0 PUSH0 RETURNDATACOPY RETURNDATASIZE PUSH0 REVERT JUMPDEST POP POP POP POP PUSH1 0x40 MLOAD RETURNDATASIZE PUSH1 0x1F NOT PUSH1 0x1F DUP3 ADD AND DUP3 ADD DUP1 PUSH1 0x40 MSTORE POP DUP2 ADD SWAP1 PUSH2 0xF0E SWAP2 SWAP1 PUSH2 0x2725 JUMP JUMPDEST SWAP1 POP PUSH1 0x8 SLOAD DUP2 PUSH2 0xF1E SWAP2 SWAP1 PUSH2 0x2679 JUMP JUMPDEST PUSH1 0x4 SLOAD GT ISZERO PUSH2 0xF59 JUMPI PUSH1 0x40 MLOAD PUSH32 0xF4D678B800000000000000000000000000000000000000000000000000000000 DUP2 MSTORE PUSH1 0x4 ADD PUSH1 0x40 MLOAD DUP1 SWAP2 SUB SWAP1 REVERT JUMPDEST TIMESTAMP PUSH1 0x5 DUP2 SWAP1 SSTORE POP PUSH1 0x8 SLOAD TIMESTAMP PUSH2 0xF6E SWAP2 SWAP1 PUSH2 0x26A9 JUMP JUMPDEST PUSH1 0x9 DUP2 SWAP1 SSTORE POP PUSH32 0xDE88A922E0D3B88B24E9623EFEB464919C6BF9F66857A65E2BFCF2CE87A9433D DUP5 PUSH1 0x40 MLOAD PUSH2 0xFA3 SWAP2 SWAP1 PUSH2 0x2494 JUMP JUMPDEST PUSH1 0x40 MLOAD DUP1 SWAP2 SUB SWAP1 LOG1 POP POP POP POP JUMP JUMPDEST CALLER PUSH2 0xFBA PUSH2 0x1D41 JUMP JUMPDEST PUSH1 0x6 DUP2 SWAP1 SSTORE POP PUSH2 0xFC8 PUSH2 0x14F4 JUMP JUMPDEST PUSH1 0x5 DUP2 SWAP1 SSTORE POP PUSH0 PUSH20 0xFFFFFFFFFFFFFFFFFFFFFFFFFFFFFFFFFFFFFFFF AND DUP2 PUSH20 0xFFFFFFFFFFFFFFFFFFFFFFFFFFFFFFFFFFFFFFFF AND EQ PUSH2 0x1090 JUMPI PUSH2 0x100A DUP2 PUSH2 0x5AB JUMP JUMPDEST PUSH1 0xC PUSH0 DUP4 PUSH20 0xFFFFFFFFFFFFFFFFFFFFFFFFFFFFFFFFFFFFFFFF AND PUSH20 0xFFFFFFFFFFFFFFFFFFFFFFFFFFFFFFFFFFFFFFFF AND DUP2 MSTORE PUSH1 0x20 ADD SWAP1 DUP2 MSTORE PUSH1 0x20 ADD PUSH0 KECCAK256 DUP2 SWAP1 SSTORE POP PUSH1 0x6 SLOAD PUSH1 0xB PUSH0 DUP4 PUSH20 0xFFFFFFFFFFFFFFFFFFFFFFFFFFFFFFFFFFFFFFFF AND PUSH20 0xFFFFFFFFFFFFFFFFFFFFFFFFFFFFFFFFFFFFFFFF AND DUP2 MSTORE PUSH1 0x20 ADD SWAP1 DUP2 MSTORE PUSH1 0x20 ADD PUSH0 KECCAK256 DUP2 SWAP1 SSTORE POP JUMPDEST PUSH0 PUSH1 0xC PUSH0 CALLER PUSH20 0xFFFFFFFFFFFFFFFFFFFFFFFFFFFFFFFFFFFFFFFF AND PUSH20 0xFFFFFFFFFFFFFFFFFFFFFFFFFFFFFFFFFFFFFFFF AND DUP2 MSTORE PUSH1 0x20 ADD SWAP1 DUP2 MSTORE PUSH1 0x20 ADD PUSH0 KECCAK256 SLOAD SWAP1 POP PUSH0 DUP2 SUB PUSH2 0x110A JUMPI PUSH1 0x40 MLOAD PUSH32 0x3FB087F400000000000000000000000000000000000000000000000000000000 DUP2 MSTORE PUSH1 0x4 ADD PUSH1 0x40 MLOAD DUP1 SWAP2 SUB SWAP1 REVERT JUMPDEST PUSH0 PUSH1 0xC PUSH0 CALLER PUSH20 0xFFFFFFFFFFFFFFFFFFFFFFFFFFFFFFFFFFFFFFFF AND PUSH20 0xFFFFFFFFFFFFFFFFFFFFFFFFFFFFFFFFFFFFFFFF AND DUP2 MSTORE PUSH1 0x20 ADD SWAP1 DUP2 MSTORE PUSH1 0x20 ADD PUSH0 KECCAK256 DUP2 SWAP1 SSTORE POP PUSH1 0x2 PUSH0 SWAP1 SLOAD SWAP1 PUSH2 0x100 EXP SWAP1 DIV PUSH20 0xFFFFFFFFFFFFFFFFFFFFFFFFFFFFFFFFFFFFFFFF AND PUSH20 0xFFFFFFFFFFFFFFFFFFFFFFFFFFFFFFFFFFFFFFFF AND PUSH4 0xA9059CBB CALLER DUP4 PUSH1 0x40 MLOAD DUP4 PUSH4 0xFFFFFFFF AND PUSH1 0xE0 SHL DUP2 MSTORE PUSH1 0x4 ADD PUSH2 0x11A8 SWAP3 SWAP2 SWAP1 PUSH2 0x2750 JUMP JUMPDEST PUSH1 0x20 PUSH1 0x40 MLOAD DUP1 DUP4 SUB DUP2 PUSH0 DUP8 GAS CALL ISZERO DUP1 ISZERO PUSH2 0x11C4 JUMPI RETURNDATASIZE PUSH0 PUSH0 RETURNDATACOPY RETURNDATASIZE PUSH0 REVERT JUMPDEST POP POP POP POP PUSH1 0x40 MLOAD RETURNDATASIZE PUSH1 0x1F NOT PUSH1 0x1F DUP3 ADD AND DUP3 ADD DUP1 PUSH1 0x40 MSTORE POP DUP2 ADD SWAP1 PUSH2 0x11E8 SWAP2 SWAP1 PUSH2 0x27AC JUMP JUMPDEST PUSH2 0x121E JUMPI PUSH1 0x40 MLOAD PUSH32 0x90B8EC1800000000000000000000000000000000000000000000000000000000 DUP2 MSTORE PUSH1 0x4 ADD PUSH1 0x40 MLOAD DUP1 SWAP2 SUB SWAP1 REVERT JUMPDEST CALLER PUSH20 0xFFFFFFFFFFFFFFFFFFFFFFFFFFFFFFFFFFFFFFFF AND PUSH32 0xE2403640BA68FED3A2F88B7557551D1993F84B99BB10FF833F0CF8DB0C5E0486 DUP3 PUSH1 0x40 MLOAD PUSH2 0x1264 SWAP2 SWAP1 PUSH2 0x2494 JUMP JUMPDEST PUSH1 0x40 MLOAD DUP1 SWAP2 SUB SWAP1 LOG2 POP POP JUMP JUMPDEST PUSH1 0xD PUSH1 0x20 MSTORE DUP1 PUSH0 MSTORE PUSH1 0x40 PUSH0 KECCAK256 PUSH0 SWAP2 POP SWAP1 POP SLOAD DUP2 JUMP JUMPDEST PUSH1 0xA PUSH1 0x20 MSTORE DUP1 PUSH0 MSTORE PUSH1 0x40 PUSH0 KECCAK256 PUSH0 SWAP2 POP SWAP1 POP SLOAD DUP2 JUMP JUMPDEST PUSH0 PUSH0 PUSH0 PUSH0 PUSH1 0xA PUSH0 DUP7 PUSH20 0xFFFFFFFFFFFFFFFFFFFFFFFFFFFFFFFFFFFFFFFF AND PUSH20 0xFFFFFFFFFFFFFFFFFFFFFFFFFFFFFFFFFFFFFFFF AND DUP2 MSTORE PUSH1 0x20 ADD SWAP1 DUP2 MSTORE PUSH1 0x20 ADD PUSH0 KECCAK256 SLOAD SWAP4 POP PUSH2 0x12E7 DUP6 PUSH2 0x5AB JUMP JUMPDEST SWAP3 POP PUSH0 PUSH1 0xD PUSH0 DUP8 PUSH20 0xFFFFFFFFFFFFFFFFFFFFFFFFFFFFFFFFFFFFFFFF AND PUSH20 0xFFFFFFFFFFFFFFFFFFFFFFFFFFFFFFFFFFFFFFFF AND DUP2 MSTORE PUSH1 0x20 ADD SWAP1 DUP2 MSTORE PUSH1 0x20 ADD PUSH0 KECCAK256 SLOAD GT PUSH2 0x1333 JUMPI PUSH0 PUSH2 0x137D JUMP JUMPDEST PUSH1 0xD PUSH0 DUP7 PUSH20 0xFFFFFFFFFFFFFFFFFFFFFFFFFFFFFFFFFFFFFFFF AND PUSH20 0xFFFFFFFFFFFFFFFFFFFFFFFFFFFFFFFFFFFFFFFF AND DUP2 MSTORE PUSH1 0x20 ADD SWAP1 DUP2 MSTORE PUSH1 0x20 ADD PUSH0 KECCAK256 SLOAD TIMESTAMP PUSH2 0x137C SWAP2 SWAP1 PUSH2 0x25D8 JUMP JUMPDEST JUMPDEST SWAP2 POP PUSH0 PUSH20 0xFFFFFFFFFFFFFFFFFFFFFFFFFFFFFFFFFFFFFFFF AND PUSH1 0x3 PUSH0 SWAP1 SLOAD SWAP1 PUSH2 0x100 EXP SWAP1 DIV PUSH20 0xFFFFFFFFFFFFFFFFFFFFFFFFFFFFFFFFFFFFFFFF AND PUSH20 0xFFFFFFFFFFFFFFFFFFFFFFFFFFFFFFFFFFFFFFFF AND EQ ISZERO DUP1 ISZERO PUSH2 0x13DB JUMPI POP PUSH0 DUP4 GT JUMPDEST ISZERO PUSH2 0x14C2 JUMPI PUSH1 0x3 PUSH0 SWAP1 SLOAD SWAP1 PUSH2 0x100 EXP SWAP1 DIV PUSH20 0xFFFFFFFFFFFFFFFFFFFFFFFFFFFFFFFFFFFFFFFF AND PUSH20 0xFFFFFFFFFFFFFFFFFFFFFFFFFFFFFFFFFFFFFFFF AND PUSH4 0xC515EE23 PUSH1 0x2 PUSH0 SWAP1 SLOAD SWAP1 PUSH2 0x100 EXP SWAP1 DIV PUSH20 0xFFFFFFFFFFFFFFFFFFFFFFFFFFFFFFFFFFFFFFFF AND PUSH1 0x1 PUSH0 SWAP1 SLOAD SWAP1 PUSH2 0x100 EXP SWAP1 DIV PUSH20 0xFFFFFFFFFFFFFFFFFFFFFFFFFFFFFFFFFFFFFFFF AND DUP7 PUSH1 0x40 MLOAD DUP5 PUSH4 0xFFFFFFFF AND PUSH1 0xE0 SHL DUP2 MSTORE PUSH1 0x4 ADD PUSH2 0x1480 SWAP4 SWAP3 SWAP2 SWAP1 PUSH2 0x26DC JUMP JUMPDEST PUSH1 0x20 PUSH1 0x40 MLOAD DUP1 DUP4 SUB DUP2 DUP7 GAS STATICCALL ISZERO DUP1 ISZERO PUSH2 0x149B JUMPI RETURNDATASIZE PUSH0 PUSH0 RETURNDATACOPY RETURNDATASIZE PUSH0 REVERT JUMPDEST POP POP POP POP PUSH1 0x40 MLOAD RETURNDATASIZE PUSH1 0x1F NOT PUSH1 0x1F DUP3 ADD AND DUP3 ADD DUP1 PUSH1 0x40 MSTORE POP DUP2 ADD SWAP1 PUSH2 0x14BF SWAP2 SWAP1 PUSH2 0x2725 JUMP JUMPDEST SWAP1 POP JUMPDEST SWAP2 SWAP4 POP SWAP2 SWAP4 JUMP JUMPDEST PUSH1 0x1 PUSH0 SWAP1 SLOAD SWAP1 PUSH2 0x100 EXP SWAP1 DIV PUSH20 0xFFFFFFFFFFFFFFFFFFFFFFFFFFFFFFFFFFFFFFFF AND DUP2 JUMP JUMPDEST PUSH1 0x4 SLOAD DUP2 JUMP JUMPDEST PUSH0 PUSH1 0x9 SLOAD TIMESTAMP LT PUSH2 0x1506 JUMPI PUSH1 0x9 SLOAD PUSH2 0x1508 JUMP JUMPDEST TIMESTAMP JUMPDEST SWAP1 POP SWAP1 JUMP JUMPDEST PUSH1 0x7 SLOAD DUP2 JUMP JUMPDEST PUSH1 0x3 PUSH0 SWAP1 SLOAD SWAP1 PUSH2 0x100 EXP SWAP1 DIV PUSH20 0xFFFFFFFFFFFFFFFFFFFFFFFFFFFFFFFFFFFFFFFF AND DUP2 JUMP JUMPDEST PUSH1 0xB PUSH1 0x20 MSTORE DUP1 PUSH0 MSTORE PUSH1 0x40 PUSH0 KECCAK256 PUSH0 SWAP2 POP SWAP1 POP SLOAD DUP2 JUMP JUMPDEST PUSH0 PUSH0 SWAP1 SLOAD SWAP1 PUSH2 0x100 EXP SWAP1 DIV PUSH20 0xFFFFFFFFFFFFFFFFFFFFFFFFFFFFFFFFFFFFFFFF AND DUP2 JUMP JUMPDEST PUSH0 PUSH0 SWAP1 SLOAD SWAP1 PUSH2 0x100 EXP SWAP1 DIV PUSH20 0xFFFFFFFFFFFFFFFFFFFFFFFFFFFFFFFFFFFFFFFF AND PUSH20 0xFFFFFFFFFFFFFFFFFFFFFFFFFFFFFFFFFFFFFFFF AND CALLER PUSH20 0xFFFFFFFFFFFFFFFFFFFFFFFFFFFFFFFFFFFFFFFF AND EQ PUSH2 0x15F6 JUMPI PUSH1 0x40 MLOAD PUSH32 0x82B4290000000000000000000000000000000000000000000000000000000000 DUP2 MSTORE PUSH1 0x4 ADD PUSH1 0x40 MLOAD DUP1 SWAP2 SUB SWAP1 REVERT JUMPDEST DUP2 PUSH0 PUSH20 0xFFFFFFFFFFFFFFFFFFFFFFFFFFFFFFFFFFFFFFFF AND DUP2 PUSH20 0xFFFFFFFFFFFFFFFFFFFFFFFFFFFFFFFFFFFFFFFF AND SUB PUSH2 0x165C JUMPI PUSH1 0x40 MLOAD PUSH32 0xE6C4247B00000000000000000000000000000000000000000000000000000000 DUP2 MSTORE PUSH1 0x4 ADD PUSH1 0x40 MLOAD DUP1 SWAP2 SUB SWAP1 REVERT JUMPDEST DUP2 PUSH0 DUP2 SUB PUSH2 0x1696 JUMPI PUSH1 0x40 MLOAD PUSH32 0x2C5211C600000000000000000000000000000000000000000000000000000000 DUP2 MSTORE PUSH1 0x4 ADD PUSH1 0x40 MLOAD DUP1 SWAP2 SUB SWAP1 REVERT JUMPDEST PUSH1 0x9 SLOAD TIMESTAMP LT ISZERO PUSH2 0x16D2 JUMPI PUSH1 0x40 MLOAD PUSH32 0x9634ABC100000000000000000000000000000000000000000000000000000000 DUP2 MSTORE PUSH1 0x4 ADD PUSH1 0x40 MLOAD DUP1 SWAP2 SUB SWAP1 REVERT JUMPDEST DUP4 PUSH20 0xFFFFFFFFFFFFFFFFFFFFFFFFFFFFFFFFFFFFFFFF AND PUSH4 0xA9059CBB PUSH0 PUSH0 SWAP1 SLOAD SWAP1 PUSH2 0x100 EXP SWAP1 DIV PUSH20 0xFFFFFFFFFFFFFFFFFFFFFFFFFFFFFFFFFFFFFFFF AND DUP6 PUSH1 0x40 MLOAD DUP4 PUSH4 0xFFFFFFFF AND PUSH1 0xE0 SHL DUP2 MSTORE PUSH1 0x4 ADD PUSH2 0x172D SWAP3 SWAP2 SWAP1 PUSH2 0x2750 JUMP JUMPDEST PUSH1 0x20 PUSH1 0x40 MLOAD DUP1 DUP4 SUB DUP2 PUSH0 DUP8 GAS CALL ISZERO DUP1 ISZERO PUSH2 0x1749 JUMPI RETURNDATASIZE PUSH0 PUSH0 RETURNDATACOPY RETURNDATASIZE PUSH0 REVERT JUMPDEST POP POP POP POP PUSH1 0x40 MLOAD RETURNDATASIZE PUSH1 0x1F NOT PUSH1 0x1F DUP3 ADD AND DUP3 ADD DUP1 PUSH1 0x40 MSTORE POP DUP2 ADD SWAP1 PUSH2 0x176D SWAP2 SWAP1 PUSH2 0x27AC JUMP JUMPDEST PUSH2 0x17A3 JUMPI PUSH1 0x40 MLOAD PUSH32 0x90B8EC1800000000000000000000000000000000000000000000000000000000 DUP2 MSTORE PUSH1 0x4 ADD PUSH1 0x40 MLOAD DUP1 SWAP2 SUB SWAP1 REVERT JUMPDEST POP POP POP POP JUMP JUMPDEST DUP1 PUSH0 DUP2 SUB PUSH2 0x17E3 JUMPI PUSH1 0x40 MLOAD PUSH32 0x2C5211C600000000000000000000000000000000000000000000000000000000 DUP2 MSTORE PUSH1 0x4 ADD PUSH1 0x40 MLOAD DUP1 SWAP2 SUB SWAP1 REVERT JUMPDEST CALLER PUSH2 0x17EC PUSH2 0x1D41 JUMP JUMPDEST PUSH1 0x6 DUP2 SWAP1 SSTORE POP PUSH2 0x17FA PUSH2 0x14F4 JUMP JUMPDEST PUSH1 0x5 DUP2 SWAP1 SSTORE POP PUSH0 PUSH20 0xFFFFFFFFFFFFFFFFFFFFFFFFFFFFFFFFFFFFFFFF AND DUP2 PUSH20 0xFFFFFFFFFFFFFFFFFFFFFFFFFFFFFFFFFFFFFFFF AND EQ PUSH2 0x18C2 JUMPI PUSH2 0x183C DUP2 PUSH2 0x5AB JUMP JUMPDEST PUSH1 0xC PUSH0 DUP4 PUSH20 0xFFFFFFFFFFFFFFFFFFFFFFFFFFFFFFFFFFFFFFFF AND PUSH20 0xFFFFFFFFFFFFFFFFFFFFFFFFFFFFFFFFFFFFFFFF AND DUP2 MSTORE PUSH1 0x20 ADD SWAP1 DUP2 MSTORE PUSH1 0x20 ADD PUSH0 KECCAK256 DUP2 SWAP1 SSTORE POP PUSH1 0x6 SLOAD PUSH1 0xB PUSH0 DUP4 PUSH20 0xFFFFFFFFFFFFFFFFFFFFFFFFFFFFFFFFFFFFFFFF AND PUSH20 0xFFFFFFFFFFFFFFFFFFFFFFFFFFFFFFFFFFFFFFFF AND DUP2 MSTORE PUSH1 0x20 ADD SWAP1 DUP2 MSTORE PUSH1 0x20 ADD PUSH0 KECCAK256 DUP2 SWAP1 SSTORE POP JUMPDEST PUSH0 PUSH1 0x1 PUSH0 SWAP1 SLOAD SWAP1 PUSH2 0x100 EXP SWAP1 DIV PUSH20 0xFFFFFFFFFFFFFFFFFFFFFFFFFFFFFFFFFFFFFFFF AND SWAP1 POP DUP4 DUP2 PUSH20 0xFFFFFFFFFFFFFFFFFFFFFFFFFFFFFFFFFFFFFFFF AND PUSH4 0x70A08231 CALLER PUSH1 0x40 MLOAD DUP3 PUSH4 0xFFFFFFFF AND PUSH1 0xE0 SHL DUP2 MSTORE PUSH1 0x4 ADD PUSH2 0x1921 SWAP2 SWAP1 PUSH2 0x2554 JUMP JUMPDEST PUSH1 0x20 PUSH1 0x40 MLOAD DUP1 DUP4 SUB DUP2 DUP7 GAS STATICCALL ISZERO DUP1 ISZERO PUSH2 0x193C JUMPI RETURNDATASIZE PUSH0 PUSH0 RETURNDATACOPY RETURNDATASIZE PUSH0 REVERT JUMPDEST POP POP POP POP PUSH1 0x40 MLOAD RETURNDATASIZE PUSH1 0x1F NOT PUSH1 0x1F DUP3 ADD AND DUP3 ADD DUP1 PUSH1 0x40 MSTORE POP DUP2 ADD SWAP1 PUSH2 0x1960 SWAP2 SWAP1 PUSH2 0x2725 JUMP JUMPDEST LT ISZERO PUSH2 0x1998 JUMPI PUSH1 0x40 MLOAD PUSH32 0xF4D678B800000000000000000000000000000000000000000000000000000000 DUP2 MSTORE PUSH1 0x4 ADD PUSH1 0x40 MLOAD DUP1 SWAP2 SUB SWAP1 REVERT JUMPDEST DUP4 DUP2 PUSH20 0xFFFFFFFFFFFFFFFFFFFFFFFFFFFFFFFFFFFFFFFF AND PUSH4 0xDD62ED3E CALLER ADDRESS PUSH1 0x40 MLOAD DUP4 PUSH4 0xFFFFFFFF AND PUSH1 0xE0 SHL DUP2 MSTORE PUSH1 0x4 ADD PUSH2 0x19D4 SWAP3 SWAP2 SWAP1 PUSH2 0x27D7 JUMP JUMPDEST PUSH1 0x20 PUSH1 0x40 MLOAD DUP1 DUP4 SUB DUP2 DUP7 GAS STATICCALL ISZERO DUP1 ISZERO PUSH2 0x19EF JUMPI RETURNDATASIZE PUSH0 PUSH0 RETURNDATACOPY RETURNDATASIZE PUSH0 REVERT JUMPDEST POP POP POP POP PUSH1 0x40 MLOAD RETURNDATASIZE PUSH1 0x1F NOT PUSH1 0x1F DUP3 ADD AND DUP3 ADD DUP1 PUSH1 0x40 MSTORE POP DUP2 ADD SWAP1 PUSH2 0x1A13 SWAP2 SWAP1 PUSH2 0x2725 JUMP JUMPDEST LT ISZERO PUSH2 0x1A4B JUMPI PUSH1 0x40 MLOAD PUSH32 0xF4D678B800000000000000000000000000000000000000000000000000000000 DUP2 MSTORE PUSH1 0x4 ADD PUSH1 0x40 MLOAD DUP1 SWAP2 SUB SWAP1 REVERT JUMPDEST DUP1 PUSH20 0xFFFFFFFFFFFFFFFFFFFFFFFFFFFFFFFFFFFFFFFF AND PUSH4 0x23B872DD CALLER ADDRESS DUP8 PUSH1 0x40 MLOAD DUP5 PUSH4 0xFFFFFFFF AND PUSH1 0xE0 SHL DUP2 MSTORE PUSH1 0x4 ADD PUSH2 0x1A88 SWAP4 SWAP3 SWAP2 SWAP1 PUSH2 0x26DC JUMP JUMPDEST PUSH1 0x20 PUSH1 0x40 MLOAD DUP1 DUP4 SUB DUP2 PUSH0 DUP8 GAS CALL ISZERO DUP1 ISZERO PUSH2 0x1AA4 JUMPI RETURNDATASIZE PUSH0 PUSH0 RETURNDATACOPY RETURNDATASIZE PUSH0 REVERT JUMPDEST POP POP POP POP PUSH1 0x40 MLOAD RETURNDATASIZE PUSH1 0x1F NOT PUSH1 0x1F DUP3 ADD AND DUP3 ADD DUP1 PUSH1 0x40 MSTORE POP DUP2 ADD SWAP1 PUSH2 0x1AC8 SWAP2 SWAP1 PUSH2 0x27AC JUMP JUMPDEST PUSH2 0x1AFE JUMPI PUSH1 0x40 MLOAD PUSH32 0x90B8EC1800000000000000000000000000000000000000000000000000000000 DUP2 MSTORE PUSH1 0x4 ADD PUSH1 0x40 MLOAD DUP1 SWAP2 SUB SWAP1 REVERT JUMPDEST DUP4 PUSH1 0x7 PUSH0 DUP3 DUP3 SLOAD PUSH2 0x1B0F SWAP2 SWAP1 PUSH2 0x26A9 JUMP JUMPDEST SWAP3 POP POP DUP2 SWAP1 SSTORE POP DUP4 PUSH1 0xA PUSH0 CALLER PUSH20 0xFFFFFFFFFFFFFFFFFFFFFFFFFFFFFFFFFFFFFFFF AND PUSH20 0xFFFFFFFFFFFFFFFFFFFFFFFFFFFFFFFFFFFFFFFF AND DUP2 MSTORE PUSH1 0x20 ADD SWAP1 DUP2 MSTORE PUSH1 0x20 ADD PUSH0 KECCAK256 PUSH0 DUP3 DUP3 SLOAD PUSH2 0x1B62 SWAP2 SWAP1 PUSH2 0x26A9 JUMP JUMPDEST SWAP3 POP POP DUP2 SWAP1 SSTORE POP TIMESTAMP PUSH1 0xD PUSH0 CALLER PUSH20 0xFFFFFFFFFFFFFFFFFFFFFFFFFFFFFFFFFFFFFFFF AND PUSH20 0xFFFFFFFFFFFFFFFFFFFFFFFFFFFFFFFFFFFFFFFF AND DUP2 MSTORE PUSH1 0x20 ADD SWAP1 DUP2 MSTORE PUSH1 0x20 ADD PUSH0 KECCAK256 DUP2 SWAP1 SSTORE POP CALLER PUSH20 0xFFFFFFFFFFFFFFFFFFFFFFFFFFFFFFFFFFFFFFFF AND PUSH32 0x9E71BC8EEA02A63969F509818F2DAFB9254532904319F9DBDA79B67BD34A5F3D DUP6 PUSH1 0x40 MLOAD PUSH2 0x1BF1 SWAP2 SWAP1 PUSH2 0x2494 JUMP JUMPDEST PUSH1 0x40 MLOAD DUP1 SWAP2 SUB SWAP1 LOG2 POP POP POP POP JUMP JUMPDEST PUSH1 0x5 SLOAD DUP2 JUMP JUMPDEST PUSH0 PUSH0 SWAP1 SLOAD SWAP1 PUSH2 0x100 EXP SWAP1 DIV PUSH20 0xFFFFFFFFFFFFFFFFFFFFFFFFFFFFFFFFFFFFFFFF AND PUSH20 0xFFFFFFFFFFFFFFFFFFFFFFFFFFFFFFFFFFFFFFFF AND CALLER PUSH20 0xFFFFFFFFFFFFFFFFFFFFFFFFFFFFFFFFFFFFFFFF AND EQ PUSH2 0x1C8A JUMPI PUSH1 0x40 MLOAD PUSH32 0x82B4290000000000000000000000000000000000000000000000000000000000 DUP2 MSTORE PUSH1 0x4 ADD PUSH1 0x40 MLOAD DUP1 SWAP2 SUB SWAP1 REVERT JUMPDEST DUP1 PUSH0 DUP2 SUB PUSH2 0x1CC4 JUMPI PUSH1 0x40 MLOAD PUSH32 0x2C5211C600000000000000000000000000000000000000000000000000000000 DUP2 MSTORE PUSH1 0x4 ADD PUSH1 0x40 MLOAD DUP1 SWAP2 SUB SWAP1 REVERT JUMPDEST PUSH1 0x9 SLOAD TIMESTAMP GT PUSH2 0x1CFF JUMPI PUSH1 0x40 MLOAD PUSH32 0x9634ABC100000000000000000000000000000000000000000000000000000000 DUP2 MSTORE PUSH1 0x4 ADD PUSH1 0x40 MLOAD DUP1 SWAP2 SUB SWAP1 REVERT JUMPDEST DUP2 PUSH1 0x8 DUP2 SWAP1 SSTORE POP PUSH32 0xFB46CA5A5E06D4540D6387B930A7C978BCE0DB5F449EC6B3F5D07C6E1D44F2D3 DUP3 PUSH1 0x40 MLOAD PUSH2 0x1D35 SWAP2 SWAP1 PUSH2 0x2494 JUMP JUMPDEST PUSH1 0x40 MLOAD DUP1 SWAP2 SUB SWAP1 LOG1 POP POP JUMP JUMPDEST PUSH0 PUSH0 PUSH1 0x7 SLOAD SUB PUSH2 0x1D55 JUMPI PUSH1 0x6 SLOAD SWAP1 POP PUSH2 0x1DA7 JUMP JUMPDEST PUSH1 0x7 SLOAD PUSH8 0xDE0B6B3A7640000 PUSH1 0x4 SLOAD PUSH1 0x5 SLOAD PUSH2 0x1D6F PUSH2 0x14F4 JUMP JUMPDEST PUSH2 0x1D79 SWAP2 SWAP1 PUSH2 0x25D8 JUMP JUMPDEST PUSH2 0x1D83 SWAP2 SWAP1 PUSH2 0x260B JUMP JUMPDEST PUSH2 0x1D8D SWAP2 SWAP1 PUSH2 0x260B JUMP JUMPDEST PUSH2 0x1D97 SWAP2 SWAP1 PUSH2 0x2679 JUMP JUMPDEST PUSH1 0x6 SLOAD PUSH2 0x1DA4 SWAP2 SWAP1 PUSH2 0x26A9 JUMP JUMPDEST SWAP1 POP JUMPDEST SWAP1 JUMP JUMPDEST PUSH1 0x6 SLOAD DUP2 JUMP JUMPDEST PUSH2 0x1DF6 PUSH1 0xA PUSH0 CALLER PUSH20 0xFFFFFFFFFFFFFFFFFFFFFFFFFFFFFFFFFFFFFFFF AND PUSH20 0xFFFFFFFFFFFFFFFFFFFFFFFFFFFFFFFFFFFFFFFF AND DUP2 MSTORE PUSH1 0x20 ADD SWAP1 DUP2 MSTORE PUSH1 0x20 ADD PUSH0 KECCAK256 SLOAD PUSH2 0x94A JUMP JUMPDEST PUSH2 0x1DFE PUSH2 0xFB1 JUMP JUMPDEST JUMP JUMPDEST PUSH1 0x9 SLOAD DUP2 JUMP JUMPDEST PUSH0 PUSH0 SWAP1 SLOAD SWAP1 PUSH2 0x100 EXP SWAP1 DIV PUSH20 0xFFFFFFFFFFFFFFFFFFFFFFFFFFFFFFFFFFFFFFFF AND PUSH20 0xFFFFFFFFFFFFFFFFFFFFFFFFFFFFFFFFFFFFFFFF AND CALLER PUSH20 0xFFFFFFFFFFFFFFFFFFFFFFFFFFFFFFFFFFFFFFFF AND EQ PUSH2 0x1E8B JUMPI PUSH1 0x40 MLOAD PUSH32 0x82B4290000000000000000000000000000000000000000000000000000000000 DUP2 MSTORE PUSH1 0x4 ADD PUSH1 0x40 MLOAD DUP1 SWAP2 SUB SWAP1 REVERT JUMPDEST DUP1 PUSH0 PUSH20 0xFFFFFFFFFFFFFFFFFFFFFFFFFFFFFFFFFFFFFFFF AND DUP2 PUSH20 0xFFFFFFFFFFFFFFFFFFFFFFFFFFFFFFFFFFFFFFFF AND SUB PUSH2 0x1EF1 JUMPI PUSH1 0x40 MLOAD PUSH32 0xE6C4247B00000000000000000000000000000000000000000000000000000000 DUP2 MSTORE PUSH1 0x4 ADD PUSH1 0x40 MLOAD DUP1 SWAP2 SUB SWAP1 REVERT JUMPDEST DUP2 PUSH0 PUSH0 PUSH2 0x100 EXP DUP2 SLOAD DUP2 PUSH20 0xFFFFFFFFFFFFFFFFFFFFFFFFFFFFFFFFFFFFFFFF MUL NOT AND SWAP1 DUP4 PUSH20 0xFFFFFFFFFFFFFFFFFFFFFFFFFFFFFFFFFFFFFFFF AND MUL OR SWAP1 SSTORE POP POP POP JUMP JUMPDEST PUSH1 0x2 PUSH0 SWAP1 SLOAD SWAP1 PUSH2 0x100 EXP SWAP1 DIV PUSH20 0xFFFFFFFFFFFFFFFFFFFFFFFFFFFFFFFFFFFFFFFF AND DUP2 JUMP JUMPDEST CALLER PUSH2 0x1F62 PUSH2 0x1D41 JUMP JUMPDEST PUSH1 0x6 DUP2 SWAP1 SSTORE POP PUSH2 0x1F70 PUSH2 0x14F4 JUMP JUMPDEST PUSH1 0x5 DUP2 SWAP1 SSTORE POP PUSH0 PUSH20 0xFFFFFFFFFFFFFFFFFFFFFFFFFFFFFFFFFFFFFFFF AND DUP2 PUSH20 0xFFFFFFFFFFFFFFFFFFFFFFFFFFFFFFFFFFFFFFFF AND EQ PUSH2 0x2038 JUMPI PUSH2 0x1FB2 DUP2 PUSH2 0x5AB JUMP JUMPDEST PUSH1 0xC PUSH0 DUP4 PUSH20 0xFFFFFFFFFFFFFFFFFFFFFFFFFFFFFFFFFFFFFFFF AND PUSH20 0xFFFFFFFFFFFFFFFFFFFFFFFFFFFFFFFFFFFFFFFF AND DUP2 MSTORE PUSH1 0x20 ADD SWAP1 DUP2 MSTORE PUSH1 0x20 ADD PUSH0 KECCAK256 DUP2 SWAP1 SSTORE POP PUSH1 0x6 SLOAD PUSH1 0xB PUSH0 DUP4 PUSH20 0xFFFFFFFFFFFFFFFFFFFFFFFFFFFFFFFFFFFFFFFF AND PUSH20 0xFFFFFFFFFFFFFFFFFFFFFFFFFFFFFFFFFFFFFFFF AND DUP2 MSTORE PUSH1 0x20 ADD SWAP1 DUP2 MSTORE PUSH1 0x20 ADD PUSH0 KECCAK256 DUP2 SWAP1 SSTORE POP JUMPDEST PUSH0 PUSH1 0xC PUSH0 CALLER PUSH20 0xFFFFFFFFFFFFFFFFFFFFFFFFFFFFFFFFFFFFFFFF AND PUSH20 0xFFFFFFFFFFFFFFFFFFFFFFFFFFFFFFFFFFFFFFFF AND DUP2 MSTORE PUSH1 0x20 ADD SWAP1 DUP2 MSTORE PUSH1 0x20 ADD PUSH0 KECCAK256 SLOAD SWAP1 POP PUSH0 DUP2 SUB PUSH2 0x20B2 JUMPI PUSH1 0x40 MLOAD PUSH32 0x3FB087F400000000000000000000000000000000000000000000000000000000 DUP2 MSTORE PUSH1 0x4 ADD PUSH1 0x40 MLOAD DUP1 SWAP2 SUB SWAP1 REVERT JUMPDEST PUSH0 PUSH20 0xFFFFFFFFFFFFFFFFFFFFFFFFFFFFFFFFFFFFFFFF AND PUSH1 0x3 PUSH0 SWAP1 SLOAD SWAP1 PUSH2 0x100 EXP SWAP1 DIV PUSH20 0xFFFFFFFFFFFFFFFFFFFFFFFFFFFFFFFFFFFFFFFF AND PUSH20 0xFFFFFFFFFFFFFFFFFFFFFFFFFFFFFFFFFFFFFFFF AND SUB PUSH2 0x2138 JUMPI PUSH1 0x40 MLOAD PUSH32 0xE6C4247B00000000000000000000000000000000000000000000000000000000 DUP2 MSTORE PUSH1 0x4 ADD PUSH1 0x40 MLOAD DUP1 SWAP2 SUB SWAP1 REVERT JUMPDEST PUSH0 PUSH1 0xC PUSH0 CALLER PUSH20 0xFFFFFFFFFFFFFFFFFFFFFFFFFFFFFFFFFFFFFFFF AND PUSH20 0xFFFFFFFFFFFFFFFFFFFFFFFFFFFFFFFFFFFFFFFF AND DUP2 MSTORE PUSH1 0x20 ADD SWAP1 DUP2 MSTORE PUSH1 0x20 ADD PUSH0 KECCAK256 DUP2 SWAP1 SSTORE POP PUSH1 0x2 PUSH0 SWAP1 SLOAD SWAP1 PUSH2 0x100 EXP SWAP1 DIV PUSH20 0xFFFFFFFFFFFFFFFFFFFFFFFFFFFFFFFFFFFFFFFF AND PUSH20 0xFFFFFFFFFFFFFFFFFFFFFFFFFFFFFFFFFFFFFFFF AND PUSH4 0x95EA7B3 PUSH1 0x3 PUSH0 SWAP1 SLOAD SWAP1 PUSH2 0x100 EXP SWAP1 DIV PUSH20 0xFFFFFFFFFFFFFFFFFFFFFFFFFFFFFFFFFFFFFFFF AND DUP4 PUSH1 0x40 MLOAD DUP4 PUSH4 0xFFFFFFFF AND PUSH1 0xE0 SHL DUP2 MSTORE PUSH1 0x4 ADD PUSH2 0x21F7 SWAP3 SWAP2 SWAP1 PUSH2 0x2750 JUMP JUMPDEST PUSH1 0x20 PUSH1 0x40 MLOAD DUP1 DUP4 SUB DUP2 PUSH0 DUP8 GAS CALL ISZERO DUP1 ISZERO PUSH2 0x2213 JUMPI RETURNDATASIZE PUSH0 PUSH0 RETURNDATACOPY RETURNDATASIZE PUSH0 REVERT JUMPDEST POP POP POP POP PUSH1 0x40 MLOAD RETURNDATASIZE PUSH1 0x1F NOT PUSH1 0x1F DUP3 ADD AND DUP3 ADD DUP1 PUSH1 0x40 MSTORE POP DUP2 ADD SWAP1 PUSH2 0x2237 SWAP2 SWAP1 PUSH2 0x27AC JUMP JUMPDEST PUSH2 0x226D JUMPI PUSH1 0x40 MLOAD PUSH32 0x90B8EC1800000000000000000000000000000000000000000000000000000000 DUP2 MSTORE PUSH1 0x4 ADD PUSH1 0x40 MLOAD DUP1 SWAP2 SUB SWAP1 REVERT JUMPDEST PUSH0 PUSH1 0x3 PUSH0 SWAP1 SLOAD SWAP1 PUSH2 0x100 EXP SWAP1 DIV PUSH20 0xFFFFFFFFFFFFFFFFFFFFFFFFFFFFFFFFFFFFFFFF AND PUSH20 0xFFFFFFFFFFFFFFFFFFFFFFFFFFFFFFFFFFFFFFFF AND PUSH4 0xEC6CC0CC PUSH1 0x2 PUSH0 SWAP1 SLOAD SWAP1 PUSH2 0x100 EXP SWAP1 DIV PUSH20 0xFFFFFFFFFFFFFFFFFFFFFFFFFFFFFFFFFFFFFFFF AND PUSH1 0x1 PUSH0 SWAP1 SLOAD SWAP1 PUSH2 0x100 EXP SWAP1 DIV PUSH20 0xFFFFFFFFFFFFFFFFFFFFFFFFFFFFFFFFFFFFFFFF AND DUP6 PUSH1 0x40 MLOAD DUP5 PUSH4 0xFFFFFFFF AND PUSH1 0xE0 SHL DUP2 MSTORE PUSH1 0x4 ADD PUSH2 0x230E SWAP4 SWAP3 SWAP2 SWAP1 PUSH2 0x26DC JUMP JUMPDEST PUSH1 0x20 PUSH1 0x40 MLOAD DUP1 DUP4 SUB DUP2 PUSH0 DUP8 GAS CALL ISZERO DUP1 ISZERO PUSH2 0x232A JUMPI RETURNDATASIZE PUSH0 PUSH0 RETURNDATACOPY RETURNDATASIZE PUSH0 REVERT JUMPDEST POP POP POP POP PUSH1 0x40 MLOAD RETURNDATASIZE PUSH1 0x1F NOT PUSH1 0x1F DUP3 ADD AND DUP3 ADD DUP1 PUSH1 0x40 MSTORE POP DUP2 ADD SWAP1 PUSH2 0x234E SWAP2 SWAP1 PUSH2 0x2725 JUMP JUMPDEST SWAP1 POP CALLER PUSH20 0xFFFFFFFFFFFFFFFFFFFFFFFFFFFFFFFFFFFFFFFF AND PUSH32 0xE2403640BA68FED3A2F88B7557551D1993F84B99BB10FF833F0CF8DB0C5E0486 DUP4 PUSH1 0x40 MLOAD PUSH2 0x2396 SWAP2 SWAP1 PUSH2 0x2494 JUMP JUMPDEST PUSH1 0x40 MLOAD DUP1 SWAP2 SUB SWAP1 LOG2 CALLER PUSH20 0xFFFFFFFFFFFFFFFFFFFFFFFFFFFFFFFFFFFFFFFF AND PUSH32 0x3DB0354F0C91DC092813E532740020EB4752968FA4302B450AF365FDA1827EF7 DUP4 DUP4 PUSH1 0x40 MLOAD PUSH2 0x23E6 SWAP3 SWAP2 SWAP1 PUSH2 0x27FE JUMP JUMPDEST PUSH1 0x40 MLOAD DUP1 SWAP2 SUB SWAP1 LOG2 POP POP POP JUMP JUMPDEST PUSH0 PUSH0 REVERT JUMPDEST PUSH0 PUSH20 0xFFFFFFFFFFFFFFFFFFFFFFFFFFFFFFFFFFFFFFFF DUP3 AND SWAP1 POP SWAP2 SWAP1 POP JUMP JUMPDEST PUSH0 PUSH2 0x2420 DUP3 PUSH2 0x23F7 JUMP JUMPDEST SWAP1 POP SWAP2 SWAP1 POP JUMP JUMPDEST PUSH2 0x2430 DUP2 PUSH2 0x2416 JUMP JUMPDEST DUP2 EQ PUSH2 0x243A JUMPI PUSH0 PUSH0 REVERT JUMPDEST POP JUMP JUMPDEST PUSH0 DUP2 CALLDATALOAD SWAP1 POP PUSH2 0x244B DUP2 PUSH2 0x2427 JUMP JUMPDEST SWAP3 SWAP2 POP POP JUMP JUMPDEST PUSH0 PUSH1 0x20 DUP3 DUP5 SUB SLT ISZERO PUSH2 0x2466 JUMPI PUSH2 0x2465 PUSH2 0x23F3 JUMP JUMPDEST JUMPDEST PUSH0 PUSH2 0x2473 DUP5 DUP3 DUP6 ADD PUSH2 0x243D JUMP JUMPDEST SWAP2 POP POP SWAP3 SWAP2 POP POP JUMP JUMPDEST PUSH0 DUP2 SWAP1 POP SWAP2 SWAP1 POP JUMP JUMPDEST PUSH2 0x248E DUP2 PUSH2 0x247C JUMP JUMPDEST DUP3 MSTORE POP POP JUMP JUMPDEST PUSH0 PUSH1 0x20 DUP3 ADD SWAP1 POP PUSH2 0x24A7 PUSH0 DUP4 ADD DUP5 PUSH2 0x2485 JUMP JUMPDEST SWAP3 SWAP2 POP POP JUMP JUMPDEST PUSH2 0x24B6 DUP2 PUSH2 0x247C JUMP JUMPDEST DUP2 EQ PUSH2 0x24C0 JUMPI PUSH0 PUSH0 REVERT JUMPDEST POP JUMP JUMPDEST PUSH0 DUP2 CALLDATALOAD SWAP1 POP PUSH2 0x24D1 DUP2 PUSH2 0x24AD JUMP JUMPDEST SWAP3 SWAP2 POP POP JUMP JUMPDEST PUSH0 PUSH1 0x20 DUP3 DUP5 SUB SLT ISZERO PUSH2 0x24EC JUMPI PUSH2 0x24EB PUSH2 0x23F3 JUMP JUMPDEST JUMPDEST PUSH0 PUSH2 0x24F9 DUP5 DUP3 DUP6 ADD PUSH2 0x24C3 JUMP JUMPDEST SWAP2 POP POP SWAP3 SWAP2 POP POP JUMP JUMPDEST PUSH0 PUSH1 0x80 DUP3 ADD SWAP1 POP PUSH2 0x2515 PUSH0 DUP4 ADD DUP8 PUSH2 0x2485 JUMP JUMPDEST PUSH2 0x2522 PUSH1 0x20 DUP4 ADD DUP7 PUSH2 0x2485 JUMP JUMPDEST PUSH2 0x252F PUSH1 0x40 DUP4 ADD DUP6 PUSH2 0x2485 JUMP JUMPDEST PUSH2 0x253C PUSH1 0x60 DUP4 ADD DUP5 PUSH2 0x2485 JUMP JUMPDEST SWAP6 SWAP5 POP POP POP POP POP JUMP JUMPDEST PUSH2 0x254E DUP2 PUSH2 0x2416 JUMP JUMPDEST DUP3 MSTORE POP POP JUMP JUMPDEST PUSH0 PUSH1 0x20 DUP3 ADD SWAP1 POP PUSH2 0x2567 PUSH0 DUP4 ADD DUP5 PUSH2 0x2545 JUMP JUMPDEST SWAP3 SWAP2 POP POP JUMP JUMPDEST PUSH0 PUSH0 PUSH1 0x40 DUP4 DUP6 SUB SLT ISZERO PUSH2 0x2583 JUMPI PUSH2 0x2582 PUSH2 0x23F3 JUMP JUMPDEST JUMPDEST PUSH0 PUSH2 0x2590 DUP6 DUP3 DUP7 ADD PUSH2 0x243D JUMP JUMPDEST SWAP3 POP POP PUSH1 0x20 PUSH2 0x25A1 DUP6 DUP3 DUP7 ADD PUSH2 0x24C3 JUMP JUMPDEST SWAP2 POP POP SWAP3 POP SWAP3 SWAP1 POP JUMP JUMPDEST PUSH32 0x4E487B7100000000000000000000000000000000000000000000000000000000 PUSH0 MSTORE PUSH1 0x11 PUSH1 0x4 MSTORE PUSH1 0x24 PUSH0 REVERT JUMPDEST PUSH0 PUSH2 0x25E2 DUP3 PUSH2 0x247C JUMP JUMPDEST SWAP2 POP PUSH2 0x25ED DUP4 PUSH2 0x247C JUMP JUMPDEST SWAP3 POP DUP3 DUP3 SUB SWAP1 POP DUP2 DUP2 GT ISZERO PUSH2 0x2605 JUMPI PUSH2 0x2604 PUSH2 0x25AB JUMP JUMPDEST JUMPDEST SWAP3 SWAP2 POP POP JUMP JUMPDEST PUSH0 PUSH2 0x2615 DUP3 PUSH2 0x247C JUMP JUMPDEST SWAP2 POP PUSH2 0x2620 DUP4 PUSH2 0x247C JUMP JUMPDEST SWAP3 POP DUP3 DUP3 MUL PUSH2 0x262E DUP2 PUSH2 0x247C JUMP JUMPDEST SWAP2 POP DUP3 DUP3 DIV DUP5 EQ DUP4 ISZERO OR PUSH2 0x2645 JUMPI PUSH2 0x2644 PUSH2 0x25AB JUMP JUMPDEST JUMPDEST POP SWAP3 SWAP2 POP POP JUMP JUMPDEST PUSH32 0x4E487B7100000000000000000000000000000000000000000000000000000000 PUSH0 MSTORE PUSH1 0x12 PUSH1 0x4 MSTORE PUSH1 0x24 PUSH0 REVERT JUMPDEST PUSH0 PUSH2 0x2683 DUP3 PUSH2 0x247C JUMP JUMPDEST SWAP2 POP PUSH2 0x268E DUP4 PUSH2 0x247C JUMP JUMPDEST SWAP3 POP DUP3 PUSH2 0x269E JUMPI PUSH2 0x269D PUSH2 0x264C JUMP JUMPDEST JUMPDEST DUP3 DUP3 DIV SWAP1 POP SWAP3 SWAP2 POP POP JUMP JUMPDEST PUSH0 PUSH2 0x26B3 DUP3 PUSH2 0x247C JUMP JUMPDEST SWAP2 POP PUSH2 0x26BE DUP4 PUSH2 0x247C JUMP JUMPDEST SWAP3 POP DUP3 DUP3 ADD SWAP1 POP DUP1 DUP3 GT ISZERO PUSH2 0x26D6 JUMPI PUSH2 0x26D5 PUSH2 0x25AB JUMP JUMPDEST JUMPDEST SWAP3 SWAP2 POP POP JUMP JUMPDEST PUSH0 PUSH1 0x60 DUP3 ADD SWAP1 POP PUSH2 0x26EF PUSH0 DUP4 ADD DUP7 PUSH2 0x2545 JUMP JUMPDEST PUSH2 0x26FC PUSH1 0x20 DUP4 ADD DUP6 PUSH2 0x2545 JUMP JUMPDEST PUSH2 0x2709 PUSH1 0x40 DUP4 ADD DUP5 PUSH2 0x2485 JUMP JUMPDEST SWAP5 SWAP4 POP POP POP POP JUMP JUMPDEST PUSH0 DUP2 MLOAD SWAP1 POP PUSH2 0x271F DUP2 PUSH2 0x24AD JUMP JUMPDEST SWAP3 SWAP2 POP POP JUMP JUMPDEST PUSH0 PUSH1 0x20 DUP3 DUP5 SUB SLT ISZERO PUSH2 0x273A JUMPI PUSH2 0x2739 PUSH2 0x23F3 JUMP JUMPDEST JUMPDEST PUSH0 PUSH2 0x2747 DUP5 DUP3 DUP6 ADD PUSH2 0x2711 JUMP JUMPDEST SWAP2 POP POP SWAP3 SWAP2 POP POP JUMP JUMPDEST PUSH0 PUSH1 0x40 DUP3 ADD SWAP1 POP PUSH2 0x2763 PUSH0 DUP4 ADD DUP6 PUSH2 0x2545 JUMP JUMPDEST PUSH2 0x2770 PUSH1 0x20 DUP4 ADD DUP5 PUSH2 0x2485 JUMP JUMPDEST SWAP4 SWAP3 POP POP POP JUMP JUMPDEST PUSH0 DUP2 ISZERO ISZERO SWAP1 POP SWAP2 SWAP1 POP JUMP JUMPDEST PUSH2 0x278B DUP2 PUSH2 0x2777 JUMP JUMPDEST DUP2 EQ PUSH2 0x2795 JUMPI PUSH0 PUSH0 REVERT JUMPDEST POP JUMP JUMPDEST PUSH0 DUP2 MLOAD SWAP1 POP PUSH2 0x27A6 DUP2 PUSH2 0x2782 JUMP JUMPDEST SWAP3 SWAP2 POP POP JUMP JUMPDEST PUSH0 PUSH1 0x20 DUP3 DUP5 SUB SLT ISZERO PUSH2 0x27C1 JUMPI PUSH2 0x27C0 PUSH2 0x23F3 JUMP JUMPDEST JUMPDEST PUSH0 PUSH2 0x27CE DUP5 DUP3 DUP6 ADD PUSH2 0x2798 JUMP JUMPDEST SWAP2 POP POP SWAP3 SWAP2 POP POP JUMP JUMPDEST PUSH0 PUSH1 0x40 DUP3 ADD SWAP1 POP PUSH2 0x27EA PUSH0 DUP4 ADD DUP6 PUSH2 0x2545 JUMP JUMPDEST PUSH2 0x27F7 PUSH1 0x20 DUP4 ADD DUP5 PUSH2 0x2545 JUMP JUMPDEST SWAP4 SWAP3 POP POP POP JUMP JUMPDEST PUSH0 PUSH1 0x40 DUP3 ADD SWAP1 POP PUSH2 0x2811 PUSH0 DUP4 ADD DUP6 PUSH2 0x2485 JUMP JUMPDEST PUSH2 0x281E PUSH1 0x20 DUP4 ADD DUP5 PUSH2 0x2485 JUMP JUMPDEST SWAP4 SWAP3 POP POP POP JUMP INVALID LOG2 PUSH5 0x6970667358 0x22 SLT KECCAK256 0xB8 0xA5 0x21 0xBD EXTDELEGATECALL 0xB7 DELEGATECALL DUP6 SWAP5 DUP12 0xB2 0x1F 0x1E 0xCB DIV 0xB7 0xE9 RJUMPI 0x4A95 0x26 STOP MULMOD JUMPI PREVRANDAO 0xE9 DUP16 0xA5 EXP DUP8 EQ EQ PUSH5 0x736F6C6343 STOP ADDMOD 0x1E STOP CALLER "
				},
				"gasEstimates": {
					"creation": {
						"codeDepositCost": "2066200",
						"executionCost": "infinite",
						"totalCost": "infinite"
					},
					"external": {
						"earned(address)": "infinite",
						"emergencyWithdraw(address,uint256)": "infinite",
						"exit()": "infinite",
						"exitAndSwap()": "infinite",
						"getReward()": "infinite",
						"getRewardAndSwap()": "infinite",
						"getRewardForDuration()": "infinite",
						"getSwapQuote(address)": "infinite",
						"getUserInfo(address)": "infinite",
						"lastTimeRewardApplicable()": "4611",
						"lastUpdateTime()": "2536",
						"notifyRewardAmount(uint256)": "infinite",
						"owner()": "2552",
						"periodFinish()": "2469",
						"rewardPerToken()": "infinite",
						"rewardPerTokenStored()": "2514",
						"rewardRate()": "2536",
						"rewardToken()": "2596",
						"rewards(address)": "2871",
						"rewardsDuration()": "2471",
						"setRewardsDuration(uint256)": "infinite",
						"setSimpleSwap(address)": "26951",
						"simpleSwap()": "2598",
						"stake(uint256)": "infinite",
						"stakedBalance(address)": "2847",
						"stakingTime(address)": "2914",
						"stakingToken()": "2597",
						"totalStaked()": "2493",
						"transferOwnership(address)": "26987",
						"userRewardPerTokenPaid(address)": "2914",
						"withdraw(uint256)": "infinite"
					}
				},
				"methodIdentifiers": {
					"earned(address)": "008cc262",
					"emergencyWithdraw(address,uint256)": "95ccea67",
					"exit()": "e9fad8ee",
					"exitAndSwap()": "2b52c526",
					"getReward()": "3d18b912",
					"getRewardAndSwap()": "f84dbd58",
					"getRewardForDuration()": "1c1f78eb",
					"getSwapQuote(address)": "1227ed1f",
					"getUserInfo(address)": "6386c1c7",
					"lastTimeRewardApplicable()": "80faa57d",
					"lastUpdateTime()": "c8f33c91",
					"notifyRewardAmount(uint256)": "3c6b16ab",
					"owner()": "8da5cb5b",
					"periodFinish()": "ebe2b12b",
					"rewardPerToken()": "cd3daf9d",
					"rewardPerTokenStored()": "df136d65",
					"rewardRate()": "7b0a47ee",
					"rewardToken()": "f7c618c1",
					"rewards(address)": "0700037d",
					"rewardsDuration()": "386a9525",
					"setRewardsDuration(uint256)": "cc1a378f",
					"setSimpleSwap(address)": "1f5870ef",
					"simpleSwap()": "8927e052",
					"stake(uint256)": "a694fc3a",
					"stakedBalance(address)": "60217267",
					"stakingTime(address)": "583d42fd",
					"stakingToken()": "72f702f3",
					"totalStaked()": "817b1cd2",
					"transferOwnership(address)": "f2fde38b",
					"userRewardPerTokenPaid(address)": "8b876347",
					"withdraw(uint256)": "2e1a7d4d"
				}
			},
			"storageLayout": {
				"storage": [
					{
						"astId": 77,
						"contract": "Contract Conqueror/swaptoken/swap.sol:StakingRewards",
						"label": "owner",
						"offset": 0,
						"slot": "0",
						"type": "t_address"
					},
					{
						"astId": 79,
						"contract": "Contract Conqueror/swaptoken/swap.sol:StakingRewards",
						"label": "stakingToken",
						"offset": 0,
						"slot": "1",
						"type": "t_address"
					},
					{
						"astId": 81,
						"contract": "Contract Conqueror/swaptoken/swap.sol:StakingRewards",
						"label": "rewardToken",
						"offset": 0,
						"slot": "2",
						"type": "t_address"
					},
					{
						"astId": 83,
						"contract": "Contract Conqueror/swaptoken/swap.sol:StakingRewards",
						"label": "simpleSwap",
						"offset": 0,
						"slot": "3",
						"type": "t_address"
					},
					{
						"astId": 85,
						"contract": "Contract Conqueror/swaptoken/swap.sol:StakingRewards",
						"label": "rewardRate",
						"offset": 0,
						"slot": "4",
						"type": "t_uint256"
					},
					{
						"astId": 87,
						"contract": "Contract Conqueror/swaptoken/swap.sol:StakingRewards",
						"label": "lastUpdateTime",
						"offset": 0,
						"slot": "5",
						"type": "t_uint256"
					},
					{
						"astId": 89,
						"contract": "Contract Conqueror/swaptoken/swap.sol:StakingRewards",
						"label": "rewardPerTokenStored",
						"offset": 0,
						"slot": "6",
						"type": "t_uint256"
					},
					{
						"astId": 91,
						"contract": "Contract Conqueror/swaptoken/swap.sol:StakingRewards",
						"label": "totalStaked",
						"offset": 0,
						"slot": "7",
						"type": "t_uint256"
					},
					{
						"astId": 94,
						"contract": "Contract Conqueror/swaptoken/swap.sol:StakingRewards",
						"label": "rewardsDuration",
						"offset": 0,
						"slot": "8",
						"type": "t_uint256"
					},
					{
						"astId": 96,
						"contract": "Contract Conqueror/swaptoken/swap.sol:StakingRewards",
						"label": "periodFinish",
						"offset": 0,
						"slot": "9",
						"type": "t_uint256"
					},
					{
						"astId": 100,
						"contract": "Contract Conqueror/swaptoken/swap.sol:StakingRewards",
						"label": "stakedBalance",
						"offset": 0,
						"slot": "10",
						"type": "t_mapping(t_address,t_uint256)"
					},
					{
						"astId": 104,
						"contract": "Contract Conqueror/swaptoken/swap.sol:StakingRewards",
						"label": "userRewardPerTokenPaid",
						"offset": 0,
						"slot": "11",
						"type": "t_mapping(t_address,t_uint256)"
					},
					{
						"astId": 108,
						"contract": "Contract Conqueror/swaptoken/swap.sol:StakingRewards",
						"label": "rewards",
						"offset": 0,
						"slot": "12",
						"type": "t_mapping(t_address,t_uint256)"
					},
					{
						"astId": 112,
						"contract": "Contract Conqueror/swaptoken/swap.sol:StakingRewards",
						"label": "stakingTime",
						"offset": 0,
						"slot": "13",
						"type": "t_mapping(t_address,t_uint256)"
					}
				],
				"types": {
					"t_address": {
						"encoding": "inplace",
						"label": "address",
						"numberOfBytes": "20"
					},
					"t_mapping(t_address,t_uint256)": {
						"encoding": "mapping",
						"key": "t_address",
						"label": "mapping(address => uint256)",
						"numberOfBytes": "32",
						"value": "t_uint256"
					},
					"t_uint256": {
						"encoding": "inplace",
						"label": "uint256",
						"numberOfBytes": "32"
					}
				}
			},
			"userdoc": {
				"kind": "user",
				"methods": {},
				"version": 1
			}
		}
	}
}