{
	"Contract Conqueror/Erc-1155/Erc1155Comp.sol": {
		"AdvancedERC1155WithRoyaltyAndAuction": {
			"abi": [
				{
					"anonymous": false,
					"inputs": [
						{
							"indexed": true,
							"internalType": "address",
							"name": "account",
							"type": "address"
						},
						{
							"indexed": true,
							"internalType": "address",
							"name": "operator",
							"type": "address"
						},
						{
							"indexed": false,
							"internalType": "bool",
							"name": "approved",
							"type": "bool"
						}
					],
					"name": "ApprovalForAll",
					"type": "event"
				},
				{
					"anonymous": false,
					"inputs": [
						{
							"indexed": true,
							"internalType": "uint256",
							"name": "auctionId",
							"type": "uint256"
						},
						{
							"indexed": true,
							"internalType": "address",
							"name": "seller",
							"type": "address"
						},
						{
							"indexed": false,
							"internalType": "uint256",
							"name": "tokenId",
							"type": "uint256"
						},
						{
							"indexed": false,
							"internalType": "uint256",
							"name": "endTime",
							"type": "uint256"
						}
					],
					"name": "AuctionCreated",
					"type": "event"
				},
				{
					"anonymous": false,
					"inputs": [
						{
							"indexed": true,
							"internalType": "uint256",
							"name": "auctionId",
							"type": "uint256"
						},
						{
							"indexed": false,
							"internalType": "address",
							"name": "winner",
							"type": "address"
						},
						{
							"indexed": false,
							"internalType": "uint256",
							"name": "amount",
							"type": "uint256"
						}
					],
					"name": "AuctionEnded",
					"type": "event"
				},
				{
					"anonymous": false,
					"inputs": [
						{
							"indexed": true,
							"internalType": "uint256",
							"name": "auctionId",
							"type": "uint256"
						},
						{
							"indexed": true,
							"internalType": "address",
							"name": "bidder",
							"type": "address"
						},
						{
							"indexed": false,
							"internalType": "uint256",
							"name": "amount",
							"type": "uint256"
						}
					],
					"name": "BidPlaced",
					"type": "event"
				},
				{
					"anonymous": false,
					"inputs": [
						{
							"indexed": true,
							"internalType": "uint256",
							"name": "auctionId",
							"type": "uint256"
						},
						{
							"indexed": false,
							"internalType": "address",
							"name": "bidder",
							"type": "address"
						},
						{
							"indexed": false,
							"internalType": "uint256",
							"name": "amount",
							"type": "uint256"
						}
					],
					"name": "Refunded",
					"type": "event"
				},
				{
					"anonymous": false,
					"inputs": [
						{
							"indexed": true,
							"internalType": "address",
							"name": "operator",
							"type": "address"
						},
						{
							"indexed": true,
							"internalType": "address",
							"name": "from",
							"type": "address"
						},
						{
							"indexed": true,
							"internalType": "address",
							"name": "to",
							"type": "address"
						},
						{
							"indexed": false,
							"internalType": "uint256[]",
							"name": "ids",
							"type": "uint256[]"
						},
						{
							"indexed": false,
							"internalType": "uint256[]",
							"name": "values",
							"type": "uint256[]"
						}
					],
					"name": "TransferBatch",
					"type": "event"
				},
				{
					"anonymous": false,
					"inputs": [
						{
							"indexed": true,
							"internalType": "address",
							"name": "operator",
							"type": "address"
						},
						{
							"indexed": true,
							"internalType": "address",
							"name": "from",
							"type": "address"
						},
						{
							"indexed": true,
							"internalType": "address",
							"name": "to",
							"type": "address"
						},
						{
							"indexed": false,
							"internalType": "uint256",
							"name": "id",
							"type": "uint256"
						},
						{
							"indexed": false,
							"internalType": "uint256",
							"name": "value",
							"type": "uint256"
						}
					],
					"name": "TransferSingle",
					"type": "event"
				},
				{
					"anonymous": false,
					"inputs": [
						{
							"indexed": false,
							"internalType": "string",
							"name": "value",
							"type": "string"
						},
						{
							"indexed": true,
							"internalType": "uint256",
							"name": "id",
							"type": "uint256"
						}
					],
					"name": "URI",
					"type": "event"
				},
				{
					"inputs": [],
					"name": "auctionCount",
					"outputs": [
						{
							"internalType": "uint256",
							"name": "",
							"type": "uint256"
						}
					],
					"stateMutability": "view",
					"type": "function"
				},
				{
					"inputs": [
						{
							"internalType": "uint256",
							"name": "",
							"type": "uint256"
						}
					],
					"name": "auctions",
					"outputs": [
						{
							"internalType": "address",
							"name": "seller",
							"type": "address"
						},
						{
							"internalType": "uint256",
							"name": "tokenId",
							"type": "uint256"
						},
						{
							"internalType": "uint256",
							"name": "amount",
							"type": "uint256"
						},
						{
							"internalType": "uint256",
							"name": "endTime",
							"type": "uint256"
						},
						{
							"internalType": "uint256",
							"name": "highestBid",
							"type": "uint256"
						},
						{
							"internalType": "address",
							"name": "highestBidder",
							"type": "address"
						},
						{
							"internalType": "bool",
							"name": "ended",
							"type": "bool"
						}
					],
					"stateMutability": "view",
					"type": "function"
				},
				{
					"inputs": [
						{
							"internalType": "address",
							"name": "account",
							"type": "address"
						},
						{
							"internalType": "uint256",
							"name": "id",
							"type": "uint256"
						}
					],
					"name": "balanceOf",
					"outputs": [
						{
							"internalType": "uint256",
							"name": "",
							"type": "uint256"
						}
					],
					"stateMutability": "view",
					"type": "function"
				},
				{
					"inputs": [
						{
							"internalType": "address[]",
							"name": "accounts",
							"type": "address[]"
						},
						{
							"internalType": "uint256[]",
							"name": "ids",
							"type": "uint256[]"
						}
					],
					"name": "balanceOfBatch",
					"outputs": [
						{
							"internalType": "uint256[]",
							"name": "",
							"type": "uint256[]"
						}
					],
					"stateMutability": "view",
					"type": "function"
				},
				{
					"inputs": [
						{
							"internalType": "uint256",
							"name": "auctionId",
							"type": "uint256"
						}
					],
					"name": "bid",
					"outputs": [],
					"stateMutability": "payable",
					"type": "function"
				},
				{
					"inputs": [
						{
							"internalType": "uint256",
							"name": "",
							"type": "uint256"
						},
						{
							"internalType": "address",
							"name": "",
							"type": "address"
						}
					],
					"name": "bids",
					"outputs": [
						{
							"internalType": "uint256",
							"name": "",
							"type": "uint256"
						}
					],
					"stateMutability": "view",
					"type": "function"
				},
				{
					"inputs": [
						{
							"internalType": "uint256",
							"name": "tokenId",
							"type": "uint256"
						},
						{
							"internalType": "uint256",
							"name": "amount",
							"type": "uint256"
						},
						{
							"internalType": "uint256",
							"name": "duration",
							"type": "uint256"
						}
					],
					"name": "createAuction",
					"outputs": [
						{
							"internalType": "uint256",
							"name": "",
							"type": "uint256"
						}
					],
					"stateMutability": "nonpayable",
					"type": "function"
				},
				{
					"inputs": [
						{
							"internalType": "uint256",
							"name": "auctionId",
							"type": "uint256"
						}
					],
					"name": "endAuction",
					"outputs": [],
					"stateMutability": "nonpayable",
					"type": "function"
				},
				{
					"inputs": [
						{
							"internalType": "address",
							"name": "account",
							"type": "address"
						},
						{
							"internalType": "address",
							"name": "operator",
							"type": "address"
						}
					],
					"name": "isApprovedForAll",
					"outputs": [
						{
							"internalType": "bool",
							"name": "",
							"type": "bool"
						}
					],
					"stateMutability": "view",
					"type": "function"
				},
				{
					"inputs": [
						{
							"internalType": "address",
							"name": "to",
							"type": "address"
						},
						{
							"internalType": "uint256",
							"name": "id",
							"type": "uint256"
						},
						{
							"internalType": "uint256",
							"name": "amount",
							"type": "uint256"
						},
						{
							"internalType": "string",
							"name": "uri_",
							"type": "string"
						},
						{
							"internalType": "address",
							"name": "royaltyReceiver",
							"type": "address"
						},
						{
							"internalType": "uint96",
							"name": "royaltyFee",
							"type": "uint96"
						}
					],
					"name": "mint",
					"outputs": [],
					"stateMutability": "nonpayable",
					"type": "function"
				},
				{
					"inputs": [
						{
							"internalType": "uint256",
							"name": "tokenId",
							"type": "uint256"
						},
						{
							"internalType": "uint256",
							"name": "salePrice",
							"type": "uint256"
						}
					],
					"name": "royaltyInfo",
					"outputs": [
						{
							"internalType": "address",
							"name": "",
							"type": "address"
						},
						{
							"internalType": "uint256",
							"name": "",
							"type": "uint256"
						}
					],
					"stateMutability": "view",
					"type": "function"
				},
				{
					"inputs": [
						{
							"internalType": "address",
							"name": "from",
							"type": "address"
						},
						{
							"internalType": "address",
							"name": "to",
							"type": "address"
						},
						{
							"internalType": "uint256[]",
							"name": "ids",
							"type": "uint256[]"
						},
						{
							"internalType": "uint256[]",
							"name": "amounts",
							"type": "uint256[]"
						}
					],
					"name": "safeBatchTransferFrom",
					"outputs": [],
					"stateMutability": "nonpayable",
					"type": "function"
				},
				{
					"inputs": [
						{
							"internalType": "address",
							"name": "from",
							"type": "address"
						},
						{
							"internalType": "address",
							"name": "to",
							"type": "address"
						},
						{
							"internalType": "uint256",
							"name": "id",
							"type": "uint256"
						},
						{
							"internalType": "uint256",
							"name": "amount",
							"type": "uint256"
						}
					],
					"name": "safeTransferFrom",
					"outputs": [],
					"stateMutability": "nonpayable",
					"type": "function"
				},
				{
					"inputs": [
						{
							"internalType": "address",
							"name": "operator",
							"type": "address"
						},
						{
							"internalType": "bool",
							"name": "approved",
							"type": "bool"
						}
					],
					"name": "setApprovalForAll",
					"outputs": [],
					"stateMutability": "nonpayable",
					"type": "function"
				},
				{
					"inputs": [
						{
							"internalType": "bytes4",
							"name": "interfaceId",
							"type": "bytes4"
						}
					],
					"name": "supportsInterface",
					"outputs": [
						{
							"internalType": "bool",
							"name": "",
							"type": "bool"
						}
					],
					"stateMutability": "pure",
					"type": "function"
				},
				{
					"inputs": [
						{
							"internalType": "uint256",
							"name": "id",
							"type": "uint256"
						}
					],
					"name": "uri",
					"outputs": [
						{
							"internalType": "string",
							"name": "",
							"type": "string"
						}
					],
					"stateMutability": "view",
					"type": "function"
				},
				{
					"inputs": [
						{
							"internalType": "uint256",
							"name": "auctionId",
							"type": "uint256"
						}
					],
					"name": "withdrawBid",
					"outputs": [],
					"stateMutability": "nonpayable",
					"type": "function"
				}
			],
			"devdoc": {
				"kind": "dev",
				"methods": {},
				"title": "AdvancedERC1155WithRoyaltyAndAuction",
				"version": 1
			},
			"evm": {
				"assembly": "    /* \"Contract Conqueror/Erc-1155/Erc1155Comp.sol\":200:8356  contract AdvancedERC1155WithRoyaltyAndAuction {... */\n  mstore(0x40, 0x80)\n  callvalue\n  dup1\n  iszero\n  tag_1\n  jumpi\n  revert(0x00, 0x00)\ntag_1:\n  pop\n  dataSize(sub_0)\n  dup1\n  dataOffset(sub_0)\n  0x00\n  codecopy\n  0x00\n  return\nstop\n\nsub_0: assembly {\n        /* \"Contract Conqueror/Erc-1155/Erc1155Comp.sol\":200:8356  contract AdvancedERC1155WithRoyaltyAndAuction {... */\n      mstore(0x40, 0x80)\n      jumpi(tag_1, lt(calldatasize, 0x04))\n      shr(0xe0, calldataload(0x00))\n      dup1\n      0x454a2ab3\n      gt\n      tag_19\n      jumpi\n      dup1\n      0xb9a2de3a\n      gt\n      tag_20\n      jumpi\n      dup1\n      0xb9a2de3a\n      eq\n      tag_14\n      jumpi\n      dup1\n      0xcda4beef\n      eq\n      tag_15\n      jumpi\n      dup1\n      0xe985e9c5\n      eq\n      tag_16\n      jumpi\n      dup1\n      0xfba0ee64\n      eq\n      tag_17\n      jumpi\n      dup1\n      0xfd8bf596\n      eq\n      tag_18\n      jumpi\n      jump(tag_1)\n    tag_20:\n      dup1\n      0x454a2ab3\n      eq\n      tag_10\n      jumpi\n      dup1\n      0x4e1273f4\n      eq\n      tag_11\n      jumpi\n      dup1\n      0x571a26a0\n      eq\n      tag_12\n      jumpi\n      dup1\n      0xa22cb465\n      eq\n      tag_13\n      jumpi\n      jump(tag_1)\n    tag_19:\n      dup1\n      0x0febdd49\n      gt\n      tag_21\n      jumpi\n      dup1\n      0x0febdd49\n      eq\n      tag_6\n      jumpi\n      dup1\n      0x2a55205a\n      eq\n      tag_7\n      jumpi\n      dup1\n      0x2ad71573\n      eq\n      tag_8\n      jumpi\n      dup1\n      0x3f1ffcec\n      eq\n      tag_9\n      jumpi\n      jump(tag_1)\n    tag_21:\n      dup1\n      0xfdd58e\n      eq\n      tag_2\n      jumpi\n      dup1\n      0x01ffc9a7\n      eq\n      tag_3\n      jumpi\n      dup1\n      0x0e89341c\n      eq\n      tag_4\n      jumpi\n      dup1\n      0x0eaaf4c8\n      eq\n      tag_5\n      jumpi\n    tag_1:\n      revert(0x00, 0x00)\n        /* \"Contract Conqueror/Erc-1155/Erc1155Comp.sol\":2661:2844  function balanceOf(address account, uint256 id) public view returns (uint256) {... */\n    tag_2:\n      callvalue\n      dup1\n      iszero\n      tag_22\n      jumpi\n      revert(0x00, 0x00)\n    tag_22:\n      pop\n      tag_23\n      0x04\n      dup1\n      calldatasize\n      sub\n      dup2\n      add\n      swap1\n      tag_24\n      swap2\n      swap1\n      tag_25\n      jump\t// in\n    tag_24:\n      tag_26\n      jump\t// in\n    tag_23:\n      mload(0x40)\n      tag_27\n      swap2\n      swap1\n      tag_28\n      jump\t// in\n    tag_27:\n      mload(0x40)\n      dup1\n      swap2\n      sub\n      swap1\n      return\n        /* \"Contract Conqueror/Erc-1155/Erc1155Comp.sol\":4755:4909  function supportsInterface(bytes4 interfaceId) public pure returns (bool) {... */\n    tag_3:\n      callvalue\n      dup1\n      iszero\n      tag_29\n      jumpi\n      revert(0x00, 0x00)\n    tag_29:\n      pop\n      tag_30\n      0x04\n      dup1\n      calldatasize\n      sub\n      dup2\n      add\n      swap1\n      tag_31\n      swap2\n      swap1\n      tag_32\n      jump\t// in\n    tag_31:\n      tag_33\n      jump\t// in\n    tag_30:\n      mload(0x40)\n      tag_34\n      swap2\n      swap1\n      tag_35\n      jump\t// in\n    tag_34:\n      mload(0x40)\n      dup1\n      swap2\n      sub\n      swap1\n      return\n        /* \"Contract Conqueror/Erc-1155/Erc1155Comp.sol\":4651:4747  function uri(uint256 id) public view returns (string memory) {... */\n    tag_4:\n      callvalue\n      dup1\n      iszero\n      tag_36\n      jumpi\n      revert(0x00, 0x00)\n    tag_36:\n      pop\n      tag_37\n      0x04\n      dup1\n      calldatasize\n      sub\n      dup2\n      add\n      swap1\n      tag_38\n      swap2\n      swap1\n      tag_39\n      jump\t// in\n    tag_38:\n      tag_40\n      jump\t// in\n    tag_37:\n      mload(0x40)\n      tag_41\n      swap2\n      swap1\n      tag_42\n      jump\t// in\n    tag_41:\n      mload(0x40)\n      dup1\n      swap2\n      sub\n      swap1\n      return\n        /* \"Contract Conqueror/Erc-1155/Erc1155Comp.sol\":7316:7619  function withdrawBid(uint256 auctionId) external {... */\n    tag_5:\n      callvalue\n      dup1\n      iszero\n      tag_43\n      jumpi\n      revert(0x00, 0x00)\n    tag_43:\n      pop\n      tag_44\n      0x04\n      dup1\n      calldatasize\n      sub\n      dup2\n      add\n      swap1\n      tag_45\n      swap2\n      swap1\n      tag_39\n      jump\t// in\n    tag_45:\n      tag_46\n      jump\t// in\n    tag_44:\n      stop\n        /* \"Contract Conqueror/Erc-1155/Erc1155Comp.sol\":3663:4050  function safeTransferFrom(address from, address to, uint256 id, uint256 amount) external onlyApproved(from) {... */\n    tag_6:\n      callvalue\n      dup1\n      iszero\n      tag_47\n      jumpi\n      revert(0x00, 0x00)\n    tag_47:\n      pop\n      tag_48\n      0x04\n      dup1\n      calldatasize\n      sub\n      dup2\n      add\n      swap1\n      tag_49\n      swap2\n      swap1\n      tag_50\n      jump\t// in\n    tag_49:\n      tag_51\n      jump\t// in\n    tag_48:\n      stop\n        /* \"Contract Conqueror/Erc-1155/Erc1155Comp.sol\":5668:5964  function royaltyInfo(uint256 tokenId, uint256 salePrice) external view returns (address, uint256) {... */\n    tag_7:\n      callvalue\n      dup1\n      iszero\n      tag_52\n      jumpi\n      revert(0x00, 0x00)\n    tag_52:\n      pop\n      tag_53\n      0x04\n      dup1\n      calldatasize\n      sub\n      dup2\n      add\n      swap1\n      tag_54\n      swap2\n      swap1\n      tag_55\n      jump\t// in\n    tag_54:\n      tag_56\n      jump\t// in\n    tag_53:\n      mload(0x40)\n      tag_57\n      swap3\n      swap2\n      swap1\n      tag_58\n      jump\t// in\n    tag_57:\n      mload(0x40)\n      dup1\n      swap2\n      sub\n      swap1\n      return\n        /* \"Contract Conqueror/Erc-1155/Erc1155Comp.sol\":1012:1039  uint256 public auctionCount */\n    tag_8:\n      callvalue\n      dup1\n      iszero\n      tag_59\n      jumpi\n      revert(0x00, 0x00)\n    tag_59:\n      pop\n      tag_60\n      tag_61\n      jump\t// in\n    tag_60:\n      mload(0x40)\n      tag_62\n      swap2\n      swap1\n      tag_28\n      jump\t// in\n    tag_62:\n      mload(0x40)\n      dup1\n      swap2\n      sub\n      swap1\n      return\n        /* \"Contract Conqueror/Erc-1155/Erc1155Comp.sol\":1096:1155  mapping(uint256 => mapping(address => uint256)) public bids */\n    tag_9:\n      callvalue\n      dup1\n      iszero\n      tag_63\n      jumpi\n      revert(0x00, 0x00)\n    tag_63:\n      pop\n      tag_64\n      0x04\n      dup1\n      calldatasize\n      sub\n      dup2\n      add\n      swap1\n      tag_65\n      swap2\n      swap1\n      tag_66\n      jump\t// in\n    tag_65:\n      tag_67\n      jump\t// in\n    tag_64:\n      mload(0x40)\n      tag_68\n      swap2\n      swap1\n      tag_28\n      jump\t// in\n    tag_68:\n      mload(0x40)\n      dup1\n      swap2\n      sub\n      swap1\n      return\n        /* \"Contract Conqueror/Erc-1155/Erc1155Comp.sol\":6820:7308  function bid(uint256 auctionId) external payable onlyBeforeEnd(auctionId) {... */\n    tag_10:\n      tag_69\n      0x04\n      dup1\n      calldatasize\n      sub\n      dup2\n      add\n      swap1\n      tag_70\n      swap2\n      swap1\n      tag_39\n      jump\t// in\n    tag_70:\n      tag_71\n      jump\t// in\n    tag_69:\n      stop\n        /* \"Contract Conqueror/Erc-1155/Erc1155Comp.sol\":2852:3285  function balanceOfBatch(address[] calldata accounts, uint256[] calldata ids) external view returns (uint256[] memory) {... */\n    tag_11:\n      callvalue\n      dup1\n      iszero\n      tag_72\n      jumpi\n      revert(0x00, 0x00)\n    tag_72:\n      pop\n      tag_73\n      0x04\n      dup1\n      calldatasize\n      sub\n      dup2\n      add\n      swap1\n      tag_74\n      swap2\n      swap1\n      tag_75\n      jump\t// in\n    tag_74:\n      tag_76\n      jump\t// in\n    tag_73:\n      mload(0x40)\n      tag_77\n      swap2\n      swap1\n      tag_78\n      jump\t// in\n    tag_77:\n      mload(0x40)\n      dup1\n      swap2\n      sub\n      swap1\n      return\n        /* \"Contract Conqueror/Erc-1155/Erc1155Comp.sol\":1046:1089  mapping(uint256 => Auction) public auctions */\n    tag_12:\n      callvalue\n      dup1\n      iszero\n      tag_79\n      jumpi\n      revert(0x00, 0x00)\n    tag_79:\n      pop\n      tag_80\n      0x04\n      dup1\n      calldatasize\n      sub\n      dup2\n      add\n      swap1\n      tag_81\n      swap2\n      swap1\n      tag_39\n      jump\t// in\n    tag_81:\n      tag_82\n      jump\t// in\n    tag_80:\n      mload(0x40)\n      tag_83\n      swap8\n      swap7\n      swap6\n      swap5\n      swap4\n      swap3\n      swap2\n      swap1\n      tag_84\n      jump\t// in\n    tag_83:\n      mload(0x40)\n      dup1\n      swap2\n      sub\n      swap1\n      return\n        /* \"Contract Conqueror/Erc-1155/Erc1155Comp.sol\":3293:3494  function setApprovalForAll(address operator, bool approved) external {... */\n    tag_13:\n      callvalue\n      dup1\n      iszero\n      tag_85\n      jumpi\n      revert(0x00, 0x00)\n    tag_85:\n      pop\n      tag_86\n      0x04\n      dup1\n      calldatasize\n      sub\n      dup2\n      add\n      swap1\n      tag_87\n      swap2\n      swap1\n      tag_88\n      jump\t// in\n    tag_87:\n      tag_89\n      jump\t// in\n    tag_86:\n      stop\n        /* \"Contract Conqueror/Erc-1155/Erc1155Comp.sol\":7627:8353  function endAuction(uint256 auctionId) external onlyAfterEnd(auctionId) notEnded(auctionId) {... */\n    tag_14:\n      callvalue\n      dup1\n      iszero\n      tag_90\n      jumpi\n      revert(0x00, 0x00)\n    tag_90:\n      pop\n      tag_91\n      0x04\n      dup1\n      calldatasize\n      sub\n      dup2\n      add\n      swap1\n      tag_92\n      swap2\n      swap1\n      tag_39\n      jump\t// in\n    tag_92:\n      tag_93\n      jump\t// in\n    tag_91:\n      stop\n        /* \"Contract Conqueror/Erc-1155/Erc1155Comp.sol\":6023:6812  function createAuction(uint256 tokenId, uint256 amount, uint256 duration) external returns (uint256) {... */\n    tag_15:\n      callvalue\n      dup1\n      iszero\n      tag_94\n      jumpi\n      revert(0x00, 0x00)\n    tag_94:\n      pop\n      tag_95\n      0x04\n      dup1\n      calldatasize\n      sub\n      dup2\n      add\n      swap1\n      tag_96\n      swap2\n      swap1\n      tag_97\n      jump\t// in\n    tag_96:\n      tag_98\n      jump\t// in\n    tag_95:\n      mload(0x40)\n      tag_99\n      swap2\n      swap1\n      tag_28\n      jump\t// in\n    tag_99:\n      mload(0x40)\n      dup1\n      swap2\n      sub\n      swap1\n      return\n        /* \"Contract Conqueror/Erc-1155/Erc1155Comp.sol\":3502:3655  function isApprovedForAll(address account, address operator) external view returns (bool) {... */\n    tag_16:\n      callvalue\n      dup1\n      iszero\n      tag_100\n      jumpi\n      revert(0x00, 0x00)\n    tag_100:\n      pop\n      tag_101\n      0x04\n      dup1\n      calldatasize\n      sub\n      dup2\n      add\n      swap1\n      tag_102\n      swap2\n      swap1\n      tag_103\n      jump\t// in\n    tag_102:\n      tag_104\n      jump\t// in\n    tag_101:\n      mload(0x40)\n      tag_105\n      swap2\n      swap1\n      tag_35\n      jump\t// in\n    tag_105:\n      mload(0x40)\n      dup1\n      swap2\n      sub\n      swap1\n      return\n        /* \"Contract Conqueror/Erc-1155/Erc1155Comp.sol\":4058:4643  function safeBatchTransferFrom(address from, address to, uint256[] calldata ids, uint256[] calldata amounts) external onlyApproved(from) {... */\n    tag_17:\n      callvalue\n      dup1\n      iszero\n      tag_106\n      jumpi\n      revert(0x00, 0x00)\n    tag_106:\n      pop\n      tag_107\n      0x04\n      dup1\n      calldatasize\n      sub\n      dup2\n      add\n      swap1\n      tag_108\n      swap2\n      swap1\n      tag_109\n      jump\t// in\n    tag_108:\n      tag_110\n      jump\t// in\n    tag_107:\n      stop\n        /* \"Contract Conqueror/Erc-1155/Erc1155Comp.sol\":4972:5660  function mint(... */\n    tag_18:\n      callvalue\n      dup1\n      iszero\n      tag_111\n      jumpi\n      revert(0x00, 0x00)\n    tag_111:\n      pop\n      tag_112\n      0x04\n      dup1\n      calldatasize\n      sub\n      dup2\n      add\n      swap1\n      tag_113\n      swap2\n      swap1\n      tag_114\n      jump\t// in\n    tag_113:\n      tag_115\n      jump\t// in\n    tag_112:\n      stop\n        /* \"Contract Conqueror/Erc-1155/Erc1155Comp.sol\":2661:2844  function balanceOf(address account, uint256 id) public view returns (uint256) {... */\n    tag_26:\n        /* \"Contract Conqueror/Erc-1155/Erc1155Comp.sol\":2730:2737  uint256 */\n      0x00\n        /* \"Contract Conqueror/Erc-1155/Erc1155Comp.sol\":2777:2778  0 */\n      0x00\n        /* \"Contract Conqueror/Erc-1155/Erc1155Comp.sol\":2758:2779  account != address(0) */\n      0xffffffffffffffffffffffffffffffffffffffff\n      and\n        /* \"Contract Conqueror/Erc-1155/Erc1155Comp.sol\":2758:2765  account */\n      dup4\n        /* \"Contract Conqueror/Erc-1155/Erc1155Comp.sol\":2758:2779  account != address(0) */\n      0xffffffffffffffffffffffffffffffffffffffff\n      and\n      sub\n        /* \"Contract Conqueror/Erc-1155/Erc1155Comp.sol\":2750:2796  require(account != address(0), \"Zero address\") */\n      tag_117\n      jumpi\n      mload(0x40)\n      0x08c379a000000000000000000000000000000000000000000000000000000000\n      dup2\n      mstore\n      0x04\n      add\n      tag_118\n      swap1\n      tag_119\n      jump\t// in\n    tag_118:\n      mload(0x40)\n      dup1\n      swap2\n      sub\n      swap1\n      revert\n    tag_117:\n        /* \"Contract Conqueror/Erc-1155/Erc1155Comp.sol\":2814:2823  _balances */\n      0x00\n        /* \"Contract Conqueror/Erc-1155/Erc1155Comp.sol\":2814:2827  _balances[id] */\n      0x00\n        /* \"Contract Conqueror/Erc-1155/Erc1155Comp.sol\":2824:2826  id */\n      dup4\n        /* \"Contract Conqueror/Erc-1155/Erc1155Comp.sol\":2814:2827  _balances[id] */\n      dup2\n      mstore\n      0x20\n      add\n      swap1\n      dup2\n      mstore\n      0x20\n      add\n      0x00\n      keccak256\n        /* \"Contract Conqueror/Erc-1155/Erc1155Comp.sol\":2814:2836  _balances[id][account] */\n      0x00\n        /* \"Contract Conqueror/Erc-1155/Erc1155Comp.sol\":2828:2835  account */\n      dup5\n        /* \"Contract Conqueror/Erc-1155/Erc1155Comp.sol\":2814:2836  _balances[id][account] */\n      0xffffffffffffffffffffffffffffffffffffffff\n      and\n      0xffffffffffffffffffffffffffffffffffffffff\n      and\n      dup2\n      mstore\n      0x20\n      add\n      swap1\n      dup2\n      mstore\n      0x20\n      add\n      0x00\n      keccak256\n      sload\n        /* \"Contract Conqueror/Erc-1155/Erc1155Comp.sol\":2807:2836  return _balances[id][account] */\n      swap1\n      pop\n        /* \"Contract Conqueror/Erc-1155/Erc1155Comp.sol\":2661:2844  function balanceOf(address account, uint256 id) public view returns (uint256) {... */\n      swap3\n      swap2\n      pop\n      pop\n      jump\t// out\n        /* \"Contract Conqueror/Erc-1155/Erc1155Comp.sol\":4755:4909  function supportsInterface(bytes4 interfaceId) public pure returns (bool) {... */\n    tag_33:\n        /* \"Contract Conqueror/Erc-1155/Erc1155Comp.sol\":4823:4827  bool */\n      0x00\n        /* \"Contract Conqueror/Erc-1155/Erc1155Comp.sol\":4862:4872  0xd9b67a26 */\n      0xd9b67a26\n        /* \"Contract Conqueror/Erc-1155/Erc1155Comp.sol\":4847:4872  interfaceId == 0xd9b67a26 */\n      0xe0\n      shl\n        /* \"Contract Conqueror/Erc-1155/Erc1155Comp.sol\":4847:4858  interfaceId */\n      dup3\n        /* \"Contract Conqueror/Erc-1155/Erc1155Comp.sol\":4847:4872  interfaceId == 0xd9b67a26 */\n      not(0xffffffffffffffffffffffffffffffffffffffffffffffffffffffff)\n      and\n      eq\n        /* \"Contract Conqueror/Erc-1155/Erc1155Comp.sol\":4847:4901  interfaceId == 0xd9b67a26 || interfaceId == 0x2a55205a */\n      dup1\n      tag_121\n      jumpi\n      pop\n        /* \"Contract Conqueror/Erc-1155/Erc1155Comp.sol\":4891:4901  0x2a55205a */\n      0x2a55205a\n        /* \"Contract Conqueror/Erc-1155/Erc1155Comp.sol\":4876:4901  interfaceId == 0x2a55205a */\n      0xe0\n      shl\n        /* \"Contract Conqueror/Erc-1155/Erc1155Comp.sol\":4876:4887  interfaceId */\n      dup3\n        /* \"Contract Conqueror/Erc-1155/Erc1155Comp.sol\":4876:4901  interfaceId == 0x2a55205a */\n      not(0xffffffffffffffffffffffffffffffffffffffffffffffffffffffff)\n      and\n      eq\n        /* \"Contract Conqueror/Erc-1155/Erc1155Comp.sol\":4847:4901  interfaceId == 0xd9b67a26 || interfaceId == 0x2a55205a */\n    tag_121:\n        /* \"Contract Conqueror/Erc-1155/Erc1155Comp.sol\":4840:4901  return interfaceId == 0xd9b67a26 || interfaceId == 0x2a55205a */\n      swap1\n      pop\n        /* \"Contract Conqueror/Erc-1155/Erc1155Comp.sol\":4755:4909  function supportsInterface(bytes4 interfaceId) public pure returns (bool) {... */\n      swap2\n      swap1\n      pop\n      jump\t// out\n        /* \"Contract Conqueror/Erc-1155/Erc1155Comp.sol\":4651:4747  function uri(uint256 id) public view returns (string memory) {... */\n    tag_40:\n        /* \"Contract Conqueror/Erc-1155/Erc1155Comp.sol\":4697:4710  string memory */\n      0x60\n        /* \"Contract Conqueror/Erc-1155/Erc1155Comp.sol\":4730:4735  _uris */\n      0x02\n        /* \"Contract Conqueror/Erc-1155/Erc1155Comp.sol\":4730:4739  _uris[id] */\n      0x00\n        /* \"Contract Conqueror/Erc-1155/Erc1155Comp.sol\":4736:4738  id */\n      dup4\n        /* \"Contract Conqueror/Erc-1155/Erc1155Comp.sol\":4730:4739  _uris[id] */\n      dup2\n      mstore\n      0x20\n      add\n      swap1\n      dup2\n      mstore\n      0x20\n      add\n      0x00\n      keccak256\n        /* \"Contract Conqueror/Erc-1155/Erc1155Comp.sol\":4723:4739  return _uris[id] */\n      dup1\n      sload\n      tag_123\n      swap1\n      tag_124\n      jump\t// in\n    tag_123:\n      dup1\n      0x1f\n      add\n      0x20\n      dup1\n      swap2\n      div\n      mul\n      0x20\n      add\n      mload(0x40)\n      swap1\n      dup2\n      add\n      0x40\n      mstore\n      dup1\n      swap3\n      swap2\n      swap1\n      dup2\n      dup2\n      mstore\n      0x20\n      add\n      dup3\n      dup1\n      sload\n      tag_125\n      swap1\n      tag_124\n      jump\t// in\n    tag_125:\n      dup1\n      iszero\n      tag_126\n      jumpi\n      dup1\n      0x1f\n      lt\n      tag_127\n      jumpi\n      0x0100\n      dup1\n      dup4\n      sload\n      div\n      mul\n      dup4\n      mstore\n      swap2\n      0x20\n      add\n      swap2\n      jump(tag_126)\n    tag_127:\n      dup3\n      add\n      swap2\n      swap1\n      0x00\n      mstore\n      keccak256(0x00, 0x20)\n      swap1\n    tag_128:\n      dup2\n      sload\n      dup2\n      mstore\n      swap1\n      0x01\n      add\n      swap1\n      0x20\n      add\n      dup1\n      dup4\n      gt\n      tag_128\n      jumpi\n      dup3\n      swap1\n      sub\n      0x1f\n      and\n      dup3\n      add\n      swap2\n    tag_126:\n      pop\n      pop\n      pop\n      pop\n      pop\n      swap1\n      pop\n        /* \"Contract Conqueror/Erc-1155/Erc1155Comp.sol\":4651:4747  function uri(uint256 id) public view returns (string memory) {... */\n      swap2\n      swap1\n      pop\n      jump\t// out\n        /* \"Contract Conqueror/Erc-1155/Erc1155Comp.sol\":7316:7619  function withdrawBid(uint256 auctionId) external {... */\n    tag_46:\n        /* \"Contract Conqueror/Erc-1155/Erc1155Comp.sol\":7376:7390  uint256 refund */\n      0x00\n        /* \"Contract Conqueror/Erc-1155/Erc1155Comp.sol\":7393:7397  bids */\n      0x06\n        /* \"Contract Conqueror/Erc-1155/Erc1155Comp.sol\":7393:7408  bids[auctionId] */\n      0x00\n        /* \"Contract Conqueror/Erc-1155/Erc1155Comp.sol\":7398:7407  auctionId */\n      dup4\n        /* \"Contract Conqueror/Erc-1155/Erc1155Comp.sol\":7393:7408  bids[auctionId] */\n      dup2\n      mstore\n      0x20\n      add\n      swap1\n      dup2\n      mstore\n      0x20\n      add\n      0x00\n      keccak256\n        /* \"Contract Conqueror/Erc-1155/Erc1155Comp.sol\":7393:7420  bids[auctionId][msg.sender] */\n      0x00\n        /* \"Contract Conqueror/Erc-1155/Erc1155Comp.sol\":7409:7419  msg.sender */\n      caller\n        /* \"Contract Conqueror/Erc-1155/Erc1155Comp.sol\":7393:7420  bids[auctionId][msg.sender] */\n      0xffffffffffffffffffffffffffffffffffffffff\n      and\n      0xffffffffffffffffffffffffffffffffffffffff\n      and\n      dup2\n      mstore\n      0x20\n      add\n      swap1\n      dup2\n      mstore\n      0x20\n      add\n      0x00\n      keccak256\n      sload\n        /* \"Contract Conqueror/Erc-1155/Erc1155Comp.sol\":7376:7420  uint256 refund = bids[auctionId][msg.sender] */\n      swap1\n      pop\n        /* \"Contract Conqueror/Erc-1155/Erc1155Comp.sol\":7448:7449  0 */\n      0x00\n        /* \"Contract Conqueror/Erc-1155/Erc1155Comp.sol\":7439:7445  refund */\n      dup2\n        /* \"Contract Conqueror/Erc-1155/Erc1155Comp.sol\":7439:7449  refund > 0 */\n      gt\n        /* \"Contract Conqueror/Erc-1155/Erc1155Comp.sol\":7431:7463  require(refund > 0, \"No refund\") */\n      tag_130\n      jumpi\n      mload(0x40)\n      0x08c379a000000000000000000000000000000000000000000000000000000000\n      dup2\n      mstore\n      0x04\n      add\n      tag_131\n      swap1\n      tag_132\n      jump\t// in\n    tag_131:\n      mload(0x40)\n      dup1\n      swap2\n      sub\n      swap1\n      revert\n    tag_130:\n        /* \"Contract Conqueror/Erc-1155/Erc1155Comp.sol\":7506:7507  0 */\n      0x00\n        /* \"Contract Conqueror/Erc-1155/Erc1155Comp.sol\":7476:7480  bids */\n      0x06\n        /* \"Contract Conqueror/Erc-1155/Erc1155Comp.sol\":7476:7491  bids[auctionId] */\n      0x00\n        /* \"Contract Conqueror/Erc-1155/Erc1155Comp.sol\":7481:7490  auctionId */\n      dup5\n        /* \"Contract Conqueror/Erc-1155/Erc1155Comp.sol\":7476:7491  bids[auctionId] */\n      dup2\n      mstore\n      0x20\n      add\n      swap1\n      dup2\n      mstore\n      0x20\n      add\n      0x00\n      keccak256\n        /* \"Contract Conqueror/Erc-1155/Erc1155Comp.sol\":7476:7503  bids[auctionId][msg.sender] */\n      0x00\n        /* \"Contract Conqueror/Erc-1155/Erc1155Comp.sol\":7492:7502  msg.sender */\n      caller\n        /* \"Contract Conqueror/Erc-1155/Erc1155Comp.sol\":7476:7503  bids[auctionId][msg.sender] */\n      0xffffffffffffffffffffffffffffffffffffffff\n      and\n      0xffffffffffffffffffffffffffffffffffffffff\n      and\n      dup2\n      mstore\n      0x20\n      add\n      swap1\n      dup2\n      mstore\n      0x20\n      add\n      0x00\n      keccak256\n        /* \"Contract Conqueror/Erc-1155/Erc1155Comp.sol\":7476:7507  bids[auctionId][msg.sender] = 0 */\n      dup2\n      swap1\n      sstore\n      pop\n        /* \"Contract Conqueror/Erc-1155/Erc1155Comp.sol\":7526:7536  msg.sender */\n      caller\n        /* \"Contract Conqueror/Erc-1155/Erc1155Comp.sol\":7518:7546  payable(msg.sender).transfer */\n      0xffffffffffffffffffffffffffffffffffffffff\n      and\n        /* \"Contract Conqueror/Erc-1155/Erc1155Comp.sol\":7518:7554  payable(msg.sender).transfer(refund) */\n      0x08fc\n        /* \"Contract Conqueror/Erc-1155/Erc1155Comp.sol\":7547:7553  refund */\n      dup3\n        /* \"Contract Conqueror/Erc-1155/Erc1155Comp.sol\":7518:7554  payable(msg.sender).transfer(refund) */\n      swap1\n      dup2\n      iszero\n      mul\n      swap1\n      mload(0x40)\n      0x00\n      mload(0x40)\n      dup1\n      dup4\n      sub\n      dup2\n      dup6\n      dup9\n      dup9\n      call\n      swap4\n      pop\n      pop\n      pop\n      pop\n      iszero\n      dup1\n      iszero\n      tag_134\n      jumpi\n      returndatacopy(0x00, 0x00, returndatasize)\n      revert(0x00, returndatasize)\n    tag_134:\n      pop\n        /* \"Contract Conqueror/Erc-1155/Erc1155Comp.sol\":7581:7590  auctionId */\n      dup2\n        /* \"Contract Conqueror/Erc-1155/Erc1155Comp.sol\":7572:7611  Refunded(auctionId, msg.sender, refund) */\n      0x7ca5472b7ea78c2c0141c5a12ee6d170cf4ce8ed06be3d22c8252ddfc7a6a2c4\n        /* \"Contract Conqueror/Erc-1155/Erc1155Comp.sol\":7592:7602  msg.sender */\n      caller\n        /* \"Contract Conqueror/Erc-1155/Erc1155Comp.sol\":7604:7610  refund */\n      dup4\n        /* \"Contract Conqueror/Erc-1155/Erc1155Comp.sol\":7572:7611  Refunded(auctionId, msg.sender, refund) */\n      mload(0x40)\n      tag_135\n      swap3\n      swap2\n      swap1\n      tag_58\n      jump\t// in\n    tag_135:\n      mload(0x40)\n      dup1\n      swap2\n      sub\n      swap1\n      log2\n        /* \"Contract Conqueror/Erc-1155/Erc1155Comp.sol\":7365:7619  {... */\n      pop\n        /* \"Contract Conqueror/Erc-1155/Erc1155Comp.sol\":7316:7619  function withdrawBid(uint256 auctionId) external {... */\n      pop\n      jump\t// out\n        /* \"Contract Conqueror/Erc-1155/Erc1155Comp.sol\":3663:4050  function safeTransferFrom(address from, address to, uint256 id, uint256 amount) external onlyApproved(from) {... */\n    tag_51:\n        /* \"Contract Conqueror/Erc-1155/Erc1155Comp.sol\":3765:3769  from */\n      dup4\n        /* \"Contract Conqueror/Erc-1155/Erc1155Comp.sol\":2071:2081  msg.sender */\n      caller\n        /* \"Contract Conqueror/Erc-1155/Erc1155Comp.sol\":2063:2081  from == msg.sender */\n      0xffffffffffffffffffffffffffffffffffffffff\n      and\n        /* \"Contract Conqueror/Erc-1155/Erc1155Comp.sol\":2063:2067  from */\n      dup2\n        /* \"Contract Conqueror/Erc-1155/Erc1155Comp.sol\":2063:2081  from == msg.sender */\n      0xffffffffffffffffffffffffffffffffffffffff\n      and\n      eq\n        /* \"Contract Conqueror/Erc-1155/Erc1155Comp.sol\":2063:2121  from == msg.sender || _operatorApprovals[from][msg.sender] */\n      dup1\n      tag_137\n      jumpi\n      pop\n        /* \"Contract Conqueror/Erc-1155/Erc1155Comp.sol\":2085:2103  _operatorApprovals */\n      0x01\n        /* \"Contract Conqueror/Erc-1155/Erc1155Comp.sol\":2085:2109  _operatorApprovals[from] */\n      0x00\n        /* \"Contract Conqueror/Erc-1155/Erc1155Comp.sol\":2104:2108  from */\n      dup3\n        /* \"Contract Conqueror/Erc-1155/Erc1155Comp.sol\":2085:2109  _operatorApprovals[from] */\n      0xffffffffffffffffffffffffffffffffffffffff\n      and\n      0xffffffffffffffffffffffffffffffffffffffff\n      and\n      dup2\n      mstore\n      0x20\n      add\n      swap1\n      dup2\n      mstore\n      0x20\n      add\n      0x00\n      keccak256\n        /* \"Contract Conqueror/Erc-1155/Erc1155Comp.sol\":2085:2121  _operatorApprovals[from][msg.sender] */\n      0x00\n        /* \"Contract Conqueror/Erc-1155/Erc1155Comp.sol\":2110:2120  msg.sender */\n      caller\n        /* \"Contract Conqueror/Erc-1155/Erc1155Comp.sol\":2085:2121  _operatorApprovals[from][msg.sender] */\n      0xffffffffffffffffffffffffffffffffffffffff\n      and\n      0xffffffffffffffffffffffffffffffffffffffff\n      and\n      dup2\n      mstore\n      0x20\n      add\n      swap1\n      dup2\n      mstore\n      0x20\n      add\n      0x00\n      keccak256\n      0x00\n      swap1\n      sload\n      swap1\n      0x0100\n      exp\n      swap1\n      div\n      0xff\n      and\n        /* \"Contract Conqueror/Erc-1155/Erc1155Comp.sol\":2063:2121  from == msg.sender || _operatorApprovals[from][msg.sender] */\n    tag_137:\n        /* \"Contract Conqueror/Erc-1155/Erc1155Comp.sol\":2055:2140  require(from == msg.sender || _operatorApprovals[from][msg.sender], \"Not authorized\") */\n      tag_138\n      jumpi\n      mload(0x40)\n      0x08c379a000000000000000000000000000000000000000000000000000000000\n      dup2\n      mstore\n      0x04\n      add\n      tag_139\n      swap1\n      tag_140\n      jump\t// in\n    tag_139:\n      mload(0x40)\n      dup1\n      swap2\n      sub\n      swap1\n      revert\n    tag_138:\n        /* \"Contract Conqueror/Erc-1155/Erc1155Comp.sol\":3804:3805  0 */\n      0x00\n        /* \"Contract Conqueror/Erc-1155/Erc1155Comp.sol\":3790:3806  to != address(0) */\n      0xffffffffffffffffffffffffffffffffffffffff\n      and\n        /* \"Contract Conqueror/Erc-1155/Erc1155Comp.sol\":3790:3792  to */\n      dup5\n        /* \"Contract Conqueror/Erc-1155/Erc1155Comp.sol\":3790:3806  to != address(0) */\n      0xffffffffffffffffffffffffffffffffffffffff\n      and\n      sub\n        /* \"Contract Conqueror/Erc-1155/Erc1155Comp.sol\":3782:3823  require(to != address(0), \"Zero address\") */\n      tag_142\n      jumpi\n      mload(0x40)\n      0x08c379a000000000000000000000000000000000000000000000000000000000\n      dup2\n      mstore\n      0x04\n      add\n      tag_143\n      swap1\n      tag_119\n      jump\t// in\n    tag_143:\n      mload(0x40)\n      dup1\n      swap2\n      sub\n      swap1\n      revert\n    tag_142:\n        /* \"Contract Conqueror/Erc-1155/Erc1155Comp.sol\":3865:3871  amount */\n      dup2\n        /* \"Contract Conqueror/Erc-1155/Erc1155Comp.sol\":3842:3851  _balances */\n      0x00\n        /* \"Contract Conqueror/Erc-1155/Erc1155Comp.sol\":3842:3855  _balances[id] */\n      0x00\n        /* \"Contract Conqueror/Erc-1155/Erc1155Comp.sol\":3852:3854  id */\n      dup6\n        /* \"Contract Conqueror/Erc-1155/Erc1155Comp.sol\":3842:3855  _balances[id] */\n      dup2\n      mstore\n      0x20\n      add\n      swap1\n      dup2\n      mstore\n      0x20\n      add\n      0x00\n      keccak256\n        /* \"Contract Conqueror/Erc-1155/Erc1155Comp.sol\":3842:3861  _balances[id][from] */\n      0x00\n        /* \"Contract Conqueror/Erc-1155/Erc1155Comp.sol\":3856:3860  from */\n      dup8\n        /* \"Contract Conqueror/Erc-1155/Erc1155Comp.sol\":3842:3861  _balances[id][from] */\n      0xffffffffffffffffffffffffffffffffffffffff\n      and\n      0xffffffffffffffffffffffffffffffffffffffff\n      and\n      dup2\n      mstore\n      0x20\n      add\n      swap1\n      dup2\n      mstore\n      0x20\n      add\n      0x00\n      keccak256\n      sload\n        /* \"Contract Conqueror/Erc-1155/Erc1155Comp.sol\":3842:3871  _balances[id][from] >= amount */\n      lt\n      iszero\n        /* \"Contract Conqueror/Erc-1155/Erc1155Comp.sol\":3834:3896  require(_balances[id][from] >= amount, \"Insufficient balance\") */\n      tag_144\n      jumpi\n      mload(0x40)\n      0x08c379a000000000000000000000000000000000000000000000000000000000\n      dup2\n      mstore\n      0x04\n      add\n      tag_145\n      swap1\n      tag_146\n      jump\t// in\n    tag_145:\n      mload(0x40)\n      dup1\n      swap2\n      sub\n      swap1\n      revert\n    tag_144:\n        /* \"Contract Conqueror/Erc-1155/Erc1155Comp.sol\":3932:3938  amount */\n      dup2\n        /* \"Contract Conqueror/Erc-1155/Erc1155Comp.sol\":3909:3918  _balances */\n      0x00\n        /* \"Contract Conqueror/Erc-1155/Erc1155Comp.sol\":3909:3922  _balances[id] */\n      0x00\n        /* \"Contract Conqueror/Erc-1155/Erc1155Comp.sol\":3919:3921  id */\n      dup6\n        /* \"Contract Conqueror/Erc-1155/Erc1155Comp.sol\":3909:3922  _balances[id] */\n      dup2\n      mstore\n      0x20\n      add\n      swap1\n      dup2\n      mstore\n      0x20\n      add\n      0x00\n      keccak256\n        /* \"Contract Conqueror/Erc-1155/Erc1155Comp.sol\":3909:3928  _balances[id][from] */\n      0x00\n        /* \"Contract Conqueror/Erc-1155/Erc1155Comp.sol\":3923:3927  from */\n      dup8\n        /* \"Contract Conqueror/Erc-1155/Erc1155Comp.sol\":3909:3928  _balances[id][from] */\n      0xffffffffffffffffffffffffffffffffffffffff\n      and\n      0xffffffffffffffffffffffffffffffffffffffff\n      and\n      dup2\n      mstore\n      0x20\n      add\n      swap1\n      dup2\n      mstore\n      0x20\n      add\n      0x00\n      keccak256\n      0x00\n        /* \"Contract Conqueror/Erc-1155/Erc1155Comp.sol\":3909:3938  _balances[id][from] -= amount */\n      dup3\n      dup3\n      sload\n      tag_147\n      swap2\n      swap1\n      tag_148\n      jump\t// in\n    tag_147:\n      swap3\n      pop\n      pop\n      dup2\n      swap1\n      sstore\n      pop\n        /* \"Contract Conqueror/Erc-1155/Erc1155Comp.sol\":3970:3976  amount */\n      dup2\n        /* \"Contract Conqueror/Erc-1155/Erc1155Comp.sol\":3949:3958  _balances */\n      0x00\n        /* \"Contract Conqueror/Erc-1155/Erc1155Comp.sol\":3949:3962  _balances[id] */\n      0x00\n        /* \"Contract Conqueror/Erc-1155/Erc1155Comp.sol\":3959:3961  id */\n      dup6\n        /* \"Contract Conqueror/Erc-1155/Erc1155Comp.sol\":3949:3962  _balances[id] */\n      dup2\n      mstore\n      0x20\n      add\n      swap1\n      dup2\n      mstore\n      0x20\n      add\n      0x00\n      keccak256\n        /* \"Contract Conqueror/Erc-1155/Erc1155Comp.sol\":3949:3966  _balances[id][to] */\n      0x00\n        /* \"Contract Conqueror/Erc-1155/Erc1155Comp.sol\":3963:3965  to */\n      dup7\n        /* \"Contract Conqueror/Erc-1155/Erc1155Comp.sol\":3949:3966  _balances[id][to] */\n      0xffffffffffffffffffffffffffffffffffffffff\n      and\n      0xffffffffffffffffffffffffffffffffffffffff\n      and\n      dup2\n      mstore\n      0x20\n      add\n      swap1\n      dup2\n      mstore\n      0x20\n      add\n      0x00\n      keccak256\n      0x00\n        /* \"Contract Conqueror/Erc-1155/Erc1155Comp.sol\":3949:3976  _balances[id][to] += amount */\n      dup3\n      dup3\n      sload\n      tag_149\n      swap2\n      swap1\n      tag_150\n      jump\t// in\n    tag_149:\n      swap3\n      pop\n      pop\n      dup2\n      swap1\n      sstore\n      pop\n        /* \"Contract Conqueror/Erc-1155/Erc1155Comp.sol\":4027:4029  to */\n      dup4\n        /* \"Contract Conqueror/Erc-1155/Erc1155Comp.sol\":3994:4042  TransferSingle(msg.sender, from, to, id, amount) */\n      0xffffffffffffffffffffffffffffffffffffffff\n      and\n        /* \"Contract Conqueror/Erc-1155/Erc1155Comp.sol\":4021:4025  from */\n      dup6\n        /* \"Contract Conqueror/Erc-1155/Erc1155Comp.sol\":3994:4042  TransferSingle(msg.sender, from, to, id, amount) */\n      0xffffffffffffffffffffffffffffffffffffffff\n      and\n        /* \"Contract Conqueror/Erc-1155/Erc1155Comp.sol\":4009:4019  msg.sender */\n      caller\n        /* \"Contract Conqueror/Erc-1155/Erc1155Comp.sol\":3994:4042  TransferSingle(msg.sender, from, to, id, amount) */\n      0xffffffffffffffffffffffffffffffffffffffff\n      and\n      0xc3d58168c5ae7397731d063d5bbf3d657854427343f4c083240f7aacaa2d0f62\n        /* \"Contract Conqueror/Erc-1155/Erc1155Comp.sol\":4031:4033  id */\n      dup7\n        /* \"Contract Conqueror/Erc-1155/Erc1155Comp.sol\":4035:4041  amount */\n      dup7\n        /* \"Contract Conqueror/Erc-1155/Erc1155Comp.sol\":3994:4042  TransferSingle(msg.sender, from, to, id, amount) */\n      mload(0x40)\n      tag_151\n      swap3\n      swap2\n      swap1\n      tag_152\n      jump\t// in\n    tag_151:\n      mload(0x40)\n      dup1\n      swap2\n      sub\n      swap1\n      log4\n        /* \"Contract Conqueror/Erc-1155/Erc1155Comp.sol\":3663:4050  function safeTransferFrom(address from, address to, uint256 id, uint256 amount) external onlyApproved(from) {... */\n      pop\n      pop\n      pop\n      pop\n      pop\n      jump\t// out\n        /* \"Contract Conqueror/Erc-1155/Erc1155Comp.sol\":5668:5964  function royaltyInfo(uint256 tokenId, uint256 salePrice) external view returns (address, uint256) {... */\n    tag_56:\n        /* \"Contract Conqueror/Erc-1155/Erc1155Comp.sol\":5748:5755  address */\n      0x00\n        /* \"Contract Conqueror/Erc-1155/Erc1155Comp.sol\":5757:5764  uint256 */\n      0x00\n        /* \"Contract Conqueror/Erc-1155/Erc1155Comp.sol\":5777:5803  RoyaltyInfo memory royalty */\n      0x00\n        /* \"Contract Conqueror/Erc-1155/Erc1155Comp.sol\":5806:5816  _royalties */\n      0x03\n        /* \"Contract Conqueror/Erc-1155/Erc1155Comp.sol\":5806:5825  _royalties[tokenId] */\n      0x00\n        /* \"Contract Conqueror/Erc-1155/Erc1155Comp.sol\":5817:5824  tokenId */\n      dup7\n        /* \"Contract Conqueror/Erc-1155/Erc1155Comp.sol\":5806:5825  _royalties[tokenId] */\n      dup2\n      mstore\n      0x20\n      add\n      swap1\n      dup2\n      mstore\n      0x20\n      add\n      0x00\n      keccak256\n        /* \"Contract Conqueror/Erc-1155/Erc1155Comp.sol\":5777:5825  RoyaltyInfo memory royalty = _royalties[tokenId] */\n      mload(0x40)\n      dup1\n      0x40\n      add\n      0x40\n      mstore\n      swap1\n      dup2\n      0x00\n      dup3\n      add\n      0x00\n      swap1\n      sload\n      swap1\n      0x0100\n      exp\n      swap1\n      div\n      0xffffffffffffffffffffffffffffffffffffffff\n      and\n      0xffffffffffffffffffffffffffffffffffffffff\n      and\n      0xffffffffffffffffffffffffffffffffffffffff\n      and\n      dup2\n      mstore\n      0x20\n      add\n      0x00\n      dup3\n      add\n      0x14\n      swap1\n      sload\n      swap1\n      0x0100\n      exp\n      swap1\n      div\n      0xffffffffffffffffffffffff\n      and\n      0xffffffffffffffffffffffff\n      and\n      0xffffffffffffffffffffffff\n      and\n      dup2\n      mstore\n      pop\n      pop\n      swap1\n      pop\n        /* \"Contract Conqueror/Erc-1155/Erc1155Comp.sol\":5836:5857  uint256 royaltyAmount */\n      0x00\n        /* \"Contract Conqueror/Erc-1155/Erc1155Comp.sol\":5900:5905  10000 */\n      0x2710\n        /* \"Contract Conqueror/Erc-1155/Erc1155Comp.sol\":5873:5880  royalty */\n      dup3\n        /* \"Contract Conqueror/Erc-1155/Erc1155Comp.sol\":5873:5896  royalty.royaltyFraction */\n      0x20\n      add\n      mload\n        /* \"Contract Conqueror/Erc-1155/Erc1155Comp.sol\":5861:5896  salePrice * royalty.royaltyFraction */\n      0xffffffffffffffffffffffff\n      and\n        /* \"Contract Conqueror/Erc-1155/Erc1155Comp.sol\":5861:5870  salePrice */\n      dup7\n        /* \"Contract Conqueror/Erc-1155/Erc1155Comp.sol\":5861:5896  salePrice * royalty.royaltyFraction */\n      tag_154\n      swap2\n      swap1\n      tag_155\n      jump\t// in\n    tag_154:\n        /* \"Contract Conqueror/Erc-1155/Erc1155Comp.sol\":5860:5905  (salePrice * royalty.royaltyFraction) / 10000 */\n      tag_156\n      swap2\n      swap1\n      tag_157\n      jump\t// in\n    tag_156:\n        /* \"Contract Conqueror/Erc-1155/Erc1155Comp.sol\":5836:5905  uint256 royaltyAmount = (salePrice * royalty.royaltyFraction) / 10000 */\n      swap1\n      pop\n        /* \"Contract Conqueror/Erc-1155/Erc1155Comp.sol\":5924:5931  royalty */\n      dup2\n        /* \"Contract Conqueror/Erc-1155/Erc1155Comp.sol\":5924:5940  royalty.receiver */\n      0x00\n      add\n      mload\n        /* \"Contract Conqueror/Erc-1155/Erc1155Comp.sol\":5942:5955  royaltyAmount */\n      dup2\n        /* \"Contract Conqueror/Erc-1155/Erc1155Comp.sol\":5916:5956  return (royalty.receiver, royaltyAmount) */\n      swap4\n      pop\n      swap4\n      pop\n      pop\n      pop\n        /* \"Contract Conqueror/Erc-1155/Erc1155Comp.sol\":5668:5964  function royaltyInfo(uint256 tokenId, uint256 salePrice) external view returns (address, uint256) {... */\n      swap3\n      pop\n      swap3\n      swap1\n      pop\n      jump\t// out\n        /* \"Contract Conqueror/Erc-1155/Erc1155Comp.sol\":1012:1039  uint256 public auctionCount */\n    tag_61:\n      sload(0x04)\n      dup2\n      jump\t// out\n        /* \"Contract Conqueror/Erc-1155/Erc1155Comp.sol\":1096:1155  mapping(uint256 => mapping(address => uint256)) public bids */\n    tag_67:\n      mstore(0x20, 0x06)\n      dup2\n      0x00\n      mstore\n      mstore(0x20, keccak256(0x00, 0x40))\n      dup1\n      0x00\n      mstore\n      keccak256(0x00, 0x40)\n      0x00\n      swap2\n      pop\n      swap2\n      pop\n      pop\n      sload\n      dup2\n      jump\t// out\n        /* \"Contract Conqueror/Erc-1155/Erc1155Comp.sol\":6820:7308  function bid(uint256 auctionId) external payable onlyBeforeEnd(auctionId) {... */\n    tag_71:\n        /* \"Contract Conqueror/Erc-1155/Erc1155Comp.sol\":6883:6892  auctionId */\n      dup1\n        /* \"Contract Conqueror/Erc-1155/Erc1155Comp.sol\":2247:2255  auctions */\n      0x05\n        /* \"Contract Conqueror/Erc-1155/Erc1155Comp.sol\":2247:2266  auctions[auctionId] */\n      0x00\n        /* \"Contract Conqueror/Erc-1155/Erc1155Comp.sol\":2256:2265  auctionId */\n      dup3\n        /* \"Contract Conqueror/Erc-1155/Erc1155Comp.sol\":2247:2266  auctions[auctionId] */\n      dup2\n      mstore\n      0x20\n      add\n      swap1\n      dup2\n      mstore\n      0x20\n      add\n      0x00\n      keccak256\n        /* \"Contract Conqueror/Erc-1155/Erc1155Comp.sol\":2247:2274  auctions[auctionId].endTime */\n      0x03\n      add\n      sload\n        /* \"Contract Conqueror/Erc-1155/Erc1155Comp.sol\":2229:2244  block.timestamp */\n      timestamp\n        /* \"Contract Conqueror/Erc-1155/Erc1155Comp.sol\":2229:2274  block.timestamp < auctions[auctionId].endTime */\n      lt\n        /* \"Contract Conqueror/Erc-1155/Erc1155Comp.sol\":2221:2292  require(block.timestamp < auctions[auctionId].endTime, \"Auction ended\") */\n      tag_159\n      jumpi\n      mload(0x40)\n      0x08c379a000000000000000000000000000000000000000000000000000000000\n      dup2\n      mstore\n      0x04\n      add\n      tag_160\n      swap1\n      tag_161\n      jump\t// in\n    tag_160:\n      mload(0x40)\n      dup1\n      swap2\n      sub\n      swap1\n      revert\n    tag_159:\n        /* \"Contract Conqueror/Erc-1155/Erc1155Comp.sol\":6905:6928  Auction storage auction */\n      0x00\n        /* \"Contract Conqueror/Erc-1155/Erc1155Comp.sol\":6931:6939  auctions */\n      0x05\n        /* \"Contract Conqueror/Erc-1155/Erc1155Comp.sol\":6931:6950  auctions[auctionId] */\n      0x00\n        /* \"Contract Conqueror/Erc-1155/Erc1155Comp.sol\":6940:6949  auctionId */\n      dup5\n        /* \"Contract Conqueror/Erc-1155/Erc1155Comp.sol\":6931:6950  auctions[auctionId] */\n      dup2\n      mstore\n      0x20\n      add\n      swap1\n      dup2\n      mstore\n      0x20\n      add\n      0x00\n      keccak256\n        /* \"Contract Conqueror/Erc-1155/Erc1155Comp.sol\":6905:6950  Auction storage auction = auctions[auctionId] */\n      swap1\n      pop\n        /* \"Contract Conqueror/Erc-1155/Erc1155Comp.sol\":6981:6988  auction */\n      dup1\n        /* \"Contract Conqueror/Erc-1155/Erc1155Comp.sol\":6981:6999  auction.highestBid */\n      0x04\n      add\n      sload\n        /* \"Contract Conqueror/Erc-1155/Erc1155Comp.sol\":6969:6978  msg.value */\n      callvalue\n        /* \"Contract Conqueror/Erc-1155/Erc1155Comp.sol\":6969:6999  msg.value > auction.highestBid */\n      gt\n        /* \"Contract Conqueror/Erc-1155/Erc1155Comp.sol\":6961:7011  require(msg.value > auction.highestBid, \"Low bid\") */\n      tag_163\n      jumpi\n      mload(0x40)\n      0x08c379a000000000000000000000000000000000000000000000000000000000\n      dup2\n      mstore\n      0x04\n      add\n      tag_164\n      swap1\n      tag_165\n      jump\t// in\n    tag_164:\n      mload(0x40)\n      dup1\n      swap2\n      sub\n      swap1\n      revert\n    tag_163:\n        /* \"Contract Conqueror/Erc-1155/Erc1155Comp.sol\":7061:7062  0 */\n      0x00\n        /* \"Contract Conqueror/Erc-1155/Erc1155Comp.sol\":7028:7063  auction.highestBidder != address(0) */\n      0xffffffffffffffffffffffffffffffffffffffff\n      and\n        /* \"Contract Conqueror/Erc-1155/Erc1155Comp.sol\":7028:7035  auction */\n      dup2\n        /* \"Contract Conqueror/Erc-1155/Erc1155Comp.sol\":7028:7049  auction.highestBidder */\n      0x05\n      add\n      0x00\n      swap1\n      sload\n      swap1\n      0x0100\n      exp\n      swap1\n      div\n      0xffffffffffffffffffffffffffffffffffffffff\n      and\n        /* \"Contract Conqueror/Erc-1155/Erc1155Comp.sol\":7028:7063  auction.highestBidder != address(0) */\n      0xffffffffffffffffffffffffffffffffffffffff\n      and\n      eq\n        /* \"Contract Conqueror/Erc-1155/Erc1155Comp.sol\":7024:7152  if (auction.highestBidder != address(0)) {... */\n      tag_166\n      jumpi\n        /* \"Contract Conqueror/Erc-1155/Erc1155Comp.sol\":7122:7129  auction */\n      dup1\n        /* \"Contract Conqueror/Erc-1155/Erc1155Comp.sol\":7122:7140  auction.highestBid */\n      0x04\n      add\n      sload\n        /* \"Contract Conqueror/Erc-1155/Erc1155Comp.sol\":7080:7084  bids */\n      0x06\n        /* \"Contract Conqueror/Erc-1155/Erc1155Comp.sol\":7080:7095  bids[auctionId] */\n      0x00\n        /* \"Contract Conqueror/Erc-1155/Erc1155Comp.sol\":7085:7094  auctionId */\n      dup6\n        /* \"Contract Conqueror/Erc-1155/Erc1155Comp.sol\":7080:7095  bids[auctionId] */\n      dup2\n      mstore\n      0x20\n      add\n      swap1\n      dup2\n      mstore\n      0x20\n      add\n      0x00\n      keccak256\n        /* \"Contract Conqueror/Erc-1155/Erc1155Comp.sol\":7080:7118  bids[auctionId][auction.highestBidder] */\n      0x00\n        /* \"Contract Conqueror/Erc-1155/Erc1155Comp.sol\":7096:7103  auction */\n      dup4\n        /* \"Contract Conqueror/Erc-1155/Erc1155Comp.sol\":7096:7117  auction.highestBidder */\n      0x05\n      add\n      0x00\n      swap1\n      sload\n      swap1\n      0x0100\n      exp\n      swap1\n      div\n      0xffffffffffffffffffffffffffffffffffffffff\n      and\n        /* \"Contract Conqueror/Erc-1155/Erc1155Comp.sol\":7080:7118  bids[auctionId][auction.highestBidder] */\n      0xffffffffffffffffffffffffffffffffffffffff\n      and\n      0xffffffffffffffffffffffffffffffffffffffff\n      and\n      dup2\n      mstore\n      0x20\n      add\n      swap1\n      dup2\n      mstore\n      0x20\n      add\n      0x00\n      keccak256\n      0x00\n        /* \"Contract Conqueror/Erc-1155/Erc1155Comp.sol\":7080:7140  bids[auctionId][auction.highestBidder] += auction.highestBid */\n      dup3\n      dup3\n      sload\n      tag_167\n      swap2\n      swap1\n      tag_150\n      jump\t// in\n    tag_167:\n      swap3\n      pop\n      pop\n      dup2\n      swap1\n      sstore\n      pop\n        /* \"Contract Conqueror/Erc-1155/Erc1155Comp.sol\":7024:7152  if (auction.highestBidder != address(0)) {... */\n    tag_166:\n        /* \"Contract Conqueror/Erc-1155/Erc1155Comp.sol\":7185:7194  msg.value */\n      callvalue\n        /* \"Contract Conqueror/Erc-1155/Erc1155Comp.sol\":7164:7171  auction */\n      dup2\n        /* \"Contract Conqueror/Erc-1155/Erc1155Comp.sol\":7164:7182  auction.highestBid */\n      0x04\n      add\n        /* \"Contract Conqueror/Erc-1155/Erc1155Comp.sol\":7164:7194  auction.highestBid = msg.value */\n      dup2\n      swap1\n      sstore\n      pop\n        /* \"Contract Conqueror/Erc-1155/Erc1155Comp.sol\":7229:7239  msg.sender */\n      caller\n        /* \"Contract Conqueror/Erc-1155/Erc1155Comp.sol\":7205:7212  auction */\n      dup2\n        /* \"Contract Conqueror/Erc-1155/Erc1155Comp.sol\":7205:7226  auction.highestBidder */\n      0x05\n      add\n      0x00\n        /* \"Contract Conqueror/Erc-1155/Erc1155Comp.sol\":7205:7239  auction.highestBidder = msg.sender */\n      0x0100\n      exp\n      dup2\n      sload\n      dup2\n      0xffffffffffffffffffffffffffffffffffffffff\n      mul\n      not\n      and\n      swap1\n      dup4\n      0xffffffffffffffffffffffffffffffffffffffff\n      and\n      mul\n      or\n      swap1\n      sstore\n      pop\n        /* \"Contract Conqueror/Erc-1155/Erc1155Comp.sol\":7278:7288  msg.sender */\n      caller\n        /* \"Contract Conqueror/Erc-1155/Erc1155Comp.sol\":7257:7300  BidPlaced(auctionId, msg.sender, msg.value) */\n      0xffffffffffffffffffffffffffffffffffffffff\n      and\n        /* \"Contract Conqueror/Erc-1155/Erc1155Comp.sol\":7267:7276  auctionId */\n      dup4\n        /* \"Contract Conqueror/Erc-1155/Erc1155Comp.sol\":7257:7300  BidPlaced(auctionId, msg.sender, msg.value) */\n      0x0e54eff26401bf69b81b26f60bd85ef47f5d85275c1d268d84f68d6897431c47\n        /* \"Contract Conqueror/Erc-1155/Erc1155Comp.sol\":7290:7299  msg.value */\n      callvalue\n        /* \"Contract Conqueror/Erc-1155/Erc1155Comp.sol\":7257:7300  BidPlaced(auctionId, msg.sender, msg.value) */\n      mload(0x40)\n      tag_168\n      swap2\n      swap1\n      tag_28\n      jump\t// in\n    tag_168:\n      mload(0x40)\n      dup1\n      swap2\n      sub\n      swap1\n      log3\n        /* \"Contract Conqueror/Erc-1155/Erc1155Comp.sol\":6894:7308  {... */\n      pop\n        /* \"Contract Conqueror/Erc-1155/Erc1155Comp.sol\":6820:7308  function bid(uint256 auctionId) external payable onlyBeforeEnd(auctionId) {... */\n      pop\n      pop\n      jump\t// out\n        /* \"Contract Conqueror/Erc-1155/Erc1155Comp.sol\":2852:3285  function balanceOfBatch(address[] calldata accounts, uint256[] calldata ids) external view returns (uint256[] memory) {... */\n    tag_76:\n        /* \"Contract Conqueror/Erc-1155/Erc1155Comp.sol\":2952:2968  uint256[] memory */\n      0x60\n        /* \"Contract Conqueror/Erc-1155/Erc1155Comp.sol\":3008:3011  ids */\n      dup3\n      dup3\n        /* \"Contract Conqueror/Erc-1155/Erc1155Comp.sol\":3008:3018  ids.length */\n      swap1\n      pop\n        /* \"Contract Conqueror/Erc-1155/Erc1155Comp.sol\":2989:2997  accounts */\n      dup6\n      dup6\n        /* \"Contract Conqueror/Erc-1155/Erc1155Comp.sol\":2989:3004  accounts.length */\n      swap1\n      pop\n        /* \"Contract Conqueror/Erc-1155/Erc1155Comp.sol\":2989:3018  accounts.length == ids.length */\n      eq\n        /* \"Contract Conqueror/Erc-1155/Erc1155Comp.sol\":2981:3040  require(accounts.length == ids.length, \"Mismatched arrays\") */\n      tag_170\n      jumpi\n      mload(0x40)\n      0x08c379a000000000000000000000000000000000000000000000000000000000\n      dup2\n      mstore\n      0x04\n      add\n      tag_171\n      swap1\n      tag_172\n      jump\t// in\n    tag_171:\n      mload(0x40)\n      dup1\n      swap2\n      sub\n      swap1\n      revert\n    tag_170:\n        /* \"Contract Conqueror/Erc-1155/Erc1155Comp.sol\":3051:3081  uint256[] memory batchBalances */\n      0x00\n        /* \"Contract Conqueror/Erc-1155/Erc1155Comp.sol\":3098:3106  accounts */\n      dup6\n      dup6\n        /* \"Contract Conqueror/Erc-1155/Erc1155Comp.sol\":3098:3113  accounts.length */\n      swap1\n      pop\n        /* \"Contract Conqueror/Erc-1155/Erc1155Comp.sol\":3084:3114  new uint256[](accounts.length) */\n      0xffffffffffffffff\n      dup2\n      gt\n      iszero\n      tag_173\n      jumpi\n      tag_174\n      tag_175\n      jump\t// in\n    tag_174:\n    tag_173:\n      mload(0x40)\n      swap1\n      dup1\n      dup3\n      mstore\n      dup1\n      0x20\n      mul\n      0x20\n      add\n      dup3\n      add\n      0x40\n      mstore\n      dup1\n      iszero\n      tag_176\n      jumpi\n      dup2\n      0x20\n      add\n      0x20\n      dup3\n      mul\n      dup1\n      calldatasize\n      dup4\n      calldatacopy\n      dup1\n      dup3\n      add\n      swap2\n      pop\n      pop\n      swap1\n      pop\n    tag_176:\n      pop\n        /* \"Contract Conqueror/Erc-1155/Erc1155Comp.sol\":3051:3114  uint256[] memory batchBalances = new uint256[](accounts.length) */\n      swap1\n      pop\n        /* \"Contract Conqueror/Erc-1155/Erc1155Comp.sol\":3130:3139  uint256 i */\n      0x00\n        /* \"Contract Conqueror/Erc-1155/Erc1155Comp.sol\":3142:3143  0 */\n      0x00\n        /* \"Contract Conqueror/Erc-1155/Erc1155Comp.sol\":3130:3143  uint256 i = 0 */\n      swap1\n      pop\n        /* \"Contract Conqueror/Erc-1155/Erc1155Comp.sol\":3125:3247  for (uint256 i = 0; i < accounts.length; i++) {... */\n    tag_177:\n        /* \"Contract Conqueror/Erc-1155/Erc1155Comp.sol\":3149:3157  accounts */\n      dup7\n      dup7\n        /* \"Contract Conqueror/Erc-1155/Erc1155Comp.sol\":3149:3164  accounts.length */\n      swap1\n      pop\n        /* \"Contract Conqueror/Erc-1155/Erc1155Comp.sol\":3145:3146  i */\n      dup2\n        /* \"Contract Conqueror/Erc-1155/Erc1155Comp.sol\":3145:3164  i < accounts.length */\n      lt\n        /* \"Contract Conqueror/Erc-1155/Erc1155Comp.sol\":3125:3247  for (uint256 i = 0; i < accounts.length; i++) {... */\n      iszero\n      tag_178\n      jumpi\n        /* \"Contract Conqueror/Erc-1155/Erc1155Comp.sol\":3205:3214  _balances */\n      0x00\n        /* \"Contract Conqueror/Erc-1155/Erc1155Comp.sol\":3205:3222  _balances[ids[i]] */\n      0x00\n        /* \"Contract Conqueror/Erc-1155/Erc1155Comp.sol\":3215:3218  ids */\n      dup7\n      dup7\n        /* \"Contract Conqueror/Erc-1155/Erc1155Comp.sol\":3219:3220  i */\n      dup5\n        /* \"Contract Conqueror/Erc-1155/Erc1155Comp.sol\":3215:3221  ids[i] */\n      dup2\n      dup2\n      lt\n      tag_180\n      jumpi\n      tag_181\n      tag_182\n      jump\t// in\n    tag_181:\n    tag_180:\n      swap1\n      pop\n      0x20\n      mul\n      add\n      calldataload\n        /* \"Contract Conqueror/Erc-1155/Erc1155Comp.sol\":3205:3222  _balances[ids[i]] */\n      dup2\n      mstore\n      0x20\n      add\n      swap1\n      dup2\n      mstore\n      0x20\n      add\n      0x00\n      keccak256\n        /* \"Contract Conqueror/Erc-1155/Erc1155Comp.sol\":3205:3235  _balances[ids[i]][accounts[i]] */\n      0x00\n        /* \"Contract Conqueror/Erc-1155/Erc1155Comp.sol\":3223:3231  accounts */\n      dup9\n      dup9\n        /* \"Contract Conqueror/Erc-1155/Erc1155Comp.sol\":3232:3233  i */\n      dup5\n        /* \"Contract Conqueror/Erc-1155/Erc1155Comp.sol\":3223:3234  accounts[i] */\n      dup2\n      dup2\n      lt\n      tag_183\n      jumpi\n      tag_184\n      tag_182\n      jump\t// in\n    tag_184:\n    tag_183:\n      swap1\n      pop\n      0x20\n      mul\n      add\n      0x20\n      dup2\n      add\n      swap1\n      tag_185\n      swap2\n      swap1\n      tag_186\n      jump\t// in\n    tag_185:\n        /* \"Contract Conqueror/Erc-1155/Erc1155Comp.sol\":3205:3235  _balances[ids[i]][accounts[i]] */\n      0xffffffffffffffffffffffffffffffffffffffff\n      and\n      0xffffffffffffffffffffffffffffffffffffffff\n      and\n      dup2\n      mstore\n      0x20\n      add\n      swap1\n      dup2\n      mstore\n      0x20\n      add\n      0x00\n      keccak256\n      sload\n        /* \"Contract Conqueror/Erc-1155/Erc1155Comp.sol\":3186:3199  batchBalances */\n      dup3\n        /* \"Contract Conqueror/Erc-1155/Erc1155Comp.sol\":3200:3201  i */\n      dup3\n        /* \"Contract Conqueror/Erc-1155/Erc1155Comp.sol\":3186:3202  batchBalances[i] */\n      dup2\n      mload\n      dup2\n      lt\n      tag_187\n      jumpi\n      tag_188\n      tag_182\n      jump\t// in\n    tag_188:\n    tag_187:\n      0x20\n      mul\n      0x20\n      add\n      add\n        /* \"Contract Conqueror/Erc-1155/Erc1155Comp.sol\":3186:3235  batchBalances[i] = _balances[ids[i]][accounts[i]] */\n      dup2\n      dup2\n      mstore\n      pop\n      pop\n        /* \"Contract Conqueror/Erc-1155/Erc1155Comp.sol\":3166:3169  i++ */\n      dup1\n      dup1\n      0x01\n      add\n      swap2\n      pop\n      pop\n        /* \"Contract Conqueror/Erc-1155/Erc1155Comp.sol\":3125:3247  for (uint256 i = 0; i < accounts.length; i++) {... */\n      jump(tag_177)\n    tag_178:\n      pop\n        /* \"Contract Conqueror/Erc-1155/Erc1155Comp.sol\":3264:3277  batchBalances */\n      dup1\n        /* \"Contract Conqueror/Erc-1155/Erc1155Comp.sol\":3257:3277  return batchBalances */\n      swap2\n      pop\n      pop\n        /* \"Contract Conqueror/Erc-1155/Erc1155Comp.sol\":2852:3285  function balanceOfBatch(address[] calldata accounts, uint256[] calldata ids) external view returns (uint256[] memory) {... */\n      swap5\n      swap4\n      pop\n      pop\n      pop\n      pop\n      jump\t// out\n        /* \"Contract Conqueror/Erc-1155/Erc1155Comp.sol\":1046:1089  mapping(uint256 => Auction) public auctions */\n    tag_82:\n      mstore(0x20, 0x05)\n      dup1\n      0x00\n      mstore\n      keccak256(0x00, 0x40)\n      0x00\n      swap2\n      pop\n      swap1\n      pop\n      dup1\n      0x00\n      add\n      0x00\n      swap1\n      sload\n      swap1\n      0x0100\n      exp\n      swap1\n      div\n      0xffffffffffffffffffffffffffffffffffffffff\n      and\n      swap1\n      dup1\n      0x01\n      add\n      sload\n      swap1\n      dup1\n      0x02\n      add\n      sload\n      swap1\n      dup1\n      0x03\n      add\n      sload\n      swap1\n      dup1\n      0x04\n      add\n      sload\n      swap1\n      dup1\n      0x05\n      add\n      0x00\n      swap1\n      sload\n      swap1\n      0x0100\n      exp\n      swap1\n      div\n      0xffffffffffffffffffffffffffffffffffffffff\n      and\n      swap1\n      dup1\n      0x05\n      add\n      0x14\n      swap1\n      sload\n      swap1\n      0x0100\n      exp\n      swap1\n      div\n      0xff\n      and\n      swap1\n      pop\n      dup8\n      jump\t// out\n        /* \"Contract Conqueror/Erc-1155/Erc1155Comp.sol\":3293:3494  function setApprovalForAll(address operator, bool approved) external {... */\n    tag_89:\n        /* \"Contract Conqueror/Erc-1155/Erc1155Comp.sol\":3416:3424  approved */\n      dup1\n        /* \"Contract Conqueror/Erc-1155/Erc1155Comp.sol\":3373:3391  _operatorApprovals */\n      0x01\n        /* \"Contract Conqueror/Erc-1155/Erc1155Comp.sol\":3373:3403  _operatorApprovals[msg.sender] */\n      0x00\n        /* \"Contract Conqueror/Erc-1155/Erc1155Comp.sol\":3392:3402  msg.sender */\n      caller\n        /* \"Contract Conqueror/Erc-1155/Erc1155Comp.sol\":3373:3403  _operatorApprovals[msg.sender] */\n      0xffffffffffffffffffffffffffffffffffffffff\n      and\n      0xffffffffffffffffffffffffffffffffffffffff\n      and\n      dup2\n      mstore\n      0x20\n      add\n      swap1\n      dup2\n      mstore\n      0x20\n      add\n      0x00\n      keccak256\n        /* \"Contract Conqueror/Erc-1155/Erc1155Comp.sol\":3373:3413  _operatorApprovals[msg.sender][operator] */\n      0x00\n        /* \"Contract Conqueror/Erc-1155/Erc1155Comp.sol\":3404:3412  operator */\n      dup5\n        /* \"Contract Conqueror/Erc-1155/Erc1155Comp.sol\":3373:3413  _operatorApprovals[msg.sender][operator] */\n      0xffffffffffffffffffffffffffffffffffffffff\n      and\n      0xffffffffffffffffffffffffffffffffffffffff\n      and\n      dup2\n      mstore\n      0x20\n      add\n      swap1\n      dup2\n      mstore\n      0x20\n      add\n      0x00\n      keccak256\n      0x00\n        /* \"Contract Conqueror/Erc-1155/Erc1155Comp.sol\":3373:3424  _operatorApprovals[msg.sender][operator] = approved */\n      0x0100\n      exp\n      dup2\n      sload\n      dup2\n      0xff\n      mul\n      not\n      and\n      swap1\n      dup4\n      iszero\n      iszero\n      mul\n      or\n      swap1\n      sstore\n      pop\n        /* \"Contract Conqueror/Erc-1155/Erc1155Comp.sol\":3467:3475  operator */\n      dup2\n        /* \"Contract Conqueror/Erc-1155/Erc1155Comp.sol\":3440:3486  ApprovalForAll(msg.sender, operator, approved) */\n      0xffffffffffffffffffffffffffffffffffffffff\n      and\n        /* \"Contract Conqueror/Erc-1155/Erc1155Comp.sol\":3455:3465  msg.sender */\n      caller\n        /* \"Contract Conqueror/Erc-1155/Erc1155Comp.sol\":3440:3486  ApprovalForAll(msg.sender, operator, approved) */\n      0xffffffffffffffffffffffffffffffffffffffff\n      and\n      0x17307eab39ab6107e8899845ad3d59bd9653f200f220920489ca2b5937696c31\n        /* \"Contract Conqueror/Erc-1155/Erc1155Comp.sol\":3477:3485  approved */\n      dup4\n        /* \"Contract Conqueror/Erc-1155/Erc1155Comp.sol\":3440:3486  ApprovalForAll(msg.sender, operator, approved) */\n      mload(0x40)\n      tag_190\n      swap2\n      swap1\n      tag_35\n      jump\t// in\n    tag_190:\n      mload(0x40)\n      dup1\n      swap2\n      sub\n      swap1\n      log3\n        /* \"Contract Conqueror/Erc-1155/Erc1155Comp.sol\":3293:3494  function setApprovalForAll(address operator, bool approved) external {... */\n      pop\n      pop\n      jump\t// out\n        /* \"Contract Conqueror/Erc-1155/Erc1155Comp.sol\":7627:8353  function endAuction(uint256 auctionId) external onlyAfterEnd(auctionId) notEnded(auctionId) {... */\n    tag_93:\n        /* \"Contract Conqueror/Erc-1155/Erc1155Comp.sol\":7688:7697  auctionId */\n      dup1\n        /* \"Contract Conqueror/Erc-1155/Erc1155Comp.sol\":2399:2407  auctions */\n      0x05\n        /* \"Contract Conqueror/Erc-1155/Erc1155Comp.sol\":2399:2418  auctions[auctionId] */\n      0x00\n        /* \"Contract Conqueror/Erc-1155/Erc1155Comp.sol\":2408:2417  auctionId */\n      dup3\n        /* \"Contract Conqueror/Erc-1155/Erc1155Comp.sol\":2399:2418  auctions[auctionId] */\n      dup2\n      mstore\n      0x20\n      add\n      swap1\n      dup2\n      mstore\n      0x20\n      add\n      0x00\n      keccak256\n        /* \"Contract Conqueror/Erc-1155/Erc1155Comp.sol\":2399:2426  auctions[auctionId].endTime */\n      0x03\n      add\n      sload\n        /* \"Contract Conqueror/Erc-1155/Erc1155Comp.sol\":2380:2395  block.timestamp */\n      timestamp\n        /* \"Contract Conqueror/Erc-1155/Erc1155Comp.sol\":2380:2426  block.timestamp >= auctions[auctionId].endTime */\n      lt\n      iszero\n        /* \"Contract Conqueror/Erc-1155/Erc1155Comp.sol\":2372:2448  require(block.timestamp >= auctions[auctionId].endTime, \"Auction not ended\") */\n      tag_192\n      jumpi\n      mload(0x40)\n      0x08c379a000000000000000000000000000000000000000000000000000000000\n      dup2\n      mstore\n      0x04\n      add\n      tag_193\n      swap1\n      tag_194\n      jump\t// in\n    tag_193:\n      mload(0x40)\n      dup1\n      swap2\n      sub\n      swap1\n      revert\n    tag_192:\n        /* \"Contract Conqueror/Erc-1155/Erc1155Comp.sol\":7708:7717  auctionId */\n      dup2\n        /* \"Contract Conqueror/Erc-1155/Erc1155Comp.sol\":2533:2541  auctions */\n      0x05\n        /* \"Contract Conqueror/Erc-1155/Erc1155Comp.sol\":2533:2552  auctions[auctionId] */\n      0x00\n        /* \"Contract Conqueror/Erc-1155/Erc1155Comp.sol\":2542:2551  auctionId */\n      dup3\n        /* \"Contract Conqueror/Erc-1155/Erc1155Comp.sol\":2533:2552  auctions[auctionId] */\n      dup2\n      mstore\n      0x20\n      add\n      swap1\n      dup2\n      mstore\n      0x20\n      add\n      0x00\n      keccak256\n        /* \"Contract Conqueror/Erc-1155/Erc1155Comp.sol\":2533:2558  auctions[auctionId].ended */\n      0x05\n      add\n      0x14\n      swap1\n      sload\n      swap1\n      0x0100\n      exp\n      swap1\n      div\n      0xff\n      and\n        /* \"Contract Conqueror/Erc-1155/Erc1155Comp.sol\":2532:2558  !auctions[auctionId].ended */\n      iszero\n        /* \"Contract Conqueror/Erc-1155/Erc1155Comp.sol\":2524:2586  require(!auctions[auctionId].ended, \"Auction already settled\") */\n      tag_196\n      jumpi\n      mload(0x40)\n      0x08c379a000000000000000000000000000000000000000000000000000000000\n      dup2\n      mstore\n      0x04\n      add\n      tag_197\n      swap1\n      tag_198\n      jump\t// in\n    tag_197:\n      mload(0x40)\n      dup1\n      swap2\n      sub\n      swap1\n      revert\n    tag_196:\n        /* \"Contract Conqueror/Erc-1155/Erc1155Comp.sol\":7730:7753  Auction storage auction */\n      0x00\n        /* \"Contract Conqueror/Erc-1155/Erc1155Comp.sol\":7756:7764  auctions */\n      0x05\n        /* \"Contract Conqueror/Erc-1155/Erc1155Comp.sol\":7756:7775  auctions[auctionId] */\n      0x00\n        /* \"Contract Conqueror/Erc-1155/Erc1155Comp.sol\":7765:7774  auctionId */\n      dup6\n        /* \"Contract Conqueror/Erc-1155/Erc1155Comp.sol\":7756:7775  auctions[auctionId] */\n      dup2\n      mstore\n      0x20\n      add\n      swap1\n      dup2\n      mstore\n      0x20\n      add\n      0x00\n      keccak256\n        /* \"Contract Conqueror/Erc-1155/Erc1155Comp.sol\":7730:7775  Auction storage auction = auctions[auctionId] */\n      swap1\n      pop\n        /* \"Contract Conqueror/Erc-1155/Erc1155Comp.sol\":7802:7806  true */\n      0x01\n        /* \"Contract Conqueror/Erc-1155/Erc1155Comp.sol\":7786:7793  auction */\n      dup2\n        /* \"Contract Conqueror/Erc-1155/Erc1155Comp.sol\":7786:7799  auction.ended */\n      0x05\n      add\n      0x14\n        /* \"Contract Conqueror/Erc-1155/Erc1155Comp.sol\":7786:7806  auction.ended = true */\n      0x0100\n      exp\n      dup2\n      sload\n      dup2\n      0xff\n      mul\n      not\n      and\n      swap1\n      dup4\n      iszero\n      iszero\n      mul\n      or\n      swap1\n      sstore\n      pop\n        /* \"Contract Conqueror/Erc-1155/Erc1155Comp.sol\":7856:7857  0 */\n      0x00\n        /* \"Contract Conqueror/Erc-1155/Erc1155Comp.sol\":7823:7858  auction.highestBidder != address(0) */\n      0xffffffffffffffffffffffffffffffffffffffff\n      and\n        /* \"Contract Conqueror/Erc-1155/Erc1155Comp.sol\":7823:7830  auction */\n      dup2\n        /* \"Contract Conqueror/Erc-1155/Erc1155Comp.sol\":7823:7844  auction.highestBidder */\n      0x05\n      add\n      0x00\n      swap1\n      sload\n      swap1\n      0x0100\n      exp\n      swap1\n      div\n      0xffffffffffffffffffffffffffffffffffffffff\n      and\n        /* \"Contract Conqueror/Erc-1155/Erc1155Comp.sol\":7823:7858  auction.highestBidder != address(0) */\n      0xffffffffffffffffffffffffffffffffffffffff\n      and\n      eq\n        /* \"Contract Conqueror/Erc-1155/Erc1155Comp.sol\":7819:8262  if (auction.highestBidder != address(0)) {... */\n      tag_200\n      jumpi\n        /* \"Contract Conqueror/Erc-1155/Erc1155Comp.sol\":7920:7927  auction */\n      dup1\n        /* \"Contract Conqueror/Erc-1155/Erc1155Comp.sol\":7920:7934  auction.amount */\n      0x02\n      add\n      sload\n        /* \"Contract Conqueror/Erc-1155/Erc1155Comp.sol\":7875:7884  _balances */\n      0x00\n        /* \"Contract Conqueror/Erc-1155/Erc1155Comp.sol\":7875:7901  _balances[auction.tokenId] */\n      0x00\n        /* \"Contract Conqueror/Erc-1155/Erc1155Comp.sol\":7885:7892  auction */\n      dup4\n        /* \"Contract Conqueror/Erc-1155/Erc1155Comp.sol\":7885:7900  auction.tokenId */\n      0x01\n      add\n      sload\n        /* \"Contract Conqueror/Erc-1155/Erc1155Comp.sol\":7875:7901  _balances[auction.tokenId] */\n      dup2\n      mstore\n      0x20\n      add\n      swap1\n      dup2\n      mstore\n      0x20\n      add\n      0x00\n      keccak256\n        /* \"Contract Conqueror/Erc-1155/Erc1155Comp.sol\":7875:7916  _balances[auction.tokenId][address(this)] */\n      0x00\n        /* \"Contract Conqueror/Erc-1155/Erc1155Comp.sol\":7910:7914  this */\n      address\n        /* \"Contract Conqueror/Erc-1155/Erc1155Comp.sol\":7875:7916  _balances[auction.tokenId][address(this)] */\n      0xffffffffffffffffffffffffffffffffffffffff\n      and\n      0xffffffffffffffffffffffffffffffffffffffff\n      and\n      dup2\n      mstore\n      0x20\n      add\n      swap1\n      dup2\n      mstore\n      0x20\n      add\n      0x00\n      keccak256\n      0x00\n        /* \"Contract Conqueror/Erc-1155/Erc1155Comp.sol\":7875:7934  _balances[auction.tokenId][address(this)] -= auction.amount */\n      dup3\n      dup3\n      sload\n      tag_201\n      swap2\n      swap1\n      tag_148\n      jump\t// in\n    tag_201:\n      swap3\n      pop\n      pop\n      dup2\n      swap1\n      sstore\n      pop\n        /* \"Contract Conqueror/Erc-1155/Erc1155Comp.sol\":8002:8009  auction */\n      dup1\n        /* \"Contract Conqueror/Erc-1155/Erc1155Comp.sol\":8002:8016  auction.amount */\n      0x02\n      add\n      sload\n        /* \"Contract Conqueror/Erc-1155/Erc1155Comp.sol\":7949:7958  _balances */\n      0x00\n        /* \"Contract Conqueror/Erc-1155/Erc1155Comp.sol\":7949:7975  _balances[auction.tokenId] */\n      0x00\n        /* \"Contract Conqueror/Erc-1155/Erc1155Comp.sol\":7959:7966  auction */\n      dup4\n        /* \"Contract Conqueror/Erc-1155/Erc1155Comp.sol\":7959:7974  auction.tokenId */\n      0x01\n      add\n      sload\n        /* \"Contract Conqueror/Erc-1155/Erc1155Comp.sol\":7949:7975  _balances[auction.tokenId] */\n      dup2\n      mstore\n      0x20\n      add\n      swap1\n      dup2\n      mstore\n      0x20\n      add\n      0x00\n      keccak256\n        /* \"Contract Conqueror/Erc-1155/Erc1155Comp.sol\":7949:7998  _balances[auction.tokenId][auction.highestBidder] */\n      0x00\n        /* \"Contract Conqueror/Erc-1155/Erc1155Comp.sol\":7976:7983  auction */\n      dup4\n        /* \"Contract Conqueror/Erc-1155/Erc1155Comp.sol\":7976:7997  auction.highestBidder */\n      0x05\n      add\n      0x00\n      swap1\n      sload\n      swap1\n      0x0100\n      exp\n      swap1\n      div\n      0xffffffffffffffffffffffffffffffffffffffff\n      and\n        /* \"Contract Conqueror/Erc-1155/Erc1155Comp.sol\":7949:7998  _balances[auction.tokenId][auction.highestBidder] */\n      0xffffffffffffffffffffffffffffffffffffffff\n      and\n      0xffffffffffffffffffffffffffffffffffffffff\n      and\n      dup2\n      mstore\n      0x20\n      add\n      swap1\n      dup2\n      mstore\n      0x20\n      add\n      0x00\n      keccak256\n      0x00\n        /* \"Contract Conqueror/Erc-1155/Erc1155Comp.sol\":7949:8016  _balances[auction.tokenId][auction.highestBidder] += auction.amount */\n      dup3\n      dup3\n      sload\n      tag_202\n      swap2\n      swap1\n      tag_150\n      jump\t// in\n    tag_202:\n      swap3\n      pop\n      pop\n      dup2\n      swap1\n      sstore\n      pop\n        /* \"Contract Conqueror/Erc-1155/Erc1155Comp.sol\":8039:8046  auction */\n      dup1\n        /* \"Contract Conqueror/Erc-1155/Erc1155Comp.sol\":8039:8053  auction.seller */\n      0x00\n      add\n      0x00\n      swap1\n      sload\n      swap1\n      0x0100\n      exp\n      swap1\n      div\n      0xffffffffffffffffffffffffffffffffffffffff\n      and\n        /* \"Contract Conqueror/Erc-1155/Erc1155Comp.sol\":8031:8063  payable(auction.seller).transfer */\n      0xffffffffffffffffffffffffffffffffffffffff\n      and\n        /* \"Contract Conqueror/Erc-1155/Erc1155Comp.sol\":8031:8083  payable(auction.seller).transfer(auction.highestBid) */\n      0x08fc\n        /* \"Contract Conqueror/Erc-1155/Erc1155Comp.sol\":8064:8071  auction */\n      dup3\n        /* \"Contract Conqueror/Erc-1155/Erc1155Comp.sol\":8064:8082  auction.highestBid */\n      0x04\n      add\n      sload\n        /* \"Contract Conqueror/Erc-1155/Erc1155Comp.sol\":8031:8083  payable(auction.seller).transfer(auction.highestBid) */\n      swap1\n      dup2\n      iszero\n      mul\n      swap1\n      mload(0x40)\n      0x00\n      mload(0x40)\n      dup1\n      dup4\n      sub\n      dup2\n      dup6\n      dup9\n      dup9\n      call\n      swap4\n      pop\n      pop\n      pop\n      pop\n      iszero\n      dup1\n      iszero\n      tag_204\n      jumpi\n      returndatacopy(0x00, 0x00, returndatasize)\n      revert(0x00, returndatasize)\n    tag_204:\n      pop\n        /* \"Contract Conqueror/Erc-1155/Erc1155Comp.sol\":7819:8262  if (auction.highestBidder != address(0)) {... */\n      jump(tag_205)\n    tag_200:\n        /* \"Contract Conqueror/Erc-1155/Erc1155Comp.sol\":8161:8168  auction */\n      dup1\n        /* \"Contract Conqueror/Erc-1155/Erc1155Comp.sol\":8161:8175  auction.amount */\n      0x02\n      add\n      sload\n        /* \"Contract Conqueror/Erc-1155/Erc1155Comp.sol\":8116:8125  _balances */\n      0x00\n        /* \"Contract Conqueror/Erc-1155/Erc1155Comp.sol\":8116:8142  _balances[auction.tokenId] */\n      0x00\n        /* \"Contract Conqueror/Erc-1155/Erc1155Comp.sol\":8126:8133  auction */\n      dup4\n        /* \"Contract Conqueror/Erc-1155/Erc1155Comp.sol\":8126:8141  auction.tokenId */\n      0x01\n      add\n      sload\n        /* \"Contract Conqueror/Erc-1155/Erc1155Comp.sol\":8116:8142  _balances[auction.tokenId] */\n      dup2\n      mstore\n      0x20\n      add\n      swap1\n      dup2\n      mstore\n      0x20\n      add\n      0x00\n      keccak256\n        /* \"Contract Conqueror/Erc-1155/Erc1155Comp.sol\":8116:8157  _balances[auction.tokenId][address(this)] */\n      0x00\n        /* \"Contract Conqueror/Erc-1155/Erc1155Comp.sol\":8151:8155  this */\n      address\n        /* \"Contract Conqueror/Erc-1155/Erc1155Comp.sol\":8116:8157  _balances[auction.tokenId][address(this)] */\n      0xffffffffffffffffffffffffffffffffffffffff\n      and\n      0xffffffffffffffffffffffffffffffffffffffff\n      and\n      dup2\n      mstore\n      0x20\n      add\n      swap1\n      dup2\n      mstore\n      0x20\n      add\n      0x00\n      keccak256\n      0x00\n        /* \"Contract Conqueror/Erc-1155/Erc1155Comp.sol\":8116:8175  _balances[auction.tokenId][address(this)] -= auction.amount */\n      dup3\n      dup3\n      sload\n      tag_206\n      swap2\n      swap1\n      tag_148\n      jump\t// in\n    tag_206:\n      swap3\n      pop\n      pop\n      dup2\n      swap1\n      sstore\n      pop\n        /* \"Contract Conqueror/Erc-1155/Erc1155Comp.sol\":8236:8243  auction */\n      dup1\n        /* \"Contract Conqueror/Erc-1155/Erc1155Comp.sol\":8236:8250  auction.amount */\n      0x02\n      add\n      sload\n        /* \"Contract Conqueror/Erc-1155/Erc1155Comp.sol\":8190:8199  _balances */\n      0x00\n        /* \"Contract Conqueror/Erc-1155/Erc1155Comp.sol\":8190:8216  _balances[auction.tokenId] */\n      0x00\n        /* \"Contract Conqueror/Erc-1155/Erc1155Comp.sol\":8200:8207  auction */\n      dup4\n        /* \"Contract Conqueror/Erc-1155/Erc1155Comp.sol\":8200:8215  auction.tokenId */\n      0x01\n      add\n      sload\n        /* \"Contract Conqueror/Erc-1155/Erc1155Comp.sol\":8190:8216  _balances[auction.tokenId] */\n      dup2\n      mstore\n      0x20\n      add\n      swap1\n      dup2\n      mstore\n      0x20\n      add\n      0x00\n      keccak256\n        /* \"Contract Conqueror/Erc-1155/Erc1155Comp.sol\":8190:8232  _balances[auction.tokenId][auction.seller] */\n      0x00\n        /* \"Contract Conqueror/Erc-1155/Erc1155Comp.sol\":8217:8224  auction */\n      dup4\n        /* \"Contract Conqueror/Erc-1155/Erc1155Comp.sol\":8217:8231  auction.seller */\n      0x00\n      add\n      0x00\n      swap1\n      sload\n      swap1\n      0x0100\n      exp\n      swap1\n      div\n      0xffffffffffffffffffffffffffffffffffffffff\n      and\n        /* \"Contract Conqueror/Erc-1155/Erc1155Comp.sol\":8190:8232  _balances[auction.tokenId][auction.seller] */\n      0xffffffffffffffffffffffffffffffffffffffff\n      and\n      0xffffffffffffffffffffffffffffffffffffffff\n      and\n      dup2\n      mstore\n      0x20\n      add\n      swap1\n      dup2\n      mstore\n      0x20\n      add\n      0x00\n      keccak256\n      0x00\n        /* \"Contract Conqueror/Erc-1155/Erc1155Comp.sol\":8190:8250  _balances[auction.tokenId][auction.seller] += auction.amount */\n      dup3\n      dup3\n      sload\n      tag_207\n      swap2\n      swap1\n      tag_150\n      jump\t// in\n    tag_207:\n      swap3\n      pop\n      pop\n      dup2\n      swap1\n      sstore\n      pop\n        /* \"Contract Conqueror/Erc-1155/Erc1155Comp.sol\":7819:8262  if (auction.highestBidder != address(0)) {... */\n    tag_205:\n        /* \"Contract Conqueror/Erc-1155/Erc1155Comp.sol\":8292:8301  auctionId */\n      dup4\n        /* \"Contract Conqueror/Erc-1155/Erc1155Comp.sol\":8279:8345  AuctionEnded(auctionId, auction.highestBidder, auction.highestBid) */\n      0xd2aa34a4fdbbc6dff6a3e56f46e0f3ae2a31d7785ff3487aa5c95c642acea501\n        /* \"Contract Conqueror/Erc-1155/Erc1155Comp.sol\":8303:8310  auction */\n      dup3\n        /* \"Contract Conqueror/Erc-1155/Erc1155Comp.sol\":8303:8324  auction.highestBidder */\n      0x05\n      add\n      0x00\n      swap1\n      sload\n      swap1\n      0x0100\n      exp\n      swap1\n      div\n      0xffffffffffffffffffffffffffffffffffffffff\n      and\n        /* \"Contract Conqueror/Erc-1155/Erc1155Comp.sol\":8326:8333  auction */\n      dup4\n        /* \"Contract Conqueror/Erc-1155/Erc1155Comp.sol\":8326:8344  auction.highestBid */\n      0x04\n      add\n      sload\n        /* \"Contract Conqueror/Erc-1155/Erc1155Comp.sol\":8279:8345  AuctionEnded(auctionId, auction.highestBidder, auction.highestBid) */\n      mload(0x40)\n      tag_208\n      swap3\n      swap2\n      swap1\n      tag_58\n      jump\t// in\n    tag_208:\n      mload(0x40)\n      dup1\n      swap2\n      sub\n      swap1\n      log2\n        /* \"Contract Conqueror/Erc-1155/Erc1155Comp.sol\":7719:8353  {... */\n      pop\n        /* \"Contract Conqueror/Erc-1155/Erc1155Comp.sol\":2459:2460  _ */\n      pop\n        /* \"Contract Conqueror/Erc-1155/Erc1155Comp.sol\":7627:8353  function endAuction(uint256 auctionId) external onlyAfterEnd(auctionId) notEnded(auctionId) {... */\n      pop\n      pop\n      jump\t// out\n        /* \"Contract Conqueror/Erc-1155/Erc1155Comp.sol\":6023:6812  function createAuction(uint256 tokenId, uint256 amount, uint256 duration) external returns (uint256) {... */\n    tag_98:\n        /* \"Contract Conqueror/Erc-1155/Erc1155Comp.sol\":6115:6122  uint256 */\n      0x00\n        /* \"Contract Conqueror/Erc-1155/Erc1155Comp.sol\":6177:6183  amount */\n      dup3\n        /* \"Contract Conqueror/Erc-1155/Erc1155Comp.sol\":6143:6152  _balances */\n      0x00\n        /* \"Contract Conqueror/Erc-1155/Erc1155Comp.sol\":6143:6161  _balances[tokenId] */\n      0x00\n        /* \"Contract Conqueror/Erc-1155/Erc1155Comp.sol\":6153:6160  tokenId */\n      dup7\n        /* \"Contract Conqueror/Erc-1155/Erc1155Comp.sol\":6143:6161  _balances[tokenId] */\n      dup2\n      mstore\n      0x20\n      add\n      swap1\n      dup2\n      mstore\n      0x20\n      add\n      0x00\n      keccak256\n        /* \"Contract Conqueror/Erc-1155/Erc1155Comp.sol\":6143:6173  _balances[tokenId][msg.sender] */\n      0x00\n        /* \"Contract Conqueror/Erc-1155/Erc1155Comp.sol\":6162:6172  msg.sender */\n      caller\n        /* \"Contract Conqueror/Erc-1155/Erc1155Comp.sol\":6143:6173  _balances[tokenId][msg.sender] */\n      0xffffffffffffffffffffffffffffffffffffffff\n      and\n      0xffffffffffffffffffffffffffffffffffffffff\n      and\n      dup2\n      mstore\n      0x20\n      add\n      swap1\n      dup2\n      mstore\n      0x20\n      add\n      0x00\n      keccak256\n      sload\n        /* \"Contract Conqueror/Erc-1155/Erc1155Comp.sol\":6143:6183  _balances[tokenId][msg.sender] >= amount */\n      lt\n      iszero\n        /* \"Contract Conqueror/Erc-1155/Erc1155Comp.sol\":6135:6197  require(_balances[tokenId][msg.sender] >= amount, \"Not owner\") */\n      tag_210\n      jumpi\n      mload(0x40)\n      0x08c379a000000000000000000000000000000000000000000000000000000000\n      dup2\n      mstore\n      0x04\n      add\n      tag_211\n      swap1\n      tag_212\n      jump\t// in\n    tag_211:\n      mload(0x40)\n      dup1\n      swap2\n      sub\n      swap1\n      revert\n    tag_210:\n        /* \"Contract Conqueror/Erc-1155/Erc1155Comp.sol\":6228:6237  1 minutes */\n      0x3c\n        /* \"Contract Conqueror/Erc-1155/Erc1155Comp.sol\":6216:6224  duration */\n      dup3\n        /* \"Contract Conqueror/Erc-1155/Erc1155Comp.sol\":6216:6237  duration >= 1 minutes */\n      lt\n      iszero\n        /* \"Contract Conqueror/Erc-1155/Erc1155Comp.sol\":6208:6251  require(duration >= 1 minutes, \"Too short\") */\n      tag_213\n      jumpi\n      mload(0x40)\n      0x08c379a000000000000000000000000000000000000000000000000000000000\n      dup2\n      mstore\n      0x04\n      add\n      tag_214\n      swap1\n      tag_215\n      jump\t// in\n    tag_214:\n      mload(0x40)\n      dup1\n      swap2\n      sub\n      swap1\n      revert\n    tag_213:\n        /* \"Contract Conqueror/Erc-1155/Erc1155Comp.sol\":6298:6304  amount */\n      dup3\n        /* \"Contract Conqueror/Erc-1155/Erc1155Comp.sol\":6264:6273  _balances */\n      0x00\n        /* \"Contract Conqueror/Erc-1155/Erc1155Comp.sol\":6264:6282  _balances[tokenId] */\n      0x00\n        /* \"Contract Conqueror/Erc-1155/Erc1155Comp.sol\":6274:6281  tokenId */\n      dup7\n        /* \"Contract Conqueror/Erc-1155/Erc1155Comp.sol\":6264:6282  _balances[tokenId] */\n      dup2\n      mstore\n      0x20\n      add\n      swap1\n      dup2\n      mstore\n      0x20\n      add\n      0x00\n      keccak256\n        /* \"Contract Conqueror/Erc-1155/Erc1155Comp.sol\":6264:6294  _balances[tokenId][msg.sender] */\n      0x00\n        /* \"Contract Conqueror/Erc-1155/Erc1155Comp.sol\":6283:6293  msg.sender */\n      caller\n        /* \"Contract Conqueror/Erc-1155/Erc1155Comp.sol\":6264:6294  _balances[tokenId][msg.sender] */\n      0xffffffffffffffffffffffffffffffffffffffff\n      and\n      0xffffffffffffffffffffffffffffffffffffffff\n      and\n      dup2\n      mstore\n      0x20\n      add\n      swap1\n      dup2\n      mstore\n      0x20\n      add\n      0x00\n      keccak256\n      0x00\n        /* \"Contract Conqueror/Erc-1155/Erc1155Comp.sol\":6264:6304  _balances[tokenId][msg.sender] -= amount */\n      dup3\n      dup3\n      sload\n      tag_216\n      swap2\n      swap1\n      tag_148\n      jump\t// in\n    tag_216:\n      swap3\n      pop\n      pop\n      dup2\n      swap1\n      sstore\n      pop\n        /* \"Contract Conqueror/Erc-1155/Erc1155Comp.sol\":6352:6358  amount */\n      dup3\n        /* \"Contract Conqueror/Erc-1155/Erc1155Comp.sol\":6315:6324  _balances */\n      0x00\n        /* \"Contract Conqueror/Erc-1155/Erc1155Comp.sol\":6315:6333  _balances[tokenId] */\n      0x00\n        /* \"Contract Conqueror/Erc-1155/Erc1155Comp.sol\":6325:6332  tokenId */\n      dup7\n        /* \"Contract Conqueror/Erc-1155/Erc1155Comp.sol\":6315:6333  _balances[tokenId] */\n      dup2\n      mstore\n      0x20\n      add\n      swap1\n      dup2\n      mstore\n      0x20\n      add\n      0x00\n      keccak256\n        /* \"Contract Conqueror/Erc-1155/Erc1155Comp.sol\":6315:6348  _balances[tokenId][address(this)] */\n      0x00\n        /* \"Contract Conqueror/Erc-1155/Erc1155Comp.sol\":6342:6346  this */\n      address\n        /* \"Contract Conqueror/Erc-1155/Erc1155Comp.sol\":6315:6348  _balances[tokenId][address(this)] */\n      0xffffffffffffffffffffffffffffffffffffffff\n      and\n      0xffffffffffffffffffffffffffffffffffffffff\n      and\n      dup2\n      mstore\n      0x20\n      add\n      swap1\n      dup2\n      mstore\n      0x20\n      add\n      0x00\n      keccak256\n      0x00\n        /* \"Contract Conqueror/Erc-1155/Erc1155Comp.sol\":6315:6358  _balances[tokenId][address(this)] += amount */\n      dup3\n      dup3\n      sload\n      tag_217\n      swap2\n      swap1\n      tag_150\n      jump\t// in\n    tag_217:\n      swap3\n      pop\n      pop\n      dup2\n      swap1\n      sstore\n      pop\n        /* \"Contract Conqueror/Erc-1155/Erc1155Comp.sol\":6371:6383  auctionCount */\n      0x04\n      0x00\n        /* \"Contract Conqueror/Erc-1155/Erc1155Comp.sol\":6371:6385  auctionCount++ */\n      dup2\n      sload\n      dup1\n      swap3\n      swap2\n      swap1\n      tag_218\n      swap1\n      tag_219\n      jump\t// in\n    tag_218:\n      swap2\n      swap1\n      pop\n      sstore\n      pop\n        /* \"Contract Conqueror/Erc-1155/Erc1155Comp.sol\":6421:6679  Auction({... */\n      mload(0x40)\n      dup1\n      0xe0\n      add\n      0x40\n      mstore\n      dup1\n        /* \"Contract Conqueror/Erc-1155/Erc1155Comp.sol\":6452:6462  msg.sender */\n      caller\n        /* \"Contract Conqueror/Erc-1155/Erc1155Comp.sol\":6421:6679  Auction({... */\n      0xffffffffffffffffffffffffffffffffffffffff\n      and\n      dup2\n      mstore\n      0x20\n      add\n        /* \"Contract Conqueror/Erc-1155/Erc1155Comp.sol\":6486:6493  tokenId */\n      dup6\n        /* \"Contract Conqueror/Erc-1155/Erc1155Comp.sol\":6421:6679  Auction({... */\n      dup2\n      mstore\n      0x20\n      add\n        /* \"Contract Conqueror/Erc-1155/Erc1155Comp.sol\":6516:6522  amount */\n      dup5\n        /* \"Contract Conqueror/Erc-1155/Erc1155Comp.sol\":6421:6679  Auction({... */\n      dup2\n      mstore\n      0x20\n      add\n        /* \"Contract Conqueror/Erc-1155/Erc1155Comp.sol\":6564:6572  duration */\n      dup4\n        /* \"Contract Conqueror/Erc-1155/Erc1155Comp.sol\":6546:6561  block.timestamp */\n      timestamp\n        /* \"Contract Conqueror/Erc-1155/Erc1155Comp.sol\":6546:6572  block.timestamp + duration */\n      tag_220\n      swap2\n      swap1\n      tag_150\n      jump\t// in\n    tag_220:\n        /* \"Contract Conqueror/Erc-1155/Erc1155Comp.sol\":6421:6679  Auction({... */\n      dup2\n      mstore\n      0x20\n      add\n        /* \"Contract Conqueror/Erc-1155/Erc1155Comp.sol\":6599:6600  0 */\n      0x00\n        /* \"Contract Conqueror/Erc-1155/Erc1155Comp.sol\":6421:6679  Auction({... */\n      dup2\n      mstore\n      0x20\n      add\n        /* \"Contract Conqueror/Erc-1155/Erc1155Comp.sol\":6638:6639  0 */\n      0x00\n        /* \"Contract Conqueror/Erc-1155/Erc1155Comp.sol\":6421:6679  Auction({... */\n      0xffffffffffffffffffffffffffffffffffffffff\n      and\n      dup2\n      mstore\n      0x20\n      add\n        /* \"Contract Conqueror/Erc-1155/Erc1155Comp.sol\":6662:6667  false */\n      0x00\n        /* \"Contract Conqueror/Erc-1155/Erc1155Comp.sol\":6421:6679  Auction({... */\n      iszero\n      iszero\n      dup2\n      mstore\n      pop\n        /* \"Contract Conqueror/Erc-1155/Erc1155Comp.sol\":6396:6404  auctions */\n      0x05\n        /* \"Contract Conqueror/Erc-1155/Erc1155Comp.sol\":6396:6418  auctions[auctionCount] */\n      0x00\n        /* \"Contract Conqueror/Erc-1155/Erc1155Comp.sol\":6405:6417  auctionCount */\n      sload(0x04)\n        /* \"Contract Conqueror/Erc-1155/Erc1155Comp.sol\":6396:6418  auctions[auctionCount] */\n      dup2\n      mstore\n      0x20\n      add\n      swap1\n      dup2\n      mstore\n      0x20\n      add\n      0x00\n      keccak256\n        /* \"Contract Conqueror/Erc-1155/Erc1155Comp.sol\":6396:6679  auctions[auctionCount] = Auction({... */\n      0x00\n      dup3\n      add\n      mload\n      dup2\n      0x00\n      add\n      exp(0x0100, 0x00)\n      dup2\n      sload\n      dup2\n      0xffffffffffffffffffffffffffffffffffffffff\n      mul\n      not\n      and\n      swap1\n      dup4\n      0xffffffffffffffffffffffffffffffffffffffff\n      and\n      mul\n      or\n      swap1\n      sstore\n      pop\n      0x20\n      dup3\n      add\n      mload\n      dup2\n      0x01\n      add\n      sstore\n      0x40\n      dup3\n      add\n      mload\n      dup2\n      0x02\n      add\n      sstore\n      0x60\n      dup3\n      add\n      mload\n      dup2\n      0x03\n      add\n      sstore\n      0x80\n      dup3\n      add\n      mload\n      dup2\n      0x04\n      add\n      sstore\n      0xa0\n      dup3\n      add\n      mload\n      dup2\n      0x05\n      add\n      exp(0x0100, 0x00)\n      dup2\n      sload\n      dup2\n      0xffffffffffffffffffffffffffffffffffffffff\n      mul\n      not\n      and\n      swap1\n      dup4\n      0xffffffffffffffffffffffffffffffffffffffff\n      and\n      mul\n      or\n      swap1\n      sstore\n      pop\n      0xc0\n      dup3\n      add\n      mload\n      dup2\n      0x05\n      add\n      exp(0x0100, 0x14)\n      dup2\n      sload\n      dup2\n      0xff\n      mul\n      not\n      and\n      swap1\n      dup4\n      iszero\n      iszero\n      mul\n      or\n      swap1\n      sstore\n      pop\n      swap1\n      pop\n      pop\n        /* \"Contract Conqueror/Erc-1155/Erc1155Comp.sol\":6726:6736  msg.sender */\n      caller\n        /* \"Contract Conqueror/Erc-1155/Erc1155Comp.sol\":6697:6774  AuctionCreated(auctionCount, msg.sender, tokenId, block.timestamp + duration) */\n      0xffffffffffffffffffffffffffffffffffffffff\n      and\n        /* \"Contract Conqueror/Erc-1155/Erc1155Comp.sol\":6712:6724  auctionCount */\n      sload(0x04)\n        /* \"Contract Conqueror/Erc-1155/Erc1155Comp.sol\":6697:6774  AuctionCreated(auctionCount, msg.sender, tokenId, block.timestamp + duration) */\n      0xc9050d42180a61cb0d9ebb8ad118b62fe6eab12cf12ff752c4a0cc7da9ddf627\n        /* \"Contract Conqueror/Erc-1155/Erc1155Comp.sol\":6738:6745  tokenId */\n      dup7\n        /* \"Contract Conqueror/Erc-1155/Erc1155Comp.sol\":6765:6773  duration */\n      dup6\n        /* \"Contract Conqueror/Erc-1155/Erc1155Comp.sol\":6747:6762  block.timestamp */\n      timestamp\n        /* \"Contract Conqueror/Erc-1155/Erc1155Comp.sol\":6747:6773  block.timestamp + duration */\n      tag_221\n      swap2\n      swap1\n      tag_150\n      jump\t// in\n    tag_221:\n        /* \"Contract Conqueror/Erc-1155/Erc1155Comp.sol\":6697:6774  AuctionCreated(auctionCount, msg.sender, tokenId, block.timestamp + duration) */\n      mload(0x40)\n      tag_222\n      swap3\n      swap2\n      swap1\n      tag_152\n      jump\t// in\n    tag_222:\n      mload(0x40)\n      dup1\n      swap2\n      sub\n      swap1\n      log3\n        /* \"Contract Conqueror/Erc-1155/Erc1155Comp.sol\":6792:6804  auctionCount */\n      sload(0x04)\n        /* \"Contract Conqueror/Erc-1155/Erc1155Comp.sol\":6785:6804  return auctionCount */\n      swap1\n      pop\n        /* \"Contract Conqueror/Erc-1155/Erc1155Comp.sol\":6023:6812  function createAuction(uint256 tokenId, uint256 amount, uint256 duration) external returns (uint256) {... */\n      swap4\n      swap3\n      pop\n      pop\n      pop\n      jump\t// out\n        /* \"Contract Conqueror/Erc-1155/Erc1155Comp.sol\":3502:3655  function isApprovedForAll(address account, address operator) external view returns (bool) {... */\n    tag_104:\n        /* \"Contract Conqueror/Erc-1155/Erc1155Comp.sol\":3586:3590  bool */\n      0x00\n        /* \"Contract Conqueror/Erc-1155/Erc1155Comp.sol\":3610:3628  _operatorApprovals */\n      0x01\n        /* \"Contract Conqueror/Erc-1155/Erc1155Comp.sol\":3610:3637  _operatorApprovals[account] */\n      0x00\n        /* \"Contract Conqueror/Erc-1155/Erc1155Comp.sol\":3629:3636  account */\n      dup5\n        /* \"Contract Conqueror/Erc-1155/Erc1155Comp.sol\":3610:3637  _operatorApprovals[account] */\n      0xffffffffffffffffffffffffffffffffffffffff\n      and\n      0xffffffffffffffffffffffffffffffffffffffff\n      and\n      dup2\n      mstore\n      0x20\n      add\n      swap1\n      dup2\n      mstore\n      0x20\n      add\n      0x00\n      keccak256\n        /* \"Contract Conqueror/Erc-1155/Erc1155Comp.sol\":3610:3647  _operatorApprovals[account][operator] */\n      0x00\n        /* \"Contract Conqueror/Erc-1155/Erc1155Comp.sol\":3638:3646  operator */\n      dup4\n        /* \"Contract Conqueror/Erc-1155/Erc1155Comp.sol\":3610:3647  _operatorApprovals[account][operator] */\n      0xffffffffffffffffffffffffffffffffffffffff\n      and\n      0xffffffffffffffffffffffffffffffffffffffff\n      and\n      dup2\n      mstore\n      0x20\n      add\n      swap1\n      dup2\n      mstore\n      0x20\n      add\n      0x00\n      keccak256\n      0x00\n      swap1\n      sload\n      swap1\n      0x0100\n      exp\n      swap1\n      div\n      0xff\n      and\n        /* \"Contract Conqueror/Erc-1155/Erc1155Comp.sol\":3603:3647  return _operatorApprovals[account][operator] */\n      swap1\n      pop\n        /* \"Contract Conqueror/Erc-1155/Erc1155Comp.sol\":3502:3655  function isApprovedForAll(address account, address operator) external view returns (bool) {... */\n      swap3\n      swap2\n      pop\n      pop\n      jump\t// out\n        /* \"Contract Conqueror/Erc-1155/Erc1155Comp.sol\":4058:4643  function safeBatchTransferFrom(address from, address to, uint256[] calldata ids, uint256[] calldata amounts) external onlyApproved(from) {... */\n    tag_110:\n        /* \"Contract Conqueror/Erc-1155/Erc1155Comp.sol\":4189:4193  from */\n      dup6\n        /* \"Contract Conqueror/Erc-1155/Erc1155Comp.sol\":2071:2081  msg.sender */\n      caller\n        /* \"Contract Conqueror/Erc-1155/Erc1155Comp.sol\":2063:2081  from == msg.sender */\n      0xffffffffffffffffffffffffffffffffffffffff\n      and\n        /* \"Contract Conqueror/Erc-1155/Erc1155Comp.sol\":2063:2067  from */\n      dup2\n        /* \"Contract Conqueror/Erc-1155/Erc1155Comp.sol\":2063:2081  from == msg.sender */\n      0xffffffffffffffffffffffffffffffffffffffff\n      and\n      eq\n        /* \"Contract Conqueror/Erc-1155/Erc1155Comp.sol\":2063:2121  from == msg.sender || _operatorApprovals[from][msg.sender] */\n      dup1\n      tag_225\n      jumpi\n      pop\n        /* \"Contract Conqueror/Erc-1155/Erc1155Comp.sol\":2085:2103  _operatorApprovals */\n      0x01\n        /* \"Contract Conqueror/Erc-1155/Erc1155Comp.sol\":2085:2109  _operatorApprovals[from] */\n      0x00\n        /* \"Contract Conqueror/Erc-1155/Erc1155Comp.sol\":2104:2108  from */\n      dup3\n        /* \"Contract Conqueror/Erc-1155/Erc1155Comp.sol\":2085:2109  _operatorApprovals[from] */\n      0xffffffffffffffffffffffffffffffffffffffff\n      and\n      0xffffffffffffffffffffffffffffffffffffffff\n      and\n      dup2\n      mstore\n      0x20\n      add\n      swap1\n      dup2\n      mstore\n      0x20\n      add\n      0x00\n      keccak256\n        /* \"Contract Conqueror/Erc-1155/Erc1155Comp.sol\":2085:2121  _operatorApprovals[from][msg.sender] */\n      0x00\n        /* \"Contract Conqueror/Erc-1155/Erc1155Comp.sol\":2110:2120  msg.sender */\n      caller\n        /* \"Contract Conqueror/Erc-1155/Erc1155Comp.sol\":2085:2121  _operatorApprovals[from][msg.sender] */\n      0xffffffffffffffffffffffffffffffffffffffff\n      and\n      0xffffffffffffffffffffffffffffffffffffffff\n      and\n      dup2\n      mstore\n      0x20\n      add\n      swap1\n      dup2\n      mstore\n      0x20\n      add\n      0x00\n      keccak256\n      0x00\n      swap1\n      sload\n      swap1\n      0x0100\n      exp\n      swap1\n      div\n      0xff\n      and\n        /* \"Contract Conqueror/Erc-1155/Erc1155Comp.sol\":2063:2121  from == msg.sender || _operatorApprovals[from][msg.sender] */\n    tag_225:\n        /* \"Contract Conqueror/Erc-1155/Erc1155Comp.sol\":2055:2140  require(from == msg.sender || _operatorApprovals[from][msg.sender], \"Not authorized\") */\n      tag_226\n      jumpi\n      mload(0x40)\n      0x08c379a000000000000000000000000000000000000000000000000000000000\n      dup2\n      mstore\n      0x04\n      add\n      tag_227\n      swap1\n      tag_140\n      jump\t// in\n    tag_227:\n      mload(0x40)\n      dup1\n      swap2\n      sub\n      swap1\n      revert\n    tag_226:\n        /* \"Contract Conqueror/Erc-1155/Erc1155Comp.sol\":4228:4229  0 */\n      0x00\n        /* \"Contract Conqueror/Erc-1155/Erc1155Comp.sol\":4214:4230  to != address(0) */\n      0xffffffffffffffffffffffffffffffffffffffff\n      and\n        /* \"Contract Conqueror/Erc-1155/Erc1155Comp.sol\":4214:4216  to */\n      dup7\n        /* \"Contract Conqueror/Erc-1155/Erc1155Comp.sol\":4214:4230  to != address(0) */\n      0xffffffffffffffffffffffffffffffffffffffff\n      and\n      sub\n        /* \"Contract Conqueror/Erc-1155/Erc1155Comp.sol\":4206:4247  require(to != address(0), \"Zero address\") */\n      tag_229\n      jumpi\n      mload(0x40)\n      0x08c379a000000000000000000000000000000000000000000000000000000000\n      dup2\n      mstore\n      0x04\n      add\n      tag_230\n      swap1\n      tag_119\n      jump\t// in\n    tag_230:\n      mload(0x40)\n      dup1\n      swap2\n      sub\n      swap1\n      revert\n    tag_229:\n        /* \"Contract Conqueror/Erc-1155/Erc1155Comp.sol\":4280:4287  amounts */\n      dup3\n      dup3\n        /* \"Contract Conqueror/Erc-1155/Erc1155Comp.sol\":4280:4294  amounts.length */\n      swap1\n      pop\n        /* \"Contract Conqueror/Erc-1155/Erc1155Comp.sol\":4266:4269  ids */\n      dup6\n      dup6\n        /* \"Contract Conqueror/Erc-1155/Erc1155Comp.sol\":4266:4276  ids.length */\n      swap1\n      pop\n        /* \"Contract Conqueror/Erc-1155/Erc1155Comp.sol\":4266:4294  ids.length == amounts.length */\n      eq\n        /* \"Contract Conqueror/Erc-1155/Erc1155Comp.sol\":4258:4316  require(ids.length == amounts.length, \"Mismatched arrays\") */\n      tag_231\n      jumpi\n      mload(0x40)\n      0x08c379a000000000000000000000000000000000000000000000000000000000\n      dup2\n      mstore\n      0x04\n      add\n      tag_232\n      swap1\n      tag_172\n      jump\t// in\n    tag_232:\n      mload(0x40)\n      dup1\n      swap2\n      sub\n      swap1\n      revert\n    tag_231:\n        /* \"Contract Conqueror/Erc-1155/Erc1155Comp.sol\":4334:4343  uint256 i */\n      0x00\n        /* \"Contract Conqueror/Erc-1155/Erc1155Comp.sol\":4346:4347  0 */\n      0x00\n        /* \"Contract Conqueror/Erc-1155/Erc1155Comp.sol\":4334:4347  uint256 i = 0 */\n      swap1\n      pop\n        /* \"Contract Conqueror/Erc-1155/Erc1155Comp.sol\":4329:4569  for (uint256 i = 0; i < ids.length; i++) {... */\n    tag_233:\n        /* \"Contract Conqueror/Erc-1155/Erc1155Comp.sol\":4353:4356  ids */\n      dup6\n      dup6\n        /* \"Contract Conqueror/Erc-1155/Erc1155Comp.sol\":4353:4363  ids.length */\n      swap1\n      pop\n        /* \"Contract Conqueror/Erc-1155/Erc1155Comp.sol\":4349:4350  i */\n      dup2\n        /* \"Contract Conqueror/Erc-1155/Erc1155Comp.sol\":4349:4363  i < ids.length */\n      lt\n        /* \"Contract Conqueror/Erc-1155/Erc1155Comp.sol\":4329:4569  for (uint256 i = 0; i < ids.length; i++) {... */\n      iszero\n      tag_234\n      jumpi\n        /* \"Contract Conqueror/Erc-1155/Erc1155Comp.sol\":4420:4427  amounts */\n      dup4\n      dup4\n        /* \"Contract Conqueror/Erc-1155/Erc1155Comp.sol\":4428:4429  i */\n      dup3\n        /* \"Contract Conqueror/Erc-1155/Erc1155Comp.sol\":4420:4430  amounts[i] */\n      dup2\n      dup2\n      lt\n      tag_236\n      jumpi\n      tag_237\n      tag_182\n      jump\t// in\n    tag_237:\n    tag_236:\n      swap1\n      pop\n      0x20\n      mul\n      add\n      calldataload\n        /* \"Contract Conqueror/Erc-1155/Erc1155Comp.sol\":4393:4402  _balances */\n      0x00\n        /* \"Contract Conqueror/Erc-1155/Erc1155Comp.sol\":4393:4410  _balances[ids[i]] */\n      0x00\n        /* \"Contract Conqueror/Erc-1155/Erc1155Comp.sol\":4403:4406  ids */\n      dup9\n      dup9\n        /* \"Contract Conqueror/Erc-1155/Erc1155Comp.sol\":4407:4408  i */\n      dup6\n        /* \"Contract Conqueror/Erc-1155/Erc1155Comp.sol\":4403:4409  ids[i] */\n      dup2\n      dup2\n      lt\n      tag_238\n      jumpi\n      tag_239\n      tag_182\n      jump\t// in\n    tag_239:\n    tag_238:\n      swap1\n      pop\n      0x20\n      mul\n      add\n      calldataload\n        /* \"Contract Conqueror/Erc-1155/Erc1155Comp.sol\":4393:4410  _balances[ids[i]] */\n      dup2\n      mstore\n      0x20\n      add\n      swap1\n      dup2\n      mstore\n      0x20\n      add\n      0x00\n      keccak256\n        /* \"Contract Conqueror/Erc-1155/Erc1155Comp.sol\":4393:4416  _balances[ids[i]][from] */\n      0x00\n        /* \"Contract Conqueror/Erc-1155/Erc1155Comp.sol\":4411:4415  from */\n      dup11\n        /* \"Contract Conqueror/Erc-1155/Erc1155Comp.sol\":4393:4416  _balances[ids[i]][from] */\n      0xffffffffffffffffffffffffffffffffffffffff\n      and\n      0xffffffffffffffffffffffffffffffffffffffff\n      and\n      dup2\n      mstore\n      0x20\n      add\n      swap1\n      dup2\n      mstore\n      0x20\n      add\n      0x00\n      keccak256\n      sload\n        /* \"Contract Conqueror/Erc-1155/Erc1155Comp.sol\":4393:4430  _balances[ids[i]][from] >= amounts[i] */\n      lt\n      iszero\n        /* \"Contract Conqueror/Erc-1155/Erc1155Comp.sol\":4385:4455  require(_balances[ids[i]][from] >= amounts[i], \"Insufficient balance\") */\n      tag_240\n      jumpi\n      mload(0x40)\n      0x08c379a000000000000000000000000000000000000000000000000000000000\n      dup2\n      mstore\n      0x04\n      add\n      tag_241\n      swap1\n      tag_146\n      jump\t// in\n    tag_241:\n      mload(0x40)\n      dup1\n      swap2\n      sub\n      swap1\n      revert\n    tag_240:\n        /* \"Contract Conqueror/Erc-1155/Erc1155Comp.sol\":4497:4504  amounts */\n      dup4\n      dup4\n        /* \"Contract Conqueror/Erc-1155/Erc1155Comp.sol\":4505:4506  i */\n      dup3\n        /* \"Contract Conqueror/Erc-1155/Erc1155Comp.sol\":4497:4507  amounts[i] */\n      dup2\n      dup2\n      lt\n      tag_242\n      jumpi\n      tag_243\n      tag_182\n      jump\t// in\n    tag_243:\n    tag_242:\n      swap1\n      pop\n      0x20\n      mul\n      add\n      calldataload\n        /* \"Contract Conqueror/Erc-1155/Erc1155Comp.sol\":4470:4479  _balances */\n      0x00\n        /* \"Contract Conqueror/Erc-1155/Erc1155Comp.sol\":4470:4487  _balances[ids[i]] */\n      0x00\n        /* \"Contract Conqueror/Erc-1155/Erc1155Comp.sol\":4480:4483  ids */\n      dup9\n      dup9\n        /* \"Contract Conqueror/Erc-1155/Erc1155Comp.sol\":4484:4485  i */\n      dup6\n        /* \"Contract Conqueror/Erc-1155/Erc1155Comp.sol\":4480:4486  ids[i] */\n      dup2\n      dup2\n      lt\n      tag_244\n      jumpi\n      tag_245\n      tag_182\n      jump\t// in\n    tag_245:\n    tag_244:\n      swap1\n      pop\n      0x20\n      mul\n      add\n      calldataload\n        /* \"Contract Conqueror/Erc-1155/Erc1155Comp.sol\":4470:4487  _balances[ids[i]] */\n      dup2\n      mstore\n      0x20\n      add\n      swap1\n      dup2\n      mstore\n      0x20\n      add\n      0x00\n      keccak256\n        /* \"Contract Conqueror/Erc-1155/Erc1155Comp.sol\":4470:4493  _balances[ids[i]][from] */\n      0x00\n        /* \"Contract Conqueror/Erc-1155/Erc1155Comp.sol\":4488:4492  from */\n      dup11\n        /* \"Contract Conqueror/Erc-1155/Erc1155Comp.sol\":4470:4493  _balances[ids[i]][from] */\n      0xffffffffffffffffffffffffffffffffffffffff\n      and\n      0xffffffffffffffffffffffffffffffffffffffff\n      and\n      dup2\n      mstore\n      0x20\n      add\n      swap1\n      dup2\n      mstore\n      0x20\n      add\n      0x00\n      keccak256\n      0x00\n        /* \"Contract Conqueror/Erc-1155/Erc1155Comp.sol\":4470:4507  _balances[ids[i]][from] -= amounts[i] */\n      dup3\n      dup3\n      sload\n      tag_246\n      swap2\n      swap1\n      tag_148\n      jump\t// in\n    tag_246:\n      swap3\n      pop\n      pop\n      dup2\n      swap1\n      sstore\n      pop\n        /* \"Contract Conqueror/Erc-1155/Erc1155Comp.sol\":4547:4554  amounts */\n      dup4\n      dup4\n        /* \"Contract Conqueror/Erc-1155/Erc1155Comp.sol\":4555:4556  i */\n      dup3\n        /* \"Contract Conqueror/Erc-1155/Erc1155Comp.sol\":4547:4557  amounts[i] */\n      dup2\n      dup2\n      lt\n      tag_247\n      jumpi\n      tag_248\n      tag_182\n      jump\t// in\n    tag_248:\n    tag_247:\n      swap1\n      pop\n      0x20\n      mul\n      add\n      calldataload\n        /* \"Contract Conqueror/Erc-1155/Erc1155Comp.sol\":4522:4531  _balances */\n      0x00\n        /* \"Contract Conqueror/Erc-1155/Erc1155Comp.sol\":4522:4539  _balances[ids[i]] */\n      0x00\n        /* \"Contract Conqueror/Erc-1155/Erc1155Comp.sol\":4532:4535  ids */\n      dup9\n      dup9\n        /* \"Contract Conqueror/Erc-1155/Erc1155Comp.sol\":4536:4537  i */\n      dup6\n        /* \"Contract Conqueror/Erc-1155/Erc1155Comp.sol\":4532:4538  ids[i] */\n      dup2\n      dup2\n      lt\n      tag_249\n      jumpi\n      tag_250\n      tag_182\n      jump\t// in\n    tag_250:\n    tag_249:\n      swap1\n      pop\n      0x20\n      mul\n      add\n      calldataload\n        /* \"Contract Conqueror/Erc-1155/Erc1155Comp.sol\":4522:4539  _balances[ids[i]] */\n      dup2\n      mstore\n      0x20\n      add\n      swap1\n      dup2\n      mstore\n      0x20\n      add\n      0x00\n      keccak256\n        /* \"Contract Conqueror/Erc-1155/Erc1155Comp.sol\":4522:4543  _balances[ids[i]][to] */\n      0x00\n        /* \"Contract Conqueror/Erc-1155/Erc1155Comp.sol\":4540:4542  to */\n      dup10\n        /* \"Contract Conqueror/Erc-1155/Erc1155Comp.sol\":4522:4543  _balances[ids[i]][to] */\n      0xffffffffffffffffffffffffffffffffffffffff\n      and\n      0xffffffffffffffffffffffffffffffffffffffff\n      and\n      dup2\n      mstore\n      0x20\n      add\n      swap1\n      dup2\n      mstore\n      0x20\n      add\n      0x00\n      keccak256\n      0x00\n        /* \"Contract Conqueror/Erc-1155/Erc1155Comp.sol\":4522:4557  _balances[ids[i]][to] += amounts[i] */\n      dup3\n      dup3\n      sload\n      tag_251\n      swap2\n      swap1\n      tag_150\n      jump\t// in\n    tag_251:\n      swap3\n      pop\n      pop\n      dup2\n      swap1\n      sstore\n      pop\n        /* \"Contract Conqueror/Erc-1155/Erc1155Comp.sol\":4365:4368  i++ */\n      dup1\n      dup1\n      0x01\n      add\n      swap2\n      pop\n      pop\n        /* \"Contract Conqueror/Erc-1155/Erc1155Comp.sol\":4329:4569  for (uint256 i = 0; i < ids.length; i++) {... */\n      jump(tag_233)\n    tag_234:\n      pop\n        /* \"Contract Conqueror/Erc-1155/Erc1155Comp.sol\":4618:4620  to */\n      dup6\n        /* \"Contract Conqueror/Erc-1155/Erc1155Comp.sol\":4586:4635  TransferBatch(msg.sender, from, to, ids, amounts) */\n      0xffffffffffffffffffffffffffffffffffffffff\n      and\n        /* \"Contract Conqueror/Erc-1155/Erc1155Comp.sol\":4612:4616  from */\n      dup8\n        /* \"Contract Conqueror/Erc-1155/Erc1155Comp.sol\":4586:4635  TransferBatch(msg.sender, from, to, ids, amounts) */\n      0xffffffffffffffffffffffffffffffffffffffff\n      and\n        /* \"Contract Conqueror/Erc-1155/Erc1155Comp.sol\":4600:4610  msg.sender */\n      caller\n        /* \"Contract Conqueror/Erc-1155/Erc1155Comp.sol\":4586:4635  TransferBatch(msg.sender, from, to, ids, amounts) */\n      0xffffffffffffffffffffffffffffffffffffffff\n      and\n      0x4a39dc06d4c0dbc64b70af90fd698a233a518aa5d07e595d983b8c0526c8f7fb\n        /* \"Contract Conqueror/Erc-1155/Erc1155Comp.sol\":4622:4625  ids */\n      dup9\n      dup9\n        /* \"Contract Conqueror/Erc-1155/Erc1155Comp.sol\":4627:4634  amounts */\n      dup9\n      dup9\n        /* \"Contract Conqueror/Erc-1155/Erc1155Comp.sol\":4586:4635  TransferBatch(msg.sender, from, to, ids, amounts) */\n      mload(0x40)\n      tag_252\n      swap5\n      swap4\n      swap3\n      swap2\n      swap1\n      tag_253\n      jump\t// in\n    tag_252:\n      mload(0x40)\n      dup1\n      swap2\n      sub\n      swap1\n      log4\n        /* \"Contract Conqueror/Erc-1155/Erc1155Comp.sol\":4058:4643  function safeBatchTransferFrom(address from, address to, uint256[] calldata ids, uint256[] calldata amounts) external onlyApproved(from) {... */\n      pop\n      pop\n      pop\n      pop\n      pop\n      pop\n      pop\n      jump\t// out\n        /* \"Contract Conqueror/Erc-1155/Erc1155Comp.sol\":4972:5660  function mint(... */\n    tag_115:\n        /* \"Contract Conqueror/Erc-1155/Erc1155Comp.sol\":5209:5210  0 */\n      0x00\n        /* \"Contract Conqueror/Erc-1155/Erc1155Comp.sol\":5195:5211  to != address(0) */\n      0xffffffffffffffffffffffffffffffffffffffff\n      and\n        /* \"Contract Conqueror/Erc-1155/Erc1155Comp.sol\":5195:5197  to */\n      dup7\n        /* \"Contract Conqueror/Erc-1155/Erc1155Comp.sol\":5195:5211  to != address(0) */\n      0xffffffffffffffffffffffffffffffffffffffff\n      and\n      sub\n        /* \"Contract Conqueror/Erc-1155/Erc1155Comp.sol\":5187:5228  require(to != address(0), \"Zero address\") */\n      tag_255\n      jumpi\n      mload(0x40)\n      0x08c379a000000000000000000000000000000000000000000000000000000000\n      dup2\n      mstore\n      0x04\n      add\n      tag_256\n      swap1\n      tag_119\n      jump\t// in\n    tag_256:\n      mload(0x40)\n      dup1\n      swap2\n      sub\n      swap1\n      revert\n    tag_255:\n        /* \"Contract Conqueror/Erc-1155/Erc1155Comp.sol\":5261:5266  10000 */\n      0x2710\n        /* \"Contract Conqueror/Erc-1155/Erc1155Comp.sol\":5247:5257  royaltyFee */\n      dup2\n        /* \"Contract Conqueror/Erc-1155/Erc1155Comp.sol\":5247:5266  royaltyFee <= 10000 */\n      0xffffffffffffffffffffffff\n      and\n      gt\n      iszero\n        /* \"Contract Conqueror/Erc-1155/Erc1155Comp.sol\":5239:5279  require(royaltyFee <= 10000, \"Too high\") */\n      tag_257\n      jumpi\n      mload(0x40)\n      0x08c379a000000000000000000000000000000000000000000000000000000000\n      dup2\n      mstore\n      0x04\n      add\n      tag_258\n      swap1\n      tag_259\n      jump\t// in\n    tag_258:\n      mload(0x40)\n      dup1\n      swap2\n      sub\n      swap1\n      revert\n    tag_257:\n        /* \"Contract Conqueror/Erc-1155/Erc1155Comp.sol\":5313:5319  amount */\n      dup4\n        /* \"Contract Conqueror/Erc-1155/Erc1155Comp.sol\":5292:5301  _balances */\n      0x00\n        /* \"Contract Conqueror/Erc-1155/Erc1155Comp.sol\":5292:5305  _balances[id] */\n      0x00\n        /* \"Contract Conqueror/Erc-1155/Erc1155Comp.sol\":5302:5304  id */\n      dup8\n        /* \"Contract Conqueror/Erc-1155/Erc1155Comp.sol\":5292:5305  _balances[id] */\n      dup2\n      mstore\n      0x20\n      add\n      swap1\n      dup2\n      mstore\n      0x20\n      add\n      0x00\n      keccak256\n        /* \"Contract Conqueror/Erc-1155/Erc1155Comp.sol\":5292:5309  _balances[id][to] */\n      0x00\n        /* \"Contract Conqueror/Erc-1155/Erc1155Comp.sol\":5306:5308  to */\n      dup9\n        /* \"Contract Conqueror/Erc-1155/Erc1155Comp.sol\":5292:5309  _balances[id][to] */\n      0xffffffffffffffffffffffffffffffffffffffff\n      and\n      0xffffffffffffffffffffffffffffffffffffffff\n      and\n      dup2\n      mstore\n      0x20\n      add\n      swap1\n      dup2\n      mstore\n      0x20\n      add\n      0x00\n      keccak256\n      0x00\n        /* \"Contract Conqueror/Erc-1155/Erc1155Comp.sol\":5292:5319  _balances[id][to] += amount */\n      dup3\n      dup3\n      sload\n      tag_260\n      swap2\n      swap1\n      tag_150\n      jump\t// in\n    tag_260:\n      swap3\n      pop\n      pop\n      dup2\n      swap1\n      sstore\n      pop\n        /* \"Contract Conqueror/Erc-1155/Erc1155Comp.sol\":5363:5364  0 */\n      0x00\n        /* \"Contract Conqueror/Erc-1155/Erc1155Comp.sol\":5342:5347  _uris */\n      0x02\n        /* \"Contract Conqueror/Erc-1155/Erc1155Comp.sol\":5342:5351  _uris[id] */\n      0x00\n        /* \"Contract Conqueror/Erc-1155/Erc1155Comp.sol\":5348:5350  id */\n      dup8\n        /* \"Contract Conqueror/Erc-1155/Erc1155Comp.sol\":5342:5351  _uris[id] */\n      dup2\n      mstore\n      0x20\n      add\n      swap1\n      dup2\n      mstore\n      0x20\n      add\n      0x00\n      keccak256\n        /* \"Contract Conqueror/Erc-1155/Erc1155Comp.sol\":5336:5359  bytes(_uris[id]).length */\n      dup1\n      sload\n      tag_261\n      swap1\n      tag_124\n      jump\t// in\n    tag_261:\n      swap1\n      pop\n        /* \"Contract Conqueror/Erc-1155/Erc1155Comp.sol\":5336:5364  bytes(_uris[id]).length == 0 */\n      sub\n        /* \"Contract Conqueror/Erc-1155/Erc1155Comp.sol\":5332:5442  if (bytes(_uris[id]).length == 0) {... */\n      tag_262\n      jumpi\n        /* \"Contract Conqueror/Erc-1155/Erc1155Comp.sol\":5393:5397  uri_ */\n      dup3\n        /* \"Contract Conqueror/Erc-1155/Erc1155Comp.sol\":5381:5386  _uris */\n      0x02\n        /* \"Contract Conqueror/Erc-1155/Erc1155Comp.sol\":5381:5390  _uris[id] */\n      0x00\n        /* \"Contract Conqueror/Erc-1155/Erc1155Comp.sol\":5387:5389  id */\n      dup8\n        /* \"Contract Conqueror/Erc-1155/Erc1155Comp.sol\":5381:5390  _uris[id] */\n      dup2\n      mstore\n      0x20\n      add\n      swap1\n      dup2\n      mstore\n      0x20\n      add\n      0x00\n      keccak256\n        /* \"Contract Conqueror/Erc-1155/Erc1155Comp.sol\":5381:5397  _uris[id] = uri_ */\n      swap1\n      dup2\n      tag_263\n      swap2\n      swap1\n      tag_264\n      jump\t// in\n    tag_263:\n      pop\n        /* \"Contract Conqueror/Erc-1155/Erc1155Comp.sol\":5427:5429  id */\n      dup5\n        /* \"Contract Conqueror/Erc-1155/Erc1155Comp.sol\":5417:5430  URI(uri_, id) */\n      0x6bb7ff708619ba0610cba295a58592e0451dee2622938c8755667688daf3529b\n        /* \"Contract Conqueror/Erc-1155/Erc1155Comp.sol\":5421:5425  uri_ */\n      dup5\n        /* \"Contract Conqueror/Erc-1155/Erc1155Comp.sol\":5417:5430  URI(uri_, id) */\n      mload(0x40)\n      tag_265\n      swap2\n      swap1\n      tag_42\n      jump\t// in\n    tag_265:\n      mload(0x40)\n      dup1\n      swap2\n      sub\n      swap1\n      log2\n        /* \"Contract Conqueror/Erc-1155/Erc1155Comp.sol\":5332:5442  if (bytes(_uris[id]).length == 0) {... */\n    tag_262:\n        /* \"Contract Conqueror/Erc-1155/Erc1155Comp.sol\":5493:5494  0 */\n      0x00\n        /* \"Contract Conqueror/Erc-1155/Erc1155Comp.sol\":5458:5495  _royalties[id].receiver == address(0) */\n      0xffffffffffffffffffffffffffffffffffffffff\n      and\n        /* \"Contract Conqueror/Erc-1155/Erc1155Comp.sol\":5458:5468  _royalties */\n      0x03\n        /* \"Contract Conqueror/Erc-1155/Erc1155Comp.sol\":5458:5472  _royalties[id] */\n      0x00\n        /* \"Contract Conqueror/Erc-1155/Erc1155Comp.sol\":5469:5471  id */\n      dup8\n        /* \"Contract Conqueror/Erc-1155/Erc1155Comp.sol\":5458:5472  _royalties[id] */\n      dup2\n      mstore\n      0x20\n      add\n      swap1\n      dup2\n      mstore\n      0x20\n      add\n      0x00\n      keccak256\n        /* \"Contract Conqueror/Erc-1155/Erc1155Comp.sol\":5458:5481  _royalties[id].receiver */\n      0x00\n      add\n      0x00\n      swap1\n      sload\n      swap1\n      0x0100\n      exp\n      swap1\n      div\n      0xffffffffffffffffffffffffffffffffffffffff\n      and\n        /* \"Contract Conqueror/Erc-1155/Erc1155Comp.sol\":5458:5495  _royalties[id].receiver == address(0) */\n      0xffffffffffffffffffffffffffffffffffffffff\n      and\n      sub\n        /* \"Contract Conqueror/Erc-1155/Erc1155Comp.sol\":5454:5581  if (_royalties[id].receiver == address(0)) {... */\n      tag_266\n      jumpi\n        /* \"Contract Conqueror/Erc-1155/Erc1155Comp.sol\":5529:5569  RoyaltyInfo(royaltyReceiver, royaltyFee) */\n      mload(0x40)\n      dup1\n      0x40\n      add\n      0x40\n      mstore\n      dup1\n        /* \"Contract Conqueror/Erc-1155/Erc1155Comp.sol\":5541:5556  royaltyReceiver */\n      dup4\n        /* \"Contract Conqueror/Erc-1155/Erc1155Comp.sol\":5529:5569  RoyaltyInfo(royaltyReceiver, royaltyFee) */\n      0xffffffffffffffffffffffffffffffffffffffff\n      and\n      dup2\n      mstore\n      0x20\n      add\n        /* \"Contract Conqueror/Erc-1155/Erc1155Comp.sol\":5558:5568  royaltyFee */\n      dup3\n        /* \"Contract Conqueror/Erc-1155/Erc1155Comp.sol\":5529:5569  RoyaltyInfo(royaltyReceiver, royaltyFee) */\n      0xffffffffffffffffffffffff\n      and\n      dup2\n      mstore\n      pop\n        /* \"Contract Conqueror/Erc-1155/Erc1155Comp.sol\":5512:5522  _royalties */\n      0x03\n        /* \"Contract Conqueror/Erc-1155/Erc1155Comp.sol\":5512:5526  _royalties[id] */\n      0x00\n        /* \"Contract Conqueror/Erc-1155/Erc1155Comp.sol\":5523:5525  id */\n      dup8\n        /* \"Contract Conqueror/Erc-1155/Erc1155Comp.sol\":5512:5526  _royalties[id] */\n      dup2\n      mstore\n      0x20\n      add\n      swap1\n      dup2\n      mstore\n      0x20\n      add\n      0x00\n      keccak256\n        /* \"Contract Conqueror/Erc-1155/Erc1155Comp.sol\":5512:5569  _royalties[id] = RoyaltyInfo(royaltyReceiver, royaltyFee) */\n      0x00\n      dup3\n      add\n      mload\n      dup2\n      0x00\n      add\n      exp(0x0100, 0x00)\n      dup2\n      sload\n      dup2\n      0xffffffffffffffffffffffffffffffffffffffff\n      mul\n      not\n      and\n      swap1\n      dup4\n      0xffffffffffffffffffffffffffffffffffffffff\n      and\n      mul\n      or\n      swap1\n      sstore\n      pop\n      0x20\n      dup3\n      add\n      mload\n      dup2\n      0x00\n      add\n      exp(0x0100, 0x14)\n      dup2\n      sload\n      dup2\n      0xffffffffffffffffffffffff\n      mul\n      not\n      and\n      swap1\n      dup4\n      0xffffffffffffffffffffffff\n      and\n      mul\n      or\n      swap1\n      sstore\n      pop\n      swap1\n      pop\n      pop\n        /* \"Contract Conqueror/Erc-1155/Erc1155Comp.sol\":5454:5581  if (_royalties[id].receiver == address(0)) {... */\n    tag_266:\n        /* \"Contract Conqueror/Erc-1155/Erc1155Comp.sol\":5637:5639  to */\n      dup6\n        /* \"Contract Conqueror/Erc-1155/Erc1155Comp.sol\":5598:5652  TransferSingle(msg.sender, address(0), to, id, amount) */\n      0xffffffffffffffffffffffffffffffffffffffff\n      and\n        /* \"Contract Conqueror/Erc-1155/Erc1155Comp.sol\":5633:5634  0 */\n      0x00\n        /* \"Contract Conqueror/Erc-1155/Erc1155Comp.sol\":5598:5652  TransferSingle(msg.sender, address(0), to, id, amount) */\n      0xffffffffffffffffffffffffffffffffffffffff\n      and\n        /* \"Contract Conqueror/Erc-1155/Erc1155Comp.sol\":5613:5623  msg.sender */\n      caller\n        /* \"Contract Conqueror/Erc-1155/Erc1155Comp.sol\":5598:5652  TransferSingle(msg.sender, address(0), to, id, amount) */\n      0xffffffffffffffffffffffffffffffffffffffff\n      and\n      0xc3d58168c5ae7397731d063d5bbf3d657854427343f4c083240f7aacaa2d0f62\n        /* \"Contract Conqueror/Erc-1155/Erc1155Comp.sol\":5641:5643  id */\n      dup9\n        /* \"Contract Conqueror/Erc-1155/Erc1155Comp.sol\":5645:5651  amount */\n      dup9\n        /* \"Contract Conqueror/Erc-1155/Erc1155Comp.sol\":5598:5652  TransferSingle(msg.sender, address(0), to, id, amount) */\n      mload(0x40)\n      tag_267\n      swap3\n      swap2\n      swap1\n      tag_152\n      jump\t// in\n    tag_267:\n      mload(0x40)\n      dup1\n      swap2\n      sub\n      swap1\n      log4\n        /* \"Contract Conqueror/Erc-1155/Erc1155Comp.sol\":4972:5660  function mint(... */\n      pop\n      pop\n      pop\n      pop\n      pop\n      pop\n      jump\t// out\n        /* \"#utility.yul\":7:82   */\n    tag_268:\n        /* \"#utility.yul\":40:46   */\n      0x00\n        /* \"#utility.yul\":73:75   */\n      0x40\n        /* \"#utility.yul\":67:76   */\n      mload\n        /* \"#utility.yul\":57:76   */\n      swap1\n      pop\n        /* \"#utility.yul\":7:82   */\n      swap1\n      jump\t// out\n        /* \"#utility.yul\":88:205   */\n    tag_269:\n        /* \"#utility.yul\":197:198   */\n      0x00\n        /* \"#utility.yul\":194:195   */\n      0x00\n        /* \"#utility.yul\":187:199   */\n      revert\n        /* \"#utility.yul\":211:328   */\n    tag_270:\n        /* \"#utility.yul\":320:321   */\n      0x00\n        /* \"#utility.yul\":317:318   */\n      0x00\n        /* \"#utility.yul\":310:322   */\n      revert\n        /* \"#utility.yul\":334:460   */\n    tag_271:\n        /* \"#utility.yul\":371:378   */\n      0x00\n        /* \"#utility.yul\":411:453   */\n      0xffffffffffffffffffffffffffffffffffffffff\n        /* \"#utility.yul\":404:409   */\n      dup3\n        /* \"#utility.yul\":400:454   */\n      and\n        /* \"#utility.yul\":389:454   */\n      swap1\n      pop\n        /* \"#utility.yul\":334:460   */\n      swap2\n      swap1\n      pop\n      jump\t// out\n        /* \"#utility.yul\":466:562   */\n    tag_272:\n        /* \"#utility.yul\":503:510   */\n      0x00\n        /* \"#utility.yul\":532:556   */\n      tag_365\n        /* \"#utility.yul\":550:555   */\n      dup3\n        /* \"#utility.yul\":532:556   */\n      tag_271\n      jump\t// in\n    tag_365:\n        /* \"#utility.yul\":521:556   */\n      swap1\n      pop\n        /* \"#utility.yul\":466:562   */\n      swap2\n      swap1\n      pop\n      jump\t// out\n        /* \"#utility.yul\":568:690   */\n    tag_273:\n        /* \"#utility.yul\":641:665   */\n      tag_367\n        /* \"#utility.yul\":659:664   */\n      dup2\n        /* \"#utility.yul\":641:665   */\n      tag_272\n      jump\t// in\n    tag_367:\n        /* \"#utility.yul\":634:639   */\n      dup2\n        /* \"#utility.yul\":631:666   */\n      eq\n        /* \"#utility.yul\":621:684   */\n      tag_368\n      jumpi\n        /* \"#utility.yul\":680:681   */\n      0x00\n        /* \"#utility.yul\":677:678   */\n      0x00\n        /* \"#utility.yul\":670:682   */\n      revert\n        /* \"#utility.yul\":621:684   */\n    tag_368:\n        /* \"#utility.yul\":568:690   */\n      pop\n      jump\t// out\n        /* \"#utility.yul\":696:835   */\n    tag_274:\n        /* \"#utility.yul\":742:747   */\n      0x00\n        /* \"#utility.yul\":780:786   */\n      dup2\n        /* \"#utility.yul\":767:787   */\n      calldataload\n        /* \"#utility.yul\":758:787   */\n      swap1\n      pop\n        /* \"#utility.yul\":796:829   */\n      tag_370\n        /* \"#utility.yul\":823:828   */\n      dup2\n        /* \"#utility.yul\":796:829   */\n      tag_273\n      jump\t// in\n    tag_370:\n        /* \"#utility.yul\":696:835   */\n      swap3\n      swap2\n      pop\n      pop\n      jump\t// out\n        /* \"#utility.yul\":841:918   */\n    tag_275:\n        /* \"#utility.yul\":878:885   */\n      0x00\n        /* \"#utility.yul\":907:912   */\n      dup2\n        /* \"#utility.yul\":896:912   */\n      swap1\n      pop\n        /* \"#utility.yul\":841:918   */\n      swap2\n      swap1\n      pop\n      jump\t// out\n        /* \"#utility.yul\":924:1046   */\n    tag_276:\n        /* \"#utility.yul\":997:1021   */\n      tag_373\n        /* \"#utility.yul\":1015:1020   */\n      dup2\n        /* \"#utility.yul\":997:1021   */\n      tag_275\n      jump\t// in\n    tag_373:\n        /* \"#utility.yul\":990:995   */\n      dup2\n        /* \"#utility.yul\":987:1022   */\n      eq\n        /* \"#utility.yul\":977:1040   */\n      tag_374\n      jumpi\n        /* \"#utility.yul\":1036:1037   */\n      0x00\n        /* \"#utility.yul\":1033:1034   */\n      0x00\n        /* \"#utility.yul\":1026:1038   */\n      revert\n        /* \"#utility.yul\":977:1040   */\n    tag_374:\n        /* \"#utility.yul\":924:1046   */\n      pop\n      jump\t// out\n        /* \"#utility.yul\":1052:1191   */\n    tag_277:\n        /* \"#utility.yul\":1098:1103   */\n      0x00\n        /* \"#utility.yul\":1136:1142   */\n      dup2\n        /* \"#utility.yul\":1123:1143   */\n      calldataload\n        /* \"#utility.yul\":1114:1143   */\n      swap1\n      pop\n        /* \"#utility.yul\":1152:1185   */\n      tag_376\n        /* \"#utility.yul\":1179:1184   */\n      dup2\n        /* \"#utility.yul\":1152:1185   */\n      tag_276\n      jump\t// in\n    tag_376:\n        /* \"#utility.yul\":1052:1191   */\n      swap3\n      swap2\n      pop\n      pop\n      jump\t// out\n        /* \"#utility.yul\":1197:1671   */\n    tag_25:\n        /* \"#utility.yul\":1265:1271   */\n      0x00\n        /* \"#utility.yul\":1273:1279   */\n      0x00\n        /* \"#utility.yul\":1322:1324   */\n      0x40\n        /* \"#utility.yul\":1310:1319   */\n      dup4\n        /* \"#utility.yul\":1301:1308   */\n      dup6\n        /* \"#utility.yul\":1297:1320   */\n      sub\n        /* \"#utility.yul\":1293:1325   */\n      slt\n        /* \"#utility.yul\":1290:1409   */\n      iszero\n      tag_378\n      jumpi\n        /* \"#utility.yul\":1328:1407   */\n      tag_379\n      tag_269\n      jump\t// in\n    tag_379:\n        /* \"#utility.yul\":1290:1409   */\n    tag_378:\n        /* \"#utility.yul\":1448:1449   */\n      0x00\n        /* \"#utility.yul\":1473:1526   */\n      tag_380\n        /* \"#utility.yul\":1518:1525   */\n      dup6\n        /* \"#utility.yul\":1509:1515   */\n      dup3\n        /* \"#utility.yul\":1498:1507   */\n      dup7\n        /* \"#utility.yul\":1494:1516   */\n      add\n        /* \"#utility.yul\":1473:1526   */\n      tag_274\n      jump\t// in\n    tag_380:\n        /* \"#utility.yul\":1463:1526   */\n      swap3\n      pop\n        /* \"#utility.yul\":1419:1536   */\n      pop\n        /* \"#utility.yul\":1575:1577   */\n      0x20\n        /* \"#utility.yul\":1601:1654   */\n      tag_381\n        /* \"#utility.yul\":1646:1653   */\n      dup6\n        /* \"#utility.yul\":1637:1643   */\n      dup3\n        /* \"#utility.yul\":1626:1635   */\n      dup7\n        /* \"#utility.yul\":1622:1644   */\n      add\n        /* \"#utility.yul\":1601:1654   */\n      tag_277\n      jump\t// in\n    tag_381:\n        /* \"#utility.yul\":1591:1654   */\n      swap2\n      pop\n        /* \"#utility.yul\":1546:1664   */\n      pop\n        /* \"#utility.yul\":1197:1671   */\n      swap3\n      pop\n      swap3\n      swap1\n      pop\n      jump\t// out\n        /* \"#utility.yul\":1677:1795   */\n    tag_278:\n        /* \"#utility.yul\":1764:1788   */\n      tag_383\n        /* \"#utility.yul\":1782:1787   */\n      dup2\n        /* \"#utility.yul\":1764:1788   */\n      tag_275\n      jump\t// in\n    tag_383:\n        /* \"#utility.yul\":1759:1762   */\n      dup3\n        /* \"#utility.yul\":1752:1789   */\n      mstore\n        /* \"#utility.yul\":1677:1795   */\n      pop\n      pop\n      jump\t// out\n        /* \"#utility.yul\":1801:2023   */\n    tag_28:\n        /* \"#utility.yul\":1894:1898   */\n      0x00\n        /* \"#utility.yul\":1932:1934   */\n      0x20\n        /* \"#utility.yul\":1921:1930   */\n      dup3\n        /* \"#utility.yul\":1917:1935   */\n      add\n        /* \"#utility.yul\":1909:1935   */\n      swap1\n      pop\n        /* \"#utility.yul\":1945:2016   */\n      tag_385\n        /* \"#utility.yul\":2013:2014   */\n      0x00\n        /* \"#utility.yul\":2002:2011   */\n      dup4\n        /* \"#utility.yul\":1998:2015   */\n      add\n        /* \"#utility.yul\":1989:1995   */\n      dup5\n        /* \"#utility.yul\":1945:2016   */\n      tag_278\n      jump\t// in\n    tag_385:\n        /* \"#utility.yul\":1801:2023   */\n      swap3\n      swap2\n      pop\n      pop\n      jump\t// out\n        /* \"#utility.yul\":2029:2178   */\n    tag_279:\n        /* \"#utility.yul\":2065:2072   */\n      0x00\n        /* \"#utility.yul\":2105:2171   */\n      0xffffffff00000000000000000000000000000000000000000000000000000000\n        /* \"#utility.yul\":2098:2103   */\n      dup3\n        /* \"#utility.yul\":2094:2172   */\n      and\n        /* \"#utility.yul\":2083:2172   */\n      swap1\n      pop\n        /* \"#utility.yul\":2029:2178   */\n      swap2\n      swap1\n      pop\n      jump\t// out\n        /* \"#utility.yul\":2184:2304   */\n    tag_280:\n        /* \"#utility.yul\":2256:2279   */\n      tag_388\n        /* \"#utility.yul\":2273:2278   */\n      dup2\n        /* \"#utility.yul\":2256:2279   */\n      tag_279\n      jump\t// in\n    tag_388:\n        /* \"#utility.yul\":2249:2254   */\n      dup2\n        /* \"#utility.yul\":2246:2280   */\n      eq\n        /* \"#utility.yul\":2236:2298   */\n      tag_389\n      jumpi\n        /* \"#utility.yul\":2294:2295   */\n      0x00\n        /* \"#utility.yul\":2291:2292   */\n      0x00\n        /* \"#utility.yul\":2284:2296   */\n      revert\n        /* \"#utility.yul\":2236:2298   */\n    tag_389:\n        /* \"#utility.yul\":2184:2304   */\n      pop\n      jump\t// out\n        /* \"#utility.yul\":2310:2447   */\n    tag_281:\n        /* \"#utility.yul\":2355:2360   */\n      0x00\n        /* \"#utility.yul\":2393:2399   */\n      dup2\n        /* \"#utility.yul\":2380:2400   */\n      calldataload\n        /* \"#utility.yul\":2371:2400   */\n      swap1\n      pop\n        /* \"#utility.yul\":2409:2441   */\n      tag_391\n        /* \"#utility.yul\":2435:2440   */\n      dup2\n        /* \"#utility.yul\":2409:2441   */\n      tag_280\n      jump\t// in\n    tag_391:\n        /* \"#utility.yul\":2310:2447   */\n      swap3\n      swap2\n      pop\n      pop\n      jump\t// out\n        /* \"#utility.yul\":2453:2780   */\n    tag_32:\n        /* \"#utility.yul\":2511:2517   */\n      0x00\n        /* \"#utility.yul\":2560:2562   */\n      0x20\n        /* \"#utility.yul\":2548:2557   */\n      dup3\n        /* \"#utility.yul\":2539:2546   */\n      dup5\n        /* \"#utility.yul\":2535:2558   */\n      sub\n        /* \"#utility.yul\":2531:2563   */\n      slt\n        /* \"#utility.yul\":2528:2647   */\n      iszero\n      tag_393\n      jumpi\n        /* \"#utility.yul\":2566:2645   */\n      tag_394\n      tag_269\n      jump\t// in\n    tag_394:\n        /* \"#utility.yul\":2528:2647   */\n    tag_393:\n        /* \"#utility.yul\":2686:2687   */\n      0x00\n        /* \"#utility.yul\":2711:2763   */\n      tag_395\n        /* \"#utility.yul\":2755:2762   */\n      dup5\n        /* \"#utility.yul\":2746:2752   */\n      dup3\n        /* \"#utility.yul\":2735:2744   */\n      dup6\n        /* \"#utility.yul\":2731:2753   */\n      add\n        /* \"#utility.yul\":2711:2763   */\n      tag_281\n      jump\t// in\n    tag_395:\n        /* \"#utility.yul\":2701:2763   */\n      swap2\n      pop\n        /* \"#utility.yul\":2657:2773   */\n      pop\n        /* \"#utility.yul\":2453:2780   */\n      swap3\n      swap2\n      pop\n      pop\n      jump\t// out\n        /* \"#utility.yul\":2786:2876   */\n    tag_282:\n        /* \"#utility.yul\":2820:2827   */\n      0x00\n        /* \"#utility.yul\":2863:2868   */\n      dup2\n        /* \"#utility.yul\":2856:2869   */\n      iszero\n        /* \"#utility.yul\":2849:2870   */\n      iszero\n        /* \"#utility.yul\":2838:2870   */\n      swap1\n      pop\n        /* \"#utility.yul\":2786:2876   */\n      swap2\n      swap1\n      pop\n      jump\t// out\n        /* \"#utility.yul\":2882:2991   */\n    tag_283:\n        /* \"#utility.yul\":2963:2984   */\n      tag_398\n        /* \"#utility.yul\":2978:2983   */\n      dup2\n        /* \"#utility.yul\":2963:2984   */\n      tag_282\n      jump\t// in\n    tag_398:\n        /* \"#utility.yul\":2958:2961   */\n      dup3\n        /* \"#utility.yul\":2951:2985   */\n      mstore\n        /* \"#utility.yul\":2882:2991   */\n      pop\n      pop\n      jump\t// out\n        /* \"#utility.yul\":2997:3207   */\n    tag_35:\n        /* \"#utility.yul\":3084:3088   */\n      0x00\n        /* \"#utility.yul\":3122:3124   */\n      0x20\n        /* \"#utility.yul\":3111:3120   */\n      dup3\n        /* \"#utility.yul\":3107:3125   */\n      add\n        /* \"#utility.yul\":3099:3125   */\n      swap1\n      pop\n        /* \"#utility.yul\":3135:3200   */\n      tag_400\n        /* \"#utility.yul\":3197:3198   */\n      0x00\n        /* \"#utility.yul\":3186:3195   */\n      dup4\n        /* \"#utility.yul\":3182:3199   */\n      add\n        /* \"#utility.yul\":3173:3179   */\n      dup5\n        /* \"#utility.yul\":3135:3200   */\n      tag_283\n      jump\t// in\n    tag_400:\n        /* \"#utility.yul\":2997:3207   */\n      swap3\n      swap2\n      pop\n      pop\n      jump\t// out\n        /* \"#utility.yul\":3213:3542   */\n    tag_39:\n        /* \"#utility.yul\":3272:3278   */\n      0x00\n        /* \"#utility.yul\":3321:3323   */\n      0x20\n        /* \"#utility.yul\":3309:3318   */\n      dup3\n        /* \"#utility.yul\":3300:3307   */\n      dup5\n        /* \"#utility.yul\":3296:3319   */\n      sub\n        /* \"#utility.yul\":3292:3324   */\n      slt\n        /* \"#utility.yul\":3289:3408   */\n      iszero\n      tag_402\n      jumpi\n        /* \"#utility.yul\":3327:3406   */\n      tag_403\n      tag_269\n      jump\t// in\n    tag_403:\n        /* \"#utility.yul\":3289:3408   */\n    tag_402:\n        /* \"#utility.yul\":3447:3448   */\n      0x00\n        /* \"#utility.yul\":3472:3525   */\n      tag_404\n        /* \"#utility.yul\":3517:3524   */\n      dup5\n        /* \"#utility.yul\":3508:3514   */\n      dup3\n        /* \"#utility.yul\":3497:3506   */\n      dup6\n        /* \"#utility.yul\":3493:3515   */\n      add\n        /* \"#utility.yul\":3472:3525   */\n      tag_277\n      jump\t// in\n    tag_404:\n        /* \"#utility.yul\":3462:3525   */\n      swap2\n      pop\n        /* \"#utility.yul\":3418:3535   */\n      pop\n        /* \"#utility.yul\":3213:3542   */\n      swap3\n      swap2\n      pop\n      pop\n      jump\t// out\n        /* \"#utility.yul\":3548:3647   */\n    tag_284:\n        /* \"#utility.yul\":3600:3606   */\n      0x00\n        /* \"#utility.yul\":3634:3639   */\n      dup2\n        /* \"#utility.yul\":3628:3640   */\n      mload\n        /* \"#utility.yul\":3618:3640   */\n      swap1\n      pop\n        /* \"#utility.yul\":3548:3647   */\n      swap2\n      swap1\n      pop\n      jump\t// out\n        /* \"#utility.yul\":3653:3822   */\n    tag_285:\n        /* \"#utility.yul\":3737:3748   */\n      0x00\n        /* \"#utility.yul\":3771:3777   */\n      dup3\n        /* \"#utility.yul\":3766:3769   */\n      dup3\n        /* \"#utility.yul\":3759:3778   */\n      mstore\n        /* \"#utility.yul\":3811:3815   */\n      0x20\n        /* \"#utility.yul\":3806:3809   */\n      dup3\n        /* \"#utility.yul\":3802:3816   */\n      add\n        /* \"#utility.yul\":3787:3816   */\n      swap1\n      pop\n        /* \"#utility.yul\":3653:3822   */\n      swap3\n      swap2\n      pop\n      pop\n      jump\t// out\n        /* \"#utility.yul\":3828:3967   */\n    tag_286:\n        /* \"#utility.yul\":3917:3923   */\n      dup3\n        /* \"#utility.yul\":3912:3915   */\n      dup2\n        /* \"#utility.yul\":3907:3910   */\n      dup4\n        /* \"#utility.yul\":3901:3924   */\n      mcopy\n        /* \"#utility.yul\":3958:3959   */\n      0x00\n        /* \"#utility.yul\":3949:3955   */\n      dup4\n        /* \"#utility.yul\":3944:3947   */\n      dup4\n        /* \"#utility.yul\":3940:3956   */\n      add\n        /* \"#utility.yul\":3933:3960   */\n      mstore\n        /* \"#utility.yul\":3828:3967   */\n      pop\n      pop\n      pop\n      jump\t// out\n        /* \"#utility.yul\":3973:4075   */\n    tag_287:\n        /* \"#utility.yul\":4014:4020   */\n      0x00\n        /* \"#utility.yul\":4065:4067   */\n      0x1f\n        /* \"#utility.yul\":4061:4068   */\n      not\n        /* \"#utility.yul\":4056:4058   */\n      0x1f\n        /* \"#utility.yul\":4049:4054   */\n      dup4\n        /* \"#utility.yul\":4045:4059   */\n      add\n        /* \"#utility.yul\":4041:4069   */\n      and\n        /* \"#utility.yul\":4031:4069   */\n      swap1\n      pop\n        /* \"#utility.yul\":3973:4075   */\n      swap2\n      swap1\n      pop\n      jump\t// out\n        /* \"#utility.yul\":4081:4458   */\n    tag_288:\n        /* \"#utility.yul\":4169:4172   */\n      0x00\n        /* \"#utility.yul\":4197:4236   */\n      tag_410\n        /* \"#utility.yul\":4230:4235   */\n      dup3\n        /* \"#utility.yul\":4197:4236   */\n      tag_284\n      jump\t// in\n    tag_410:\n        /* \"#utility.yul\":4252:4323   */\n      tag_411\n        /* \"#utility.yul\":4316:4322   */\n      dup2\n        /* \"#utility.yul\":4311:4314   */\n      dup6\n        /* \"#utility.yul\":4252:4323   */\n      tag_285\n      jump\t// in\n    tag_411:\n        /* \"#utility.yul\":4245:4323   */\n      swap4\n      pop\n        /* \"#utility.yul\":4332:4397   */\n      tag_412\n        /* \"#utility.yul\":4390:4396   */\n      dup2\n        /* \"#utility.yul\":4385:4388   */\n      dup6\n        /* \"#utility.yul\":4378:4382   */\n      0x20\n        /* \"#utility.yul\":4371:4376   */\n      dup7\n        /* \"#utility.yul\":4367:4383   */\n      add\n        /* \"#utility.yul\":4332:4397   */\n      tag_286\n      jump\t// in\n    tag_412:\n        /* \"#utility.yul\":4422:4451   */\n      tag_413\n        /* \"#utility.yul\":4444:4450   */\n      dup2\n        /* \"#utility.yul\":4422:4451   */\n      tag_287\n      jump\t// in\n    tag_413:\n        /* \"#utility.yul\":4417:4420   */\n      dup5\n        /* \"#utility.yul\":4413:4452   */\n      add\n        /* \"#utility.yul\":4406:4452   */\n      swap2\n      pop\n        /* \"#utility.yul\":4173:4458   */\n      pop\n        /* \"#utility.yul\":4081:4458   */\n      swap3\n      swap2\n      pop\n      pop\n      jump\t// out\n        /* \"#utility.yul\":4464:4777   */\n    tag_42:\n        /* \"#utility.yul\":4577:4581   */\n      0x00\n        /* \"#utility.yul\":4615:4617   */\n      0x20\n        /* \"#utility.yul\":4604:4613   */\n      dup3\n        /* \"#utility.yul\":4600:4618   */\n      add\n        /* \"#utility.yul\":4592:4618   */\n      swap1\n      pop\n        /* \"#utility.yul\":4664:4673   */\n      dup2\n        /* \"#utility.yul\":4658:4662   */\n      dup2\n        /* \"#utility.yul\":4654:4674   */\n      sub\n        /* \"#utility.yul\":4650:4651   */\n      0x00\n        /* \"#utility.yul\":4639:4648   */\n      dup4\n        /* \"#utility.yul\":4635:4652   */\n      add\n        /* \"#utility.yul\":4628:4675   */\n      mstore\n        /* \"#utility.yul\":4692:4770   */\n      tag_415\n        /* \"#utility.yul\":4765:4769   */\n      dup2\n        /* \"#utility.yul\":4756:4762   */\n      dup5\n        /* \"#utility.yul\":4692:4770   */\n      tag_288\n      jump\t// in\n    tag_415:\n        /* \"#utility.yul\":4684:4770   */\n      swap1\n      pop\n        /* \"#utility.yul\":4464:4777   */\n      swap3\n      swap2\n      pop\n      pop\n      jump\t// out\n        /* \"#utility.yul\":4783:5548   */\n    tag_50:\n        /* \"#utility.yul\":4869:4875   */\n      0x00\n        /* \"#utility.yul\":4877:4883   */\n      0x00\n        /* \"#utility.yul\":4885:4891   */\n      0x00\n        /* \"#utility.yul\":4893:4899   */\n      0x00\n        /* \"#utility.yul\":4942:4945   */\n      0x80\n        /* \"#utility.yul\":4930:4939   */\n      dup6\n        /* \"#utility.yul\":4921:4928   */\n      dup8\n        /* \"#utility.yul\":4917:4940   */\n      sub\n        /* \"#utility.yul\":4913:4946   */\n      slt\n        /* \"#utility.yul\":4910:5030   */\n      iszero\n      tag_417\n      jumpi\n        /* \"#utility.yul\":4949:5028   */\n      tag_418\n      tag_269\n      jump\t// in\n    tag_418:\n        /* \"#utility.yul\":4910:5030   */\n    tag_417:\n        /* \"#utility.yul\":5069:5070   */\n      0x00\n        /* \"#utility.yul\":5094:5147   */\n      tag_419\n        /* \"#utility.yul\":5139:5146   */\n      dup8\n        /* \"#utility.yul\":5130:5136   */\n      dup3\n        /* \"#utility.yul\":5119:5128   */\n      dup9\n        /* \"#utility.yul\":5115:5137   */\n      add\n        /* \"#utility.yul\":5094:5147   */\n      tag_274\n      jump\t// in\n    tag_419:\n        /* \"#utility.yul\":5084:5147   */\n      swap5\n      pop\n        /* \"#utility.yul\":5040:5157   */\n      pop\n        /* \"#utility.yul\":5196:5198   */\n      0x20\n        /* \"#utility.yul\":5222:5275   */\n      tag_420\n        /* \"#utility.yul\":5267:5274   */\n      dup8\n        /* \"#utility.yul\":5258:5264   */\n      dup3\n        /* \"#utility.yul\":5247:5256   */\n      dup9\n        /* \"#utility.yul\":5243:5265   */\n      add\n        /* \"#utility.yul\":5222:5275   */\n      tag_274\n      jump\t// in\n    tag_420:\n        /* \"#utility.yul\":5212:5275   */\n      swap4\n      pop\n        /* \"#utility.yul\":5167:5285   */\n      pop\n        /* \"#utility.yul\":5324:5326   */\n      0x40\n        /* \"#utility.yul\":5350:5403   */\n      tag_421\n        /* \"#utility.yul\":5395:5402   */\n      dup8\n        /* \"#utility.yul\":5386:5392   */\n      dup3\n        /* \"#utility.yul\":5375:5384   */\n      dup9\n        /* \"#utility.yul\":5371:5393   */\n      add\n        /* \"#utility.yul\":5350:5403   */\n      tag_277\n      jump\t// in\n    tag_421:\n        /* \"#utility.yul\":5340:5403   */\n      swap3\n      pop\n        /* \"#utility.yul\":5295:5413   */\n      pop\n        /* \"#utility.yul\":5452:5454   */\n      0x60\n        /* \"#utility.yul\":5478:5531   */\n      tag_422\n        /* \"#utility.yul\":5523:5530   */\n      dup8\n        /* \"#utility.yul\":5514:5520   */\n      dup3\n        /* \"#utility.yul\":5503:5512   */\n      dup9\n        /* \"#utility.yul\":5499:5521   */\n      add\n        /* \"#utility.yul\":5478:5531   */\n      tag_277\n      jump\t// in\n    tag_422:\n        /* \"#utility.yul\":5468:5531   */\n      swap2\n      pop\n        /* \"#utility.yul\":5423:5541   */\n      pop\n        /* \"#utility.yul\":4783:5548   */\n      swap3\n      swap6\n      swap2\n      swap5\n      pop\n      swap3\n      pop\n      jump\t// out\n        /* \"#utility.yul\":5554:6028   */\n    tag_55:\n        /* \"#utility.yul\":5622:5628   */\n      0x00\n        /* \"#utility.yul\":5630:5636   */\n      0x00\n        /* \"#utility.yul\":5679:5681   */\n      0x40\n        /* \"#utility.yul\":5667:5676   */\n      dup4\n        /* \"#utility.yul\":5658:5665   */\n      dup6\n        /* \"#utility.yul\":5654:5677   */\n      sub\n        /* \"#utility.yul\":5650:5682   */\n      slt\n        /* \"#utility.yul\":5647:5766   */\n      iszero\n      tag_424\n      jumpi\n        /* \"#utility.yul\":5685:5764   */\n      tag_425\n      tag_269\n      jump\t// in\n    tag_425:\n        /* \"#utility.yul\":5647:5766   */\n    tag_424:\n        /* \"#utility.yul\":5805:5806   */\n      0x00\n        /* \"#utility.yul\":5830:5883   */\n      tag_426\n        /* \"#utility.yul\":5875:5882   */\n      dup6\n        /* \"#utility.yul\":5866:5872   */\n      dup3\n        /* \"#utility.yul\":5855:5864   */\n      dup7\n        /* \"#utility.yul\":5851:5873   */\n      add\n        /* \"#utility.yul\":5830:5883   */\n      tag_277\n      jump\t// in\n    tag_426:\n        /* \"#utility.yul\":5820:5883   */\n      swap3\n      pop\n        /* \"#utility.yul\":5776:5893   */\n      pop\n        /* \"#utility.yul\":5932:5934   */\n      0x20\n        /* \"#utility.yul\":5958:6011   */\n      tag_427\n        /* \"#utility.yul\":6003:6010   */\n      dup6\n        /* \"#utility.yul\":5994:6000   */\n      dup3\n        /* \"#utility.yul\":5983:5992   */\n      dup7\n        /* \"#utility.yul\":5979:6001   */\n      add\n        /* \"#utility.yul\":5958:6011   */\n      tag_277\n      jump\t// in\n    tag_427:\n        /* \"#utility.yul\":5948:6011   */\n      swap2\n      pop\n        /* \"#utility.yul\":5903:6021   */\n      pop\n        /* \"#utility.yul\":5554:6028   */\n      swap3\n      pop\n      swap3\n      swap1\n      pop\n      jump\t// out\n        /* \"#utility.yul\":6034:6152   */\n    tag_289:\n        /* \"#utility.yul\":6121:6145   */\n      tag_429\n        /* \"#utility.yul\":6139:6144   */\n      dup2\n        /* \"#utility.yul\":6121:6145   */\n      tag_272\n      jump\t// in\n    tag_429:\n        /* \"#utility.yul\":6116:6119   */\n      dup3\n        /* \"#utility.yul\":6109:6146   */\n      mstore\n        /* \"#utility.yul\":6034:6152   */\n      pop\n      pop\n      jump\t// out\n        /* \"#utility.yul\":6158:6490   */\n    tag_58:\n        /* \"#utility.yul\":6279:6283   */\n      0x00\n        /* \"#utility.yul\":6317:6319   */\n      0x40\n        /* \"#utility.yul\":6306:6315   */\n      dup3\n        /* \"#utility.yul\":6302:6320   */\n      add\n        /* \"#utility.yul\":6294:6320   */\n      swap1\n      pop\n        /* \"#utility.yul\":6330:6401   */\n      tag_431\n        /* \"#utility.yul\":6398:6399   */\n      0x00\n        /* \"#utility.yul\":6387:6396   */\n      dup4\n        /* \"#utility.yul\":6383:6400   */\n      add\n        /* \"#utility.yul\":6374:6380   */\n      dup6\n        /* \"#utility.yul\":6330:6401   */\n      tag_289\n      jump\t// in\n    tag_431:\n        /* \"#utility.yul\":6411:6483   */\n      tag_432\n        /* \"#utility.yul\":6479:6481   */\n      0x20\n        /* \"#utility.yul\":6468:6477   */\n      dup4\n        /* \"#utility.yul\":6464:6482   */\n      add\n        /* \"#utility.yul\":6455:6461   */\n      dup5\n        /* \"#utility.yul\":6411:6483   */\n      tag_278\n      jump\t// in\n    tag_432:\n        /* \"#utility.yul\":6158:6490   */\n      swap4\n      swap3\n      pop\n      pop\n      pop\n      jump\t// out\n        /* \"#utility.yul\":6496:6970   */\n    tag_66:\n        /* \"#utility.yul\":6564:6570   */\n      0x00\n        /* \"#utility.yul\":6572:6578   */\n      0x00\n        /* \"#utility.yul\":6621:6623   */\n      0x40\n        /* \"#utility.yul\":6609:6618   */\n      dup4\n        /* \"#utility.yul\":6600:6607   */\n      dup6\n        /* \"#utility.yul\":6596:6619   */\n      sub\n        /* \"#utility.yul\":6592:6624   */\n      slt\n        /* \"#utility.yul\":6589:6708   */\n      iszero\n      tag_434\n      jumpi\n        /* \"#utility.yul\":6627:6706   */\n      tag_435\n      tag_269\n      jump\t// in\n    tag_435:\n        /* \"#utility.yul\":6589:6708   */\n    tag_434:\n        /* \"#utility.yul\":6747:6748   */\n      0x00\n        /* \"#utility.yul\":6772:6825   */\n      tag_436\n        /* \"#utility.yul\":6817:6824   */\n      dup6\n        /* \"#utility.yul\":6808:6814   */\n      dup3\n        /* \"#utility.yul\":6797:6806   */\n      dup7\n        /* \"#utility.yul\":6793:6815   */\n      add\n        /* \"#utility.yul\":6772:6825   */\n      tag_277\n      jump\t// in\n    tag_436:\n        /* \"#utility.yul\":6762:6825   */\n      swap3\n      pop\n        /* \"#utility.yul\":6718:6835   */\n      pop\n        /* \"#utility.yul\":6874:6876   */\n      0x20\n        /* \"#utility.yul\":6900:6953   */\n      tag_437\n        /* \"#utility.yul\":6945:6952   */\n      dup6\n        /* \"#utility.yul\":6936:6942   */\n      dup3\n        /* \"#utility.yul\":6925:6934   */\n      dup7\n        /* \"#utility.yul\":6921:6943   */\n      add\n        /* \"#utility.yul\":6900:6953   */\n      tag_274\n      jump\t// in\n    tag_437:\n        /* \"#utility.yul\":6890:6953   */\n      swap2\n      pop\n        /* \"#utility.yul\":6845:6963   */\n      pop\n        /* \"#utility.yul\":6496:6970   */\n      swap3\n      pop\n      swap3\n      swap1\n      pop\n      jump\t// out\n        /* \"#utility.yul\":6976:7093   */\n    tag_290:\n        /* \"#utility.yul\":7085:7086   */\n      0x00\n        /* \"#utility.yul\":7082:7083   */\n      0x00\n        /* \"#utility.yul\":7075:7087   */\n      revert\n        /* \"#utility.yul\":7099:7216   */\n    tag_291:\n        /* \"#utility.yul\":7208:7209   */\n      0x00\n        /* \"#utility.yul\":7205:7206   */\n      0x00\n        /* \"#utility.yul\":7198:7210   */\n      revert\n        /* \"#utility.yul\":7222:7339   */\n    tag_292:\n        /* \"#utility.yul\":7331:7332   */\n      0x00\n        /* \"#utility.yul\":7328:7329   */\n      0x00\n        /* \"#utility.yul\":7321:7333   */\n      revert\n        /* \"#utility.yul\":7362:7930   */\n    tag_293:\n        /* \"#utility.yul\":7435:7443   */\n      0x00\n        /* \"#utility.yul\":7445:7451   */\n      0x00\n        /* \"#utility.yul\":7495:7498   */\n      dup4\n        /* \"#utility.yul\":7488:7492   */\n      0x1f\n        /* \"#utility.yul\":7480:7486   */\n      dup5\n        /* \"#utility.yul\":7476:7493   */\n      add\n        /* \"#utility.yul\":7472:7499   */\n      slt\n        /* \"#utility.yul\":7462:7584   */\n      tag_442\n      jumpi\n        /* \"#utility.yul\":7503:7582   */\n      tag_443\n      tag_290\n      jump\t// in\n    tag_443:\n        /* \"#utility.yul\":7462:7584   */\n    tag_442:\n        /* \"#utility.yul\":7616:7622   */\n      dup3\n        /* \"#utility.yul\":7603:7623   */\n      calldataload\n        /* \"#utility.yul\":7593:7623   */\n      swap1\n      pop\n        /* \"#utility.yul\":7646:7664   */\n      0xffffffffffffffff\n        /* \"#utility.yul\":7638:7644   */\n      dup2\n        /* \"#utility.yul\":7635:7665   */\n      gt\n        /* \"#utility.yul\":7632:7749   */\n      iszero\n      tag_444\n      jumpi\n        /* \"#utility.yul\":7668:7747   */\n      tag_445\n      tag_291\n      jump\t// in\n    tag_445:\n        /* \"#utility.yul\":7632:7749   */\n    tag_444:\n        /* \"#utility.yul\":7782:7786   */\n      0x20\n        /* \"#utility.yul\":7774:7780   */\n      dup4\n        /* \"#utility.yul\":7770:7787   */\n      add\n        /* \"#utility.yul\":7758:7787   */\n      swap2\n      pop\n        /* \"#utility.yul\":7836:7839   */\n      dup4\n        /* \"#utility.yul\":7828:7832   */\n      0x20\n        /* \"#utility.yul\":7820:7826   */\n      dup3\n        /* \"#utility.yul\":7816:7833   */\n      mul\n        /* \"#utility.yul\":7806:7814   */\n      dup4\n        /* \"#utility.yul\":7802:7834   */\n      add\n        /* \"#utility.yul\":7799:7840   */\n      gt\n        /* \"#utility.yul\":7796:7924   */\n      iszero\n      tag_446\n      jumpi\n        /* \"#utility.yul\":7843:7922   */\n      tag_447\n      tag_292\n      jump\t// in\n    tag_447:\n        /* \"#utility.yul\":7796:7924   */\n    tag_446:\n        /* \"#utility.yul\":7362:7930   */\n      swap3\n      pop\n      swap3\n      swap1\n      pop\n      jump\t// out\n        /* \"#utility.yul\":7953:8521   */\n    tag_294:\n        /* \"#utility.yul\":8026:8034   */\n      0x00\n        /* \"#utility.yul\":8036:8042   */\n      0x00\n        /* \"#utility.yul\":8086:8089   */\n      dup4\n        /* \"#utility.yul\":8079:8083   */\n      0x1f\n        /* \"#utility.yul\":8071:8077   */\n      dup5\n        /* \"#utility.yul\":8067:8084   */\n      add\n        /* \"#utility.yul\":8063:8090   */\n      slt\n        /* \"#utility.yul\":8053:8175   */\n      tag_449\n      jumpi\n        /* \"#utility.yul\":8094:8173   */\n      tag_450\n      tag_290\n      jump\t// in\n    tag_450:\n        /* \"#utility.yul\":8053:8175   */\n    tag_449:\n        /* \"#utility.yul\":8207:8213   */\n      dup3\n        /* \"#utility.yul\":8194:8214   */\n      calldataload\n        /* \"#utility.yul\":8184:8214   */\n      swap1\n      pop\n        /* \"#utility.yul\":8237:8255   */\n      0xffffffffffffffff\n        /* \"#utility.yul\":8229:8235   */\n      dup2\n        /* \"#utility.yul\":8226:8256   */\n      gt\n        /* \"#utility.yul\":8223:8340   */\n      iszero\n      tag_451\n      jumpi\n        /* \"#utility.yul\":8259:8338   */\n      tag_452\n      tag_291\n      jump\t// in\n    tag_452:\n        /* \"#utility.yul\":8223:8340   */\n    tag_451:\n        /* \"#utility.yul\":8373:8377   */\n      0x20\n        /* \"#utility.yul\":8365:8371   */\n      dup4\n        /* \"#utility.yul\":8361:8378   */\n      add\n        /* \"#utility.yul\":8349:8378   */\n      swap2\n      pop\n        /* \"#utility.yul\":8427:8430   */\n      dup4\n        /* \"#utility.yul\":8419:8423   */\n      0x20\n        /* \"#utility.yul\":8411:8417   */\n      dup3\n        /* \"#utility.yul\":8407:8424   */\n      mul\n        /* \"#utility.yul\":8397:8405   */\n      dup4\n        /* \"#utility.yul\":8393:8425   */\n      add\n        /* \"#utility.yul\":8390:8431   */\n      gt\n        /* \"#utility.yul\":8387:8515   */\n      iszero\n      tag_453\n      jumpi\n        /* \"#utility.yul\":8434:8513   */\n      tag_454\n      tag_292\n      jump\t// in\n    tag_454:\n        /* \"#utility.yul\":8387:8515   */\n    tag_453:\n        /* \"#utility.yul\":7953:8521   */\n      swap3\n      pop\n      swap3\n      swap1\n      pop\n      jump\t// out\n        /* \"#utility.yul\":8527:9461   */\n    tag_75:\n        /* \"#utility.yul\":8649:8655   */\n      0x00\n        /* \"#utility.yul\":8657:8663   */\n      0x00\n        /* \"#utility.yul\":8665:8671   */\n      0x00\n        /* \"#utility.yul\":8673:8679   */\n      0x00\n        /* \"#utility.yul\":8722:8724   */\n      0x40\n        /* \"#utility.yul\":8710:8719   */\n      dup6\n        /* \"#utility.yul\":8701:8708   */\n      dup8\n        /* \"#utility.yul\":8697:8720   */\n      sub\n        /* \"#utility.yul\":8693:8725   */\n      slt\n        /* \"#utility.yul\":8690:8809   */\n      iszero\n      tag_456\n      jumpi\n        /* \"#utility.yul\":8728:8807   */\n      tag_457\n      tag_269\n      jump\t// in\n    tag_457:\n        /* \"#utility.yul\":8690:8809   */\n    tag_456:\n        /* \"#utility.yul\":8876:8877   */\n      0x00\n        /* \"#utility.yul\":8865:8874   */\n      dup6\n        /* \"#utility.yul\":8861:8878   */\n      add\n        /* \"#utility.yul\":8848:8879   */\n      calldataload\n        /* \"#utility.yul\":8906:8924   */\n      0xffffffffffffffff\n        /* \"#utility.yul\":8898:8904   */\n      dup2\n        /* \"#utility.yul\":8895:8925   */\n      gt\n        /* \"#utility.yul\":8892:9009   */\n      iszero\n      tag_458\n      jumpi\n        /* \"#utility.yul\":8928:9007   */\n      tag_459\n      tag_270\n      jump\t// in\n    tag_459:\n        /* \"#utility.yul\":8892:9009   */\n    tag_458:\n        /* \"#utility.yul\":9041:9121   */\n      tag_460\n        /* \"#utility.yul\":9113:9120   */\n      dup8\n        /* \"#utility.yul\":9104:9110   */\n      dup3\n        /* \"#utility.yul\":9093:9102   */\n      dup9\n        /* \"#utility.yul\":9089:9111   */\n      add\n        /* \"#utility.yul\":9041:9121   */\n      tag_293\n      jump\t// in\n    tag_460:\n        /* \"#utility.yul\":9023:9121   */\n      swap5\n      pop\n      swap5\n      pop\n        /* \"#utility.yul\":8819:9131   */\n      pop\n        /* \"#utility.yul\":9198:9200   */\n      0x20\n        /* \"#utility.yul\":9187:9196   */\n      dup6\n        /* \"#utility.yul\":9183:9201   */\n      add\n        /* \"#utility.yul\":9170:9202   */\n      calldataload\n        /* \"#utility.yul\":9229:9247   */\n      0xffffffffffffffff\n        /* \"#utility.yul\":9221:9227   */\n      dup2\n        /* \"#utility.yul\":9218:9248   */\n      gt\n        /* \"#utility.yul\":9215:9332   */\n      iszero\n      tag_461\n      jumpi\n        /* \"#utility.yul\":9251:9330   */\n      tag_462\n      tag_270\n      jump\t// in\n    tag_462:\n        /* \"#utility.yul\":9215:9332   */\n    tag_461:\n        /* \"#utility.yul\":9364:9444   */\n      tag_463\n        /* \"#utility.yul\":9436:9443   */\n      dup8\n        /* \"#utility.yul\":9427:9433   */\n      dup3\n        /* \"#utility.yul\":9416:9425   */\n      dup9\n        /* \"#utility.yul\":9412:9434   */\n      add\n        /* \"#utility.yul\":9364:9444   */\n      tag_294\n      jump\t// in\n    tag_463:\n        /* \"#utility.yul\":9346:9444   */\n      swap3\n      pop\n      swap3\n      pop\n        /* \"#utility.yul\":9141:9454   */\n      pop\n        /* \"#utility.yul\":8527:9461   */\n      swap3\n      swap6\n      swap2\n      swap5\n      pop\n      swap3\n      pop\n      jump\t// out\n        /* \"#utility.yul\":9467:9581   */\n    tag_295:\n        /* \"#utility.yul\":9534:9540   */\n      0x00\n        /* \"#utility.yul\":9568:9573   */\n      dup2\n        /* \"#utility.yul\":9562:9574   */\n      mload\n        /* \"#utility.yul\":9552:9574   */\n      swap1\n      pop\n        /* \"#utility.yul\":9467:9581   */\n      swap2\n      swap1\n      pop\n      jump\t// out\n        /* \"#utility.yul\":9587:9771   */\n    tag_296:\n        /* \"#utility.yul\":9686:9697   */\n      0x00\n        /* \"#utility.yul\":9720:9726   */\n      dup3\n        /* \"#utility.yul\":9715:9718   */\n      dup3\n        /* \"#utility.yul\":9708:9727   */\n      mstore\n        /* \"#utility.yul\":9760:9764   */\n      0x20\n        /* \"#utility.yul\":9755:9758   */\n      dup3\n        /* \"#utility.yul\":9751:9765   */\n      add\n        /* \"#utility.yul\":9736:9765   */\n      swap1\n      pop\n        /* \"#utility.yul\":9587:9771   */\n      swap3\n      swap2\n      pop\n      pop\n      jump\t// out\n        /* \"#utility.yul\":9777:9909   */\n    tag_297:\n        /* \"#utility.yul\":9844:9848   */\n      0x00\n        /* \"#utility.yul\":9867:9870   */\n      dup2\n        /* \"#utility.yul\":9859:9870   */\n      swap1\n      pop\n        /* \"#utility.yul\":9897:9901   */\n      0x20\n        /* \"#utility.yul\":9892:9895   */\n      dup3\n        /* \"#utility.yul\":9888:9902   */\n      add\n        /* \"#utility.yul\":9880:9902   */\n      swap1\n      pop\n        /* \"#utility.yul\":9777:9909   */\n      swap2\n      swap1\n      pop\n      jump\t// out\n        /* \"#utility.yul\":9915:10023   */\n    tag_298:\n        /* \"#utility.yul\":9992:10016   */\n      tag_468\n        /* \"#utility.yul\":10010:10015   */\n      dup2\n        /* \"#utility.yul\":9992:10016   */\n      tag_275\n      jump\t// in\n    tag_468:\n        /* \"#utility.yul\":9987:9990   */\n      dup3\n        /* \"#utility.yul\":9980:10017   */\n      mstore\n        /* \"#utility.yul\":9915:10023   */\n      pop\n      pop\n      jump\t// out\n        /* \"#utility.yul\":10029:10208   */\n    tag_299:\n        /* \"#utility.yul\":10098:10108   */\n      0x00\n        /* \"#utility.yul\":10119:10165   */\n      tag_470\n        /* \"#utility.yul\":10161:10164   */\n      dup4\n        /* \"#utility.yul\":10153:10159   */\n      dup4\n        /* \"#utility.yul\":10119:10165   */\n      tag_298\n      jump\t// in\n    tag_470:\n        /* \"#utility.yul\":10197:10201   */\n      0x20\n        /* \"#utility.yul\":10192:10195   */\n      dup4\n        /* \"#utility.yul\":10188:10202   */\n      add\n        /* \"#utility.yul\":10174:10202   */\n      swap1\n      pop\n        /* \"#utility.yul\":10029:10208   */\n      swap3\n      swap2\n      pop\n      pop\n      jump\t// out\n        /* \"#utility.yul\":10214:10327   */\n    tag_300:\n        /* \"#utility.yul\":10284:10288   */\n      0x00\n        /* \"#utility.yul\":10316:10320   */\n      0x20\n        /* \"#utility.yul\":10311:10314   */\n      dup3\n        /* \"#utility.yul\":10307:10321   */\n      add\n        /* \"#utility.yul\":10299:10321   */\n      swap1\n      pop\n        /* \"#utility.yul\":10214:10327   */\n      swap2\n      swap1\n      pop\n      jump\t// out\n        /* \"#utility.yul\":10363:11095   */\n    tag_301:\n        /* \"#utility.yul\":10482:10485   */\n      0x00\n        /* \"#utility.yul\":10511:10565   */\n      tag_473\n        /* \"#utility.yul\":10559:10564   */\n      dup3\n        /* \"#utility.yul\":10511:10565   */\n      tag_295\n      jump\t// in\n    tag_473:\n        /* \"#utility.yul\":10581:10667   */\n      tag_474\n        /* \"#utility.yul\":10660:10666   */\n      dup2\n        /* \"#utility.yul\":10655:10658   */\n      dup6\n        /* \"#utility.yul\":10581:10667   */\n      tag_296\n      jump\t// in\n    tag_474:\n        /* \"#utility.yul\":10574:10667   */\n      swap4\n      pop\n        /* \"#utility.yul\":10691:10747   */\n      tag_475\n        /* \"#utility.yul\":10741:10746   */\n      dup4\n        /* \"#utility.yul\":10691:10747   */\n      tag_297\n      jump\t// in\n    tag_475:\n        /* \"#utility.yul\":10770:10777   */\n      dup1\n        /* \"#utility.yul\":10801:10802   */\n      0x00\n        /* \"#utility.yul\":10786:11070   */\n    tag_476:\n        /* \"#utility.yul\":10811:10817   */\n      dup4\n        /* \"#utility.yul\":10808:10809   */\n      dup2\n        /* \"#utility.yul\":10805:10818   */\n      lt\n        /* \"#utility.yul\":10786:11070   */\n      iszero\n      tag_478\n      jumpi\n        /* \"#utility.yul\":10887:10893   */\n      dup2\n        /* \"#utility.yul\":10881:10894   */\n      mload\n        /* \"#utility.yul\":10914:10977   */\n      tag_479\n        /* \"#utility.yul\":10973:10976   */\n      dup9\n        /* \"#utility.yul\":10958:10971   */\n      dup3\n        /* \"#utility.yul\":10914:10977   */\n      tag_299\n      jump\t// in\n    tag_479:\n        /* \"#utility.yul\":10907:10977   */\n      swap8\n      pop\n        /* \"#utility.yul\":11000:11060   */\n      tag_480\n        /* \"#utility.yul\":11053:11059   */\n      dup4\n        /* \"#utility.yul\":11000:11060   */\n      tag_300\n      jump\t// in\n    tag_480:\n        /* \"#utility.yul\":10990:11060   */\n      swap3\n      pop\n        /* \"#utility.yul\":10846:11070   */\n      pop\n        /* \"#utility.yul\":10833:10834   */\n      0x01\n        /* \"#utility.yul\":10830:10831   */\n      dup2\n        /* \"#utility.yul\":10826:10835   */\n      add\n        /* \"#utility.yul\":10821:10835   */\n      swap1\n      pop\n        /* \"#utility.yul\":10786:11070   */\n      jump(tag_476)\n    tag_478:\n        /* \"#utility.yul\":10790:10804   */\n      pop\n        /* \"#utility.yul\":11086:11089   */\n      dup6\n        /* \"#utility.yul\":11079:11089   */\n      swap4\n      pop\n        /* \"#utility.yul\":10487:11095   */\n      pop\n      pop\n      pop\n        /* \"#utility.yul\":10363:11095   */\n      swap3\n      swap2\n      pop\n      pop\n      jump\t// out\n        /* \"#utility.yul\":11101:11474   */\n    tag_78:\n        /* \"#utility.yul\":11244:11248   */\n      0x00\n        /* \"#utility.yul\":11282:11284   */\n      0x20\n        /* \"#utility.yul\":11271:11280   */\n      dup3\n        /* \"#utility.yul\":11267:11285   */\n      add\n        /* \"#utility.yul\":11259:11285   */\n      swap1\n      pop\n        /* \"#utility.yul\":11331:11340   */\n      dup2\n        /* \"#utility.yul\":11325:11329   */\n      dup2\n        /* \"#utility.yul\":11321:11341   */\n      sub\n        /* \"#utility.yul\":11317:11318   */\n      0x00\n        /* \"#utility.yul\":11306:11315   */\n      dup4\n        /* \"#utility.yul\":11302:11319   */\n      add\n        /* \"#utility.yul\":11295:11342   */\n      mstore\n        /* \"#utility.yul\":11359:11467   */\n      tag_482\n        /* \"#utility.yul\":11462:11466   */\n      dup2\n        /* \"#utility.yul\":11453:11459   */\n      dup5\n        /* \"#utility.yul\":11359:11467   */\n      tag_301\n      jump\t// in\n    tag_482:\n        /* \"#utility.yul\":11351:11467   */\n      swap1\n      pop\n        /* \"#utility.yul\":11101:11474   */\n      swap3\n      swap2\n      pop\n      pop\n      jump\t// out\n        /* \"#utility.yul\":11480:12354   */\n    tag_84:\n        /* \"#utility.yul\":11735:11739   */\n      0x00\n        /* \"#utility.yul\":11773:11776   */\n      0xe0\n        /* \"#utility.yul\":11762:11771   */\n      dup3\n        /* \"#utility.yul\":11758:11777   */\n      add\n        /* \"#utility.yul\":11750:11777   */\n      swap1\n      pop\n        /* \"#utility.yul\":11787:11858   */\n      tag_484\n        /* \"#utility.yul\":11855:11856   */\n      0x00\n        /* \"#utility.yul\":11844:11853   */\n      dup4\n        /* \"#utility.yul\":11840:11857   */\n      add\n        /* \"#utility.yul\":11831:11837   */\n      dup11\n        /* \"#utility.yul\":11787:11858   */\n      tag_289\n      jump\t// in\n    tag_484:\n        /* \"#utility.yul\":11868:11940   */\n      tag_485\n        /* \"#utility.yul\":11936:11938   */\n      0x20\n        /* \"#utility.yul\":11925:11934   */\n      dup4\n        /* \"#utility.yul\":11921:11939   */\n      add\n        /* \"#utility.yul\":11912:11918   */\n      dup10\n        /* \"#utility.yul\":11868:11940   */\n      tag_278\n      jump\t// in\n    tag_485:\n        /* \"#utility.yul\":11950:12022   */\n      tag_486\n        /* \"#utility.yul\":12018:12020   */\n      0x40\n        /* \"#utility.yul\":12007:12016   */\n      dup4\n        /* \"#utility.yul\":12003:12021   */\n      add\n        /* \"#utility.yul\":11994:12000   */\n      dup9\n        /* \"#utility.yul\":11950:12022   */\n      tag_278\n      jump\t// in\n    tag_486:\n        /* \"#utility.yul\":12032:12104   */\n      tag_487\n        /* \"#utility.yul\":12100:12102   */\n      0x60\n        /* \"#utility.yul\":12089:12098   */\n      dup4\n        /* \"#utility.yul\":12085:12103   */\n      add\n        /* \"#utility.yul\":12076:12082   */\n      dup8\n        /* \"#utility.yul\":12032:12104   */\n      tag_278\n      jump\t// in\n    tag_487:\n        /* \"#utility.yul\":12114:12187   */\n      tag_488\n        /* \"#utility.yul\":12182:12185   */\n      0x80\n        /* \"#utility.yul\":12171:12180   */\n      dup4\n        /* \"#utility.yul\":12167:12186   */\n      add\n        /* \"#utility.yul\":12158:12164   */\n      dup7\n        /* \"#utility.yul\":12114:12187   */\n      tag_278\n      jump\t// in\n    tag_488:\n        /* \"#utility.yul\":12197:12270   */\n      tag_489\n        /* \"#utility.yul\":12265:12268   */\n      0xa0\n        /* \"#utility.yul\":12254:12263   */\n      dup4\n        /* \"#utility.yul\":12250:12269   */\n      add\n        /* \"#utility.yul\":12241:12247   */\n      dup6\n        /* \"#utility.yul\":12197:12270   */\n      tag_289\n      jump\t// in\n    tag_489:\n        /* \"#utility.yul\":12280:12347   */\n      tag_490\n        /* \"#utility.yul\":12342:12345   */\n      0xc0\n        /* \"#utility.yul\":12331:12340   */\n      dup4\n        /* \"#utility.yul\":12327:12346   */\n      add\n        /* \"#utility.yul\":12318:12324   */\n      dup5\n        /* \"#utility.yul\":12280:12347   */\n      tag_283\n      jump\t// in\n    tag_490:\n        /* \"#utility.yul\":11480:12354   */\n      swap9\n      swap8\n      pop\n      pop\n      pop\n      pop\n      pop\n      pop\n      pop\n      pop\n      jump\t// out\n        /* \"#utility.yul\":12360:12476   */\n    tag_302:\n        /* \"#utility.yul\":12430:12451   */\n      tag_492\n        /* \"#utility.yul\":12445:12450   */\n      dup2\n        /* \"#utility.yul\":12430:12451   */\n      tag_282\n      jump\t// in\n    tag_492:\n        /* \"#utility.yul\":12423:12428   */\n      dup2\n        /* \"#utility.yul\":12420:12452   */\n      eq\n        /* \"#utility.yul\":12410:12470   */\n      tag_493\n      jumpi\n        /* \"#utility.yul\":12466:12467   */\n      0x00\n        /* \"#utility.yul\":12463:12464   */\n      0x00\n        /* \"#utility.yul\":12456:12468   */\n      revert\n        /* \"#utility.yul\":12410:12470   */\n    tag_493:\n        /* \"#utility.yul\":12360:12476   */\n      pop\n      jump\t// out\n        /* \"#utility.yul\":12482:12615   */\n    tag_303:\n        /* \"#utility.yul\":12525:12530   */\n      0x00\n        /* \"#utility.yul\":12563:12569   */\n      dup2\n        /* \"#utility.yul\":12550:12570   */\n      calldataload\n        /* \"#utility.yul\":12541:12570   */\n      swap1\n      pop\n        /* \"#utility.yul\":12579:12609   */\n      tag_495\n        /* \"#utility.yul\":12603:12608   */\n      dup2\n        /* \"#utility.yul\":12579:12609   */\n      tag_302\n      jump\t// in\n    tag_495:\n        /* \"#utility.yul\":12482:12615   */\n      swap3\n      swap2\n      pop\n      pop\n      jump\t// out\n        /* \"#utility.yul\":12621:13089   */\n    tag_88:\n        /* \"#utility.yul\":12686:12692   */\n      0x00\n        /* \"#utility.yul\":12694:12700   */\n      0x00\n        /* \"#utility.yul\":12743:12745   */\n      0x40\n        /* \"#utility.yul\":12731:12740   */\n      dup4\n        /* \"#utility.yul\":12722:12729   */\n      dup6\n        /* \"#utility.yul\":12718:12741   */\n      sub\n        /* \"#utility.yul\":12714:12746   */\n      slt\n        /* \"#utility.yul\":12711:12830   */\n      iszero\n      tag_497\n      jumpi\n        /* \"#utility.yul\":12749:12828   */\n      tag_498\n      tag_269\n      jump\t// in\n    tag_498:\n        /* \"#utility.yul\":12711:12830   */\n    tag_497:\n        /* \"#utility.yul\":12869:12870   */\n      0x00\n        /* \"#utility.yul\":12894:12947   */\n      tag_499\n        /* \"#utility.yul\":12939:12946   */\n      dup6\n        /* \"#utility.yul\":12930:12936   */\n      dup3\n        /* \"#utility.yul\":12919:12928   */\n      dup7\n        /* \"#utility.yul\":12915:12937   */\n      add\n        /* \"#utility.yul\":12894:12947   */\n      tag_274\n      jump\t// in\n    tag_499:\n        /* \"#utility.yul\":12884:12947   */\n      swap3\n      pop\n        /* \"#utility.yul\":12840:12957   */\n      pop\n        /* \"#utility.yul\":12996:12998   */\n      0x20\n        /* \"#utility.yul\":13022:13072   */\n      tag_500\n        /* \"#utility.yul\":13064:13071   */\n      dup6\n        /* \"#utility.yul\":13055:13061   */\n      dup3\n        /* \"#utility.yul\":13044:13053   */\n      dup7\n        /* \"#utility.yul\":13040:13062   */\n      add\n        /* \"#utility.yul\":13022:13072   */\n      tag_303\n      jump\t// in\n    tag_500:\n        /* \"#utility.yul\":13012:13072   */\n      swap2\n      pop\n        /* \"#utility.yul\":12967:13082   */\n      pop\n        /* \"#utility.yul\":12621:13089   */\n      swap3\n      pop\n      swap3\n      swap1\n      pop\n      jump\t// out\n        /* \"#utility.yul\":13095:13714   */\n    tag_97:\n        /* \"#utility.yul\":13172:13178   */\n      0x00\n        /* \"#utility.yul\":13180:13186   */\n      0x00\n        /* \"#utility.yul\":13188:13194   */\n      0x00\n        /* \"#utility.yul\":13237:13239   */\n      0x60\n        /* \"#utility.yul\":13225:13234   */\n      dup5\n        /* \"#utility.yul\":13216:13223   */\n      dup7\n        /* \"#utility.yul\":13212:13235   */\n      sub\n        /* \"#utility.yul\":13208:13240   */\n      slt\n        /* \"#utility.yul\":13205:13324   */\n      iszero\n      tag_502\n      jumpi\n        /* \"#utility.yul\":13243:13322   */\n      tag_503\n      tag_269\n      jump\t// in\n    tag_503:\n        /* \"#utility.yul\":13205:13324   */\n    tag_502:\n        /* \"#utility.yul\":13363:13364   */\n      0x00\n        /* \"#utility.yul\":13388:13441   */\n      tag_504\n        /* \"#utility.yul\":13433:13440   */\n      dup7\n        /* \"#utility.yul\":13424:13430   */\n      dup3\n        /* \"#utility.yul\":13413:13422   */\n      dup8\n        /* \"#utility.yul\":13409:13431   */\n      add\n        /* \"#utility.yul\":13388:13441   */\n      tag_277\n      jump\t// in\n    tag_504:\n        /* \"#utility.yul\":13378:13441   */\n      swap4\n      pop\n        /* \"#utility.yul\":13334:13451   */\n      pop\n        /* \"#utility.yul\":13490:13492   */\n      0x20\n        /* \"#utility.yul\":13516:13569   */\n      tag_505\n        /* \"#utility.yul\":13561:13568   */\n      dup7\n        /* \"#utility.yul\":13552:13558   */\n      dup3\n        /* \"#utility.yul\":13541:13550   */\n      dup8\n        /* \"#utility.yul\":13537:13559   */\n      add\n        /* \"#utility.yul\":13516:13569   */\n      tag_277\n      jump\t// in\n    tag_505:\n        /* \"#utility.yul\":13506:13569   */\n      swap3\n      pop\n        /* \"#utility.yul\":13461:13579   */\n      pop\n        /* \"#utility.yul\":13618:13620   */\n      0x40\n        /* \"#utility.yul\":13644:13697   */\n      tag_506\n        /* \"#utility.yul\":13689:13696   */\n      dup7\n        /* \"#utility.yul\":13680:13686   */\n      dup3\n        /* \"#utility.yul\":13669:13678   */\n      dup8\n        /* \"#utility.yul\":13665:13687   */\n      add\n        /* \"#utility.yul\":13644:13697   */\n      tag_277\n      jump\t// in\n    tag_506:\n        /* \"#utility.yul\":13634:13697   */\n      swap2\n      pop\n        /* \"#utility.yul\":13589:13707   */\n      pop\n        /* \"#utility.yul\":13095:13714   */\n      swap3\n      pop\n      swap3\n      pop\n      swap3\n      jump\t// out\n        /* \"#utility.yul\":13720:14194   */\n    tag_103:\n        /* \"#utility.yul\":13788:13794   */\n      0x00\n        /* \"#utility.yul\":13796:13802   */\n      0x00\n        /* \"#utility.yul\":13845:13847   */\n      0x40\n        /* \"#utility.yul\":13833:13842   */\n      dup4\n        /* \"#utility.yul\":13824:13831   */\n      dup6\n        /* \"#utility.yul\":13820:13843   */\n      sub\n        /* \"#utility.yul\":13816:13848   */\n      slt\n        /* \"#utility.yul\":13813:13932   */\n      iszero\n      tag_508\n      jumpi\n        /* \"#utility.yul\":13851:13930   */\n      tag_509\n      tag_269\n      jump\t// in\n    tag_509:\n        /* \"#utility.yul\":13813:13932   */\n    tag_508:\n        /* \"#utility.yul\":13971:13972   */\n      0x00\n        /* \"#utility.yul\":13996:14049   */\n      tag_510\n        /* \"#utility.yul\":14041:14048   */\n      dup6\n        /* \"#utility.yul\":14032:14038   */\n      dup3\n        /* \"#utility.yul\":14021:14030   */\n      dup7\n        /* \"#utility.yul\":14017:14039   */\n      add\n        /* \"#utility.yul\":13996:14049   */\n      tag_274\n      jump\t// in\n    tag_510:\n        /* \"#utility.yul\":13986:14049   */\n      swap3\n      pop\n        /* \"#utility.yul\":13942:14059   */\n      pop\n        /* \"#utility.yul\":14098:14100   */\n      0x20\n        /* \"#utility.yul\":14124:14177   */\n      tag_511\n        /* \"#utility.yul\":14169:14176   */\n      dup6\n        /* \"#utility.yul\":14160:14166   */\n      dup3\n        /* \"#utility.yul\":14149:14158   */\n      dup7\n        /* \"#utility.yul\":14145:14167   */\n      add\n        /* \"#utility.yul\":14124:14177   */\n      tag_274\n      jump\t// in\n    tag_511:\n        /* \"#utility.yul\":14114:14177   */\n      swap2\n      pop\n        /* \"#utility.yul\":14069:14187   */\n      pop\n        /* \"#utility.yul\":13720:14194   */\n      swap3\n      pop\n      swap3\n      swap1\n      pop\n      jump\t// out\n        /* \"#utility.yul\":14200:15425   */\n    tag_109:\n        /* \"#utility.yul\":14340:14346   */\n      0x00\n        /* \"#utility.yul\":14348:14354   */\n      0x00\n        /* \"#utility.yul\":14356:14362   */\n      0x00\n        /* \"#utility.yul\":14364:14370   */\n      0x00\n        /* \"#utility.yul\":14372:14378   */\n      0x00\n        /* \"#utility.yul\":14380:14386   */\n      0x00\n        /* \"#utility.yul\":14429:14432   */\n      0x80\n        /* \"#utility.yul\":14417:14426   */\n      dup8\n        /* \"#utility.yul\":14408:14415   */\n      dup10\n        /* \"#utility.yul\":14404:14427   */\n      sub\n        /* \"#utility.yul\":14400:14433   */\n      slt\n        /* \"#utility.yul\":14397:14517   */\n      iszero\n      tag_513\n      jumpi\n        /* \"#utility.yul\":14436:14515   */\n      tag_514\n      tag_269\n      jump\t// in\n    tag_514:\n        /* \"#utility.yul\":14397:14517   */\n    tag_513:\n        /* \"#utility.yul\":14556:14557   */\n      0x00\n        /* \"#utility.yul\":14581:14634   */\n      tag_515\n        /* \"#utility.yul\":14626:14633   */\n      dup10\n        /* \"#utility.yul\":14617:14623   */\n      dup3\n        /* \"#utility.yul\":14606:14615   */\n      dup11\n        /* \"#utility.yul\":14602:14624   */\n      add\n        /* \"#utility.yul\":14581:14634   */\n      tag_274\n      jump\t// in\n    tag_515:\n        /* \"#utility.yul\":14571:14634   */\n      swap7\n      pop\n        /* \"#utility.yul\":14527:14644   */\n      pop\n        /* \"#utility.yul\":14683:14685   */\n      0x20\n        /* \"#utility.yul\":14709:14762   */\n      tag_516\n        /* \"#utility.yul\":14754:14761   */\n      dup10\n        /* \"#utility.yul\":14745:14751   */\n      dup3\n        /* \"#utility.yul\":14734:14743   */\n      dup11\n        /* \"#utility.yul\":14730:14752   */\n      add\n        /* \"#utility.yul\":14709:14762   */\n      tag_274\n      jump\t// in\n    tag_516:\n        /* \"#utility.yul\":14699:14762   */\n      swap6\n      pop\n        /* \"#utility.yul\":14654:14772   */\n      pop\n        /* \"#utility.yul\":14839:14841   */\n      0x40\n        /* \"#utility.yul\":14828:14837   */\n      dup8\n        /* \"#utility.yul\":14824:14842   */\n      add\n        /* \"#utility.yul\":14811:14843   */\n      calldataload\n        /* \"#utility.yul\":14870:14888   */\n      0xffffffffffffffff\n        /* \"#utility.yul\":14862:14868   */\n      dup2\n        /* \"#utility.yul\":14859:14889   */\n      gt\n        /* \"#utility.yul\":14856:14973   */\n      iszero\n      tag_517\n      jumpi\n        /* \"#utility.yul\":14892:14971   */\n      tag_518\n      tag_270\n      jump\t// in\n    tag_518:\n        /* \"#utility.yul\":14856:14973   */\n    tag_517:\n        /* \"#utility.yul\":15005:15085   */\n      tag_519\n        /* \"#utility.yul\":15077:15084   */\n      dup10\n        /* \"#utility.yul\":15068:15074   */\n      dup3\n        /* \"#utility.yul\":15057:15066   */\n      dup11\n        /* \"#utility.yul\":15053:15075   */\n      add\n        /* \"#utility.yul\":15005:15085   */\n      tag_294\n      jump\t// in\n    tag_519:\n        /* \"#utility.yul\":14987:15085   */\n      swap5\n      pop\n      swap5\n      pop\n        /* \"#utility.yul\":14782:15095   */\n      pop\n        /* \"#utility.yul\":15162:15164   */\n      0x60\n        /* \"#utility.yul\":15151:15160   */\n      dup8\n        /* \"#utility.yul\":15147:15165   */\n      add\n        /* \"#utility.yul\":15134:15166   */\n      calldataload\n        /* \"#utility.yul\":15193:15211   */\n      0xffffffffffffffff\n        /* \"#utility.yul\":15185:15191   */\n      dup2\n        /* \"#utility.yul\":15182:15212   */\n      gt\n        /* \"#utility.yul\":15179:15296   */\n      iszero\n      tag_520\n      jumpi\n        /* \"#utility.yul\":15215:15294   */\n      tag_521\n      tag_270\n      jump\t// in\n    tag_521:\n        /* \"#utility.yul\":15179:15296   */\n    tag_520:\n        /* \"#utility.yul\":15328:15408   */\n      tag_522\n        /* \"#utility.yul\":15400:15407   */\n      dup10\n        /* \"#utility.yul\":15391:15397   */\n      dup3\n        /* \"#utility.yul\":15380:15389   */\n      dup11\n        /* \"#utility.yul\":15376:15398   */\n      add\n        /* \"#utility.yul\":15328:15408   */\n      tag_294\n      jump\t// in\n    tag_522:\n        /* \"#utility.yul\":15310:15408   */\n      swap3\n      pop\n      swap3\n      pop\n        /* \"#utility.yul\":15105:15418   */\n      pop\n        /* \"#utility.yul\":14200:15425   */\n      swap3\n      swap6\n      pop\n      swap3\n      swap6\n      pop\n      swap3\n      swap6\n      jump\t// out\n        /* \"#utility.yul\":15431:15548   */\n    tag_304:\n        /* \"#utility.yul\":15540:15541   */\n      0x00\n        /* \"#utility.yul\":15537:15538   */\n      0x00\n        /* \"#utility.yul\":15530:15542   */\n      revert\n        /* \"#utility.yul\":15554:15734   */\n    tag_175:\n        /* \"#utility.yul\":15602:15679   */\n      0x4e487b7100000000000000000000000000000000000000000000000000000000\n        /* \"#utility.yul\":15599:15600   */\n      0x00\n        /* \"#utility.yul\":15592:15680   */\n      mstore\n        /* \"#utility.yul\":15699:15703   */\n      0x41\n        /* \"#utility.yul\":15696:15697   */\n      0x04\n        /* \"#utility.yul\":15689:15704   */\n      mstore\n        /* \"#utility.yul\":15723:15727   */\n      0x24\n        /* \"#utility.yul\":15720:15721   */\n      0x00\n        /* \"#utility.yul\":15713:15728   */\n      revert\n        /* \"#utility.yul\":15740:16021   */\n    tag_305:\n        /* \"#utility.yul\":15823:15850   */\n      tag_526\n        /* \"#utility.yul\":15845:15849   */\n      dup3\n        /* \"#utility.yul\":15823:15850   */\n      tag_287\n      jump\t// in\n    tag_526:\n        /* \"#utility.yul\":15815:15821   */\n      dup2\n        /* \"#utility.yul\":15811:15851   */\n      add\n        /* \"#utility.yul\":15953:15959   */\n      dup2\n        /* \"#utility.yul\":15941:15951   */\n      dup2\n        /* \"#utility.yul\":15938:15960   */\n      lt\n        /* \"#utility.yul\":15917:15935   */\n      0xffffffffffffffff\n        /* \"#utility.yul\":15905:15915   */\n      dup3\n        /* \"#utility.yul\":15902:15936   */\n      gt\n        /* \"#utility.yul\":15899:15961   */\n      or\n        /* \"#utility.yul\":15896:15984   */\n      iszero\n      tag_527\n      jumpi\n        /* \"#utility.yul\":15964:15982   */\n      tag_528\n      tag_175\n      jump\t// in\n    tag_528:\n        /* \"#utility.yul\":15896:15984   */\n    tag_527:\n        /* \"#utility.yul\":16004:16014   */\n      dup1\n        /* \"#utility.yul\":16000:16002   */\n      0x40\n        /* \"#utility.yul\":15993:16015   */\n      mstore\n        /* \"#utility.yul\":15783:16021   */\n      pop\n        /* \"#utility.yul\":15740:16021   */\n      pop\n      pop\n      jump\t// out\n        /* \"#utility.yul\":16027:16156   */\n    tag_306:\n        /* \"#utility.yul\":16061:16067   */\n      0x00\n        /* \"#utility.yul\":16088:16108   */\n      tag_530\n      tag_268\n      jump\t// in\n    tag_530:\n        /* \"#utility.yul\":16078:16108   */\n      swap1\n      pop\n        /* \"#utility.yul\":16117:16150   */\n      tag_531\n        /* \"#utility.yul\":16145:16149   */\n      dup3\n        /* \"#utility.yul\":16137:16143   */\n      dup3\n        /* \"#utility.yul\":16117:16150   */\n      tag_305\n      jump\t// in\n    tag_531:\n        /* \"#utility.yul\":16027:16156   */\n      swap2\n      swap1\n      pop\n      jump\t// out\n        /* \"#utility.yul\":16162:16470   */\n    tag_307:\n        /* \"#utility.yul\":16224:16228   */\n      0x00\n        /* \"#utility.yul\":16314:16332   */\n      0xffffffffffffffff\n        /* \"#utility.yul\":16306:16312   */\n      dup3\n        /* \"#utility.yul\":16303:16333   */\n      gt\n        /* \"#utility.yul\":16300:16356   */\n      iszero\n      tag_533\n      jumpi\n        /* \"#utility.yul\":16336:16354   */\n      tag_534\n      tag_175\n      jump\t// in\n    tag_534:\n        /* \"#utility.yul\":16300:16356   */\n    tag_533:\n        /* \"#utility.yul\":16374:16403   */\n      tag_535\n        /* \"#utility.yul\":16396:16402   */\n      dup3\n        /* \"#utility.yul\":16374:16403   */\n      tag_287\n      jump\t// in\n    tag_535:\n        /* \"#utility.yul\":16366:16403   */\n      swap1\n      pop\n        /* \"#utility.yul\":16458:16462   */\n      0x20\n        /* \"#utility.yul\":16452:16456   */\n      dup2\n        /* \"#utility.yul\":16448:16463   */\n      add\n        /* \"#utility.yul\":16440:16463   */\n      swap1\n      pop\n        /* \"#utility.yul\":16162:16470   */\n      swap2\n      swap1\n      pop\n      jump\t// out\n        /* \"#utility.yul\":16476:16624   */\n    tag_308:\n        /* \"#utility.yul\":16574:16580   */\n      dup3\n        /* \"#utility.yul\":16569:16572   */\n      dup2\n        /* \"#utility.yul\":16564:16567   */\n      dup4\n        /* \"#utility.yul\":16551:16581   */\n      calldatacopy\n        /* \"#utility.yul\":16615:16616   */\n      0x00\n        /* \"#utility.yul\":16606:16612   */\n      dup4\n        /* \"#utility.yul\":16601:16604   */\n      dup4\n        /* \"#utility.yul\":16597:16613   */\n      add\n        /* \"#utility.yul\":16590:16617   */\n      mstore\n        /* \"#utility.yul\":16476:16624   */\n      pop\n      pop\n      pop\n      jump\t// out\n        /* \"#utility.yul\":16630:17055   */\n    tag_309:\n        /* \"#utility.yul\":16708:16713   */\n      0x00\n        /* \"#utility.yul\":16733:16799   */\n      tag_538\n        /* \"#utility.yul\":16749:16798   */\n      tag_539\n        /* \"#utility.yul\":16791:16797   */\n      dup5\n        /* \"#utility.yul\":16749:16798   */\n      tag_307\n      jump\t// in\n    tag_539:\n        /* \"#utility.yul\":16733:16799   */\n      tag_306\n      jump\t// in\n    tag_538:\n        /* \"#utility.yul\":16724:16799   */\n      swap1\n      pop\n        /* \"#utility.yul\":16822:16828   */\n      dup3\n        /* \"#utility.yul\":16815:16820   */\n      dup2\n        /* \"#utility.yul\":16808:16829   */\n      mstore\n        /* \"#utility.yul\":16860:16864   */\n      0x20\n        /* \"#utility.yul\":16853:16858   */\n      dup2\n        /* \"#utility.yul\":16849:16865   */\n      add\n        /* \"#utility.yul\":16898:16901   */\n      dup5\n        /* \"#utility.yul\":16889:16895   */\n      dup5\n        /* \"#utility.yul\":16884:16887   */\n      dup5\n        /* \"#utility.yul\":16880:16896   */\n      add\n        /* \"#utility.yul\":16877:16902   */\n      gt\n        /* \"#utility.yul\":16874:16986   */\n      iszero\n      tag_540\n      jumpi\n        /* \"#utility.yul\":16905:16984   */\n      tag_541\n      tag_304\n      jump\t// in\n    tag_541:\n        /* \"#utility.yul\":16874:16986   */\n    tag_540:\n        /* \"#utility.yul\":16995:17049   */\n      tag_542\n        /* \"#utility.yul\":17042:17048   */\n      dup5\n        /* \"#utility.yul\":17037:17040   */\n      dup3\n        /* \"#utility.yul\":17032:17035   */\n      dup6\n        /* \"#utility.yul\":16995:17049   */\n      tag_308\n      jump\t// in\n    tag_542:\n        /* \"#utility.yul\":16714:17055   */\n      pop\n        /* \"#utility.yul\":16630:17055   */\n      swap4\n      swap3\n      pop\n      pop\n      pop\n      jump\t// out\n        /* \"#utility.yul\":17075:17415   */\n    tag_310:\n        /* \"#utility.yul\":17131:17136   */\n      0x00\n        /* \"#utility.yul\":17180:17183   */\n      dup3\n        /* \"#utility.yul\":17173:17177   */\n      0x1f\n        /* \"#utility.yul\":17165:17171   */\n      dup4\n        /* \"#utility.yul\":17161:17178   */\n      add\n        /* \"#utility.yul\":17157:17184   */\n      slt\n        /* \"#utility.yul\":17147:17269   */\n      tag_544\n      jumpi\n        /* \"#utility.yul\":17188:17267   */\n      tag_545\n      tag_290\n      jump\t// in\n    tag_545:\n        /* \"#utility.yul\":17147:17269   */\n    tag_544:\n        /* \"#utility.yul\":17305:17311   */\n      dup2\n        /* \"#utility.yul\":17292:17312   */\n      calldataload\n        /* \"#utility.yul\":17330:17409   */\n      tag_546\n        /* \"#utility.yul\":17405:17408   */\n      dup5\n        /* \"#utility.yul\":17397:17403   */\n      dup3\n        /* \"#utility.yul\":17390:17394   */\n      0x20\n        /* \"#utility.yul\":17382:17388   */\n      dup7\n        /* \"#utility.yul\":17378:17395   */\n      add\n        /* \"#utility.yul\":17330:17409   */\n      tag_309\n      jump\t// in\n    tag_546:\n        /* \"#utility.yul\":17321:17409   */\n      swap2\n      pop\n        /* \"#utility.yul\":17137:17415   */\n      pop\n        /* \"#utility.yul\":17075:17415   */\n      swap3\n      swap2\n      pop\n      pop\n      jump\t// out\n        /* \"#utility.yul\":17421:17530   */\n    tag_311:\n        /* \"#utility.yul\":17457:17464   */\n      0x00\n        /* \"#utility.yul\":17497:17523   */\n      0xffffffffffffffffffffffff\n        /* \"#utility.yul\":17490:17495   */\n      dup3\n        /* \"#utility.yul\":17486:17524   */\n      and\n        /* \"#utility.yul\":17475:17524   */\n      swap1\n      pop\n        /* \"#utility.yul\":17421:17530   */\n      swap2\n      swap1\n      pop\n      jump\t// out\n        /* \"#utility.yul\":17536:17656   */\n    tag_312:\n        /* \"#utility.yul\":17608:17631   */\n      tag_549\n        /* \"#utility.yul\":17625:17630   */\n      dup2\n        /* \"#utility.yul\":17608:17631   */\n      tag_311\n      jump\t// in\n    tag_549:\n        /* \"#utility.yul\":17601:17606   */\n      dup2\n        /* \"#utility.yul\":17598:17632   */\n      eq\n        /* \"#utility.yul\":17588:17650   */\n      tag_550\n      jumpi\n        /* \"#utility.yul\":17646:17647   */\n      0x00\n        /* \"#utility.yul\":17643:17644   */\n      0x00\n        /* \"#utility.yul\":17636:17648   */\n      revert\n        /* \"#utility.yul\":17588:17650   */\n    tag_550:\n        /* \"#utility.yul\":17536:17656   */\n      pop\n      jump\t// out\n        /* \"#utility.yul\":17662:17799   */\n    tag_313:\n        /* \"#utility.yul\":17707:17712   */\n      0x00\n        /* \"#utility.yul\":17745:17751   */\n      dup2\n        /* \"#utility.yul\":17732:17752   */\n      calldataload\n        /* \"#utility.yul\":17723:17752   */\n      swap1\n      pop\n        /* \"#utility.yul\":17761:17793   */\n      tag_552\n        /* \"#utility.yul\":17787:17792   */\n      dup2\n        /* \"#utility.yul\":17761:17793   */\n      tag_312\n      jump\t// in\n    tag_552:\n        /* \"#utility.yul\":17662:17799   */\n      swap3\n      swap2\n      pop\n      pop\n      jump\t// out\n        /* \"#utility.yul\":17805:19040   */\n    tag_114:\n        /* \"#utility.yul\":17918:17924   */\n      0x00\n        /* \"#utility.yul\":17926:17932   */\n      0x00\n        /* \"#utility.yul\":17934:17940   */\n      0x00\n        /* \"#utility.yul\":17942:17948   */\n      0x00\n        /* \"#utility.yul\":17950:17956   */\n      0x00\n        /* \"#utility.yul\":17958:17964   */\n      0x00\n        /* \"#utility.yul\":18007:18010   */\n      0xc0\n        /* \"#utility.yul\":17995:18004   */\n      dup8\n        /* \"#utility.yul\":17986:17993   */\n      dup10\n        /* \"#utility.yul\":17982:18005   */\n      sub\n        /* \"#utility.yul\":17978:18011   */\n      slt\n        /* \"#utility.yul\":17975:18095   */\n      iszero\n      tag_554\n      jumpi\n        /* \"#utility.yul\":18014:18093   */\n      tag_555\n      tag_269\n      jump\t// in\n    tag_555:\n        /* \"#utility.yul\":17975:18095   */\n    tag_554:\n        /* \"#utility.yul\":18134:18135   */\n      0x00\n        /* \"#utility.yul\":18159:18212   */\n      tag_556\n        /* \"#utility.yul\":18204:18211   */\n      dup10\n        /* \"#utility.yul\":18195:18201   */\n      dup3\n        /* \"#utility.yul\":18184:18193   */\n      dup11\n        /* \"#utility.yul\":18180:18202   */\n      add\n        /* \"#utility.yul\":18159:18212   */\n      tag_274\n      jump\t// in\n    tag_556:\n        /* \"#utility.yul\":18149:18212   */\n      swap7\n      pop\n        /* \"#utility.yul\":18105:18222   */\n      pop\n        /* \"#utility.yul\":18261:18263   */\n      0x20\n        /* \"#utility.yul\":18287:18340   */\n      tag_557\n        /* \"#utility.yul\":18332:18339   */\n      dup10\n        /* \"#utility.yul\":18323:18329   */\n      dup3\n        /* \"#utility.yul\":18312:18321   */\n      dup11\n        /* \"#utility.yul\":18308:18330   */\n      add\n        /* \"#utility.yul\":18287:18340   */\n      tag_277\n      jump\t// in\n    tag_557:\n        /* \"#utility.yul\":18277:18340   */\n      swap6\n      pop\n        /* \"#utility.yul\":18232:18350   */\n      pop\n        /* \"#utility.yul\":18389:18391   */\n      0x40\n        /* \"#utility.yul\":18415:18468   */\n      tag_558\n        /* \"#utility.yul\":18460:18467   */\n      dup10\n        /* \"#utility.yul\":18451:18457   */\n      dup3\n        /* \"#utility.yul\":18440:18449   */\n      dup11\n        /* \"#utility.yul\":18436:18458   */\n      add\n        /* \"#utility.yul\":18415:18468   */\n      tag_277\n      jump\t// in\n    tag_558:\n        /* \"#utility.yul\":18405:18468   */\n      swap5\n      pop\n        /* \"#utility.yul\":18360:18478   */\n      pop\n        /* \"#utility.yul\":18545:18547   */\n      0x60\n        /* \"#utility.yul\":18534:18543   */\n      dup8\n        /* \"#utility.yul\":18530:18548   */\n      add\n        /* \"#utility.yul\":18517:18549   */\n      calldataload\n        /* \"#utility.yul\":18576:18594   */\n      0xffffffffffffffff\n        /* \"#utility.yul\":18568:18574   */\n      dup2\n        /* \"#utility.yul\":18565:18595   */\n      gt\n        /* \"#utility.yul\":18562:18679   */\n      iszero\n      tag_559\n      jumpi\n        /* \"#utility.yul\":18598:18677   */\n      tag_560\n      tag_270\n      jump\t// in\n    tag_560:\n        /* \"#utility.yul\":18562:18679   */\n    tag_559:\n        /* \"#utility.yul\":18703:18766   */\n      tag_561\n        /* \"#utility.yul\":18758:18765   */\n      dup10\n        /* \"#utility.yul\":18749:18755   */\n      dup3\n        /* \"#utility.yul\":18738:18747   */\n      dup11\n        /* \"#utility.yul\":18734:18756   */\n      add\n        /* \"#utility.yul\":18703:18766   */\n      tag_310\n      jump\t// in\n    tag_561:\n        /* \"#utility.yul\":18693:18766   */\n      swap4\n      pop\n        /* \"#utility.yul\":18488:18776   */\n      pop\n        /* \"#utility.yul\":18815:18818   */\n      0x80\n        /* \"#utility.yul\":18842:18895   */\n      tag_562\n        /* \"#utility.yul\":18887:18894   */\n      dup10\n        /* \"#utility.yul\":18878:18884   */\n      dup3\n        /* \"#utility.yul\":18867:18876   */\n      dup11\n        /* \"#utility.yul\":18863:18885   */\n      add\n        /* \"#utility.yul\":18842:18895   */\n      tag_274\n      jump\t// in\n    tag_562:\n        /* \"#utility.yul\":18832:18895   */\n      swap3\n      pop\n        /* \"#utility.yul\":18786:18905   */\n      pop\n        /* \"#utility.yul\":18944:18947   */\n      0xa0\n        /* \"#utility.yul\":18971:19023   */\n      tag_563\n        /* \"#utility.yul\":19015:19022   */\n      dup10\n        /* \"#utility.yul\":19006:19012   */\n      dup3\n        /* \"#utility.yul\":18995:19004   */\n      dup11\n        /* \"#utility.yul\":18991:19013   */\n      add\n        /* \"#utility.yul\":18971:19023   */\n      tag_313\n      jump\t// in\n    tag_563:\n        /* \"#utility.yul\":18961:19023   */\n      swap2\n      pop\n        /* \"#utility.yul\":18915:19033   */\n      pop\n        /* \"#utility.yul\":17805:19040   */\n      swap3\n      swap6\n      pop\n      swap3\n      swap6\n      pop\n      swap3\n      swap6\n      jump\t// out\n        /* \"#utility.yul\":19046:19208   */\n    tag_314:\n        /* \"#utility.yul\":19186:19200   */\n      0x5a65726f20616464726573730000000000000000000000000000000000000000\n        /* \"#utility.yul\":19182:19183   */\n      0x00\n        /* \"#utility.yul\":19174:19180   */\n      dup3\n        /* \"#utility.yul\":19170:19184   */\n      add\n        /* \"#utility.yul\":19163:19201   */\n      mstore\n        /* \"#utility.yul\":19046:19208   */\n      pop\n      jump\t// out\n        /* \"#utility.yul\":19214:19580   */\n    tag_315:\n        /* \"#utility.yul\":19356:19359   */\n      0x00\n        /* \"#utility.yul\":19377:19444   */\n      tag_566\n        /* \"#utility.yul\":19441:19443   */\n      0x0c\n        /* \"#utility.yul\":19436:19439   */\n      dup4\n        /* \"#utility.yul\":19377:19444   */\n      tag_285\n      jump\t// in\n    tag_566:\n        /* \"#utility.yul\":19370:19444   */\n      swap2\n      pop\n        /* \"#utility.yul\":19453:19546   */\n      tag_567\n        /* \"#utility.yul\":19542:19545   */\n      dup3\n        /* \"#utility.yul\":19453:19546   */\n      tag_314\n      jump\t// in\n    tag_567:\n        /* \"#utility.yul\":19571:19573   */\n      0x20\n        /* \"#utility.yul\":19566:19569   */\n      dup3\n        /* \"#utility.yul\":19562:19574   */\n      add\n        /* \"#utility.yul\":19555:19574   */\n      swap1\n      pop\n        /* \"#utility.yul\":19214:19580   */\n      swap2\n      swap1\n      pop\n      jump\t// out\n        /* \"#utility.yul\":19586:20005   */\n    tag_119:\n        /* \"#utility.yul\":19752:19756   */\n      0x00\n        /* \"#utility.yul\":19790:19792   */\n      0x20\n        /* \"#utility.yul\":19779:19788   */\n      dup3\n        /* \"#utility.yul\":19775:19793   */\n      add\n        /* \"#utility.yul\":19767:19793   */\n      swap1\n      pop\n        /* \"#utility.yul\":19839:19848   */\n      dup2\n        /* \"#utility.yul\":19833:19837   */\n      dup2\n        /* \"#utility.yul\":19829:19849   */\n      sub\n        /* \"#utility.yul\":19825:19826   */\n      0x00\n        /* \"#utility.yul\":19814:19823   */\n      dup4\n        /* \"#utility.yul\":19810:19827   */\n      add\n        /* \"#utility.yul\":19803:19850   */\n      mstore\n        /* \"#utility.yul\":19867:19998   */\n      tag_569\n        /* \"#utility.yul\":19993:19997   */\n      dup2\n        /* \"#utility.yul\":19867:19998   */\n      tag_315\n      jump\t// in\n    tag_569:\n        /* \"#utility.yul\":19859:19998   */\n      swap1\n      pop\n        /* \"#utility.yul\":19586:20005   */\n      swap2\n      swap1\n      pop\n      jump\t// out\n        /* \"#utility.yul\":20011:20191   */\n    tag_316:\n        /* \"#utility.yul\":20059:20136   */\n      0x4e487b7100000000000000000000000000000000000000000000000000000000\n        /* \"#utility.yul\":20056:20057   */\n      0x00\n        /* \"#utility.yul\":20049:20137   */\n      mstore\n        /* \"#utility.yul\":20156:20160   */\n      0x22\n        /* \"#utility.yul\":20153:20154   */\n      0x04\n        /* \"#utility.yul\":20146:20161   */\n      mstore\n        /* \"#utility.yul\":20180:20184   */\n      0x24\n        /* \"#utility.yul\":20177:20178   */\n      0x00\n        /* \"#utility.yul\":20170:20185   */\n      revert\n        /* \"#utility.yul\":20197:20517   */\n    tag_124:\n        /* \"#utility.yul\":20241:20247   */\n      0x00\n        /* \"#utility.yul\":20278:20279   */\n      0x02\n        /* \"#utility.yul\":20272:20276   */\n      dup3\n        /* \"#utility.yul\":20268:20280   */\n      div\n        /* \"#utility.yul\":20258:20280   */\n      swap1\n      pop\n        /* \"#utility.yul\":20325:20326   */\n      0x01\n        /* \"#utility.yul\":20319:20323   */\n      dup3\n        /* \"#utility.yul\":20315:20327   */\n      and\n        /* \"#utility.yul\":20346:20364   */\n      dup1\n        /* \"#utility.yul\":20336:20417   */\n      tag_572\n      jumpi\n        /* \"#utility.yul\":20402:20406   */\n      0x7f\n        /* \"#utility.yul\":20394:20400   */\n      dup3\n        /* \"#utility.yul\":20390:20407   */\n      and\n        /* \"#utility.yul\":20380:20407   */\n      swap2\n      pop\n        /* \"#utility.yul\":20336:20417   */\n    tag_572:\n        /* \"#utility.yul\":20464:20466   */\n      0x20\n        /* \"#utility.yul\":20456:20462   */\n      dup3\n        /* \"#utility.yul\":20453:20467   */\n      lt\n        /* \"#utility.yul\":20433:20451   */\n      dup2\n        /* \"#utility.yul\":20430:20468   */\n      sub\n        /* \"#utility.yul\":20427:20511   */\n      tag_573\n      jumpi\n        /* \"#utility.yul\":20483:20501   */\n      tag_574\n      tag_316\n      jump\t// in\n    tag_574:\n        /* \"#utility.yul\":20427:20511   */\n    tag_573:\n        /* \"#utility.yul\":20248:20517   */\n      pop\n        /* \"#utility.yul\":20197:20517   */\n      swap2\n      swap1\n      pop\n      jump\t// out\n        /* \"#utility.yul\":20523:20682   */\n    tag_317:\n        /* \"#utility.yul\":20663:20674   */\n      0x4e6f20726566756e640000000000000000000000000000000000000000000000\n        /* \"#utility.yul\":20659:20660   */\n      0x00\n        /* \"#utility.yul\":20651:20657   */\n      dup3\n        /* \"#utility.yul\":20647:20661   */\n      add\n        /* \"#utility.yul\":20640:20675   */\n      mstore\n        /* \"#utility.yul\":20523:20682   */\n      pop\n      jump\t// out\n        /* \"#utility.yul\":20688:21053   */\n    tag_318:\n        /* \"#utility.yul\":20830:20833   */\n      0x00\n        /* \"#utility.yul\":20851:20917   */\n      tag_577\n        /* \"#utility.yul\":20915:20916   */\n      0x09\n        /* \"#utility.yul\":20910:20913   */\n      dup4\n        /* \"#utility.yul\":20851:20917   */\n      tag_285\n      jump\t// in\n    tag_577:\n        /* \"#utility.yul\":20844:20917   */\n      swap2\n      pop\n        /* \"#utility.yul\":20926:21019   */\n      tag_578\n        /* \"#utility.yul\":21015:21018   */\n      dup3\n        /* \"#utility.yul\":20926:21019   */\n      tag_317\n      jump\t// in\n    tag_578:\n        /* \"#utility.yul\":21044:21046   */\n      0x20\n        /* \"#utility.yul\":21039:21042   */\n      dup3\n        /* \"#utility.yul\":21035:21047   */\n      add\n        /* \"#utility.yul\":21028:21047   */\n      swap1\n      pop\n        /* \"#utility.yul\":20688:21053   */\n      swap2\n      swap1\n      pop\n      jump\t// out\n        /* \"#utility.yul\":21059:21478   */\n    tag_132:\n        /* \"#utility.yul\":21225:21229   */\n      0x00\n        /* \"#utility.yul\":21263:21265   */\n      0x20\n        /* \"#utility.yul\":21252:21261   */\n      dup3\n        /* \"#utility.yul\":21248:21266   */\n      add\n        /* \"#utility.yul\":21240:21266   */\n      swap1\n      pop\n        /* \"#utility.yul\":21312:21321   */\n      dup2\n        /* \"#utility.yul\":21306:21310   */\n      dup2\n        /* \"#utility.yul\":21302:21322   */\n      sub\n        /* \"#utility.yul\":21298:21299   */\n      0x00\n        /* \"#utility.yul\":21287:21296   */\n      dup4\n        /* \"#utility.yul\":21283:21300   */\n      add\n        /* \"#utility.yul\":21276:21323   */\n      mstore\n        /* \"#utility.yul\":21340:21471   */\n      tag_580\n        /* \"#utility.yul\":21466:21470   */\n      dup2\n        /* \"#utility.yul\":21340:21471   */\n      tag_318\n      jump\t// in\n    tag_580:\n        /* \"#utility.yul\":21332:21471   */\n      swap1\n      pop\n        /* \"#utility.yul\":21059:21478   */\n      swap2\n      swap1\n      pop\n      jump\t// out\n        /* \"#utility.yul\":21484:21648   */\n    tag_319:\n        /* \"#utility.yul\":21624:21640   */\n      0x4e6f7420617574686f72697a6564000000000000000000000000000000000000\n        /* \"#utility.yul\":21620:21621   */\n      0x00\n        /* \"#utility.yul\":21612:21618   */\n      dup3\n        /* \"#utility.yul\":21608:21622   */\n      add\n        /* \"#utility.yul\":21601:21641   */\n      mstore\n        /* \"#utility.yul\":21484:21648   */\n      pop\n      jump\t// out\n        /* \"#utility.yul\":21654:22020   */\n    tag_320:\n        /* \"#utility.yul\":21796:21799   */\n      0x00\n        /* \"#utility.yul\":21817:21884   */\n      tag_583\n        /* \"#utility.yul\":21881:21883   */\n      0x0e\n        /* \"#utility.yul\":21876:21879   */\n      dup4\n        /* \"#utility.yul\":21817:21884   */\n      tag_285\n      jump\t// in\n    tag_583:\n        /* \"#utility.yul\":21810:21884   */\n      swap2\n      pop\n        /* \"#utility.yul\":21893:21986   */\n      tag_584\n        /* \"#utility.yul\":21982:21985   */\n      dup3\n        /* \"#utility.yul\":21893:21986   */\n      tag_319\n      jump\t// in\n    tag_584:\n        /* \"#utility.yul\":22011:22013   */\n      0x20\n        /* \"#utility.yul\":22006:22009   */\n      dup3\n        /* \"#utility.yul\":22002:22014   */\n      add\n        /* \"#utility.yul\":21995:22014   */\n      swap1\n      pop\n        /* \"#utility.yul\":21654:22020   */\n      swap2\n      swap1\n      pop\n      jump\t// out\n        /* \"#utility.yul\":22026:22445   */\n    tag_140:\n        /* \"#utility.yul\":22192:22196   */\n      0x00\n        /* \"#utility.yul\":22230:22232   */\n      0x20\n        /* \"#utility.yul\":22219:22228   */\n      dup3\n        /* \"#utility.yul\":22215:22233   */\n      add\n        /* \"#utility.yul\":22207:22233   */\n      swap1\n      pop\n        /* \"#utility.yul\":22279:22288   */\n      dup2\n        /* \"#utility.yul\":22273:22277   */\n      dup2\n        /* \"#utility.yul\":22269:22289   */\n      sub\n        /* \"#utility.yul\":22265:22266   */\n      0x00\n        /* \"#utility.yul\":22254:22263   */\n      dup4\n        /* \"#utility.yul\":22250:22267   */\n      add\n        /* \"#utility.yul\":22243:22290   */\n      mstore\n        /* \"#utility.yul\":22307:22438   */\n      tag_586\n        /* \"#utility.yul\":22433:22437   */\n      dup2\n        /* \"#utility.yul\":22307:22438   */\n      tag_320\n      jump\t// in\n    tag_586:\n        /* \"#utility.yul\":22299:22438   */\n      swap1\n      pop\n        /* \"#utility.yul\":22026:22445   */\n      swap2\n      swap1\n      pop\n      jump\t// out\n        /* \"#utility.yul\":22451:22621   */\n    tag_321:\n        /* \"#utility.yul\":22591:22613   */\n      0x496e73756666696369656e742062616c616e6365000000000000000000000000\n        /* \"#utility.yul\":22587:22588   */\n      0x00\n        /* \"#utility.yul\":22579:22585   */\n      dup3\n        /* \"#utility.yul\":22575:22589   */\n      add\n        /* \"#utility.yul\":22568:22614   */\n      mstore\n        /* \"#utility.yul\":22451:22621   */\n      pop\n      jump\t// out\n        /* \"#utility.yul\":22627:22993   */\n    tag_322:\n        /* \"#utility.yul\":22769:22772   */\n      0x00\n        /* \"#utility.yul\":22790:22857   */\n      tag_589\n        /* \"#utility.yul\":22854:22856   */\n      0x14\n        /* \"#utility.yul\":22849:22852   */\n      dup4\n        /* \"#utility.yul\":22790:22857   */\n      tag_285\n      jump\t// in\n    tag_589:\n        /* \"#utility.yul\":22783:22857   */\n      swap2\n      pop\n        /* \"#utility.yul\":22866:22959   */\n      tag_590\n        /* \"#utility.yul\":22955:22958   */\n      dup3\n        /* \"#utility.yul\":22866:22959   */\n      tag_321\n      jump\t// in\n    tag_590:\n        /* \"#utility.yul\":22984:22986   */\n      0x20\n        /* \"#utility.yul\":22979:22982   */\n      dup3\n        /* \"#utility.yul\":22975:22987   */\n      add\n        /* \"#utility.yul\":22968:22987   */\n      swap1\n      pop\n        /* \"#utility.yul\":22627:22993   */\n      swap2\n      swap1\n      pop\n      jump\t// out\n        /* \"#utility.yul\":22999:23418   */\n    tag_146:\n        /* \"#utility.yul\":23165:23169   */\n      0x00\n        /* \"#utility.yul\":23203:23205   */\n      0x20\n        /* \"#utility.yul\":23192:23201   */\n      dup3\n        /* \"#utility.yul\":23188:23206   */\n      add\n        /* \"#utility.yul\":23180:23206   */\n      swap1\n      pop\n        /* \"#utility.yul\":23252:23261   */\n      dup2\n        /* \"#utility.yul\":23246:23250   */\n      dup2\n        /* \"#utility.yul\":23242:23262   */\n      sub\n        /* \"#utility.yul\":23238:23239   */\n      0x00\n        /* \"#utility.yul\":23227:23236   */\n      dup4\n        /* \"#utility.yul\":23223:23240   */\n      add\n        /* \"#utility.yul\":23216:23263   */\n      mstore\n        /* \"#utility.yul\":23280:23411   */\n      tag_592\n        /* \"#utility.yul\":23406:23410   */\n      dup2\n        /* \"#utility.yul\":23280:23411   */\n      tag_322\n      jump\t// in\n    tag_592:\n        /* \"#utility.yul\":23272:23411   */\n      swap1\n      pop\n        /* \"#utility.yul\":22999:23418   */\n      swap2\n      swap1\n      pop\n      jump\t// out\n        /* \"#utility.yul\":23424:23604   */\n    tag_323:\n        /* \"#utility.yul\":23472:23549   */\n      0x4e487b7100000000000000000000000000000000000000000000000000000000\n        /* \"#utility.yul\":23469:23470   */\n      0x00\n        /* \"#utility.yul\":23462:23550   */\n      mstore\n        /* \"#utility.yul\":23569:23573   */\n      0x11\n        /* \"#utility.yul\":23566:23567   */\n      0x04\n        /* \"#utility.yul\":23559:23574   */\n      mstore\n        /* \"#utility.yul\":23593:23597   */\n      0x24\n        /* \"#utility.yul\":23590:23591   */\n      0x00\n        /* \"#utility.yul\":23583:23598   */\n      revert\n        /* \"#utility.yul\":23610:23804   */\n    tag_148:\n        /* \"#utility.yul\":23650:23654   */\n      0x00\n        /* \"#utility.yul\":23670:23690   */\n      tag_595\n        /* \"#utility.yul\":23688:23689   */\n      dup3\n        /* \"#utility.yul\":23670:23690   */\n      tag_275\n      jump\t// in\n    tag_595:\n        /* \"#utility.yul\":23665:23690   */\n      swap2\n      pop\n        /* \"#utility.yul\":23704:23724   */\n      tag_596\n        /* \"#utility.yul\":23722:23723   */\n      dup4\n        /* \"#utility.yul\":23704:23724   */\n      tag_275\n      jump\t// in\n    tag_596:\n        /* \"#utility.yul\":23699:23724   */\n      swap3\n      pop\n        /* \"#utility.yul\":23748:23749   */\n      dup3\n        /* \"#utility.yul\":23745:23746   */\n      dup3\n        /* \"#utility.yul\":23741:23750   */\n      sub\n        /* \"#utility.yul\":23733:23750   */\n      swap1\n      pop\n        /* \"#utility.yul\":23772:23773   */\n      dup2\n        /* \"#utility.yul\":23766:23770   */\n      dup2\n        /* \"#utility.yul\":23763:23774   */\n      gt\n        /* \"#utility.yul\":23760:23797   */\n      iszero\n      tag_597\n      jumpi\n        /* \"#utility.yul\":23777:23795   */\n      tag_598\n      tag_323\n      jump\t// in\n    tag_598:\n        /* \"#utility.yul\":23760:23797   */\n    tag_597:\n        /* \"#utility.yul\":23610:23804   */\n      swap3\n      swap2\n      pop\n      pop\n      jump\t// out\n        /* \"#utility.yul\":23810:24001   */\n    tag_150:\n        /* \"#utility.yul\":23850:23853   */\n      0x00\n        /* \"#utility.yul\":23869:23889   */\n      tag_600\n        /* \"#utility.yul\":23887:23888   */\n      dup3\n        /* \"#utility.yul\":23869:23889   */\n      tag_275\n      jump\t// in\n    tag_600:\n        /* \"#utility.yul\":23864:23889   */\n      swap2\n      pop\n        /* \"#utility.yul\":23903:23923   */\n      tag_601\n        /* \"#utility.yul\":23921:23922   */\n      dup4\n        /* \"#utility.yul\":23903:23923   */\n      tag_275\n      jump\t// in\n    tag_601:\n        /* \"#utility.yul\":23898:23923   */\n      swap3\n      pop\n        /* \"#utility.yul\":23946:23947   */\n      dup3\n        /* \"#utility.yul\":23943:23944   */\n      dup3\n        /* \"#utility.yul\":23939:23948   */\n      add\n        /* \"#utility.yul\":23932:23948   */\n      swap1\n      pop\n        /* \"#utility.yul\":23967:23970   */\n      dup1\n        /* \"#utility.yul\":23964:23965   */\n      dup3\n        /* \"#utility.yul\":23961:23971   */\n      gt\n        /* \"#utility.yul\":23958:23994   */\n      iszero\n      tag_602\n      jumpi\n        /* \"#utility.yul\":23974:23992   */\n      tag_603\n      tag_323\n      jump\t// in\n    tag_603:\n        /* \"#utility.yul\":23958:23994   */\n    tag_602:\n        /* \"#utility.yul\":23810:24001   */\n      swap3\n      swap2\n      pop\n      pop\n      jump\t// out\n        /* \"#utility.yul\":24007:24339   */\n    tag_152:\n        /* \"#utility.yul\":24128:24132   */\n      0x00\n        /* \"#utility.yul\":24166:24168   */\n      0x40\n        /* \"#utility.yul\":24155:24164   */\n      dup3\n        /* \"#utility.yul\":24151:24169   */\n      add\n        /* \"#utility.yul\":24143:24169   */\n      swap1\n      pop\n        /* \"#utility.yul\":24179:24250   */\n      tag_605\n        /* \"#utility.yul\":24247:24248   */\n      0x00\n        /* \"#utility.yul\":24236:24245   */\n      dup4\n        /* \"#utility.yul\":24232:24249   */\n      add\n        /* \"#utility.yul\":24223:24229   */\n      dup6\n        /* \"#utility.yul\":24179:24250   */\n      tag_278\n      jump\t// in\n    tag_605:\n        /* \"#utility.yul\":24260:24332   */\n      tag_606\n        /* \"#utility.yul\":24328:24330   */\n      0x20\n        /* \"#utility.yul\":24317:24326   */\n      dup4\n        /* \"#utility.yul\":24313:24331   */\n      add\n        /* \"#utility.yul\":24304:24310   */\n      dup5\n        /* \"#utility.yul\":24260:24332   */\n      tag_278\n      jump\t// in\n    tag_606:\n        /* \"#utility.yul\":24007:24339   */\n      swap4\n      swap3\n      pop\n      pop\n      pop\n      jump\t// out\n        /* \"#utility.yul\":24345:24755   */\n    tag_155:\n        /* \"#utility.yul\":24385:24392   */\n      0x00\n        /* \"#utility.yul\":24408:24428   */\n      tag_608\n        /* \"#utility.yul\":24426:24427   */\n      dup3\n        /* \"#utility.yul\":24408:24428   */\n      tag_275\n      jump\t// in\n    tag_608:\n        /* \"#utility.yul\":24403:24428   */\n      swap2\n      pop\n        /* \"#utility.yul\":24442:24462   */\n      tag_609\n        /* \"#utility.yul\":24460:24461   */\n      dup4\n        /* \"#utility.yul\":24442:24462   */\n      tag_275\n      jump\t// in\n    tag_609:\n        /* \"#utility.yul\":24437:24462   */\n      swap3\n      pop\n        /* \"#utility.yul\":24497:24498   */\n      dup3\n        /* \"#utility.yul\":24494:24495   */\n      dup3\n        /* \"#utility.yul\":24490:24499   */\n      mul\n        /* \"#utility.yul\":24519:24549   */\n      tag_610\n        /* \"#utility.yul\":24537:24548   */\n      dup2\n        /* \"#utility.yul\":24519:24549   */\n      tag_275\n      jump\t// in\n    tag_610:\n        /* \"#utility.yul\":24508:24549   */\n      swap2\n      pop\n        /* \"#utility.yul\":24698:24699   */\n      dup3\n        /* \"#utility.yul\":24689:24696   */\n      dup3\n        /* \"#utility.yul\":24685:24700   */\n      div\n        /* \"#utility.yul\":24682:24683   */\n      dup5\n        /* \"#utility.yul\":24679:24701   */\n      eq\n        /* \"#utility.yul\":24659:24660   */\n      dup4\n        /* \"#utility.yul\":24652:24661   */\n      iszero\n        /* \"#utility.yul\":24632:24715   */\n      or\n        /* \"#utility.yul\":24609:24748   */\n      tag_611\n      jumpi\n        /* \"#utility.yul\":24728:24746   */\n      tag_612\n      tag_323\n      jump\t// in\n    tag_612:\n        /* \"#utility.yul\":24609:24748   */\n    tag_611:\n        /* \"#utility.yul\":24393:24755   */\n      pop\n        /* \"#utility.yul\":24345:24755   */\n      swap3\n      swap2\n      pop\n      pop\n      jump\t// out\n        /* \"#utility.yul\":24761:24941   */\n    tag_324:\n        /* \"#utility.yul\":24809:24886   */\n      0x4e487b7100000000000000000000000000000000000000000000000000000000\n        /* \"#utility.yul\":24806:24807   */\n      0x00\n        /* \"#utility.yul\":24799:24887   */\n      mstore\n        /* \"#utility.yul\":24906:24910   */\n      0x12\n        /* \"#utility.yul\":24903:24904   */\n      0x04\n        /* \"#utility.yul\":24896:24911   */\n      mstore\n        /* \"#utility.yul\":24930:24934   */\n      0x24\n        /* \"#utility.yul\":24927:24928   */\n      0x00\n        /* \"#utility.yul\":24920:24935   */\n      revert\n        /* \"#utility.yul\":24947:25132   */\n    tag_157:\n        /* \"#utility.yul\":24987:24988   */\n      0x00\n        /* \"#utility.yul\":25004:25024   */\n      tag_615\n        /* \"#utility.yul\":25022:25023   */\n      dup3\n        /* \"#utility.yul\":25004:25024   */\n      tag_275\n      jump\t// in\n    tag_615:\n        /* \"#utility.yul\":24999:25024   */\n      swap2\n      pop\n        /* \"#utility.yul\":25038:25058   */\n      tag_616\n        /* \"#utility.yul\":25056:25057   */\n      dup4\n        /* \"#utility.yul\":25038:25058   */\n      tag_275\n      jump\t// in\n    tag_616:\n        /* \"#utility.yul\":25033:25058   */\n      swap3\n      pop\n        /* \"#utility.yul\":25077:25078   */\n      dup3\n        /* \"#utility.yul\":25067:25102   */\n      tag_617\n      jumpi\n        /* \"#utility.yul\":25082:25100   */\n      tag_618\n      tag_324\n      jump\t// in\n    tag_618:\n        /* \"#utility.yul\":25067:25102   */\n    tag_617:\n        /* \"#utility.yul\":25124:25125   */\n      dup3\n        /* \"#utility.yul\":25121:25122   */\n      dup3\n        /* \"#utility.yul\":25117:25126   */\n      div\n        /* \"#utility.yul\":25112:25126   */\n      swap1\n      pop\n        /* \"#utility.yul\":24947:25132   */\n      swap3\n      swap2\n      pop\n      pop\n      jump\t// out\n        /* \"#utility.yul\":25138:25301   */\n    tag_325:\n        /* \"#utility.yul\":25278:25293   */\n      0x41756374696f6e20656e64656400000000000000000000000000000000000000\n        /* \"#utility.yul\":25274:25275   */\n      0x00\n        /* \"#utility.yul\":25266:25272   */\n      dup3\n        /* \"#utility.yul\":25262:25276   */\n      add\n        /* \"#utility.yul\":25255:25294   */\n      mstore\n        /* \"#utility.yul\":25138:25301   */\n      pop\n      jump\t// out\n        /* \"#utility.yul\":25307:25673   */\n    tag_326:\n        /* \"#utility.yul\":25449:25452   */\n      0x00\n        /* \"#utility.yul\":25470:25537   */\n      tag_621\n        /* \"#utility.yul\":25534:25536   */\n      0x0d\n        /* \"#utility.yul\":25529:25532   */\n      dup4\n        /* \"#utility.yul\":25470:25537   */\n      tag_285\n      jump\t// in\n    tag_621:\n        /* \"#utility.yul\":25463:25537   */\n      swap2\n      pop\n        /* \"#utility.yul\":25546:25639   */\n      tag_622\n        /* \"#utility.yul\":25635:25638   */\n      dup3\n        /* \"#utility.yul\":25546:25639   */\n      tag_325\n      jump\t// in\n    tag_622:\n        /* \"#utility.yul\":25664:25666   */\n      0x20\n        /* \"#utility.yul\":25659:25662   */\n      dup3\n        /* \"#utility.yul\":25655:25667   */\n      add\n        /* \"#utility.yul\":25648:25667   */\n      swap1\n      pop\n        /* \"#utility.yul\":25307:25673   */\n      swap2\n      swap1\n      pop\n      jump\t// out\n        /* \"#utility.yul\":25679:26098   */\n    tag_161:\n        /* \"#utility.yul\":25845:25849   */\n      0x00\n        /* \"#utility.yul\":25883:25885   */\n      0x20\n        /* \"#utility.yul\":25872:25881   */\n      dup3\n        /* \"#utility.yul\":25868:25886   */\n      add\n        /* \"#utility.yul\":25860:25886   */\n      swap1\n      pop\n        /* \"#utility.yul\":25932:25941   */\n      dup2\n        /* \"#utility.yul\":25926:25930   */\n      dup2\n        /* \"#utility.yul\":25922:25942   */\n      sub\n        /* \"#utility.yul\":25918:25919   */\n      0x00\n        /* \"#utility.yul\":25907:25916   */\n      dup4\n        /* \"#utility.yul\":25903:25920   */\n      add\n        /* \"#utility.yul\":25896:25943   */\n      mstore\n        /* \"#utility.yul\":25960:26091   */\n      tag_624\n        /* \"#utility.yul\":26086:26090   */\n      dup2\n        /* \"#utility.yul\":25960:26091   */\n      tag_326\n      jump\t// in\n    tag_624:\n        /* \"#utility.yul\":25952:26091   */\n      swap1\n      pop\n        /* \"#utility.yul\":25679:26098   */\n      swap2\n      swap1\n      pop\n      jump\t// out\n        /* \"#utility.yul\":26104:26261   */\n    tag_327:\n        /* \"#utility.yul\":26244:26253   */\n      0x4c6f772062696400000000000000000000000000000000000000000000000000\n        /* \"#utility.yul\":26240:26241   */\n      0x00\n        /* \"#utility.yul\":26232:26238   */\n      dup3\n        /* \"#utility.yul\":26228:26242   */\n      add\n        /* \"#utility.yul\":26221:26254   */\n      mstore\n        /* \"#utility.yul\":26104:26261   */\n      pop\n      jump\t// out\n        /* \"#utility.yul\":26267:26632   */\n    tag_328:\n        /* \"#utility.yul\":26409:26412   */\n      0x00\n        /* \"#utility.yul\":26430:26496   */\n      tag_627\n        /* \"#utility.yul\":26494:26495   */\n      0x07\n        /* \"#utility.yul\":26489:26492   */\n      dup4\n        /* \"#utility.yul\":26430:26496   */\n      tag_285\n      jump\t// in\n    tag_627:\n        /* \"#utility.yul\":26423:26496   */\n      swap2\n      pop\n        /* \"#utility.yul\":26505:26598   */\n      tag_628\n        /* \"#utility.yul\":26594:26597   */\n      dup3\n        /* \"#utility.yul\":26505:26598   */\n      tag_327\n      jump\t// in\n    tag_628:\n        /* \"#utility.yul\":26623:26625   */\n      0x20\n        /* \"#utility.yul\":26618:26621   */\n      dup3\n        /* \"#utility.yul\":26614:26626   */\n      add\n        /* \"#utility.yul\":26607:26626   */\n      swap1\n      pop\n        /* \"#utility.yul\":26267:26632   */\n      swap2\n      swap1\n      pop\n      jump\t// out\n        /* \"#utility.yul\":26638:27057   */\n    tag_165:\n        /* \"#utility.yul\":26804:26808   */\n      0x00\n        /* \"#utility.yul\":26842:26844   */\n      0x20\n        /* \"#utility.yul\":26831:26840   */\n      dup3\n        /* \"#utility.yul\":26827:26845   */\n      add\n        /* \"#utility.yul\":26819:26845   */\n      swap1\n      pop\n        /* \"#utility.yul\":26891:26900   */\n      dup2\n        /* \"#utility.yul\":26885:26889   */\n      dup2\n        /* \"#utility.yul\":26881:26901   */\n      sub\n        /* \"#utility.yul\":26877:26878   */\n      0x00\n        /* \"#utility.yul\":26866:26875   */\n      dup4\n        /* \"#utility.yul\":26862:26879   */\n      add\n        /* \"#utility.yul\":26855:26902   */\n      mstore\n        /* \"#utility.yul\":26919:27050   */\n      tag_630\n        /* \"#utility.yul\":27045:27049   */\n      dup2\n        /* \"#utility.yul\":26919:27050   */\n      tag_328\n      jump\t// in\n    tag_630:\n        /* \"#utility.yul\":26911:27050   */\n      swap1\n      pop\n        /* \"#utility.yul\":26638:27057   */\n      swap2\n      swap1\n      pop\n      jump\t// out\n        /* \"#utility.yul\":27063:27230   */\n    tag_329:\n        /* \"#utility.yul\":27203:27222   */\n      0x4d69736d61746368656420617272617973000000000000000000000000000000\n        /* \"#utility.yul\":27199:27200   */\n      0x00\n        /* \"#utility.yul\":27191:27197   */\n      dup3\n        /* \"#utility.yul\":27187:27201   */\n      add\n        /* \"#utility.yul\":27180:27223   */\n      mstore\n        /* \"#utility.yul\":27063:27230   */\n      pop\n      jump\t// out\n        /* \"#utility.yul\":27236:27602   */\n    tag_330:\n        /* \"#utility.yul\":27378:27381   */\n      0x00\n        /* \"#utility.yul\":27399:27466   */\n      tag_633\n        /* \"#utility.yul\":27463:27465   */\n      0x11\n        /* \"#utility.yul\":27458:27461   */\n      dup4\n        /* \"#utility.yul\":27399:27466   */\n      tag_285\n      jump\t// in\n    tag_633:\n        /* \"#utility.yul\":27392:27466   */\n      swap2\n      pop\n        /* \"#utility.yul\":27475:27568   */\n      tag_634\n        /* \"#utility.yul\":27564:27567   */\n      dup3\n        /* \"#utility.yul\":27475:27568   */\n      tag_329\n      jump\t// in\n    tag_634:\n        /* \"#utility.yul\":27593:27595   */\n      0x20\n        /* \"#utility.yul\":27588:27591   */\n      dup3\n        /* \"#utility.yul\":27584:27596   */\n      add\n        /* \"#utility.yul\":27577:27596   */\n      swap1\n      pop\n        /* \"#utility.yul\":27236:27602   */\n      swap2\n      swap1\n      pop\n      jump\t// out\n        /* \"#utility.yul\":27608:28027   */\n    tag_172:\n        /* \"#utility.yul\":27774:27778   */\n      0x00\n        /* \"#utility.yul\":27812:27814   */\n      0x20\n        /* \"#utility.yul\":27801:27810   */\n      dup3\n        /* \"#utility.yul\":27797:27815   */\n      add\n        /* \"#utility.yul\":27789:27815   */\n      swap1\n      pop\n        /* \"#utility.yul\":27861:27870   */\n      dup2\n        /* \"#utility.yul\":27855:27859   */\n      dup2\n        /* \"#utility.yul\":27851:27871   */\n      sub\n        /* \"#utility.yul\":27847:27848   */\n      0x00\n        /* \"#utility.yul\":27836:27845   */\n      dup4\n        /* \"#utility.yul\":27832:27849   */\n      add\n        /* \"#utility.yul\":27825:27872   */\n      mstore\n        /* \"#utility.yul\":27889:28020   */\n      tag_636\n        /* \"#utility.yul\":28015:28019   */\n      dup2\n        /* \"#utility.yul\":27889:28020   */\n      tag_330\n      jump\t// in\n    tag_636:\n        /* \"#utility.yul\":27881:28020   */\n      swap1\n      pop\n        /* \"#utility.yul\":27608:28027   */\n      swap2\n      swap1\n      pop\n      jump\t// out\n        /* \"#utility.yul\":28033:28213   */\n    tag_182:\n        /* \"#utility.yul\":28081:28158   */\n      0x4e487b7100000000000000000000000000000000000000000000000000000000\n        /* \"#utility.yul\":28078:28079   */\n      0x00\n        /* \"#utility.yul\":28071:28159   */\n      mstore\n        /* \"#utility.yul\":28178:28182   */\n      0x32\n        /* \"#utility.yul\":28175:28176   */\n      0x04\n        /* \"#utility.yul\":28168:28183   */\n      mstore\n        /* \"#utility.yul\":28202:28206   */\n      0x24\n        /* \"#utility.yul\":28199:28200   */\n      0x00\n        /* \"#utility.yul\":28192:28207   */\n      revert\n        /* \"#utility.yul\":28219:28548   */\n    tag_186:\n        /* \"#utility.yul\":28278:28284   */\n      0x00\n        /* \"#utility.yul\":28327:28329   */\n      0x20\n        /* \"#utility.yul\":28315:28324   */\n      dup3\n        /* \"#utility.yul\":28306:28313   */\n      dup5\n        /* \"#utility.yul\":28302:28325   */\n      sub\n        /* \"#utility.yul\":28298:28330   */\n      slt\n        /* \"#utility.yul\":28295:28414   */\n      iszero\n      tag_639\n      jumpi\n        /* \"#utility.yul\":28333:28412   */\n      tag_640\n      tag_269\n      jump\t// in\n    tag_640:\n        /* \"#utility.yul\":28295:28414   */\n    tag_639:\n        /* \"#utility.yul\":28453:28454   */\n      0x00\n        /* \"#utility.yul\":28478:28531   */\n      tag_641\n        /* \"#utility.yul\":28523:28530   */\n      dup5\n        /* \"#utility.yul\":28514:28520   */\n      dup3\n        /* \"#utility.yul\":28503:28512   */\n      dup6\n        /* \"#utility.yul\":28499:28521   */\n      add\n        /* \"#utility.yul\":28478:28531   */\n      tag_274\n      jump\t// in\n    tag_641:\n        /* \"#utility.yul\":28468:28531   */\n      swap2\n      pop\n        /* \"#utility.yul\":28424:28541   */\n      pop\n        /* \"#utility.yul\":28219:28548   */\n      swap3\n      swap2\n      pop\n      pop\n      jump\t// out\n        /* \"#utility.yul\":28554:28721   */\n    tag_331:\n        /* \"#utility.yul\":28694:28713   */\n      0x41756374696f6e206e6f7420656e646564000000000000000000000000000000\n        /* \"#utility.yul\":28690:28691   */\n      0x00\n        /* \"#utility.yul\":28682:28688   */\n      dup3\n        /* \"#utility.yul\":28678:28692   */\n      add\n        /* \"#utility.yul\":28671:28714   */\n      mstore\n        /* \"#utility.yul\":28554:28721   */\n      pop\n      jump\t// out\n        /* \"#utility.yul\":28727:29093   */\n    tag_332:\n        /* \"#utility.yul\":28869:28872   */\n      0x00\n        /* \"#utility.yul\":28890:28957   */\n      tag_644\n        /* \"#utility.yul\":28954:28956   */\n      0x11\n        /* \"#utility.yul\":28949:28952   */\n      dup4\n        /* \"#utility.yul\":28890:28957   */\n      tag_285\n      jump\t// in\n    tag_644:\n        /* \"#utility.yul\":28883:28957   */\n      swap2\n      pop\n        /* \"#utility.yul\":28966:29059   */\n      tag_645\n        /* \"#utility.yul\":29055:29058   */\n      dup3\n        /* \"#utility.yul\":28966:29059   */\n      tag_331\n      jump\t// in\n    tag_645:\n        /* \"#utility.yul\":29084:29086   */\n      0x20\n        /* \"#utility.yul\":29079:29082   */\n      dup3\n        /* \"#utility.yul\":29075:29087   */\n      add\n        /* \"#utility.yul\":29068:29087   */\n      swap1\n      pop\n        /* \"#utility.yul\":28727:29093   */\n      swap2\n      swap1\n      pop\n      jump\t// out\n        /* \"#utility.yul\":29099:29518   */\n    tag_194:\n        /* \"#utility.yul\":29265:29269   */\n      0x00\n        /* \"#utility.yul\":29303:29305   */\n      0x20\n        /* \"#utility.yul\":29292:29301   */\n      dup3\n        /* \"#utility.yul\":29288:29306   */\n      add\n        /* \"#utility.yul\":29280:29306   */\n      swap1\n      pop\n        /* \"#utility.yul\":29352:29361   */\n      dup2\n        /* \"#utility.yul\":29346:29350   */\n      dup2\n        /* \"#utility.yul\":29342:29362   */\n      sub\n        /* \"#utility.yul\":29338:29339   */\n      0x00\n        /* \"#utility.yul\":29327:29336   */\n      dup4\n        /* \"#utility.yul\":29323:29340   */\n      add\n        /* \"#utility.yul\":29316:29363   */\n      mstore\n        /* \"#utility.yul\":29380:29511   */\n      tag_647\n        /* \"#utility.yul\":29506:29510   */\n      dup2\n        /* \"#utility.yul\":29380:29511   */\n      tag_332\n      jump\t// in\n    tag_647:\n        /* \"#utility.yul\":29372:29511   */\n      swap1\n      pop\n        /* \"#utility.yul\":29099:29518   */\n      swap2\n      swap1\n      pop\n      jump\t// out\n        /* \"#utility.yul\":29524:29697   */\n    tag_333:\n        /* \"#utility.yul\":29664:29689   */\n      0x41756374696f6e20616c726561647920736574746c6564000000000000000000\n        /* \"#utility.yul\":29660:29661   */\n      0x00\n        /* \"#utility.yul\":29652:29658   */\n      dup3\n        /* \"#utility.yul\":29648:29662   */\n      add\n        /* \"#utility.yul\":29641:29690   */\n      mstore\n        /* \"#utility.yul\":29524:29697   */\n      pop\n      jump\t// out\n        /* \"#utility.yul\":29703:30069   */\n    tag_334:\n        /* \"#utility.yul\":29845:29848   */\n      0x00\n        /* \"#utility.yul\":29866:29933   */\n      tag_650\n        /* \"#utility.yul\":29930:29932   */\n      0x17\n        /* \"#utility.yul\":29925:29928   */\n      dup4\n        /* \"#utility.yul\":29866:29933   */\n      tag_285\n      jump\t// in\n    tag_650:\n        /* \"#utility.yul\":29859:29933   */\n      swap2\n      pop\n        /* \"#utility.yul\":29942:30035   */\n      tag_651\n        /* \"#utility.yul\":30031:30034   */\n      dup3\n        /* \"#utility.yul\":29942:30035   */\n      tag_333\n      jump\t// in\n    tag_651:\n        /* \"#utility.yul\":30060:30062   */\n      0x20\n        /* \"#utility.yul\":30055:30058   */\n      dup3\n        /* \"#utility.yul\":30051:30063   */\n      add\n        /* \"#utility.yul\":30044:30063   */\n      swap1\n      pop\n        /* \"#utility.yul\":29703:30069   */\n      swap2\n      swap1\n      pop\n      jump\t// out\n        /* \"#utility.yul\":30075:30494   */\n    tag_198:\n        /* \"#utility.yul\":30241:30245   */\n      0x00\n        /* \"#utility.yul\":30279:30281   */\n      0x20\n        /* \"#utility.yul\":30268:30277   */\n      dup3\n        /* \"#utility.yul\":30264:30282   */\n      add\n        /* \"#utility.yul\":30256:30282   */\n      swap1\n      pop\n        /* \"#utility.yul\":30328:30337   */\n      dup2\n        /* \"#utility.yul\":30322:30326   */\n      dup2\n        /* \"#utility.yul\":30318:30338   */\n      sub\n        /* \"#utility.yul\":30314:30315   */\n      0x00\n        /* \"#utility.yul\":30303:30312   */\n      dup4\n        /* \"#utility.yul\":30299:30316   */\n      add\n        /* \"#utility.yul\":30292:30339   */\n      mstore\n        /* \"#utility.yul\":30356:30487   */\n      tag_653\n        /* \"#utility.yul\":30482:30486   */\n      dup2\n        /* \"#utility.yul\":30356:30487   */\n      tag_334\n      jump\t// in\n    tag_653:\n        /* \"#utility.yul\":30348:30487   */\n      swap1\n      pop\n        /* \"#utility.yul\":30075:30494   */\n      swap2\n      swap1\n      pop\n      jump\t// out\n        /* \"#utility.yul\":30500:30659   */\n    tag_335:\n        /* \"#utility.yul\":30640:30651   */\n      0x4e6f74206f776e65720000000000000000000000000000000000000000000000\n        /* \"#utility.yul\":30636:30637   */\n      0x00\n        /* \"#utility.yul\":30628:30634   */\n      dup3\n        /* \"#utility.yul\":30624:30638   */\n      add\n        /* \"#utility.yul\":30617:30652   */\n      mstore\n        /* \"#utility.yul\":30500:30659   */\n      pop\n      jump\t// out\n        /* \"#utility.yul\":30665:31030   */\n    tag_336:\n        /* \"#utility.yul\":30807:30810   */\n      0x00\n        /* \"#utility.yul\":30828:30894   */\n      tag_656\n        /* \"#utility.yul\":30892:30893   */\n      0x09\n        /* \"#utility.yul\":30887:30890   */\n      dup4\n        /* \"#utility.yul\":30828:30894   */\n      tag_285\n      jump\t// in\n    tag_656:\n        /* \"#utility.yul\":30821:30894   */\n      swap2\n      pop\n        /* \"#utility.yul\":30903:30996   */\n      tag_657\n        /* \"#utility.yul\":30992:30995   */\n      dup3\n        /* \"#utility.yul\":30903:30996   */\n      tag_335\n      jump\t// in\n    tag_657:\n        /* \"#utility.yul\":31021:31023   */\n      0x20\n        /* \"#utility.yul\":31016:31019   */\n      dup3\n        /* \"#utility.yul\":31012:31024   */\n      add\n        /* \"#utility.yul\":31005:31024   */\n      swap1\n      pop\n        /* \"#utility.yul\":30665:31030   */\n      swap2\n      swap1\n      pop\n      jump\t// out\n        /* \"#utility.yul\":31036:31455   */\n    tag_212:\n        /* \"#utility.yul\":31202:31206   */\n      0x00\n        /* \"#utility.yul\":31240:31242   */\n      0x20\n        /* \"#utility.yul\":31229:31238   */\n      dup3\n        /* \"#utility.yul\":31225:31243   */\n      add\n        /* \"#utility.yul\":31217:31243   */\n      swap1\n      pop\n        /* \"#utility.yul\":31289:31298   */\n      dup2\n        /* \"#utility.yul\":31283:31287   */\n      dup2\n        /* \"#utility.yul\":31279:31299   */\n      sub\n        /* \"#utility.yul\":31275:31276   */\n      0x00\n        /* \"#utility.yul\":31264:31273   */\n      dup4\n        /* \"#utility.yul\":31260:31277   */\n      add\n        /* \"#utility.yul\":31253:31300   */\n      mstore\n        /* \"#utility.yul\":31317:31448   */\n      tag_659\n        /* \"#utility.yul\":31443:31447   */\n      dup2\n        /* \"#utility.yul\":31317:31448   */\n      tag_336\n      jump\t// in\n    tag_659:\n        /* \"#utility.yul\":31309:31448   */\n      swap1\n      pop\n        /* \"#utility.yul\":31036:31455   */\n      swap2\n      swap1\n      pop\n      jump\t// out\n        /* \"#utility.yul\":31461:31620   */\n    tag_337:\n        /* \"#utility.yul\":31601:31612   */\n      0x546f6f2073686f72740000000000000000000000000000000000000000000000\n        /* \"#utility.yul\":31597:31598   */\n      0x00\n        /* \"#utility.yul\":31589:31595   */\n      dup3\n        /* \"#utility.yul\":31585:31599   */\n      add\n        /* \"#utility.yul\":31578:31613   */\n      mstore\n        /* \"#utility.yul\":31461:31620   */\n      pop\n      jump\t// out\n        /* \"#utility.yul\":31626:31991   */\n    tag_338:\n        /* \"#utility.yul\":31768:31771   */\n      0x00\n        /* \"#utility.yul\":31789:31855   */\n      tag_662\n        /* \"#utility.yul\":31853:31854   */\n      0x09\n        /* \"#utility.yul\":31848:31851   */\n      dup4\n        /* \"#utility.yul\":31789:31855   */\n      tag_285\n      jump\t// in\n    tag_662:\n        /* \"#utility.yul\":31782:31855   */\n      swap2\n      pop\n        /* \"#utility.yul\":31864:31957   */\n      tag_663\n        /* \"#utility.yul\":31953:31956   */\n      dup3\n        /* \"#utility.yul\":31864:31957   */\n      tag_337\n      jump\t// in\n    tag_663:\n        /* \"#utility.yul\":31982:31984   */\n      0x20\n        /* \"#utility.yul\":31977:31980   */\n      dup3\n        /* \"#utility.yul\":31973:31985   */\n      add\n        /* \"#utility.yul\":31966:31985   */\n      swap1\n      pop\n        /* \"#utility.yul\":31626:31991   */\n      swap2\n      swap1\n      pop\n      jump\t// out\n        /* \"#utility.yul\":31997:32416   */\n    tag_215:\n        /* \"#utility.yul\":32163:32167   */\n      0x00\n        /* \"#utility.yul\":32201:32203   */\n      0x20\n        /* \"#utility.yul\":32190:32199   */\n      dup3\n        /* \"#utility.yul\":32186:32204   */\n      add\n        /* \"#utility.yul\":32178:32204   */\n      swap1\n      pop\n        /* \"#utility.yul\":32250:32259   */\n      dup2\n        /* \"#utility.yul\":32244:32248   */\n      dup2\n        /* \"#utility.yul\":32240:32260   */\n      sub\n        /* \"#utility.yul\":32236:32237   */\n      0x00\n        /* \"#utility.yul\":32225:32234   */\n      dup4\n        /* \"#utility.yul\":32221:32238   */\n      add\n        /* \"#utility.yul\":32214:32261   */\n      mstore\n        /* \"#utility.yul\":32278:32409   */\n      tag_665\n        /* \"#utility.yul\":32404:32408   */\n      dup2\n        /* \"#utility.yul\":32278:32409   */\n      tag_338\n      jump\t// in\n    tag_665:\n        /* \"#utility.yul\":32270:32409   */\n      swap1\n      pop\n        /* \"#utility.yul\":31997:32416   */\n      swap2\n      swap1\n      pop\n      jump\t// out\n        /* \"#utility.yul\":32422:32655   */\n    tag_219:\n        /* \"#utility.yul\":32461:32464   */\n      0x00\n        /* \"#utility.yul\":32484:32508   */\n      tag_667\n        /* \"#utility.yul\":32502:32507   */\n      dup3\n        /* \"#utility.yul\":32484:32508   */\n      tag_275\n      jump\t// in\n    tag_667:\n        /* \"#utility.yul\":32475:32508   */\n      swap2\n      pop\n        /* \"#utility.yul\":32530:32596   */\n      0xffffffffffffffffffffffffffffffffffffffffffffffffffffffffffffffff\n        /* \"#utility.yul\":32523:32528   */\n      dup3\n        /* \"#utility.yul\":32520:32597   */\n      sub\n        /* \"#utility.yul\":32517:32620   */\n      tag_668\n      jumpi\n        /* \"#utility.yul\":32600:32618   */\n      tag_669\n      tag_323\n      jump\t// in\n    tag_669:\n        /* \"#utility.yul\":32517:32620   */\n    tag_668:\n        /* \"#utility.yul\":32647:32648   */\n      0x01\n        /* \"#utility.yul\":32640:32645   */\n      dup3\n        /* \"#utility.yul\":32636:32649   */\n      add\n        /* \"#utility.yul\":32629:32649   */\n      swap1\n      pop\n        /* \"#utility.yul\":32422:32655   */\n      swap2\n      swap1\n      pop\n      jump\t// out\n        /* \"#utility.yul\":32661:32778   */\n    tag_339:\n        /* \"#utility.yul\":32770:32771   */\n      0x00\n        /* \"#utility.yul\":32767:32768   */\n      0x00\n        /* \"#utility.yul\":32760:32772   */\n      revert\n        /* \"#utility.yul\":32784:32883   */\n    tag_340:\n        /* \"#utility.yul\":32869:32875   */\n      dup3\n        /* \"#utility.yul\":32864:32867   */\n      dup2\n        /* \"#utility.yul\":32859:32862   */\n      dup4\n        /* \"#utility.yul\":32846:32876   */\n      calldatacopy\n        /* \"#utility.yul\":32784:32883   */\n      pop\n      pop\n      pop\n      jump\t// out\n        /* \"#utility.yul\":32919:33456   */\n    tag_341:\n        /* \"#utility.yul\":33047:33050   */\n      0x00\n        /* \"#utility.yul\":33068:33154   */\n      tag_673\n        /* \"#utility.yul\":33147:33153   */\n      dup4\n        /* \"#utility.yul\":33142:33145   */\n      dup6\n        /* \"#utility.yul\":33068:33154   */\n      tag_296\n      jump\t// in\n    tag_673:\n        /* \"#utility.yul\":33061:33154   */\n      swap4\n      pop\n        /* \"#utility.yul\":33178:33244   */\n      0x07ffffffffffffffffffffffffffffffffffffffffffffffffffffffffffffff\n        /* \"#utility.yul\":33170:33176   */\n      dup4\n        /* \"#utility.yul\":33167:33245   */\n      gt\n        /* \"#utility.yul\":33164:33329   */\n      iszero\n      tag_674\n      jumpi\n        /* \"#utility.yul\":33248:33327   */\n      tag_675\n      tag_339\n      jump\t// in\n    tag_675:\n        /* \"#utility.yul\":33164:33329   */\n    tag_674:\n        /* \"#utility.yul\":33360:33364   */\n      0x20\n        /* \"#utility.yul\":33352:33358   */\n      dup4\n        /* \"#utility.yul\":33348:33365   */\n      mul\n        /* \"#utility.yul\":33338:33365   */\n      swap3\n      pop\n        /* \"#utility.yul\":33375:33418   */\n      tag_676\n        /* \"#utility.yul\":33411:33417   */\n      dup4\n        /* \"#utility.yul\":33406:33409   */\n      dup6\n        /* \"#utility.yul\":33399:33404   */\n      dup5\n        /* \"#utility.yul\":33375:33418   */\n      tag_340\n      jump\t// in\n    tag_676:\n        /* \"#utility.yul\":33443:33449   */\n      dup3\n        /* \"#utility.yul\":33438:33441   */\n      dup5\n        /* \"#utility.yul\":33434:33450   */\n      add\n        /* \"#utility.yul\":33427:33450   */\n      swap1\n      pop\n        /* \"#utility.yul\":32919:33456   */\n      swap4\n      swap3\n      pop\n      pop\n      pop\n      jump\t// out\n        /* \"#utility.yul\":33462:34136   */\n    tag_253:\n        /* \"#utility.yul\":33703:33707   */\n      0x00\n        /* \"#utility.yul\":33741:33743   */\n      0x40\n        /* \"#utility.yul\":33730:33739   */\n      dup3\n        /* \"#utility.yul\":33726:33744   */\n      add\n        /* \"#utility.yul\":33718:33744   */\n      swap1\n      pop\n        /* \"#utility.yul\":33790:33799   */\n      dup2\n        /* \"#utility.yul\":33784:33788   */\n      dup2\n        /* \"#utility.yul\":33780:33800   */\n      sub\n        /* \"#utility.yul\":33776:33777   */\n      0x00\n        /* \"#utility.yul\":33765:33774   */\n      dup4\n        /* \"#utility.yul\":33761:33778   */\n      add\n        /* \"#utility.yul\":33754:33801   */\n      mstore\n        /* \"#utility.yul\":33818:33936   */\n      tag_678\n        /* \"#utility.yul\":33931:33935   */\n      dup2\n        /* \"#utility.yul\":33922:33928   */\n      dup7\n        /* \"#utility.yul\":33914:33920   */\n      dup9\n        /* \"#utility.yul\":33818:33936   */\n      tag_341\n      jump\t// in\n    tag_678:\n        /* \"#utility.yul\":33810:33936   */\n      swap1\n      pop\n        /* \"#utility.yul\":33983:33992   */\n      dup2\n        /* \"#utility.yul\":33977:33981   */\n      dup2\n        /* \"#utility.yul\":33973:33993   */\n      sub\n        /* \"#utility.yul\":33968:33970   */\n      0x20\n        /* \"#utility.yul\":33957:33966   */\n      dup4\n        /* \"#utility.yul\":33953:33971   */\n      add\n        /* \"#utility.yul\":33946:33994   */\n      mstore\n        /* \"#utility.yul\":34011:34129   */\n      tag_679\n        /* \"#utility.yul\":34124:34128   */\n      dup2\n        /* \"#utility.yul\":34115:34121   */\n      dup5\n        /* \"#utility.yul\":34107:34113   */\n      dup7\n        /* \"#utility.yul\":34011:34129   */\n      tag_341\n      jump\t// in\n    tag_679:\n        /* \"#utility.yul\":34003:34129   */\n      swap1\n      pop\n        /* \"#utility.yul\":33462:34136   */\n      swap6\n      swap5\n      pop\n      pop\n      pop\n      pop\n      pop\n      jump\t// out\n        /* \"#utility.yul\":34142:34300   */\n    tag_342:\n        /* \"#utility.yul\":34282:34292   */\n      0x546f6f2068696768000000000000000000000000000000000000000000000000\n        /* \"#utility.yul\":34278:34279   */\n      0x00\n        /* \"#utility.yul\":34270:34276   */\n      dup3\n        /* \"#utility.yul\":34266:34280   */\n      add\n        /* \"#utility.yul\":34259:34293   */\n      mstore\n        /* \"#utility.yul\":34142:34300   */\n      pop\n      jump\t// out\n        /* \"#utility.yul\":34306:34671   */\n    tag_343:\n        /* \"#utility.yul\":34448:34451   */\n      0x00\n        /* \"#utility.yul\":34469:34535   */\n      tag_682\n        /* \"#utility.yul\":34533:34534   */\n      0x08\n        /* \"#utility.yul\":34528:34531   */\n      dup4\n        /* \"#utility.yul\":34469:34535   */\n      tag_285\n      jump\t// in\n    tag_682:\n        /* \"#utility.yul\":34462:34535   */\n      swap2\n      pop\n        /* \"#utility.yul\":34544:34637   */\n      tag_683\n        /* \"#utility.yul\":34633:34636   */\n      dup3\n        /* \"#utility.yul\":34544:34637   */\n      tag_342\n      jump\t// in\n    tag_683:\n        /* \"#utility.yul\":34662:34664   */\n      0x20\n        /* \"#utility.yul\":34657:34660   */\n      dup3\n        /* \"#utility.yul\":34653:34665   */\n      add\n        /* \"#utility.yul\":34646:34665   */\n      swap1\n      pop\n        /* \"#utility.yul\":34306:34671   */\n      swap2\n      swap1\n      pop\n      jump\t// out\n        /* \"#utility.yul\":34677:35096   */\n    tag_259:\n        /* \"#utility.yul\":34843:34847   */\n      0x00\n        /* \"#utility.yul\":34881:34883   */\n      0x20\n        /* \"#utility.yul\":34870:34879   */\n      dup3\n        /* \"#utility.yul\":34866:34884   */\n      add\n        /* \"#utility.yul\":34858:34884   */\n      swap1\n      pop\n        /* \"#utility.yul\":34930:34939   */\n      dup2\n        /* \"#utility.yul\":34924:34928   */\n      dup2\n        /* \"#utility.yul\":34920:34940   */\n      sub\n        /* \"#utility.yul\":34916:34917   */\n      0x00\n        /* \"#utility.yul\":34905:34914   */\n      dup4\n        /* \"#utility.yul\":34901:34918   */\n      add\n        /* \"#utility.yul\":34894:34941   */\n      mstore\n        /* \"#utility.yul\":34958:35089   */\n      tag_685\n        /* \"#utility.yul\":35084:35088   */\n      dup2\n        /* \"#utility.yul\":34958:35089   */\n      tag_343\n      jump\t// in\n    tag_685:\n        /* \"#utility.yul\":34950:35089   */\n      swap1\n      pop\n        /* \"#utility.yul\":34677:35096   */\n      swap2\n      swap1\n      pop\n      jump\t// out\n        /* \"#utility.yul\":35102:35243   */\n    tag_344:\n        /* \"#utility.yul\":35151:35155   */\n      0x00\n        /* \"#utility.yul\":35174:35177   */\n      dup2\n        /* \"#utility.yul\":35166:35177   */\n      swap1\n      pop\n        /* \"#utility.yul\":35197:35200   */\n      dup2\n        /* \"#utility.yul\":35194:35195   */\n      0x00\n        /* \"#utility.yul\":35187:35201   */\n      mstore\n        /* \"#utility.yul\":35231:35235   */\n      0x20\n        /* \"#utility.yul\":35228:35229   */\n      0x00\n        /* \"#utility.yul\":35218:35236   */\n      keccak256\n        /* \"#utility.yul\":35210:35236   */\n      swap1\n      pop\n        /* \"#utility.yul\":35102:35243   */\n      swap2\n      swap1\n      pop\n      jump\t// out\n        /* \"#utility.yul\":35249:35342   */\n    tag_345:\n        /* \"#utility.yul\":35286:35292   */\n      0x00\n        /* \"#utility.yul\":35333:35335   */\n      0x20\n        /* \"#utility.yul\":35328:35330   */\n      0x1f\n        /* \"#utility.yul\":35321:35326   */\n      dup4\n        /* \"#utility.yul\":35317:35331   */\n      add\n        /* \"#utility.yul\":35313:35336   */\n      div\n        /* \"#utility.yul\":35303:35336   */\n      swap1\n      pop\n        /* \"#utility.yul\":35249:35342   */\n      swap2\n      swap1\n      pop\n      jump\t// out\n        /* \"#utility.yul\":35348:35455   */\n    tag_346:\n        /* \"#utility.yul\":35392:35400   */\n      0x00\n        /* \"#utility.yul\":35442:35447   */\n      dup3\n        /* \"#utility.yul\":35436:35440   */\n      dup3\n        /* \"#utility.yul\":35432:35448   */\n      shl\n        /* \"#utility.yul\":35411:35448   */\n      swap1\n      pop\n        /* \"#utility.yul\":35348:35455   */\n      swap3\n      swap2\n      pop\n      pop\n      jump\t// out\n        /* \"#utility.yul\":35461:35854   */\n    tag_347:\n        /* \"#utility.yul\":35530:35536   */\n      0x00\n        /* \"#utility.yul\":35580:35581   */\n      0x08\n        /* \"#utility.yul\":35568:35578   */\n      dup4\n        /* \"#utility.yul\":35564:35582   */\n      mul\n        /* \"#utility.yul\":35603:35700   */\n      tag_690\n        /* \"#utility.yul\":35633:35699   */\n      0xffffffffffffffffffffffffffffffffffffffffffffffffffffffffffffffff\n        /* \"#utility.yul\":35622:35631   */\n      dup3\n        /* \"#utility.yul\":35603:35700   */\n      tag_346\n      jump\t// in\n    tag_690:\n        /* \"#utility.yul\":35721:35760   */\n      tag_691\n        /* \"#utility.yul\":35751:35759   */\n      dup7\n        /* \"#utility.yul\":35740:35749   */\n      dup4\n        /* \"#utility.yul\":35721:35760   */\n      tag_346\n      jump\t// in\n    tag_691:\n        /* \"#utility.yul\":35709:35760   */\n      swap6\n      pop\n        /* \"#utility.yul\":35793:35797   */\n      dup1\n        /* \"#utility.yul\":35789:35798   */\n      not\n        /* \"#utility.yul\":35782:35787   */\n      dup5\n        /* \"#utility.yul\":35778:35799   */\n      and\n        /* \"#utility.yul\":35769:35799   */\n      swap4\n      pop\n        /* \"#utility.yul\":35842:35846   */\n      dup1\n        /* \"#utility.yul\":35832:35840   */\n      dup7\n        /* \"#utility.yul\":35828:35847   */\n      and\n        /* \"#utility.yul\":35821:35826   */\n      dup5\n        /* \"#utility.yul\":35818:35848   */\n      or\n        /* \"#utility.yul\":35808:35848   */\n      swap3\n      pop\n        /* \"#utility.yul\":35537:35854   */\n      pop\n      pop\n        /* \"#utility.yul\":35461:35854   */\n      swap4\n      swap3\n      pop\n      pop\n      pop\n      jump\t// out\n        /* \"#utility.yul\":35860:35920   */\n    tag_348:\n        /* \"#utility.yul\":35888:35891   */\n      0x00\n        /* \"#utility.yul\":35909:35914   */\n      dup2\n        /* \"#utility.yul\":35902:35914   */\n      swap1\n      pop\n        /* \"#utility.yul\":35860:35920   */\n      swap2\n      swap1\n      pop\n      jump\t// out\n        /* \"#utility.yul\":35926:36068   */\n    tag_349:\n        /* \"#utility.yul\":35976:35985   */\n      0x00\n        /* \"#utility.yul\":36009:36062   */\n      tag_694\n        /* \"#utility.yul\":36027:36061   */\n      tag_695\n        /* \"#utility.yul\":36036:36060   */\n      tag_696\n        /* \"#utility.yul\":36054:36059   */\n      dup5\n        /* \"#utility.yul\":36036:36060   */\n      tag_275\n      jump\t// in\n    tag_696:\n        /* \"#utility.yul\":36027:36061   */\n      tag_348\n      jump\t// in\n    tag_695:\n        /* \"#utility.yul\":36009:36062   */\n      tag_275\n      jump\t// in\n    tag_694:\n        /* \"#utility.yul\":35996:36062   */\n      swap1\n      pop\n        /* \"#utility.yul\":35926:36068   */\n      swap2\n      swap1\n      pop\n      jump\t// out\n        /* \"#utility.yul\":36074:36149   */\n    tag_350:\n        /* \"#utility.yul\":36117:36120   */\n      0x00\n        /* \"#utility.yul\":36138:36143   */\n      dup2\n        /* \"#utility.yul\":36131:36143   */\n      swap1\n      pop\n        /* \"#utility.yul\":36074:36149   */\n      swap2\n      swap1\n      pop\n      jump\t// out\n        /* \"#utility.yul\":36155:36424   */\n    tag_351:\n        /* \"#utility.yul\":36265:36304   */\n      tag_699\n        /* \"#utility.yul\":36296:36303   */\n      dup4\n        /* \"#utility.yul\":36265:36304   */\n      tag_349\n      jump\t// in\n    tag_699:\n        /* \"#utility.yul\":36326:36417   */\n      tag_700\n        /* \"#utility.yul\":36375:36416   */\n      tag_701\n        /* \"#utility.yul\":36399:36415   */\n      dup3\n        /* \"#utility.yul\":36375:36416   */\n      tag_350\n      jump\t// in\n    tag_701:\n        /* \"#utility.yul\":36367:36373   */\n      dup5\n        /* \"#utility.yul\":36360:36364   */\n      dup5\n        /* \"#utility.yul\":36354:36365   */\n      sload\n        /* \"#utility.yul\":36326:36417   */\n      tag_347\n      jump\t// in\n    tag_700:\n        /* \"#utility.yul\":36320:36324   */\n      dup3\n        /* \"#utility.yul\":36313:36418   */\n      sstore\n        /* \"#utility.yul\":36231:36424   */\n      pop\n        /* \"#utility.yul\":36155:36424   */\n      pop\n      pop\n      pop\n      jump\t// out\n        /* \"#utility.yul\":36430:36503   */\n    tag_352:\n        /* \"#utility.yul\":36475:36478   */\n      0x00\n        /* \"#utility.yul\":36496:36497   */\n      0x00\n        /* \"#utility.yul\":36489:36497   */\n      swap1\n      pop\n        /* \"#utility.yul\":36430:36503   */\n      swap1\n      jump\t// out\n        /* \"#utility.yul\":36509:36698   */\n    tag_353:\n        /* \"#utility.yul\":36586:36618   */\n      tag_704\n      tag_352\n      jump\t// in\n    tag_704:\n        /* \"#utility.yul\":36627:36692   */\n      tag_705\n        /* \"#utility.yul\":36685:36691   */\n      dup2\n        /* \"#utility.yul\":36677:36683   */\n      dup5\n        /* \"#utility.yul\":36671:36675   */\n      dup5\n        /* \"#utility.yul\":36627:36692   */\n      tag_351\n      jump\t// in\n    tag_705:\n        /* \"#utility.yul\":36562:36698   */\n      pop\n        /* \"#utility.yul\":36509:36698   */\n      pop\n      pop\n      jump\t// out\n        /* \"#utility.yul\":36704:36890   */\n    tag_354:\n        /* \"#utility.yul\":36764:36884   */\n    tag_707:\n        /* \"#utility.yul\":36781:36784   */\n      dup2\n        /* \"#utility.yul\":36774:36779   */\n      dup2\n        /* \"#utility.yul\":36771:36785   */\n      lt\n        /* \"#utility.yul\":36764:36884   */\n      iszero\n      tag_709\n      jumpi\n        /* \"#utility.yul\":36835:36874   */\n      tag_710\n        /* \"#utility.yul\":36872:36873   */\n      0x00\n        /* \"#utility.yul\":36865:36870   */\n      dup3\n        /* \"#utility.yul\":36835:36874   */\n      tag_353\n      jump\t// in\n    tag_710:\n        /* \"#utility.yul\":36808:36809   */\n      0x01\n        /* \"#utility.yul\":36801:36806   */\n      dup2\n        /* \"#utility.yul\":36797:36810   */\n      add\n        /* \"#utility.yul\":36788:36810   */\n      swap1\n      pop\n        /* \"#utility.yul\":36764:36884   */\n      jump(tag_707)\n    tag_709:\n        /* \"#utility.yul\":36704:36890   */\n      pop\n      pop\n      jump\t// out\n        /* \"#utility.yul\":36896:37439   */\n    tag_355:\n        /* \"#utility.yul\":36997:36999   */\n      0x1f\n        /* \"#utility.yul\":36992:36995   */\n      dup3\n        /* \"#utility.yul\":36989:37000   */\n      gt\n        /* \"#utility.yul\":36986:37432   */\n      iszero\n      tag_712\n      jumpi\n        /* \"#utility.yul\":37031:37069   */\n      tag_713\n        /* \"#utility.yul\":37063:37068   */\n      dup2\n        /* \"#utility.yul\":37031:37069   */\n      tag_344\n      jump\t// in\n    tag_713:\n        /* \"#utility.yul\":37115:37144   */\n      tag_714\n        /* \"#utility.yul\":37133:37143   */\n      dup5\n        /* \"#utility.yul\":37115:37144   */\n      tag_345\n      jump\t// in\n    tag_714:\n        /* \"#utility.yul\":37105:37113   */\n      dup2\n        /* \"#utility.yul\":37101:37145   */\n      add\n        /* \"#utility.yul\":37298:37300   */\n      0x20\n        /* \"#utility.yul\":37286:37296   */\n      dup6\n        /* \"#utility.yul\":37283:37301   */\n      lt\n        /* \"#utility.yul\":37280:37329   */\n      iszero\n      tag_715\n      jumpi\n        /* \"#utility.yul\":37319:37327   */\n      dup2\n        /* \"#utility.yul\":37304:37327   */\n      swap1\n      pop\n        /* \"#utility.yul\":37280:37329   */\n    tag_715:\n        /* \"#utility.yul\":37342:37422   */\n      tag_716\n        /* \"#utility.yul\":37398:37420   */\n      tag_717\n        /* \"#utility.yul\":37416:37419   */\n      dup6\n        /* \"#utility.yul\":37398:37420   */\n      tag_345\n      jump\t// in\n    tag_717:\n        /* \"#utility.yul\":37388:37396   */\n      dup4\n        /* \"#utility.yul\":37384:37421   */\n      add\n        /* \"#utility.yul\":37371:37382   */\n      dup3\n        /* \"#utility.yul\":37342:37422   */\n      tag_354\n      jump\t// in\n    tag_716:\n        /* \"#utility.yul\":37001:37432   */\n      pop\n      pop\n        /* \"#utility.yul\":36986:37432   */\n    tag_712:\n        /* \"#utility.yul\":36896:37439   */\n      pop\n      pop\n      pop\n      jump\t// out\n        /* \"#utility.yul\":37445:37562   */\n    tag_356:\n        /* \"#utility.yul\":37499:37507   */\n      0x00\n        /* \"#utility.yul\":37549:37554   */\n      dup3\n        /* \"#utility.yul\":37543:37547   */\n      dup3\n        /* \"#utility.yul\":37539:37555   */\n      shr\n        /* \"#utility.yul\":37518:37555   */\n      swap1\n      pop\n        /* \"#utility.yul\":37445:37562   */\n      swap3\n      swap2\n      pop\n      pop\n      jump\t// out\n        /* \"#utility.yul\":37568:37737   */\n    tag_357:\n        /* \"#utility.yul\":37612:37618   */\n      0x00\n        /* \"#utility.yul\":37645:37696   */\n      tag_720\n        /* \"#utility.yul\":37693:37694   */\n      0x00\n        /* \"#utility.yul\":37689:37695   */\n      not\n        /* \"#utility.yul\":37681:37686   */\n      dup5\n        /* \"#utility.yul\":37678:37679   */\n      0x08\n        /* \"#utility.yul\":37674:37687   */\n      mul\n        /* \"#utility.yul\":37645:37696   */\n      tag_356\n      jump\t// in\n    tag_720:\n        /* \"#utility.yul\":37641:37697   */\n      not\n        /* \"#utility.yul\":37726:37730   */\n      dup1\n        /* \"#utility.yul\":37720:37724   */\n      dup4\n        /* \"#utility.yul\":37716:37731   */\n      and\n        /* \"#utility.yul\":37706:37731   */\n      swap2\n      pop\n        /* \"#utility.yul\":37619:37737   */\n      pop\n        /* \"#utility.yul\":37568:37737   */\n      swap3\n      swap2\n      pop\n      pop\n      jump\t// out\n        /* \"#utility.yul\":37742:38037   */\n    tag_358:\n        /* \"#utility.yul\":37818:37822   */\n      0x00\n        /* \"#utility.yul\":37964:37993   */\n      tag_722\n        /* \"#utility.yul\":37989:37992   */\n      dup4\n        /* \"#utility.yul\":37983:37987   */\n      dup4\n        /* \"#utility.yul\":37964:37993   */\n      tag_357\n      jump\t// in\n    tag_722:\n        /* \"#utility.yul\":37956:37993   */\n      swap2\n      pop\n        /* \"#utility.yul\":38026:38029   */\n      dup3\n        /* \"#utility.yul\":38023:38024   */\n      0x02\n        /* \"#utility.yul\":38019:38030   */\n      mul\n        /* \"#utility.yul\":38013:38017   */\n      dup3\n        /* \"#utility.yul\":38010:38031   */\n      or\n        /* \"#utility.yul\":38002:38031   */\n      swap1\n      pop\n        /* \"#utility.yul\":37742:38037   */\n      swap3\n      swap2\n      pop\n      pop\n      jump\t// out\n        /* \"#utility.yul\":38042:39437   */\n    tag_264:\n        /* \"#utility.yul\":38159:38196   */\n      tag_724\n        /* \"#utility.yul\":38192:38195   */\n      dup3\n        /* \"#utility.yul\":38159:38196   */\n      tag_284\n      jump\t// in\n    tag_724:\n        /* \"#utility.yul\":38261:38279   */\n      0xffffffffffffffff\n        /* \"#utility.yul\":38253:38259   */\n      dup2\n        /* \"#utility.yul\":38250:38280   */\n      gt\n        /* \"#utility.yul\":38247:38303   */\n      iszero\n      tag_725\n      jumpi\n        /* \"#utility.yul\":38283:38301   */\n      tag_726\n      tag_175\n      jump\t// in\n    tag_726:\n        /* \"#utility.yul\":38247:38303   */\n    tag_725:\n        /* \"#utility.yul\":38327:38365   */\n      tag_727\n        /* \"#utility.yul\":38359:38363   */\n      dup3\n        /* \"#utility.yul\":38353:38364   */\n      sload\n        /* \"#utility.yul\":38327:38365   */\n      tag_124\n      jump\t// in\n    tag_727:\n        /* \"#utility.yul\":38412:38479   */\n      tag_728\n        /* \"#utility.yul\":38472:38478   */\n      dup3\n        /* \"#utility.yul\":38464:38470   */\n      dup3\n        /* \"#utility.yul\":38458:38462   */\n      dup6\n        /* \"#utility.yul\":38412:38479   */\n      tag_355\n      jump\t// in\n    tag_728:\n        /* \"#utility.yul\":38506:38507   */\n      0x00\n        /* \"#utility.yul\":38530:38534   */\n      0x20\n        /* \"#utility.yul\":38517:38534   */\n      swap1\n      pop\n        /* \"#utility.yul\":38562:38564   */\n      0x1f\n        /* \"#utility.yul\":38554:38560   */\n      dup4\n        /* \"#utility.yul\":38551:38565   */\n      gt\n        /* \"#utility.yul\":38579:38580   */\n      0x01\n        /* \"#utility.yul\":38574:39192   */\n      dup2\n      eq\n      tag_730\n      jumpi\n        /* \"#utility.yul\":39236:39237   */\n      0x00\n        /* \"#utility.yul\":39253:39259   */\n      dup5\n        /* \"#utility.yul\":39250:39327   */\n      iszero\n      tag_731\n      jumpi\n        /* \"#utility.yul\":39302:39311   */\n      dup3\n        /* \"#utility.yul\":39297:39300   */\n      dup8\n        /* \"#utility.yul\":39293:39312   */\n      add\n        /* \"#utility.yul\":39287:39313   */\n      mload\n        /* \"#utility.yul\":39278:39313   */\n      swap1\n      pop\n        /* \"#utility.yul\":39250:39327   */\n    tag_731:\n        /* \"#utility.yul\":39353:39420   */\n      tag_732\n        /* \"#utility.yul\":39413:39419   */\n      dup6\n        /* \"#utility.yul\":39406:39411   */\n      dup3\n        /* \"#utility.yul\":39353:39420   */\n      tag_358\n      jump\t// in\n    tag_732:\n        /* \"#utility.yul\":39347:39351   */\n      dup7\n        /* \"#utility.yul\":39340:39421   */\n      sstore\n        /* \"#utility.yul\":39209:39431   */\n      pop\n        /* \"#utility.yul\":38544:39431   */\n      jump(tag_729)\n        /* \"#utility.yul\":38574:39192   */\n    tag_730:\n        /* \"#utility.yul\":38626:38630   */\n      0x1f\n        /* \"#utility.yul\":38622:38631   */\n      not\n        /* \"#utility.yul\":38614:38620   */\n      dup5\n        /* \"#utility.yul\":38610:38632   */\n      and\n        /* \"#utility.yul\":38660:38697   */\n      tag_733\n        /* \"#utility.yul\":38692:38696   */\n      dup7\n        /* \"#utility.yul\":38660:38697   */\n      tag_344\n      jump\t// in\n    tag_733:\n        /* \"#utility.yul\":38719:38720   */\n      0x00\n        /* \"#utility.yul\":38733:38941   */\n    tag_734:\n        /* \"#utility.yul\":38747:38754   */\n      dup3\n        /* \"#utility.yul\":38744:38745   */\n      dup2\n        /* \"#utility.yul\":38741:38755   */\n      lt\n        /* \"#utility.yul\":38733:38941   */\n      iszero\n      tag_736\n      jumpi\n        /* \"#utility.yul\":38826:38835   */\n      dup5\n        /* \"#utility.yul\":38821:38824   */\n      dup10\n        /* \"#utility.yul\":38817:38836   */\n      add\n        /* \"#utility.yul\":38811:38837   */\n      mload\n        /* \"#utility.yul\":38803:38809   */\n      dup3\n        /* \"#utility.yul\":38796:38838   */\n      sstore\n        /* \"#utility.yul\":38877:38878   */\n      0x01\n        /* \"#utility.yul\":38869:38875   */\n      dup3\n        /* \"#utility.yul\":38865:38879   */\n      add\n        /* \"#utility.yul\":38855:38879   */\n      swap2\n      pop\n        /* \"#utility.yul\":38924:38926   */\n      0x20\n        /* \"#utility.yul\":38913:38922   */\n      dup6\n        /* \"#utility.yul\":38909:38927   */\n      add\n        /* \"#utility.yul\":38896:38927   */\n      swap5\n      pop\n        /* \"#utility.yul\":38770:38774   */\n      0x20\n        /* \"#utility.yul\":38767:38768   */\n      dup2\n        /* \"#utility.yul\":38763:38775   */\n      add\n        /* \"#utility.yul\":38758:38775   */\n      swap1\n      pop\n        /* \"#utility.yul\":38733:38941   */\n      jump(tag_734)\n    tag_736:\n        /* \"#utility.yul\":38969:38975   */\n      dup7\n        /* \"#utility.yul\":38960:38967   */\n      dup4\n        /* \"#utility.yul\":38957:38976   */\n      lt\n        /* \"#utility.yul\":38954:39133   */\n      iszero\n      tag_737\n      jumpi\n        /* \"#utility.yul\":39027:39036   */\n      dup5\n        /* \"#utility.yul\":39022:39025   */\n      dup10\n        /* \"#utility.yul\":39018:39037   */\n      add\n        /* \"#utility.yul\":39012:39038   */\n      mload\n        /* \"#utility.yul\":39070:39118   */\n      tag_738\n        /* \"#utility.yul\":39112:39116   */\n      0x1f\n        /* \"#utility.yul\":39104:39110   */\n      dup10\n        /* \"#utility.yul\":39100:39117   */\n      and\n        /* \"#utility.yul\":39089:39098   */\n      dup3\n        /* \"#utility.yul\":39070:39118   */\n      tag_357\n      jump\t// in\n    tag_738:\n        /* \"#utility.yul\":39062:39068   */\n      dup4\n        /* \"#utility.yul\":39055:39119   */\n      sstore\n        /* \"#utility.yul\":38977:39133   */\n      pop\n        /* \"#utility.yul\":38954:39133   */\n    tag_737:\n        /* \"#utility.yul\":39179:39180   */\n      0x01\n        /* \"#utility.yul\":39175:39176   */\n      0x02\n        /* \"#utility.yul\":39167:39173   */\n      dup9\n        /* \"#utility.yul\":39163:39177   */\n      mul\n        /* \"#utility.yul\":39159:39181   */\n      add\n        /* \"#utility.yul\":39153:39157   */\n      dup9\n        /* \"#utility.yul\":39146:39182   */\n      sstore\n        /* \"#utility.yul\":38581:39192   */\n      pop\n      pop\n      pop\n        /* \"#utility.yul\":38544:39431   */\n    tag_729:\n      pop\n        /* \"#utility.yul\":38134:39437   */\n      pop\n      pop\n      pop\n        /* \"#utility.yul\":38042:39437   */\n      pop\n      pop\n      jump\t// out\n\n    auxdata: 0xa26469706673582212208a7f06a562d4d6c17b72a59965e6d87286cfee73c1cfbad00be564138276026664736f6c634300081e0033\n}\n",
				"bytecode": {
					"linkReferences": {},
					"object": "6080604052348015600e575f5ffd5b506134a48061001c5f395ff3fe6080604052600436106100fc575f3560e01c8063454a2ab311610094578063b9a2de3a11610063578063b9a2de3a14610369578063cda4beef14610391578063e985e9c5146103cd578063fba0ee6414610409578063fd8bf59614610431576100fc565b8063454a2ab3146102a75780634e1273f4146102c3578063571a26a0146102ff578063a22cb46514610341576100fc565b80630febdd49116100d05780630febdd49146101dc5780632a55205a146102045780632ad71573146102415780633f1ffcec1461026b576100fc565b8062fdd58e1461010057806301ffc9a71461013c5780630e89341c146101785780630eaaf4c8146101b4575b5f5ffd5b34801561010b575f5ffd5b5061012660048036038101906101219190612121565b610459565b604051610133919061216e565b60405180910390f35b348015610147575f5ffd5b50610162600480360381019061015d91906121dc565b61051c565b60405161016f9190612221565b60405180910390f35b348015610183575f5ffd5b5061019e6004803603810190610199919061223a565b61057d565b6040516101ab91906122d5565b60405180910390f35b3480156101bf575f5ffd5b506101da60048036038101906101d5919061223a565b61061e565b005b3480156101e7575f5ffd5b5061020260048036038101906101fd91906122f5565b610783565b005b34801561020f575f5ffd5b5061022a60048036038101906102259190612359565b610ac1565b6040516102389291906123a6565b60405180910390f35b34801561024c575f5ffd5b50610255610bb3565b604051610262919061216e565b60405180910390f35b348015610276575f5ffd5b50610291600480360381019061028c91906123cd565b610bb9565b60405161029e919061216e565b60405180910390f35b6102c160048036038101906102bc919061223a565b610bd9565b005b3480156102ce575f5ffd5b506102e960048036038101906102e491906124c1565b610e09565b6040516102f691906125f6565b60405180910390f35b34801561030a575f5ffd5b506103256004803603810190610320919061223a565b610f77565b6040516103389796959493929190612616565b60405180910390f35b34801561034c575f5ffd5b50610367600480360381019061036291906126ad565b611000565b005b348015610374575f5ffd5b5061038f600480360381019061038a919061223a565b6110f8565b005b34801561039c575f5ffd5b506103b760048036038101906103b291906126eb565b6114fa565b6040516103c4919061216e565b60405180910390f35b3480156103d8575f5ffd5b506103f360048036038101906103ee919061273b565b611864565b6040516104009190612221565b60405180910390f35b348015610414575f5ffd5b5061042f600480360381019061042a9190612779565b6118f2565b005b34801561043c575f5ffd5b5061045760048036038101906104529190612985565b611d32565b005b5f5f73ffffffffffffffffffffffffffffffffffffffff168373ffffffffffffffffffffffffffffffffffffffff16036104c8576040517f08c379a00000000000000000000000000000000000000000000000000000000081526004016104bf90612a74565b60405180910390fd5b5f5f8381526020019081526020015f205f8473ffffffffffffffffffffffffffffffffffffffff1673ffffffffffffffffffffffffffffffffffffffff1681526020019081526020015f2054905092915050565b5f63d9b67a2660e01b827bffffffffffffffffffffffffffffffffffffffffffffffffffffffff191614806105765750632a55205a60e01b827bffffffffffffffffffffffffffffffffffffffffffffffffffffffff1916145b9050919050565b606060025f8381526020019081526020015f20805461059b90612abf565b80601f01602080910402602001604051908101604052809291908181526020018280546105c790612abf565b80156106125780601f106105e957610100808354040283529160200191610612565b820191905f5260205f20905b8154815290600101906020018083116105f557829003601f168201915b50505050509050919050565b5f60065f8381526020019081526020015f205f3373ffffffffffffffffffffffffffffffffffffffff1673ffffffffffffffffffffffffffffffffffffffff1681526020019081526020015f205490505f81116106b0576040517f08c379a00000000000000000000000000000000000000000000000000000000081526004016106a790612b39565b60405180910390fd5b5f60065f8481526020019081526020015f205f3373ffffffffffffffffffffffffffffffffffffffff1673ffffffffffffffffffffffffffffffffffffffff1681526020019081526020015f20819055503373ffffffffffffffffffffffffffffffffffffffff166108fc8290811502906040515f60405180830381858888f19350505050158015610744573d5f5f3e3d5ffd5b50817f7ca5472b7ea78c2c0141c5a12ee6d170cf4ce8ed06be3d22c8252ddfc7a6a2c433836040516107779291906123a6565b60405180910390a25050565b833373ffffffffffffffffffffffffffffffffffffffff168173ffffffffffffffffffffffffffffffffffffffff16148061083f575060015f8273ffffffffffffffffffffffffffffffffffffffff1673ffffffffffffffffffffffffffffffffffffffff1681526020019081526020015f205f3373ffffffffffffffffffffffffffffffffffffffff1673ffffffffffffffffffffffffffffffffffffffff1681526020019081526020015f205f9054906101000a900460ff165b61087e576040517f08c379a000000000000000000000000000000000000000000000000000000000815260040161087590612ba1565b60405180910390fd5b5f73ffffffffffffffffffffffffffffffffffffffff168473ffffffffffffffffffffffffffffffffffffffff16036108ec576040517f08c379a00000000000000000000000000000000000000000000000000000000081526004016108e390612a74565b60405180910390fd5b815f5f8581526020019081526020015f205f8773ffffffffffffffffffffffffffffffffffffffff1673ffffffffffffffffffffffffffffffffffffffff1681526020019081526020015f2054101561097a576040517f08c379a000000000000000000000000000000000000000000000000000000000815260040161097190612c09565b60405180910390fd5b815f5f8581526020019081526020015f205f8773ffffffffffffffffffffffffffffffffffffffff1673ffffffffffffffffffffffffffffffffffffffff1681526020019081526020015f205f8282546109d49190612c54565b92505081905550815f5f8581526020019081526020015f205f8673ffffffffffffffffffffffffffffffffffffffff1673ffffffffffffffffffffffffffffffffffffffff1681526020019081526020015f205f828254610a359190612c87565b925050819055508373ffffffffffffffffffffffffffffffffffffffff168573ffffffffffffffffffffffffffffffffffffffff163373ffffffffffffffffffffffffffffffffffffffff167fc3d58168c5ae7397731d063d5bbf3d657854427343f4c083240f7aacaa2d0f628686604051610ab2929190612cba565b60405180910390a45050505050565b5f5f5f60035f8681526020019081526020015f206040518060400160405290815f82015f9054906101000a900473ffffffffffffffffffffffffffffffffffffffff1673ffffffffffffffffffffffffffffffffffffffff1673ffffffffffffffffffffffffffffffffffffffff1681526020015f820160149054906101000a90046bffffffffffffffffffffffff166bffffffffffffffffffffffff166bffffffffffffffffffffffff168152505090505f61271082602001516bffffffffffffffffffffffff1686610b959190612ce1565b610b9f9190612d4f565b9050815f0151819350935050509250929050565b60045481565b6006602052815f5260405f20602052805f5260405f205f91509150505481565b8060055f8281526020019081526020015f20600301544210610c30576040517f08c379a0000000000000000000000000000000000000000000000000000000008152600401610c2790612dc9565b60405180910390fd5b5f60055f8481526020019081526020015f20905080600401543411610c8a576040517f08c379a0000000000000000000000000000000000000000000000000000000008152600401610c8190612e31565b60405180910390fd5b5f73ffffffffffffffffffffffffffffffffffffffff16816005015f9054906101000a900473ffffffffffffffffffffffffffffffffffffffff1673ffffffffffffffffffffffffffffffffffffffff1614610d6a57806004015460065f8581526020019081526020015f205f836005015f9054906101000a900473ffffffffffffffffffffffffffffffffffffffff1673ffffffffffffffffffffffffffffffffffffffff1673ffffffffffffffffffffffffffffffffffffffff1681526020019081526020015f205f828254610d629190612c87565b925050819055505b34816004018190555033816005015f6101000a81548173ffffffffffffffffffffffffffffffffffffffff021916908373ffffffffffffffffffffffffffffffffffffffff1602179055503373ffffffffffffffffffffffffffffffffffffffff16837f0e54eff26401bf69b81b26f60bd85ef47f5d85275c1d268d84f68d6897431c4734604051610dfc919061216e565b60405180910390a3505050565b6060828290508585905014610e53576040517f08c379a0000000000000000000000000000000000000000000000000000000008152600401610e4a90612e99565b60405180910390fd5b5f8585905067ffffffffffffffff811115610e7157610e70612820565b5b604051908082528060200260200182016040528015610e9f5781602001602082028036833780820191505090505b5090505f5f90505b86869050811015610f6a575f5f868684818110610ec757610ec6612eb7565b5b9050602002013581526020019081526020015f205f888884818110610eef57610eee612eb7565b5b9050602002016020810190610f049190612ee4565b73ffffffffffffffffffffffffffffffffffffffff1673ffffffffffffffffffffffffffffffffffffffff1681526020019081526020015f2054828281518110610f5157610f50612eb7565b5b6020026020010181815250508080600101915050610ea7565b5080915050949350505050565b6005602052805f5260405f205f91509050805f015f9054906101000a900473ffffffffffffffffffffffffffffffffffffffff1690806001015490806002015490806003015490806004015490806005015f9054906101000a900473ffffffffffffffffffffffffffffffffffffffff16908060050160149054906101000a900460ff16905087565b8060015f3373ffffffffffffffffffffffffffffffffffffffff1673ffffffffffffffffffffffffffffffffffffffff1681526020019081526020015f205f8473ffffffffffffffffffffffffffffffffffffffff1673ffffffffffffffffffffffffffffffffffffffff1681526020019081526020015f205f6101000a81548160ff0219169083151502179055508173ffffffffffffffffffffffffffffffffffffffff163373ffffffffffffffffffffffffffffffffffffffff167f17307eab39ab6107e8899845ad3d59bd9653f200f220920489ca2b5937696c31836040516110ec9190612221565b60405180910390a35050565b8060055f8281526020019081526020015f2060030154421015611150576040517f08c379a000000000000000000000000000000000000000000000000000000000815260040161114790612f59565b60405180910390fd5b8160055f8281526020019081526020015f2060050160149054906101000a900460ff16156111b3576040517f08c379a00000000000000000000000000000000000000000000000000000000081526004016111aa90612fc1565b60405180910390fd5b5f60055f8581526020019081526020015f20905060018160050160146101000a81548160ff0219169083151502179055505f73ffffffffffffffffffffffffffffffffffffffff16816005015f9054906101000a900473ffffffffffffffffffffffffffffffffffffffff1673ffffffffffffffffffffffffffffffffffffffff161461139e5780600201545f5f836001015481526020019081526020015f205f3073ffffffffffffffffffffffffffffffffffffffff1673ffffffffffffffffffffffffffffffffffffffff1681526020019081526020015f205f82825461129c9190612c54565b9250508190555080600201545f5f836001015481526020019081526020015f205f836005015f9054906101000a900473ffffffffffffffffffffffffffffffffffffffff1673ffffffffffffffffffffffffffffffffffffffff1673ffffffffffffffffffffffffffffffffffffffff1681526020019081526020015f205f8282546113289190612c87565b92505081905550805f015f9054906101000a900473ffffffffffffffffffffffffffffffffffffffff1673ffffffffffffffffffffffffffffffffffffffff166108fc826004015490811502906040515f60405180830381858888f19350505050158015611398573d5f5f3e3d5ffd5b50611493565b80600201545f5f836001015481526020019081526020015f205f3073ffffffffffffffffffffffffffffffffffffffff1673ffffffffffffffffffffffffffffffffffffffff1681526020019081526020015f205f8282546114009190612c54565b9250508190555080600201545f5f836001015481526020019081526020015f205f835f015f9054906101000a900473ffffffffffffffffffffffffffffffffffffffff1673ffffffffffffffffffffffffffffffffffffffff1673ffffffffffffffffffffffffffffffffffffffff1681526020019081526020015f205f82825461148b9190612c87565b925050819055505b837fd2aa34a4fdbbc6dff6a3e56f46e0f3ae2a31d7785ff3487aa5c95c642acea501826005015f9054906101000a900473ffffffffffffffffffffffffffffffffffffffff1683600401546040516114ec9291906123a6565b60405180910390a250505050565b5f825f5f8681526020019081526020015f205f3373ffffffffffffffffffffffffffffffffffffffff1673ffffffffffffffffffffffffffffffffffffffff1681526020019081526020015f20541015611589576040517f08c379a000000000000000000000000000000000000000000000000000000000815260040161158090613029565b60405180910390fd5b603c8210156115cd576040517f08c379a00000000000000000000000000000000000000000000000000000000081526004016115c490613091565b60405180910390fd5b825f5f8681526020019081526020015f205f3373ffffffffffffffffffffffffffffffffffffffff1673ffffffffffffffffffffffffffffffffffffffff1681526020019081526020015f205f8282546116279190612c54565b92505081905550825f5f8681526020019081526020015f205f3073ffffffffffffffffffffffffffffffffffffffff1673ffffffffffffffffffffffffffffffffffffffff1681526020019081526020015f205f8282546116889190612c87565b9250508190555060045f8154809291906116a1906130af565b91905055506040518060e001604052803373ffffffffffffffffffffffffffffffffffffffff16815260200185815260200184815260200183426116e59190612c87565b81526020015f81526020015f73ffffffffffffffffffffffffffffffffffffffff1681526020015f151581525060055f60045481526020019081526020015f205f820151815f015f6101000a81548173ffffffffffffffffffffffffffffffffffffffff021916908373ffffffffffffffffffffffffffffffffffffffff1602179055506020820151816001015560408201518160020155606082015181600301556080820151816004015560a0820151816005015f6101000a81548173ffffffffffffffffffffffffffffffffffffffff021916908373ffffffffffffffffffffffffffffffffffffffff16021790555060c08201518160050160146101000a81548160ff0219169083151502179055509050503373ffffffffffffffffffffffffffffffffffffffff166004547fc9050d42180a61cb0d9ebb8ad118b62fe6eab12cf12ff752c4a0cc7da9ddf6278685426118429190612c87565b604051611850929190612cba565b60405180910390a360045490509392505050565b5f60015f8473ffffffffffffffffffffffffffffffffffffffff1673ffffffffffffffffffffffffffffffffffffffff1681526020019081526020015f205f8373ffffffffffffffffffffffffffffffffffffffff1673ffffffffffffffffffffffffffffffffffffffff1681526020019081526020015f205f9054906101000a900460ff16905092915050565b853373ffffffffffffffffffffffffffffffffffffffff168173ffffffffffffffffffffffffffffffffffffffff1614806119ae575060015f8273ffffffffffffffffffffffffffffffffffffffff1673ffffffffffffffffffffffffffffffffffffffff1681526020019081526020015f205f3373ffffffffffffffffffffffffffffffffffffffff1673ffffffffffffffffffffffffffffffffffffffff1681526020019081526020015f205f9054906101000a900460ff165b6119ed576040517f08c379a00000000000000000000000000000000000000000000000000000000081526004016119e490612ba1565b60405180910390fd5b5f73ffffffffffffffffffffffffffffffffffffffff168673ffffffffffffffffffffffffffffffffffffffff1603611a5b576040517f08c379a0000000000000000000000000000000000000000000000000000000008152600401611a5290612a74565b60405180910390fd5b828290508585905014611aa3576040517f08c379a0000000000000000000000000000000000000000000000000000000008152600401611a9a90612e99565b60405180910390fd5b5f5f90505b85859050811015611ca657838382818110611ac657611ac5612eb7565b5b905060200201355f5f888885818110611ae257611ae1612eb7565b5b9050602002013581526020019081526020015f205f8a73ffffffffffffffffffffffffffffffffffffffff1673ffffffffffffffffffffffffffffffffffffffff1681526020019081526020015f20541015611b73576040517f08c379a0000000000000000000000000000000000000000000000000000000008152600401611b6a90612c09565b60405180910390fd5b838382818110611b8657611b85612eb7565b5b905060200201355f5f888885818110611ba257611ba1612eb7565b5b9050602002013581526020019081526020015f205f8a73ffffffffffffffffffffffffffffffffffffffff1673ffffffffffffffffffffffffffffffffffffffff1681526020019081526020015f205f828254611bff9190612c54565b92505081905550838382818110611c1957611c18612eb7565b5b905060200201355f5f888885818110611c3557611c34612eb7565b5b9050602002013581526020019081526020015f205f8973ffffffffffffffffffffffffffffffffffffffff1673ffffffffffffffffffffffffffffffffffffffff1681526020019081526020015f205f828254611c929190612c87565b925050819055508080600101915050611aa8565b508573ffffffffffffffffffffffffffffffffffffffff168773ffffffffffffffffffffffffffffffffffffffff163373ffffffffffffffffffffffffffffffffffffffff167f4a39dc06d4c0dbc64b70af90fd698a233a518aa5d07e595d983b8c0526c8f7fb88888888604051611d21949392919061315e565b60405180910390a450505050505050565b5f73ffffffffffffffffffffffffffffffffffffffff168673ffffffffffffffffffffffffffffffffffffffff1603611da0576040517f08c379a0000000000000000000000000000000000000000000000000000000008152600401611d9790612a74565b60405180910390fd5b612710816bffffffffffffffffffffffff161115611df3576040517f08c379a0000000000000000000000000000000000000000000000000000000008152600401611dea906131e1565b60405180910390fd5b835f5f8781526020019081526020015f205f8873ffffffffffffffffffffffffffffffffffffffff1673ffffffffffffffffffffffffffffffffffffffff1681526020019081526020015f205f828254611e4d9190612c87565b925050819055505f60025f8781526020019081526020015f208054611e7190612abf565b905003611ed0578260025f8781526020019081526020015f209081611e96919061339f565b50847f6bb7ff708619ba0610cba295a58592e0451dee2622938c8755667688daf3529b84604051611ec791906122d5565b60405180910390a25b5f73ffffffffffffffffffffffffffffffffffffffff1660035f8781526020019081526020015f205f015f9054906101000a900473ffffffffffffffffffffffffffffffffffffffff1673ffffffffffffffffffffffffffffffffffffffff1603611ffd5760405180604001604052808373ffffffffffffffffffffffffffffffffffffffff168152602001826bffffffffffffffffffffffff1681525060035f8781526020019081526020015f205f820151815f015f6101000a81548173ffffffffffffffffffffffffffffffffffffffff021916908373ffffffffffffffffffffffffffffffffffffffff1602179055506020820151815f0160146101000a8154816bffffffffffffffffffffffff02191690836bffffffffffffffffffffffff1602179055509050505b8573ffffffffffffffffffffffffffffffffffffffff165f73ffffffffffffffffffffffffffffffffffffffff163373ffffffffffffffffffffffffffffffffffffffff167fc3d58168c5ae7397731d063d5bbf3d657854427343f4c083240f7aacaa2d0f628888604051612073929190612cba565b60405180910390a4505050505050565b5f604051905090565b5f5ffd5b5f5ffd5b5f73ffffffffffffffffffffffffffffffffffffffff82169050919050565b5f6120bd82612094565b9050919050565b6120cd816120b3565b81146120d7575f5ffd5b50565b5f813590506120e8816120c4565b92915050565b5f819050919050565b612100816120ee565b811461210a575f5ffd5b50565b5f8135905061211b816120f7565b92915050565b5f5f604083850312156121375761213661208c565b5b5f612144858286016120da565b92505060206121558582860161210d565b9150509250929050565b612168816120ee565b82525050565b5f6020820190506121815f83018461215f565b92915050565b5f7fffffffff0000000000000000000000000000000000000000000000000000000082169050919050565b6121bb81612187565b81146121c5575f5ffd5b50565b5f813590506121d6816121b2565b92915050565b5f602082840312156121f1576121f061208c565b5b5f6121fe848285016121c8565b91505092915050565b5f8115159050919050565b61221b81612207565b82525050565b5f6020820190506122345f830184612212565b92915050565b5f6020828403121561224f5761224e61208c565b5b5f61225c8482850161210d565b91505092915050565b5f81519050919050565b5f82825260208201905092915050565b8281835e5f83830152505050565b5f601f19601f8301169050919050565b5f6122a782612265565b6122b1818561226f565b93506122c181856020860161227f565b6122ca8161228d565b840191505092915050565b5f6020820190508181035f8301526122ed818461229d565b905092915050565b5f5f5f5f6080858703121561230d5761230c61208c565b5b5f61231a878288016120da565b945050602061232b878288016120da565b935050604061233c8782880161210d565b925050606061234d8782880161210d565b91505092959194509250565b5f5f6040838503121561236f5761236e61208c565b5b5f61237c8582860161210d565b925050602061238d8582860161210d565b9150509250929050565b6123a0816120b3565b82525050565b5f6040820190506123b95f830185612397565b6123c6602083018461215f565b9392505050565b5f5f604083850312156123e3576123e261208c565b5b5f6123f08582860161210d565b9250506020612401858286016120da565b9150509250929050565b5f5ffd5b5f5ffd5b5f5ffd5b5f5f83601f84011261242c5761242b61240b565b5b8235905067ffffffffffffffff8111156124495761244861240f565b5b60208301915083602082028301111561246557612464612413565b5b9250929050565b5f5f83601f8401126124815761248061240b565b5b8235905067ffffffffffffffff81111561249e5761249d61240f565b5b6020830191508360208202830111156124ba576124b9612413565b5b9250929050565b5f5f5f5f604085870312156124d9576124d861208c565b5b5f85013567ffffffffffffffff8111156124f6576124f5612090565b5b61250287828801612417565b9450945050602085013567ffffffffffffffff81111561252557612524612090565b5b6125318782880161246c565b925092505092959194509250565b5f81519050919050565b5f82825260208201905092915050565b5f819050602082019050919050565b612571816120ee565b82525050565b5f6125828383612568565b60208301905092915050565b5f602082019050919050565b5f6125a48261253f565b6125ae8185612549565b93506125b983612559565b805f5b838110156125e95781516125d08882612577565b97506125db8361258e565b9250506001810190506125bc565b5085935050505092915050565b5f6020820190508181035f83015261260e818461259a565b905092915050565b5f60e0820190506126295f83018a612397565b612636602083018961215f565b612643604083018861215f565b612650606083018761215f565b61265d608083018661215f565b61266a60a0830185612397565b61267760c0830184612212565b98975050505050505050565b61268c81612207565b8114612696575f5ffd5b50565b5f813590506126a781612683565b92915050565b5f5f604083850312156126c3576126c261208c565b5b5f6126d0858286016120da565b92505060206126e185828601612699565b9150509250929050565b5f5f5f606084860312156127025761270161208c565b5b5f61270f8682870161210d565b93505060206127208682870161210d565b92505060406127318682870161210d565b9150509250925092565b5f5f604083850312156127515761275061208c565b5b5f61275e858286016120da565b925050602061276f858286016120da565b9150509250929050565b5f5f5f5f5f5f608087890312156127935761279261208c565b5b5f6127a089828a016120da565b96505060206127b189828a016120da565b955050604087013567ffffffffffffffff8111156127d2576127d1612090565b5b6127de89828a0161246c565b9450945050606087013567ffffffffffffffff81111561280157612800612090565b5b61280d89828a0161246c565b92509250509295509295509295565b5f5ffd5b7f4e487b71000000000000000000000000000000000000000000000000000000005f52604160045260245ffd5b6128568261228d565b810181811067ffffffffffffffff8211171561287557612874612820565b5b80604052505050565b5f612887612083565b9050612893828261284d565b919050565b5f67ffffffffffffffff8211156128b2576128b1612820565b5b6128bb8261228d565b9050602081019050919050565b828183375f83830152505050565b5f6128e86128e384612898565b61287e565b9050828152602081018484840111156129045761290361281c565b5b61290f8482856128c8565b509392505050565b5f82601f83011261292b5761292a61240b565b5b813561293b8482602086016128d6565b91505092915050565b5f6bffffffffffffffffffffffff82169050919050565b61296481612944565b811461296e575f5ffd5b50565b5f8135905061297f8161295b565b92915050565b5f5f5f5f5f5f60c0878903121561299f5761299e61208c565b5b5f6129ac89828a016120da565b96505060206129bd89828a0161210d565b95505060406129ce89828a0161210d565b945050606087013567ffffffffffffffff8111156129ef576129ee612090565b5b6129fb89828a01612917565b9350506080612a0c89828a016120da565b92505060a0612a1d89828a01612971565b9150509295509295509295565b7f5a65726f206164647265737300000000000000000000000000000000000000005f82015250565b5f612a5e600c8361226f565b9150612a6982612a2a565b602082019050919050565b5f6020820190508181035f830152612a8b81612a52565b9050919050565b7f4e487b71000000000000000000000000000000000000000000000000000000005f52602260045260245ffd5b5f6002820490506001821680612ad657607f821691505b602082108103612ae957612ae8612a92565b5b50919050565b7f4e6f20726566756e6400000000000000000000000000000000000000000000005f82015250565b5f612b2360098361226f565b9150612b2e82612aef565b602082019050919050565b5f6020820190508181035f830152612b5081612b17565b9050919050565b7f4e6f7420617574686f72697a65640000000000000000000000000000000000005f82015250565b5f612b8b600e8361226f565b9150612b9682612b57565b602082019050919050565b5f6020820190508181035f830152612bb881612b7f565b9050919050565b7f496e73756666696369656e742062616c616e63650000000000000000000000005f82015250565b5f612bf360148361226f565b9150612bfe82612bbf565b602082019050919050565b5f6020820190508181035f830152612c2081612be7565b9050919050565b7f4e487b71000000000000000000000000000000000000000000000000000000005f52601160045260245ffd5b5f612c5e826120ee565b9150612c69836120ee565b9250828203905081811115612c8157612c80612c27565b5b92915050565b5f612c91826120ee565b9150612c9c836120ee565b9250828201905080821115612cb457612cb3612c27565b5b92915050565b5f604082019050612ccd5f83018561215f565b612cda602083018461215f565b9392505050565b5f612ceb826120ee565b9150612cf6836120ee565b9250828202612d04816120ee565b91508282048414831517612d1b57612d1a612c27565b5b5092915050565b7f4e487b71000000000000000000000000000000000000000000000000000000005f52601260045260245ffd5b5f612d59826120ee565b9150612d64836120ee565b925082612d7457612d73612d22565b5b828204905092915050565b7f41756374696f6e20656e646564000000000000000000000000000000000000005f82015250565b5f612db3600d8361226f565b9150612dbe82612d7f565b602082019050919050565b5f6020820190508181035f830152612de081612da7565b9050919050565b7f4c6f7720626964000000000000000000000000000000000000000000000000005f82015250565b5f612e1b60078361226f565b9150612e2682612de7565b602082019050919050565b5f6020820190508181035f830152612e4881612e0f565b9050919050565b7f4d69736d617463686564206172726179730000000000000000000000000000005f82015250565b5f612e8360118361226f565b9150612e8e82612e4f565b602082019050919050565b5f6020820190508181035f830152612eb081612e77565b9050919050565b7f4e487b71000000000000000000000000000000000000000000000000000000005f52603260045260245ffd5b5f60208284031215612ef957612ef861208c565b5b5f612f06848285016120da565b91505092915050565b7f41756374696f6e206e6f7420656e6465640000000000000000000000000000005f82015250565b5f612f4360118361226f565b9150612f4e82612f0f565b602082019050919050565b5f6020820190508181035f830152612f7081612f37565b9050919050565b7f41756374696f6e20616c726561647920736574746c65640000000000000000005f82015250565b5f612fab60178361226f565b9150612fb682612f77565b602082019050919050565b5f6020820190508181035f830152612fd881612f9f565b9050919050565b7f4e6f74206f776e657200000000000000000000000000000000000000000000005f82015250565b5f61301360098361226f565b915061301e82612fdf565b602082019050919050565b5f6020820190508181035f83015261304081613007565b9050919050565b7f546f6f2073686f727400000000000000000000000000000000000000000000005f82015250565b5f61307b60098361226f565b915061308682613047565b602082019050919050565b5f6020820190508181035f8301526130a88161306f565b9050919050565b5f6130b9826120ee565b91507fffffffffffffffffffffffffffffffffffffffffffffffffffffffffffffffff82036130eb576130ea612c27565b5b600182019050919050565b5f5ffd5b82818337505050565b5f61310e8385612549565b93507f07ffffffffffffffffffffffffffffffffffffffffffffffffffffffffffffff831115613141576131406130f6565b5b6020830292506131528385846130fa565b82840190509392505050565b5f6040820190508181035f830152613177818688613103565b9050818103602083015261318c818486613103565b905095945050505050565b7f546f6f20686967680000000000000000000000000000000000000000000000005f82015250565b5f6131cb60088361226f565b91506131d682613197565b602082019050919050565b5f6020820190508181035f8301526131f8816131bf565b9050919050565b5f819050815f5260205f209050919050565b5f6020601f8301049050919050565b5f82821b905092915050565b5f6008830261325b7fffffffffffffffffffffffffffffffffffffffffffffffffffffffffffffffff82613220565b6132658683613220565b95508019841693508086168417925050509392505050565b5f819050919050565b5f6132a061329b613296846120ee565b61327d565b6120ee565b9050919050565b5f819050919050565b6132b983613286565b6132cd6132c5826132a7565b84845461322c565b825550505050565b5f5f905090565b6132e46132d5565b6132ef8184846132b0565b505050565b5b81811015613312576133075f826132dc565b6001810190506132f5565b5050565b601f82111561335757613328816131ff565b61333184613211565b81016020851015613340578190505b61335461334c85613211565b8301826132f4565b50505b505050565b5f82821c905092915050565b5f6133775f198460080261335c565b1980831691505092915050565b5f61338f8383613368565b9150826002028217905092915050565b6133a882612265565b67ffffffffffffffff8111156133c1576133c0612820565b5b6133cb8254612abf565b6133d6828285613316565b5f60209050601f831160018114613407575f84156133f5578287015190505b6133ff8582613384565b865550613466565b601f198416613415866131ff565b5f5b8281101561343c57848901518255600182019150602085019450602081019050613417565b868310156134595784890151613455601f891682613368565b8355505b6001600288020188555050505b50505050505056fea26469706673582212208a7f06a562d4d6c17b72a59965e6d87286cfee73c1cfbad00be564138276026664736f6c634300081e0033",
					"opcodes": "PUSH1 0x80 PUSH1 0x40 MSTORE CALLVALUE DUP1 ISZERO PUSH1 0xE JUMPI PUSH0 PUSH0 REVERT JUMPDEST POP PUSH2 0x34A4 DUP1 PUSH2 0x1C PUSH0 CODECOPY PUSH0 RETURN INVALID PUSH1 0x80 PUSH1 0x40 MSTORE PUSH1 0x4 CALLDATASIZE LT PUSH2 0xFC JUMPI PUSH0 CALLDATALOAD PUSH1 0xE0 SHR DUP1 PUSH4 0x454A2AB3 GT PUSH2 0x94 JUMPI DUP1 PUSH4 0xB9A2DE3A GT PUSH2 0x63 JUMPI DUP1 PUSH4 0xB9A2DE3A EQ PUSH2 0x369 JUMPI DUP1 PUSH4 0xCDA4BEEF EQ PUSH2 0x391 JUMPI DUP1 PUSH4 0xE985E9C5 EQ PUSH2 0x3CD JUMPI DUP1 PUSH4 0xFBA0EE64 EQ PUSH2 0x409 JUMPI DUP1 PUSH4 0xFD8BF596 EQ PUSH2 0x431 JUMPI PUSH2 0xFC JUMP JUMPDEST DUP1 PUSH4 0x454A2AB3 EQ PUSH2 0x2A7 JUMPI DUP1 PUSH4 0x4E1273F4 EQ PUSH2 0x2C3 JUMPI DUP1 PUSH4 0x571A26A0 EQ PUSH2 0x2FF JUMPI DUP1 PUSH4 0xA22CB465 EQ PUSH2 0x341 JUMPI PUSH2 0xFC JUMP JUMPDEST DUP1 PUSH4 0xFEBDD49 GT PUSH2 0xD0 JUMPI DUP1 PUSH4 0xFEBDD49 EQ PUSH2 0x1DC JUMPI DUP1 PUSH4 0x2A55205A EQ PUSH2 0x204 JUMPI DUP1 PUSH4 0x2AD71573 EQ PUSH2 0x241 JUMPI DUP1 PUSH4 0x3F1FFCEC EQ PUSH2 0x26B JUMPI PUSH2 0xFC JUMP JUMPDEST DUP1 PUSH3 0xFDD58E EQ PUSH2 0x100 JUMPI DUP1 PUSH4 0x1FFC9A7 EQ PUSH2 0x13C JUMPI DUP1 PUSH4 0xE89341C EQ PUSH2 0x178 JUMPI DUP1 PUSH4 0xEAAF4C8 EQ PUSH2 0x1B4 JUMPI JUMPDEST PUSH0 PUSH0 REVERT JUMPDEST CALLVALUE DUP1 ISZERO PUSH2 0x10B JUMPI PUSH0 PUSH0 REVERT JUMPDEST POP PUSH2 0x126 PUSH1 0x4 DUP1 CALLDATASIZE SUB DUP2 ADD SWAP1 PUSH2 0x121 SWAP2 SWAP1 PUSH2 0x2121 JUMP JUMPDEST PUSH2 0x459 JUMP JUMPDEST PUSH1 0x40 MLOAD PUSH2 0x133 SWAP2 SWAP1 PUSH2 0x216E JUMP JUMPDEST PUSH1 0x40 MLOAD DUP1 SWAP2 SUB SWAP1 RETURN JUMPDEST CALLVALUE DUP1 ISZERO PUSH2 0x147 JUMPI PUSH0 PUSH0 REVERT JUMPDEST POP PUSH2 0x162 PUSH1 0x4 DUP1 CALLDATASIZE SUB DUP2 ADD SWAP1 PUSH2 0x15D SWAP2 SWAP1 PUSH2 0x21DC JUMP JUMPDEST PUSH2 0x51C JUMP JUMPDEST PUSH1 0x40 MLOAD PUSH2 0x16F SWAP2 SWAP1 PUSH2 0x2221 JUMP JUMPDEST PUSH1 0x40 MLOAD DUP1 SWAP2 SUB SWAP1 RETURN JUMPDEST CALLVALUE DUP1 ISZERO PUSH2 0x183 JUMPI PUSH0 PUSH0 REVERT JUMPDEST POP PUSH2 0x19E PUSH1 0x4 DUP1 CALLDATASIZE SUB DUP2 ADD SWAP1 PUSH2 0x199 SWAP2 SWAP1 PUSH2 0x223A JUMP JUMPDEST PUSH2 0x57D JUMP JUMPDEST PUSH1 0x40 MLOAD PUSH2 0x1AB SWAP2 SWAP1 PUSH2 0x22D5 JUMP JUMPDEST PUSH1 0x40 MLOAD DUP1 SWAP2 SUB SWAP1 RETURN JUMPDEST CALLVALUE DUP1 ISZERO PUSH2 0x1BF JUMPI PUSH0 PUSH0 REVERT JUMPDEST POP PUSH2 0x1DA PUSH1 0x4 DUP1 CALLDATASIZE SUB DUP2 ADD SWAP1 PUSH2 0x1D5 SWAP2 SWAP1 PUSH2 0x223A JUMP JUMPDEST PUSH2 0x61E JUMP JUMPDEST STOP JUMPDEST CALLVALUE DUP1 ISZERO PUSH2 0x1E7 JUMPI PUSH0 PUSH0 REVERT JUMPDEST POP PUSH2 0x202 PUSH1 0x4 DUP1 CALLDATASIZE SUB DUP2 ADD SWAP1 PUSH2 0x1FD SWAP2 SWAP1 PUSH2 0x22F5 JUMP JUMPDEST PUSH2 0x783 JUMP JUMPDEST STOP JUMPDEST CALLVALUE DUP1 ISZERO PUSH2 0x20F JUMPI PUSH0 PUSH0 REVERT JUMPDEST POP PUSH2 0x22A PUSH1 0x4 DUP1 CALLDATASIZE SUB DUP2 ADD SWAP1 PUSH2 0x225 SWAP2 SWAP1 PUSH2 0x2359 JUMP JUMPDEST PUSH2 0xAC1 JUMP JUMPDEST PUSH1 0x40 MLOAD PUSH2 0x238 SWAP3 SWAP2 SWAP1 PUSH2 0x23A6 JUMP JUMPDEST PUSH1 0x40 MLOAD DUP1 SWAP2 SUB SWAP1 RETURN JUMPDEST CALLVALUE DUP1 ISZERO PUSH2 0x24C JUMPI PUSH0 PUSH0 REVERT JUMPDEST POP PUSH2 0x255 PUSH2 0xBB3 JUMP JUMPDEST PUSH1 0x40 MLOAD PUSH2 0x262 SWAP2 SWAP1 PUSH2 0x216E JUMP JUMPDEST PUSH1 0x40 MLOAD DUP1 SWAP2 SUB SWAP1 RETURN JUMPDEST CALLVALUE DUP1 ISZERO PUSH2 0x276 JUMPI PUSH0 PUSH0 REVERT JUMPDEST POP PUSH2 0x291 PUSH1 0x4 DUP1 CALLDATASIZE SUB DUP2 ADD SWAP1 PUSH2 0x28C SWAP2 SWAP1 PUSH2 0x23CD JUMP JUMPDEST PUSH2 0xBB9 JUMP JUMPDEST PUSH1 0x40 MLOAD PUSH2 0x29E SWAP2 SWAP1 PUSH2 0x216E JUMP JUMPDEST PUSH1 0x40 MLOAD DUP1 SWAP2 SUB SWAP1 RETURN JUMPDEST PUSH2 0x2C1 PUSH1 0x4 DUP1 CALLDATASIZE SUB DUP2 ADD SWAP1 PUSH2 0x2BC SWAP2 SWAP1 PUSH2 0x223A JUMP JUMPDEST PUSH2 0xBD9 JUMP JUMPDEST STOP JUMPDEST CALLVALUE DUP1 ISZERO PUSH2 0x2CE JUMPI PUSH0 PUSH0 REVERT JUMPDEST POP PUSH2 0x2E9 PUSH1 0x4 DUP1 CALLDATASIZE SUB DUP2 ADD SWAP1 PUSH2 0x2E4 SWAP2 SWAP1 PUSH2 0x24C1 JUMP JUMPDEST PUSH2 0xE09 JUMP JUMPDEST PUSH1 0x40 MLOAD PUSH2 0x2F6 SWAP2 SWAP1 PUSH2 0x25F6 JUMP JUMPDEST PUSH1 0x40 MLOAD DUP1 SWAP2 SUB SWAP1 RETURN JUMPDEST CALLVALUE DUP1 ISZERO PUSH2 0x30A JUMPI PUSH0 PUSH0 REVERT JUMPDEST POP PUSH2 0x325 PUSH1 0x4 DUP1 CALLDATASIZE SUB DUP2 ADD SWAP1 PUSH2 0x320 SWAP2 SWAP1 PUSH2 0x223A JUMP JUMPDEST PUSH2 0xF77 JUMP JUMPDEST PUSH1 0x40 MLOAD PUSH2 0x338 SWAP8 SWAP7 SWAP6 SWAP5 SWAP4 SWAP3 SWAP2 SWAP1 PUSH2 0x2616 JUMP JUMPDEST PUSH1 0x40 MLOAD DUP1 SWAP2 SUB SWAP1 RETURN JUMPDEST CALLVALUE DUP1 ISZERO PUSH2 0x34C JUMPI PUSH0 PUSH0 REVERT JUMPDEST POP PUSH2 0x367 PUSH1 0x4 DUP1 CALLDATASIZE SUB DUP2 ADD SWAP1 PUSH2 0x362 SWAP2 SWAP1 PUSH2 0x26AD JUMP JUMPDEST PUSH2 0x1000 JUMP JUMPDEST STOP JUMPDEST CALLVALUE DUP1 ISZERO PUSH2 0x374 JUMPI PUSH0 PUSH0 REVERT JUMPDEST POP PUSH2 0x38F PUSH1 0x4 DUP1 CALLDATASIZE SUB DUP2 ADD SWAP1 PUSH2 0x38A SWAP2 SWAP1 PUSH2 0x223A JUMP JUMPDEST PUSH2 0x10F8 JUMP JUMPDEST STOP JUMPDEST CALLVALUE DUP1 ISZERO PUSH2 0x39C JUMPI PUSH0 PUSH0 REVERT JUMPDEST POP PUSH2 0x3B7 PUSH1 0x4 DUP1 CALLDATASIZE SUB DUP2 ADD SWAP1 PUSH2 0x3B2 SWAP2 SWAP1 PUSH2 0x26EB JUMP JUMPDEST PUSH2 0x14FA JUMP JUMPDEST PUSH1 0x40 MLOAD PUSH2 0x3C4 SWAP2 SWAP1 PUSH2 0x216E JUMP JUMPDEST PUSH1 0x40 MLOAD DUP1 SWAP2 SUB SWAP1 RETURN JUMPDEST CALLVALUE DUP1 ISZERO PUSH2 0x3D8 JUMPI PUSH0 PUSH0 REVERT JUMPDEST POP PUSH2 0x3F3 PUSH1 0x4 DUP1 CALLDATASIZE SUB DUP2 ADD SWAP1 PUSH2 0x3EE SWAP2 SWAP1 PUSH2 0x273B JUMP JUMPDEST PUSH2 0x1864 JUMP JUMPDEST PUSH1 0x40 MLOAD PUSH2 0x400 SWAP2 SWAP1 PUSH2 0x2221 JUMP JUMPDEST PUSH1 0x40 MLOAD DUP1 SWAP2 SUB SWAP1 RETURN JUMPDEST CALLVALUE DUP1 ISZERO PUSH2 0x414 JUMPI PUSH0 PUSH0 REVERT JUMPDEST POP PUSH2 0x42F PUSH1 0x4 DUP1 CALLDATASIZE SUB DUP2 ADD SWAP1 PUSH2 0x42A SWAP2 SWAP1 PUSH2 0x2779 JUMP JUMPDEST PUSH2 0x18F2 JUMP JUMPDEST STOP JUMPDEST CALLVALUE DUP1 ISZERO PUSH2 0x43C JUMPI PUSH0 PUSH0 REVERT JUMPDEST POP PUSH2 0x457 PUSH1 0x4 DUP1 CALLDATASIZE SUB DUP2 ADD SWAP1 PUSH2 0x452 SWAP2 SWAP1 PUSH2 0x2985 JUMP JUMPDEST PUSH2 0x1D32 JUMP JUMPDEST STOP JUMPDEST PUSH0 PUSH0 PUSH20 0xFFFFFFFFFFFFFFFFFFFFFFFFFFFFFFFFFFFFFFFF AND DUP4 PUSH20 0xFFFFFFFFFFFFFFFFFFFFFFFFFFFFFFFFFFFFFFFF AND SUB PUSH2 0x4C8 JUMPI PUSH1 0x40 MLOAD PUSH32 0x8C379A000000000000000000000000000000000000000000000000000000000 DUP2 MSTORE PUSH1 0x4 ADD PUSH2 0x4BF SWAP1 PUSH2 0x2A74 JUMP JUMPDEST PUSH1 0x40 MLOAD DUP1 SWAP2 SUB SWAP1 REVERT JUMPDEST PUSH0 PUSH0 DUP4 DUP2 MSTORE PUSH1 0x20 ADD SWAP1 DUP2 MSTORE PUSH1 0x20 ADD PUSH0 KECCAK256 PUSH0 DUP5 PUSH20 0xFFFFFFFFFFFFFFFFFFFFFFFFFFFFFFFFFFFFFFFF AND PUSH20 0xFFFFFFFFFFFFFFFFFFFFFFFFFFFFFFFFFFFFFFFF AND DUP2 MSTORE PUSH1 0x20 ADD SWAP1 DUP2 MSTORE PUSH1 0x20 ADD PUSH0 KECCAK256 SLOAD SWAP1 POP SWAP3 SWAP2 POP POP JUMP JUMPDEST PUSH0 PUSH4 0xD9B67A26 PUSH1 0xE0 SHL DUP3 PUSH28 0xFFFFFFFFFFFFFFFFFFFFFFFFFFFFFFFFFFFFFFFFFFFFFFFFFFFFFFFF NOT AND EQ DUP1 PUSH2 0x576 JUMPI POP PUSH4 0x2A55205A PUSH1 0xE0 SHL DUP3 PUSH28 0xFFFFFFFFFFFFFFFFFFFFFFFFFFFFFFFFFFFFFFFFFFFFFFFFFFFFFFFF NOT AND EQ JUMPDEST SWAP1 POP SWAP2 SWAP1 POP JUMP JUMPDEST PUSH1 0x60 PUSH1 0x2 PUSH0 DUP4 DUP2 MSTORE PUSH1 0x20 ADD SWAP1 DUP2 MSTORE PUSH1 0x20 ADD PUSH0 KECCAK256 DUP1 SLOAD PUSH2 0x59B SWAP1 PUSH2 0x2ABF JUMP JUMPDEST DUP1 PUSH1 0x1F ADD PUSH1 0x20 DUP1 SWAP2 DIV MUL PUSH1 0x20 ADD PUSH1 0x40 MLOAD SWAP1 DUP2 ADD PUSH1 0x40 MSTORE DUP1 SWAP3 SWAP2 SWAP1 DUP2 DUP2 MSTORE PUSH1 0x20 ADD DUP3 DUP1 SLOAD PUSH2 0x5C7 SWAP1 PUSH2 0x2ABF JUMP JUMPDEST DUP1 ISZERO PUSH2 0x612 JUMPI DUP1 PUSH1 0x1F LT PUSH2 0x5E9 JUMPI PUSH2 0x100 DUP1 DUP4 SLOAD DIV MUL DUP4 MSTORE SWAP2 PUSH1 0x20 ADD SWAP2 PUSH2 0x612 JUMP JUMPDEST DUP3 ADD SWAP2 SWAP1 PUSH0 MSTORE PUSH1 0x20 PUSH0 KECCAK256 SWAP1 JUMPDEST DUP2 SLOAD DUP2 MSTORE SWAP1 PUSH1 0x1 ADD SWAP1 PUSH1 0x20 ADD DUP1 DUP4 GT PUSH2 0x5F5 JUMPI DUP3 SWAP1 SUB PUSH1 0x1F AND DUP3 ADD SWAP2 JUMPDEST POP POP POP POP POP SWAP1 POP SWAP2 SWAP1 POP JUMP JUMPDEST PUSH0 PUSH1 0x6 PUSH0 DUP4 DUP2 MSTORE PUSH1 0x20 ADD SWAP1 DUP2 MSTORE PUSH1 0x20 ADD PUSH0 KECCAK256 PUSH0 CALLER PUSH20 0xFFFFFFFFFFFFFFFFFFFFFFFFFFFFFFFFFFFFFFFF AND PUSH20 0xFFFFFFFFFFFFFFFFFFFFFFFFFFFFFFFFFFFFFFFF AND DUP2 MSTORE PUSH1 0x20 ADD SWAP1 DUP2 MSTORE PUSH1 0x20 ADD PUSH0 KECCAK256 SLOAD SWAP1 POP PUSH0 DUP2 GT PUSH2 0x6B0 JUMPI PUSH1 0x40 MLOAD PUSH32 0x8C379A000000000000000000000000000000000000000000000000000000000 DUP2 MSTORE PUSH1 0x4 ADD PUSH2 0x6A7 SWAP1 PUSH2 0x2B39 JUMP JUMPDEST PUSH1 0x40 MLOAD DUP1 SWAP2 SUB SWAP1 REVERT JUMPDEST PUSH0 PUSH1 0x6 PUSH0 DUP5 DUP2 MSTORE PUSH1 0x20 ADD SWAP1 DUP2 MSTORE PUSH1 0x20 ADD PUSH0 KECCAK256 PUSH0 CALLER PUSH20 0xFFFFFFFFFFFFFFFFFFFFFFFFFFFFFFFFFFFFFFFF AND PUSH20 0xFFFFFFFFFFFFFFFFFFFFFFFFFFFFFFFFFFFFFFFF AND DUP2 MSTORE PUSH1 0x20 ADD SWAP1 DUP2 MSTORE PUSH1 0x20 ADD PUSH0 KECCAK256 DUP2 SWAP1 SSTORE POP CALLER PUSH20 0xFFFFFFFFFFFFFFFFFFFFFFFFFFFFFFFFFFFFFFFF AND PUSH2 0x8FC DUP3 SWAP1 DUP2 ISZERO MUL SWAP1 PUSH1 0x40 MLOAD PUSH0 PUSH1 0x40 MLOAD DUP1 DUP4 SUB DUP2 DUP6 DUP9 DUP9 CALL SWAP4 POP POP POP POP ISZERO DUP1 ISZERO PUSH2 0x744 JUMPI RETURNDATASIZE PUSH0 PUSH0 RETURNDATACOPY RETURNDATASIZE PUSH0 REVERT JUMPDEST POP DUP2 PUSH32 0x7CA5472B7EA78C2C0141C5A12EE6D170CF4CE8ED06BE3D22C8252DDFC7A6A2C4 CALLER DUP4 PUSH1 0x40 MLOAD PUSH2 0x777 SWAP3 SWAP2 SWAP1 PUSH2 0x23A6 JUMP JUMPDEST PUSH1 0x40 MLOAD DUP1 SWAP2 SUB SWAP1 LOG2 POP POP JUMP JUMPDEST DUP4 CALLER PUSH20 0xFFFFFFFFFFFFFFFFFFFFFFFFFFFFFFFFFFFFFFFF AND DUP2 PUSH20 0xFFFFFFFFFFFFFFFFFFFFFFFFFFFFFFFFFFFFFFFF AND EQ DUP1 PUSH2 0x83F JUMPI POP PUSH1 0x1 PUSH0 DUP3 PUSH20 0xFFFFFFFFFFFFFFFFFFFFFFFFFFFFFFFFFFFFFFFF AND PUSH20 0xFFFFFFFFFFFFFFFFFFFFFFFFFFFFFFFFFFFFFFFF AND DUP2 MSTORE PUSH1 0x20 ADD SWAP1 DUP2 MSTORE PUSH1 0x20 ADD PUSH0 KECCAK256 PUSH0 CALLER PUSH20 0xFFFFFFFFFFFFFFFFFFFFFFFFFFFFFFFFFFFFFFFF AND PUSH20 0xFFFFFFFFFFFFFFFFFFFFFFFFFFFFFFFFFFFFFFFF AND DUP2 MSTORE PUSH1 0x20 ADD SWAP1 DUP2 MSTORE PUSH1 0x20 ADD PUSH0 KECCAK256 PUSH0 SWAP1 SLOAD SWAP1 PUSH2 0x100 EXP SWAP1 DIV PUSH1 0xFF AND JUMPDEST PUSH2 0x87E JUMPI PUSH1 0x40 MLOAD PUSH32 0x8C379A000000000000000000000000000000000000000000000000000000000 DUP2 MSTORE PUSH1 0x4 ADD PUSH2 0x875 SWAP1 PUSH2 0x2BA1 JUMP JUMPDEST PUSH1 0x40 MLOAD DUP1 SWAP2 SUB SWAP1 REVERT JUMPDEST PUSH0 PUSH20 0xFFFFFFFFFFFFFFFFFFFFFFFFFFFFFFFFFFFFFFFF AND DUP5 PUSH20 0xFFFFFFFFFFFFFFFFFFFFFFFFFFFFFFFFFFFFFFFF AND SUB PUSH2 0x8EC JUMPI PUSH1 0x40 MLOAD PUSH32 0x8C379A000000000000000000000000000000000000000000000000000000000 DUP2 MSTORE PUSH1 0x4 ADD PUSH2 0x8E3 SWAP1 PUSH2 0x2A74 JUMP JUMPDEST PUSH1 0x40 MLOAD DUP1 SWAP2 SUB SWAP1 REVERT JUMPDEST DUP2 PUSH0 PUSH0 DUP6 DUP2 MSTORE PUSH1 0x20 ADD SWAP1 DUP2 MSTORE PUSH1 0x20 ADD PUSH0 KECCAK256 PUSH0 DUP8 PUSH20 0xFFFFFFFFFFFFFFFFFFFFFFFFFFFFFFFFFFFFFFFF AND PUSH20 0xFFFFFFFFFFFFFFFFFFFFFFFFFFFFFFFFFFFFFFFF AND DUP2 MSTORE PUSH1 0x20 ADD SWAP1 DUP2 MSTORE PUSH1 0x20 ADD PUSH0 KECCAK256 SLOAD LT ISZERO PUSH2 0x97A JUMPI PUSH1 0x40 MLOAD PUSH32 0x8C379A000000000000000000000000000000000000000000000000000000000 DUP2 MSTORE PUSH1 0x4 ADD PUSH2 0x971 SWAP1 PUSH2 0x2C09 JUMP JUMPDEST PUSH1 0x40 MLOAD DUP1 SWAP2 SUB SWAP1 REVERT JUMPDEST DUP2 PUSH0 PUSH0 DUP6 DUP2 MSTORE PUSH1 0x20 ADD SWAP1 DUP2 MSTORE PUSH1 0x20 ADD PUSH0 KECCAK256 PUSH0 DUP8 PUSH20 0xFFFFFFFFFFFFFFFFFFFFFFFFFFFFFFFFFFFFFFFF AND PUSH20 0xFFFFFFFFFFFFFFFFFFFFFFFFFFFFFFFFFFFFFFFF AND DUP2 MSTORE PUSH1 0x20 ADD SWAP1 DUP2 MSTORE PUSH1 0x20 ADD PUSH0 KECCAK256 PUSH0 DUP3 DUP3 SLOAD PUSH2 0x9D4 SWAP2 SWAP1 PUSH2 0x2C54 JUMP JUMPDEST SWAP3 POP POP DUP2 SWAP1 SSTORE POP DUP2 PUSH0 PUSH0 DUP6 DUP2 MSTORE PUSH1 0x20 ADD SWAP1 DUP2 MSTORE PUSH1 0x20 ADD PUSH0 KECCAK256 PUSH0 DUP7 PUSH20 0xFFFFFFFFFFFFFFFFFFFFFFFFFFFFFFFFFFFFFFFF AND PUSH20 0xFFFFFFFFFFFFFFFFFFFFFFFFFFFFFFFFFFFFFFFF AND DUP2 MSTORE PUSH1 0x20 ADD SWAP1 DUP2 MSTORE PUSH1 0x20 ADD PUSH0 KECCAK256 PUSH0 DUP3 DUP3 SLOAD PUSH2 0xA35 SWAP2 SWAP1 PUSH2 0x2C87 JUMP JUMPDEST SWAP3 POP POP DUP2 SWAP1 SSTORE POP DUP4 PUSH20 0xFFFFFFFFFFFFFFFFFFFFFFFFFFFFFFFFFFFFFFFF AND DUP6 PUSH20 0xFFFFFFFFFFFFFFFFFFFFFFFFFFFFFFFFFFFFFFFF AND CALLER PUSH20 0xFFFFFFFFFFFFFFFFFFFFFFFFFFFFFFFFFFFFFFFF AND PUSH32 0xC3D58168C5AE7397731D063D5BBF3D657854427343F4C083240F7AACAA2D0F62 DUP7 DUP7 PUSH1 0x40 MLOAD PUSH2 0xAB2 SWAP3 SWAP2 SWAP1 PUSH2 0x2CBA JUMP JUMPDEST PUSH1 0x40 MLOAD DUP1 SWAP2 SUB SWAP1 LOG4 POP POP POP POP POP JUMP JUMPDEST PUSH0 PUSH0 PUSH0 PUSH1 0x3 PUSH0 DUP7 DUP2 MSTORE PUSH1 0x20 ADD SWAP1 DUP2 MSTORE PUSH1 0x20 ADD PUSH0 KECCAK256 PUSH1 0x40 MLOAD DUP1 PUSH1 0x40 ADD PUSH1 0x40 MSTORE SWAP1 DUP2 PUSH0 DUP3 ADD PUSH0 SWAP1 SLOAD SWAP1 PUSH2 0x100 EXP SWAP1 DIV PUSH20 0xFFFFFFFFFFFFFFFFFFFFFFFFFFFFFFFFFFFFFFFF AND PUSH20 0xFFFFFFFFFFFFFFFFFFFFFFFFFFFFFFFFFFFFFFFF AND PUSH20 0xFFFFFFFFFFFFFFFFFFFFFFFFFFFFFFFFFFFFFFFF AND DUP2 MSTORE PUSH1 0x20 ADD PUSH0 DUP3 ADD PUSH1 0x14 SWAP1 SLOAD SWAP1 PUSH2 0x100 EXP SWAP1 DIV PUSH12 0xFFFFFFFFFFFFFFFFFFFFFFFF AND PUSH12 0xFFFFFFFFFFFFFFFFFFFFFFFF AND PUSH12 0xFFFFFFFFFFFFFFFFFFFFFFFF AND DUP2 MSTORE POP POP SWAP1 POP PUSH0 PUSH2 0x2710 DUP3 PUSH1 0x20 ADD MLOAD PUSH12 0xFFFFFFFFFFFFFFFFFFFFFFFF AND DUP7 PUSH2 0xB95 SWAP2 SWAP1 PUSH2 0x2CE1 JUMP JUMPDEST PUSH2 0xB9F SWAP2 SWAP1 PUSH2 0x2D4F JUMP JUMPDEST SWAP1 POP DUP2 PUSH0 ADD MLOAD DUP2 SWAP4 POP SWAP4 POP POP POP SWAP3 POP SWAP3 SWAP1 POP JUMP JUMPDEST PUSH1 0x4 SLOAD DUP2 JUMP JUMPDEST PUSH1 0x6 PUSH1 0x20 MSTORE DUP2 PUSH0 MSTORE PUSH1 0x40 PUSH0 KECCAK256 PUSH1 0x20 MSTORE DUP1 PUSH0 MSTORE PUSH1 0x40 PUSH0 KECCAK256 PUSH0 SWAP2 POP SWAP2 POP POP SLOAD DUP2 JUMP JUMPDEST DUP1 PUSH1 0x5 PUSH0 DUP3 DUP2 MSTORE PUSH1 0x20 ADD SWAP1 DUP2 MSTORE PUSH1 0x20 ADD PUSH0 KECCAK256 PUSH1 0x3 ADD SLOAD TIMESTAMP LT PUSH2 0xC30 JUMPI PUSH1 0x40 MLOAD PUSH32 0x8C379A000000000000000000000000000000000000000000000000000000000 DUP2 MSTORE PUSH1 0x4 ADD PUSH2 0xC27 SWAP1 PUSH2 0x2DC9 JUMP JUMPDEST PUSH1 0x40 MLOAD DUP1 SWAP2 SUB SWAP1 REVERT JUMPDEST PUSH0 PUSH1 0x5 PUSH0 DUP5 DUP2 MSTORE PUSH1 0x20 ADD SWAP1 DUP2 MSTORE PUSH1 0x20 ADD PUSH0 KECCAK256 SWAP1 POP DUP1 PUSH1 0x4 ADD SLOAD CALLVALUE GT PUSH2 0xC8A JUMPI PUSH1 0x40 MLOAD PUSH32 0x8C379A000000000000000000000000000000000000000000000000000000000 DUP2 MSTORE PUSH1 0x4 ADD PUSH2 0xC81 SWAP1 PUSH2 0x2E31 JUMP JUMPDEST PUSH1 0x40 MLOAD DUP1 SWAP2 SUB SWAP1 REVERT JUMPDEST PUSH0 PUSH20 0xFFFFFFFFFFFFFFFFFFFFFFFFFFFFFFFFFFFFFFFF AND DUP2 PUSH1 0x5 ADD PUSH0 SWAP1 SLOAD SWAP1 PUSH2 0x100 EXP SWAP1 DIV PUSH20 0xFFFFFFFFFFFFFFFFFFFFFFFFFFFFFFFFFFFFFFFF AND PUSH20 0xFFFFFFFFFFFFFFFFFFFFFFFFFFFFFFFFFFFFFFFF AND EQ PUSH2 0xD6A JUMPI DUP1 PUSH1 0x4 ADD SLOAD PUSH1 0x6 PUSH0 DUP6 DUP2 MSTORE PUSH1 0x20 ADD SWAP1 DUP2 MSTORE PUSH1 0x20 ADD PUSH0 KECCAK256 PUSH0 DUP4 PUSH1 0x5 ADD PUSH0 SWAP1 SLOAD SWAP1 PUSH2 0x100 EXP SWAP1 DIV PUSH20 0xFFFFFFFFFFFFFFFFFFFFFFFFFFFFFFFFFFFFFFFF AND PUSH20 0xFFFFFFFFFFFFFFFFFFFFFFFFFFFFFFFFFFFFFFFF AND PUSH20 0xFFFFFFFFFFFFFFFFFFFFFFFFFFFFFFFFFFFFFFFF AND DUP2 MSTORE PUSH1 0x20 ADD SWAP1 DUP2 MSTORE PUSH1 0x20 ADD PUSH0 KECCAK256 PUSH0 DUP3 DUP3 SLOAD PUSH2 0xD62 SWAP2 SWAP1 PUSH2 0x2C87 JUMP JUMPDEST SWAP3 POP POP DUP2 SWAP1 SSTORE POP JUMPDEST CALLVALUE DUP2 PUSH1 0x4 ADD DUP2 SWAP1 SSTORE POP CALLER DUP2 PUSH1 0x5 ADD PUSH0 PUSH2 0x100 EXP DUP2 SLOAD DUP2 PUSH20 0xFFFFFFFFFFFFFFFFFFFFFFFFFFFFFFFFFFFFFFFF MUL NOT AND SWAP1 DUP4 PUSH20 0xFFFFFFFFFFFFFFFFFFFFFFFFFFFFFFFFFFFFFFFF AND MUL OR SWAP1 SSTORE POP CALLER PUSH20 0xFFFFFFFFFFFFFFFFFFFFFFFFFFFFFFFFFFFFFFFF AND DUP4 PUSH32 0xE54EFF26401BF69B81B26F60BD85EF47F5D85275C1D268D84F68D6897431C47 CALLVALUE PUSH1 0x40 MLOAD PUSH2 0xDFC SWAP2 SWAP1 PUSH2 0x216E JUMP JUMPDEST PUSH1 0x40 MLOAD DUP1 SWAP2 SUB SWAP1 LOG3 POP POP POP JUMP JUMPDEST PUSH1 0x60 DUP3 DUP3 SWAP1 POP DUP6 DUP6 SWAP1 POP EQ PUSH2 0xE53 JUMPI PUSH1 0x40 MLOAD PUSH32 0x8C379A000000000000000000000000000000000000000000000000000000000 DUP2 MSTORE PUSH1 0x4 ADD PUSH2 0xE4A SWAP1 PUSH2 0x2E99 JUMP JUMPDEST PUSH1 0x40 MLOAD DUP1 SWAP2 SUB SWAP1 REVERT JUMPDEST PUSH0 DUP6 DUP6 SWAP1 POP PUSH8 0xFFFFFFFFFFFFFFFF DUP2 GT ISZERO PUSH2 0xE71 JUMPI PUSH2 0xE70 PUSH2 0x2820 JUMP JUMPDEST JUMPDEST PUSH1 0x40 MLOAD SWAP1 DUP1 DUP3 MSTORE DUP1 PUSH1 0x20 MUL PUSH1 0x20 ADD DUP3 ADD PUSH1 0x40 MSTORE DUP1 ISZERO PUSH2 0xE9F JUMPI DUP2 PUSH1 0x20 ADD PUSH1 0x20 DUP3 MUL DUP1 CALLDATASIZE DUP4 CALLDATACOPY DUP1 DUP3 ADD SWAP2 POP POP SWAP1 POP JUMPDEST POP SWAP1 POP PUSH0 PUSH0 SWAP1 POP JUMPDEST DUP7 DUP7 SWAP1 POP DUP2 LT ISZERO PUSH2 0xF6A JUMPI PUSH0 PUSH0 DUP7 DUP7 DUP5 DUP2 DUP2 LT PUSH2 0xEC7 JUMPI PUSH2 0xEC6 PUSH2 0x2EB7 JUMP JUMPDEST JUMPDEST SWAP1 POP PUSH1 0x20 MUL ADD CALLDATALOAD DUP2 MSTORE PUSH1 0x20 ADD SWAP1 DUP2 MSTORE PUSH1 0x20 ADD PUSH0 KECCAK256 PUSH0 DUP9 DUP9 DUP5 DUP2 DUP2 LT PUSH2 0xEEF JUMPI PUSH2 0xEEE PUSH2 0x2EB7 JUMP JUMPDEST JUMPDEST SWAP1 POP PUSH1 0x20 MUL ADD PUSH1 0x20 DUP2 ADD SWAP1 PUSH2 0xF04 SWAP2 SWAP1 PUSH2 0x2EE4 JUMP JUMPDEST PUSH20 0xFFFFFFFFFFFFFFFFFFFFFFFFFFFFFFFFFFFFFFFF AND PUSH20 0xFFFFFFFFFFFFFFFFFFFFFFFFFFFFFFFFFFFFFFFF AND DUP2 MSTORE PUSH1 0x20 ADD SWAP1 DUP2 MSTORE PUSH1 0x20 ADD PUSH0 KECCAK256 SLOAD DUP3 DUP3 DUP2 MLOAD DUP2 LT PUSH2 0xF51 JUMPI PUSH2 0xF50 PUSH2 0x2EB7 JUMP JUMPDEST JUMPDEST PUSH1 0x20 MUL PUSH1 0x20 ADD ADD DUP2 DUP2 MSTORE POP POP DUP1 DUP1 PUSH1 0x1 ADD SWAP2 POP POP PUSH2 0xEA7 JUMP JUMPDEST POP DUP1 SWAP2 POP POP SWAP5 SWAP4 POP POP POP POP JUMP JUMPDEST PUSH1 0x5 PUSH1 0x20 MSTORE DUP1 PUSH0 MSTORE PUSH1 0x40 PUSH0 KECCAK256 PUSH0 SWAP2 POP SWAP1 POP DUP1 PUSH0 ADD PUSH0 SWAP1 SLOAD SWAP1 PUSH2 0x100 EXP SWAP1 DIV PUSH20 0xFFFFFFFFFFFFFFFFFFFFFFFFFFFFFFFFFFFFFFFF AND SWAP1 DUP1 PUSH1 0x1 ADD SLOAD SWAP1 DUP1 PUSH1 0x2 ADD SLOAD SWAP1 DUP1 PUSH1 0x3 ADD SLOAD SWAP1 DUP1 PUSH1 0x4 ADD SLOAD SWAP1 DUP1 PUSH1 0x5 ADD PUSH0 SWAP1 SLOAD SWAP1 PUSH2 0x100 EXP SWAP1 DIV PUSH20 0xFFFFFFFFFFFFFFFFFFFFFFFFFFFFFFFFFFFFFFFF AND SWAP1 DUP1 PUSH1 0x5 ADD PUSH1 0x14 SWAP1 SLOAD SWAP1 PUSH2 0x100 EXP SWAP1 DIV PUSH1 0xFF AND SWAP1 POP DUP8 JUMP JUMPDEST DUP1 PUSH1 0x1 PUSH0 CALLER PUSH20 0xFFFFFFFFFFFFFFFFFFFFFFFFFFFFFFFFFFFFFFFF AND PUSH20 0xFFFFFFFFFFFFFFFFFFFFFFFFFFFFFFFFFFFFFFFF AND DUP2 MSTORE PUSH1 0x20 ADD SWAP1 DUP2 MSTORE PUSH1 0x20 ADD PUSH0 KECCAK256 PUSH0 DUP5 PUSH20 0xFFFFFFFFFFFFFFFFFFFFFFFFFFFFFFFFFFFFFFFF AND PUSH20 0xFFFFFFFFFFFFFFFFFFFFFFFFFFFFFFFFFFFFFFFF AND DUP2 MSTORE PUSH1 0x20 ADD SWAP1 DUP2 MSTORE PUSH1 0x20 ADD PUSH0 KECCAK256 PUSH0 PUSH2 0x100 EXP DUP2 SLOAD DUP2 PUSH1 0xFF MUL NOT AND SWAP1 DUP4 ISZERO ISZERO MUL OR SWAP1 SSTORE POP DUP2 PUSH20 0xFFFFFFFFFFFFFFFFFFFFFFFFFFFFFFFFFFFFFFFF AND CALLER PUSH20 0xFFFFFFFFFFFFFFFFFFFFFFFFFFFFFFFFFFFFFFFF AND PUSH32 0x17307EAB39AB6107E8899845AD3D59BD9653F200F220920489CA2B5937696C31 DUP4 PUSH1 0x40 MLOAD PUSH2 0x10EC SWAP2 SWAP1 PUSH2 0x2221 JUMP JUMPDEST PUSH1 0x40 MLOAD DUP1 SWAP2 SUB SWAP1 LOG3 POP POP JUMP JUMPDEST DUP1 PUSH1 0x5 PUSH0 DUP3 DUP2 MSTORE PUSH1 0x20 ADD SWAP1 DUP2 MSTORE PUSH1 0x20 ADD PUSH0 KECCAK256 PUSH1 0x3 ADD SLOAD TIMESTAMP LT ISZERO PUSH2 0x1150 JUMPI PUSH1 0x40 MLOAD PUSH32 0x8C379A000000000000000000000000000000000000000000000000000000000 DUP2 MSTORE PUSH1 0x4 ADD PUSH2 0x1147 SWAP1 PUSH2 0x2F59 JUMP JUMPDEST PUSH1 0x40 MLOAD DUP1 SWAP2 SUB SWAP1 REVERT JUMPDEST DUP2 PUSH1 0x5 PUSH0 DUP3 DUP2 MSTORE PUSH1 0x20 ADD SWAP1 DUP2 MSTORE PUSH1 0x20 ADD PUSH0 KECCAK256 PUSH1 0x5 ADD PUSH1 0x14 SWAP1 SLOAD SWAP1 PUSH2 0x100 EXP SWAP1 DIV PUSH1 0xFF AND ISZERO PUSH2 0x11B3 JUMPI PUSH1 0x40 MLOAD PUSH32 0x8C379A000000000000000000000000000000000000000000000000000000000 DUP2 MSTORE PUSH1 0x4 ADD PUSH2 0x11AA SWAP1 PUSH2 0x2FC1 JUMP JUMPDEST PUSH1 0x40 MLOAD DUP1 SWAP2 SUB SWAP1 REVERT JUMPDEST PUSH0 PUSH1 0x5 PUSH0 DUP6 DUP2 MSTORE PUSH1 0x20 ADD SWAP1 DUP2 MSTORE PUSH1 0x20 ADD PUSH0 KECCAK256 SWAP1 POP PUSH1 0x1 DUP2 PUSH1 0x5 ADD PUSH1 0x14 PUSH2 0x100 EXP DUP2 SLOAD DUP2 PUSH1 0xFF MUL NOT AND SWAP1 DUP4 ISZERO ISZERO MUL OR SWAP1 SSTORE POP PUSH0 PUSH20 0xFFFFFFFFFFFFFFFFFFFFFFFFFFFFFFFFFFFFFFFF AND DUP2 PUSH1 0x5 ADD PUSH0 SWAP1 SLOAD SWAP1 PUSH2 0x100 EXP SWAP1 DIV PUSH20 0xFFFFFFFFFFFFFFFFFFFFFFFFFFFFFFFFFFFFFFFF AND PUSH20 0xFFFFFFFFFFFFFFFFFFFFFFFFFFFFFFFFFFFFFFFF AND EQ PUSH2 0x139E JUMPI DUP1 PUSH1 0x2 ADD SLOAD PUSH0 PUSH0 DUP4 PUSH1 0x1 ADD SLOAD DUP2 MSTORE PUSH1 0x20 ADD SWAP1 DUP2 MSTORE PUSH1 0x20 ADD PUSH0 KECCAK256 PUSH0 ADDRESS PUSH20 0xFFFFFFFFFFFFFFFFFFFFFFFFFFFFFFFFFFFFFFFF AND PUSH20 0xFFFFFFFFFFFFFFFFFFFFFFFFFFFFFFFFFFFFFFFF AND DUP2 MSTORE PUSH1 0x20 ADD SWAP1 DUP2 MSTORE PUSH1 0x20 ADD PUSH0 KECCAK256 PUSH0 DUP3 DUP3 SLOAD PUSH2 0x129C SWAP2 SWAP1 PUSH2 0x2C54 JUMP JUMPDEST SWAP3 POP POP DUP2 SWAP1 SSTORE POP DUP1 PUSH1 0x2 ADD SLOAD PUSH0 PUSH0 DUP4 PUSH1 0x1 ADD SLOAD DUP2 MSTORE PUSH1 0x20 ADD SWAP1 DUP2 MSTORE PUSH1 0x20 ADD PUSH0 KECCAK256 PUSH0 DUP4 PUSH1 0x5 ADD PUSH0 SWAP1 SLOAD SWAP1 PUSH2 0x100 EXP SWAP1 DIV PUSH20 0xFFFFFFFFFFFFFFFFFFFFFFFFFFFFFFFFFFFFFFFF AND PUSH20 0xFFFFFFFFFFFFFFFFFFFFFFFFFFFFFFFFFFFFFFFF AND PUSH20 0xFFFFFFFFFFFFFFFFFFFFFFFFFFFFFFFFFFFFFFFF AND DUP2 MSTORE PUSH1 0x20 ADD SWAP1 DUP2 MSTORE PUSH1 0x20 ADD PUSH0 KECCAK256 PUSH0 DUP3 DUP3 SLOAD PUSH2 0x1328 SWAP2 SWAP1 PUSH2 0x2C87 JUMP JUMPDEST SWAP3 POP POP DUP2 SWAP1 SSTORE POP DUP1 PUSH0 ADD PUSH0 SWAP1 SLOAD SWAP1 PUSH2 0x100 EXP SWAP1 DIV PUSH20 0xFFFFFFFFFFFFFFFFFFFFFFFFFFFFFFFFFFFFFFFF AND PUSH20 0xFFFFFFFFFFFFFFFFFFFFFFFFFFFFFFFFFFFFFFFF AND PUSH2 0x8FC DUP3 PUSH1 0x4 ADD SLOAD SWAP1 DUP2 ISZERO MUL SWAP1 PUSH1 0x40 MLOAD PUSH0 PUSH1 0x40 MLOAD DUP1 DUP4 SUB DUP2 DUP6 DUP9 DUP9 CALL SWAP4 POP POP POP POP ISZERO DUP1 ISZERO PUSH2 0x1398 JUMPI RETURNDATASIZE PUSH0 PUSH0 RETURNDATACOPY RETURNDATASIZE PUSH0 REVERT JUMPDEST POP PUSH2 0x1493 JUMP JUMPDEST DUP1 PUSH1 0x2 ADD SLOAD PUSH0 PUSH0 DUP4 PUSH1 0x1 ADD SLOAD DUP2 MSTORE PUSH1 0x20 ADD SWAP1 DUP2 MSTORE PUSH1 0x20 ADD PUSH0 KECCAK256 PUSH0 ADDRESS PUSH20 0xFFFFFFFFFFFFFFFFFFFFFFFFFFFFFFFFFFFFFFFF AND PUSH20 0xFFFFFFFFFFFFFFFFFFFFFFFFFFFFFFFFFFFFFFFF AND DUP2 MSTORE PUSH1 0x20 ADD SWAP1 DUP2 MSTORE PUSH1 0x20 ADD PUSH0 KECCAK256 PUSH0 DUP3 DUP3 SLOAD PUSH2 0x1400 SWAP2 SWAP1 PUSH2 0x2C54 JUMP JUMPDEST SWAP3 POP POP DUP2 SWAP1 SSTORE POP DUP1 PUSH1 0x2 ADD SLOAD PUSH0 PUSH0 DUP4 PUSH1 0x1 ADD SLOAD DUP2 MSTORE PUSH1 0x20 ADD SWAP1 DUP2 MSTORE PUSH1 0x20 ADD PUSH0 KECCAK256 PUSH0 DUP4 PUSH0 ADD PUSH0 SWAP1 SLOAD SWAP1 PUSH2 0x100 EXP SWAP1 DIV PUSH20 0xFFFFFFFFFFFFFFFFFFFFFFFFFFFFFFFFFFFFFFFF AND PUSH20 0xFFFFFFFFFFFFFFFFFFFFFFFFFFFFFFFFFFFFFFFF AND PUSH20 0xFFFFFFFFFFFFFFFFFFFFFFFFFFFFFFFFFFFFFFFF AND DUP2 MSTORE PUSH1 0x20 ADD SWAP1 DUP2 MSTORE PUSH1 0x20 ADD PUSH0 KECCAK256 PUSH0 DUP3 DUP3 SLOAD PUSH2 0x148B SWAP2 SWAP1 PUSH2 0x2C87 JUMP JUMPDEST SWAP3 POP POP DUP2 SWAP1 SSTORE POP JUMPDEST DUP4 PUSH32 0xD2AA34A4FDBBC6DFF6A3E56F46E0F3AE2A31D7785FF3487AA5C95C642ACEA501 DUP3 PUSH1 0x5 ADD PUSH0 SWAP1 SLOAD SWAP1 PUSH2 0x100 EXP SWAP1 DIV PUSH20 0xFFFFFFFFFFFFFFFFFFFFFFFFFFFFFFFFFFFFFFFF AND DUP4 PUSH1 0x4 ADD SLOAD PUSH1 0x40 MLOAD PUSH2 0x14EC SWAP3 SWAP2 SWAP1 PUSH2 0x23A6 JUMP JUMPDEST PUSH1 0x40 MLOAD DUP1 SWAP2 SUB SWAP1 LOG2 POP POP POP POP JUMP JUMPDEST PUSH0 DUP3 PUSH0 PUSH0 DUP7 DUP2 MSTORE PUSH1 0x20 ADD SWAP1 DUP2 MSTORE PUSH1 0x20 ADD PUSH0 KECCAK256 PUSH0 CALLER PUSH20 0xFFFFFFFFFFFFFFFFFFFFFFFFFFFFFFFFFFFFFFFF AND PUSH20 0xFFFFFFFFFFFFFFFFFFFFFFFFFFFFFFFFFFFFFFFF AND DUP2 MSTORE PUSH1 0x20 ADD SWAP1 DUP2 MSTORE PUSH1 0x20 ADD PUSH0 KECCAK256 SLOAD LT ISZERO PUSH2 0x1589 JUMPI PUSH1 0x40 MLOAD PUSH32 0x8C379A000000000000000000000000000000000000000000000000000000000 DUP2 MSTORE PUSH1 0x4 ADD PUSH2 0x1580 SWAP1 PUSH2 0x3029 JUMP JUMPDEST PUSH1 0x40 MLOAD DUP1 SWAP2 SUB SWAP1 REVERT JUMPDEST PUSH1 0x3C DUP3 LT ISZERO PUSH2 0x15CD JUMPI PUSH1 0x40 MLOAD PUSH32 0x8C379A000000000000000000000000000000000000000000000000000000000 DUP2 MSTORE PUSH1 0x4 ADD PUSH2 0x15C4 SWAP1 PUSH2 0x3091 JUMP JUMPDEST PUSH1 0x40 MLOAD DUP1 SWAP2 SUB SWAP1 REVERT JUMPDEST DUP3 PUSH0 PUSH0 DUP7 DUP2 MSTORE PUSH1 0x20 ADD SWAP1 DUP2 MSTORE PUSH1 0x20 ADD PUSH0 KECCAK256 PUSH0 CALLER PUSH20 0xFFFFFFFFFFFFFFFFFFFFFFFFFFFFFFFFFFFFFFFF AND PUSH20 0xFFFFFFFFFFFFFFFFFFFFFFFFFFFFFFFFFFFFFFFF AND DUP2 MSTORE PUSH1 0x20 ADD SWAP1 DUP2 MSTORE PUSH1 0x20 ADD PUSH0 KECCAK256 PUSH0 DUP3 DUP3 SLOAD PUSH2 0x1627 SWAP2 SWAP1 PUSH2 0x2C54 JUMP JUMPDEST SWAP3 POP POP DUP2 SWAP1 SSTORE POP DUP3 PUSH0 PUSH0 DUP7 DUP2 MSTORE PUSH1 0x20 ADD SWAP1 DUP2 MSTORE PUSH1 0x20 ADD PUSH0 KECCAK256 PUSH0 ADDRESS PUSH20 0xFFFFFFFFFFFFFFFFFFFFFFFFFFFFFFFFFFFFFFFF AND PUSH20 0xFFFFFFFFFFFFFFFFFFFFFFFFFFFFFFFFFFFFFFFF AND DUP2 MSTORE PUSH1 0x20 ADD SWAP1 DUP2 MSTORE PUSH1 0x20 ADD PUSH0 KECCAK256 PUSH0 DUP3 DUP3 SLOAD PUSH2 0x1688 SWAP2 SWAP1 PUSH2 0x2C87 JUMP JUMPDEST SWAP3 POP POP DUP2 SWAP1 SSTORE POP PUSH1 0x4 PUSH0 DUP2 SLOAD DUP1 SWAP3 SWAP2 SWAP1 PUSH2 0x16A1 SWAP1 PUSH2 0x30AF JUMP JUMPDEST SWAP2 SWAP1 POP SSTORE POP PUSH1 0x40 MLOAD DUP1 PUSH1 0xE0 ADD PUSH1 0x40 MSTORE DUP1 CALLER PUSH20 0xFFFFFFFFFFFFFFFFFFFFFFFFFFFFFFFFFFFFFFFF AND DUP2 MSTORE PUSH1 0x20 ADD DUP6 DUP2 MSTORE PUSH1 0x20 ADD DUP5 DUP2 MSTORE PUSH1 0x20 ADD DUP4 TIMESTAMP PUSH2 0x16E5 SWAP2 SWAP1 PUSH2 0x2C87 JUMP JUMPDEST DUP2 MSTORE PUSH1 0x20 ADD PUSH0 DUP2 MSTORE PUSH1 0x20 ADD PUSH0 PUSH20 0xFFFFFFFFFFFFFFFFFFFFFFFFFFFFFFFFFFFFFFFF AND DUP2 MSTORE PUSH1 0x20 ADD PUSH0 ISZERO ISZERO DUP2 MSTORE POP PUSH1 0x5 PUSH0 PUSH1 0x4 SLOAD DUP2 MSTORE PUSH1 0x20 ADD SWAP1 DUP2 MSTORE PUSH1 0x20 ADD PUSH0 KECCAK256 PUSH0 DUP3 ADD MLOAD DUP2 PUSH0 ADD PUSH0 PUSH2 0x100 EXP DUP2 SLOAD DUP2 PUSH20 0xFFFFFFFFFFFFFFFFFFFFFFFFFFFFFFFFFFFFFFFF MUL NOT AND SWAP1 DUP4 PUSH20 0xFFFFFFFFFFFFFFFFFFFFFFFFFFFFFFFFFFFFFFFF AND MUL OR SWAP1 SSTORE POP PUSH1 0x20 DUP3 ADD MLOAD DUP2 PUSH1 0x1 ADD SSTORE PUSH1 0x40 DUP3 ADD MLOAD DUP2 PUSH1 0x2 ADD SSTORE PUSH1 0x60 DUP3 ADD MLOAD DUP2 PUSH1 0x3 ADD SSTORE PUSH1 0x80 DUP3 ADD MLOAD DUP2 PUSH1 0x4 ADD SSTORE PUSH1 0xA0 DUP3 ADD MLOAD DUP2 PUSH1 0x5 ADD PUSH0 PUSH2 0x100 EXP DUP2 SLOAD DUP2 PUSH20 0xFFFFFFFFFFFFFFFFFFFFFFFFFFFFFFFFFFFFFFFF MUL NOT AND SWAP1 DUP4 PUSH20 0xFFFFFFFFFFFFFFFFFFFFFFFFFFFFFFFFFFFFFFFF AND MUL OR SWAP1 SSTORE POP PUSH1 0xC0 DUP3 ADD MLOAD DUP2 PUSH1 0x5 ADD PUSH1 0x14 PUSH2 0x100 EXP DUP2 SLOAD DUP2 PUSH1 0xFF MUL NOT AND SWAP1 DUP4 ISZERO ISZERO MUL OR SWAP1 SSTORE POP SWAP1 POP POP CALLER PUSH20 0xFFFFFFFFFFFFFFFFFFFFFFFFFFFFFFFFFFFFFFFF AND PUSH1 0x4 SLOAD PUSH32 0xC9050D42180A61CB0D9EBB8AD118B62FE6EAB12CF12FF752C4A0CC7DA9DDF627 DUP7 DUP6 TIMESTAMP PUSH2 0x1842 SWAP2 SWAP1 PUSH2 0x2C87 JUMP JUMPDEST PUSH1 0x40 MLOAD PUSH2 0x1850 SWAP3 SWAP2 SWAP1 PUSH2 0x2CBA JUMP JUMPDEST PUSH1 0x40 MLOAD DUP1 SWAP2 SUB SWAP1 LOG3 PUSH1 0x4 SLOAD SWAP1 POP SWAP4 SWAP3 POP POP POP JUMP JUMPDEST PUSH0 PUSH1 0x1 PUSH0 DUP5 PUSH20 0xFFFFFFFFFFFFFFFFFFFFFFFFFFFFFFFFFFFFFFFF AND PUSH20 0xFFFFFFFFFFFFFFFFFFFFFFFFFFFFFFFFFFFFFFFF AND DUP2 MSTORE PUSH1 0x20 ADD SWAP1 DUP2 MSTORE PUSH1 0x20 ADD PUSH0 KECCAK256 PUSH0 DUP4 PUSH20 0xFFFFFFFFFFFFFFFFFFFFFFFFFFFFFFFFFFFFFFFF AND PUSH20 0xFFFFFFFFFFFFFFFFFFFFFFFFFFFFFFFFFFFFFFFF AND DUP2 MSTORE PUSH1 0x20 ADD SWAP1 DUP2 MSTORE PUSH1 0x20 ADD PUSH0 KECCAK256 PUSH0 SWAP1 SLOAD SWAP1 PUSH2 0x100 EXP SWAP1 DIV PUSH1 0xFF AND SWAP1 POP SWAP3 SWAP2 POP POP JUMP JUMPDEST DUP6 CALLER PUSH20 0xFFFFFFFFFFFFFFFFFFFFFFFFFFFFFFFFFFFFFFFF AND DUP2 PUSH20 0xFFFFFFFFFFFFFFFFFFFFFFFFFFFFFFFFFFFFFFFF AND EQ DUP1 PUSH2 0x19AE JUMPI POP PUSH1 0x1 PUSH0 DUP3 PUSH20 0xFFFFFFFFFFFFFFFFFFFFFFFFFFFFFFFFFFFFFFFF AND PUSH20 0xFFFFFFFFFFFFFFFFFFFFFFFFFFFFFFFFFFFFFFFF AND DUP2 MSTORE PUSH1 0x20 ADD SWAP1 DUP2 MSTORE PUSH1 0x20 ADD PUSH0 KECCAK256 PUSH0 CALLER PUSH20 0xFFFFFFFFFFFFFFFFFFFFFFFFFFFFFFFFFFFFFFFF AND PUSH20 0xFFFFFFFFFFFFFFFFFFFFFFFFFFFFFFFFFFFFFFFF AND DUP2 MSTORE PUSH1 0x20 ADD SWAP1 DUP2 MSTORE PUSH1 0x20 ADD PUSH0 KECCAK256 PUSH0 SWAP1 SLOAD SWAP1 PUSH2 0x100 EXP SWAP1 DIV PUSH1 0xFF AND JUMPDEST PUSH2 0x19ED JUMPI PUSH1 0x40 MLOAD PUSH32 0x8C379A000000000000000000000000000000000000000000000000000000000 DUP2 MSTORE PUSH1 0x4 ADD PUSH2 0x19E4 SWAP1 PUSH2 0x2BA1 JUMP JUMPDEST PUSH1 0x40 MLOAD DUP1 SWAP2 SUB SWAP1 REVERT JUMPDEST PUSH0 PUSH20 0xFFFFFFFFFFFFFFFFFFFFFFFFFFFFFFFFFFFFFFFF AND DUP7 PUSH20 0xFFFFFFFFFFFFFFFFFFFFFFFFFFFFFFFFFFFFFFFF AND SUB PUSH2 0x1A5B JUMPI PUSH1 0x40 MLOAD PUSH32 0x8C379A000000000000000000000000000000000000000000000000000000000 DUP2 MSTORE PUSH1 0x4 ADD PUSH2 0x1A52 SWAP1 PUSH2 0x2A74 JUMP JUMPDEST PUSH1 0x40 MLOAD DUP1 SWAP2 SUB SWAP1 REVERT JUMPDEST DUP3 DUP3 SWAP1 POP DUP6 DUP6 SWAP1 POP EQ PUSH2 0x1AA3 JUMPI PUSH1 0x40 MLOAD PUSH32 0x8C379A000000000000000000000000000000000000000000000000000000000 DUP2 MSTORE PUSH1 0x4 ADD PUSH2 0x1A9A SWAP1 PUSH2 0x2E99 JUMP JUMPDEST PUSH1 0x40 MLOAD DUP1 SWAP2 SUB SWAP1 REVERT JUMPDEST PUSH0 PUSH0 SWAP1 POP JUMPDEST DUP6 DUP6 SWAP1 POP DUP2 LT ISZERO PUSH2 0x1CA6 JUMPI DUP4 DUP4 DUP3 DUP2 DUP2 LT PUSH2 0x1AC6 JUMPI PUSH2 0x1AC5 PUSH2 0x2EB7 JUMP JUMPDEST JUMPDEST SWAP1 POP PUSH1 0x20 MUL ADD CALLDATALOAD PUSH0 PUSH0 DUP9 DUP9 DUP6 DUP2 DUP2 LT PUSH2 0x1AE2 JUMPI PUSH2 0x1AE1 PUSH2 0x2EB7 JUMP JUMPDEST JUMPDEST SWAP1 POP PUSH1 0x20 MUL ADD CALLDATALOAD DUP2 MSTORE PUSH1 0x20 ADD SWAP1 DUP2 MSTORE PUSH1 0x20 ADD PUSH0 KECCAK256 PUSH0 DUP11 PUSH20 0xFFFFFFFFFFFFFFFFFFFFFFFFFFFFFFFFFFFFFFFF AND PUSH20 0xFFFFFFFFFFFFFFFFFFFFFFFFFFFFFFFFFFFFFFFF AND DUP2 MSTORE PUSH1 0x20 ADD SWAP1 DUP2 MSTORE PUSH1 0x20 ADD PUSH0 KECCAK256 SLOAD LT ISZERO PUSH2 0x1B73 JUMPI PUSH1 0x40 MLOAD PUSH32 0x8C379A000000000000000000000000000000000000000000000000000000000 DUP2 MSTORE PUSH1 0x4 ADD PUSH2 0x1B6A SWAP1 PUSH2 0x2C09 JUMP JUMPDEST PUSH1 0x40 MLOAD DUP1 SWAP2 SUB SWAP1 REVERT JUMPDEST DUP4 DUP4 DUP3 DUP2 DUP2 LT PUSH2 0x1B86 JUMPI PUSH2 0x1B85 PUSH2 0x2EB7 JUMP JUMPDEST JUMPDEST SWAP1 POP PUSH1 0x20 MUL ADD CALLDATALOAD PUSH0 PUSH0 DUP9 DUP9 DUP6 DUP2 DUP2 LT PUSH2 0x1BA2 JUMPI PUSH2 0x1BA1 PUSH2 0x2EB7 JUMP JUMPDEST JUMPDEST SWAP1 POP PUSH1 0x20 MUL ADD CALLDATALOAD DUP2 MSTORE PUSH1 0x20 ADD SWAP1 DUP2 MSTORE PUSH1 0x20 ADD PUSH0 KECCAK256 PUSH0 DUP11 PUSH20 0xFFFFFFFFFFFFFFFFFFFFFFFFFFFFFFFFFFFFFFFF AND PUSH20 0xFFFFFFFFFFFFFFFFFFFFFFFFFFFFFFFFFFFFFFFF AND DUP2 MSTORE PUSH1 0x20 ADD SWAP1 DUP2 MSTORE PUSH1 0x20 ADD PUSH0 KECCAK256 PUSH0 DUP3 DUP3 SLOAD PUSH2 0x1BFF SWAP2 SWAP1 PUSH2 0x2C54 JUMP JUMPDEST SWAP3 POP POP DUP2 SWAP1 SSTORE POP DUP4 DUP4 DUP3 DUP2 DUP2 LT PUSH2 0x1C19 JUMPI PUSH2 0x1C18 PUSH2 0x2EB7 JUMP JUMPDEST JUMPDEST SWAP1 POP PUSH1 0x20 MUL ADD CALLDATALOAD PUSH0 PUSH0 DUP9 DUP9 DUP6 DUP2 DUP2 LT PUSH2 0x1C35 JUMPI PUSH2 0x1C34 PUSH2 0x2EB7 JUMP JUMPDEST JUMPDEST SWAP1 POP PUSH1 0x20 MUL ADD CALLDATALOAD DUP2 MSTORE PUSH1 0x20 ADD SWAP1 DUP2 MSTORE PUSH1 0x20 ADD PUSH0 KECCAK256 PUSH0 DUP10 PUSH20 0xFFFFFFFFFFFFFFFFFFFFFFFFFFFFFFFFFFFFFFFF AND PUSH20 0xFFFFFFFFFFFFFFFFFFFFFFFFFFFFFFFFFFFFFFFF AND DUP2 MSTORE PUSH1 0x20 ADD SWAP1 DUP2 MSTORE PUSH1 0x20 ADD PUSH0 KECCAK256 PUSH0 DUP3 DUP3 SLOAD PUSH2 0x1C92 SWAP2 SWAP1 PUSH2 0x2C87 JUMP JUMPDEST SWAP3 POP POP DUP2 SWAP1 SSTORE POP DUP1 DUP1 PUSH1 0x1 ADD SWAP2 POP POP PUSH2 0x1AA8 JUMP JUMPDEST POP DUP6 PUSH20 0xFFFFFFFFFFFFFFFFFFFFFFFFFFFFFFFFFFFFFFFF AND DUP8 PUSH20 0xFFFFFFFFFFFFFFFFFFFFFFFFFFFFFFFFFFFFFFFF AND CALLER PUSH20 0xFFFFFFFFFFFFFFFFFFFFFFFFFFFFFFFFFFFFFFFF AND PUSH32 0x4A39DC06D4C0DBC64B70AF90FD698A233A518AA5D07E595D983B8C0526C8F7FB DUP9 DUP9 DUP9 DUP9 PUSH1 0x40 MLOAD PUSH2 0x1D21 SWAP5 SWAP4 SWAP3 SWAP2 SWAP1 PUSH2 0x315E JUMP JUMPDEST PUSH1 0x40 MLOAD DUP1 SWAP2 SUB SWAP1 LOG4 POP POP POP POP POP POP POP JUMP JUMPDEST PUSH0 PUSH20 0xFFFFFFFFFFFFFFFFFFFFFFFFFFFFFFFFFFFFFFFF AND DUP7 PUSH20 0xFFFFFFFFFFFFFFFFFFFFFFFFFFFFFFFFFFFFFFFF AND SUB PUSH2 0x1DA0 JUMPI PUSH1 0x40 MLOAD PUSH32 0x8C379A000000000000000000000000000000000000000000000000000000000 DUP2 MSTORE PUSH1 0x4 ADD PUSH2 0x1D97 SWAP1 PUSH2 0x2A74 JUMP JUMPDEST PUSH1 0x40 MLOAD DUP1 SWAP2 SUB SWAP1 REVERT JUMPDEST PUSH2 0x2710 DUP2 PUSH12 0xFFFFFFFFFFFFFFFFFFFFFFFF AND GT ISZERO PUSH2 0x1DF3 JUMPI PUSH1 0x40 MLOAD PUSH32 0x8C379A000000000000000000000000000000000000000000000000000000000 DUP2 MSTORE PUSH1 0x4 ADD PUSH2 0x1DEA SWAP1 PUSH2 0x31E1 JUMP JUMPDEST PUSH1 0x40 MLOAD DUP1 SWAP2 SUB SWAP1 REVERT JUMPDEST DUP4 PUSH0 PUSH0 DUP8 DUP2 MSTORE PUSH1 0x20 ADD SWAP1 DUP2 MSTORE PUSH1 0x20 ADD PUSH0 KECCAK256 PUSH0 DUP9 PUSH20 0xFFFFFFFFFFFFFFFFFFFFFFFFFFFFFFFFFFFFFFFF AND PUSH20 0xFFFFFFFFFFFFFFFFFFFFFFFFFFFFFFFFFFFFFFFF AND DUP2 MSTORE PUSH1 0x20 ADD SWAP1 DUP2 MSTORE PUSH1 0x20 ADD PUSH0 KECCAK256 PUSH0 DUP3 DUP3 SLOAD PUSH2 0x1E4D SWAP2 SWAP1 PUSH2 0x2C87 JUMP JUMPDEST SWAP3 POP POP DUP2 SWAP1 SSTORE POP PUSH0 PUSH1 0x2 PUSH0 DUP8 DUP2 MSTORE PUSH1 0x20 ADD SWAP1 DUP2 MSTORE PUSH1 0x20 ADD PUSH0 KECCAK256 DUP1 SLOAD PUSH2 0x1E71 SWAP1 PUSH2 0x2ABF JUMP JUMPDEST SWAP1 POP SUB PUSH2 0x1ED0 JUMPI DUP3 PUSH1 0x2 PUSH0 DUP8 DUP2 MSTORE PUSH1 0x20 ADD SWAP1 DUP2 MSTORE PUSH1 0x20 ADD PUSH0 KECCAK256 SWAP1 DUP2 PUSH2 0x1E96 SWAP2 SWAP1 PUSH2 0x339F JUMP JUMPDEST POP DUP5 PUSH32 0x6BB7FF708619BA0610CBA295A58592E0451DEE2622938C8755667688DAF3529B DUP5 PUSH1 0x40 MLOAD PUSH2 0x1EC7 SWAP2 SWAP1 PUSH2 0x22D5 JUMP JUMPDEST PUSH1 0x40 MLOAD DUP1 SWAP2 SUB SWAP1 LOG2 JUMPDEST PUSH0 PUSH20 0xFFFFFFFFFFFFFFFFFFFFFFFFFFFFFFFFFFFFFFFF AND PUSH1 0x3 PUSH0 DUP8 DUP2 MSTORE PUSH1 0x20 ADD SWAP1 DUP2 MSTORE PUSH1 0x20 ADD PUSH0 KECCAK256 PUSH0 ADD PUSH0 SWAP1 SLOAD SWAP1 PUSH2 0x100 EXP SWAP1 DIV PUSH20 0xFFFFFFFFFFFFFFFFFFFFFFFFFFFFFFFFFFFFFFFF AND PUSH20 0xFFFFFFFFFFFFFFFFFFFFFFFFFFFFFFFFFFFFFFFF AND SUB PUSH2 0x1FFD JUMPI PUSH1 0x40 MLOAD DUP1 PUSH1 0x40 ADD PUSH1 0x40 MSTORE DUP1 DUP4 PUSH20 0xFFFFFFFFFFFFFFFFFFFFFFFFFFFFFFFFFFFFFFFF AND DUP2 MSTORE PUSH1 0x20 ADD DUP3 PUSH12 0xFFFFFFFFFFFFFFFFFFFFFFFF AND DUP2 MSTORE POP PUSH1 0x3 PUSH0 DUP8 DUP2 MSTORE PUSH1 0x20 ADD SWAP1 DUP2 MSTORE PUSH1 0x20 ADD PUSH0 KECCAK256 PUSH0 DUP3 ADD MLOAD DUP2 PUSH0 ADD PUSH0 PUSH2 0x100 EXP DUP2 SLOAD DUP2 PUSH20 0xFFFFFFFFFFFFFFFFFFFFFFFFFFFFFFFFFFFFFFFF MUL NOT AND SWAP1 DUP4 PUSH20 0xFFFFFFFFFFFFFFFFFFFFFFFFFFFFFFFFFFFFFFFF AND MUL OR SWAP1 SSTORE POP PUSH1 0x20 DUP3 ADD MLOAD DUP2 PUSH0 ADD PUSH1 0x14 PUSH2 0x100 EXP DUP2 SLOAD DUP2 PUSH12 0xFFFFFFFFFFFFFFFFFFFFFFFF MUL NOT AND SWAP1 DUP4 PUSH12 0xFFFFFFFFFFFFFFFFFFFFFFFF AND MUL OR SWAP1 SSTORE POP SWAP1 POP POP JUMPDEST DUP6 PUSH20 0xFFFFFFFFFFFFFFFFFFFFFFFFFFFFFFFFFFFFFFFF AND PUSH0 PUSH20 0xFFFFFFFFFFFFFFFFFFFFFFFFFFFFFFFFFFFFFFFF AND CALLER PUSH20 0xFFFFFFFFFFFFFFFFFFFFFFFFFFFFFFFFFFFFFFFF AND PUSH32 0xC3D58168C5AE7397731D063D5BBF3D657854427343F4C083240F7AACAA2D0F62 DUP9 DUP9 PUSH1 0x40 MLOAD PUSH2 0x2073 SWAP3 SWAP2 SWAP1 PUSH2 0x2CBA JUMP JUMPDEST PUSH1 0x40 MLOAD DUP1 SWAP2 SUB SWAP1 LOG4 POP POP POP POP POP POP JUMP JUMPDEST PUSH0 PUSH1 0x40 MLOAD SWAP1 POP SWAP1 JUMP JUMPDEST PUSH0 PUSH0 REVERT JUMPDEST PUSH0 PUSH0 REVERT JUMPDEST PUSH0 PUSH20 0xFFFFFFFFFFFFFFFFFFFFFFFFFFFFFFFFFFFFFFFF DUP3 AND SWAP1 POP SWAP2 SWAP1 POP JUMP JUMPDEST PUSH0 PUSH2 0x20BD DUP3 PUSH2 0x2094 JUMP JUMPDEST SWAP1 POP SWAP2 SWAP1 POP JUMP JUMPDEST PUSH2 0x20CD DUP2 PUSH2 0x20B3 JUMP JUMPDEST DUP2 EQ PUSH2 0x20D7 JUMPI PUSH0 PUSH0 REVERT JUMPDEST POP JUMP JUMPDEST PUSH0 DUP2 CALLDATALOAD SWAP1 POP PUSH2 0x20E8 DUP2 PUSH2 0x20C4 JUMP JUMPDEST SWAP3 SWAP2 POP POP JUMP JUMPDEST PUSH0 DUP2 SWAP1 POP SWAP2 SWAP1 POP JUMP JUMPDEST PUSH2 0x2100 DUP2 PUSH2 0x20EE JUMP JUMPDEST DUP2 EQ PUSH2 0x210A JUMPI PUSH0 PUSH0 REVERT JUMPDEST POP JUMP JUMPDEST PUSH0 DUP2 CALLDATALOAD SWAP1 POP PUSH2 0x211B DUP2 PUSH2 0x20F7 JUMP JUMPDEST SWAP3 SWAP2 POP POP JUMP JUMPDEST PUSH0 PUSH0 PUSH1 0x40 DUP4 DUP6 SUB SLT ISZERO PUSH2 0x2137 JUMPI PUSH2 0x2136 PUSH2 0x208C JUMP JUMPDEST JUMPDEST PUSH0 PUSH2 0x2144 DUP6 DUP3 DUP7 ADD PUSH2 0x20DA JUMP JUMPDEST SWAP3 POP POP PUSH1 0x20 PUSH2 0x2155 DUP6 DUP3 DUP7 ADD PUSH2 0x210D JUMP JUMPDEST SWAP2 POP POP SWAP3 POP SWAP3 SWAP1 POP JUMP JUMPDEST PUSH2 0x2168 DUP2 PUSH2 0x20EE JUMP JUMPDEST DUP3 MSTORE POP POP JUMP JUMPDEST PUSH0 PUSH1 0x20 DUP3 ADD SWAP1 POP PUSH2 0x2181 PUSH0 DUP4 ADD DUP5 PUSH2 0x215F JUMP JUMPDEST SWAP3 SWAP2 POP POP JUMP JUMPDEST PUSH0 PUSH32 0xFFFFFFFF00000000000000000000000000000000000000000000000000000000 DUP3 AND SWAP1 POP SWAP2 SWAP1 POP JUMP JUMPDEST PUSH2 0x21BB DUP2 PUSH2 0x2187 JUMP JUMPDEST DUP2 EQ PUSH2 0x21C5 JUMPI PUSH0 PUSH0 REVERT JUMPDEST POP JUMP JUMPDEST PUSH0 DUP2 CALLDATALOAD SWAP1 POP PUSH2 0x21D6 DUP2 PUSH2 0x21B2 JUMP JUMPDEST SWAP3 SWAP2 POP POP JUMP JUMPDEST PUSH0 PUSH1 0x20 DUP3 DUP5 SUB SLT ISZERO PUSH2 0x21F1 JUMPI PUSH2 0x21F0 PUSH2 0x208C JUMP JUMPDEST JUMPDEST PUSH0 PUSH2 0x21FE DUP5 DUP3 DUP6 ADD PUSH2 0x21C8 JUMP JUMPDEST SWAP2 POP POP SWAP3 SWAP2 POP POP JUMP JUMPDEST PUSH0 DUP2 ISZERO ISZERO SWAP1 POP SWAP2 SWAP1 POP JUMP JUMPDEST PUSH2 0x221B DUP2 PUSH2 0x2207 JUMP JUMPDEST DUP3 MSTORE POP POP JUMP JUMPDEST PUSH0 PUSH1 0x20 DUP3 ADD SWAP1 POP PUSH2 0x2234 PUSH0 DUP4 ADD DUP5 PUSH2 0x2212 JUMP JUMPDEST SWAP3 SWAP2 POP POP JUMP JUMPDEST PUSH0 PUSH1 0x20 DUP3 DUP5 SUB SLT ISZERO PUSH2 0x224F JUMPI PUSH2 0x224E PUSH2 0x208C JUMP JUMPDEST JUMPDEST PUSH0 PUSH2 0x225C DUP5 DUP3 DUP6 ADD PUSH2 0x210D JUMP JUMPDEST SWAP2 POP POP SWAP3 SWAP2 POP POP JUMP JUMPDEST PUSH0 DUP2 MLOAD SWAP1 POP SWAP2 SWAP1 POP JUMP JUMPDEST PUSH0 DUP3 DUP3 MSTORE PUSH1 0x20 DUP3 ADD SWAP1 POP SWAP3 SWAP2 POP POP JUMP JUMPDEST DUP3 DUP2 DUP4 MCOPY PUSH0 DUP4 DUP4 ADD MSTORE POP POP POP JUMP JUMPDEST PUSH0 PUSH1 0x1F NOT PUSH1 0x1F DUP4 ADD AND SWAP1 POP SWAP2 SWAP1 POP JUMP JUMPDEST PUSH0 PUSH2 0x22A7 DUP3 PUSH2 0x2265 JUMP JUMPDEST PUSH2 0x22B1 DUP2 DUP6 PUSH2 0x226F JUMP JUMPDEST SWAP4 POP PUSH2 0x22C1 DUP2 DUP6 PUSH1 0x20 DUP7 ADD PUSH2 0x227F JUMP JUMPDEST PUSH2 0x22CA DUP2 PUSH2 0x228D JUMP JUMPDEST DUP5 ADD SWAP2 POP POP SWAP3 SWAP2 POP POP JUMP JUMPDEST PUSH0 PUSH1 0x20 DUP3 ADD SWAP1 POP DUP2 DUP2 SUB PUSH0 DUP4 ADD MSTORE PUSH2 0x22ED DUP2 DUP5 PUSH2 0x229D JUMP JUMPDEST SWAP1 POP SWAP3 SWAP2 POP POP JUMP JUMPDEST PUSH0 PUSH0 PUSH0 PUSH0 PUSH1 0x80 DUP6 DUP8 SUB SLT ISZERO PUSH2 0x230D JUMPI PUSH2 0x230C PUSH2 0x208C JUMP JUMPDEST JUMPDEST PUSH0 PUSH2 0x231A DUP8 DUP3 DUP9 ADD PUSH2 0x20DA JUMP JUMPDEST SWAP5 POP POP PUSH1 0x20 PUSH2 0x232B DUP8 DUP3 DUP9 ADD PUSH2 0x20DA JUMP JUMPDEST SWAP4 POP POP PUSH1 0x40 PUSH2 0x233C DUP8 DUP3 DUP9 ADD PUSH2 0x210D JUMP JUMPDEST SWAP3 POP POP PUSH1 0x60 PUSH2 0x234D DUP8 DUP3 DUP9 ADD PUSH2 0x210D JUMP JUMPDEST SWAP2 POP POP SWAP3 SWAP6 SWAP2 SWAP5 POP SWAP3 POP JUMP JUMPDEST PUSH0 PUSH0 PUSH1 0x40 DUP4 DUP6 SUB SLT ISZERO PUSH2 0x236F JUMPI PUSH2 0x236E PUSH2 0x208C JUMP JUMPDEST JUMPDEST PUSH0 PUSH2 0x237C DUP6 DUP3 DUP7 ADD PUSH2 0x210D JUMP JUMPDEST SWAP3 POP POP PUSH1 0x20 PUSH2 0x238D DUP6 DUP3 DUP7 ADD PUSH2 0x210D JUMP JUMPDEST SWAP2 POP POP SWAP3 POP SWAP3 SWAP1 POP JUMP JUMPDEST PUSH2 0x23A0 DUP2 PUSH2 0x20B3 JUMP JUMPDEST DUP3 MSTORE POP POP JUMP JUMPDEST PUSH0 PUSH1 0x40 DUP3 ADD SWAP1 POP PUSH2 0x23B9 PUSH0 DUP4 ADD DUP6 PUSH2 0x2397 JUMP JUMPDEST PUSH2 0x23C6 PUSH1 0x20 DUP4 ADD DUP5 PUSH2 0x215F JUMP JUMPDEST SWAP4 SWAP3 POP POP POP JUMP JUMPDEST PUSH0 PUSH0 PUSH1 0x40 DUP4 DUP6 SUB SLT ISZERO PUSH2 0x23E3 JUMPI PUSH2 0x23E2 PUSH2 0x208C JUMP JUMPDEST JUMPDEST PUSH0 PUSH2 0x23F0 DUP6 DUP3 DUP7 ADD PUSH2 0x210D JUMP JUMPDEST SWAP3 POP POP PUSH1 0x20 PUSH2 0x2401 DUP6 DUP3 DUP7 ADD PUSH2 0x20DA JUMP JUMPDEST SWAP2 POP POP SWAP3 POP SWAP3 SWAP1 POP JUMP JUMPDEST PUSH0 PUSH0 REVERT JUMPDEST PUSH0 PUSH0 REVERT JUMPDEST PUSH0 PUSH0 REVERT JUMPDEST PUSH0 PUSH0 DUP4 PUSH1 0x1F DUP5 ADD SLT PUSH2 0x242C JUMPI PUSH2 0x242B PUSH2 0x240B JUMP JUMPDEST JUMPDEST DUP3 CALLDATALOAD SWAP1 POP PUSH8 0xFFFFFFFFFFFFFFFF DUP2 GT ISZERO PUSH2 0x2449 JUMPI PUSH2 0x2448 PUSH2 0x240F JUMP JUMPDEST JUMPDEST PUSH1 0x20 DUP4 ADD SWAP2 POP DUP4 PUSH1 0x20 DUP3 MUL DUP4 ADD GT ISZERO PUSH2 0x2465 JUMPI PUSH2 0x2464 PUSH2 0x2413 JUMP JUMPDEST JUMPDEST SWAP3 POP SWAP3 SWAP1 POP JUMP JUMPDEST PUSH0 PUSH0 DUP4 PUSH1 0x1F DUP5 ADD SLT PUSH2 0x2481 JUMPI PUSH2 0x2480 PUSH2 0x240B JUMP JUMPDEST JUMPDEST DUP3 CALLDATALOAD SWAP1 POP PUSH8 0xFFFFFFFFFFFFFFFF DUP2 GT ISZERO PUSH2 0x249E JUMPI PUSH2 0x249D PUSH2 0x240F JUMP JUMPDEST JUMPDEST PUSH1 0x20 DUP4 ADD SWAP2 POP DUP4 PUSH1 0x20 DUP3 MUL DUP4 ADD GT ISZERO PUSH2 0x24BA JUMPI PUSH2 0x24B9 PUSH2 0x2413 JUMP JUMPDEST JUMPDEST SWAP3 POP SWAP3 SWAP1 POP JUMP JUMPDEST PUSH0 PUSH0 PUSH0 PUSH0 PUSH1 0x40 DUP6 DUP8 SUB SLT ISZERO PUSH2 0x24D9 JUMPI PUSH2 0x24D8 PUSH2 0x208C JUMP JUMPDEST JUMPDEST PUSH0 DUP6 ADD CALLDATALOAD PUSH8 0xFFFFFFFFFFFFFFFF DUP2 GT ISZERO PUSH2 0x24F6 JUMPI PUSH2 0x24F5 PUSH2 0x2090 JUMP JUMPDEST JUMPDEST PUSH2 0x2502 DUP8 DUP3 DUP9 ADD PUSH2 0x2417 JUMP JUMPDEST SWAP5 POP SWAP5 POP POP PUSH1 0x20 DUP6 ADD CALLDATALOAD PUSH8 0xFFFFFFFFFFFFFFFF DUP2 GT ISZERO PUSH2 0x2525 JUMPI PUSH2 0x2524 PUSH2 0x2090 JUMP JUMPDEST JUMPDEST PUSH2 0x2531 DUP8 DUP3 DUP9 ADD PUSH2 0x246C JUMP JUMPDEST SWAP3 POP SWAP3 POP POP SWAP3 SWAP6 SWAP2 SWAP5 POP SWAP3 POP JUMP JUMPDEST PUSH0 DUP2 MLOAD SWAP1 POP SWAP2 SWAP1 POP JUMP JUMPDEST PUSH0 DUP3 DUP3 MSTORE PUSH1 0x20 DUP3 ADD SWAP1 POP SWAP3 SWAP2 POP POP JUMP JUMPDEST PUSH0 DUP2 SWAP1 POP PUSH1 0x20 DUP3 ADD SWAP1 POP SWAP2 SWAP1 POP JUMP JUMPDEST PUSH2 0x2571 DUP2 PUSH2 0x20EE JUMP JUMPDEST DUP3 MSTORE POP POP JUMP JUMPDEST PUSH0 PUSH2 0x2582 DUP4 DUP4 PUSH2 0x2568 JUMP JUMPDEST PUSH1 0x20 DUP4 ADD SWAP1 POP SWAP3 SWAP2 POP POP JUMP JUMPDEST PUSH0 PUSH1 0x20 DUP3 ADD SWAP1 POP SWAP2 SWAP1 POP JUMP JUMPDEST PUSH0 PUSH2 0x25A4 DUP3 PUSH2 0x253F JUMP JUMPDEST PUSH2 0x25AE DUP2 DUP6 PUSH2 0x2549 JUMP JUMPDEST SWAP4 POP PUSH2 0x25B9 DUP4 PUSH2 0x2559 JUMP JUMPDEST DUP1 PUSH0 JUMPDEST DUP4 DUP2 LT ISZERO PUSH2 0x25E9 JUMPI DUP2 MLOAD PUSH2 0x25D0 DUP9 DUP3 PUSH2 0x2577 JUMP JUMPDEST SWAP8 POP PUSH2 0x25DB DUP4 PUSH2 0x258E JUMP JUMPDEST SWAP3 POP POP PUSH1 0x1 DUP2 ADD SWAP1 POP PUSH2 0x25BC JUMP JUMPDEST POP DUP6 SWAP4 POP POP POP POP SWAP3 SWAP2 POP POP JUMP JUMPDEST PUSH0 PUSH1 0x20 DUP3 ADD SWAP1 POP DUP2 DUP2 SUB PUSH0 DUP4 ADD MSTORE PUSH2 0x260E DUP2 DUP5 PUSH2 0x259A JUMP JUMPDEST SWAP1 POP SWAP3 SWAP2 POP POP JUMP JUMPDEST PUSH0 PUSH1 0xE0 DUP3 ADD SWAP1 POP PUSH2 0x2629 PUSH0 DUP4 ADD DUP11 PUSH2 0x2397 JUMP JUMPDEST PUSH2 0x2636 PUSH1 0x20 DUP4 ADD DUP10 PUSH2 0x215F JUMP JUMPDEST PUSH2 0x2643 PUSH1 0x40 DUP4 ADD DUP9 PUSH2 0x215F JUMP JUMPDEST PUSH2 0x2650 PUSH1 0x60 DUP4 ADD DUP8 PUSH2 0x215F JUMP JUMPDEST PUSH2 0x265D PUSH1 0x80 DUP4 ADD DUP7 PUSH2 0x215F JUMP JUMPDEST PUSH2 0x266A PUSH1 0xA0 DUP4 ADD DUP6 PUSH2 0x2397 JUMP JUMPDEST PUSH2 0x2677 PUSH1 0xC0 DUP4 ADD DUP5 PUSH2 0x2212 JUMP JUMPDEST SWAP9 SWAP8 POP POP POP POP POP POP POP POP JUMP JUMPDEST PUSH2 0x268C DUP2 PUSH2 0x2207 JUMP JUMPDEST DUP2 EQ PUSH2 0x2696 JUMPI PUSH0 PUSH0 REVERT JUMPDEST POP JUMP JUMPDEST PUSH0 DUP2 CALLDATALOAD SWAP1 POP PUSH2 0x26A7 DUP2 PUSH2 0x2683 JUMP JUMPDEST SWAP3 SWAP2 POP POP JUMP JUMPDEST PUSH0 PUSH0 PUSH1 0x40 DUP4 DUP6 SUB SLT ISZERO PUSH2 0x26C3 JUMPI PUSH2 0x26C2 PUSH2 0x208C JUMP JUMPDEST JUMPDEST PUSH0 PUSH2 0x26D0 DUP6 DUP3 DUP7 ADD PUSH2 0x20DA JUMP JUMPDEST SWAP3 POP POP PUSH1 0x20 PUSH2 0x26E1 DUP6 DUP3 DUP7 ADD PUSH2 0x2699 JUMP JUMPDEST SWAP2 POP POP SWAP3 POP SWAP3 SWAP1 POP JUMP JUMPDEST PUSH0 PUSH0 PUSH0 PUSH1 0x60 DUP5 DUP7 SUB SLT ISZERO PUSH2 0x2702 JUMPI PUSH2 0x2701 PUSH2 0x208C JUMP JUMPDEST JUMPDEST PUSH0 PUSH2 0x270F DUP7 DUP3 DUP8 ADD PUSH2 0x210D JUMP JUMPDEST SWAP4 POP POP PUSH1 0x20 PUSH2 0x2720 DUP7 DUP3 DUP8 ADD PUSH2 0x210D JUMP JUMPDEST SWAP3 POP POP PUSH1 0x40 PUSH2 0x2731 DUP7 DUP3 DUP8 ADD PUSH2 0x210D JUMP JUMPDEST SWAP2 POP POP SWAP3 POP SWAP3 POP SWAP3 JUMP JUMPDEST PUSH0 PUSH0 PUSH1 0x40 DUP4 DUP6 SUB SLT ISZERO PUSH2 0x2751 JUMPI PUSH2 0x2750 PUSH2 0x208C JUMP JUMPDEST JUMPDEST PUSH0 PUSH2 0x275E DUP6 DUP3 DUP7 ADD PUSH2 0x20DA JUMP JUMPDEST SWAP3 POP POP PUSH1 0x20 PUSH2 0x276F DUP6 DUP3 DUP7 ADD PUSH2 0x20DA JUMP JUMPDEST SWAP2 POP POP SWAP3 POP SWAP3 SWAP1 POP JUMP JUMPDEST PUSH0 PUSH0 PUSH0 PUSH0 PUSH0 PUSH0 PUSH1 0x80 DUP8 DUP10 SUB SLT ISZERO PUSH2 0x2793 JUMPI PUSH2 0x2792 PUSH2 0x208C JUMP JUMPDEST JUMPDEST PUSH0 PUSH2 0x27A0 DUP10 DUP3 DUP11 ADD PUSH2 0x20DA JUMP JUMPDEST SWAP7 POP POP PUSH1 0x20 PUSH2 0x27B1 DUP10 DUP3 DUP11 ADD PUSH2 0x20DA JUMP JUMPDEST SWAP6 POP POP PUSH1 0x40 DUP8 ADD CALLDATALOAD PUSH8 0xFFFFFFFFFFFFFFFF DUP2 GT ISZERO PUSH2 0x27D2 JUMPI PUSH2 0x27D1 PUSH2 0x2090 JUMP JUMPDEST JUMPDEST PUSH2 0x27DE DUP10 DUP3 DUP11 ADD PUSH2 0x246C JUMP JUMPDEST SWAP5 POP SWAP5 POP POP PUSH1 0x60 DUP8 ADD CALLDATALOAD PUSH8 0xFFFFFFFFFFFFFFFF DUP2 GT ISZERO PUSH2 0x2801 JUMPI PUSH2 0x2800 PUSH2 0x2090 JUMP JUMPDEST JUMPDEST PUSH2 0x280D DUP10 DUP3 DUP11 ADD PUSH2 0x246C JUMP JUMPDEST SWAP3 POP SWAP3 POP POP SWAP3 SWAP6 POP SWAP3 SWAP6 POP SWAP3 SWAP6 JUMP JUMPDEST PUSH0 PUSH0 REVERT JUMPDEST PUSH32 0x4E487B7100000000000000000000000000000000000000000000000000000000 PUSH0 MSTORE PUSH1 0x41 PUSH1 0x4 MSTORE PUSH1 0x24 PUSH0 REVERT JUMPDEST PUSH2 0x2856 DUP3 PUSH2 0x228D JUMP JUMPDEST DUP2 ADD DUP2 DUP2 LT PUSH8 0xFFFFFFFFFFFFFFFF DUP3 GT OR ISZERO PUSH2 0x2875 JUMPI PUSH2 0x2874 PUSH2 0x2820 JUMP JUMPDEST JUMPDEST DUP1 PUSH1 0x40 MSTORE POP POP POP JUMP JUMPDEST PUSH0 PUSH2 0x2887 PUSH2 0x2083 JUMP JUMPDEST SWAP1 POP PUSH2 0x2893 DUP3 DUP3 PUSH2 0x284D JUMP JUMPDEST SWAP2 SWAP1 POP JUMP JUMPDEST PUSH0 PUSH8 0xFFFFFFFFFFFFFFFF DUP3 GT ISZERO PUSH2 0x28B2 JUMPI PUSH2 0x28B1 PUSH2 0x2820 JUMP JUMPDEST JUMPDEST PUSH2 0x28BB DUP3 PUSH2 0x228D JUMP JUMPDEST SWAP1 POP PUSH1 0x20 DUP2 ADD SWAP1 POP SWAP2 SWAP1 POP JUMP JUMPDEST DUP3 DUP2 DUP4 CALLDATACOPY PUSH0 DUP4 DUP4 ADD MSTORE POP POP POP JUMP JUMPDEST PUSH0 PUSH2 0x28E8 PUSH2 0x28E3 DUP5 PUSH2 0x2898 JUMP JUMPDEST PUSH2 0x287E JUMP JUMPDEST SWAP1 POP DUP3 DUP2 MSTORE PUSH1 0x20 DUP2 ADD DUP5 DUP5 DUP5 ADD GT ISZERO PUSH2 0x2904 JUMPI PUSH2 0x2903 PUSH2 0x281C JUMP JUMPDEST JUMPDEST PUSH2 0x290F DUP5 DUP3 DUP6 PUSH2 0x28C8 JUMP JUMPDEST POP SWAP4 SWAP3 POP POP POP JUMP JUMPDEST PUSH0 DUP3 PUSH1 0x1F DUP4 ADD SLT PUSH2 0x292B JUMPI PUSH2 0x292A PUSH2 0x240B JUMP JUMPDEST JUMPDEST DUP2 CALLDATALOAD PUSH2 0x293B DUP5 DUP3 PUSH1 0x20 DUP7 ADD PUSH2 0x28D6 JUMP JUMPDEST SWAP2 POP POP SWAP3 SWAP2 POP POP JUMP JUMPDEST PUSH0 PUSH12 0xFFFFFFFFFFFFFFFFFFFFFFFF DUP3 AND SWAP1 POP SWAP2 SWAP1 POP JUMP JUMPDEST PUSH2 0x2964 DUP2 PUSH2 0x2944 JUMP JUMPDEST DUP2 EQ PUSH2 0x296E JUMPI PUSH0 PUSH0 REVERT JUMPDEST POP JUMP JUMPDEST PUSH0 DUP2 CALLDATALOAD SWAP1 POP PUSH2 0x297F DUP2 PUSH2 0x295B JUMP JUMPDEST SWAP3 SWAP2 POP POP JUMP JUMPDEST PUSH0 PUSH0 PUSH0 PUSH0 PUSH0 PUSH0 PUSH1 0xC0 DUP8 DUP10 SUB SLT ISZERO PUSH2 0x299F JUMPI PUSH2 0x299E PUSH2 0x208C JUMP JUMPDEST JUMPDEST PUSH0 PUSH2 0x29AC DUP10 DUP3 DUP11 ADD PUSH2 0x20DA JUMP JUMPDEST SWAP7 POP POP PUSH1 0x20 PUSH2 0x29BD DUP10 DUP3 DUP11 ADD PUSH2 0x210D JUMP JUMPDEST SWAP6 POP POP PUSH1 0x40 PUSH2 0x29CE DUP10 DUP3 DUP11 ADD PUSH2 0x210D JUMP JUMPDEST SWAP5 POP POP PUSH1 0x60 DUP8 ADD CALLDATALOAD PUSH8 0xFFFFFFFFFFFFFFFF DUP2 GT ISZERO PUSH2 0x29EF JUMPI PUSH2 0x29EE PUSH2 0x2090 JUMP JUMPDEST JUMPDEST PUSH2 0x29FB DUP10 DUP3 DUP11 ADD PUSH2 0x2917 JUMP JUMPDEST SWAP4 POP POP PUSH1 0x80 PUSH2 0x2A0C DUP10 DUP3 DUP11 ADD PUSH2 0x20DA JUMP JUMPDEST SWAP3 POP POP PUSH1 0xA0 PUSH2 0x2A1D DUP10 DUP3 DUP11 ADD PUSH2 0x2971 JUMP JUMPDEST SWAP2 POP POP SWAP3 SWAP6 POP SWAP3 SWAP6 POP SWAP3 SWAP6 JUMP JUMPDEST PUSH32 0x5A65726F20616464726573730000000000000000000000000000000000000000 PUSH0 DUP3 ADD MSTORE POP JUMP JUMPDEST PUSH0 PUSH2 0x2A5E PUSH1 0xC DUP4 PUSH2 0x226F JUMP JUMPDEST SWAP2 POP PUSH2 0x2A69 DUP3 PUSH2 0x2A2A JUMP JUMPDEST PUSH1 0x20 DUP3 ADD SWAP1 POP SWAP2 SWAP1 POP JUMP JUMPDEST PUSH0 PUSH1 0x20 DUP3 ADD SWAP1 POP DUP2 DUP2 SUB PUSH0 DUP4 ADD MSTORE PUSH2 0x2A8B DUP2 PUSH2 0x2A52 JUMP JUMPDEST SWAP1 POP SWAP2 SWAP1 POP JUMP JUMPDEST PUSH32 0x4E487B7100000000000000000000000000000000000000000000000000000000 PUSH0 MSTORE PUSH1 0x22 PUSH1 0x4 MSTORE PUSH1 0x24 PUSH0 REVERT JUMPDEST PUSH0 PUSH1 0x2 DUP3 DIV SWAP1 POP PUSH1 0x1 DUP3 AND DUP1 PUSH2 0x2AD6 JUMPI PUSH1 0x7F DUP3 AND SWAP2 POP JUMPDEST PUSH1 0x20 DUP3 LT DUP2 SUB PUSH2 0x2AE9 JUMPI PUSH2 0x2AE8 PUSH2 0x2A92 JUMP JUMPDEST JUMPDEST POP SWAP2 SWAP1 POP JUMP JUMPDEST PUSH32 0x4E6F20726566756E640000000000000000000000000000000000000000000000 PUSH0 DUP3 ADD MSTORE POP JUMP JUMPDEST PUSH0 PUSH2 0x2B23 PUSH1 0x9 DUP4 PUSH2 0x226F JUMP JUMPDEST SWAP2 POP PUSH2 0x2B2E DUP3 PUSH2 0x2AEF JUMP JUMPDEST PUSH1 0x20 DUP3 ADD SWAP1 POP SWAP2 SWAP1 POP JUMP JUMPDEST PUSH0 PUSH1 0x20 DUP3 ADD SWAP1 POP DUP2 DUP2 SUB PUSH0 DUP4 ADD MSTORE PUSH2 0x2B50 DUP2 PUSH2 0x2B17 JUMP JUMPDEST SWAP1 POP SWAP2 SWAP1 POP JUMP JUMPDEST PUSH32 0x4E6F7420617574686F72697A6564000000000000000000000000000000000000 PUSH0 DUP3 ADD MSTORE POP JUMP JUMPDEST PUSH0 PUSH2 0x2B8B PUSH1 0xE DUP4 PUSH2 0x226F JUMP JUMPDEST SWAP2 POP PUSH2 0x2B96 DUP3 PUSH2 0x2B57 JUMP JUMPDEST PUSH1 0x20 DUP3 ADD SWAP1 POP SWAP2 SWAP1 POP JUMP JUMPDEST PUSH0 PUSH1 0x20 DUP3 ADD SWAP1 POP DUP2 DUP2 SUB PUSH0 DUP4 ADD MSTORE PUSH2 0x2BB8 DUP2 PUSH2 0x2B7F JUMP JUMPDEST SWAP1 POP SWAP2 SWAP1 POP JUMP JUMPDEST PUSH32 0x496E73756666696369656E742062616C616E6365000000000000000000000000 PUSH0 DUP3 ADD MSTORE POP JUMP JUMPDEST PUSH0 PUSH2 0x2BF3 PUSH1 0x14 DUP4 PUSH2 0x226F JUMP JUMPDEST SWAP2 POP PUSH2 0x2BFE DUP3 PUSH2 0x2BBF JUMP JUMPDEST PUSH1 0x20 DUP3 ADD SWAP1 POP SWAP2 SWAP1 POP JUMP JUMPDEST PUSH0 PUSH1 0x20 DUP3 ADD SWAP1 POP DUP2 DUP2 SUB PUSH0 DUP4 ADD MSTORE PUSH2 0x2C20 DUP2 PUSH2 0x2BE7 JUMP JUMPDEST SWAP1 POP SWAP2 SWAP1 POP JUMP JUMPDEST PUSH32 0x4E487B7100000000000000000000000000000000000000000000000000000000 PUSH0 MSTORE PUSH1 0x11 PUSH1 0x4 MSTORE PUSH1 0x24 PUSH0 REVERT JUMPDEST PUSH0 PUSH2 0x2C5E DUP3 PUSH2 0x20EE JUMP JUMPDEST SWAP2 POP PUSH2 0x2C69 DUP4 PUSH2 0x20EE JUMP JUMPDEST SWAP3 POP DUP3 DUP3 SUB SWAP1 POP DUP2 DUP2 GT ISZERO PUSH2 0x2C81 JUMPI PUSH2 0x2C80 PUSH2 0x2C27 JUMP JUMPDEST JUMPDEST SWAP3 SWAP2 POP POP JUMP JUMPDEST PUSH0 PUSH2 0x2C91 DUP3 PUSH2 0x20EE JUMP JUMPDEST SWAP2 POP PUSH2 0x2C9C DUP4 PUSH2 0x20EE JUMP JUMPDEST SWAP3 POP DUP3 DUP3 ADD SWAP1 POP DUP1 DUP3 GT ISZERO PUSH2 0x2CB4 JUMPI PUSH2 0x2CB3 PUSH2 0x2C27 JUMP JUMPDEST JUMPDEST SWAP3 SWAP2 POP POP JUMP JUMPDEST PUSH0 PUSH1 0x40 DUP3 ADD SWAP1 POP PUSH2 0x2CCD PUSH0 DUP4 ADD DUP6 PUSH2 0x215F JUMP JUMPDEST PUSH2 0x2CDA PUSH1 0x20 DUP4 ADD DUP5 PUSH2 0x215F JUMP JUMPDEST SWAP4 SWAP3 POP POP POP JUMP JUMPDEST PUSH0 PUSH2 0x2CEB DUP3 PUSH2 0x20EE JUMP JUMPDEST SWAP2 POP PUSH2 0x2CF6 DUP4 PUSH2 0x20EE JUMP JUMPDEST SWAP3 POP DUP3 DUP3 MUL PUSH2 0x2D04 DUP2 PUSH2 0x20EE JUMP JUMPDEST SWAP2 POP DUP3 DUP3 DIV DUP5 EQ DUP4 ISZERO OR PUSH2 0x2D1B JUMPI PUSH2 0x2D1A PUSH2 0x2C27 JUMP JUMPDEST JUMPDEST POP SWAP3 SWAP2 POP POP JUMP JUMPDEST PUSH32 0x4E487B7100000000000000000000000000000000000000000000000000000000 PUSH0 MSTORE PUSH1 0x12 PUSH1 0x4 MSTORE PUSH1 0x24 PUSH0 REVERT JUMPDEST PUSH0 PUSH2 0x2D59 DUP3 PUSH2 0x20EE JUMP JUMPDEST SWAP2 POP PUSH2 0x2D64 DUP4 PUSH2 0x20EE JUMP JUMPDEST SWAP3 POP DUP3 PUSH2 0x2D74 JUMPI PUSH2 0x2D73 PUSH2 0x2D22 JUMP JUMPDEST JUMPDEST DUP3 DUP3 DIV SWAP1 POP SWAP3 SWAP2 POP POP JUMP JUMPDEST PUSH32 0x41756374696F6E20656E64656400000000000000000000000000000000000000 PUSH0 DUP3 ADD MSTORE POP JUMP JUMPDEST PUSH0 PUSH2 0x2DB3 PUSH1 0xD DUP4 PUSH2 0x226F JUMP JUMPDEST SWAP2 POP PUSH2 0x2DBE DUP3 PUSH2 0x2D7F JUMP JUMPDEST PUSH1 0x20 DUP3 ADD SWAP1 POP SWAP2 SWAP1 POP JUMP JUMPDEST PUSH0 PUSH1 0x20 DUP3 ADD SWAP1 POP DUP2 DUP2 SUB PUSH0 DUP4 ADD MSTORE PUSH2 0x2DE0 DUP2 PUSH2 0x2DA7 JUMP JUMPDEST SWAP1 POP SWAP2 SWAP1 POP JUMP JUMPDEST PUSH32 0x4C6F772062696400000000000000000000000000000000000000000000000000 PUSH0 DUP3 ADD MSTORE POP JUMP JUMPDEST PUSH0 PUSH2 0x2E1B PUSH1 0x7 DUP4 PUSH2 0x226F JUMP JUMPDEST SWAP2 POP PUSH2 0x2E26 DUP3 PUSH2 0x2DE7 JUMP JUMPDEST PUSH1 0x20 DUP3 ADD SWAP1 POP SWAP2 SWAP1 POP JUMP JUMPDEST PUSH0 PUSH1 0x20 DUP3 ADD SWAP1 POP DUP2 DUP2 SUB PUSH0 DUP4 ADD MSTORE PUSH2 0x2E48 DUP2 PUSH2 0x2E0F JUMP JUMPDEST SWAP1 POP SWAP2 SWAP1 POP JUMP JUMPDEST PUSH32 0x4D69736D61746368656420617272617973000000000000000000000000000000 PUSH0 DUP3 ADD MSTORE POP JUMP JUMPDEST PUSH0 PUSH2 0x2E83 PUSH1 0x11 DUP4 PUSH2 0x226F JUMP JUMPDEST SWAP2 POP PUSH2 0x2E8E DUP3 PUSH2 0x2E4F JUMP JUMPDEST PUSH1 0x20 DUP3 ADD SWAP1 POP SWAP2 SWAP1 POP JUMP JUMPDEST PUSH0 PUSH1 0x20 DUP3 ADD SWAP1 POP DUP2 DUP2 SUB PUSH0 DUP4 ADD MSTORE PUSH2 0x2EB0 DUP2 PUSH2 0x2E77 JUMP JUMPDEST SWAP1 POP SWAP2 SWAP1 POP JUMP JUMPDEST PUSH32 0x4E487B7100000000000000000000000000000000000000000000000000000000 PUSH0 MSTORE PUSH1 0x32 PUSH1 0x4 MSTORE PUSH1 0x24 PUSH0 REVERT JUMPDEST PUSH0 PUSH1 0x20 DUP3 DUP5 SUB SLT ISZERO PUSH2 0x2EF9 JUMPI PUSH2 0x2EF8 PUSH2 0x208C JUMP JUMPDEST JUMPDEST PUSH0 PUSH2 0x2F06 DUP5 DUP3 DUP6 ADD PUSH2 0x20DA JUMP JUMPDEST SWAP2 POP POP SWAP3 SWAP2 POP POP JUMP JUMPDEST PUSH32 0x41756374696F6E206E6F7420656E646564000000000000000000000000000000 PUSH0 DUP3 ADD MSTORE POP JUMP JUMPDEST PUSH0 PUSH2 0x2F43 PUSH1 0x11 DUP4 PUSH2 0x226F JUMP JUMPDEST SWAP2 POP PUSH2 0x2F4E DUP3 PUSH2 0x2F0F JUMP JUMPDEST PUSH1 0x20 DUP3 ADD SWAP1 POP SWAP2 SWAP1 POP JUMP JUMPDEST PUSH0 PUSH1 0x20 DUP3 ADD SWAP1 POP DUP2 DUP2 SUB PUSH0 DUP4 ADD MSTORE PUSH2 0x2F70 DUP2 PUSH2 0x2F37 JUMP JUMPDEST SWAP1 POP SWAP2 SWAP1 POP JUMP JUMPDEST PUSH32 0x41756374696F6E20616C726561647920736574746C6564000000000000000000 PUSH0 DUP3 ADD MSTORE POP JUMP JUMPDEST PUSH0 PUSH2 0x2FAB PUSH1 0x17 DUP4 PUSH2 0x226F JUMP JUMPDEST SWAP2 POP PUSH2 0x2FB6 DUP3 PUSH2 0x2F77 JUMP JUMPDEST PUSH1 0x20 DUP3 ADD SWAP1 POP SWAP2 SWAP1 POP JUMP JUMPDEST PUSH0 PUSH1 0x20 DUP3 ADD SWAP1 POP DUP2 DUP2 SUB PUSH0 DUP4 ADD MSTORE PUSH2 0x2FD8 DUP2 PUSH2 0x2F9F JUMP JUMPDEST SWAP1 POP SWAP2 SWAP1 POP JUMP JUMPDEST PUSH32 0x4E6F74206F776E65720000000000000000000000000000000000000000000000 PUSH0 DUP3 ADD MSTORE POP JUMP JUMPDEST PUSH0 PUSH2 0x3013 PUSH1 0x9 DUP4 PUSH2 0x226F JUMP JUMPDEST SWAP2 POP PUSH2 0x301E DUP3 PUSH2 0x2FDF JUMP JUMPDEST PUSH1 0x20 DUP3 ADD SWAP1 POP SWAP2 SWAP1 POP JUMP JUMPDEST PUSH0 PUSH1 0x20 DUP3 ADD SWAP1 POP DUP2 DUP2 SUB PUSH0 DUP4 ADD MSTORE PUSH2 0x3040 DUP2 PUSH2 0x3007 JUMP JUMPDEST SWAP1 POP SWAP2 SWAP1 POP JUMP JUMPDEST PUSH32 0x546F6F2073686F72740000000000000000000000000000000000000000000000 PUSH0 DUP3 ADD MSTORE POP JUMP JUMPDEST PUSH0 PUSH2 0x307B PUSH1 0x9 DUP4 PUSH2 0x226F JUMP JUMPDEST SWAP2 POP PUSH2 0x3086 DUP3 PUSH2 0x3047 JUMP JUMPDEST PUSH1 0x20 DUP3 ADD SWAP1 POP SWAP2 SWAP1 POP JUMP JUMPDEST PUSH0 PUSH1 0x20 DUP3 ADD SWAP1 POP DUP2 DUP2 SUB PUSH0 DUP4 ADD MSTORE PUSH2 0x30A8 DUP2 PUSH2 0x306F JUMP JUMPDEST SWAP1 POP SWAP2 SWAP1 POP JUMP JUMPDEST PUSH0 PUSH2 0x30B9 DUP3 PUSH2 0x20EE JUMP JUMPDEST SWAP2 POP PUSH32 0xFFFFFFFFFFFFFFFFFFFFFFFFFFFFFFFFFFFFFFFFFFFFFFFFFFFFFFFFFFFFFFFF DUP3 SUB PUSH2 0x30EB JUMPI PUSH2 0x30EA PUSH2 0x2C27 JUMP JUMPDEST JUMPDEST PUSH1 0x1 DUP3 ADD SWAP1 POP SWAP2 SWAP1 POP JUMP JUMPDEST PUSH0 PUSH0 REVERT JUMPDEST DUP3 DUP2 DUP4 CALLDATACOPY POP POP POP JUMP JUMPDEST PUSH0 PUSH2 0x310E DUP4 DUP6 PUSH2 0x2549 JUMP JUMPDEST SWAP4 POP PUSH32 0x7FFFFFFFFFFFFFFFFFFFFFFFFFFFFFFFFFFFFFFFFFFFFFFFFFFFFFFFFFFFFFF DUP4 GT ISZERO PUSH2 0x3141 JUMPI PUSH2 0x3140 PUSH2 0x30F6 JUMP JUMPDEST JUMPDEST PUSH1 0x20 DUP4 MUL SWAP3 POP PUSH2 0x3152 DUP4 DUP6 DUP5 PUSH2 0x30FA JUMP JUMPDEST DUP3 DUP5 ADD SWAP1 POP SWAP4 SWAP3 POP POP POP JUMP JUMPDEST PUSH0 PUSH1 0x40 DUP3 ADD SWAP1 POP DUP2 DUP2 SUB PUSH0 DUP4 ADD MSTORE PUSH2 0x3177 DUP2 DUP7 DUP9 PUSH2 0x3103 JUMP JUMPDEST SWAP1 POP DUP2 DUP2 SUB PUSH1 0x20 DUP4 ADD MSTORE PUSH2 0x318C DUP2 DUP5 DUP7 PUSH2 0x3103 JUMP JUMPDEST SWAP1 POP SWAP6 SWAP5 POP POP POP POP POP JUMP JUMPDEST PUSH32 0x546F6F2068696768000000000000000000000000000000000000000000000000 PUSH0 DUP3 ADD MSTORE POP JUMP JUMPDEST PUSH0 PUSH2 0x31CB PUSH1 0x8 DUP4 PUSH2 0x226F JUMP JUMPDEST SWAP2 POP PUSH2 0x31D6 DUP3 PUSH2 0x3197 JUMP JUMPDEST PUSH1 0x20 DUP3 ADD SWAP1 POP SWAP2 SWAP1 POP JUMP JUMPDEST PUSH0 PUSH1 0x20 DUP3 ADD SWAP1 POP DUP2 DUP2 SUB PUSH0 DUP4 ADD MSTORE PUSH2 0x31F8 DUP2 PUSH2 0x31BF JUMP JUMPDEST SWAP1 POP SWAP2 SWAP1 POP JUMP JUMPDEST PUSH0 DUP2 SWAP1 POP DUP2 PUSH0 MSTORE PUSH1 0x20 PUSH0 KECCAK256 SWAP1 POP SWAP2 SWAP1 POP JUMP JUMPDEST PUSH0 PUSH1 0x20 PUSH1 0x1F DUP4 ADD DIV SWAP1 POP SWAP2 SWAP1 POP JUMP JUMPDEST PUSH0 DUP3 DUP3 SHL SWAP1 POP SWAP3 SWAP2 POP POP JUMP JUMPDEST PUSH0 PUSH1 0x8 DUP4 MUL PUSH2 0x325B PUSH32 0xFFFFFFFFFFFFFFFFFFFFFFFFFFFFFFFFFFFFFFFFFFFFFFFFFFFFFFFFFFFFFFFF DUP3 PUSH2 0x3220 JUMP JUMPDEST PUSH2 0x3265 DUP7 DUP4 PUSH2 0x3220 JUMP JUMPDEST SWAP6 POP DUP1 NOT DUP5 AND SWAP4 POP DUP1 DUP7 AND DUP5 OR SWAP3 POP POP POP SWAP4 SWAP3 POP POP POP JUMP JUMPDEST PUSH0 DUP2 SWAP1 POP SWAP2 SWAP1 POP JUMP JUMPDEST PUSH0 PUSH2 0x32A0 PUSH2 0x329B PUSH2 0x3296 DUP5 PUSH2 0x20EE JUMP JUMPDEST PUSH2 0x327D JUMP JUMPDEST PUSH2 0x20EE JUMP JUMPDEST SWAP1 POP SWAP2 SWAP1 POP JUMP JUMPDEST PUSH0 DUP2 SWAP1 POP SWAP2 SWAP1 POP JUMP JUMPDEST PUSH2 0x32B9 DUP4 PUSH2 0x3286 JUMP JUMPDEST PUSH2 0x32CD PUSH2 0x32C5 DUP3 PUSH2 0x32A7 JUMP JUMPDEST DUP5 DUP5 SLOAD PUSH2 0x322C JUMP JUMPDEST DUP3 SSTORE POP POP POP POP JUMP JUMPDEST PUSH0 PUSH0 SWAP1 POP SWAP1 JUMP JUMPDEST PUSH2 0x32E4 PUSH2 0x32D5 JUMP JUMPDEST PUSH2 0x32EF DUP2 DUP5 DUP5 PUSH2 0x32B0 JUMP JUMPDEST POP POP POP JUMP JUMPDEST JUMPDEST DUP2 DUP2 LT ISZERO PUSH2 0x3312 JUMPI PUSH2 0x3307 PUSH0 DUP3 PUSH2 0x32DC JUMP JUMPDEST PUSH1 0x1 DUP2 ADD SWAP1 POP PUSH2 0x32F5 JUMP JUMPDEST POP POP JUMP JUMPDEST PUSH1 0x1F DUP3 GT ISZERO PUSH2 0x3357 JUMPI PUSH2 0x3328 DUP2 PUSH2 0x31FF JUMP JUMPDEST PUSH2 0x3331 DUP5 PUSH2 0x3211 JUMP JUMPDEST DUP2 ADD PUSH1 0x20 DUP6 LT ISZERO PUSH2 0x3340 JUMPI DUP2 SWAP1 POP JUMPDEST PUSH2 0x3354 PUSH2 0x334C DUP6 PUSH2 0x3211 JUMP JUMPDEST DUP4 ADD DUP3 PUSH2 0x32F4 JUMP JUMPDEST POP POP JUMPDEST POP POP POP JUMP JUMPDEST PUSH0 DUP3 DUP3 SHR SWAP1 POP SWAP3 SWAP2 POP POP JUMP JUMPDEST PUSH0 PUSH2 0x3377 PUSH0 NOT DUP5 PUSH1 0x8 MUL PUSH2 0x335C JUMP JUMPDEST NOT DUP1 DUP4 AND SWAP2 POP POP SWAP3 SWAP2 POP POP JUMP JUMPDEST PUSH0 PUSH2 0x338F DUP4 DUP4 PUSH2 0x3368 JUMP JUMPDEST SWAP2 POP DUP3 PUSH1 0x2 MUL DUP3 OR SWAP1 POP SWAP3 SWAP2 POP POP JUMP JUMPDEST PUSH2 0x33A8 DUP3 PUSH2 0x2265 JUMP JUMPDEST PUSH8 0xFFFFFFFFFFFFFFFF DUP2 GT ISZERO PUSH2 0x33C1 JUMPI PUSH2 0x33C0 PUSH2 0x2820 JUMP JUMPDEST JUMPDEST PUSH2 0x33CB DUP3 SLOAD PUSH2 0x2ABF JUMP JUMPDEST PUSH2 0x33D6 DUP3 DUP3 DUP6 PUSH2 0x3316 JUMP JUMPDEST PUSH0 PUSH1 0x20 SWAP1 POP PUSH1 0x1F DUP4 GT PUSH1 0x1 DUP2 EQ PUSH2 0x3407 JUMPI PUSH0 DUP5 ISZERO PUSH2 0x33F5 JUMPI DUP3 DUP8 ADD MLOAD SWAP1 POP JUMPDEST PUSH2 0x33FF DUP6 DUP3 PUSH2 0x3384 JUMP JUMPDEST DUP7 SSTORE POP PUSH2 0x3466 JUMP JUMPDEST PUSH1 0x1F NOT DUP5 AND PUSH2 0x3415 DUP7 PUSH2 0x31FF JUMP JUMPDEST PUSH0 JUMPDEST DUP3 DUP2 LT ISZERO PUSH2 0x343C JUMPI DUP5 DUP10 ADD MLOAD DUP3 SSTORE PUSH1 0x1 DUP3 ADD SWAP2 POP PUSH1 0x20 DUP6 ADD SWAP5 POP PUSH1 0x20 DUP2 ADD SWAP1 POP PUSH2 0x3417 JUMP JUMPDEST DUP7 DUP4 LT ISZERO PUSH2 0x3459 JUMPI DUP5 DUP10 ADD MLOAD PUSH2 0x3455 PUSH1 0x1F DUP10 AND DUP3 PUSH2 0x3368 JUMP JUMPDEST DUP4 SSTORE POP JUMPDEST PUSH1 0x1 PUSH1 0x2 DUP9 MUL ADD DUP9 SSTORE POP POP POP JUMPDEST POP POP POP POP POP POP JUMP INVALID LOG2 PUSH5 0x6970667358 0x22 SLT KECCAK256 DUP11 PUSH32 0x6A562D4D6C17B72A59965E6D87286CFEE73C1CFBAD00BE56413827602666473 PUSH16 0x6C634300081E00330000000000000000 "
				},
				"gasEstimates": {
					"creation": {
						"codeDepositCost": "2695200",
						"executionCost": "2928",
						"totalCost": "2698128"
					},
					"external": {
						"auctionCount()": "2492",
						"auctions(uint256)": "infinite",
						"balanceOf(address,uint256)": "infinite",
						"balanceOfBatch(address[],uint256[])": "infinite",
						"bid(uint256)": "infinite",
						"bids(uint256,address)": "infinite",
						"createAuction(uint256,uint256,uint256)": "infinite",
						"endAuction(uint256)": "infinite",
						"isApprovedForAll(address,address)": "infinite",
						"mint(address,uint256,uint256,string,address,uint96)": "infinite",
						"royaltyInfo(uint256,uint256)": "infinite",
						"safeBatchTransferFrom(address,address,uint256[],uint256[])": "infinite",
						"safeTransferFrom(address,address,uint256,uint256)": "infinite",
						"setApprovalForAll(address,bool)": "infinite",
						"supportsInterface(bytes4)": "715",
						"uri(uint256)": "infinite",
						"withdrawBid(uint256)": "infinite"
					}
				},
				"methodIdentifiers": {
					"auctionCount()": "2ad71573",
					"auctions(uint256)": "571a26a0",
					"balanceOf(address,uint256)": "00fdd58e",
					"balanceOfBatch(address[],uint256[])": "4e1273f4",
					"bid(uint256)": "454a2ab3",
					"bids(uint256,address)": "3f1ffcec",
					"createAuction(uint256,uint256,uint256)": "cda4beef",
					"endAuction(uint256)": "b9a2de3a",
					"isApprovedForAll(address,address)": "e985e9c5",
					"mint(address,uint256,uint256,string,address,uint96)": "fd8bf596",
					"royaltyInfo(uint256,uint256)": "2a55205a",
					"safeBatchTransferFrom(address,address,uint256[],uint256[])": "fba0ee64",
					"safeTransferFrom(address,address,uint256,uint256)": "0febdd49",
					"setApprovalForAll(address,bool)": "a22cb465",
					"supportsInterface(bytes4)": "01ffc9a7",
					"uri(uint256)": "0e89341c",
					"withdrawBid(uint256)": "0eaaf4c8"
				}
			},
			"storageLayout": {
				"storage": [
					{
						"astId": 8,
						"contract": "Contract Conqueror/Erc-1155/Erc1155Comp.sol:AdvancedERC1155WithRoyaltyAndAuction",
						"label": "_balances",
						"offset": 0,
						"slot": "0",
						"type": "t_mapping(t_uint256,t_mapping(t_address,t_uint256))"
					},
					{
						"astId": 14,
						"contract": "Contract Conqueror/Erc-1155/Erc1155Comp.sol:AdvancedERC1155WithRoyaltyAndAuction",
						"label": "_operatorApprovals",
						"offset": 0,
						"slot": "1",
						"type": "t_mapping(t_address,t_mapping(t_address,t_bool))"
					},
					{
						"astId": 18,
						"contract": "Contract Conqueror/Erc-1155/Erc1155Comp.sol:AdvancedERC1155WithRoyaltyAndAuction",
						"label": "_uris",
						"offset": 0,
						"slot": "2",
						"type": "t_mapping(t_uint256,t_string_storage)"
					},
					{
						"astId": 28,
						"contract": "Contract Conqueror/Erc-1155/Erc1155Comp.sol:AdvancedERC1155WithRoyaltyAndAuction",
						"label": "_royalties",
						"offset": 0,
						"slot": "3",
						"type": "t_mapping(t_uint256,t_struct(RoyaltyInfo)23_storage)"
					},
					{
						"astId": 45,
						"contract": "Contract Conqueror/Erc-1155/Erc1155Comp.sol:AdvancedERC1155WithRoyaltyAndAuction",
						"label": "auctionCount",
						"offset": 0,
						"slot": "4",
						"type": "t_uint256"
					},
					{
						"astId": 50,
						"contract": "Contract Conqueror/Erc-1155/Erc1155Comp.sol:AdvancedERC1155WithRoyaltyAndAuction",
						"label": "auctions",
						"offset": 0,
						"slot": "5",
						"type": "t_mapping(t_uint256,t_struct(Auction)43_storage)"
					},
					{
						"astId": 56,
						"contract": "Contract Conqueror/Erc-1155/Erc1155Comp.sol:AdvancedERC1155WithRoyaltyAndAuction",
						"label": "bids",
						"offset": 0,
						"slot": "6",
						"type": "t_mapping(t_uint256,t_mapping(t_address,t_uint256))"
					}
				],
				"types": {
					"t_address": {
						"encoding": "inplace",
						"label": "address",
						"numberOfBytes": "20"
					},
					"t_bool": {
						"encoding": "inplace",
						"label": "bool",
						"numberOfBytes": "1"
					},
					"t_mapping(t_address,t_bool)": {
						"encoding": "mapping",
						"key": "t_address",
						"label": "mapping(address => bool)",
						"numberOfBytes": "32",
						"value": "t_bool"
					},
					"t_mapping(t_address,t_mapping(t_address,t_bool))": {
						"encoding": "mapping",
						"key": "t_address",
						"label": "mapping(address => mapping(address => bool))",
						"numberOfBytes": "32",
						"value": "t_mapping(t_address,t_bool)"
					},
					"t_mapping(t_address,t_uint256)": {
						"encoding": "mapping",
						"key": "t_address",
						"label": "mapping(address => uint256)",
						"numberOfBytes": "32",
						"value": "t_uint256"
					},
					"t_mapping(t_uint256,t_mapping(t_address,t_uint256))": {
						"encoding": "mapping",
						"key": "t_uint256",
						"label": "mapping(uint256 => mapping(address => uint256))",
						"numberOfBytes": "32",
						"value": "t_mapping(t_address,t_uint256)"
					},
					"t_mapping(t_uint256,t_string_storage)": {
						"encoding": "mapping",
						"key": "t_uint256",
						"label": "mapping(uint256 => string)",
						"numberOfBytes": "32",
						"value": "t_string_storage"
					},
					"t_mapping(t_uint256,t_struct(Auction)43_storage)": {
						"encoding": "mapping",
						"key": "t_uint256",
						"label": "mapping(uint256 => struct AdvancedERC1155WithRoyaltyAndAuction.Auction)",
						"numberOfBytes": "32",
						"value": "t_struct(Auction)43_storage"
					},
					"t_mapping(t_uint256,t_struct(RoyaltyInfo)23_storage)": {
						"encoding": "mapping",
						"key": "t_uint256",
						"label": "mapping(uint256 => struct AdvancedERC1155WithRoyaltyAndAuction.RoyaltyInfo)",
						"numberOfBytes": "32",
						"value": "t_struct(RoyaltyInfo)23_storage"
					},
					"t_string_storage": {
						"encoding": "bytes",
						"label": "string",
						"numberOfBytes": "32"
					},
					"t_struct(Auction)43_storage": {
						"encoding": "inplace",
						"label": "struct AdvancedERC1155WithRoyaltyAndAuction.Auction",
						"members": [
							{
								"astId": 30,
								"contract": "Contract Conqueror/Erc-1155/Erc1155Comp.sol:AdvancedERC1155WithRoyaltyAndAuction",
								"label": "seller",
								"offset": 0,
								"slot": "0",
								"type": "t_address"
							},
							{
								"astId": 32,
								"contract": "Contract Conqueror/Erc-1155/Erc1155Comp.sol:AdvancedERC1155WithRoyaltyAndAuction",
								"label": "tokenId",
								"offset": 0,
								"slot": "1",
								"type": "t_uint256"
							},
							{
								"astId": 34,
								"contract": "Contract Conqueror/Erc-1155/Erc1155Comp.sol:AdvancedERC1155WithRoyaltyAndAuction",
								"label": "amount",
								"offset": 0,
								"slot": "2",
								"type": "t_uint256"
							},
							{
								"astId": 36,
								"contract": "Contract Conqueror/Erc-1155/Erc1155Comp.sol:AdvancedERC1155WithRoyaltyAndAuction",
								"label": "endTime",
								"offset": 0,
								"slot": "3",
								"type": "t_uint256"
							},
							{
								"astId": 38,
								"contract": "Contract Conqueror/Erc-1155/Erc1155Comp.sol:AdvancedERC1155WithRoyaltyAndAuction",
								"label": "highestBid",
								"offset": 0,
								"slot": "4",
								"type": "t_uint256"
							},
							{
								"astId": 40,
								"contract": "Contract Conqueror/Erc-1155/Erc1155Comp.sol:AdvancedERC1155WithRoyaltyAndAuction",
								"label": "highestBidder",
								"offset": 0,
								"slot": "5",
								"type": "t_address"
							},
							{
								"astId": 42,
								"contract": "Contract Conqueror/Erc-1155/Erc1155Comp.sol:AdvancedERC1155WithRoyaltyAndAuction",
								"label": "ended",
								"offset": 20,
								"slot": "5",
								"type": "t_bool"
							}
						],
						"numberOfBytes": "192"
					},
					"t_struct(RoyaltyInfo)23_storage": {
						"encoding": "inplace",
						"label": "struct AdvancedERC1155WithRoyaltyAndAuction.RoyaltyInfo",
						"members": [
							{
								"astId": 20,
								"contract": "Contract Conqueror/Erc-1155/Erc1155Comp.sol:AdvancedERC1155WithRoyaltyAndAuction",
								"label": "receiver",
								"offset": 0,
								"slot": "0",
								"type": "t_address"
							},
							{
								"astId": 22,
								"contract": "Contract Conqueror/Erc-1155/Erc1155Comp.sol:AdvancedERC1155WithRoyaltyAndAuction",
								"label": "royaltyFraction",
								"offset": 20,
								"slot": "0",
								"type": "t_uint96"
							}
						],
						"numberOfBytes": "32"
					},
					"t_uint256": {
						"encoding": "inplace",
						"label": "uint256",
						"numberOfBytes": "32"
					},
					"t_uint96": {
						"encoding": "inplace",
						"label": "uint96",
						"numberOfBytes": "12"
					}
				}
			},
			"userdoc": {
				"kind": "user",
				"methods": {},
				"notice": "ERC1155 Token with Royalty and Built-in Auction System — No OpenZeppelin",
				"version": 1
			}
		}
	}
}