{
	"Contract Conqueror/swaptoken/swap.sol": {
		"SimpleSwap": {
			"abi": [
				{
					"inputs": [
						{
							"internalType": "address",
							"name": "_token0",
							"type": "address"
						},
						{
							"internalType": "address",
							"name": "_token1",
							"type": "address"
						}
					],
					"stateMutability": "nonpayable",
					"type": "constructor"
				},
				{
					"inputs": [],
					"name": "InsufficientInputAmount",
					"type": "error"
				},
				{
					"inputs": [],
					"name": "InsufficientLiquidity",
					"type": "error"
				},
				{
					"inputs": [],
					"name": "NotSupportedPair",
					"type": "error"
				},
				{
					"inputs": [],
					"name": "SameToken",
					"type": "error"
				},
				{
					"inputs": [],
					"name": "TransferFailed",
					"type": "error"
				},
				{
					"anonymous": false,
					"inputs": [
						{
							"indexed": true,
							"internalType": "address",
							"name": "provider",
							"type": "address"
						},
						{
							"indexed": false,
							"internalType": "uint256",
							"name": "amount0",
							"type": "uint256"
						},
						{
							"indexed": false,
							"internalType": "uint256",
							"name": "amount1",
							"type": "uint256"
						},
						{
							"indexed": false,
							"internalType": "uint256",
							"name": "mintedShares",
							"type": "uint256"
						}
					],
					"name": "LiquidityAdded",
					"type": "event"
				},
				{
					"anonymous": false,
					"inputs": [
						{
							"indexed": true,
							"internalType": "address",
							"name": "provider",
							"type": "address"
						},
						{
							"indexed": false,
							"internalType": "uint256",
							"name": "amount0",
							"type": "uint256"
						},
						{
							"indexed": false,
							"internalType": "uint256",
							"name": "amount1",
							"type": "uint256"
						},
						{
							"indexed": false,
							"internalType": "uint256",
							"name": "burnedShares",
							"type": "uint256"
						}
					],
					"name": "LiquidityRemoved",
					"type": "event"
				},
				{
					"anonymous": false,
					"inputs": [
						{
							"indexed": true,
							"internalType": "address",
							"name": "sender",
							"type": "address"
						},
						{
							"indexed": true,
							"internalType": "address",
							"name": "fromToken",
							"type": "address"
						},
						{
							"indexed": true,
							"internalType": "address",
							"name": "toToken",
							"type": "address"
						},
						{
							"indexed": false,
							"internalType": "uint256",
							"name": "amountIn",
							"type": "uint256"
						},
						{
							"indexed": false,
							"internalType": "uint256",
							"name": "amountOut",
							"type": "uint256"
						}
					],
					"name": "Swapped",
					"type": "event"
				},
				{
					"inputs": [
						{
							"internalType": "uint256",
							"name": "amount0",
							"type": "uint256"
						},
						{
							"internalType": "uint256",
							"name": "amount1",
							"type": "uint256"
						}
					],
					"name": "addLiquidity",
					"outputs": [
						{
							"internalType": "uint256",
							"name": "minted",
							"type": "uint256"
						}
					],
					"stateMutability": "nonpayable",
					"type": "function"
				},
				{
					"inputs": [],
					"name": "getReserves",
					"outputs": [
						{
							"internalType": "uint112",
							"name": "r0",
							"type": "uint112"
						},
						{
							"internalType": "uint112",
							"name": "r1",
							"type": "uint112"
						}
					],
					"stateMutability": "view",
					"type": "function"
				},
				{
					"inputs": [
						{
							"internalType": "address",
							"name": "",
							"type": "address"
						}
					],
					"name": "liquidity",
					"outputs": [
						{
							"internalType": "uint256",
							"name": "",
							"type": "uint256"
						}
					],
					"stateMutability": "view",
					"type": "function"
				},
				{
					"inputs": [
						{
							"internalType": "uint256",
							"name": "share",
							"type": "uint256"
						}
					],
					"name": "removeLiquidity",
					"outputs": [
						{
							"internalType": "uint256",
							"name": "amount0",
							"type": "uint256"
						},
						{
							"internalType": "uint256",
							"name": "amount1",
							"type": "uint256"
						}
					],
					"stateMutability": "nonpayable",
					"type": "function"
				},
				{
					"inputs": [
						{
							"internalType": "address",
							"name": "fromToken",
							"type": "address"
						},
						{
							"internalType": "address",
							"name": "toToken",
							"type": "address"
						},
						{
							"internalType": "uint256",
							"name": "amountIn",
							"type": "uint256"
						},
						{
							"internalType": "uint256",
							"name": "minAmountOut",
							"type": "uint256"
						}
					],
					"name": "swapTokens",
					"outputs": [
						{
							"internalType": "uint256",
							"name": "amountOut",
							"type": "uint256"
						}
					],
					"stateMutability": "nonpayable",
					"type": "function"
				},
				{
					"inputs": [],
					"name": "token0",
					"outputs": [
						{
							"internalType": "address",
							"name": "",
							"type": "address"
						}
					],
					"stateMutability": "view",
					"type": "function"
				},
				{
					"inputs": [],
					"name": "token1",
					"outputs": [
						{
							"internalType": "address",
							"name": "",
							"type": "address"
						}
					],
					"stateMutability": "view",
					"type": "function"
				},
				{
					"inputs": [],
					"name": "totalLiquidity",
					"outputs": [
						{
							"internalType": "uint256",
							"name": "",
							"type": "uint256"
						}
					],
					"stateMutability": "view",
					"type": "function"
				}
			],
			"devdoc": {
				"details": "Educational: not audited. Do NOT use as-is in production.",
				"kind": "dev",
				"methods": {
					"swapTokens(address,address,uint256,uint256)": {
						"params": {
							"amountIn": "amount of fromToken sent (user must approve first)",
							"fromToken": "the token the user sends in (must be token0 or token1)",
							"minAmountOut": "minimum acceptable amountOut (slippage protection)",
							"toToken": "the token the user wants out"
						}
					}
				},
				"version": 1
			},
			"evm": {
				"assembly": "    /* \"Contract Conqueror/swaptoken/swap.sol\":3565:10812  contract SimpleSwap {... */\n  mstore(0x40, 0xc0)\n    /* \"Contract Conqueror/swaptoken/swap.sol\":4099:4100  1 */\n  0x01\n    /* \"Contract Conqueror/swaptoken/swap.sol\":4076:4100  uint8 private locked = 1 */\n  0x03\n  exp(0x0100, 0x00)\n  dup2\n  sload\n  dup2\n  0xff\n  mul\n  not\n  and\n  swap1\n  dup4\n  0xff\n  and\n  mul\n  or\n  swap1\n  sstore\n  pop\n    /* \"Contract Conqueror/swaptoken/swap.sol\":4754:4920  constructor(address _token0, address _token1) {... */\n  callvalue\n  dup1\n  iszero\n  tag_1\n  jumpi\n  revert(0x00, 0x00)\ntag_1:\n  pop\n  mload(0x40)\n  sub(codesize, bytecodeSize)\n  dup1\n  bytecodeSize\n  dup4\n  codecopy\n  dup2\n  dup2\n  add\n  0x40\n  mstore\n  dup2\n  add\n  swap1\n  tag_2\n  swap2\n  swap1\n  tag_3\n  jump\t// in\ntag_2:\n    /* \"Contract Conqueror/swaptoken/swap.sol\":4830:4837  _token1 */\n  dup1\n    /* \"Contract Conqueror/swaptoken/swap.sol\":4819:4837  _token0 != _token1 */\n  0xffffffffffffffffffffffffffffffffffffffff\n  and\n    /* \"Contract Conqueror/swaptoken/swap.sol\":4819:4826  _token0 */\n  dup3\n    /* \"Contract Conqueror/swaptoken/swap.sol\":4819:4837  _token0 != _token1 */\n  0xffffffffffffffffffffffffffffffffffffffff\n  and\n  sub\n    /* \"Contract Conqueror/swaptoken/swap.sol\":4811:4858  require(_token0 != _token1, \"Identical tokens\") */\n  tag_6\n  jumpi\n  mload(0x40)\n  0x08c379a000000000000000000000000000000000000000000000000000000000\n  dup2\n  mstore\n  0x04\n  add\n  tag_7\n  swap1\n  tag_8\n  jump\t// in\ntag_7:\n  mload(0x40)\n  dup1\n  swap2\n  sub\n  swap1\n  revert\ntag_6:\n    /* \"Contract Conqueror/swaptoken/swap.sol\":4878:4885  _token0 */\n  dup2\n    /* \"Contract Conqueror/swaptoken/swap.sol\":4869:4885  token0 = _token0 */\n  0xffffffffffffffffffffffffffffffffffffffff\n  and\n  0x80\n  dup2\n  0xffffffffffffffffffffffffffffffffffffffff\n  and\n  dup2\n  mstore\n  pop\n  pop\n    /* \"Contract Conqueror/swaptoken/swap.sol\":4905:4912  _token1 */\n  dup1\n    /* \"Contract Conqueror/swaptoken/swap.sol\":4896:4912  token1 = _token1 */\n  0xffffffffffffffffffffffffffffffffffffffff\n  and\n  0xa0\n  dup2\n  0xffffffffffffffffffffffffffffffffffffffff\n  and\n  dup2\n  mstore\n  pop\n  pop\n    /* \"Contract Conqueror/swaptoken/swap.sol\":4754:4920  constructor(address _token0, address _token1) {... */\n  pop\n  pop\n    /* \"Contract Conqueror/swaptoken/swap.sol\":3565:10812  contract SimpleSwap {... */\n  jump(tag_9)\n    /* \"#utility.yul\":88:205   */\ntag_11:\n    /* \"#utility.yul\":197:198   */\n  0x00\n    /* \"#utility.yul\":194:195   */\n  0x00\n    /* \"#utility.yul\":187:199   */\n  revert\n    /* \"#utility.yul\":334:460   */\ntag_13:\n    /* \"#utility.yul\":371:378   */\n  0x00\n    /* \"#utility.yul\":411:453   */\n  0xffffffffffffffffffffffffffffffffffffffff\n    /* \"#utility.yul\":404:409   */\n  dup3\n    /* \"#utility.yul\":400:454   */\n  and\n    /* \"#utility.yul\":389:454   */\n  swap1\n  pop\n    /* \"#utility.yul\":334:460   */\n  swap2\n  swap1\n  pop\n  jump\t// out\n    /* \"#utility.yul\":466:562   */\ntag_14:\n    /* \"#utility.yul\":503:510   */\n  0x00\n    /* \"#utility.yul\":532:556   */\n  tag_26\n    /* \"#utility.yul\":550:555   */\n  dup3\n    /* \"#utility.yul\":532:556   */\n  tag_13\n  jump\t// in\ntag_26:\n    /* \"#utility.yul\":521:556   */\n  swap1\n  pop\n    /* \"#utility.yul\":466:562   */\n  swap2\n  swap1\n  pop\n  jump\t// out\n    /* \"#utility.yul\":568:690   */\ntag_15:\n    /* \"#utility.yul\":641:665   */\n  tag_28\n    /* \"#utility.yul\":659:664   */\n  dup2\n    /* \"#utility.yul\":641:665   */\n  tag_14\n  jump\t// in\ntag_28:\n    /* \"#utility.yul\":634:639   */\n  dup2\n    /* \"#utility.yul\":631:666   */\n  eq\n    /* \"#utility.yul\":621:684   */\n  tag_29\n  jumpi\n    /* \"#utility.yul\":680:681   */\n  0x00\n    /* \"#utility.yul\":677:678   */\n  0x00\n    /* \"#utility.yul\":670:682   */\n  revert\n    /* \"#utility.yul\":621:684   */\ntag_29:\n    /* \"#utility.yul\":568:690   */\n  pop\n  jump\t// out\n    /* \"#utility.yul\":696:839   */\ntag_16:\n    /* \"#utility.yul\":753:758   */\n  0x00\n    /* \"#utility.yul\":784:790   */\n  dup2\n    /* \"#utility.yul\":778:791   */\n  mload\n    /* \"#utility.yul\":769:791   */\n  swap1\n  pop\n    /* \"#utility.yul\":800:833   */\n  tag_31\n    /* \"#utility.yul\":827:832   */\n  dup2\n    /* \"#utility.yul\":800:833   */\n  tag_15\n  jump\t// in\ntag_31:\n    /* \"#utility.yul\":696:839   */\n  swap3\n  swap2\n  pop\n  pop\n  jump\t// out\n    /* \"#utility.yul\":845:1352   */\ntag_3:\n    /* \"#utility.yul\":924:930   */\n  0x00\n    /* \"#utility.yul\":932:938   */\n  0x00\n    /* \"#utility.yul\":981:983   */\n  0x40\n    /* \"#utility.yul\":969:978   */\n  dup4\n    /* \"#utility.yul\":960:967   */\n  dup6\n    /* \"#utility.yul\":956:979   */\n  sub\n    /* \"#utility.yul\":952:984   */\n  slt\n    /* \"#utility.yul\":949:1068   */\n  iszero\n  tag_33\n  jumpi\n    /* \"#utility.yul\":987:1066   */\n  tag_34\n  tag_11\n  jump\t// in\ntag_34:\n    /* \"#utility.yul\":949:1068   */\ntag_33:\n    /* \"#utility.yul\":1107:1108   */\n  0x00\n    /* \"#utility.yul\":1132:1196   */\n  tag_35\n    /* \"#utility.yul\":1188:1195   */\n  dup6\n    /* \"#utility.yul\":1179:1185   */\n  dup3\n    /* \"#utility.yul\":1168:1177   */\n  dup7\n    /* \"#utility.yul\":1164:1186   */\n  add\n    /* \"#utility.yul\":1132:1196   */\n  tag_16\n  jump\t// in\ntag_35:\n    /* \"#utility.yul\":1122:1196   */\n  swap3\n  pop\n    /* \"#utility.yul\":1078:1206   */\n  pop\n    /* \"#utility.yul\":1245:1247   */\n  0x20\n    /* \"#utility.yul\":1271:1335   */\n  tag_36\n    /* \"#utility.yul\":1327:1334   */\n  dup6\n    /* \"#utility.yul\":1318:1324   */\n  dup3\n    /* \"#utility.yul\":1307:1316   */\n  dup7\n    /* \"#utility.yul\":1303:1325   */\n  add\n    /* \"#utility.yul\":1271:1335   */\n  tag_16\n  jump\t// in\ntag_36:\n    /* \"#utility.yul\":1261:1335   */\n  swap2\n  pop\n    /* \"#utility.yul\":1216:1345   */\n  pop\n    /* \"#utility.yul\":845:1352   */\n  swap3\n  pop\n  swap3\n  swap1\n  pop\n  jump\t// out\n    /* \"#utility.yul\":1358:1527   */\ntag_17:\n    /* \"#utility.yul\":1442:1453   */\n  0x00\n    /* \"#utility.yul\":1476:1482   */\n  dup3\n    /* \"#utility.yul\":1471:1474   */\n  dup3\n    /* \"#utility.yul\":1464:1483   */\n  mstore\n    /* \"#utility.yul\":1516:1520   */\n  0x20\n    /* \"#utility.yul\":1511:1514   */\n  dup3\n    /* \"#utility.yul\":1507:1521   */\n  add\n    /* \"#utility.yul\":1492:1521   */\n  swap1\n  pop\n    /* \"#utility.yul\":1358:1527   */\n  swap3\n  swap2\n  pop\n  pop\n  jump\t// out\n    /* \"#utility.yul\":1533:1699   */\ntag_18:\n    /* \"#utility.yul\":1673:1691   */\n  0x4964656e746963616c20746f6b656e7300000000000000000000000000000000\n    /* \"#utility.yul\":1669:1670   */\n  0x00\n    /* \"#utility.yul\":1661:1667   */\n  dup3\n    /* \"#utility.yul\":1657:1671   */\n  add\n    /* \"#utility.yul\":1650:1692   */\n  mstore\n    /* \"#utility.yul\":1533:1699   */\n  pop\n  jump\t// out\n    /* \"#utility.yul\":1705:2071   */\ntag_19:\n    /* \"#utility.yul\":1847:1850   */\n  0x00\n    /* \"#utility.yul\":1868:1935   */\n  tag_40\n    /* \"#utility.yul\":1932:1934   */\n  0x10\n    /* \"#utility.yul\":1927:1930   */\n  dup4\n    /* \"#utility.yul\":1868:1935   */\n  tag_17\n  jump\t// in\ntag_40:\n    /* \"#utility.yul\":1861:1935   */\n  swap2\n  pop\n    /* \"#utility.yul\":1944:2037   */\n  tag_41\n    /* \"#utility.yul\":2033:2036   */\n  dup3\n    /* \"#utility.yul\":1944:2037   */\n  tag_18\n  jump\t// in\ntag_41:\n    /* \"#utility.yul\":2062:2064   */\n  0x20\n    /* \"#utility.yul\":2057:2060   */\n  dup3\n    /* \"#utility.yul\":2053:2065   */\n  add\n    /* \"#utility.yul\":2046:2065   */\n  swap1\n  pop\n    /* \"#utility.yul\":1705:2071   */\n  swap2\n  swap1\n  pop\n  jump\t// out\n    /* \"#utility.yul\":2077:2496   */\ntag_8:\n    /* \"#utility.yul\":2243:2247   */\n  0x00\n    /* \"#utility.yul\":2281:2283   */\n  0x20\n    /* \"#utility.yul\":2270:2279   */\n  dup3\n    /* \"#utility.yul\":2266:2284   */\n  add\n    /* \"#utility.yul\":2258:2284   */\n  swap1\n  pop\n    /* \"#utility.yul\":2330:2339   */\n  dup2\n    /* \"#utility.yul\":2324:2328   */\n  dup2\n    /* \"#utility.yul\":2320:2340   */\n  sub\n    /* \"#utility.yul\":2316:2317   */\n  0x00\n    /* \"#utility.yul\":2305:2314   */\n  dup4\n    /* \"#utility.yul\":2301:2318   */\n  add\n    /* \"#utility.yul\":2294:2341   */\n  mstore\n    /* \"#utility.yul\":2358:2489   */\n  tag_43\n    /* \"#utility.yul\":2484:2488   */\n  dup2\n    /* \"#utility.yul\":2358:2489   */\n  tag_19\n  jump\t// in\ntag_43:\n    /* \"#utility.yul\":2350:2489   */\n  swap1\n  pop\n    /* \"#utility.yul\":2077:2496   */\n  swap2\n  swap1\n  pop\n  jump\t// out\n    /* \"Contract Conqueror/swaptoken/swap.sol\":3565:10812  contract SimpleSwap {... */\ntag_9:\n  mload(0x80)\n  mload(0xa0)\n  codecopy(0x00, dataOffset(sub_0), dataSize(sub_0))\n  0x00\n  assignImmutable(\"0xf960fbee3456271c1b4174e838993e7ae4b98346fb15a5c1f1bc2150d882d97e\")\n  0x00\n  assignImmutable(\"0x864b8fe99165e6c6448b5e7b202f0e5c58b63324a8b1fc889fb4fd715747dbee\")\n  return(0x00, dataSize(sub_0))\nstop\n\nsub_0: assembly {\n        /* \"Contract Conqueror/swaptoken/swap.sol\":3565:10812  contract SimpleSwap {... */\n      mstore(0x40, 0x80)\n      callvalue\n      dup1\n      iszero\n      tag_1\n      jumpi\n      revert(0x00, 0x00)\n    tag_1:\n      pop\n      jumpi(tag_2, lt(calldatasize, 0x04))\n      shr(0xe0, calldataload(0x00))\n      dup1\n      0x9c8f9f23\n      gt\n      tag_11\n      jumpi\n      dup1\n      0x9c8f9f23\n      eq\n      tag_7\n      jumpi\n      dup1\n      0x9cd441da\n      eq\n      tag_8\n      jumpi\n      dup1\n      0xb8c876b1\n      eq\n      tag_9\n      jumpi\n      dup1\n      0xd21220a7\n      eq\n      tag_10\n      jumpi\n      jump(tag_2)\n    tag_11:\n      dup1\n      0x0902f1ac\n      eq\n      tag_3\n      jumpi\n      dup1\n      0x0dfe1681\n      eq\n      tag_4\n      jumpi\n      dup1\n      0x15770f92\n      eq\n      tag_5\n      jumpi\n      dup1\n      0x8e18cdfc\n      eq\n      tag_6\n      jumpi\n    tag_2:\n      revert(0x00, 0x00)\n        /* \"Contract Conqueror/swaptoken/swap.sol\":8959:9085  function getReserves() external view returns (uint112 r0, uint112 r1) {... */\n    tag_3:\n      tag_12\n      tag_13\n      jump\t// in\n    tag_12:\n      mload(0x40)\n      tag_14\n      swap3\n      swap2\n      swap1\n      tag_15\n      jump\t// in\n    tag_14:\n      mload(0x40)\n      dup1\n      swap2\n      sub\n      swap1\n      return\n        /* \"Contract Conqueror/swaptoken/swap.sol\":3592:3623  address public immutable token0 */\n    tag_4:\n      tag_16\n      tag_17\n      jump\t// in\n    tag_16:\n      mload(0x40)\n      tag_18\n      swap2\n      swap1\n      tag_19\n      jump\t// in\n    tag_18:\n      mload(0x40)\n      dup1\n      swap2\n      sub\n      swap1\n      return\n        /* \"Contract Conqueror/swaptoken/swap.sol\":3860:3889  uint256 public totalLiquidity */\n    tag_5:\n      tag_20\n      tag_21\n      jump\t// in\n    tag_20:\n      mload(0x40)\n      tag_22\n      swap2\n      swap1\n      tag_23\n      jump\t// in\n    tag_22:\n      mload(0x40)\n      dup1\n      swap2\n      sub\n      swap1\n      return\n        /* \"Contract Conqueror/swaptoken/swap.sol\":7409:8908  function swapTokens(address fromToken, address toToken, uint256 amountIn, uint256 minAmountOut) external lock returns (uint256 amountOut) {... */\n    tag_6:\n      tag_24\n      0x04\n      dup1\n      calldatasize\n      sub\n      dup2\n      add\n      swap1\n      tag_25\n      swap2\n      swap1\n      tag_26\n      jump\t// in\n    tag_25:\n      tag_27\n      jump\t// in\n    tag_24:\n      mload(0x40)\n      tag_28\n      swap2\n      swap1\n      tag_23\n      jump\t// in\n    tag_28:\n      mload(0x40)\n      dup1\n      swap2\n      sub\n      swap1\n      return\n        /* \"Contract Conqueror/swaptoken/swap.sol\":6258:7065  function removeLiquidity(uint256 share) external lock returns (uint256 amount0, uint256 amount1) {... */\n    tag_7:\n      tag_29\n      0x04\n      dup1\n      calldatasize\n      sub\n      dup2\n      add\n      swap1\n      tag_30\n      swap2\n      swap1\n      tag_31\n      jump\t// in\n    tag_30:\n      tag_32\n      jump\t// in\n    tag_29:\n      mload(0x40)\n      tag_33\n      swap3\n      swap2\n      swap1\n      tag_34\n      jump\t// in\n    tag_33:\n      mload(0x40)\n      dup1\n      swap2\n      sub\n      swap1\n      return\n        /* \"Contract Conqueror/swaptoken/swap.sol\":5011:6193  function addLiquidity(uint256 amount0, uint256 amount1) external lock returns (uint256 minted) {... */\n    tag_8:\n      tag_35\n      0x04\n      dup1\n      calldatasize\n      sub\n      dup2\n      add\n      swap1\n      tag_36\n      swap2\n      swap1\n      tag_37\n      jump\t// in\n    tag_36:\n      tag_38\n      jump\t// in\n    tag_35:\n      mload(0x40)\n      tag_39\n      swap2\n      swap1\n      tag_23\n      jump\t// in\n    tag_39:\n      mload(0x40)\n      dup1\n      swap2\n      sub\n      swap1\n      return\n        /* \"Contract Conqueror/swaptoken/swap.sol\":3783:3827  mapping(address => uint256) public liquidity */\n    tag_9:\n      tag_40\n      0x04\n      dup1\n      calldatasize\n      sub\n      dup2\n      add\n      swap1\n      tag_41\n      swap2\n      swap1\n      tag_42\n      jump\t// in\n    tag_41:\n      tag_43\n      jump\t// in\n    tag_40:\n      mload(0x40)\n      tag_44\n      swap2\n      swap1\n      tag_23\n      jump\t// in\n    tag_44:\n      mload(0x40)\n      dup1\n      swap2\n      sub\n      swap1\n      return\n        /* \"Contract Conqueror/swaptoken/swap.sol\":3630:3661  address public immutable token1 */\n    tag_10:\n      tag_45\n      tag_46\n      jump\t// in\n    tag_45:\n      mload(0x40)\n      tag_47\n      swap2\n      swap1\n      tag_19\n      jump\t// in\n    tag_47:\n      mload(0x40)\n      dup1\n      swap2\n      sub\n      swap1\n      return\n        /* \"Contract Conqueror/swaptoken/swap.sol\":8959:9085  function getReserves() external view returns (uint112 r0, uint112 r1) {... */\n    tag_13:\n        /* \"Contract Conqueror/swaptoken/swap.sol\":9005:9015  uint112 r0 */\n      0x00\n        /* \"Contract Conqueror/swaptoken/swap.sol\":9017:9027  uint112 r1 */\n      0x00\n        /* \"Contract Conqueror/swaptoken/swap.sol\":9045:9053  reserve0 */\n      0x00\n      0x00\n      swap1\n      sload\n      swap1\n      0x0100\n      exp\n      swap1\n      div\n      0xffffffffffffffffffffffffffff\n      and\n        /* \"Contract Conqueror/swaptoken/swap.sol\":9040:9053  r0 = reserve0 */\n      swap2\n      pop\n        /* \"Contract Conqueror/swaptoken/swap.sol\":9069:9077  reserve1 */\n      0x00\n      0x0e\n      swap1\n      sload\n      swap1\n      0x0100\n      exp\n      swap1\n      div\n      0xffffffffffffffffffffffffffff\n      and\n        /* \"Contract Conqueror/swaptoken/swap.sol\":9064:9077  r1 = reserve1 */\n      swap1\n      pop\n        /* \"Contract Conqueror/swaptoken/swap.sol\":8959:9085  function getReserves() external view returns (uint112 r0, uint112 r1) {... */\n      swap1\n      swap2\n      jump\t// out\n        /* \"Contract Conqueror/swaptoken/swap.sol\":3592:3623  address public immutable token0 */\n    tag_17:\n      immutable(\"0x864b8fe99165e6c6448b5e7b202f0e5c58b63324a8b1fc889fb4fd715747dbee\")\n      dup2\n      jump\t// out\n        /* \"Contract Conqueror/swaptoken/swap.sol\":3860:3889  uint256 public totalLiquidity */\n    tag_21:\n      sload(0x02)\n      dup2\n      jump\t// out\n        /* \"Contract Conqueror/swaptoken/swap.sol\":7409:8908  function swapTokens(address fromToken, address toToken, uint256 amountIn, uint256 minAmountOut) external lock returns (uint256 amountOut) {... */\n    tag_27:\n        /* \"Contract Conqueror/swaptoken/swap.sol\":7528:7545  uint256 amountOut */\n      0x00\n        /* \"Contract Conqueror/swaptoken/swap.sol\":4669:4670  1 */\n      0x01\n        /* \"Contract Conqueror/swaptoken/swap.sol\":4659:4665  locked */\n      0x03\n      0x00\n      swap1\n      sload\n      swap1\n      0x0100\n      exp\n      swap1\n      div\n      0xff\n      and\n        /* \"Contract Conqueror/swaptoken/swap.sol\":4659:4670  locked == 1 */\n      0xff\n      and\n      eq\n        /* \"Contract Conqueror/swaptoken/swap.sol\":4651:4684  require(locked == 1, \"Reentrant\") */\n      tag_50\n      jumpi\n      mload(0x40)\n      0x08c379a000000000000000000000000000000000000000000000000000000000\n      dup2\n      mstore\n      0x04\n      add\n      tag_51\n      swap1\n      tag_52\n      jump\t// in\n    tag_51:\n      mload(0x40)\n      dup1\n      swap2\n      sub\n      swap1\n      revert\n    tag_50:\n        /* \"Contract Conqueror/swaptoken/swap.sol\":4704:4705  2 */\n      0x02\n        /* \"Contract Conqueror/swaptoken/swap.sol\":4695:4701  locked */\n      0x03\n      0x00\n        /* \"Contract Conqueror/swaptoken/swap.sol\":4695:4705  locked = 2 */\n      0x0100\n      exp\n      dup2\n      sload\n      dup2\n      0xff\n      mul\n      not\n      and\n      swap1\n      dup4\n      0xff\n      and\n      mul\n      or\n      swap1\n      sstore\n      pop\n        /* \"Contract Conqueror/swaptoken/swap.sol\":7564:7587  _isPairToken(fromToken) */\n      tag_54\n        /* \"Contract Conqueror/swaptoken/swap.sol\":7577:7586  fromToken */\n      dup6\n        /* \"Contract Conqueror/swaptoken/swap.sol\":7564:7576  _isPairToken */\n      tag_55\n        /* \"Contract Conqueror/swaptoken/swap.sol\":7564:7587  _isPairToken(fromToken) */\n      jump\t// in\n    tag_54:\n        /* \"Contract Conqueror/swaptoken/swap.sol\":7564:7612  _isPairToken(fromToken) && _isPairToken(toToken) */\n      dup1\n      iszero\n      tag_56\n      jumpi\n      pop\n        /* \"Contract Conqueror/swaptoken/swap.sol\":7591:7612  _isPairToken(toToken) */\n      tag_57\n        /* \"Contract Conqueror/swaptoken/swap.sol\":7604:7611  toToken */\n      dup5\n        /* \"Contract Conqueror/swaptoken/swap.sol\":7591:7603  _isPairToken */\n      tag_55\n        /* \"Contract Conqueror/swaptoken/swap.sol\":7591:7612  _isPairToken(toToken) */\n      jump\t// in\n    tag_57:\n        /* \"Contract Conqueror/swaptoken/swap.sol\":7564:7612  _isPairToken(fromToken) && _isPairToken(toToken) */\n    tag_56:\n        /* \"Contract Conqueror/swaptoken/swap.sol\":7558:7640  if (!(_isPairToken(fromToken) && _isPairToken(toToken))) revert NotSupportedPair() */\n      tag_58\n      jumpi\n        /* \"Contract Conqueror/swaptoken/swap.sol\":7622:7640  NotSupportedPair() */\n      mload(0x40)\n      0x9b50655900000000000000000000000000000000000000000000000000000000\n      dup2\n      mstore\n      0x04\n      add\n      mload(0x40)\n      dup1\n      swap2\n      sub\n      swap1\n      revert\n        /* \"Contract Conqueror/swaptoken/swap.sol\":7558:7640  if (!(_isPairToken(fromToken) && _isPairToken(toToken))) revert NotSupportedPair() */\n    tag_58:\n        /* \"Contract Conqueror/swaptoken/swap.sol\":7668:7675  toToken */\n      dup4\n        /* \"Contract Conqueror/swaptoken/swap.sol\":7655:7675  fromToken == toToken */\n      0xffffffffffffffffffffffffffffffffffffffff\n      and\n        /* \"Contract Conqueror/swaptoken/swap.sol\":7655:7664  fromToken */\n      dup6\n        /* \"Contract Conqueror/swaptoken/swap.sol\":7655:7675  fromToken == toToken */\n      0xffffffffffffffffffffffffffffffffffffffff\n      and\n      sub\n        /* \"Contract Conqueror/swaptoken/swap.sol\":7651:7695  if (fromToken == toToken) revert SameToken() */\n      tag_59\n      jumpi\n        /* \"Contract Conqueror/swaptoken/swap.sol\":7684:7695  SameToken() */\n      mload(0x40)\n      0x201b580a00000000000000000000000000000000000000000000000000000000\n      dup2\n      mstore\n      0x04\n      add\n      mload(0x40)\n      dup1\n      swap2\n      sub\n      swap1\n      revert\n        /* \"Contract Conqueror/swaptoken/swap.sol\":7651:7695  if (fromToken == toToken) revert SameToken() */\n    tag_59:\n        /* \"Contract Conqueror/swaptoken/swap.sol\":7725:7726  0 */\n      0x00\n        /* \"Contract Conqueror/swaptoken/swap.sol\":7714:7722  amountIn */\n      dup4\n        /* \"Contract Conqueror/swaptoken/swap.sol\":7714:7726  amountIn > 0 */\n      gt\n        /* \"Contract Conqueror/swaptoken/swap.sol\":7706:7741  require(amountIn > 0, \"Zero input\") */\n      tag_60\n      jumpi\n      mload(0x40)\n      0x08c379a000000000000000000000000000000000000000000000000000000000\n      dup2\n      mstore\n      0x04\n      add\n      tag_61\n      swap1\n      tag_62\n      jump\t// in\n    tag_61:\n      mload(0x40)\n      dup1\n      swap2\n      sub\n      swap1\n      revert\n    tag_60:\n        /* \"Contract Conqueror/swaptoken/swap.sol\":7798:7816  uint256 _reserveIn */\n      0x00\n        /* \"Contract Conqueror/swaptoken/swap.sol\":7818:7837  uint256 _reserveOut */\n      0x00\n        /* \"Contract Conqueror/swaptoken/swap.sol\":7854:7860  token0 */\n      immutable(\"0x864b8fe99165e6c6448b5e7b202f0e5c58b63324a8b1fc889fb4fd715747dbee\")\n        /* \"Contract Conqueror/swaptoken/swap.sol\":7841:7860  fromToken == token0 */\n      0xffffffffffffffffffffffffffffffffffffffff\n      and\n        /* \"Contract Conqueror/swaptoken/swap.sol\":7841:7850  fromToken */\n      dup8\n        /* \"Contract Conqueror/swaptoken/swap.sol\":7841:7860  fromToken == token0 */\n      0xffffffffffffffffffffffffffffffffffffffff\n      and\n      eq\n        /* \"Contract Conqueror/swaptoken/swap.sol\":7841:7942  fromToken == token0 ? (uint256(reserve0), uint256(reserve1)) : (uint256(reserve1), uint256(reserve0)) */\n      tag_63\n      jumpi\n        /* \"Contract Conqueror/swaptoken/swap.sol\":7913:7921  reserve1 */\n      0x00\n      0x0e\n      swap1\n      sload\n      swap1\n      0x0100\n      exp\n      swap1\n      div\n      0xffffffffffffffffffffffffffff\n      and\n        /* \"Contract Conqueror/swaptoken/swap.sol\":7905:7922  uint256(reserve1) */\n      0xffffffffffffffffffffffffffff\n      and\n        /* \"Contract Conqueror/swaptoken/swap.sol\":7932:7940  reserve0 */\n      0x00\n      0x00\n      swap1\n      sload\n      swap1\n      0x0100\n      exp\n      swap1\n      div\n      0xffffffffffffffffffffffffffff\n      and\n        /* \"Contract Conqueror/swaptoken/swap.sol\":7924:7941  uint256(reserve0) */\n      0xffffffffffffffffffffffffffff\n      and\n        /* \"Contract Conqueror/swaptoken/swap.sol\":7841:7942  fromToken == token0 ? (uint256(reserve0), uint256(reserve1)) : (uint256(reserve1), uint256(reserve0)) */\n      jump(tag_64)\n    tag_63:\n        /* \"Contract Conqueror/swaptoken/swap.sol\":7872:7880  reserve0 */\n      0x00\n      0x00\n      swap1\n      sload\n      swap1\n      0x0100\n      exp\n      swap1\n      div\n      0xffffffffffffffffffffffffffff\n      and\n        /* \"Contract Conqueror/swaptoken/swap.sol\":7864:7881  uint256(reserve0) */\n      0xffffffffffffffffffffffffffff\n      and\n        /* \"Contract Conqueror/swaptoken/swap.sol\":7891:7899  reserve1 */\n      0x00\n      0x0e\n      swap1\n      sload\n      swap1\n      0x0100\n      exp\n      swap1\n      div\n      0xffffffffffffffffffffffffffff\n      and\n        /* \"Contract Conqueror/swaptoken/swap.sol\":7883:7900  uint256(reserve1) */\n      0xffffffffffffffffffffffffffff\n      and\n        /* \"Contract Conqueror/swaptoken/swap.sol\":7841:7942  fromToken == token0 ? (uint256(reserve0), uint256(reserve1)) : (uint256(reserve1), uint256(reserve0)) */\n    tag_64:\n        /* \"Contract Conqueror/swaptoken/swap.sol\":7797:7942  (uint256 _reserveIn, uint256 _reserveOut) = fromToken == token0 ? (uint256(reserve0), uint256(reserve1)) : (uint256(reserve1), uint256(reserve0)) */\n      swap2\n      pop\n      swap2\n      pop\n        /* \"Contract Conqueror/swaptoken/swap.sol\":8054:8075  uint256 balanceBefore */\n      0x00\n        /* \"Contract Conqueror/swaptoken/swap.sol\":8085:8094  fromToken */\n      dup8\n        /* \"Contract Conqueror/swaptoken/swap.sol\":8078:8105  IERC20(fromToken).balanceOf */\n      0xffffffffffffffffffffffffffffffffffffffff\n      and\n      0x70a08231\n        /* \"Contract Conqueror/swaptoken/swap.sol\":8114:8118  this */\n      address\n        /* \"Contract Conqueror/swaptoken/swap.sol\":8078:8120  IERC20(fromToken).balanceOf(address(this)) */\n      mload(0x40)\n      dup3\n      0xffffffff\n      and\n      0xe0\n      shl\n      dup2\n      mstore\n      0x04\n      add\n      tag_65\n      swap2\n      swap1\n      tag_19\n      jump\t// in\n    tag_65:\n      0x20\n      mload(0x40)\n      dup1\n      dup4\n      sub\n      dup2\n      dup7\n      gas\n      staticcall\n      iszero\n      dup1\n      iszero\n      tag_67\n      jumpi\n      returndatacopy(0x00, 0x00, returndatasize)\n      revert(0x00, returndatasize)\n    tag_67:\n      pop\n      pop\n      pop\n      pop\n      mload(0x40)\n      returndatasize\n      not(0x1f)\n      0x1f\n      dup3\n      add\n      and\n      dup3\n      add\n      dup1\n      0x40\n      mstore\n      pop\n      dup2\n      add\n      swap1\n      tag_68\n      swap2\n      swap1\n      tag_69\n      jump\t// in\n    tag_68:\n        /* \"Contract Conqueror/swaptoken/swap.sol\":8054:8120  uint256 balanceBefore = IERC20(fromToken).balanceOf(address(this)) */\n      swap1\n      pop\n        /* \"Contract Conqueror/swaptoken/swap.sol\":8131:8204  _safeTransferFrom(IERC20(fromToken), msg.sender, address(this), amountIn) */\n      tag_70\n        /* \"Contract Conqueror/swaptoken/swap.sol\":8156:8165  fromToken */\n      dup9\n        /* \"Contract Conqueror/swaptoken/swap.sol\":8168:8178  msg.sender */\n      caller\n        /* \"Contract Conqueror/swaptoken/swap.sol\":8188:8192  this */\n      address\n        /* \"Contract Conqueror/swaptoken/swap.sol\":8195:8203  amountIn */\n      dup10\n        /* \"Contract Conqueror/swaptoken/swap.sol\":8131:8148  _safeTransferFrom */\n      tag_71\n        /* \"Contract Conqueror/swaptoken/swap.sol\":8131:8204  _safeTransferFrom(IERC20(fromToken), msg.sender, address(this), amountIn) */\n      jump\t// in\n    tag_70:\n        /* \"Contract Conqueror/swaptoken/swap.sol\":8215:8235  uint256 balanceAfter */\n      0x00\n        /* \"Contract Conqueror/swaptoken/swap.sol\":8245:8254  fromToken */\n      dup9\n        /* \"Contract Conqueror/swaptoken/swap.sol\":8238:8265  IERC20(fromToken).balanceOf */\n      0xffffffffffffffffffffffffffffffffffffffff\n      and\n      0x70a08231\n        /* \"Contract Conqueror/swaptoken/swap.sol\":8274:8278  this */\n      address\n        /* \"Contract Conqueror/swaptoken/swap.sol\":8238:8280  IERC20(fromToken).balanceOf(address(this)) */\n      mload(0x40)\n      dup3\n      0xffffffff\n      and\n      0xe0\n      shl\n      dup2\n      mstore\n      0x04\n      add\n      tag_72\n      swap2\n      swap1\n      tag_19\n      jump\t// in\n    tag_72:\n      0x20\n      mload(0x40)\n      dup1\n      dup4\n      sub\n      dup2\n      dup7\n      gas\n      staticcall\n      iszero\n      dup1\n      iszero\n      tag_74\n      jumpi\n      returndatacopy(0x00, 0x00, returndatasize)\n      revert(0x00, returndatasize)\n    tag_74:\n      pop\n      pop\n      pop\n      pop\n      mload(0x40)\n      returndatasize\n      not(0x1f)\n      0x1f\n      dup3\n      add\n      and\n      dup3\n      add\n      dup1\n      0x40\n      mstore\n      pop\n      dup2\n      add\n      swap1\n      tag_75\n      swap2\n      swap1\n      tag_69\n      jump\t// in\n    tag_75:\n        /* \"Contract Conqueror/swaptoken/swap.sol\":8215:8280  uint256 balanceAfter = IERC20(fromToken).balanceOf(address(this)) */\n      swap1\n      pop\n        /* \"Contract Conqueror/swaptoken/swap.sol\":8291:8313  uint256 actualAmountIn */\n      0x00\n        /* \"Contract Conqueror/swaptoken/swap.sol\":8331:8344  balanceBefore */\n      dup3\n        /* \"Contract Conqueror/swaptoken/swap.sol\":8316:8328  balanceAfter */\n      dup3\n        /* \"Contract Conqueror/swaptoken/swap.sol\":8316:8344  balanceAfter - balanceBefore */\n      tag_76\n      swap2\n      swap1\n      tag_77\n      jump\t// in\n    tag_76:\n        /* \"Contract Conqueror/swaptoken/swap.sol\":8291:8344  uint256 actualAmountIn = balanceAfter - balanceBefore */\n      swap1\n      pop\n        /* \"Contract Conqueror/swaptoken/swap.sol\":8377:8378  0 */\n      0x00\n        /* \"Contract Conqueror/swaptoken/swap.sol\":8359:8373  actualAmountIn */\n      dup2\n        /* \"Contract Conqueror/swaptoken/swap.sol\":8359:8378  actualAmountIn == 0 */\n      sub\n        /* \"Contract Conqueror/swaptoken/swap.sol\":8355:8412  if (actualAmountIn == 0) revert InsufficientInputAmount() */\n      tag_78\n      jumpi\n        /* \"Contract Conqueror/swaptoken/swap.sol\":8387:8412  InsufficientInputAmount() */\n      mload(0x40)\n      0x098fb56100000000000000000000000000000000000000000000000000000000\n      dup2\n      mstore\n      0x04\n      add\n      mload(0x40)\n      dup1\n      swap2\n      sub\n      swap1\n      revert\n        /* \"Contract Conqueror/swaptoken/swap.sol\":8355:8412  if (actualAmountIn == 0) revert InsufficientInputAmount() */\n    tag_78:\n        /* \"Contract Conqueror/swaptoken/swap.sol\":8508:8562  _getAmountOut(actualAmountIn, _reserveIn, _reserveOut) */\n      tag_79\n        /* \"Contract Conqueror/swaptoken/swap.sol\":8522:8536  actualAmountIn */\n      dup2\n        /* \"Contract Conqueror/swaptoken/swap.sol\":8538:8548  _reserveIn */\n      dup7\n        /* \"Contract Conqueror/swaptoken/swap.sol\":8550:8561  _reserveOut */\n      dup7\n        /* \"Contract Conqueror/swaptoken/swap.sol\":8508:8521  _getAmountOut */\n      tag_80\n        /* \"Contract Conqueror/swaptoken/swap.sol\":8508:8562  _getAmountOut(actualAmountIn, _reserveIn, _reserveOut) */\n      jump\t// in\n    tag_79:\n        /* \"Contract Conqueror/swaptoken/swap.sol\":8496:8562  amountOut = _getAmountOut(actualAmountIn, _reserveIn, _reserveOut) */\n      swap6\n      pop\n        /* \"Contract Conqueror/swaptoken/swap.sol\":8594:8606  minAmountOut */\n      dup7\n        /* \"Contract Conqueror/swaptoken/swap.sol\":8581:8590  amountOut */\n      dup7\n        /* \"Contract Conqueror/swaptoken/swap.sol\":8581:8606  amountOut >= minAmountOut */\n      lt\n      iszero\n        /* \"Contract Conqueror/swaptoken/swap.sol\":8573:8645  require(amountOut >= minAmountOut, \"Slippage: amountOut < minAmountOut\") */\n      tag_81\n      jumpi\n      mload(0x40)\n      0x08c379a000000000000000000000000000000000000000000000000000000000\n      dup2\n      mstore\n      0x04\n      add\n      tag_82\n      swap1\n      tag_83\n      jump\t// in\n    tag_82:\n      mload(0x40)\n      dup1\n      swap2\n      sub\n      swap1\n      revert\n    tag_81:\n        /* \"Contract Conqueror/swaptoken/swap.sol\":8676:8677  0 */\n      0x00\n        /* \"Contract Conqueror/swaptoken/swap.sol\":8664:8673  amountOut */\n      dup7\n        /* \"Contract Conqueror/swaptoken/swap.sol\":8664:8677  amountOut > 0 */\n      gt\n        /* \"Contract Conqueror/swaptoken/swap.sol\":8656:8693  require(amountOut > 0, \"Zero output\") */\n      tag_84\n      jumpi\n      mload(0x40)\n      0x08c379a000000000000000000000000000000000000000000000000000000000\n      dup2\n      mstore\n      0x04\n      add\n      tag_85\n      swap1\n      tag_86\n      jump\t// in\n    tag_85:\n      mload(0x40)\n      dup1\n      swap2\n      sub\n      swap1\n      revert\n    tag_84:\n        /* \"Contract Conqueror/swaptoken/swap.sol\":8735:8788  _safeTransfer(IERC20(toToken), msg.sender, amountOut) */\n      tag_87\n        /* \"Contract Conqueror/swaptoken/swap.sol\":8756:8763  toToken */\n      dup10\n        /* \"Contract Conqueror/swaptoken/swap.sol\":8766:8776  msg.sender */\n      caller\n        /* \"Contract Conqueror/swaptoken/swap.sol\":8778:8787  amountOut */\n      dup9\n        /* \"Contract Conqueror/swaptoken/swap.sol\":8735:8748  _safeTransfer */\n      tag_88\n        /* \"Contract Conqueror/swaptoken/swap.sol\":8735:8788  _safeTransfer(IERC20(toToken), msg.sender, amountOut) */\n      jump\t// in\n    tag_87:\n        /* \"Contract Conqueror/swaptoken/swap.sol\":8801:8818  _updateReserves() */\n      tag_89\n        /* \"Contract Conqueror/swaptoken/swap.sol\":8801:8816  _updateReserves */\n      tag_90\n        /* \"Contract Conqueror/swaptoken/swap.sol\":8801:8818  _updateReserves() */\n      jump\t// in\n    tag_89:\n        /* \"Contract Conqueror/swaptoken/swap.sol\":8865:8872  toToken */\n      dup9\n        /* \"Contract Conqueror/swaptoken/swap.sol\":8834:8900  Swapped(msg.sender, fromToken, toToken, actualAmountIn, amountOut) */\n      0xffffffffffffffffffffffffffffffffffffffff\n      and\n        /* \"Contract Conqueror/swaptoken/swap.sol\":8854:8863  fromToken */\n      dup11\n        /* \"Contract Conqueror/swaptoken/swap.sol\":8834:8900  Swapped(msg.sender, fromToken, toToken, actualAmountIn, amountOut) */\n      0xffffffffffffffffffffffffffffffffffffffff\n      and\n        /* \"Contract Conqueror/swaptoken/swap.sol\":8842:8852  msg.sender */\n      caller\n        /* \"Contract Conqueror/swaptoken/swap.sol\":8834:8900  Swapped(msg.sender, fromToken, toToken, actualAmountIn, amountOut) */\n      0xffffffffffffffffffffffffffffffffffffffff\n      and\n      0x6782190c91d4a7e8ad2a867deed6ec0a970cab8ff137ae2bd4abd92b3810f4d3\n        /* \"Contract Conqueror/swaptoken/swap.sol\":8874:8888  actualAmountIn */\n      dup5\n        /* \"Contract Conqueror/swaptoken/swap.sol\":8890:8899  amountOut */\n      dup11\n        /* \"Contract Conqueror/swaptoken/swap.sol\":8834:8900  Swapped(msg.sender, fromToken, toToken, actualAmountIn, amountOut) */\n      mload(0x40)\n      tag_91\n      swap3\n      swap2\n      swap1\n      tag_34\n      jump\t// in\n    tag_91:\n      mload(0x40)\n      dup1\n      swap2\n      sub\n      swap1\n      log4\n        /* \"Contract Conqueror/swaptoken/swap.sol\":7547:8908  {... */\n      pop\n      pop\n      pop\n      pop\n      pop\n        /* \"Contract Conqueror/swaptoken/swap.sol\":4737:4738  1 */\n      0x01\n        /* \"Contract Conqueror/swaptoken/swap.sol\":4728:4734  locked */\n      0x03\n      0x00\n        /* \"Contract Conqueror/swaptoken/swap.sol\":4728:4738  locked = 1 */\n      0x0100\n      exp\n      dup2\n      sload\n      dup2\n      0xff\n      mul\n      not\n      and\n      swap1\n      dup4\n      0xff\n      and\n      mul\n      or\n      swap1\n      sstore\n      pop\n        /* \"Contract Conqueror/swaptoken/swap.sol\":7409:8908  function swapTokens(address fromToken, address toToken, uint256 amountIn, uint256 minAmountOut) external lock returns (uint256 amountOut) {... */\n      swap5\n      swap4\n      pop\n      pop\n      pop\n      pop\n      jump\t// out\n        /* \"Contract Conqueror/swaptoken/swap.sol\":6258:7065  function removeLiquidity(uint256 share) external lock returns (uint256 amount0, uint256 amount1) {... */\n    tag_32:\n        /* \"Contract Conqueror/swaptoken/swap.sol\":6321:6336  uint256 amount0 */\n      0x00\n        /* \"Contract Conqueror/swaptoken/swap.sol\":6338:6353  uint256 amount1 */\n      0x00\n        /* \"Contract Conqueror/swaptoken/swap.sol\":4669:4670  1 */\n      0x01\n        /* \"Contract Conqueror/swaptoken/swap.sol\":4659:4665  locked */\n      0x03\n      0x00\n      swap1\n      sload\n      swap1\n      0x0100\n      exp\n      swap1\n      div\n      0xff\n      and\n        /* \"Contract Conqueror/swaptoken/swap.sol\":4659:4670  locked == 1 */\n      0xff\n      and\n      eq\n        /* \"Contract Conqueror/swaptoken/swap.sol\":4651:4684  require(locked == 1, \"Reentrant\") */\n      tag_93\n      jumpi\n      mload(0x40)\n      0x08c379a000000000000000000000000000000000000000000000000000000000\n      dup2\n      mstore\n      0x04\n      add\n      tag_94\n      swap1\n      tag_52\n      jump\t// in\n    tag_94:\n      mload(0x40)\n      dup1\n      swap2\n      sub\n      swap1\n      revert\n    tag_93:\n        /* \"Contract Conqueror/swaptoken/swap.sol\":4704:4705  2 */\n      0x02\n        /* \"Contract Conqueror/swaptoken/swap.sol\":4695:4701  locked */\n      0x03\n      0x00\n        /* \"Contract Conqueror/swaptoken/swap.sol\":4695:4705  locked = 2 */\n      0x0100\n      exp\n      dup2\n      sload\n      dup2\n      0xff\n      mul\n      not\n      and\n      swap1\n      dup4\n      0xff\n      and\n      mul\n      or\n      swap1\n      sstore\n      pop\n        /* \"Contract Conqueror/swaptoken/swap.sol\":6366:6383  uint256 userShare */\n      0x00\n        /* \"Contract Conqueror/swaptoken/swap.sol\":6386:6395  liquidity */\n      0x01\n        /* \"Contract Conqueror/swaptoken/swap.sol\":6386:6407  liquidity[msg.sender] */\n      0x00\n        /* \"Contract Conqueror/swaptoken/swap.sol\":6396:6406  msg.sender */\n      caller\n        /* \"Contract Conqueror/swaptoken/swap.sol\":6386:6407  liquidity[msg.sender] */\n      0xffffffffffffffffffffffffffffffffffffffff\n      and\n      0xffffffffffffffffffffffffffffffffffffffff\n      and\n      dup2\n      mstore\n      0x20\n      add\n      swap1\n      dup2\n      mstore\n      0x20\n      add\n      0x00\n      keccak256\n      sload\n        /* \"Contract Conqueror/swaptoken/swap.sol\":6366:6407  uint256 userShare = liquidity[msg.sender] */\n      swap1\n      pop\n        /* \"Contract Conqueror/swaptoken/swap.sol\":6434:6435  0 */\n      0x00\n        /* \"Contract Conqueror/swaptoken/swap.sol\":6426:6431  share */\n      dup5\n        /* \"Contract Conqueror/swaptoken/swap.sol\":6426:6435  share > 0 */\n      gt\n        /* \"Contract Conqueror/swaptoken/swap.sol\":6426:6457  share > 0 && userShare >= share */\n      dup1\n      iszero\n      tag_96\n      jumpi\n      pop\n        /* \"Contract Conqueror/swaptoken/swap.sol\":6452:6457  share */\n      dup4\n        /* \"Contract Conqueror/swaptoken/swap.sol\":6439:6448  userShare */\n      dup2\n        /* \"Contract Conqueror/swaptoken/swap.sol\":6439:6457  userShare >= share */\n      lt\n      iszero\n        /* \"Contract Conqueror/swaptoken/swap.sol\":6426:6457  share > 0 && userShare >= share */\n    tag_96:\n        /* \"Contract Conqueror/swaptoken/swap.sol\":6418:6475  require(share > 0 && userShare >= share, \"Invalid share\") */\n      tag_97\n      jumpi\n      mload(0x40)\n      0x08c379a000000000000000000000000000000000000000000000000000000000\n      dup2\n      mstore\n      0x04\n      add\n      tag_98\n      swap1\n      tag_99\n      jump\t// in\n    tag_98:\n      mload(0x40)\n      dup1\n      swap2\n      sub\n      swap1\n      revert\n    tag_97:\n        /* \"Contract Conqueror/swaptoken/swap.sol\":6511:6512  0 */\n      0x00\n        /* \"Contract Conqueror/swaptoken/swap.sol\":6494:6508  totalLiquidity */\n      sload(0x02)\n        /* \"Contract Conqueror/swaptoken/swap.sol\":6494:6512  totalLiquidity > 0 */\n      gt\n        /* \"Contract Conqueror/swaptoken/swap.sol\":6486:6529  require(totalLiquidity > 0, \"No liquidity\") */\n      tag_100\n      jumpi\n      mload(0x40)\n      0x08c379a000000000000000000000000000000000000000000000000000000000\n      dup2\n      mstore\n      0x04\n      add\n      tag_101\n      swap1\n      tag_102\n      jump\t// in\n    tag_101:\n      mload(0x40)\n      dup1\n      swap2\n      sub\n      swap1\n      revert\n    tag_100:\n        /* \"Contract Conqueror/swaptoken/swap.sol\":6543:6560  uint256 _reserve0 */\n      0x00\n        /* \"Contract Conqueror/swaptoken/swap.sol\":6562:6579  uint256 _reserve1 */\n      0x00\n        /* \"Contract Conqueror/swaptoken/swap.sol\":6583:6597  _getReserves() */\n      tag_103\n        /* \"Contract Conqueror/swaptoken/swap.sol\":6583:6595  _getReserves */\n      tag_104\n        /* \"Contract Conqueror/swaptoken/swap.sol\":6583:6597  _getReserves() */\n      jump\t// in\n    tag_103:\n        /* \"Contract Conqueror/swaptoken/swap.sol\":6542:6597  (uint256 _reserve0, uint256 _reserve1) = _getReserves() */\n      swap2\n      pop\n      swap2\n      pop\n        /* \"Contract Conqueror/swaptoken/swap.sol\":6642:6656  totalLiquidity */\n      sload(0x02)\n        /* \"Contract Conqueror/swaptoken/swap.sol\":6629:6638  _reserve0 */\n      dup3\n        /* \"Contract Conqueror/swaptoken/swap.sol\":6621:6626  share */\n      dup8\n        /* \"Contract Conqueror/swaptoken/swap.sol\":6621:6638  share * _reserve0 */\n      tag_105\n      swap2\n      swap1\n      tag_106\n      jump\t// in\n    tag_105:\n        /* \"Contract Conqueror/swaptoken/swap.sol\":6620:6656  (share * _reserve0) / totalLiquidity */\n      tag_107\n      swap2\n      swap1\n      tag_108\n      jump\t// in\n    tag_107:\n        /* \"Contract Conqueror/swaptoken/swap.sol\":6610:6656  amount0 = (share * _reserve0) / totalLiquidity */\n      swap5\n      pop\n        /* \"Contract Conqueror/swaptoken/swap.sol\":6699:6713  totalLiquidity */\n      sload(0x02)\n        /* \"Contract Conqueror/swaptoken/swap.sol\":6686:6695  _reserve1 */\n      dup2\n        /* \"Contract Conqueror/swaptoken/swap.sol\":6678:6683  share */\n      dup8\n        /* \"Contract Conqueror/swaptoken/swap.sol\":6678:6695  share * _reserve1 */\n      tag_109\n      swap2\n      swap1\n      tag_106\n      jump\t// in\n    tag_109:\n        /* \"Contract Conqueror/swaptoken/swap.sol\":6677:6713  (share * _reserve1) / totalLiquidity */\n      tag_110\n      swap2\n      swap1\n      tag_108\n      jump\t// in\n    tag_110:\n        /* \"Contract Conqueror/swaptoken/swap.sol\":6667:6713  amount1 = (share * _reserve1) / totalLiquidity */\n      swap4\n      pop\n        /* \"Contract Conqueror/swaptoken/swap.sol\":6762:6767  share */\n      dup6\n        /* \"Contract Conqueror/swaptoken/swap.sol\":6750:6759  userShare */\n      dup4\n        /* \"Contract Conqueror/swaptoken/swap.sol\":6750:6767  userShare - share */\n      tag_111\n      swap2\n      swap1\n      tag_77\n      jump\t// in\n    tag_111:\n        /* \"Contract Conqueror/swaptoken/swap.sol\":6726:6735  liquidity */\n      0x01\n        /* \"Contract Conqueror/swaptoken/swap.sol\":6726:6747  liquidity[msg.sender] */\n      0x00\n        /* \"Contract Conqueror/swaptoken/swap.sol\":6736:6746  msg.sender */\n      caller\n        /* \"Contract Conqueror/swaptoken/swap.sol\":6726:6747  liquidity[msg.sender] */\n      0xffffffffffffffffffffffffffffffffffffffff\n      and\n      0xffffffffffffffffffffffffffffffffffffffff\n      and\n      dup2\n      mstore\n      0x20\n      add\n      swap1\n      dup2\n      mstore\n      0x20\n      add\n      0x00\n      keccak256\n        /* \"Contract Conqueror/swaptoken/swap.sol\":6726:6767  liquidity[msg.sender] = userShare - share */\n      dup2\n      swap1\n      sstore\n      pop\n        /* \"Contract Conqueror/swaptoken/swap.sol\":6796:6801  share */\n      dup6\n        /* \"Contract Conqueror/swaptoken/swap.sol\":6778:6792  totalLiquidity */\n      0x02\n      0x00\n        /* \"Contract Conqueror/swaptoken/swap.sol\":6778:6801  totalLiquidity -= share */\n      dup3\n      dup3\n      sload\n      tag_112\n      swap2\n      swap1\n      tag_77\n      jump\t// in\n    tag_112:\n      swap3\n      pop\n      pop\n      dup2\n      swap1\n      sstore\n      pop\n        /* \"Contract Conqueror/swaptoken/swap.sol\":6847:6897  _safeTransfer(IERC20(token0), msg.sender, amount0) */\n      tag_113\n        /* \"Contract Conqueror/swaptoken/swap.sol\":6868:6874  token0 */\n      immutable(\"0x864b8fe99165e6c6448b5e7b202f0e5c58b63324a8b1fc889fb4fd715747dbee\")\n        /* \"Contract Conqueror/swaptoken/swap.sol\":6877:6887  msg.sender */\n      caller\n        /* \"Contract Conqueror/swaptoken/swap.sol\":6889:6896  amount0 */\n      dup8\n        /* \"Contract Conqueror/swaptoken/swap.sol\":6847:6860  _safeTransfer */\n      tag_88\n        /* \"Contract Conqueror/swaptoken/swap.sol\":6847:6897  _safeTransfer(IERC20(token0), msg.sender, amount0) */\n      jump\t// in\n    tag_113:\n        /* \"Contract Conqueror/swaptoken/swap.sol\":6908:6958  _safeTransfer(IERC20(token1), msg.sender, amount1) */\n      tag_114\n        /* \"Contract Conqueror/swaptoken/swap.sol\":6929:6935  token1 */\n      immutable(\"0xf960fbee3456271c1b4174e838993e7ae4b98346fb15a5c1f1bc2150d882d97e\")\n        /* \"Contract Conqueror/swaptoken/swap.sol\":6938:6948  msg.sender */\n      caller\n        /* \"Contract Conqueror/swaptoken/swap.sol\":6950:6957  amount1 */\n      dup7\n        /* \"Contract Conqueror/swaptoken/swap.sol\":6908:6921  _safeTransfer */\n      tag_88\n        /* \"Contract Conqueror/swaptoken/swap.sol\":6908:6958  _safeTransfer(IERC20(token1), msg.sender, amount1) */\n      jump\t// in\n    tag_114:\n        /* \"Contract Conqueror/swaptoken/swap.sol\":6971:6988  _updateReserves() */\n      tag_115\n        /* \"Contract Conqueror/swaptoken/swap.sol\":6971:6986  _updateReserves */\n      tag_90\n        /* \"Contract Conqueror/swaptoken/swap.sol\":6971:6988  _updateReserves() */\n      jump\t// in\n    tag_115:\n        /* \"Contract Conqueror/swaptoken/swap.sol\":7021:7031  msg.sender */\n      caller\n        /* \"Contract Conqueror/swaptoken/swap.sol\":7004:7057  LiquidityRemoved(msg.sender, amount0, amount1, share) */\n      0xffffffffffffffffffffffffffffffffffffffff\n      and\n      0x1dc8bb69df2b8e91fbdcbfcf93d951b3f0000f085a95fe3f7946d6161439245d\n        /* \"Contract Conqueror/swaptoken/swap.sol\":7033:7040  amount0 */\n      dup7\n        /* \"Contract Conqueror/swaptoken/swap.sol\":7042:7049  amount1 */\n      dup7\n        /* \"Contract Conqueror/swaptoken/swap.sol\":7051:7056  share */\n      dup10\n        /* \"Contract Conqueror/swaptoken/swap.sol\":7004:7057  LiquidityRemoved(msg.sender, amount0, amount1, share) */\n      mload(0x40)\n      tag_116\n      swap4\n      swap3\n      swap2\n      swap1\n      tag_117\n      jump\t// in\n    tag_116:\n      mload(0x40)\n      dup1\n      swap2\n      sub\n      swap1\n      log2\n        /* \"Contract Conqueror/swaptoken/swap.sol\":6355:7065  {... */\n      pop\n      pop\n      pop\n        /* \"Contract Conqueror/swaptoken/swap.sol\":4737:4738  1 */\n      0x01\n        /* \"Contract Conqueror/swaptoken/swap.sol\":4728:4734  locked */\n      0x03\n      0x00\n        /* \"Contract Conqueror/swaptoken/swap.sol\":4728:4738  locked = 1 */\n      0x0100\n      exp\n      dup2\n      sload\n      dup2\n      0xff\n      mul\n      not\n      and\n      swap1\n      dup4\n      0xff\n      and\n      mul\n      or\n      swap1\n      sstore\n      pop\n        /* \"Contract Conqueror/swaptoken/swap.sol\":6258:7065  function removeLiquidity(uint256 share) external lock returns (uint256 amount0, uint256 amount1) {... */\n      swap2\n      pop\n      swap2\n      jump\t// out\n        /* \"Contract Conqueror/swaptoken/swap.sol\":5011:6193  function addLiquidity(uint256 amount0, uint256 amount1) external lock returns (uint256 minted) {... */\n    tag_38:\n        /* \"Contract Conqueror/swaptoken/swap.sol\":5090:5104  uint256 minted */\n      0x00\n        /* \"Contract Conqueror/swaptoken/swap.sol\":4669:4670  1 */\n      0x01\n        /* \"Contract Conqueror/swaptoken/swap.sol\":4659:4665  locked */\n      0x03\n      0x00\n      swap1\n      sload\n      swap1\n      0x0100\n      exp\n      swap1\n      div\n      0xff\n      and\n        /* \"Contract Conqueror/swaptoken/swap.sol\":4659:4670  locked == 1 */\n      0xff\n      and\n      eq\n        /* \"Contract Conqueror/swaptoken/swap.sol\":4651:4684  require(locked == 1, \"Reentrant\") */\n      tag_119\n      jumpi\n      mload(0x40)\n      0x08c379a000000000000000000000000000000000000000000000000000000000\n      dup2\n      mstore\n      0x04\n      add\n      tag_120\n      swap1\n      tag_52\n      jump\t// in\n    tag_120:\n      mload(0x40)\n      dup1\n      swap2\n      sub\n      swap1\n      revert\n    tag_119:\n        /* \"Contract Conqueror/swaptoken/swap.sol\":4704:4705  2 */\n      0x02\n        /* \"Contract Conqueror/swaptoken/swap.sol\":4695:4701  locked */\n      0x03\n      0x00\n        /* \"Contract Conqueror/swaptoken/swap.sol\":4695:4705  locked = 2 */\n      0x0100\n      exp\n      dup2\n      sload\n      dup2\n      0xff\n      mul\n      not\n      and\n      swap1\n      dup4\n      0xff\n      and\n      mul\n      or\n      swap1\n      sstore\n      pop\n        /* \"Contract Conqueror/swaptoken/swap.sol\":5135:5136  0 */\n      0x00\n        /* \"Contract Conqueror/swaptoken/swap.sol\":5125:5132  amount0 */\n      dup4\n        /* \"Contract Conqueror/swaptoken/swap.sol\":5125:5136  amount0 > 0 */\n      gt\n        /* \"Contract Conqueror/swaptoken/swap.sol\":5125:5151  amount0 > 0 && amount1 > 0 */\n      dup1\n      iszero\n      tag_122\n      jumpi\n      pop\n        /* \"Contract Conqueror/swaptoken/swap.sol\":5150:5151  0 */\n      0x00\n        /* \"Contract Conqueror/swaptoken/swap.sol\":5140:5147  amount1 */\n      dup3\n        /* \"Contract Conqueror/swaptoken/swap.sol\":5140:5151  amount1 > 0 */\n      gt\n        /* \"Contract Conqueror/swaptoken/swap.sol\":5125:5151  amount0 > 0 && amount1 > 0 */\n    tag_122:\n        /* \"Contract Conqueror/swaptoken/swap.sol\":5117:5168  require(amount0 > 0 && amount1 > 0, \"Zero amounts\") */\n      tag_123\n      jumpi\n      mload(0x40)\n      0x08c379a000000000000000000000000000000000000000000000000000000000\n      dup2\n      mstore\n      0x04\n      add\n      tag_124\n      swap1\n      tag_125\n      jump\t// in\n    tag_124:\n      mload(0x40)\n      dup1\n      swap2\n      sub\n      swap1\n      revert\n    tag_123:\n        /* \"Contract Conqueror/swaptoken/swap.sol\":5205:5274  _safeTransferFrom(IERC20(token0), msg.sender, address(this), amount0) */\n      tag_126\n        /* \"Contract Conqueror/swaptoken/swap.sol\":5230:5236  token0 */\n      immutable(\"0x864b8fe99165e6c6448b5e7b202f0e5c58b63324a8b1fc889fb4fd715747dbee\")\n        /* \"Contract Conqueror/swaptoken/swap.sol\":5239:5249  msg.sender */\n      caller\n        /* \"Contract Conqueror/swaptoken/swap.sol\":5259:5263  this */\n      address\n        /* \"Contract Conqueror/swaptoken/swap.sol\":5266:5273  amount0 */\n      dup7\n        /* \"Contract Conqueror/swaptoken/swap.sol\":5205:5222  _safeTransferFrom */\n      tag_71\n        /* \"Contract Conqueror/swaptoken/swap.sol\":5205:5274  _safeTransferFrom(IERC20(token0), msg.sender, address(this), amount0) */\n      jump\t// in\n    tag_126:\n        /* \"Contract Conqueror/swaptoken/swap.sol\":5285:5354  _safeTransferFrom(IERC20(token1), msg.sender, address(this), amount1) */\n      tag_127\n        /* \"Contract Conqueror/swaptoken/swap.sol\":5310:5316  token1 */\n      immutable(\"0xf960fbee3456271c1b4174e838993e7ae4b98346fb15a5c1f1bc2150d882d97e\")\n        /* \"Contract Conqueror/swaptoken/swap.sol\":5319:5329  msg.sender */\n      caller\n        /* \"Contract Conqueror/swaptoken/swap.sol\":5339:5343  this */\n      address\n        /* \"Contract Conqueror/swaptoken/swap.sol\":5346:5353  amount1 */\n      dup6\n        /* \"Contract Conqueror/swaptoken/swap.sol\":5285:5302  _safeTransferFrom */\n      tag_71\n        /* \"Contract Conqueror/swaptoken/swap.sol\":5285:5354  _safeTransferFrom(IERC20(token1), msg.sender, address(this), amount1) */\n      jump\t// in\n    tag_127:\n        /* \"Contract Conqueror/swaptoken/swap.sol\":5397:5414  uint256 _reserve0 */\n      0x00\n        /* \"Contract Conqueror/swaptoken/swap.sol\":5416:5433  uint256 _reserve1 */\n      0x00\n        /* \"Contract Conqueror/swaptoken/swap.sol\":5437:5451  _getReserves() */\n      tag_128\n        /* \"Contract Conqueror/swaptoken/swap.sol\":5437:5449  _getReserves */\n      tag_104\n        /* \"Contract Conqueror/swaptoken/swap.sol\":5437:5451  _getReserves() */\n      jump\t// in\n    tag_128:\n        /* \"Contract Conqueror/swaptoken/swap.sol\":5396:5451  (uint256 _reserve0, uint256 _reserve1) = _getReserves() */\n      swap2\n      pop\n      swap2\n      pop\n        /* \"Contract Conqueror/swaptoken/swap.sol\":5486:5487  0 */\n      0x00\n        /* \"Contract Conqueror/swaptoken/swap.sol\":5468:5482  totalLiquidity */\n      sload(0x02)\n        /* \"Contract Conqueror/swaptoken/swap.sol\":5468:5487  totalLiquidity == 0 */\n      sub\n        /* \"Contract Conqueror/swaptoken/swap.sol\":5464:6009  if (totalLiquidity == 0) {... */\n      tag_129\n      jumpi\n        /* \"Contract Conqueror/swaptoken/swap.sol\":5574:5598  _sqrt(amount0 * amount1) */\n      tag_130\n        /* \"Contract Conqueror/swaptoken/swap.sol\":5590:5597  amount1 */\n      dup5\n        /* \"Contract Conqueror/swaptoken/swap.sol\":5580:5587  amount0 */\n      dup7\n        /* \"Contract Conqueror/swaptoken/swap.sol\":5580:5597  amount0 * amount1 */\n      tag_131\n      swap2\n      swap1\n      tag_106\n      jump\t// in\n    tag_131:\n        /* \"Contract Conqueror/swaptoken/swap.sol\":5574:5579  _sqrt */\n      tag_132\n        /* \"Contract Conqueror/swaptoken/swap.sol\":5574:5598  _sqrt(amount0 * amount1) */\n      jump\t// in\n    tag_130:\n        /* \"Contract Conqueror/swaptoken/swap.sol\":5565:5598  minted = _sqrt(amount0 * amount1) */\n      swap3\n      pop\n        /* \"Contract Conqueror/swaptoken/swap.sol\":5630:5631  0 */\n      0x00\n        /* \"Contract Conqueror/swaptoken/swap.sol\":5621:5627  minted */\n      dup4\n        /* \"Contract Conqueror/swaptoken/swap.sol\":5621:5631  minted > 0 */\n      gt\n        /* \"Contract Conqueror/swaptoken/swap.sol\":5613:5665  require(minted > 0, \"Insufficient liquidity minted\") */\n      tag_133\n      jumpi\n      mload(0x40)\n      0x08c379a000000000000000000000000000000000000000000000000000000000\n      dup2\n      mstore\n      0x04\n      add\n      tag_134\n      swap1\n      tag_135\n      jump\t// in\n    tag_134:\n      mload(0x40)\n      dup1\n      swap2\n      sub\n      swap1\n      revert\n    tag_133:\n        /* \"Contract Conqueror/swaptoken/swap.sol\":5464:6009  if (totalLiquidity == 0) {... */\n      jump(tag_136)\n    tag_129:\n        /* \"Contract Conqueror/swaptoken/swap.sol\":5735:5750  uint256 minted0 */\n      0x00\n        /* \"Contract Conqueror/swaptoken/swap.sol\":5782:5791  _reserve0 */\n      dup3\n        /* \"Contract Conqueror/swaptoken/swap.sol\":5764:5778  totalLiquidity */\n      sload(0x02)\n        /* \"Contract Conqueror/swaptoken/swap.sol\":5754:5761  amount0 */\n      dup8\n        /* \"Contract Conqueror/swaptoken/swap.sol\":5754:5778  amount0 * totalLiquidity */\n      tag_137\n      swap2\n      swap1\n      tag_106\n      jump\t// in\n    tag_137:\n        /* \"Contract Conqueror/swaptoken/swap.sol\":5753:5791  (amount0 * totalLiquidity) / _reserve0 */\n      tag_138\n      swap2\n      swap1\n      tag_108\n      jump\t// in\n    tag_138:\n        /* \"Contract Conqueror/swaptoken/swap.sol\":5735:5791  uint256 minted0 = (amount0 * totalLiquidity) / _reserve0 */\n      swap1\n      pop\n        /* \"Contract Conqueror/swaptoken/swap.sol\":5806:5821  uint256 minted1 */\n      0x00\n        /* \"Contract Conqueror/swaptoken/swap.sol\":5853:5862  _reserve1 */\n      dup3\n        /* \"Contract Conqueror/swaptoken/swap.sol\":5835:5849  totalLiquidity */\n      sload(0x02)\n        /* \"Contract Conqueror/swaptoken/swap.sol\":5825:5832  amount1 */\n      dup8\n        /* \"Contract Conqueror/swaptoken/swap.sol\":5825:5849  amount1 * totalLiquidity */\n      tag_139\n      swap2\n      swap1\n      tag_106\n      jump\t// in\n    tag_139:\n        /* \"Contract Conqueror/swaptoken/swap.sol\":5824:5862  (amount1 * totalLiquidity) / _reserve1 */\n      tag_140\n      swap2\n      swap1\n      tag_108\n      jump\t// in\n    tag_140:\n        /* \"Contract Conqueror/swaptoken/swap.sol\":5806:5862  uint256 minted1 = (amount1 * totalLiquidity) / _reserve1 */\n      swap1\n      pop\n        /* \"Contract Conqueror/swaptoken/swap.sol\":5896:5903  minted1 */\n      dup1\n        /* \"Contract Conqueror/swaptoken/swap.sol\":5886:5893  minted0 */\n      dup3\n        /* \"Contract Conqueror/swaptoken/swap.sol\":5886:5903  minted0 < minted1 */\n      lt\n        /* \"Contract Conqueror/swaptoken/swap.sol\":5886:5923  minted0 < minted1 ? minted0 : minted1 */\n      tag_141\n      jumpi\n        /* \"Contract Conqueror/swaptoken/swap.sol\":5916:5923  minted1 */\n      dup1\n        /* \"Contract Conqueror/swaptoken/swap.sol\":5886:5923  minted0 < minted1 ? minted0 : minted1 */\n      jump(tag_142)\n    tag_141:\n        /* \"Contract Conqueror/swaptoken/swap.sol\":5906:5913  minted0 */\n      dup2\n        /* \"Contract Conqueror/swaptoken/swap.sol\":5886:5923  minted0 < minted1 ? minted0 : minted1 */\n    tag_142:\n        /* \"Contract Conqueror/swaptoken/swap.sol\":5877:5923  minted = minted0 < minted1 ? minted0 : minted1 */\n      swap5\n      pop\n        /* \"Contract Conqueror/swaptoken/swap.sol\":5962:5963  0 */\n      0x00\n        /* \"Contract Conqueror/swaptoken/swap.sol\":5953:5959  minted */\n      dup6\n        /* \"Contract Conqueror/swaptoken/swap.sol\":5953:5963  minted > 0 */\n      gt\n        /* \"Contract Conqueror/swaptoken/swap.sol\":5945:5997  require(minted > 0, \"Insufficient liquidity minted\") */\n      tag_143\n      jumpi\n      mload(0x40)\n      0x08c379a000000000000000000000000000000000000000000000000000000000\n      dup2\n      mstore\n      0x04\n      add\n      tag_144\n      swap1\n      tag_135\n      jump\t// in\n    tag_144:\n      mload(0x40)\n      dup1\n      swap2\n      sub\n      swap1\n      revert\n    tag_143:\n        /* \"Contract Conqueror/swaptoken/swap.sol\":5683:6009  {... */\n      pop\n      pop\n        /* \"Contract Conqueror/swaptoken/swap.sol\":5464:6009  if (totalLiquidity == 0) {... */\n    tag_136:\n        /* \"Contract Conqueror/swaptoken/swap.sol\":6046:6052  minted */\n      dup3\n        /* \"Contract Conqueror/swaptoken/swap.sol\":6021:6030  liquidity */\n      0x01\n        /* \"Contract Conqueror/swaptoken/swap.sol\":6021:6042  liquidity[msg.sender] */\n      0x00\n        /* \"Contract Conqueror/swaptoken/swap.sol\":6031:6041  msg.sender */\n      caller\n        /* \"Contract Conqueror/swaptoken/swap.sol\":6021:6042  liquidity[msg.sender] */\n      0xffffffffffffffffffffffffffffffffffffffff\n      and\n      0xffffffffffffffffffffffffffffffffffffffff\n      and\n      dup2\n      mstore\n      0x20\n      add\n      swap1\n      dup2\n      mstore\n      0x20\n      add\n      0x00\n      keccak256\n      0x00\n        /* \"Contract Conqueror/swaptoken/swap.sol\":6021:6052  liquidity[msg.sender] += minted */\n      dup3\n      dup3\n      sload\n      tag_145\n      swap2\n      swap1\n      tag_146\n      jump\t// in\n    tag_145:\n      swap3\n      pop\n      pop\n      dup2\n      swap1\n      sstore\n      pop\n        /* \"Contract Conqueror/swaptoken/swap.sol\":6081:6087  minted */\n      dup3\n        /* \"Contract Conqueror/swaptoken/swap.sol\":6063:6077  totalLiquidity */\n      0x02\n      0x00\n        /* \"Contract Conqueror/swaptoken/swap.sol\":6063:6087  totalLiquidity += minted */\n      dup3\n      dup3\n      sload\n      tag_147\n      swap2\n      swap1\n      tag_146\n      jump\t// in\n    tag_147:\n      swap3\n      pop\n      pop\n      dup2\n      swap1\n      sstore\n      pop\n        /* \"Contract Conqueror/swaptoken/swap.sol\":6100:6117  _updateReserves() */\n      tag_148\n        /* \"Contract Conqueror/swaptoken/swap.sol\":6100:6115  _updateReserves */\n      tag_90\n        /* \"Contract Conqueror/swaptoken/swap.sol\":6100:6117  _updateReserves() */\n      jump\t// in\n    tag_148:\n        /* \"Contract Conqueror/swaptoken/swap.sol\":6148:6158  msg.sender */\n      caller\n        /* \"Contract Conqueror/swaptoken/swap.sol\":6133:6185  LiquidityAdded(msg.sender, amount0, amount1, minted) */\n      0xffffffffffffffffffffffffffffffffffffffff\n      and\n      0x64b83944e79c3ce8d4c297411de637c3e102d064677aac0c163976ebdcd6f50e\n        /* \"Contract Conqueror/swaptoken/swap.sol\":6160:6167  amount0 */\n      dup7\n        /* \"Contract Conqueror/swaptoken/swap.sol\":6169:6176  amount1 */\n      dup7\n        /* \"Contract Conqueror/swaptoken/swap.sol\":6178:6184  minted */\n      dup7\n        /* \"Contract Conqueror/swaptoken/swap.sol\":6133:6185  LiquidityAdded(msg.sender, amount0, amount1, minted) */\n      mload(0x40)\n      tag_149\n      swap4\n      swap3\n      swap2\n      swap1\n      tag_117\n      jump\t// in\n    tag_149:\n      mload(0x40)\n      dup1\n      swap2\n      sub\n      swap1\n      log2\n        /* \"Contract Conqueror/swaptoken/swap.sol\":5106:6193  {... */\n      pop\n      pop\n        /* \"Contract Conqueror/swaptoken/swap.sol\":4737:4738  1 */\n      0x01\n        /* \"Contract Conqueror/swaptoken/swap.sol\":4728:4734  locked */\n      0x03\n      0x00\n        /* \"Contract Conqueror/swaptoken/swap.sol\":4728:4738  locked = 1 */\n      0x0100\n      exp\n      dup2\n      sload\n      dup2\n      0xff\n      mul\n      not\n      and\n      swap1\n      dup4\n      0xff\n      and\n      mul\n      or\n      swap1\n      sstore\n      pop\n        /* \"Contract Conqueror/swaptoken/swap.sol\":5011:6193  function addLiquidity(uint256 amount0, uint256 amount1) external lock returns (uint256 minted) {... */\n      swap3\n      swap2\n      pop\n      pop\n      jump\t// out\n        /* \"Contract Conqueror/swaptoken/swap.sol\":3783:3827  mapping(address => uint256) public liquidity */\n    tag_43:\n      mstore(0x20, 0x01)\n      dup1\n      0x00\n      mstore\n      keccak256(0x00, 0x40)\n      0x00\n      swap2\n      pop\n      swap1\n      pop\n      sload\n      dup2\n      jump\t// out\n        /* \"Contract Conqueror/swaptoken/swap.sol\":3630:3661  address public immutable token1 */\n    tag_46:\n      immutable(\"0xf960fbee3456271c1b4174e838993e7ae4b98346fb15a5c1f1bc2150d882d97e\")\n      dup2\n      jump\t// out\n        /* \"Contract Conqueror/swaptoken/swap.sol\":9145:9261  function _isPairToken(address t) internal view returns (bool) {... */\n    tag_55:\n        /* \"Contract Conqueror/swaptoken/swap.sol\":9201:9205  bool */\n      0x00\n        /* \"Contract Conqueror/swaptoken/swap.sol\":9231:9237  token0 */\n      immutable(\"0x864b8fe99165e6c6448b5e7b202f0e5c58b63324a8b1fc889fb4fd715747dbee\")\n        /* \"Contract Conqueror/swaptoken/swap.sol\":9226:9237  t == token0 */\n      0xffffffffffffffffffffffffffffffffffffffff\n      and\n        /* \"Contract Conqueror/swaptoken/swap.sol\":9226:9227  t */\n      dup3\n        /* \"Contract Conqueror/swaptoken/swap.sol\":9226:9237  t == token0 */\n      0xffffffffffffffffffffffffffffffffffffffff\n      and\n      eq\n        /* \"Contract Conqueror/swaptoken/swap.sol\":9226:9252  t == token0 || t == token1 */\n      dup1\n      tag_151\n      jumpi\n      pop\n        /* \"Contract Conqueror/swaptoken/swap.sol\":9246:9252  token1 */\n      immutable(\"0xf960fbee3456271c1b4174e838993e7ae4b98346fb15a5c1f1bc2150d882d97e\")\n        /* \"Contract Conqueror/swaptoken/swap.sol\":9241:9252  t == token1 */\n      0xffffffffffffffffffffffffffffffffffffffff\n      and\n        /* \"Contract Conqueror/swaptoken/swap.sol\":9241:9242  t */\n      dup3\n        /* \"Contract Conqueror/swaptoken/swap.sol\":9241:9252  t == token1 */\n      0xffffffffffffffffffffffffffffffffffffffff\n      and\n      eq\n        /* \"Contract Conqueror/swaptoken/swap.sol\":9226:9252  t == token0 || t == token1 */\n    tag_151:\n        /* \"Contract Conqueror/swaptoken/swap.sol\":9218:9253  return (t == token0 || t == token1) */\n      swap1\n      pop\n        /* \"Contract Conqueror/swaptoken/swap.sol\":9145:9261  function _isPairToken(address t) internal view returns (bool) {... */\n      swap2\n      swap1\n      pop\n      jump\t// out\n        /* \"Contract Conqueror/swaptoken/swap.sol\":10269:10467  function _safeTransferFrom(IERC20 token, address from, address to, uint256 value) internal {... */\n    tag_71:\n        /* \"Contract Conqueror/swaptoken/swap.sol\":10371:10378  bool ok */\n      0x00\n        /* \"Contract Conqueror/swaptoken/swap.sol\":10381:10386  token */\n      dup5\n        /* \"Contract Conqueror/swaptoken/swap.sol\":10381:10399  token.transferFrom */\n      0xffffffffffffffffffffffffffffffffffffffff\n      and\n      0x23b872dd\n        /* \"Contract Conqueror/swaptoken/swap.sol\":10400:10404  from */\n      dup6\n        /* \"Contract Conqueror/swaptoken/swap.sol\":10406:10408  to */\n      dup6\n        /* \"Contract Conqueror/swaptoken/swap.sol\":10410:10415  value */\n      dup6\n        /* \"Contract Conqueror/swaptoken/swap.sol\":10381:10416  token.transferFrom(from, to, value) */\n      mload(0x40)\n      dup5\n      0xffffffff\n      and\n      0xe0\n      shl\n      dup2\n      mstore\n      0x04\n      add\n      tag_153\n      swap4\n      swap3\n      swap2\n      swap1\n      tag_154\n      jump\t// in\n    tag_153:\n      0x20\n      mload(0x40)\n      dup1\n      dup4\n      sub\n      dup2\n      0x00\n      dup8\n      gas\n      call\n      iszero\n      dup1\n      iszero\n      tag_156\n      jumpi\n      returndatacopy(0x00, 0x00, returndatasize)\n      revert(0x00, returndatasize)\n    tag_156:\n      pop\n      pop\n      pop\n      pop\n      mload(0x40)\n      returndatasize\n      not(0x1f)\n      0x1f\n      dup3\n      add\n      and\n      dup3\n      add\n      dup1\n      0x40\n      mstore\n      pop\n      dup2\n      add\n      swap1\n      tag_157\n      swap2\n      swap1\n      tag_158\n      jump\t// in\n    tag_157:\n        /* \"Contract Conqueror/swaptoken/swap.sol\":10371:10416  bool ok = token.transferFrom(from, to, value) */\n      swap1\n      pop\n        /* \"Contract Conqueror/swaptoken/swap.sol\":10432:10434  ok */\n      dup1\n        /* \"Contract Conqueror/swaptoken/swap.sol\":10427:10459  if (!ok) revert TransferFailed() */\n      tag_159\n      jumpi\n        /* \"Contract Conqueror/swaptoken/swap.sol\":10443:10459  TransferFailed() */\n      mload(0x40)\n      0x90b8ec1800000000000000000000000000000000000000000000000000000000\n      dup2\n      mstore\n      0x04\n      add\n      mload(0x40)\n      dup1\n      swap2\n      sub\n      swap1\n      revert\n        /* \"Contract Conqueror/swaptoken/swap.sol\":10427:10459  if (!ok) revert TransferFailed() */\n    tag_159:\n        /* \"Contract Conqueror/swaptoken/swap.sol\":10360:10467  {... */\n      pop\n        /* \"Contract Conqueror/swaptoken/swap.sol\":10269:10467  function _safeTransferFrom(IERC20 token, address from, address to, uint256 value) internal {... */\n      pop\n      pop\n      pop\n      pop\n      jump\t// out\n        /* \"Contract Conqueror/swaptoken/swap.sol\":9672:10083  function _getAmountOut(uint256 amountIn, uint256 _reserveIn, uint256 _reserveOut) internal pure returns (uint256) {... */\n    tag_80:\n        /* \"Contract Conqueror/swaptoken/swap.sol\":9777:9784  uint256 */\n      0x00\n        /* \"Contract Conqueror/swaptoken/swap.sol\":9815:9816  0 */\n      0x00\n        /* \"Contract Conqueror/swaptoken/swap.sol\":9801:9811  _reserveIn */\n      dup4\n        /* \"Contract Conqueror/swaptoken/swap.sol\":9801:9816  _reserveIn == 0 */\n      eq\n        /* \"Contract Conqueror/swaptoken/swap.sol\":9801:9836  _reserveIn == 0 || _reserveOut == 0 */\n      dup1\n      tag_161\n      jumpi\n      pop\n        /* \"Contract Conqueror/swaptoken/swap.sol\":9835:9836  0 */\n      0x00\n        /* \"Contract Conqueror/swaptoken/swap.sol\":9820:9831  _reserveOut */\n      dup3\n        /* \"Contract Conqueror/swaptoken/swap.sol\":9820:9836  _reserveOut == 0 */\n      eq\n        /* \"Contract Conqueror/swaptoken/swap.sol\":9801:9836  _reserveIn == 0 || _reserveOut == 0 */\n    tag_161:\n        /* \"Contract Conqueror/swaptoken/swap.sol\":9797:9846  if (_reserveIn == 0 || _reserveOut == 0) return 0 */\n      iszero\n      tag_162\n      jumpi\n        /* \"Contract Conqueror/swaptoken/swap.sol\":9845:9846  0 */\n      0x00\n        /* \"Contract Conqueror/swaptoken/swap.sol\":9838:9846  return 0 */\n      swap1\n      pop\n      jump(tag_160)\n        /* \"Contract Conqueror/swaptoken/swap.sol\":9797:9846  if (_reserveIn == 0 || _reserveOut == 0) return 0 */\n    tag_162:\n        /* \"Contract Conqueror/swaptoken/swap.sol\":9857:9880  uint256 amountInWithFee */\n      0x00\n        /* \"Contract Conqueror/swaptoken/swap.sol\":3987:3990  997 */\n      0x03e5\n        /* \"Contract Conqueror/swaptoken/swap.sol\":9883:9891  amountIn */\n      dup6\n        /* \"Contract Conqueror/swaptoken/swap.sol\":9883:9901  amountIn * FEE_NUM */\n      tag_163\n      swap2\n      swap1\n      tag_106\n      jump\t// in\n    tag_163:\n        /* \"Contract Conqueror/swaptoken/swap.sol\":9857:9901  uint256 amountInWithFee = amountIn * FEE_NUM */\n      swap1\n      pop\n        /* \"Contract Conqueror/swaptoken/swap.sol\":9912:9929  uint256 numerator */\n      0x00\n        /* \"Contract Conqueror/swaptoken/swap.sol\":9950:9961  _reserveOut */\n      dup4\n        /* \"Contract Conqueror/swaptoken/swap.sol\":9932:9947  amountInWithFee */\n      dup3\n        /* \"Contract Conqueror/swaptoken/swap.sol\":9932:9961  amountInWithFee * _reserveOut */\n      tag_164\n      swap2\n      swap1\n      tag_106\n      jump\t// in\n    tag_164:\n        /* \"Contract Conqueror/swaptoken/swap.sol\":9912:9961  uint256 numerator = amountInWithFee * _reserveOut */\n      swap1\n      pop\n        /* \"Contract Conqueror/swaptoken/swap.sol\":9972:9991  uint256 denominator */\n      0x00\n        /* \"Contract Conqueror/swaptoken/swap.sol\":10019:10034  amountInWithFee */\n      dup3\n        /* \"Contract Conqueror/swaptoken/swap.sol\":4032:4036  1000 */\n      0x03e8\n        /* \"Contract Conqueror/swaptoken/swap.sol\":9995:10005  _reserveIn */\n      dup8\n        /* \"Contract Conqueror/swaptoken/swap.sol\":9995:10015  _reserveIn * FEE_DEN */\n      tag_165\n      swap2\n      swap1\n      tag_106\n      jump\t// in\n    tag_165:\n        /* \"Contract Conqueror/swaptoken/swap.sol\":9994:10034  (_reserveIn * FEE_DEN) + amountInWithFee */\n      tag_166\n      swap2\n      swap1\n      tag_146\n      jump\t// in\n    tag_166:\n        /* \"Contract Conqueror/swaptoken/swap.sol\":9972:10034  uint256 denominator = (_reserveIn * FEE_DEN) + amountInWithFee */\n      swap1\n      pop\n        /* \"Contract Conqueror/swaptoken/swap.sol\":10064:10075  denominator */\n      dup1\n        /* \"Contract Conqueror/swaptoken/swap.sol\":10052:10061  numerator */\n      dup3\n        /* \"Contract Conqueror/swaptoken/swap.sol\":10052:10075  numerator / denominator */\n      tag_167\n      swap2\n      swap1\n      tag_108\n      jump\t// in\n    tag_167:\n        /* \"Contract Conqueror/swaptoken/swap.sol\":10045:10075  return numerator / denominator */\n      swap4\n      pop\n      pop\n      pop\n      pop\n        /* \"Contract Conqueror/swaptoken/swap.sol\":9672:10083  function _getAmountOut(uint256 amountIn, uint256 _reserveIn, uint256 _reserveOut) internal pure returns (uint256) {... */\n    tag_160:\n      swap4\n      swap3\n      pop\n      pop\n      pop\n      jump\t// out\n        /* \"Contract Conqueror/swaptoken/swap.sol\":10091:10261  function _safeTransfer(IERC20 token, address to, uint256 value) internal {... */\n    tag_88:\n        /* \"Contract Conqueror/swaptoken/swap.sol\":10175:10182  bool ok */\n      0x00\n        /* \"Contract Conqueror/swaptoken/swap.sol\":10185:10190  token */\n      dup4\n        /* \"Contract Conqueror/swaptoken/swap.sol\":10185:10199  token.transfer */\n      0xffffffffffffffffffffffffffffffffffffffff\n      and\n      0xa9059cbb\n        /* \"Contract Conqueror/swaptoken/swap.sol\":10200:10202  to */\n      dup5\n        /* \"Contract Conqueror/swaptoken/swap.sol\":10204:10209  value */\n      dup5\n        /* \"Contract Conqueror/swaptoken/swap.sol\":10185:10210  token.transfer(to, value) */\n      mload(0x40)\n      dup4\n      0xffffffff\n      and\n      0xe0\n      shl\n      dup2\n      mstore\n      0x04\n      add\n      tag_169\n      swap3\n      swap2\n      swap1\n      tag_170\n      jump\t// in\n    tag_169:\n      0x20\n      mload(0x40)\n      dup1\n      dup4\n      sub\n      dup2\n      0x00\n      dup8\n      gas\n      call\n      iszero\n      dup1\n      iszero\n      tag_172\n      jumpi\n      returndatacopy(0x00, 0x00, returndatasize)\n      revert(0x00, returndatasize)\n    tag_172:\n      pop\n      pop\n      pop\n      pop\n      mload(0x40)\n      returndatasize\n      not(0x1f)\n      0x1f\n      dup3\n      add\n      and\n      dup3\n      add\n      dup1\n      0x40\n      mstore\n      pop\n      dup2\n      add\n      swap1\n      tag_173\n      swap2\n      swap1\n      tag_158\n      jump\t// in\n    tag_173:\n        /* \"Contract Conqueror/swaptoken/swap.sol\":10175:10210  bool ok = token.transfer(to, value) */\n      swap1\n      pop\n        /* \"Contract Conqueror/swaptoken/swap.sol\":10226:10228  ok */\n      dup1\n        /* \"Contract Conqueror/swaptoken/swap.sol\":10221:10253  if (!ok) revert TransferFailed() */\n      tag_174\n      jumpi\n        /* \"Contract Conqueror/swaptoken/swap.sol\":10237:10253  TransferFailed() */\n      mload(0x40)\n      0x90b8ec1800000000000000000000000000000000000000000000000000000000\n      dup2\n      mstore\n      0x04\n      add\n      mload(0x40)\n      dup1\n      swap2\n      sub\n      swap1\n      revert\n        /* \"Contract Conqueror/swaptoken/swap.sol\":10221:10253  if (!ok) revert TransferFailed() */\n    tag_174:\n        /* \"Contract Conqueror/swaptoken/swap.sol\":10164:10261  {... */\n      pop\n        /* \"Contract Conqueror/swaptoken/swap.sol\":10091:10261  function _safeTransfer(IERC20 token, address to, uint256 value) internal {... */\n      pop\n      pop\n      pop\n      jump\t// out\n        /* \"Contract Conqueror/swaptoken/swap.sol\":9404:9588  function _updateReserves() internal {... */\n    tag_90:\n        /* \"Contract Conqueror/swaptoken/swap.sol\":9477:9483  token0 */\n      immutable(\"0x864b8fe99165e6c6448b5e7b202f0e5c58b63324a8b1fc889fb4fd715747dbee\")\n        /* \"Contract Conqueror/swaptoken/swap.sol\":9470:9494  IERC20(token0).balanceOf */\n      0xffffffffffffffffffffffffffffffffffffffff\n      and\n      0x70a08231\n        /* \"Contract Conqueror/swaptoken/swap.sol\":9503:9507  this */\n      address\n        /* \"Contract Conqueror/swaptoken/swap.sol\":9470:9509  IERC20(token0).balanceOf(address(this)) */\n      mload(0x40)\n      dup3\n      0xffffffff\n      and\n      0xe0\n      shl\n      dup2\n      mstore\n      0x04\n      add\n      tag_176\n      swap2\n      swap1\n      tag_19\n      jump\t// in\n    tag_176:\n      0x20\n      mload(0x40)\n      dup1\n      dup4\n      sub\n      dup2\n      dup7\n      gas\n      staticcall\n      iszero\n      dup1\n      iszero\n      tag_178\n      jumpi\n      returndatacopy(0x00, 0x00, returndatasize)\n      revert(0x00, returndatasize)\n    tag_178:\n      pop\n      pop\n      pop\n      pop\n      mload(0x40)\n      returndatasize\n      not(0x1f)\n      0x1f\n      dup3\n      add\n      and\n      dup3\n      add\n      dup1\n      0x40\n      mstore\n      pop\n      dup2\n      add\n      swap1\n      tag_179\n      swap2\n      swap1\n      tag_69\n      jump\t// in\n    tag_179:\n        /* \"Contract Conqueror/swaptoken/swap.sol\":9451:9459  reserve0 */\n      0x00\n      0x00\n        /* \"Contract Conqueror/swaptoken/swap.sol\":9451:9510  reserve0 = uint112(IERC20(token0).balanceOf(address(this))) */\n      0x0100\n      exp\n      dup2\n      sload\n      dup2\n      0xffffffffffffffffffffffffffff\n      mul\n      not\n      and\n      swap1\n      dup4\n      0xffffffffffffffffffffffffffff\n      and\n      mul\n      or\n      swap1\n      sstore\n      pop\n        /* \"Contract Conqueror/swaptoken/swap.sol\":9547:9553  token1 */\n      immutable(\"0xf960fbee3456271c1b4174e838993e7ae4b98346fb15a5c1f1bc2150d882d97e\")\n        /* \"Contract Conqueror/swaptoken/swap.sol\":9540:9564  IERC20(token1).balanceOf */\n      0xffffffffffffffffffffffffffffffffffffffff\n      and\n      0x70a08231\n        /* \"Contract Conqueror/swaptoken/swap.sol\":9573:9577  this */\n      address\n        /* \"Contract Conqueror/swaptoken/swap.sol\":9540:9579  IERC20(token1).balanceOf(address(this)) */\n      mload(0x40)\n      dup3\n      0xffffffff\n      and\n      0xe0\n      shl\n      dup2\n      mstore\n      0x04\n      add\n      tag_180\n      swap2\n      swap1\n      tag_19\n      jump\t// in\n    tag_180:\n      0x20\n      mload(0x40)\n      dup1\n      dup4\n      sub\n      dup2\n      dup7\n      gas\n      staticcall\n      iszero\n      dup1\n      iszero\n      tag_182\n      jumpi\n      returndatacopy(0x00, 0x00, returndatasize)\n      revert(0x00, returndatasize)\n    tag_182:\n      pop\n      pop\n      pop\n      pop\n      mload(0x40)\n      returndatasize\n      not(0x1f)\n      0x1f\n      dup3\n      add\n      and\n      dup3\n      add\n      dup1\n      0x40\n      mstore\n      pop\n      dup2\n      add\n      swap1\n      tag_183\n      swap2\n      swap1\n      tag_69\n      jump\t// in\n    tag_183:\n        /* \"Contract Conqueror/swaptoken/swap.sol\":9521:9529  reserve1 */\n      0x00\n      0x0e\n        /* \"Contract Conqueror/swaptoken/swap.sol\":9521:9580  reserve1 = uint112(IERC20(token1).balanceOf(address(this))) */\n      0x0100\n      exp\n      dup2\n      sload\n      dup2\n      0xffffffffffffffffffffffffffff\n      mul\n      not\n      and\n      swap1\n      dup4\n      0xffffffffffffffffffffffffffff\n      and\n      mul\n      or\n      swap1\n      sstore\n      pop\n        /* \"Contract Conqueror/swaptoken/swap.sol\":9404:9588  function _updateReserves() internal {... */\n      jump\t// out\n        /* \"Contract Conqueror/swaptoken/swap.sol\":9269:9396  function _getReserves() internal view returns (uint256 r0, uint256 r1) {... */\n    tag_104:\n        /* \"Contract Conqueror/swaptoken/swap.sol\":9316:9326  uint256 r0 */\n      0x00\n        /* \"Contract Conqueror/swaptoken/swap.sol\":9328:9338  uint256 r1 */\n      0x00\n        /* \"Contract Conqueror/swaptoken/swap.sol\":9356:9364  reserve0 */\n      0x00\n      0x00\n      swap1\n      sload\n      swap1\n      0x0100\n      exp\n      swap1\n      div\n      0xffffffffffffffffffffffffffff\n      and\n        /* \"Contract Conqueror/swaptoken/swap.sol\":9351:9364  r0 = reserve0 */\n      0xffffffffffffffffffffffffffff\n      and\n      swap2\n      pop\n        /* \"Contract Conqueror/swaptoken/swap.sol\":9380:9388  reserve1 */\n      0x00\n      0x0e\n      swap1\n      sload\n      swap1\n      0x0100\n      exp\n      swap1\n      div\n      0xffffffffffffffffffffffffffff\n      and\n        /* \"Contract Conqueror/swaptoken/swap.sol\":9375:9388  r1 = reserve1 */\n      0xffffffffffffffffffffffffffff\n      and\n      swap1\n      pop\n        /* \"Contract Conqueror/swaptoken/swap.sol\":9269:9396  function _getReserves() internal view returns (uint256 r0, uint256 r1) {... */\n      swap1\n      swap2\n      jump\t// out\n        /* \"Contract Conqueror/swaptoken/swap.sol\":10496:10809  function _sqrt(uint256 y) internal pure returns (uint256 z) {... */\n    tag_132:\n        /* \"Contract Conqueror/swaptoken/swap.sol\":10545:10554  uint256 z */\n      0x00\n        /* \"Contract Conqueror/swaptoken/swap.sol\":10575:10576  3 */\n      0x03\n        /* \"Contract Conqueror/swaptoken/swap.sol\":10571:10572  y */\n      dup3\n        /* \"Contract Conqueror/swaptoken/swap.sol\":10571:10576  y > 3 */\n      gt\n        /* \"Contract Conqueror/swaptoken/swap.sol\":10567:10802  if (y > 3) {... */\n      iszero\n      tag_186\n      jumpi\n        /* \"Contract Conqueror/swaptoken/swap.sol\":10597:10598  y */\n      dup2\n        /* \"Contract Conqueror/swaptoken/swap.sol\":10593:10598  z = y */\n      swap1\n      pop\n        /* \"Contract Conqueror/swaptoken/swap.sol\":10613:10622  uint256 x */\n      0x00\n        /* \"Contract Conqueror/swaptoken/swap.sol\":10633:10634  1 */\n      0x01\n        /* \"Contract Conqueror/swaptoken/swap.sol\":10629:10630  2 */\n      0x02\n        /* \"Contract Conqueror/swaptoken/swap.sol\":10625:10626  y */\n      dup5\n        /* \"Contract Conqueror/swaptoken/swap.sol\":10625:10630  y / 2 */\n      tag_187\n      swap2\n      swap1\n      tag_108\n      jump\t// in\n    tag_187:\n        /* \"Contract Conqueror/swaptoken/swap.sol\":10625:10634  y / 2 + 1 */\n      tag_188\n      swap2\n      swap1\n      tag_146\n      jump\t// in\n    tag_188:\n        /* \"Contract Conqueror/swaptoken/swap.sol\":10613:10634  uint256 x = y / 2 + 1 */\n      swap1\n      pop\n        /* \"Contract Conqueror/swaptoken/swap.sol\":10649:10741  while (x < z) {... */\n    tag_189:\n        /* \"Contract Conqueror/swaptoken/swap.sol\":10660:10661  z */\n      dup2\n        /* \"Contract Conqueror/swaptoken/swap.sol\":10656:10657  x */\n      dup2\n        /* \"Contract Conqueror/swaptoken/swap.sol\":10656:10661  x < z */\n      lt\n        /* \"Contract Conqueror/swaptoken/swap.sol\":10649:10741  while (x < z) {... */\n      iszero\n      tag_190\n      jumpi\n        /* \"Contract Conqueror/swaptoken/swap.sol\":10686:10687  x */\n      dup1\n        /* \"Contract Conqueror/swaptoken/swap.sol\":10682:10687  z = x */\n      swap2\n      pop\n        /* \"Contract Conqueror/swaptoken/swap.sol\":10724:10725  2 */\n      0x02\n        /* \"Contract Conqueror/swaptoken/swap.sol\":10719:10720  x */\n      dup2\n        /* \"Contract Conqueror/swaptoken/swap.sol\":10715:10716  x */\n      dup3\n        /* \"Contract Conqueror/swaptoken/swap.sol\":10711:10712  y */\n      dup6\n        /* \"Contract Conqueror/swaptoken/swap.sol\":10711:10716  y / x */\n      tag_191\n      swap2\n      swap1\n      tag_108\n      jump\t// in\n    tag_191:\n        /* \"Contract Conqueror/swaptoken/swap.sol\":10711:10720  y / x + x */\n      tag_192\n      swap2\n      swap1\n      tag_146\n      jump\t// in\n    tag_192:\n        /* \"Contract Conqueror/swaptoken/swap.sol\":10710:10725  (y / x + x) / 2 */\n      tag_193\n      swap2\n      swap1\n      tag_108\n      jump\t// in\n    tag_193:\n        /* \"Contract Conqueror/swaptoken/swap.sol\":10706:10725  x = (y / x + x) / 2 */\n      swap1\n      pop\n        /* \"Contract Conqueror/swaptoken/swap.sol\":10649:10741  while (x < z) {... */\n      jump(tag_189)\n    tag_190:\n        /* \"Contract Conqueror/swaptoken/swap.sol\":10578:10752  {... */\n      pop\n        /* \"Contract Conqueror/swaptoken/swap.sol\":10567:10802  if (y > 3) {... */\n      jump(tag_194)\n    tag_186:\n        /* \"Contract Conqueror/swaptoken/swap.sol\":10767:10768  0 */\n      0x00\n        /* \"Contract Conqueror/swaptoken/swap.sol\":10762:10763  y */\n      dup3\n        /* \"Contract Conqueror/swaptoken/swap.sol\":10762:10768  y != 0 */\n      eq\n        /* \"Contract Conqueror/swaptoken/swap.sol\":10758:10802  if (y != 0) {... */\n      tag_195\n      jumpi\n        /* \"Contract Conqueror/swaptoken/swap.sol\":10789:10790  1 */\n      0x01\n        /* \"Contract Conqueror/swaptoken/swap.sol\":10785:10790  z = 1 */\n      swap1\n      pop\n        /* \"Contract Conqueror/swaptoken/swap.sol\":10758:10802  if (y != 0) {... */\n    tag_195:\n        /* \"Contract Conqueror/swaptoken/swap.sol\":10567:10802  if (y > 3) {... */\n    tag_194:\n        /* \"Contract Conqueror/swaptoken/swap.sol\":10496:10809  function _sqrt(uint256 y) internal pure returns (uint256 z) {... */\n      swap2\n      swap1\n      pop\n      jump\t// out\n        /* \"#utility.yul\":7:121   */\n    tag_196:\n        /* \"#utility.yul\":44:51   */\n      0x00\n        /* \"#utility.yul\":84:114   */\n      0xffffffffffffffffffffffffffff\n        /* \"#utility.yul\":77:82   */\n      dup3\n        /* \"#utility.yul\":73:115   */\n      and\n        /* \"#utility.yul\":62:115   */\n      swap1\n      pop\n        /* \"#utility.yul\":7:121   */\n      swap2\n      swap1\n      pop\n      jump\t// out\n        /* \"#utility.yul\":127:245   */\n    tag_197:\n        /* \"#utility.yul\":214:238   */\n      tag_236\n        /* \"#utility.yul\":232:237   */\n      dup2\n        /* \"#utility.yul\":214:238   */\n      tag_196\n      jump\t// in\n    tag_236:\n        /* \"#utility.yul\":209:212   */\n      dup3\n        /* \"#utility.yul\":202:239   */\n      mstore\n        /* \"#utility.yul\":127:245   */\n      pop\n      pop\n      jump\t// out\n        /* \"#utility.yul\":251:583   */\n    tag_15:\n        /* \"#utility.yul\":372:376   */\n      0x00\n        /* \"#utility.yul\":410:412   */\n      0x40\n        /* \"#utility.yul\":399:408   */\n      dup3\n        /* \"#utility.yul\":395:413   */\n      add\n        /* \"#utility.yul\":387:413   */\n      swap1\n      pop\n        /* \"#utility.yul\":423:494   */\n      tag_238\n        /* \"#utility.yul\":491:492   */\n      0x00\n        /* \"#utility.yul\":480:489   */\n      dup4\n        /* \"#utility.yul\":476:493   */\n      add\n        /* \"#utility.yul\":467:473   */\n      dup6\n        /* \"#utility.yul\":423:494   */\n      tag_197\n      jump\t// in\n    tag_238:\n        /* \"#utility.yul\":504:576   */\n      tag_239\n        /* \"#utility.yul\":572:574   */\n      0x20\n        /* \"#utility.yul\":561:570   */\n      dup4\n        /* \"#utility.yul\":557:575   */\n      add\n        /* \"#utility.yul\":548:554   */\n      dup5\n        /* \"#utility.yul\":504:576   */\n      tag_197\n      jump\t// in\n    tag_239:\n        /* \"#utility.yul\":251:583   */\n      swap4\n      swap3\n      pop\n      pop\n      pop\n      jump\t// out\n        /* \"#utility.yul\":589:715   */\n    tag_198:\n        /* \"#utility.yul\":626:633   */\n      0x00\n        /* \"#utility.yul\":666:708   */\n      0xffffffffffffffffffffffffffffffffffffffff\n        /* \"#utility.yul\":659:664   */\n      dup3\n        /* \"#utility.yul\":655:709   */\n      and\n        /* \"#utility.yul\":644:709   */\n      swap1\n      pop\n        /* \"#utility.yul\":589:715   */\n      swap2\n      swap1\n      pop\n      jump\t// out\n        /* \"#utility.yul\":721:817   */\n    tag_199:\n        /* \"#utility.yul\":758:765   */\n      0x00\n        /* \"#utility.yul\":787:811   */\n      tag_242\n        /* \"#utility.yul\":805:810   */\n      dup3\n        /* \"#utility.yul\":787:811   */\n      tag_198\n      jump\t// in\n    tag_242:\n        /* \"#utility.yul\":776:811   */\n      swap1\n      pop\n        /* \"#utility.yul\":721:817   */\n      swap2\n      swap1\n      pop\n      jump\t// out\n        /* \"#utility.yul\":823:941   */\n    tag_200:\n        /* \"#utility.yul\":910:934   */\n      tag_244\n        /* \"#utility.yul\":928:933   */\n      dup2\n        /* \"#utility.yul\":910:934   */\n      tag_199\n      jump\t// in\n    tag_244:\n        /* \"#utility.yul\":905:908   */\n      dup3\n        /* \"#utility.yul\":898:935   */\n      mstore\n        /* \"#utility.yul\":823:941   */\n      pop\n      pop\n      jump\t// out\n        /* \"#utility.yul\":947:1169   */\n    tag_19:\n        /* \"#utility.yul\":1040:1044   */\n      0x00\n        /* \"#utility.yul\":1078:1080   */\n      0x20\n        /* \"#utility.yul\":1067:1076   */\n      dup3\n        /* \"#utility.yul\":1063:1081   */\n      add\n        /* \"#utility.yul\":1055:1081   */\n      swap1\n      pop\n        /* \"#utility.yul\":1091:1162   */\n      tag_246\n        /* \"#utility.yul\":1159:1160   */\n      0x00\n        /* \"#utility.yul\":1148:1157   */\n      dup4\n        /* \"#utility.yul\":1144:1161   */\n      add\n        /* \"#utility.yul\":1135:1141   */\n      dup5\n        /* \"#utility.yul\":1091:1162   */\n      tag_200\n      jump\t// in\n    tag_246:\n        /* \"#utility.yul\":947:1169   */\n      swap3\n      swap2\n      pop\n      pop\n      jump\t// out\n        /* \"#utility.yul\":1175:1252   */\n    tag_201:\n        /* \"#utility.yul\":1212:1219   */\n      0x00\n        /* \"#utility.yul\":1241:1246   */\n      dup2\n        /* \"#utility.yul\":1230:1246   */\n      swap1\n      pop\n        /* \"#utility.yul\":1175:1252   */\n      swap2\n      swap1\n      pop\n      jump\t// out\n        /* \"#utility.yul\":1258:1376   */\n    tag_202:\n        /* \"#utility.yul\":1345:1369   */\n      tag_249\n        /* \"#utility.yul\":1363:1368   */\n      dup2\n        /* \"#utility.yul\":1345:1369   */\n      tag_201\n      jump\t// in\n    tag_249:\n        /* \"#utility.yul\":1340:1343   */\n      dup3\n        /* \"#utility.yul\":1333:1370   */\n      mstore\n        /* \"#utility.yul\":1258:1376   */\n      pop\n      pop\n      jump\t// out\n        /* \"#utility.yul\":1382:1604   */\n    tag_23:\n        /* \"#utility.yul\":1475:1479   */\n      0x00\n        /* \"#utility.yul\":1513:1515   */\n      0x20\n        /* \"#utility.yul\":1502:1511   */\n      dup3\n        /* \"#utility.yul\":1498:1516   */\n      add\n        /* \"#utility.yul\":1490:1516   */\n      swap1\n      pop\n        /* \"#utility.yul\":1526:1597   */\n      tag_251\n        /* \"#utility.yul\":1594:1595   */\n      0x00\n        /* \"#utility.yul\":1583:1592   */\n      dup4\n        /* \"#utility.yul\":1579:1596   */\n      add\n        /* \"#utility.yul\":1570:1576   */\n      dup5\n        /* \"#utility.yul\":1526:1597   */\n      tag_202\n      jump\t// in\n    tag_251:\n        /* \"#utility.yul\":1382:1604   */\n      swap3\n      swap2\n      pop\n      pop\n      jump\t// out\n        /* \"#utility.yul\":1691:1808   */\n    tag_204:\n        /* \"#utility.yul\":1800:1801   */\n      0x00\n        /* \"#utility.yul\":1797:1798   */\n      0x00\n        /* \"#utility.yul\":1790:1802   */\n      revert\n        /* \"#utility.yul\":1937:2059   */\n    tag_206:\n        /* \"#utility.yul\":2010:2034   */\n      tag_256\n        /* \"#utility.yul\":2028:2033   */\n      dup2\n        /* \"#utility.yul\":2010:2034   */\n      tag_199\n      jump\t// in\n    tag_256:\n        /* \"#utility.yul\":2003:2008   */\n      dup2\n        /* \"#utility.yul\":2000:2035   */\n      eq\n        /* \"#utility.yul\":1990:2053   */\n      tag_257\n      jumpi\n        /* \"#utility.yul\":2049:2050   */\n      0x00\n        /* \"#utility.yul\":2046:2047   */\n      0x00\n        /* \"#utility.yul\":2039:2051   */\n      revert\n        /* \"#utility.yul\":1990:2053   */\n    tag_257:\n        /* \"#utility.yul\":1937:2059   */\n      pop\n      jump\t// out\n        /* \"#utility.yul\":2065:2204   */\n    tag_207:\n        /* \"#utility.yul\":2111:2116   */\n      0x00\n        /* \"#utility.yul\":2149:2155   */\n      dup2\n        /* \"#utility.yul\":2136:2156   */\n      calldataload\n        /* \"#utility.yul\":2127:2156   */\n      swap1\n      pop\n        /* \"#utility.yul\":2165:2198   */\n      tag_259\n        /* \"#utility.yul\":2192:2197   */\n      dup2\n        /* \"#utility.yul\":2165:2198   */\n      tag_206\n      jump\t// in\n    tag_259:\n        /* \"#utility.yul\":2065:2204   */\n      swap3\n      swap2\n      pop\n      pop\n      jump\t// out\n        /* \"#utility.yul\":2210:2332   */\n    tag_208:\n        /* \"#utility.yul\":2283:2307   */\n      tag_261\n        /* \"#utility.yul\":2301:2306   */\n      dup2\n        /* \"#utility.yul\":2283:2307   */\n      tag_201\n      jump\t// in\n    tag_261:\n        /* \"#utility.yul\":2276:2281   */\n      dup2\n        /* \"#utility.yul\":2273:2308   */\n      eq\n        /* \"#utility.yul\":2263:2326   */\n      tag_262\n      jumpi\n        /* \"#utility.yul\":2322:2323   */\n      0x00\n        /* \"#utility.yul\":2319:2320   */\n      0x00\n        /* \"#utility.yul\":2312:2324   */\n      revert\n        /* \"#utility.yul\":2263:2326   */\n    tag_262:\n        /* \"#utility.yul\":2210:2332   */\n      pop\n      jump\t// out\n        /* \"#utility.yul\":2338:2477   */\n    tag_209:\n        /* \"#utility.yul\":2384:2389   */\n      0x00\n        /* \"#utility.yul\":2422:2428   */\n      dup2\n        /* \"#utility.yul\":2409:2429   */\n      calldataload\n        /* \"#utility.yul\":2400:2429   */\n      swap1\n      pop\n        /* \"#utility.yul\":2438:2471   */\n      tag_264\n        /* \"#utility.yul\":2465:2470   */\n      dup2\n        /* \"#utility.yul\":2438:2471   */\n      tag_208\n      jump\t// in\n    tag_264:\n        /* \"#utility.yul\":2338:2477   */\n      swap3\n      swap2\n      pop\n      pop\n      jump\t// out\n        /* \"#utility.yul\":2483:3248   */\n    tag_26:\n        /* \"#utility.yul\":2569:2575   */\n      0x00\n        /* \"#utility.yul\":2577:2583   */\n      0x00\n        /* \"#utility.yul\":2585:2591   */\n      0x00\n        /* \"#utility.yul\":2593:2599   */\n      0x00\n        /* \"#utility.yul\":2642:2645   */\n      0x80\n        /* \"#utility.yul\":2630:2639   */\n      dup6\n        /* \"#utility.yul\":2621:2628   */\n      dup8\n        /* \"#utility.yul\":2617:2640   */\n      sub\n        /* \"#utility.yul\":2613:2646   */\n      slt\n        /* \"#utility.yul\":2610:2730   */\n      iszero\n      tag_266\n      jumpi\n        /* \"#utility.yul\":2649:2728   */\n      tag_267\n      tag_204\n      jump\t// in\n    tag_267:\n        /* \"#utility.yul\":2610:2730   */\n    tag_266:\n        /* \"#utility.yul\":2769:2770   */\n      0x00\n        /* \"#utility.yul\":2794:2847   */\n      tag_268\n        /* \"#utility.yul\":2839:2846   */\n      dup8\n        /* \"#utility.yul\":2830:2836   */\n      dup3\n        /* \"#utility.yul\":2819:2828   */\n      dup9\n        /* \"#utility.yul\":2815:2837   */\n      add\n        /* \"#utility.yul\":2794:2847   */\n      tag_207\n      jump\t// in\n    tag_268:\n        /* \"#utility.yul\":2784:2847   */\n      swap5\n      pop\n        /* \"#utility.yul\":2740:2857   */\n      pop\n        /* \"#utility.yul\":2896:2898   */\n      0x20\n        /* \"#utility.yul\":2922:2975   */\n      tag_269\n        /* \"#utility.yul\":2967:2974   */\n      dup8\n        /* \"#utility.yul\":2958:2964   */\n      dup3\n        /* \"#utility.yul\":2947:2956   */\n      dup9\n        /* \"#utility.yul\":2943:2965   */\n      add\n        /* \"#utility.yul\":2922:2975   */\n      tag_207\n      jump\t// in\n    tag_269:\n        /* \"#utility.yul\":2912:2975   */\n      swap4\n      pop\n        /* \"#utility.yul\":2867:2985   */\n      pop\n        /* \"#utility.yul\":3024:3026   */\n      0x40\n        /* \"#utility.yul\":3050:3103   */\n      tag_270\n        /* \"#utility.yul\":3095:3102   */\n      dup8\n        /* \"#utility.yul\":3086:3092   */\n      dup3\n        /* \"#utility.yul\":3075:3084   */\n      dup9\n        /* \"#utility.yul\":3071:3093   */\n      add\n        /* \"#utility.yul\":3050:3103   */\n      tag_209\n      jump\t// in\n    tag_270:\n        /* \"#utility.yul\":3040:3103   */\n      swap3\n      pop\n        /* \"#utility.yul\":2995:3113   */\n      pop\n        /* \"#utility.yul\":3152:3154   */\n      0x60\n        /* \"#utility.yul\":3178:3231   */\n      tag_271\n        /* \"#utility.yul\":3223:3230   */\n      dup8\n        /* \"#utility.yul\":3214:3220   */\n      dup3\n        /* \"#utility.yul\":3203:3212   */\n      dup9\n        /* \"#utility.yul\":3199:3221   */\n      add\n        /* \"#utility.yul\":3178:3231   */\n      tag_209\n      jump\t// in\n    tag_271:\n        /* \"#utility.yul\":3168:3231   */\n      swap2\n      pop\n        /* \"#utility.yul\":3123:3241   */\n      pop\n        /* \"#utility.yul\":2483:3248   */\n      swap3\n      swap6\n      swap2\n      swap5\n      pop\n      swap3\n      pop\n      jump\t// out\n        /* \"#utility.yul\":3254:3583   */\n    tag_31:\n        /* \"#utility.yul\":3313:3319   */\n      0x00\n        /* \"#utility.yul\":3362:3364   */\n      0x20\n        /* \"#utility.yul\":3350:3359   */\n      dup3\n        /* \"#utility.yul\":3341:3348   */\n      dup5\n        /* \"#utility.yul\":3337:3360   */\n      sub\n        /* \"#utility.yul\":3333:3365   */\n      slt\n        /* \"#utility.yul\":3330:3449   */\n      iszero\n      tag_273\n      jumpi\n        /* \"#utility.yul\":3368:3447   */\n      tag_274\n      tag_204\n      jump\t// in\n    tag_274:\n        /* \"#utility.yul\":3330:3449   */\n    tag_273:\n        /* \"#utility.yul\":3488:3489   */\n      0x00\n        /* \"#utility.yul\":3513:3566   */\n      tag_275\n        /* \"#utility.yul\":3558:3565   */\n      dup5\n        /* \"#utility.yul\":3549:3555   */\n      dup3\n        /* \"#utility.yul\":3538:3547   */\n      dup6\n        /* \"#utility.yul\":3534:3556   */\n      add\n        /* \"#utility.yul\":3513:3566   */\n      tag_209\n      jump\t// in\n    tag_275:\n        /* \"#utility.yul\":3503:3566   */\n      swap2\n      pop\n        /* \"#utility.yul\":3459:3576   */\n      pop\n        /* \"#utility.yul\":3254:3583   */\n      swap3\n      swap2\n      pop\n      pop\n      jump\t// out\n        /* \"#utility.yul\":3589:3921   */\n    tag_34:\n        /* \"#utility.yul\":3710:3714   */\n      0x00\n        /* \"#utility.yul\":3748:3750   */\n      0x40\n        /* \"#utility.yul\":3737:3746   */\n      dup3\n        /* \"#utility.yul\":3733:3751   */\n      add\n        /* \"#utility.yul\":3725:3751   */\n      swap1\n      pop\n        /* \"#utility.yul\":3761:3832   */\n      tag_277\n        /* \"#utility.yul\":3829:3830   */\n      0x00\n        /* \"#utility.yul\":3818:3827   */\n      dup4\n        /* \"#utility.yul\":3814:3831   */\n      add\n        /* \"#utility.yul\":3805:3811   */\n      dup6\n        /* \"#utility.yul\":3761:3832   */\n      tag_202\n      jump\t// in\n    tag_277:\n        /* \"#utility.yul\":3842:3914   */\n      tag_278\n        /* \"#utility.yul\":3910:3912   */\n      0x20\n        /* \"#utility.yul\":3899:3908   */\n      dup4\n        /* \"#utility.yul\":3895:3913   */\n      add\n        /* \"#utility.yul\":3886:3892   */\n      dup5\n        /* \"#utility.yul\":3842:3914   */\n      tag_202\n      jump\t// in\n    tag_278:\n        /* \"#utility.yul\":3589:3921   */\n      swap4\n      swap3\n      pop\n      pop\n      pop\n      jump\t// out\n        /* \"#utility.yul\":3927:4401   */\n    tag_37:\n        /* \"#utility.yul\":3995:4001   */\n      0x00\n        /* \"#utility.yul\":4003:4009   */\n      0x00\n        /* \"#utility.yul\":4052:4054   */\n      0x40\n        /* \"#utility.yul\":4040:4049   */\n      dup4\n        /* \"#utility.yul\":4031:4038   */\n      dup6\n        /* \"#utility.yul\":4027:4050   */\n      sub\n        /* \"#utility.yul\":4023:4055   */\n      slt\n        /* \"#utility.yul\":4020:4139   */\n      iszero\n      tag_280\n      jumpi\n        /* \"#utility.yul\":4058:4137   */\n      tag_281\n      tag_204\n      jump\t// in\n    tag_281:\n        /* \"#utility.yul\":4020:4139   */\n    tag_280:\n        /* \"#utility.yul\":4178:4179   */\n      0x00\n        /* \"#utility.yul\":4203:4256   */\n      tag_282\n        /* \"#utility.yul\":4248:4255   */\n      dup6\n        /* \"#utility.yul\":4239:4245   */\n      dup3\n        /* \"#utility.yul\":4228:4237   */\n      dup7\n        /* \"#utility.yul\":4224:4246   */\n      add\n        /* \"#utility.yul\":4203:4256   */\n      tag_209\n      jump\t// in\n    tag_282:\n        /* \"#utility.yul\":4193:4256   */\n      swap3\n      pop\n        /* \"#utility.yul\":4149:4266   */\n      pop\n        /* \"#utility.yul\":4305:4307   */\n      0x20\n        /* \"#utility.yul\":4331:4384   */\n      tag_283\n        /* \"#utility.yul\":4376:4383   */\n      dup6\n        /* \"#utility.yul\":4367:4373   */\n      dup3\n        /* \"#utility.yul\":4356:4365   */\n      dup7\n        /* \"#utility.yul\":4352:4374   */\n      add\n        /* \"#utility.yul\":4331:4384   */\n      tag_209\n      jump\t// in\n    tag_283:\n        /* \"#utility.yul\":4321:4384   */\n      swap2\n      pop\n        /* \"#utility.yul\":4276:4394   */\n      pop\n        /* \"#utility.yul\":3927:4401   */\n      swap3\n      pop\n      swap3\n      swap1\n      pop\n      jump\t// out\n        /* \"#utility.yul\":4407:4736   */\n    tag_42:\n        /* \"#utility.yul\":4466:4472   */\n      0x00\n        /* \"#utility.yul\":4515:4517   */\n      0x20\n        /* \"#utility.yul\":4503:4512   */\n      dup3\n        /* \"#utility.yul\":4494:4501   */\n      dup5\n        /* \"#utility.yul\":4490:4513   */\n      sub\n        /* \"#utility.yul\":4486:4518   */\n      slt\n        /* \"#utility.yul\":4483:4602   */\n      iszero\n      tag_285\n      jumpi\n        /* \"#utility.yul\":4521:4600   */\n      tag_286\n      tag_204\n      jump\t// in\n    tag_286:\n        /* \"#utility.yul\":4483:4602   */\n    tag_285:\n        /* \"#utility.yul\":4641:4642   */\n      0x00\n        /* \"#utility.yul\":4666:4719   */\n      tag_287\n        /* \"#utility.yul\":4711:4718   */\n      dup5\n        /* \"#utility.yul\":4702:4708   */\n      dup3\n        /* \"#utility.yul\":4691:4700   */\n      dup6\n        /* \"#utility.yul\":4687:4709   */\n      add\n        /* \"#utility.yul\":4666:4719   */\n      tag_207\n      jump\t// in\n    tag_287:\n        /* \"#utility.yul\":4656:4719   */\n      swap2\n      pop\n        /* \"#utility.yul\":4612:4729   */\n      pop\n        /* \"#utility.yul\":4407:4736   */\n      swap3\n      swap2\n      pop\n      pop\n      jump\t// out\n        /* \"#utility.yul\":4742:4911   */\n    tag_210:\n        /* \"#utility.yul\":4826:4837   */\n      0x00\n        /* \"#utility.yul\":4860:4866   */\n      dup3\n        /* \"#utility.yul\":4855:4858   */\n      dup3\n        /* \"#utility.yul\":4848:4867   */\n      mstore\n        /* \"#utility.yul\":4900:4904   */\n      0x20\n        /* \"#utility.yul\":4895:4898   */\n      dup3\n        /* \"#utility.yul\":4891:4905   */\n      add\n        /* \"#utility.yul\":4876:4905   */\n      swap1\n      pop\n        /* \"#utility.yul\":4742:4911   */\n      swap3\n      swap2\n      pop\n      pop\n      jump\t// out\n        /* \"#utility.yul\":4917:5076   */\n    tag_211:\n        /* \"#utility.yul\":5057:5068   */\n      0x5265656e7472616e740000000000000000000000000000000000000000000000\n        /* \"#utility.yul\":5053:5054   */\n      0x00\n        /* \"#utility.yul\":5045:5051   */\n      dup3\n        /* \"#utility.yul\":5041:5055   */\n      add\n        /* \"#utility.yul\":5034:5069   */\n      mstore\n        /* \"#utility.yul\":4917:5076   */\n      pop\n      jump\t// out\n        /* \"#utility.yul\":5082:5447   */\n    tag_212:\n        /* \"#utility.yul\":5224:5227   */\n      0x00\n        /* \"#utility.yul\":5245:5311   */\n      tag_291\n        /* \"#utility.yul\":5309:5310   */\n      0x09\n        /* \"#utility.yul\":5304:5307   */\n      dup4\n        /* \"#utility.yul\":5245:5311   */\n      tag_210\n      jump\t// in\n    tag_291:\n        /* \"#utility.yul\":5238:5311   */\n      swap2\n      pop\n        /* \"#utility.yul\":5320:5413   */\n      tag_292\n        /* \"#utility.yul\":5409:5412   */\n      dup3\n        /* \"#utility.yul\":5320:5413   */\n      tag_211\n      jump\t// in\n    tag_292:\n        /* \"#utility.yul\":5438:5440   */\n      0x20\n        /* \"#utility.yul\":5433:5436   */\n      dup3\n        /* \"#utility.yul\":5429:5441   */\n      add\n        /* \"#utility.yul\":5422:5441   */\n      swap1\n      pop\n        /* \"#utility.yul\":5082:5447   */\n      swap2\n      swap1\n      pop\n      jump\t// out\n        /* \"#utility.yul\":5453:5872   */\n    tag_52:\n        /* \"#utility.yul\":5619:5623   */\n      0x00\n        /* \"#utility.yul\":5657:5659   */\n      0x20\n        /* \"#utility.yul\":5646:5655   */\n      dup3\n        /* \"#utility.yul\":5642:5660   */\n      add\n        /* \"#utility.yul\":5634:5660   */\n      swap1\n      pop\n        /* \"#utility.yul\":5706:5715   */\n      dup2\n        /* \"#utility.yul\":5700:5704   */\n      dup2\n        /* \"#utility.yul\":5696:5716   */\n      sub\n        /* \"#utility.yul\":5692:5693   */\n      0x00\n        /* \"#utility.yul\":5681:5690   */\n      dup4\n        /* \"#utility.yul\":5677:5694   */\n      add\n        /* \"#utility.yul\":5670:5717   */\n      mstore\n        /* \"#utility.yul\":5734:5865   */\n      tag_294\n        /* \"#utility.yul\":5860:5864   */\n      dup2\n        /* \"#utility.yul\":5734:5865   */\n      tag_212\n      jump\t// in\n    tag_294:\n        /* \"#utility.yul\":5726:5865   */\n      swap1\n      pop\n        /* \"#utility.yul\":5453:5872   */\n      swap2\n      swap1\n      pop\n      jump\t// out\n        /* \"#utility.yul\":5878:6038   */\n    tag_213:\n        /* \"#utility.yul\":6018:6030   */\n      0x5a65726f20696e70757400000000000000000000000000000000000000000000\n        /* \"#utility.yul\":6014:6015   */\n      0x00\n        /* \"#utility.yul\":6006:6012   */\n      dup3\n        /* \"#utility.yul\":6002:6016   */\n      add\n        /* \"#utility.yul\":5995:6031   */\n      mstore\n        /* \"#utility.yul\":5878:6038   */\n      pop\n      jump\t// out\n        /* \"#utility.yul\":6044:6410   */\n    tag_214:\n        /* \"#utility.yul\":6186:6189   */\n      0x00\n        /* \"#utility.yul\":6207:6274   */\n      tag_297\n        /* \"#utility.yul\":6271:6273   */\n      0x0a\n        /* \"#utility.yul\":6266:6269   */\n      dup4\n        /* \"#utility.yul\":6207:6274   */\n      tag_210\n      jump\t// in\n    tag_297:\n        /* \"#utility.yul\":6200:6274   */\n      swap2\n      pop\n        /* \"#utility.yul\":6283:6376   */\n      tag_298\n        /* \"#utility.yul\":6372:6375   */\n      dup3\n        /* \"#utility.yul\":6283:6376   */\n      tag_213\n      jump\t// in\n    tag_298:\n        /* \"#utility.yul\":6401:6403   */\n      0x20\n        /* \"#utility.yul\":6396:6399   */\n      dup3\n        /* \"#utility.yul\":6392:6404   */\n      add\n        /* \"#utility.yul\":6385:6404   */\n      swap1\n      pop\n        /* \"#utility.yul\":6044:6410   */\n      swap2\n      swap1\n      pop\n      jump\t// out\n        /* \"#utility.yul\":6416:6835   */\n    tag_62:\n        /* \"#utility.yul\":6582:6586   */\n      0x00\n        /* \"#utility.yul\":6620:6622   */\n      0x20\n        /* \"#utility.yul\":6609:6618   */\n      dup3\n        /* \"#utility.yul\":6605:6623   */\n      add\n        /* \"#utility.yul\":6597:6623   */\n      swap1\n      pop\n        /* \"#utility.yul\":6669:6678   */\n      dup2\n        /* \"#utility.yul\":6663:6667   */\n      dup2\n        /* \"#utility.yul\":6659:6679   */\n      sub\n        /* \"#utility.yul\":6655:6656   */\n      0x00\n        /* \"#utility.yul\":6644:6653   */\n      dup4\n        /* \"#utility.yul\":6640:6657   */\n      add\n        /* \"#utility.yul\":6633:6680   */\n      mstore\n        /* \"#utility.yul\":6697:6828   */\n      tag_300\n        /* \"#utility.yul\":6823:6827   */\n      dup2\n        /* \"#utility.yul\":6697:6828   */\n      tag_214\n      jump\t// in\n    tag_300:\n        /* \"#utility.yul\":6689:6828   */\n      swap1\n      pop\n        /* \"#utility.yul\":6416:6835   */\n      swap2\n      swap1\n      pop\n      jump\t// out\n        /* \"#utility.yul\":6841:6984   */\n    tag_215:\n        /* \"#utility.yul\":6898:6903   */\n      0x00\n        /* \"#utility.yul\":6929:6935   */\n      dup2\n        /* \"#utility.yul\":6923:6936   */\n      mload\n        /* \"#utility.yul\":6914:6936   */\n      swap1\n      pop\n        /* \"#utility.yul\":6945:6978   */\n      tag_302\n        /* \"#utility.yul\":6972:6977   */\n      dup2\n        /* \"#utility.yul\":6945:6978   */\n      tag_208\n      jump\t// in\n    tag_302:\n        /* \"#utility.yul\":6841:6984   */\n      swap3\n      swap2\n      pop\n      pop\n      jump\t// out\n        /* \"#utility.yul\":6990:7341   */\n    tag_69:\n        /* \"#utility.yul\":7060:7066   */\n      0x00\n        /* \"#utility.yul\":7109:7111   */\n      0x20\n        /* \"#utility.yul\":7097:7106   */\n      dup3\n        /* \"#utility.yul\":7088:7095   */\n      dup5\n        /* \"#utility.yul\":7084:7107   */\n      sub\n        /* \"#utility.yul\":7080:7112   */\n      slt\n        /* \"#utility.yul\":7077:7196   */\n      iszero\n      tag_304\n      jumpi\n        /* \"#utility.yul\":7115:7194   */\n      tag_305\n      tag_204\n      jump\t// in\n    tag_305:\n        /* \"#utility.yul\":7077:7196   */\n    tag_304:\n        /* \"#utility.yul\":7235:7236   */\n      0x00\n        /* \"#utility.yul\":7260:7324   */\n      tag_306\n        /* \"#utility.yul\":7316:7323   */\n      dup5\n        /* \"#utility.yul\":7307:7313   */\n      dup3\n        /* \"#utility.yul\":7296:7305   */\n      dup6\n        /* \"#utility.yul\":7292:7314   */\n      add\n        /* \"#utility.yul\":7260:7324   */\n      tag_215\n      jump\t// in\n    tag_306:\n        /* \"#utility.yul\":7250:7324   */\n      swap2\n      pop\n        /* \"#utility.yul\":7206:7334   */\n      pop\n        /* \"#utility.yul\":6990:7341   */\n      swap3\n      swap2\n      pop\n      pop\n      jump\t// out\n        /* \"#utility.yul\":7347:7527   */\n    tag_216:\n        /* \"#utility.yul\":7395:7472   */\n      0x4e487b7100000000000000000000000000000000000000000000000000000000\n        /* \"#utility.yul\":7392:7393   */\n      0x00\n        /* \"#utility.yul\":7385:7473   */\n      mstore\n        /* \"#utility.yul\":7492:7496   */\n      0x11\n        /* \"#utility.yul\":7489:7490   */\n      0x04\n        /* \"#utility.yul\":7482:7497   */\n      mstore\n        /* \"#utility.yul\":7516:7520   */\n      0x24\n        /* \"#utility.yul\":7513:7514   */\n      0x00\n        /* \"#utility.yul\":7506:7521   */\n      revert\n        /* \"#utility.yul\":7533:7727   */\n    tag_77:\n        /* \"#utility.yul\":7573:7577   */\n      0x00\n        /* \"#utility.yul\":7593:7613   */\n      tag_309\n        /* \"#utility.yul\":7611:7612   */\n      dup3\n        /* \"#utility.yul\":7593:7613   */\n      tag_201\n      jump\t// in\n    tag_309:\n        /* \"#utility.yul\":7588:7613   */\n      swap2\n      pop\n        /* \"#utility.yul\":7627:7647   */\n      tag_310\n        /* \"#utility.yul\":7645:7646   */\n      dup4\n        /* \"#utility.yul\":7627:7647   */\n      tag_201\n      jump\t// in\n    tag_310:\n        /* \"#utility.yul\":7622:7647   */\n      swap3\n      pop\n        /* \"#utility.yul\":7671:7672   */\n      dup3\n        /* \"#utility.yul\":7668:7669   */\n      dup3\n        /* \"#utility.yul\":7664:7673   */\n      sub\n        /* \"#utility.yul\":7656:7673   */\n      swap1\n      pop\n        /* \"#utility.yul\":7695:7696   */\n      dup2\n        /* \"#utility.yul\":7689:7693   */\n      dup2\n        /* \"#utility.yul\":7686:7697   */\n      gt\n        /* \"#utility.yul\":7683:7720   */\n      iszero\n      tag_311\n      jumpi\n        /* \"#utility.yul\":7700:7718   */\n      tag_312\n      tag_216\n      jump\t// in\n    tag_312:\n        /* \"#utility.yul\":7683:7720   */\n    tag_311:\n        /* \"#utility.yul\":7533:7727   */\n      swap3\n      swap2\n      pop\n      pop\n      jump\t// out\n        /* \"#utility.yul\":7733:7954   */\n    tag_217:\n        /* \"#utility.yul\":7873:7907   */\n      0x536c6970706167653a20616d6f756e744f7574203c206d696e416d6f756e744f\n        /* \"#utility.yul\":7869:7870   */\n      0x00\n        /* \"#utility.yul\":7861:7867   */\n      dup3\n        /* \"#utility.yul\":7857:7871   */\n      add\n        /* \"#utility.yul\":7850:7908   */\n      mstore\n        /* \"#utility.yul\":7942:7946   */\n      0x7574000000000000000000000000000000000000000000000000000000000000\n        /* \"#utility.yul\":7937:7939   */\n      0x20\n        /* \"#utility.yul\":7929:7935   */\n      dup3\n        /* \"#utility.yul\":7925:7940   */\n      add\n        /* \"#utility.yul\":7918:7947   */\n      mstore\n        /* \"#utility.yul\":7733:7954   */\n      pop\n      jump\t// out\n        /* \"#utility.yul\":7960:8326   */\n    tag_218:\n        /* \"#utility.yul\":8102:8105   */\n      0x00\n        /* \"#utility.yul\":8123:8190   */\n      tag_315\n        /* \"#utility.yul\":8187:8189   */\n      0x22\n        /* \"#utility.yul\":8182:8185   */\n      dup4\n        /* \"#utility.yul\":8123:8190   */\n      tag_210\n      jump\t// in\n    tag_315:\n        /* \"#utility.yul\":8116:8190   */\n      swap2\n      pop\n        /* \"#utility.yul\":8199:8292   */\n      tag_316\n        /* \"#utility.yul\":8288:8291   */\n      dup3\n        /* \"#utility.yul\":8199:8292   */\n      tag_217\n      jump\t// in\n    tag_316:\n        /* \"#utility.yul\":8317:8319   */\n      0x40\n        /* \"#utility.yul\":8312:8315   */\n      dup3\n        /* \"#utility.yul\":8308:8320   */\n      add\n        /* \"#utility.yul\":8301:8320   */\n      swap1\n      pop\n        /* \"#utility.yul\":7960:8326   */\n      swap2\n      swap1\n      pop\n      jump\t// out\n        /* \"#utility.yul\":8332:8751   */\n    tag_83:\n        /* \"#utility.yul\":8498:8502   */\n      0x00\n        /* \"#utility.yul\":8536:8538   */\n      0x20\n        /* \"#utility.yul\":8525:8534   */\n      dup3\n        /* \"#utility.yul\":8521:8539   */\n      add\n        /* \"#utility.yul\":8513:8539   */\n      swap1\n      pop\n        /* \"#utility.yul\":8585:8594   */\n      dup2\n        /* \"#utility.yul\":8579:8583   */\n      dup2\n        /* \"#utility.yul\":8575:8595   */\n      sub\n        /* \"#utility.yul\":8571:8572   */\n      0x00\n        /* \"#utility.yul\":8560:8569   */\n      dup4\n        /* \"#utility.yul\":8556:8573   */\n      add\n        /* \"#utility.yul\":8549:8596   */\n      mstore\n        /* \"#utility.yul\":8613:8744   */\n      tag_318\n        /* \"#utility.yul\":8739:8743   */\n      dup2\n        /* \"#utility.yul\":8613:8744   */\n      tag_218\n      jump\t// in\n    tag_318:\n        /* \"#utility.yul\":8605:8744   */\n      swap1\n      pop\n        /* \"#utility.yul\":8332:8751   */\n      swap2\n      swap1\n      pop\n      jump\t// out\n        /* \"#utility.yul\":8757:8918   */\n    tag_219:\n        /* \"#utility.yul\":8897:8910   */\n      0x5a65726f206f7574707574000000000000000000000000000000000000000000\n        /* \"#utility.yul\":8893:8894   */\n      0x00\n        /* \"#utility.yul\":8885:8891   */\n      dup3\n        /* \"#utility.yul\":8881:8895   */\n      add\n        /* \"#utility.yul\":8874:8911   */\n      mstore\n        /* \"#utility.yul\":8757:8918   */\n      pop\n      jump\t// out\n        /* \"#utility.yul\":8924:9290   */\n    tag_220:\n        /* \"#utility.yul\":9066:9069   */\n      0x00\n        /* \"#utility.yul\":9087:9154   */\n      tag_321\n        /* \"#utility.yul\":9151:9153   */\n      0x0b\n        /* \"#utility.yul\":9146:9149   */\n      dup4\n        /* \"#utility.yul\":9087:9154   */\n      tag_210\n      jump\t// in\n    tag_321:\n        /* \"#utility.yul\":9080:9154   */\n      swap2\n      pop\n        /* \"#utility.yul\":9163:9256   */\n      tag_322\n        /* \"#utility.yul\":9252:9255   */\n      dup3\n        /* \"#utility.yul\":9163:9256   */\n      tag_219\n      jump\t// in\n    tag_322:\n        /* \"#utility.yul\":9281:9283   */\n      0x20\n        /* \"#utility.yul\":9276:9279   */\n      dup3\n        /* \"#utility.yul\":9272:9284   */\n      add\n        /* \"#utility.yul\":9265:9284   */\n      swap1\n      pop\n        /* \"#utility.yul\":8924:9290   */\n      swap2\n      swap1\n      pop\n      jump\t// out\n        /* \"#utility.yul\":9296:9715   */\n    tag_86:\n        /* \"#utility.yul\":9462:9466   */\n      0x00\n        /* \"#utility.yul\":9500:9502   */\n      0x20\n        /* \"#utility.yul\":9489:9498   */\n      dup3\n        /* \"#utility.yul\":9485:9503   */\n      add\n        /* \"#utility.yul\":9477:9503   */\n      swap1\n      pop\n        /* \"#utility.yul\":9549:9558   */\n      dup2\n        /* \"#utility.yul\":9543:9547   */\n      dup2\n        /* \"#utility.yul\":9539:9559   */\n      sub\n        /* \"#utility.yul\":9535:9536   */\n      0x00\n        /* \"#utility.yul\":9524:9533   */\n      dup4\n        /* \"#utility.yul\":9520:9537   */\n      add\n        /* \"#utility.yul\":9513:9560   */\n      mstore\n        /* \"#utility.yul\":9577:9708   */\n      tag_324\n        /* \"#utility.yul\":9703:9707   */\n      dup2\n        /* \"#utility.yul\":9577:9708   */\n      tag_220\n      jump\t// in\n    tag_324:\n        /* \"#utility.yul\":9569:9708   */\n      swap1\n      pop\n        /* \"#utility.yul\":9296:9715   */\n      swap2\n      swap1\n      pop\n      jump\t// out\n        /* \"#utility.yul\":9721:9884   */\n    tag_221:\n        /* \"#utility.yul\":9861:9876   */\n      0x496e76616c696420736861726500000000000000000000000000000000000000\n        /* \"#utility.yul\":9857:9858   */\n      0x00\n        /* \"#utility.yul\":9849:9855   */\n      dup3\n        /* \"#utility.yul\":9845:9859   */\n      add\n        /* \"#utility.yul\":9838:9877   */\n      mstore\n        /* \"#utility.yul\":9721:9884   */\n      pop\n      jump\t// out\n        /* \"#utility.yul\":9890:10256   */\n    tag_222:\n        /* \"#utility.yul\":10032:10035   */\n      0x00\n        /* \"#utility.yul\":10053:10120   */\n      tag_327\n        /* \"#utility.yul\":10117:10119   */\n      0x0d\n        /* \"#utility.yul\":10112:10115   */\n      dup4\n        /* \"#utility.yul\":10053:10120   */\n      tag_210\n      jump\t// in\n    tag_327:\n        /* \"#utility.yul\":10046:10120   */\n      swap2\n      pop\n        /* \"#utility.yul\":10129:10222   */\n      tag_328\n        /* \"#utility.yul\":10218:10221   */\n      dup3\n        /* \"#utility.yul\":10129:10222   */\n      tag_221\n      jump\t// in\n    tag_328:\n        /* \"#utility.yul\":10247:10249   */\n      0x20\n        /* \"#utility.yul\":10242:10245   */\n      dup3\n        /* \"#utility.yul\":10238:10250   */\n      add\n        /* \"#utility.yul\":10231:10250   */\n      swap1\n      pop\n        /* \"#utility.yul\":9890:10256   */\n      swap2\n      swap1\n      pop\n      jump\t// out\n        /* \"#utility.yul\":10262:10681   */\n    tag_99:\n        /* \"#utility.yul\":10428:10432   */\n      0x00\n        /* \"#utility.yul\":10466:10468   */\n      0x20\n        /* \"#utility.yul\":10455:10464   */\n      dup3\n        /* \"#utility.yul\":10451:10469   */\n      add\n        /* \"#utility.yul\":10443:10469   */\n      swap1\n      pop\n        /* \"#utility.yul\":10515:10524   */\n      dup2\n        /* \"#utility.yul\":10509:10513   */\n      dup2\n        /* \"#utility.yul\":10505:10525   */\n      sub\n        /* \"#utility.yul\":10501:10502   */\n      0x00\n        /* \"#utility.yul\":10490:10499   */\n      dup4\n        /* \"#utility.yul\":10486:10503   */\n      add\n        /* \"#utility.yul\":10479:10526   */\n      mstore\n        /* \"#utility.yul\":10543:10674   */\n      tag_330\n        /* \"#utility.yul\":10669:10673   */\n      dup2\n        /* \"#utility.yul\":10543:10674   */\n      tag_222\n      jump\t// in\n    tag_330:\n        /* \"#utility.yul\":10535:10674   */\n      swap1\n      pop\n        /* \"#utility.yul\":10262:10681   */\n      swap2\n      swap1\n      pop\n      jump\t// out\n        /* \"#utility.yul\":10687:10849   */\n    tag_223:\n        /* \"#utility.yul\":10827:10841   */\n      0x4e6f206c69717569646974790000000000000000000000000000000000000000\n        /* \"#utility.yul\":10823:10824   */\n      0x00\n        /* \"#utility.yul\":10815:10821   */\n      dup3\n        /* \"#utility.yul\":10811:10825   */\n      add\n        /* \"#utility.yul\":10804:10842   */\n      mstore\n        /* \"#utility.yul\":10687:10849   */\n      pop\n      jump\t// out\n        /* \"#utility.yul\":10855:11221   */\n    tag_224:\n        /* \"#utility.yul\":10997:11000   */\n      0x00\n        /* \"#utility.yul\":11018:11085   */\n      tag_333\n        /* \"#utility.yul\":11082:11084   */\n      0x0c\n        /* \"#utility.yul\":11077:11080   */\n      dup4\n        /* \"#utility.yul\":11018:11085   */\n      tag_210\n      jump\t// in\n    tag_333:\n        /* \"#utility.yul\":11011:11085   */\n      swap2\n      pop\n        /* \"#utility.yul\":11094:11187   */\n      tag_334\n        /* \"#utility.yul\":11183:11186   */\n      dup3\n        /* \"#utility.yul\":11094:11187   */\n      tag_223\n      jump\t// in\n    tag_334:\n        /* \"#utility.yul\":11212:11214   */\n      0x20\n        /* \"#utility.yul\":11207:11210   */\n      dup3\n        /* \"#utility.yul\":11203:11215   */\n      add\n        /* \"#utility.yul\":11196:11215   */\n      swap1\n      pop\n        /* \"#utility.yul\":10855:11221   */\n      swap2\n      swap1\n      pop\n      jump\t// out\n        /* \"#utility.yul\":11227:11646   */\n    tag_102:\n        /* \"#utility.yul\":11393:11397   */\n      0x00\n        /* \"#utility.yul\":11431:11433   */\n      0x20\n        /* \"#utility.yul\":11420:11429   */\n      dup3\n        /* \"#utility.yul\":11416:11434   */\n      add\n        /* \"#utility.yul\":11408:11434   */\n      swap1\n      pop\n        /* \"#utility.yul\":11480:11489   */\n      dup2\n        /* \"#utility.yul\":11474:11478   */\n      dup2\n        /* \"#utility.yul\":11470:11490   */\n      sub\n        /* \"#utility.yul\":11466:11467   */\n      0x00\n        /* \"#utility.yul\":11455:11464   */\n      dup4\n        /* \"#utility.yul\":11451:11468   */\n      add\n        /* \"#utility.yul\":11444:11491   */\n      mstore\n        /* \"#utility.yul\":11508:11639   */\n      tag_336\n        /* \"#utility.yul\":11634:11638   */\n      dup2\n        /* \"#utility.yul\":11508:11639   */\n      tag_224\n      jump\t// in\n    tag_336:\n        /* \"#utility.yul\":11500:11639   */\n      swap1\n      pop\n        /* \"#utility.yul\":11227:11646   */\n      swap2\n      swap1\n      pop\n      jump\t// out\n        /* \"#utility.yul\":11652:12062   */\n    tag_106:\n        /* \"#utility.yul\":11692:11699   */\n      0x00\n        /* \"#utility.yul\":11715:11735   */\n      tag_338\n        /* \"#utility.yul\":11733:11734   */\n      dup3\n        /* \"#utility.yul\":11715:11735   */\n      tag_201\n      jump\t// in\n    tag_338:\n        /* \"#utility.yul\":11710:11735   */\n      swap2\n      pop\n        /* \"#utility.yul\":11749:11769   */\n      tag_339\n        /* \"#utility.yul\":11767:11768   */\n      dup4\n        /* \"#utility.yul\":11749:11769   */\n      tag_201\n      jump\t// in\n    tag_339:\n        /* \"#utility.yul\":11744:11769   */\n      swap3\n      pop\n        /* \"#utility.yul\":11804:11805   */\n      dup3\n        /* \"#utility.yul\":11801:11802   */\n      dup3\n        /* \"#utility.yul\":11797:11806   */\n      mul\n        /* \"#utility.yul\":11826:11856   */\n      tag_340\n        /* \"#utility.yul\":11844:11855   */\n      dup2\n        /* \"#utility.yul\":11826:11856   */\n      tag_201\n      jump\t// in\n    tag_340:\n        /* \"#utility.yul\":11815:11856   */\n      swap2\n      pop\n        /* \"#utility.yul\":12005:12006   */\n      dup3\n        /* \"#utility.yul\":11996:12003   */\n      dup3\n        /* \"#utility.yul\":11992:12007   */\n      div\n        /* \"#utility.yul\":11989:11990   */\n      dup5\n        /* \"#utility.yul\":11986:12008   */\n      eq\n        /* \"#utility.yul\":11966:11967   */\n      dup4\n        /* \"#utility.yul\":11959:11968   */\n      iszero\n        /* \"#utility.yul\":11939:12022   */\n      or\n        /* \"#utility.yul\":11916:12055   */\n      tag_341\n      jumpi\n        /* \"#utility.yul\":12035:12053   */\n      tag_342\n      tag_216\n      jump\t// in\n    tag_342:\n        /* \"#utility.yul\":11916:12055   */\n    tag_341:\n        /* \"#utility.yul\":11700:12062   */\n      pop\n        /* \"#utility.yul\":11652:12062   */\n      swap3\n      swap2\n      pop\n      pop\n      jump\t// out\n        /* \"#utility.yul\":12068:12248   */\n    tag_225:\n        /* \"#utility.yul\":12116:12193   */\n      0x4e487b7100000000000000000000000000000000000000000000000000000000\n        /* \"#utility.yul\":12113:12114   */\n      0x00\n        /* \"#utility.yul\":12106:12194   */\n      mstore\n        /* \"#utility.yul\":12213:12217   */\n      0x12\n        /* \"#utility.yul\":12210:12211   */\n      0x04\n        /* \"#utility.yul\":12203:12218   */\n      mstore\n        /* \"#utility.yul\":12237:12241   */\n      0x24\n        /* \"#utility.yul\":12234:12235   */\n      0x00\n        /* \"#utility.yul\":12227:12242   */\n      revert\n        /* \"#utility.yul\":12254:12439   */\n    tag_108:\n        /* \"#utility.yul\":12294:12295   */\n      0x00\n        /* \"#utility.yul\":12311:12331   */\n      tag_345\n        /* \"#utility.yul\":12329:12330   */\n      dup3\n        /* \"#utility.yul\":12311:12331   */\n      tag_201\n      jump\t// in\n    tag_345:\n        /* \"#utility.yul\":12306:12331   */\n      swap2\n      pop\n        /* \"#utility.yul\":12345:12365   */\n      tag_346\n        /* \"#utility.yul\":12363:12364   */\n      dup4\n        /* \"#utility.yul\":12345:12365   */\n      tag_201\n      jump\t// in\n    tag_346:\n        /* \"#utility.yul\":12340:12365   */\n      swap3\n      pop\n        /* \"#utility.yul\":12384:12385   */\n      dup3\n        /* \"#utility.yul\":12374:12409   */\n      tag_347\n      jumpi\n        /* \"#utility.yul\":12389:12407   */\n      tag_348\n      tag_225\n      jump\t// in\n    tag_348:\n        /* \"#utility.yul\":12374:12409   */\n    tag_347:\n        /* \"#utility.yul\":12431:12432   */\n      dup3\n        /* \"#utility.yul\":12428:12429   */\n      dup3\n        /* \"#utility.yul\":12424:12433   */\n      div\n        /* \"#utility.yul\":12419:12433   */\n      swap1\n      pop\n        /* \"#utility.yul\":12254:12439   */\n      swap3\n      swap2\n      pop\n      pop\n      jump\t// out\n        /* \"#utility.yul\":12445:12887   */\n    tag_117:\n        /* \"#utility.yul\":12594:12598   */\n      0x00\n        /* \"#utility.yul\":12632:12634   */\n      0x60\n        /* \"#utility.yul\":12621:12630   */\n      dup3\n        /* \"#utility.yul\":12617:12635   */\n      add\n        /* \"#utility.yul\":12609:12635   */\n      swap1\n      pop\n        /* \"#utility.yul\":12645:12716   */\n      tag_350\n        /* \"#utility.yul\":12713:12714   */\n      0x00\n        /* \"#utility.yul\":12702:12711   */\n      dup4\n        /* \"#utility.yul\":12698:12715   */\n      add\n        /* \"#utility.yul\":12689:12695   */\n      dup7\n        /* \"#utility.yul\":12645:12716   */\n      tag_202\n      jump\t// in\n    tag_350:\n        /* \"#utility.yul\":12726:12798   */\n      tag_351\n        /* \"#utility.yul\":12794:12796   */\n      0x20\n        /* \"#utility.yul\":12783:12792   */\n      dup4\n        /* \"#utility.yul\":12779:12797   */\n      add\n        /* \"#utility.yul\":12770:12776   */\n      dup6\n        /* \"#utility.yul\":12726:12798   */\n      tag_202\n      jump\t// in\n    tag_351:\n        /* \"#utility.yul\":12808:12880   */\n      tag_352\n        /* \"#utility.yul\":12876:12878   */\n      0x40\n        /* \"#utility.yul\":12865:12874   */\n      dup4\n        /* \"#utility.yul\":12861:12879   */\n      add\n        /* \"#utility.yul\":12852:12858   */\n      dup5\n        /* \"#utility.yul\":12808:12880   */\n      tag_202\n      jump\t// in\n    tag_352:\n        /* \"#utility.yul\":12445:12887   */\n      swap5\n      swap4\n      pop\n      pop\n      pop\n      pop\n      jump\t// out\n        /* \"#utility.yul\":12893:13055   */\n    tag_226:\n        /* \"#utility.yul\":13033:13047   */\n      0x5a65726f20616d6f756e74730000000000000000000000000000000000000000\n        /* \"#utility.yul\":13029:13030   */\n      0x00\n        /* \"#utility.yul\":13021:13027   */\n      dup3\n        /* \"#utility.yul\":13017:13031   */\n      add\n        /* \"#utility.yul\":13010:13048   */\n      mstore\n        /* \"#utility.yul\":12893:13055   */\n      pop\n      jump\t// out\n        /* \"#utility.yul\":13061:13427   */\n    tag_227:\n        /* \"#utility.yul\":13203:13206   */\n      0x00\n        /* \"#utility.yul\":13224:13291   */\n      tag_355\n        /* \"#utility.yul\":13288:13290   */\n      0x0c\n        /* \"#utility.yul\":13283:13286   */\n      dup4\n        /* \"#utility.yul\":13224:13291   */\n      tag_210\n      jump\t// in\n    tag_355:\n        /* \"#utility.yul\":13217:13291   */\n      swap2\n      pop\n        /* \"#utility.yul\":13300:13393   */\n      tag_356\n        /* \"#utility.yul\":13389:13392   */\n      dup3\n        /* \"#utility.yul\":13300:13393   */\n      tag_226\n      jump\t// in\n    tag_356:\n        /* \"#utility.yul\":13418:13420   */\n      0x20\n        /* \"#utility.yul\":13413:13416   */\n      dup3\n        /* \"#utility.yul\":13409:13421   */\n      add\n        /* \"#utility.yul\":13402:13421   */\n      swap1\n      pop\n        /* \"#utility.yul\":13061:13427   */\n      swap2\n      swap1\n      pop\n      jump\t// out\n        /* \"#utility.yul\":13433:13852   */\n    tag_125:\n        /* \"#utility.yul\":13599:13603   */\n      0x00\n        /* \"#utility.yul\":13637:13639   */\n      0x20\n        /* \"#utility.yul\":13626:13635   */\n      dup3\n        /* \"#utility.yul\":13622:13640   */\n      add\n        /* \"#utility.yul\":13614:13640   */\n      swap1\n      pop\n        /* \"#utility.yul\":13686:13695   */\n      dup2\n        /* \"#utility.yul\":13680:13684   */\n      dup2\n        /* \"#utility.yul\":13676:13696   */\n      sub\n        /* \"#utility.yul\":13672:13673   */\n      0x00\n        /* \"#utility.yul\":13661:13670   */\n      dup4\n        /* \"#utility.yul\":13657:13674   */\n      add\n        /* \"#utility.yul\":13650:13697   */\n      mstore\n        /* \"#utility.yul\":13714:13845   */\n      tag_358\n        /* \"#utility.yul\":13840:13844   */\n      dup2\n        /* \"#utility.yul\":13714:13845   */\n      tag_227\n      jump\t// in\n    tag_358:\n        /* \"#utility.yul\":13706:13845   */\n      swap1\n      pop\n        /* \"#utility.yul\":13433:13852   */\n      swap2\n      swap1\n      pop\n      jump\t// out\n        /* \"#utility.yul\":13858:14037   */\n    tag_228:\n        /* \"#utility.yul\":13998:14029   */\n      0x496e73756666696369656e74206c6971756964697479206d696e746564000000\n        /* \"#utility.yul\":13994:13995   */\n      0x00\n        /* \"#utility.yul\":13986:13992   */\n      dup3\n        /* \"#utility.yul\":13982:13996   */\n      add\n        /* \"#utility.yul\":13975:14030   */\n      mstore\n        /* \"#utility.yul\":13858:14037   */\n      pop\n      jump\t// out\n        /* \"#utility.yul\":14043:14409   */\n    tag_229:\n        /* \"#utility.yul\":14185:14188   */\n      0x00\n        /* \"#utility.yul\":14206:14273   */\n      tag_361\n        /* \"#utility.yul\":14270:14272   */\n      0x1d\n        /* \"#utility.yul\":14265:14268   */\n      dup4\n        /* \"#utility.yul\":14206:14273   */\n      tag_210\n      jump\t// in\n    tag_361:\n        /* \"#utility.yul\":14199:14273   */\n      swap2\n      pop\n        /* \"#utility.yul\":14282:14375   */\n      tag_362\n        /* \"#utility.yul\":14371:14374   */\n      dup3\n        /* \"#utility.yul\":14282:14375   */\n      tag_228\n      jump\t// in\n    tag_362:\n        /* \"#utility.yul\":14400:14402   */\n      0x20\n        /* \"#utility.yul\":14395:14398   */\n      dup3\n        /* \"#utility.yul\":14391:14403   */\n      add\n        /* \"#utility.yul\":14384:14403   */\n      swap1\n      pop\n        /* \"#utility.yul\":14043:14409   */\n      swap2\n      swap1\n      pop\n      jump\t// out\n        /* \"#utility.yul\":14415:14834   */\n    tag_135:\n        /* \"#utility.yul\":14581:14585   */\n      0x00\n        /* \"#utility.yul\":14619:14621   */\n      0x20\n        /* \"#utility.yul\":14608:14617   */\n      dup3\n        /* \"#utility.yul\":14604:14622   */\n      add\n        /* \"#utility.yul\":14596:14622   */\n      swap1\n      pop\n        /* \"#utility.yul\":14668:14677   */\n      dup2\n        /* \"#utility.yul\":14662:14666   */\n      dup2\n        /* \"#utility.yul\":14658:14678   */\n      sub\n        /* \"#utility.yul\":14654:14655   */\n      0x00\n        /* \"#utility.yul\":14643:14652   */\n      dup4\n        /* \"#utility.yul\":14639:14656   */\n      add\n        /* \"#utility.yul\":14632:14679   */\n      mstore\n        /* \"#utility.yul\":14696:14827   */\n      tag_364\n        /* \"#utility.yul\":14822:14826   */\n      dup2\n        /* \"#utility.yul\":14696:14827   */\n      tag_229\n      jump\t// in\n    tag_364:\n        /* \"#utility.yul\":14688:14827   */\n      swap1\n      pop\n        /* \"#utility.yul\":14415:14834   */\n      swap2\n      swap1\n      pop\n      jump\t// out\n        /* \"#utility.yul\":14840:15031   */\n    tag_146:\n        /* \"#utility.yul\":14880:14883   */\n      0x00\n        /* \"#utility.yul\":14899:14919   */\n      tag_366\n        /* \"#utility.yul\":14917:14918   */\n      dup3\n        /* \"#utility.yul\":14899:14919   */\n      tag_201\n      jump\t// in\n    tag_366:\n        /* \"#utility.yul\":14894:14919   */\n      swap2\n      pop\n        /* \"#utility.yul\":14933:14953   */\n      tag_367\n        /* \"#utility.yul\":14951:14952   */\n      dup4\n        /* \"#utility.yul\":14933:14953   */\n      tag_201\n      jump\t// in\n    tag_367:\n        /* \"#utility.yul\":14928:14953   */\n      swap3\n      pop\n        /* \"#utility.yul\":14976:14977   */\n      dup3\n        /* \"#utility.yul\":14973:14974   */\n      dup3\n        /* \"#utility.yul\":14969:14978   */\n      add\n        /* \"#utility.yul\":14962:14978   */\n      swap1\n      pop\n        /* \"#utility.yul\":14997:15000   */\n      dup1\n        /* \"#utility.yul\":14994:14995   */\n      dup3\n        /* \"#utility.yul\":14991:15001   */\n      gt\n        /* \"#utility.yul\":14988:15024   */\n      iszero\n      tag_368\n      jumpi\n        /* \"#utility.yul\":15004:15022   */\n      tag_369\n      tag_216\n      jump\t// in\n    tag_369:\n        /* \"#utility.yul\":14988:15024   */\n    tag_368:\n        /* \"#utility.yul\":14840:15031   */\n      swap3\n      swap2\n      pop\n      pop\n      jump\t// out\n        /* \"#utility.yul\":15037:15479   */\n    tag_154:\n        /* \"#utility.yul\":15186:15190   */\n      0x00\n        /* \"#utility.yul\":15224:15226   */\n      0x60\n        /* \"#utility.yul\":15213:15222   */\n      dup3\n        /* \"#utility.yul\":15209:15227   */\n      add\n        /* \"#utility.yul\":15201:15227   */\n      swap1\n      pop\n        /* \"#utility.yul\":15237:15308   */\n      tag_371\n        /* \"#utility.yul\":15305:15306   */\n      0x00\n        /* \"#utility.yul\":15294:15303   */\n      dup4\n        /* \"#utility.yul\":15290:15307   */\n      add\n        /* \"#utility.yul\":15281:15287   */\n      dup7\n        /* \"#utility.yul\":15237:15308   */\n      tag_200\n      jump\t// in\n    tag_371:\n        /* \"#utility.yul\":15318:15390   */\n      tag_372\n        /* \"#utility.yul\":15386:15388   */\n      0x20\n        /* \"#utility.yul\":15375:15384   */\n      dup4\n        /* \"#utility.yul\":15371:15389   */\n      add\n        /* \"#utility.yul\":15362:15368   */\n      dup6\n        /* \"#utility.yul\":15318:15390   */\n      tag_200\n      jump\t// in\n    tag_372:\n        /* \"#utility.yul\":15400:15472   */\n      tag_373\n        /* \"#utility.yul\":15468:15470   */\n      0x40\n        /* \"#utility.yul\":15457:15466   */\n      dup4\n        /* \"#utility.yul\":15453:15471   */\n      add\n        /* \"#utility.yul\":15444:15450   */\n      dup5\n        /* \"#utility.yul\":15400:15472   */\n      tag_202\n      jump\t// in\n    tag_373:\n        /* \"#utility.yul\":15037:15479   */\n      swap5\n      swap4\n      pop\n      pop\n      pop\n      pop\n      jump\t// out\n        /* \"#utility.yul\":15485:15575   */\n    tag_230:\n        /* \"#utility.yul\":15519:15526   */\n      0x00\n        /* \"#utility.yul\":15562:15567   */\n      dup2\n        /* \"#utility.yul\":15555:15568   */\n      iszero\n        /* \"#utility.yul\":15548:15569   */\n      iszero\n        /* \"#utility.yul\":15537:15569   */\n      swap1\n      pop\n        /* \"#utility.yul\":15485:15575   */\n      swap2\n      swap1\n      pop\n      jump\t// out\n        /* \"#utility.yul\":15581:15697   */\n    tag_231:\n        /* \"#utility.yul\":15651:15672   */\n      tag_376\n        /* \"#utility.yul\":15666:15671   */\n      dup2\n        /* \"#utility.yul\":15651:15672   */\n      tag_230\n      jump\t// in\n    tag_376:\n        /* \"#utility.yul\":15644:15649   */\n      dup2\n        /* \"#utility.yul\":15641:15673   */\n      eq\n        /* \"#utility.yul\":15631:15691   */\n      tag_377\n      jumpi\n        /* \"#utility.yul\":15687:15688   */\n      0x00\n        /* \"#utility.yul\":15684:15685   */\n      0x00\n        /* \"#utility.yul\":15677:15689   */\n      revert\n        /* \"#utility.yul\":15631:15691   */\n    tag_377:\n        /* \"#utility.yul\":15581:15697   */\n      pop\n      jump\t// out\n        /* \"#utility.yul\":15703:15840   */\n    tag_232:\n        /* \"#utility.yul\":15757:15762   */\n      0x00\n        /* \"#utility.yul\":15788:15794   */\n      dup2\n        /* \"#utility.yul\":15782:15795   */\n      mload\n        /* \"#utility.yul\":15773:15795   */\n      swap1\n      pop\n        /* \"#utility.yul\":15804:15834   */\n      tag_379\n        /* \"#utility.yul\":15828:15833   */\n      dup2\n        /* \"#utility.yul\":15804:15834   */\n      tag_231\n      jump\t// in\n    tag_379:\n        /* \"#utility.yul\":15703:15840   */\n      swap3\n      swap2\n      pop\n      pop\n      jump\t// out\n        /* \"#utility.yul\":15846:16191   */\n    tag_158:\n        /* \"#utility.yul\":15913:15919   */\n      0x00\n        /* \"#utility.yul\":15962:15964   */\n      0x20\n        /* \"#utility.yul\":15950:15959   */\n      dup3\n        /* \"#utility.yul\":15941:15948   */\n      dup5\n        /* \"#utility.yul\":15937:15960   */\n      sub\n        /* \"#utility.yul\":15933:15965   */\n      slt\n        /* \"#utility.yul\":15930:16049   */\n      iszero\n      tag_381\n      jumpi\n        /* \"#utility.yul\":15968:16047   */\n      tag_382\n      tag_204\n      jump\t// in\n    tag_382:\n        /* \"#utility.yul\":15930:16049   */\n    tag_381:\n        /* \"#utility.yul\":16088:16089   */\n      0x00\n        /* \"#utility.yul\":16113:16174   */\n      tag_383\n        /* \"#utility.yul\":16166:16173   */\n      dup5\n        /* \"#utility.yul\":16157:16163   */\n      dup3\n        /* \"#utility.yul\":16146:16155   */\n      dup6\n        /* \"#utility.yul\":16142:16164   */\n      add\n        /* \"#utility.yul\":16113:16174   */\n      tag_232\n      jump\t// in\n    tag_383:\n        /* \"#utility.yul\":16103:16174   */\n      swap2\n      pop\n        /* \"#utility.yul\":16059:16184   */\n      pop\n        /* \"#utility.yul\":15846:16191   */\n      swap3\n      swap2\n      pop\n      pop\n      jump\t// out\n        /* \"#utility.yul\":16197:16529   */\n    tag_170:\n        /* \"#utility.yul\":16318:16322   */\n      0x00\n        /* \"#utility.yul\":16356:16358   */\n      0x40\n        /* \"#utility.yul\":16345:16354   */\n      dup3\n        /* \"#utility.yul\":16341:16359   */\n      add\n        /* \"#utility.yul\":16333:16359   */\n      swap1\n      pop\n        /* \"#utility.yul\":16369:16440   */\n      tag_385\n        /* \"#utility.yul\":16437:16438   */\n      0x00\n        /* \"#utility.yul\":16426:16435   */\n      dup4\n        /* \"#utility.yul\":16422:16439   */\n      add\n        /* \"#utility.yul\":16413:16419   */\n      dup6\n        /* \"#utility.yul\":16369:16440   */\n      tag_200\n      jump\t// in\n    tag_385:\n        /* \"#utility.yul\":16450:16522   */\n      tag_386\n        /* \"#utility.yul\":16518:16520   */\n      0x20\n        /* \"#utility.yul\":16507:16516   */\n      dup4\n        /* \"#utility.yul\":16503:16521   */\n      add\n        /* \"#utility.yul\":16494:16500   */\n      dup5\n        /* \"#utility.yul\":16450:16522   */\n      tag_202\n      jump\t// in\n    tag_386:\n        /* \"#utility.yul\":16197:16529   */\n      swap4\n      swap3\n      pop\n      pop\n      pop\n      jump\t// out\n\n    auxdata: 0xa26469706673582212201eb62788e51bc27c823771315a28c61ff70f902d5867185104ef04bd4f8bc42164736f6c634300081e0033\n}\n",
				"bytecode": {
					"linkReferences": {},
					"object": "60c0604052600160035f6101000a81548160ff021916908360ff16021790555034801561002a575f5ffd5b50604051611d2e380380611d2e833981810160405281019061004c9190610187565b8073ffffffffffffffffffffffffffffffffffffffff168273ffffffffffffffffffffffffffffffffffffffff16036100ba576040517f08c379a00000000000000000000000000000000000000000000000000000000081526004016100b19061021f565b60405180910390fd5b8173ffffffffffffffffffffffffffffffffffffffff1660808173ffffffffffffffffffffffffffffffffffffffff16815250508073ffffffffffffffffffffffffffffffffffffffff1660a08173ffffffffffffffffffffffffffffffffffffffff1681525050505061023d565b5f5ffd5b5f73ffffffffffffffffffffffffffffffffffffffff82169050919050565b5f6101568261012d565b9050919050565b6101668161014c565b8114610170575f5ffd5b50565b5f815190506101818161015d565b92915050565b5f5f6040838503121561019d5761019c610129565b5b5f6101aa85828601610173565b92505060206101bb85828601610173565b9150509250929050565b5f82825260208201905092915050565b7f4964656e746963616c20746f6b656e73000000000000000000000000000000005f82015250565b5f6102096010836101c5565b9150610214826101d5565b602082019050919050565b5f6020820190508181035f830152610236816101fd565b9050919050565b60805160a051611a9161029d5f395f818161095501528181610ae601528181610d0e01528181610d88015261109201525f81816102070152818161039a0152818161092a01528181610aba01528181610d330152610fc80152611a915ff3fe608060405234801561000f575f5ffd5b5060043610610086575f3560e01c80639c8f9f23116100595780639c8f9f23146101155780639cd441da14610146578063b8c876b114610176578063d21220a7146101a657610086565b80630902f1ac1461008a5780630dfe1681146100a957806315770f92146100c75780638e18cdfc146100e5575b5f5ffd5b6100926101c4565b6040516100a092919061125d565b60405180910390f35b6100b1610205565b6040516100be91906112c3565b60405180910390f35b6100cf610229565b6040516100dc91906112f4565b60405180910390f35b6100ff60048036038101906100fa9190611365565b61022f565b60405161010c91906112f4565b60405180910390f35b61012f600480360381019061012a91906113c9565b610738565b60405161013d9291906113f4565b60405180910390f35b610160600480360381019061015b919061141b565b6109f8565b60405161016d91906112f4565b60405180910390f35b610190600480360381019061018b9190611459565b610cf7565b60405161019d91906112f4565b60405180910390f35b6101ae610d0c565b6040516101bb91906112c3565b60405180910390f35b5f5f5f5f9054906101000a90046dffffffffffffffffffffffffffff1691505f600e9054906101000a90046dffffffffffffffffffffffffffff1690509091565b7f000000000000000000000000000000000000000000000000000000000000000081565b60025481565b5f600160035f9054906101000a900460ff1660ff1614610284576040517f08c379a000000000000000000000000000000000000000000000000000000000815260040161027b906114de565b60405180910390fd5b600260035f6101000a81548160ff021916908360ff1602179055506102a885610d30565b80156102b957506102b884610d30565b5b6102ef576040517f9b50655900000000000000000000000000000000000000000000000000000000815260040160405180910390fd5b8373ffffffffffffffffffffffffffffffffffffffff168573ffffffffffffffffffffffffffffffffffffffff1603610354576040517f201b580a00000000000000000000000000000000000000000000000000000000815260040160405180910390fd5b5f8311610396576040517f08c379a000000000000000000000000000000000000000000000000000000000815260040161038d90611546565b60405180910390fd5b5f5f7f000000000000000000000000000000000000000000000000000000000000000073ffffffffffffffffffffffffffffffffffffffff168773ffffffffffffffffffffffffffffffffffffffff1614610447575f600e9054906101000a90046dffffffffffffffffffffffffffff166dffffffffffffffffffffffffffff165f5f9054906101000a90046dffffffffffffffffffffffffffff166dffffffffffffffffffffffffffff1661049f565b5f5f9054906101000a90046dffffffffffffffffffffffffffff166dffffffffffffffffffffffffffff165f600e9054906101000a90046dffffffffffffffffffffffffffff166dffffffffffffffffffffffffffff165b915091505f8773ffffffffffffffffffffffffffffffffffffffff166370a08231306040518263ffffffff1660e01b81526004016104dd91906112c3565b602060405180830381865afa1580156104f8573d5f5f3e3d5ffd5b505050506040513d601f19601f8201168201806040525081019061051c9190611578565b905061052a88333089610ddd565b5f8873ffffffffffffffffffffffffffffffffffffffff166370a08231306040518263ffffffff1660e01b815260040161056491906112c3565b602060405180830381865afa15801561057f573d5f5f3e3d5ffd5b505050506040513d601f19601f820116820180604052508101906105a39190611578565b90505f82826105b291906115d0565b90505f81036105ed576040517f098fb56100000000000000000000000000000000000000000000000000000000815260040160405180910390fd5b6105f8818686610e9b565b95508686101561063d576040517f08c379a000000000000000000000000000000000000000000000000000000000815260040161063490611673565b60405180910390fd5b5f861161067f576040517f08c379a0000000000000000000000000000000000000000000000000000000008152600401610676906116db565b60405180910390fd5b61068a893388610f0b565b610692610fc6565b8873ffffffffffffffffffffffffffffffffffffffff168a73ffffffffffffffffffffffffffffffffffffffff163373ffffffffffffffffffffffffffffffffffffffff167f6782190c91d4a7e8ad2a867deed6ec0a970cab8ff137ae2bd4abd92b3810f4d3848a6040516107089291906113f4565b60405180910390a45050505050600160035f6101000a81548160ff021916908360ff160217905550949350505050565b5f5f600160035f9054906101000a900460ff1660ff161461078e576040517f08c379a0000000000000000000000000000000000000000000000000000000008152600401610785906114de565b60405180910390fd5b600260035f6101000a81548160ff021916908360ff1602179055505f60015f3373ffffffffffffffffffffffffffffffffffffffff1673ffffffffffffffffffffffffffffffffffffffff1681526020019081526020015f205490505f841180156107f95750838110155b610838576040517f08c379a000000000000000000000000000000000000000000000000000000000815260040161082f90611743565b60405180910390fd5b5f6002541161087c576040517f08c379a0000000000000000000000000000000000000000000000000000000008152600401610873906117ab565b60405180910390fd5b5f5f61088661115d565b91509150600254828761089991906117c9565b6108a39190611837565b945060025481876108b491906117c9565b6108be9190611837565b935085836108cc91906115d0565b60015f3373ffffffffffffffffffffffffffffffffffffffff1673ffffffffffffffffffffffffffffffffffffffff1681526020019081526020015f20819055508560025f82825461091e91906115d0565b925050819055506109507f00000000000000000000000000000000000000000000000000000000000000003387610f0b565b61097b7f00000000000000000000000000000000000000000000000000000000000000003386610f0b565b610983610fc6565b3373ffffffffffffffffffffffffffffffffffffffff167f1dc8bb69df2b8e91fbdcbfcf93d951b3f0000f085a95fe3f7946d6161439245d8686896040516109cd93929190611867565b60405180910390a2505050600160035f6101000a81548160ff021916908360ff160217905550915091565b5f600160035f9054906101000a900460ff1660ff1614610a4d576040517f08c379a0000000000000000000000000000000000000000000000000000000008152600401610a44906114de565b60405180910390fd5b600260035f6101000a81548160ff021916908360ff1602179055505f83118015610a7657505f82115b610ab5576040517f08c379a0000000000000000000000000000000000000000000000000000000008152600401610aac906118e6565b60405180910390fd5b610ae17f0000000000000000000000000000000000000000000000000000000000000000333086610ddd565b610b0d7f0000000000000000000000000000000000000000000000000000000000000000333085610ddd565b5f5f610b1761115d565b915091505f60025403610b8157610b388486610b3391906117c9565b6111be565b92505f8311610b7c576040517f08c379a0000000000000000000000000000000000000000000000000000000008152600401610b739061194e565b60405180910390fd5b610c0f565b5f8260025487610b9191906117c9565b610b9b9190611837565b90505f8260025487610bad91906117c9565b610bb79190611837565b9050808210610bc65780610bc8565b815b94505f8511610c0c576040517f08c379a0000000000000000000000000000000000000000000000000000000008152600401610c039061194e565b60405180910390fd5b50505b8260015f3373ffffffffffffffffffffffffffffffffffffffff1673ffffffffffffffffffffffffffffffffffffffff1681526020019081526020015f205f828254610c5b919061196c565b925050819055508260025f828254610c73919061196c565b92505081905550610c82610fc6565b3373ffffffffffffffffffffffffffffffffffffffff167f64b83944e79c3ce8d4c297411de637c3e102d064677aac0c163976ebdcd6f50e868686604051610ccc93929190611867565b60405180910390a25050600160035f6101000a81548160ff021916908360ff16021790555092915050565b6001602052805f5260405f205f915090505481565b7f000000000000000000000000000000000000000000000000000000000000000081565b5f7f000000000000000000000000000000000000000000000000000000000000000073ffffffffffffffffffffffffffffffffffffffff168273ffffffffffffffffffffffffffffffffffffffff161480610dd657507f000000000000000000000000000000000000000000000000000000000000000073ffffffffffffffffffffffffffffffffffffffff168273ffffffffffffffffffffffffffffffffffffffff16145b9050919050565b5f8473ffffffffffffffffffffffffffffffffffffffff166323b872dd8585856040518463ffffffff1660e01b8152600401610e1b9392919061199f565b6020604051808303815f875af1158015610e37573d5f5f3e3d5ffd5b505050506040513d601f19601f82011682018060405250810190610e5b9190611a09565b905080610e94576040517f90b8ec1800000000000000000000000000000000000000000000000000000000815260040160405180910390fd5b5050505050565b5f5f831480610ea957505f82145b15610eb6575f9050610f04565b5f6103e585610ec591906117c9565b90505f8382610ed491906117c9565b90505f826103e887610ee691906117c9565b610ef0919061196c565b90508082610efe9190611837565b93505050505b9392505050565b5f8373ffffffffffffffffffffffffffffffffffffffff1663a9059cbb84846040518363ffffffff1660e01b8152600401610f47929190611a34565b6020604051808303815f875af1158015610f63573d5f5f3e3d5ffd5b505050506040513d601f19601f82011682018060405250810190610f879190611a09565b905080610fc0576040517f90b8ec1800000000000000000000000000000000000000000000000000000000815260040160405180910390fd5b50505050565b7f000000000000000000000000000000000000000000000000000000000000000073ffffffffffffffffffffffffffffffffffffffff166370a08231306040518263ffffffff1660e01b815260040161101f91906112c3565b602060405180830381865afa15801561103a573d5f5f3e3d5ffd5b505050506040513d601f19601f8201168201806040525081019061105e9190611578565b5f5f6101000a8154816dffffffffffffffffffffffffffff02191690836dffffffffffffffffffffffffffff1602179055507f000000000000000000000000000000000000000000000000000000000000000073ffffffffffffffffffffffffffffffffffffffff166370a08231306040518263ffffffff1660e01b81526004016110e991906112c3565b602060405180830381865afa158015611104573d5f5f3e3d5ffd5b505050506040513d601f19601f820116820180604052508101906111289190611578565b5f600e6101000a8154816dffffffffffffffffffffffffffff02191690836dffffffffffffffffffffffffffff160217905550565b5f5f5f5f9054906101000a90046dffffffffffffffffffffffffffff166dffffffffffffffffffffffffffff1691505f600e9054906101000a90046dffffffffffffffffffffffffffff166dffffffffffffffffffffffffffff1690509091565b5f6003821115611223578190505f60016002846111db9190611837565b6111e5919061196c565b90505b8181101561121d5780915060028182856112029190611837565b61120c919061196c565b6112169190611837565b90506111e8565b50611230565b5f821461122f57600190505b5b919050565b5f6dffffffffffffffffffffffffffff82169050919050565b61125781611235565b82525050565b5f6040820190506112705f83018561124e565b61127d602083018461124e565b9392505050565b5f73ffffffffffffffffffffffffffffffffffffffff82169050919050565b5f6112ad82611284565b9050919050565b6112bd816112a3565b82525050565b5f6020820190506112d65f8301846112b4565b92915050565b5f819050919050565b6112ee816112dc565b82525050565b5f6020820190506113075f8301846112e5565b92915050565b5f5ffd5b61131a816112a3565b8114611324575f5ffd5b50565b5f8135905061133581611311565b92915050565b611344816112dc565b811461134e575f5ffd5b50565b5f8135905061135f8161133b565b92915050565b5f5f5f5f6080858703121561137d5761137c61130d565b5b5f61138a87828801611327565b945050602061139b87828801611327565b93505060406113ac87828801611351565b92505060606113bd87828801611351565b91505092959194509250565b5f602082840312156113de576113dd61130d565b5b5f6113eb84828501611351565b91505092915050565b5f6040820190506114075f8301856112e5565b61141460208301846112e5565b9392505050565b5f5f604083850312156114315761143061130d565b5b5f61143e85828601611351565b925050602061144f85828601611351565b9150509250929050565b5f6020828403121561146e5761146d61130d565b5b5f61147b84828501611327565b91505092915050565b5f82825260208201905092915050565b7f5265656e7472616e7400000000000000000000000000000000000000000000005f82015250565b5f6114c8600983611484565b91506114d382611494565b602082019050919050565b5f6020820190508181035f8301526114f5816114bc565b9050919050565b7f5a65726f20696e707574000000000000000000000000000000000000000000005f82015250565b5f611530600a83611484565b915061153b826114fc565b602082019050919050565b5f6020820190508181035f83015261155d81611524565b9050919050565b5f815190506115728161133b565b92915050565b5f6020828403121561158d5761158c61130d565b5b5f61159a84828501611564565b91505092915050565b7f4e487b71000000000000000000000000000000000000000000000000000000005f52601160045260245ffd5b5f6115da826112dc565b91506115e5836112dc565b92508282039050818111156115fd576115fc6115a3565b5b92915050565b7f536c6970706167653a20616d6f756e744f7574203c206d696e416d6f756e744f5f8201527f7574000000000000000000000000000000000000000000000000000000000000602082015250565b5f61165d602283611484565b915061166882611603565b604082019050919050565b5f6020820190508181035f83015261168a81611651565b9050919050565b7f5a65726f206f75747075740000000000000000000000000000000000000000005f82015250565b5f6116c5600b83611484565b91506116d082611691565b602082019050919050565b5f6020820190508181035f8301526116f2816116b9565b9050919050565b7f496e76616c6964207368617265000000000000000000000000000000000000005f82015250565b5f61172d600d83611484565b9150611738826116f9565b602082019050919050565b5f6020820190508181035f83015261175a81611721565b9050919050565b7f4e6f206c697175696469747900000000000000000000000000000000000000005f82015250565b5f611795600c83611484565b91506117a082611761565b602082019050919050565b5f6020820190508181035f8301526117c281611789565b9050919050565b5f6117d3826112dc565b91506117de836112dc565b92508282026117ec816112dc565b91508282048414831517611803576118026115a3565b5b5092915050565b7f4e487b71000000000000000000000000000000000000000000000000000000005f52601260045260245ffd5b5f611841826112dc565b915061184c836112dc565b92508261185c5761185b61180a565b5b828204905092915050565b5f60608201905061187a5f8301866112e5565b61188760208301856112e5565b61189460408301846112e5565b949350505050565b7f5a65726f20616d6f756e747300000000000000000000000000000000000000005f82015250565b5f6118d0600c83611484565b91506118db8261189c565b602082019050919050565b5f6020820190508181035f8301526118fd816118c4565b9050919050565b7f496e73756666696369656e74206c6971756964697479206d696e7465640000005f82015250565b5f611938601d83611484565b915061194382611904565b602082019050919050565b5f6020820190508181035f8301526119658161192c565b9050919050565b5f611976826112dc565b9150611981836112dc565b9250828201905080821115611999576119986115a3565b5b92915050565b5f6060820190506119b25f8301866112b4565b6119bf60208301856112b4565b6119cc60408301846112e5565b949350505050565b5f8115159050919050565b6119e8816119d4565b81146119f2575f5ffd5b50565b5f81519050611a03816119df565b92915050565b5f60208284031215611a1e57611a1d61130d565b5b5f611a2b848285016119f5565b91505092915050565b5f604082019050611a475f8301856112b4565b611a5460208301846112e5565b939250505056fea26469706673582212201eb62788e51bc27c823771315a28c61ff70f902d5867185104ef04bd4f8bc42164736f6c634300081e0033",
					"opcodes": "PUSH1 0xC0 PUSH1 0x40 MSTORE PUSH1 0x1 PUSH1 0x3 PUSH0 PUSH2 0x100 EXP DUP2 SLOAD DUP2 PUSH1 0xFF MUL NOT AND SWAP1 DUP4 PUSH1 0xFF AND MUL OR SWAP1 SSTORE POP CALLVALUE DUP1 ISZERO PUSH2 0x2A JUMPI PUSH0 PUSH0 REVERT JUMPDEST POP PUSH1 0x40 MLOAD PUSH2 0x1D2E CODESIZE SUB DUP1 PUSH2 0x1D2E DUP4 CODECOPY DUP2 DUP2 ADD PUSH1 0x40 MSTORE DUP2 ADD SWAP1 PUSH2 0x4C SWAP2 SWAP1 PUSH2 0x187 JUMP JUMPDEST DUP1 PUSH20 0xFFFFFFFFFFFFFFFFFFFFFFFFFFFFFFFFFFFFFFFF AND DUP3 PUSH20 0xFFFFFFFFFFFFFFFFFFFFFFFFFFFFFFFFFFFFFFFF AND SUB PUSH2 0xBA JUMPI PUSH1 0x40 MLOAD PUSH32 0x8C379A000000000000000000000000000000000000000000000000000000000 DUP2 MSTORE PUSH1 0x4 ADD PUSH2 0xB1 SWAP1 PUSH2 0x21F JUMP JUMPDEST PUSH1 0x40 MLOAD DUP1 SWAP2 SUB SWAP1 REVERT JUMPDEST DUP2 PUSH20 0xFFFFFFFFFFFFFFFFFFFFFFFFFFFFFFFFFFFFFFFF AND PUSH1 0x80 DUP2 PUSH20 0xFFFFFFFFFFFFFFFFFFFFFFFFFFFFFFFFFFFFFFFF AND DUP2 MSTORE POP POP DUP1 PUSH20 0xFFFFFFFFFFFFFFFFFFFFFFFFFFFFFFFFFFFFFFFF AND PUSH1 0xA0 DUP2 PUSH20 0xFFFFFFFFFFFFFFFFFFFFFFFFFFFFFFFFFFFFFFFF AND DUP2 MSTORE POP POP POP POP PUSH2 0x23D JUMP JUMPDEST PUSH0 PUSH0 REVERT JUMPDEST PUSH0 PUSH20 0xFFFFFFFFFFFFFFFFFFFFFFFFFFFFFFFFFFFFFFFF DUP3 AND SWAP1 POP SWAP2 SWAP1 POP JUMP JUMPDEST PUSH0 PUSH2 0x156 DUP3 PUSH2 0x12D JUMP JUMPDEST SWAP1 POP SWAP2 SWAP1 POP JUMP JUMPDEST PUSH2 0x166 DUP2 PUSH2 0x14C JUMP JUMPDEST DUP2 EQ PUSH2 0x170 JUMPI PUSH0 PUSH0 REVERT JUMPDEST POP JUMP JUMPDEST PUSH0 DUP2 MLOAD SWAP1 POP PUSH2 0x181 DUP2 PUSH2 0x15D JUMP JUMPDEST SWAP3 SWAP2 POP POP JUMP JUMPDEST PUSH0 PUSH0 PUSH1 0x40 DUP4 DUP6 SUB SLT ISZERO PUSH2 0x19D JUMPI PUSH2 0x19C PUSH2 0x129 JUMP JUMPDEST JUMPDEST PUSH0 PUSH2 0x1AA DUP6 DUP3 DUP7 ADD PUSH2 0x173 JUMP JUMPDEST SWAP3 POP POP PUSH1 0x20 PUSH2 0x1BB DUP6 DUP3 DUP7 ADD PUSH2 0x173 JUMP JUMPDEST SWAP2 POP POP SWAP3 POP SWAP3 SWAP1 POP JUMP JUMPDEST PUSH0 DUP3 DUP3 MSTORE PUSH1 0x20 DUP3 ADD SWAP1 POP SWAP3 SWAP2 POP POP JUMP JUMPDEST PUSH32 0x4964656E746963616C20746F6B656E7300000000000000000000000000000000 PUSH0 DUP3 ADD MSTORE POP JUMP JUMPDEST PUSH0 PUSH2 0x209 PUSH1 0x10 DUP4 PUSH2 0x1C5 JUMP JUMPDEST SWAP2 POP PUSH2 0x214 DUP3 PUSH2 0x1D5 JUMP JUMPDEST PUSH1 0x20 DUP3 ADD SWAP1 POP SWAP2 SWAP1 POP JUMP JUMPDEST PUSH0 PUSH1 0x20 DUP3 ADD SWAP1 POP DUP2 DUP2 SUB PUSH0 DUP4 ADD MSTORE PUSH2 0x236 DUP2 PUSH2 0x1FD JUMP JUMPDEST SWAP1 POP SWAP2 SWAP1 POP JUMP JUMPDEST PUSH1 0x80 MLOAD PUSH1 0xA0 MLOAD PUSH2 0x1A91 PUSH2 0x29D PUSH0 CODECOPY PUSH0 DUP2 DUP2 PUSH2 0x955 ADD MSTORE DUP2 DUP2 PUSH2 0xAE6 ADD MSTORE DUP2 DUP2 PUSH2 0xD0E ADD MSTORE DUP2 DUP2 PUSH2 0xD88 ADD MSTORE PUSH2 0x1092 ADD MSTORE PUSH0 DUP2 DUP2 PUSH2 0x207 ADD MSTORE DUP2 DUP2 PUSH2 0x39A ADD MSTORE DUP2 DUP2 PUSH2 0x92A ADD MSTORE DUP2 DUP2 PUSH2 0xABA ADD MSTORE DUP2 DUP2 PUSH2 0xD33 ADD MSTORE PUSH2 0xFC8 ADD MSTORE PUSH2 0x1A91 PUSH0 RETURN INVALID PUSH1 0x80 PUSH1 0x40 MSTORE CALLVALUE DUP1 ISZERO PUSH2 0xF JUMPI PUSH0 PUSH0 REVERT JUMPDEST POP PUSH1 0x4 CALLDATASIZE LT PUSH2 0x86 JUMPI PUSH0 CALLDATALOAD PUSH1 0xE0 SHR DUP1 PUSH4 0x9C8F9F23 GT PUSH2 0x59 JUMPI DUP1 PUSH4 0x9C8F9F23 EQ PUSH2 0x115 JUMPI DUP1 PUSH4 0x9CD441DA EQ PUSH2 0x146 JUMPI DUP1 PUSH4 0xB8C876B1 EQ PUSH2 0x176 JUMPI DUP1 PUSH4 0xD21220A7 EQ PUSH2 0x1A6 JUMPI PUSH2 0x86 JUMP JUMPDEST DUP1 PUSH4 0x902F1AC EQ PUSH2 0x8A JUMPI DUP1 PUSH4 0xDFE1681 EQ PUSH2 0xA9 JUMPI DUP1 PUSH4 0x15770F92 EQ PUSH2 0xC7 JUMPI DUP1 PUSH4 0x8E18CDFC EQ PUSH2 0xE5 JUMPI JUMPDEST PUSH0 PUSH0 REVERT JUMPDEST PUSH2 0x92 PUSH2 0x1C4 JUMP JUMPDEST PUSH1 0x40 MLOAD PUSH2 0xA0 SWAP3 SWAP2 SWAP1 PUSH2 0x125D JUMP JUMPDEST PUSH1 0x40 MLOAD DUP1 SWAP2 SUB SWAP1 RETURN JUMPDEST PUSH2 0xB1 PUSH2 0x205 JUMP JUMPDEST PUSH1 0x40 MLOAD PUSH2 0xBE SWAP2 SWAP1 PUSH2 0x12C3 JUMP JUMPDEST PUSH1 0x40 MLOAD DUP1 SWAP2 SUB SWAP1 RETURN JUMPDEST PUSH2 0xCF PUSH2 0x229 JUMP JUMPDEST PUSH1 0x40 MLOAD PUSH2 0xDC SWAP2 SWAP1 PUSH2 0x12F4 JUMP JUMPDEST PUSH1 0x40 MLOAD DUP1 SWAP2 SUB SWAP1 RETURN JUMPDEST PUSH2 0xFF PUSH1 0x4 DUP1 CALLDATASIZE SUB DUP2 ADD SWAP1 PUSH2 0xFA SWAP2 SWAP1 PUSH2 0x1365 JUMP JUMPDEST PUSH2 0x22F JUMP JUMPDEST PUSH1 0x40 MLOAD PUSH2 0x10C SWAP2 SWAP1 PUSH2 0x12F4 JUMP JUMPDEST PUSH1 0x40 MLOAD DUP1 SWAP2 SUB SWAP1 RETURN JUMPDEST PUSH2 0x12F PUSH1 0x4 DUP1 CALLDATASIZE SUB DUP2 ADD SWAP1 PUSH2 0x12A SWAP2 SWAP1 PUSH2 0x13C9 JUMP JUMPDEST PUSH2 0x738 JUMP JUMPDEST PUSH1 0x40 MLOAD PUSH2 0x13D SWAP3 SWAP2 SWAP1 PUSH2 0x13F4 JUMP JUMPDEST PUSH1 0x40 MLOAD DUP1 SWAP2 SUB SWAP1 RETURN JUMPDEST PUSH2 0x160 PUSH1 0x4 DUP1 CALLDATASIZE SUB DUP2 ADD SWAP1 PUSH2 0x15B SWAP2 SWAP1 PUSH2 0x141B JUMP JUMPDEST PUSH2 0x9F8 JUMP JUMPDEST PUSH1 0x40 MLOAD PUSH2 0x16D SWAP2 SWAP1 PUSH2 0x12F4 JUMP JUMPDEST PUSH1 0x40 MLOAD DUP1 SWAP2 SUB SWAP1 RETURN JUMPDEST PUSH2 0x190 PUSH1 0x4 DUP1 CALLDATASIZE SUB DUP2 ADD SWAP1 PUSH2 0x18B SWAP2 SWAP1 PUSH2 0x1459 JUMP JUMPDEST PUSH2 0xCF7 JUMP JUMPDEST PUSH1 0x40 MLOAD PUSH2 0x19D SWAP2 SWAP1 PUSH2 0x12F4 JUMP JUMPDEST PUSH1 0x40 MLOAD DUP1 SWAP2 SUB SWAP1 RETURN JUMPDEST PUSH2 0x1AE PUSH2 0xD0C JUMP JUMPDEST PUSH1 0x40 MLOAD PUSH2 0x1BB SWAP2 SWAP1 PUSH2 0x12C3 JUMP JUMPDEST PUSH1 0x40 MLOAD DUP1 SWAP2 SUB SWAP1 RETURN JUMPDEST PUSH0 PUSH0 PUSH0 PUSH0 SWAP1 SLOAD SWAP1 PUSH2 0x100 EXP SWAP1 DIV PUSH14 0xFFFFFFFFFFFFFFFFFFFFFFFFFFFF AND SWAP2 POP PUSH0 PUSH1 0xE SWAP1 SLOAD SWAP1 PUSH2 0x100 EXP SWAP1 DIV PUSH14 0xFFFFFFFFFFFFFFFFFFFFFFFFFFFF AND SWAP1 POP SWAP1 SWAP2 JUMP JUMPDEST PUSH32 0x0 DUP2 JUMP JUMPDEST PUSH1 0x2 SLOAD DUP2 JUMP JUMPDEST PUSH0 PUSH1 0x1 PUSH1 0x3 PUSH0 SWAP1 SLOAD SWAP1 PUSH2 0x100 EXP SWAP1 DIV PUSH1 0xFF AND PUSH1 0xFF AND EQ PUSH2 0x284 JUMPI PUSH1 0x40 MLOAD PUSH32 0x8C379A000000000000000000000000000000000000000000000000000000000 DUP2 MSTORE PUSH1 0x4 ADD PUSH2 0x27B SWAP1 PUSH2 0x14DE JUMP JUMPDEST PUSH1 0x40 MLOAD DUP1 SWAP2 SUB SWAP1 REVERT JUMPDEST PUSH1 0x2 PUSH1 0x3 PUSH0 PUSH2 0x100 EXP DUP2 SLOAD DUP2 PUSH1 0xFF MUL NOT AND SWAP1 DUP4 PUSH1 0xFF AND MUL OR SWAP1 SSTORE POP PUSH2 0x2A8 DUP6 PUSH2 0xD30 JUMP JUMPDEST DUP1 ISZERO PUSH2 0x2B9 JUMPI POP PUSH2 0x2B8 DUP5 PUSH2 0xD30 JUMP JUMPDEST JUMPDEST PUSH2 0x2EF JUMPI PUSH1 0x40 MLOAD PUSH32 0x9B50655900000000000000000000000000000000000000000000000000000000 DUP2 MSTORE PUSH1 0x4 ADD PUSH1 0x40 MLOAD DUP1 SWAP2 SUB SWAP1 REVERT JUMPDEST DUP4 PUSH20 0xFFFFFFFFFFFFFFFFFFFFFFFFFFFFFFFFFFFFFFFF AND DUP6 PUSH20 0xFFFFFFFFFFFFFFFFFFFFFFFFFFFFFFFFFFFFFFFF AND SUB PUSH2 0x354 JUMPI PUSH1 0x40 MLOAD PUSH32 0x201B580A00000000000000000000000000000000000000000000000000000000 DUP2 MSTORE PUSH1 0x4 ADD PUSH1 0x40 MLOAD DUP1 SWAP2 SUB SWAP1 REVERT JUMPDEST PUSH0 DUP4 GT PUSH2 0x396 JUMPI PUSH1 0x40 MLOAD PUSH32 0x8C379A000000000000000000000000000000000000000000000000000000000 DUP2 MSTORE PUSH1 0x4 ADD PUSH2 0x38D SWAP1 PUSH2 0x1546 JUMP JUMPDEST PUSH1 0x40 MLOAD DUP1 SWAP2 SUB SWAP1 REVERT JUMPDEST PUSH0 PUSH0 PUSH32 0x0 PUSH20 0xFFFFFFFFFFFFFFFFFFFFFFFFFFFFFFFFFFFFFFFF AND DUP8 PUSH20 0xFFFFFFFFFFFFFFFFFFFFFFFFFFFFFFFFFFFFFFFF AND EQ PUSH2 0x447 JUMPI PUSH0 PUSH1 0xE SWAP1 SLOAD SWAP1 PUSH2 0x100 EXP SWAP1 DIV PUSH14 0xFFFFFFFFFFFFFFFFFFFFFFFFFFFF AND PUSH14 0xFFFFFFFFFFFFFFFFFFFFFFFFFFFF AND PUSH0 PUSH0 SWAP1 SLOAD SWAP1 PUSH2 0x100 EXP SWAP1 DIV PUSH14 0xFFFFFFFFFFFFFFFFFFFFFFFFFFFF AND PUSH14 0xFFFFFFFFFFFFFFFFFFFFFFFFFFFF AND PUSH2 0x49F JUMP JUMPDEST PUSH0 PUSH0 SWAP1 SLOAD SWAP1 PUSH2 0x100 EXP SWAP1 DIV PUSH14 0xFFFFFFFFFFFFFFFFFFFFFFFFFFFF AND PUSH14 0xFFFFFFFFFFFFFFFFFFFFFFFFFFFF AND PUSH0 PUSH1 0xE SWAP1 SLOAD SWAP1 PUSH2 0x100 EXP SWAP1 DIV PUSH14 0xFFFFFFFFFFFFFFFFFFFFFFFFFFFF AND PUSH14 0xFFFFFFFFFFFFFFFFFFFFFFFFFFFF AND JUMPDEST SWAP2 POP SWAP2 POP PUSH0 DUP8 PUSH20 0xFFFFFFFFFFFFFFFFFFFFFFFFFFFFFFFFFFFFFFFF AND PUSH4 0x70A08231 ADDRESS PUSH1 0x40 MLOAD DUP3 PUSH4 0xFFFFFFFF AND PUSH1 0xE0 SHL DUP2 MSTORE PUSH1 0x4 ADD PUSH2 0x4DD SWAP2 SWAP1 PUSH2 0x12C3 JUMP JUMPDEST PUSH1 0x20 PUSH1 0x40 MLOAD DUP1 DUP4 SUB DUP2 DUP7 GAS STATICCALL ISZERO DUP1 ISZERO PUSH2 0x4F8 JUMPI RETURNDATASIZE PUSH0 PUSH0 RETURNDATACOPY RETURNDATASIZE PUSH0 REVERT JUMPDEST POP POP POP POP PUSH1 0x40 MLOAD RETURNDATASIZE PUSH1 0x1F NOT PUSH1 0x1F DUP3 ADD AND DUP3 ADD DUP1 PUSH1 0x40 MSTORE POP DUP2 ADD SWAP1 PUSH2 0x51C SWAP2 SWAP1 PUSH2 0x1578 JUMP JUMPDEST SWAP1 POP PUSH2 0x52A DUP9 CALLER ADDRESS DUP10 PUSH2 0xDDD JUMP JUMPDEST PUSH0 DUP9 PUSH20 0xFFFFFFFFFFFFFFFFFFFFFFFFFFFFFFFFFFFFFFFF AND PUSH4 0x70A08231 ADDRESS PUSH1 0x40 MLOAD DUP3 PUSH4 0xFFFFFFFF AND PUSH1 0xE0 SHL DUP2 MSTORE PUSH1 0x4 ADD PUSH2 0x564 SWAP2 SWAP1 PUSH2 0x12C3 JUMP JUMPDEST PUSH1 0x20 PUSH1 0x40 MLOAD DUP1 DUP4 SUB DUP2 DUP7 GAS STATICCALL ISZERO DUP1 ISZERO PUSH2 0x57F JUMPI RETURNDATASIZE PUSH0 PUSH0 RETURNDATACOPY RETURNDATASIZE PUSH0 REVERT JUMPDEST POP POP POP POP PUSH1 0x40 MLOAD RETURNDATASIZE PUSH1 0x1F NOT PUSH1 0x1F DUP3 ADD AND DUP3 ADD DUP1 PUSH1 0x40 MSTORE POP DUP2 ADD SWAP1 PUSH2 0x5A3 SWAP2 SWAP1 PUSH2 0x1578 JUMP JUMPDEST SWAP1 POP PUSH0 DUP3 DUP3 PUSH2 0x5B2 SWAP2 SWAP1 PUSH2 0x15D0 JUMP JUMPDEST SWAP1 POP PUSH0 DUP2 SUB PUSH2 0x5ED JUMPI PUSH1 0x40 MLOAD PUSH32 0x98FB56100000000000000000000000000000000000000000000000000000000 DUP2 MSTORE PUSH1 0x4 ADD PUSH1 0x40 MLOAD DUP1 SWAP2 SUB SWAP1 REVERT JUMPDEST PUSH2 0x5F8 DUP2 DUP7 DUP7 PUSH2 0xE9B JUMP JUMPDEST SWAP6 POP DUP7 DUP7 LT ISZERO PUSH2 0x63D JUMPI PUSH1 0x40 MLOAD PUSH32 0x8C379A000000000000000000000000000000000000000000000000000000000 DUP2 MSTORE PUSH1 0x4 ADD PUSH2 0x634 SWAP1 PUSH2 0x1673 JUMP JUMPDEST PUSH1 0x40 MLOAD DUP1 SWAP2 SUB SWAP1 REVERT JUMPDEST PUSH0 DUP7 GT PUSH2 0x67F JUMPI PUSH1 0x40 MLOAD PUSH32 0x8C379A000000000000000000000000000000000000000000000000000000000 DUP2 MSTORE PUSH1 0x4 ADD PUSH2 0x676 SWAP1 PUSH2 0x16DB JUMP JUMPDEST PUSH1 0x40 MLOAD DUP1 SWAP2 SUB SWAP1 REVERT JUMPDEST PUSH2 0x68A DUP10 CALLER DUP9 PUSH2 0xF0B JUMP JUMPDEST PUSH2 0x692 PUSH2 0xFC6 JUMP JUMPDEST DUP9 PUSH20 0xFFFFFFFFFFFFFFFFFFFFFFFFFFFFFFFFFFFFFFFF AND DUP11 PUSH20 0xFFFFFFFFFFFFFFFFFFFFFFFFFFFFFFFFFFFFFFFF AND CALLER PUSH20 0xFFFFFFFFFFFFFFFFFFFFFFFFFFFFFFFFFFFFFFFF AND PUSH32 0x6782190C91D4A7E8AD2A867DEED6EC0A970CAB8FF137AE2BD4ABD92B3810F4D3 DUP5 DUP11 PUSH1 0x40 MLOAD PUSH2 0x708 SWAP3 SWAP2 SWAP1 PUSH2 0x13F4 JUMP JUMPDEST PUSH1 0x40 MLOAD DUP1 SWAP2 SUB SWAP1 LOG4 POP POP POP POP POP PUSH1 0x1 PUSH1 0x3 PUSH0 PUSH2 0x100 EXP DUP2 SLOAD DUP2 PUSH1 0xFF MUL NOT AND SWAP1 DUP4 PUSH1 0xFF AND MUL OR SWAP1 SSTORE POP SWAP5 SWAP4 POP POP POP POP JUMP JUMPDEST PUSH0 PUSH0 PUSH1 0x1 PUSH1 0x3 PUSH0 SWAP1 SLOAD SWAP1 PUSH2 0x100 EXP SWAP1 DIV PUSH1 0xFF AND PUSH1 0xFF AND EQ PUSH2 0x78E JUMPI PUSH1 0x40 MLOAD PUSH32 0x8C379A000000000000000000000000000000000000000000000000000000000 DUP2 MSTORE PUSH1 0x4 ADD PUSH2 0x785 SWAP1 PUSH2 0x14DE JUMP JUMPDEST PUSH1 0x40 MLOAD DUP1 SWAP2 SUB SWAP1 REVERT JUMPDEST PUSH1 0x2 PUSH1 0x3 PUSH0 PUSH2 0x100 EXP DUP2 SLOAD DUP2 PUSH1 0xFF MUL NOT AND SWAP1 DUP4 PUSH1 0xFF AND MUL OR SWAP1 SSTORE POP PUSH0 PUSH1 0x1 PUSH0 CALLER PUSH20 0xFFFFFFFFFFFFFFFFFFFFFFFFFFFFFFFFFFFFFFFF AND PUSH20 0xFFFFFFFFFFFFFFFFFFFFFFFFFFFFFFFFFFFFFFFF AND DUP2 MSTORE PUSH1 0x20 ADD SWAP1 DUP2 MSTORE PUSH1 0x20 ADD PUSH0 KECCAK256 SLOAD SWAP1 POP PUSH0 DUP5 GT DUP1 ISZERO PUSH2 0x7F9 JUMPI POP DUP4 DUP2 LT ISZERO JUMPDEST PUSH2 0x838 JUMPI PUSH1 0x40 MLOAD PUSH32 0x8C379A000000000000000000000000000000000000000000000000000000000 DUP2 MSTORE PUSH1 0x4 ADD PUSH2 0x82F SWAP1 PUSH2 0x1743 JUMP JUMPDEST PUSH1 0x40 MLOAD DUP1 SWAP2 SUB SWAP1 REVERT JUMPDEST PUSH0 PUSH1 0x2 SLOAD GT PUSH2 0x87C JUMPI PUSH1 0x40 MLOAD PUSH32 0x8C379A000000000000000000000000000000000000000000000000000000000 DUP2 MSTORE PUSH1 0x4 ADD PUSH2 0x873 SWAP1 PUSH2 0x17AB JUMP JUMPDEST PUSH1 0x40 MLOAD DUP1 SWAP2 SUB SWAP1 REVERT JUMPDEST PUSH0 PUSH0 PUSH2 0x886 PUSH2 0x115D JUMP JUMPDEST SWAP2 POP SWAP2 POP PUSH1 0x2 SLOAD DUP3 DUP8 PUSH2 0x899 SWAP2 SWAP1 PUSH2 0x17C9 JUMP JUMPDEST PUSH2 0x8A3 SWAP2 SWAP1 PUSH2 0x1837 JUMP JUMPDEST SWAP5 POP PUSH1 0x2 SLOAD DUP2 DUP8 PUSH2 0x8B4 SWAP2 SWAP1 PUSH2 0x17C9 JUMP JUMPDEST PUSH2 0x8BE SWAP2 SWAP1 PUSH2 0x1837 JUMP JUMPDEST SWAP4 POP DUP6 DUP4 PUSH2 0x8CC SWAP2 SWAP1 PUSH2 0x15D0 JUMP JUMPDEST PUSH1 0x1 PUSH0 CALLER PUSH20 0xFFFFFFFFFFFFFFFFFFFFFFFFFFFFFFFFFFFFFFFF AND PUSH20 0xFFFFFFFFFFFFFFFFFFFFFFFFFFFFFFFFFFFFFFFF AND DUP2 MSTORE PUSH1 0x20 ADD SWAP1 DUP2 MSTORE PUSH1 0x20 ADD PUSH0 KECCAK256 DUP2 SWAP1 SSTORE POP DUP6 PUSH1 0x2 PUSH0 DUP3 DUP3 SLOAD PUSH2 0x91E SWAP2 SWAP1 PUSH2 0x15D0 JUMP JUMPDEST SWAP3 POP POP DUP2 SWAP1 SSTORE POP PUSH2 0x950 PUSH32 0x0 CALLER DUP8 PUSH2 0xF0B JUMP JUMPDEST PUSH2 0x97B PUSH32 0x0 CALLER DUP7 PUSH2 0xF0B JUMP JUMPDEST PUSH2 0x983 PUSH2 0xFC6 JUMP JUMPDEST CALLER PUSH20 0xFFFFFFFFFFFFFFFFFFFFFFFFFFFFFFFFFFFFFFFF AND PUSH32 0x1DC8BB69DF2B8E91FBDCBFCF93D951B3F0000F085A95FE3F7946D6161439245D DUP7 DUP7 DUP10 PUSH1 0x40 MLOAD PUSH2 0x9CD SWAP4 SWAP3 SWAP2 SWAP1 PUSH2 0x1867 JUMP JUMPDEST PUSH1 0x40 MLOAD DUP1 SWAP2 SUB SWAP1 LOG2 POP POP POP PUSH1 0x1 PUSH1 0x3 PUSH0 PUSH2 0x100 EXP DUP2 SLOAD DUP2 PUSH1 0xFF MUL NOT AND SWAP1 DUP4 PUSH1 0xFF AND MUL OR SWAP1 SSTORE POP SWAP2 POP SWAP2 JUMP JUMPDEST PUSH0 PUSH1 0x1 PUSH1 0x3 PUSH0 SWAP1 SLOAD SWAP1 PUSH2 0x100 EXP SWAP1 DIV PUSH1 0xFF AND PUSH1 0xFF AND EQ PUSH2 0xA4D JUMPI PUSH1 0x40 MLOAD PUSH32 0x8C379A000000000000000000000000000000000000000000000000000000000 DUP2 MSTORE PUSH1 0x4 ADD PUSH2 0xA44 SWAP1 PUSH2 0x14DE JUMP JUMPDEST PUSH1 0x40 MLOAD DUP1 SWAP2 SUB SWAP1 REVERT JUMPDEST PUSH1 0x2 PUSH1 0x3 PUSH0 PUSH2 0x100 EXP DUP2 SLOAD DUP2 PUSH1 0xFF MUL NOT AND SWAP1 DUP4 PUSH1 0xFF AND MUL OR SWAP1 SSTORE POP PUSH0 DUP4 GT DUP1 ISZERO PUSH2 0xA76 JUMPI POP PUSH0 DUP3 GT JUMPDEST PUSH2 0xAB5 JUMPI PUSH1 0x40 MLOAD PUSH32 0x8C379A000000000000000000000000000000000000000000000000000000000 DUP2 MSTORE PUSH1 0x4 ADD PUSH2 0xAAC SWAP1 PUSH2 0x18E6 JUMP JUMPDEST PUSH1 0x40 MLOAD DUP1 SWAP2 SUB SWAP1 REVERT JUMPDEST PUSH2 0xAE1 PUSH32 0x0 CALLER ADDRESS DUP7 PUSH2 0xDDD JUMP JUMPDEST PUSH2 0xB0D PUSH32 0x0 CALLER ADDRESS DUP6 PUSH2 0xDDD JUMP JUMPDEST PUSH0 PUSH0 PUSH2 0xB17 PUSH2 0x115D JUMP JUMPDEST SWAP2 POP SWAP2 POP PUSH0 PUSH1 0x2 SLOAD SUB PUSH2 0xB81 JUMPI PUSH2 0xB38 DUP5 DUP7 PUSH2 0xB33 SWAP2 SWAP1 PUSH2 0x17C9 JUMP JUMPDEST PUSH2 0x11BE JUMP JUMPDEST SWAP3 POP PUSH0 DUP4 GT PUSH2 0xB7C JUMPI PUSH1 0x40 MLOAD PUSH32 0x8C379A000000000000000000000000000000000000000000000000000000000 DUP2 MSTORE PUSH1 0x4 ADD PUSH2 0xB73 SWAP1 PUSH2 0x194E JUMP JUMPDEST PUSH1 0x40 MLOAD DUP1 SWAP2 SUB SWAP1 REVERT JUMPDEST PUSH2 0xC0F JUMP JUMPDEST PUSH0 DUP3 PUSH1 0x2 SLOAD DUP8 PUSH2 0xB91 SWAP2 SWAP1 PUSH2 0x17C9 JUMP JUMPDEST PUSH2 0xB9B SWAP2 SWAP1 PUSH2 0x1837 JUMP JUMPDEST SWAP1 POP PUSH0 DUP3 PUSH1 0x2 SLOAD DUP8 PUSH2 0xBAD SWAP2 SWAP1 PUSH2 0x17C9 JUMP JUMPDEST PUSH2 0xBB7 SWAP2 SWAP1 PUSH2 0x1837 JUMP JUMPDEST SWAP1 POP DUP1 DUP3 LT PUSH2 0xBC6 JUMPI DUP1 PUSH2 0xBC8 JUMP JUMPDEST DUP2 JUMPDEST SWAP5 POP PUSH0 DUP6 GT PUSH2 0xC0C JUMPI PUSH1 0x40 MLOAD PUSH32 0x8C379A000000000000000000000000000000000000000000000000000000000 DUP2 MSTORE PUSH1 0x4 ADD PUSH2 0xC03 SWAP1 PUSH2 0x194E JUMP JUMPDEST PUSH1 0x40 MLOAD DUP1 SWAP2 SUB SWAP1 REVERT JUMPDEST POP POP JUMPDEST DUP3 PUSH1 0x1 PUSH0 CALLER PUSH20 0xFFFFFFFFFFFFFFFFFFFFFFFFFFFFFFFFFFFFFFFF AND PUSH20 0xFFFFFFFFFFFFFFFFFFFFFFFFFFFFFFFFFFFFFFFF AND DUP2 MSTORE PUSH1 0x20 ADD SWAP1 DUP2 MSTORE PUSH1 0x20 ADD PUSH0 KECCAK256 PUSH0 DUP3 DUP3 SLOAD PUSH2 0xC5B SWAP2 SWAP1 PUSH2 0x196C JUMP JUMPDEST SWAP3 POP POP DUP2 SWAP1 SSTORE POP DUP3 PUSH1 0x2 PUSH0 DUP3 DUP3 SLOAD PUSH2 0xC73 SWAP2 SWAP1 PUSH2 0x196C JUMP JUMPDEST SWAP3 POP POP DUP2 SWAP1 SSTORE POP PUSH2 0xC82 PUSH2 0xFC6 JUMP JUMPDEST CALLER PUSH20 0xFFFFFFFFFFFFFFFFFFFFFFFFFFFFFFFFFFFFFFFF AND PUSH32 0x64B83944E79C3CE8D4C297411DE637C3E102D064677AAC0C163976EBDCD6F50E DUP7 DUP7 DUP7 PUSH1 0x40 MLOAD PUSH2 0xCCC SWAP4 SWAP3 SWAP2 SWAP1 PUSH2 0x1867 JUMP JUMPDEST PUSH1 0x40 MLOAD DUP1 SWAP2 SUB SWAP1 LOG2 POP POP PUSH1 0x1 PUSH1 0x3 PUSH0 PUSH2 0x100 EXP DUP2 SLOAD DUP2 PUSH1 0xFF MUL NOT AND SWAP1 DUP4 PUSH1 0xFF AND MUL OR SWAP1 SSTORE POP SWAP3 SWAP2 POP POP JUMP JUMPDEST PUSH1 0x1 PUSH1 0x20 MSTORE DUP1 PUSH0 MSTORE PUSH1 0x40 PUSH0 KECCAK256 PUSH0 SWAP2 POP SWAP1 POP SLOAD DUP2 JUMP JUMPDEST PUSH32 0x0 DUP2 JUMP JUMPDEST PUSH0 PUSH32 0x0 PUSH20 0xFFFFFFFFFFFFFFFFFFFFFFFFFFFFFFFFFFFFFFFF AND DUP3 PUSH20 0xFFFFFFFFFFFFFFFFFFFFFFFFFFFFFFFFFFFFFFFF AND EQ DUP1 PUSH2 0xDD6 JUMPI POP PUSH32 0x0 PUSH20 0xFFFFFFFFFFFFFFFFFFFFFFFFFFFFFFFFFFFFFFFF AND DUP3 PUSH20 0xFFFFFFFFFFFFFFFFFFFFFFFFFFFFFFFFFFFFFFFF AND EQ JUMPDEST SWAP1 POP SWAP2 SWAP1 POP JUMP JUMPDEST PUSH0 DUP5 PUSH20 0xFFFFFFFFFFFFFFFFFFFFFFFFFFFFFFFFFFFFFFFF AND PUSH4 0x23B872DD DUP6 DUP6 DUP6 PUSH1 0x40 MLOAD DUP5 PUSH4 0xFFFFFFFF AND PUSH1 0xE0 SHL DUP2 MSTORE PUSH1 0x4 ADD PUSH2 0xE1B SWAP4 SWAP3 SWAP2 SWAP1 PUSH2 0x199F JUMP JUMPDEST PUSH1 0x20 PUSH1 0x40 MLOAD DUP1 DUP4 SUB DUP2 PUSH0 DUP8 GAS CALL ISZERO DUP1 ISZERO PUSH2 0xE37 JUMPI RETURNDATASIZE PUSH0 PUSH0 RETURNDATACOPY RETURNDATASIZE PUSH0 REVERT JUMPDEST POP POP POP POP PUSH1 0x40 MLOAD RETURNDATASIZE PUSH1 0x1F NOT PUSH1 0x1F DUP3 ADD AND DUP3 ADD DUP1 PUSH1 0x40 MSTORE POP DUP2 ADD SWAP1 PUSH2 0xE5B SWAP2 SWAP1 PUSH2 0x1A09 JUMP JUMPDEST SWAP1 POP DUP1 PUSH2 0xE94 JUMPI PUSH1 0x40 MLOAD PUSH32 0x90B8EC1800000000000000000000000000000000000000000000000000000000 DUP2 MSTORE PUSH1 0x4 ADD PUSH1 0x40 MLOAD DUP1 SWAP2 SUB SWAP1 REVERT JUMPDEST POP POP POP POP POP JUMP JUMPDEST PUSH0 PUSH0 DUP4 EQ DUP1 PUSH2 0xEA9 JUMPI POP PUSH0 DUP3 EQ JUMPDEST ISZERO PUSH2 0xEB6 JUMPI PUSH0 SWAP1 POP PUSH2 0xF04 JUMP JUMPDEST PUSH0 PUSH2 0x3E5 DUP6 PUSH2 0xEC5 SWAP2 SWAP1 PUSH2 0x17C9 JUMP JUMPDEST SWAP1 POP PUSH0 DUP4 DUP3 PUSH2 0xED4 SWAP2 SWAP1 PUSH2 0x17C9 JUMP JUMPDEST SWAP1 POP PUSH0 DUP3 PUSH2 0x3E8 DUP8 PUSH2 0xEE6 SWAP2 SWAP1 PUSH2 0x17C9 JUMP JUMPDEST PUSH2 0xEF0 SWAP2 SWAP1 PUSH2 0x196C JUMP JUMPDEST SWAP1 POP DUP1 DUP3 PUSH2 0xEFE SWAP2 SWAP1 PUSH2 0x1837 JUMP JUMPDEST SWAP4 POP POP POP POP JUMPDEST SWAP4 SWAP3 POP POP POP JUMP JUMPDEST PUSH0 DUP4 PUSH20 0xFFFFFFFFFFFFFFFFFFFFFFFFFFFFFFFFFFFFFFFF AND PUSH4 0xA9059CBB DUP5 DUP5 PUSH1 0x40 MLOAD DUP4 PUSH4 0xFFFFFFFF AND PUSH1 0xE0 SHL DUP2 MSTORE PUSH1 0x4 ADD PUSH2 0xF47 SWAP3 SWAP2 SWAP1 PUSH2 0x1A34 JUMP JUMPDEST PUSH1 0x20 PUSH1 0x40 MLOAD DUP1 DUP4 SUB DUP2 PUSH0 DUP8 GAS CALL ISZERO DUP1 ISZERO PUSH2 0xF63 JUMPI RETURNDATASIZE PUSH0 PUSH0 RETURNDATACOPY RETURNDATASIZE PUSH0 REVERT JUMPDEST POP POP POP POP PUSH1 0x40 MLOAD RETURNDATASIZE PUSH1 0x1F NOT PUSH1 0x1F DUP3 ADD AND DUP3 ADD DUP1 PUSH1 0x40 MSTORE POP DUP2 ADD SWAP1 PUSH2 0xF87 SWAP2 SWAP1 PUSH2 0x1A09 JUMP JUMPDEST SWAP1 POP DUP1 PUSH2 0xFC0 JUMPI PUSH1 0x40 MLOAD PUSH32 0x90B8EC1800000000000000000000000000000000000000000000000000000000 DUP2 MSTORE PUSH1 0x4 ADD PUSH1 0x40 MLOAD DUP1 SWAP2 SUB SWAP1 REVERT JUMPDEST POP POP POP POP JUMP JUMPDEST PUSH32 0x0 PUSH20 0xFFFFFFFFFFFFFFFFFFFFFFFFFFFFFFFFFFFFFFFF AND PUSH4 0x70A08231 ADDRESS PUSH1 0x40 MLOAD DUP3 PUSH4 0xFFFFFFFF AND PUSH1 0xE0 SHL DUP2 MSTORE PUSH1 0x4 ADD PUSH2 0x101F SWAP2 SWAP1 PUSH2 0x12C3 JUMP JUMPDEST PUSH1 0x20 PUSH1 0x40 MLOAD DUP1 DUP4 SUB DUP2 DUP7 GAS STATICCALL ISZERO DUP1 ISZERO PUSH2 0x103A JUMPI RETURNDATASIZE PUSH0 PUSH0 RETURNDATACOPY RETURNDATASIZE PUSH0 REVERT JUMPDEST POP POP POP POP PUSH1 0x40 MLOAD RETURNDATASIZE PUSH1 0x1F NOT PUSH1 0x1F DUP3 ADD AND DUP3 ADD DUP1 PUSH1 0x40 MSTORE POP DUP2 ADD SWAP1 PUSH2 0x105E SWAP2 SWAP1 PUSH2 0x1578 JUMP JUMPDEST PUSH0 PUSH0 PUSH2 0x100 EXP DUP2 SLOAD DUP2 PUSH14 0xFFFFFFFFFFFFFFFFFFFFFFFFFFFF MUL NOT AND SWAP1 DUP4 PUSH14 0xFFFFFFFFFFFFFFFFFFFFFFFFFFFF AND MUL OR SWAP1 SSTORE POP PUSH32 0x0 PUSH20 0xFFFFFFFFFFFFFFFFFFFFFFFFFFFFFFFFFFFFFFFF AND PUSH4 0x70A08231 ADDRESS PUSH1 0x40 MLOAD DUP3 PUSH4 0xFFFFFFFF AND PUSH1 0xE0 SHL DUP2 MSTORE PUSH1 0x4 ADD PUSH2 0x10E9 SWAP2 SWAP1 PUSH2 0x12C3 JUMP JUMPDEST PUSH1 0x20 PUSH1 0x40 MLOAD DUP1 DUP4 SUB DUP2 DUP7 GAS STATICCALL ISZERO DUP1 ISZERO PUSH2 0x1104 JUMPI RETURNDATASIZE PUSH0 PUSH0 RETURNDATACOPY RETURNDATASIZE PUSH0 REVERT JUMPDEST POP POP POP POP PUSH1 0x40 MLOAD RETURNDATASIZE PUSH1 0x1F NOT PUSH1 0x1F DUP3 ADD AND DUP3 ADD DUP1 PUSH1 0x40 MSTORE POP DUP2 ADD SWAP1 PUSH2 0x1128 SWAP2 SWAP1 PUSH2 0x1578 JUMP JUMPDEST PUSH0 PUSH1 0xE PUSH2 0x100 EXP DUP2 SLOAD DUP2 PUSH14 0xFFFFFFFFFFFFFFFFFFFFFFFFFFFF MUL NOT AND SWAP1 DUP4 PUSH14 0xFFFFFFFFFFFFFFFFFFFFFFFFFFFF AND MUL OR SWAP1 SSTORE POP JUMP JUMPDEST PUSH0 PUSH0 PUSH0 PUSH0 SWAP1 SLOAD SWAP1 PUSH2 0x100 EXP SWAP1 DIV PUSH14 0xFFFFFFFFFFFFFFFFFFFFFFFFFFFF AND PUSH14 0xFFFFFFFFFFFFFFFFFFFFFFFFFFFF AND SWAP2 POP PUSH0 PUSH1 0xE SWAP1 SLOAD SWAP1 PUSH2 0x100 EXP SWAP1 DIV PUSH14 0xFFFFFFFFFFFFFFFFFFFFFFFFFFFF AND PUSH14 0xFFFFFFFFFFFFFFFFFFFFFFFFFFFF AND SWAP1 POP SWAP1 SWAP2 JUMP JUMPDEST PUSH0 PUSH1 0x3 DUP3 GT ISZERO PUSH2 0x1223 JUMPI DUP2 SWAP1 POP PUSH0 PUSH1 0x1 PUSH1 0x2 DUP5 PUSH2 0x11DB SWAP2 SWAP1 PUSH2 0x1837 JUMP JUMPDEST PUSH2 0x11E5 SWAP2 SWAP1 PUSH2 0x196C JUMP JUMPDEST SWAP1 POP JUMPDEST DUP2 DUP2 LT ISZERO PUSH2 0x121D JUMPI DUP1 SWAP2 POP PUSH1 0x2 DUP2 DUP3 DUP6 PUSH2 0x1202 SWAP2 SWAP1 PUSH2 0x1837 JUMP JUMPDEST PUSH2 0x120C SWAP2 SWAP1 PUSH2 0x196C JUMP JUMPDEST PUSH2 0x1216 SWAP2 SWAP1 PUSH2 0x1837 JUMP JUMPDEST SWAP1 POP PUSH2 0x11E8 JUMP JUMPDEST POP PUSH2 0x1230 JUMP JUMPDEST PUSH0 DUP3 EQ PUSH2 0x122F JUMPI PUSH1 0x1 SWAP1 POP JUMPDEST JUMPDEST SWAP2 SWAP1 POP JUMP JUMPDEST PUSH0 PUSH14 0xFFFFFFFFFFFFFFFFFFFFFFFFFFFF DUP3 AND SWAP1 POP SWAP2 SWAP1 POP JUMP JUMPDEST PUSH2 0x1257 DUP2 PUSH2 0x1235 JUMP JUMPDEST DUP3 MSTORE POP POP JUMP JUMPDEST PUSH0 PUSH1 0x40 DUP3 ADD SWAP1 POP PUSH2 0x1270 PUSH0 DUP4 ADD DUP6 PUSH2 0x124E JUMP JUMPDEST PUSH2 0x127D PUSH1 0x20 DUP4 ADD DUP5 PUSH2 0x124E JUMP JUMPDEST SWAP4 SWAP3 POP POP POP JUMP JUMPDEST PUSH0 PUSH20 0xFFFFFFFFFFFFFFFFFFFFFFFFFFFFFFFFFFFFFFFF DUP3 AND SWAP1 POP SWAP2 SWAP1 POP JUMP JUMPDEST PUSH0 PUSH2 0x12AD DUP3 PUSH2 0x1284 JUMP JUMPDEST SWAP1 POP SWAP2 SWAP1 POP JUMP JUMPDEST PUSH2 0x12BD DUP2 PUSH2 0x12A3 JUMP JUMPDEST DUP3 MSTORE POP POP JUMP JUMPDEST PUSH0 PUSH1 0x20 DUP3 ADD SWAP1 POP PUSH2 0x12D6 PUSH0 DUP4 ADD DUP5 PUSH2 0x12B4 JUMP JUMPDEST SWAP3 SWAP2 POP POP JUMP JUMPDEST PUSH0 DUP2 SWAP1 POP SWAP2 SWAP1 POP JUMP JUMPDEST PUSH2 0x12EE DUP2 PUSH2 0x12DC JUMP JUMPDEST DUP3 MSTORE POP POP JUMP JUMPDEST PUSH0 PUSH1 0x20 DUP3 ADD SWAP1 POP PUSH2 0x1307 PUSH0 DUP4 ADD DUP5 PUSH2 0x12E5 JUMP JUMPDEST SWAP3 SWAP2 POP POP JUMP JUMPDEST PUSH0 PUSH0 REVERT JUMPDEST PUSH2 0x131A DUP2 PUSH2 0x12A3 JUMP JUMPDEST DUP2 EQ PUSH2 0x1324 JUMPI PUSH0 PUSH0 REVERT JUMPDEST POP JUMP JUMPDEST PUSH0 DUP2 CALLDATALOAD SWAP1 POP PUSH2 0x1335 DUP2 PUSH2 0x1311 JUMP JUMPDEST SWAP3 SWAP2 POP POP JUMP JUMPDEST PUSH2 0x1344 DUP2 PUSH2 0x12DC JUMP JUMPDEST DUP2 EQ PUSH2 0x134E JUMPI PUSH0 PUSH0 REVERT JUMPDEST POP JUMP JUMPDEST PUSH0 DUP2 CALLDATALOAD SWAP1 POP PUSH2 0x135F DUP2 PUSH2 0x133B JUMP JUMPDEST SWAP3 SWAP2 POP POP JUMP JUMPDEST PUSH0 PUSH0 PUSH0 PUSH0 PUSH1 0x80 DUP6 DUP8 SUB SLT ISZERO PUSH2 0x137D JUMPI PUSH2 0x137C PUSH2 0x130D JUMP JUMPDEST JUMPDEST PUSH0 PUSH2 0x138A DUP8 DUP3 DUP9 ADD PUSH2 0x1327 JUMP JUMPDEST SWAP5 POP POP PUSH1 0x20 PUSH2 0x139B DUP8 DUP3 DUP9 ADD PUSH2 0x1327 JUMP JUMPDEST SWAP4 POP POP PUSH1 0x40 PUSH2 0x13AC DUP8 DUP3 DUP9 ADD PUSH2 0x1351 JUMP JUMPDEST SWAP3 POP POP PUSH1 0x60 PUSH2 0x13BD DUP8 DUP3 DUP9 ADD PUSH2 0x1351 JUMP JUMPDEST SWAP2 POP POP SWAP3 SWAP6 SWAP2 SWAP5 POP SWAP3 POP JUMP JUMPDEST PUSH0 PUSH1 0x20 DUP3 DUP5 SUB SLT ISZERO PUSH2 0x13DE JUMPI PUSH2 0x13DD PUSH2 0x130D JUMP JUMPDEST JUMPDEST PUSH0 PUSH2 0x13EB DUP5 DUP3 DUP6 ADD PUSH2 0x1351 JUMP JUMPDEST SWAP2 POP POP SWAP3 SWAP2 POP POP JUMP JUMPDEST PUSH0 PUSH1 0x40 DUP3 ADD SWAP1 POP PUSH2 0x1407 PUSH0 DUP4 ADD DUP6 PUSH2 0x12E5 JUMP JUMPDEST PUSH2 0x1414 PUSH1 0x20 DUP4 ADD DUP5 PUSH2 0x12E5 JUMP JUMPDEST SWAP4 SWAP3 POP POP POP JUMP JUMPDEST PUSH0 PUSH0 PUSH1 0x40 DUP4 DUP6 SUB SLT ISZERO PUSH2 0x1431 JUMPI PUSH2 0x1430 PUSH2 0x130D JUMP JUMPDEST JUMPDEST PUSH0 PUSH2 0x143E DUP6 DUP3 DUP7 ADD PUSH2 0x1351 JUMP JUMPDEST SWAP3 POP POP PUSH1 0x20 PUSH2 0x144F DUP6 DUP3 DUP7 ADD PUSH2 0x1351 JUMP JUMPDEST SWAP2 POP POP SWAP3 POP SWAP3 SWAP1 POP JUMP JUMPDEST PUSH0 PUSH1 0x20 DUP3 DUP5 SUB SLT ISZERO PUSH2 0x146E JUMPI PUSH2 0x146D PUSH2 0x130D JUMP JUMPDEST JUMPDEST PUSH0 PUSH2 0x147B DUP5 DUP3 DUP6 ADD PUSH2 0x1327 JUMP JUMPDEST SWAP2 POP POP SWAP3 SWAP2 POP POP JUMP JUMPDEST PUSH0 DUP3 DUP3 MSTORE PUSH1 0x20 DUP3 ADD SWAP1 POP SWAP3 SWAP2 POP POP JUMP JUMPDEST PUSH32 0x5265656E7472616E740000000000000000000000000000000000000000000000 PUSH0 DUP3 ADD MSTORE POP JUMP JUMPDEST PUSH0 PUSH2 0x14C8 PUSH1 0x9 DUP4 PUSH2 0x1484 JUMP JUMPDEST SWAP2 POP PUSH2 0x14D3 DUP3 PUSH2 0x1494 JUMP JUMPDEST PUSH1 0x20 DUP3 ADD SWAP1 POP SWAP2 SWAP1 POP JUMP JUMPDEST PUSH0 PUSH1 0x20 DUP3 ADD SWAP1 POP DUP2 DUP2 SUB PUSH0 DUP4 ADD MSTORE PUSH2 0x14F5 DUP2 PUSH2 0x14BC JUMP JUMPDEST SWAP1 POP SWAP2 SWAP1 POP JUMP JUMPDEST PUSH32 0x5A65726F20696E70757400000000000000000000000000000000000000000000 PUSH0 DUP3 ADD MSTORE POP JUMP JUMPDEST PUSH0 PUSH2 0x1530 PUSH1 0xA DUP4 PUSH2 0x1484 JUMP JUMPDEST SWAP2 POP PUSH2 0x153B DUP3 PUSH2 0x14FC JUMP JUMPDEST PUSH1 0x20 DUP3 ADD SWAP1 POP SWAP2 SWAP1 POP JUMP JUMPDEST PUSH0 PUSH1 0x20 DUP3 ADD SWAP1 POP DUP2 DUP2 SUB PUSH0 DUP4 ADD MSTORE PUSH2 0x155D DUP2 PUSH2 0x1524 JUMP JUMPDEST SWAP1 POP SWAP2 SWAP1 POP JUMP JUMPDEST PUSH0 DUP2 MLOAD SWAP1 POP PUSH2 0x1572 DUP2 PUSH2 0x133B JUMP JUMPDEST SWAP3 SWAP2 POP POP JUMP JUMPDEST PUSH0 PUSH1 0x20 DUP3 DUP5 SUB SLT ISZERO PUSH2 0x158D JUMPI PUSH2 0x158C PUSH2 0x130D JUMP JUMPDEST JUMPDEST PUSH0 PUSH2 0x159A DUP5 DUP3 DUP6 ADD PUSH2 0x1564 JUMP JUMPDEST SWAP2 POP POP SWAP3 SWAP2 POP POP JUMP JUMPDEST PUSH32 0x4E487B7100000000000000000000000000000000000000000000000000000000 PUSH0 MSTORE PUSH1 0x11 PUSH1 0x4 MSTORE PUSH1 0x24 PUSH0 REVERT JUMPDEST PUSH0 PUSH2 0x15DA DUP3 PUSH2 0x12DC JUMP JUMPDEST SWAP2 POP PUSH2 0x15E5 DUP4 PUSH2 0x12DC JUMP JUMPDEST SWAP3 POP DUP3 DUP3 SUB SWAP1 POP DUP2 DUP2 GT ISZERO PUSH2 0x15FD JUMPI PUSH2 0x15FC PUSH2 0x15A3 JUMP JUMPDEST JUMPDEST SWAP3 SWAP2 POP POP JUMP JUMPDEST PUSH32 0x536C6970706167653A20616D6F756E744F7574203C206D696E416D6F756E744F PUSH0 DUP3 ADD MSTORE PUSH32 0x7574000000000000000000000000000000000000000000000000000000000000 PUSH1 0x20 DUP3 ADD MSTORE POP JUMP JUMPDEST PUSH0 PUSH2 0x165D PUSH1 0x22 DUP4 PUSH2 0x1484 JUMP JUMPDEST SWAP2 POP PUSH2 0x1668 DUP3 PUSH2 0x1603 JUMP JUMPDEST PUSH1 0x40 DUP3 ADD SWAP1 POP SWAP2 SWAP1 POP JUMP JUMPDEST PUSH0 PUSH1 0x20 DUP3 ADD SWAP1 POP DUP2 DUP2 SUB PUSH0 DUP4 ADD MSTORE PUSH2 0x168A DUP2 PUSH2 0x1651 JUMP JUMPDEST SWAP1 POP SWAP2 SWAP1 POP JUMP JUMPDEST PUSH32 0x5A65726F206F7574707574000000000000000000000000000000000000000000 PUSH0 DUP3 ADD MSTORE POP JUMP JUMPDEST PUSH0 PUSH2 0x16C5 PUSH1 0xB DUP4 PUSH2 0x1484 JUMP JUMPDEST SWAP2 POP PUSH2 0x16D0 DUP3 PUSH2 0x1691 JUMP JUMPDEST PUSH1 0x20 DUP3 ADD SWAP1 POP SWAP2 SWAP1 POP JUMP JUMPDEST PUSH0 PUSH1 0x20 DUP3 ADD SWAP1 POP DUP2 DUP2 SUB PUSH0 DUP4 ADD MSTORE PUSH2 0x16F2 DUP2 PUSH2 0x16B9 JUMP JUMPDEST SWAP1 POP SWAP2 SWAP1 POP JUMP JUMPDEST PUSH32 0x496E76616C696420736861726500000000000000000000000000000000000000 PUSH0 DUP3 ADD MSTORE POP JUMP JUMPDEST PUSH0 PUSH2 0x172D PUSH1 0xD DUP4 PUSH2 0x1484 JUMP JUMPDEST SWAP2 POP PUSH2 0x1738 DUP3 PUSH2 0x16F9 JUMP JUMPDEST PUSH1 0x20 DUP3 ADD SWAP1 POP SWAP2 SWAP1 POP JUMP JUMPDEST PUSH0 PUSH1 0x20 DUP3 ADD SWAP1 POP DUP2 DUP2 SUB PUSH0 DUP4 ADD MSTORE PUSH2 0x175A DUP2 PUSH2 0x1721 JUMP JUMPDEST SWAP1 POP SWAP2 SWAP1 POP JUMP JUMPDEST PUSH32 0x4E6F206C69717569646974790000000000000000000000000000000000000000 PUSH0 DUP3 ADD MSTORE POP JUMP JUMPDEST PUSH0 PUSH2 0x1795 PUSH1 0xC DUP4 PUSH2 0x1484 JUMP JUMPDEST SWAP2 POP PUSH2 0x17A0 DUP3 PUSH2 0x1761 JUMP JUMPDEST PUSH1 0x20 DUP3 ADD SWAP1 POP SWAP2 SWAP1 POP JUMP JUMPDEST PUSH0 PUSH1 0x20 DUP3 ADD SWAP1 POP DUP2 DUP2 SUB PUSH0 DUP4 ADD MSTORE PUSH2 0x17C2 DUP2 PUSH2 0x1789 JUMP JUMPDEST SWAP1 POP SWAP2 SWAP1 POP JUMP JUMPDEST PUSH0 PUSH2 0x17D3 DUP3 PUSH2 0x12DC JUMP JUMPDEST SWAP2 POP PUSH2 0x17DE DUP4 PUSH2 0x12DC JUMP JUMPDEST SWAP3 POP DUP3 DUP3 MUL PUSH2 0x17EC DUP2 PUSH2 0x12DC JUMP JUMPDEST SWAP2 POP DUP3 DUP3 DIV DUP5 EQ DUP4 ISZERO OR PUSH2 0x1803 JUMPI PUSH2 0x1802 PUSH2 0x15A3 JUMP JUMPDEST JUMPDEST POP SWAP3 SWAP2 POP POP JUMP JUMPDEST PUSH32 0x4E487B7100000000000000000000000000000000000000000000000000000000 PUSH0 MSTORE PUSH1 0x12 PUSH1 0x4 MSTORE PUSH1 0x24 PUSH0 REVERT JUMPDEST PUSH0 PUSH2 0x1841 DUP3 PUSH2 0x12DC JUMP JUMPDEST SWAP2 POP PUSH2 0x184C DUP4 PUSH2 0x12DC JUMP JUMPDEST SWAP3 POP DUP3 PUSH2 0x185C JUMPI PUSH2 0x185B PUSH2 0x180A JUMP JUMPDEST JUMPDEST DUP3 DUP3 DIV SWAP1 POP SWAP3 SWAP2 POP POP JUMP JUMPDEST PUSH0 PUSH1 0x60 DUP3 ADD SWAP1 POP PUSH2 0x187A PUSH0 DUP4 ADD DUP7 PUSH2 0x12E5 JUMP JUMPDEST PUSH2 0x1887 PUSH1 0x20 DUP4 ADD DUP6 PUSH2 0x12E5 JUMP JUMPDEST PUSH2 0x1894 PUSH1 0x40 DUP4 ADD DUP5 PUSH2 0x12E5 JUMP JUMPDEST SWAP5 SWAP4 POP POP POP POP JUMP JUMPDEST PUSH32 0x5A65726F20616D6F756E74730000000000000000000000000000000000000000 PUSH0 DUP3 ADD MSTORE POP JUMP JUMPDEST PUSH0 PUSH2 0x18D0 PUSH1 0xC DUP4 PUSH2 0x1484 JUMP JUMPDEST SWAP2 POP PUSH2 0x18DB DUP3 PUSH2 0x189C JUMP JUMPDEST PUSH1 0x20 DUP3 ADD SWAP1 POP SWAP2 SWAP1 POP JUMP JUMPDEST PUSH0 PUSH1 0x20 DUP3 ADD SWAP1 POP DUP2 DUP2 SUB PUSH0 DUP4 ADD MSTORE PUSH2 0x18FD DUP2 PUSH2 0x18C4 JUMP JUMPDEST SWAP1 POP SWAP2 SWAP1 POP JUMP JUMPDEST PUSH32 0x496E73756666696369656E74206C6971756964697479206D696E746564000000 PUSH0 DUP3 ADD MSTORE POP JUMP JUMPDEST PUSH0 PUSH2 0x1938 PUSH1 0x1D DUP4 PUSH2 0x1484 JUMP JUMPDEST SWAP2 POP PUSH2 0x1943 DUP3 PUSH2 0x1904 JUMP JUMPDEST PUSH1 0x20 DUP3 ADD SWAP1 POP SWAP2 SWAP1 POP JUMP JUMPDEST PUSH0 PUSH1 0x20 DUP3 ADD SWAP1 POP DUP2 DUP2 SUB PUSH0 DUP4 ADD MSTORE PUSH2 0x1965 DUP2 PUSH2 0x192C JUMP JUMPDEST SWAP1 POP SWAP2 SWAP1 POP JUMP JUMPDEST PUSH0 PUSH2 0x1976 DUP3 PUSH2 0x12DC JUMP JUMPDEST SWAP2 POP PUSH2 0x1981 DUP4 PUSH2 0x12DC JUMP JUMPDEST SWAP3 POP DUP3 DUP3 ADD SWAP1 POP DUP1 DUP3 GT ISZERO PUSH2 0x1999 JUMPI PUSH2 0x1998 PUSH2 0x15A3 JUMP JUMPDEST JUMPDEST SWAP3 SWAP2 POP POP JUMP JUMPDEST PUSH0 PUSH1 0x60 DUP3 ADD SWAP1 POP PUSH2 0x19B2 PUSH0 DUP4 ADD DUP7 PUSH2 0x12B4 JUMP JUMPDEST PUSH2 0x19BF PUSH1 0x20 DUP4 ADD DUP6 PUSH2 0x12B4 JUMP JUMPDEST PUSH2 0x19CC PUSH1 0x40 DUP4 ADD DUP5 PUSH2 0x12E5 JUMP JUMPDEST SWAP5 SWAP4 POP POP POP POP JUMP JUMPDEST PUSH0 DUP2 ISZERO ISZERO SWAP1 POP SWAP2 SWAP1 POP JUMP JUMPDEST PUSH2 0x19E8 DUP2 PUSH2 0x19D4 JUMP JUMPDEST DUP2 EQ PUSH2 0x19F2 JUMPI PUSH0 PUSH0 REVERT JUMPDEST POP JUMP JUMPDEST PUSH0 DUP2 MLOAD SWAP1 POP PUSH2 0x1A03 DUP2 PUSH2 0x19DF JUMP JUMPDEST SWAP3 SWAP2 POP POP JUMP JUMPDEST PUSH0 PUSH1 0x20 DUP3 DUP5 SUB SLT ISZERO PUSH2 0x1A1E JUMPI PUSH2 0x1A1D PUSH2 0x130D JUMP JUMPDEST JUMPDEST PUSH0 PUSH2 0x1A2B DUP5 DUP3 DUP6 ADD PUSH2 0x19F5 JUMP JUMPDEST SWAP2 POP POP SWAP3 SWAP2 POP POP JUMP JUMPDEST PUSH0 PUSH1 0x40 DUP3 ADD SWAP1 POP PUSH2 0x1A47 PUSH0 DUP4 ADD DUP6 PUSH2 0x12B4 JUMP JUMPDEST PUSH2 0x1A54 PUSH1 0x20 DUP4 ADD DUP5 PUSH2 0x12E5 JUMP JUMPDEST SWAP4 SWAP3 POP POP POP JUMP INVALID LOG2 PUSH5 0x6970667358 0x22 SLT KECCAK256 0x1E 0xB6 0x27 DUP9 JUMPF 0x1BC2 PUSH29 0x823771315A28C61FF70F902D5867185104EF04BD4F8BC42164736F6C63 NUMBER STOP ADDMOD 0x1E STOP CALLER "
				},
				"gasEstimates": {
					"creation": {
						"codeDepositCost": "1360200",
						"executionCost": "infinite",
						"totalCost": "infinite"
					},
					"external": {
						"addLiquidity(uint256,uint256)": "infinite",
						"getReserves()": "infinite",
						"liquidity(address)": "2846",
						"removeLiquidity(uint256)": "infinite",
						"swapTokens(address,address,uint256,uint256)": "infinite",
						"token0()": "infinite",
						"token1()": "infinite",
						"totalLiquidity()": "2470"
					},
					"internal": {
						"_getAmountOut(uint256,uint256,uint256)": "infinite",
						"_getReserves()": "4366",
						"_isPairToken(address)": "infinite",
						"_safeTransfer(contract IERC20,address,uint256)": "infinite",
						"_safeTransferFrom(contract IERC20,address,address,uint256)": "infinite",
						"_sqrt(uint256)": "infinite",
						"_updateReserves()": "infinite"
					}
				},
				"methodIdentifiers": {
					"addLiquidity(uint256,uint256)": "9cd441da",
					"getReserves()": "0902f1ac",
					"liquidity(address)": "b8c876b1",
					"removeLiquidity(uint256)": "9c8f9f23",
					"swapTokens(address,address,uint256,uint256)": "8e18cdfc",
					"token0()": "0dfe1681",
					"token1()": "d21220a7",
					"totalLiquidity()": "15770f92"
				}
			},
			"storageLayout": {
				"storage": [
					{
						"astId": 359,
						"contract": "Contract Conqueror/swaptoken/swap.sol:SimpleSwap",
						"label": "reserve0",
						"offset": 0,
						"slot": "0",
						"type": "t_uint112"
					},
					{
						"astId": 361,
						"contract": "Contract Conqueror/swaptoken/swap.sol:SimpleSwap",
						"label": "reserve1",
						"offset": 14,
						"slot": "0",
						"type": "t_uint112"
					},
					{
						"astId": 365,
						"contract": "Contract Conqueror/swaptoken/swap.sol:SimpleSwap",
						"label": "liquidity",
						"offset": 0,
						"slot": "1",
						"type": "t_mapping(t_address,t_uint256)"
					},
					{
						"astId": 367,
						"contract": "Contract Conqueror/swaptoken/swap.sol:SimpleSwap",
						"label": "totalLiquidity",
						"offset": 0,
						"slot": "2",
						"type": "t_uint256"
					},
					{
						"astId": 376,
						"contract": "Contract Conqueror/swaptoken/swap.sol:SimpleSwap",
						"label": "locked",
						"offset": 0,
						"slot": "3",
						"type": "t_uint8"
					}
				],
				"types": {
					"t_address": {
						"encoding": "inplace",
						"label": "address",
						"numberOfBytes": "20"
					},
					"t_mapping(t_address,t_uint256)": {
						"encoding": "mapping",
						"key": "t_address",
						"label": "mapping(address => uint256)",
						"numberOfBytes": "32",
						"value": "t_uint256"
					},
					"t_uint112": {
						"encoding": "inplace",
						"label": "uint112",
						"numberOfBytes": "14"
					},
					"t_uint256": {
						"encoding": "inplace",
						"label": "uint256",
						"numberOfBytes": "32"
					},
					"t_uint8": {
						"encoding": "inplace",
						"label": "uint8",
						"numberOfBytes": "1"
					}
				}
			},
			"userdoc": {
				"kind": "user",
				"methods": {
					"addLiquidity(uint256,uint256)": {
						"notice": "Add liquidity to the pool. Caller must approve tokens beforehand."
					},
					"getReserves()": {
						"notice": "Returns current reserves."
					},
					"removeLiquidity(uint256)": {
						"notice": "Remove liquidity by burning your share."
					},
					"swapTokens(address,address,uint256,uint256)": {
						"notice": "Swap tokens inside the pool."
					}
				},
				"notice": "SimpleSwap: single-pair AMM with basic liquidity shares (LP accounting) and swap function.",
				"version": 1
			}
		}
	}
}