{
	"data": {
		"bytecode": {
			"linkReferences": {},
			"object": "6080604052348015600e575f5ffd5b5061031f8061001c5f395ff3fe608060405234801561000f575f5ffd5b5060043610610034575f3560e01c806336e94be51461003857806395b2d84814610068575b5f5ffd5b610052600480360381019061004d9190610154565b610098565b60405161005f91906101ac565b60405180910390f35b610082600480360381019061007d91906101c5565b6100be565b60405161008f91906101ff565b60405180910390f35b5f5f82846100a69190610245565b036100b457600190506100b8565b5f90505b92915050565b5f5f5f90505f600190505b838111610113575f81856100dd9190610245565b1480156100f157506100f0846002610098565b5b61010257816100ff906102a2565b91505b8061010c906102a2565b90506100c9565b5080915050919050565b5f5ffd5b5f819050919050565b61013381610121565b811461013d575f5ffd5b50565b5f8135905061014e8161012a565b92915050565b5f5f6040838503121561016a5761016961011d565b5b5f61017785828601610140565b925050602061018885828601610140565b9150509250929050565b5f8115159050919050565b6101a681610192565b82525050565b5f6020820190506101bf5f83018461019d565b92915050565b5f602082840312156101da576101d961011d565b5b5f6101e784828501610140565b91505092915050565b6101f981610121565b82525050565b5f6020820190506102125f8301846101f0565b92915050565b7f4e487b71000000000000000000000000000000000000000000000000000000005f52601260045260245ffd5b5f61024f82610121565b915061025a83610121565b92508261026a57610269610218565b5b828206905092915050565b7f4e487b71000000000000000000000000000000000000000000000000000000005f52601160045260245ffd5b5f6102ac82610121565b91507fffffffffffffffffffffffffffffffffffffffffffffffffffffffffffffffff82036102de576102dd610275565b5b60018201905091905056fea264697066735822122045f26ed322b73feee8462d24d4f7abf79df52f07baf688cb13f7b4d28c8adad164736f6c634300081e0033",
			"opcodes": "PUSH1 0x80 PUSH1 0x40 MSTORE CALLVALUE DUP1 ISZERO PUSH1 0xE JUMPI PUSH0 PUSH0 REVERT JUMPDEST POP PUSH2 0x31F DUP1 PUSH2 0x1C PUSH0 CODECOPY PUSH0 RETURN INVALID PUSH1 0x80 PUSH1 0x40 MSTORE CALLVALUE DUP1 ISZERO PUSH2 0xF JUMPI PUSH0 PUSH0 REVERT JUMPDEST POP PUSH1 0x4 CALLDATASIZE LT PUSH2 0x34 JUMPI PUSH0 CALLDATALOAD PUSH1 0xE0 SHR DUP1 PUSH4 0x36E94BE5 EQ PUSH2 0x38 JUMPI DUP1 PUSH4 0x95B2D848 EQ PUSH2 0x68 JUMPI JUMPDEST PUSH0 PUSH0 REVERT JUMPDEST PUSH2 0x52 PUSH1 0x4 DUP1 CALLDATASIZE SUB DUP2 ADD SWAP1 PUSH2 0x4D SWAP2 SWAP1 PUSH2 0x154 JUMP JUMPDEST PUSH2 0x98 JUMP JUMPDEST PUSH1 0x40 MLOAD PUSH2 0x5F SWAP2 SWAP1 PUSH2 0x1AC JUMP JUMPDEST PUSH1 0x40 MLOAD DUP1 SWAP2 SUB SWAP1 RETURN JUMPDEST PUSH2 0x82 PUSH1 0x4 DUP1 CALLDATASIZE SUB DUP2 ADD SWAP1 PUSH2 0x7D SWAP2 SWAP1 PUSH2 0x1C5 JUMP JUMPDEST PUSH2 0xBE JUMP JUMPDEST PUSH1 0x40 MLOAD PUSH2 0x8F SWAP2 SWAP1 PUSH2 0x1FF JUMP JUMPDEST PUSH1 0x40 MLOAD DUP1 SWAP2 SUB SWAP1 RETURN JUMPDEST PUSH0 PUSH0 DUP3 DUP5 PUSH2 0xA6 SWAP2 SWAP1 PUSH2 0x245 JUMP JUMPDEST SUB PUSH2 0xB4 JUMPI PUSH1 0x1 SWAP1 POP PUSH2 0xB8 JUMP JUMPDEST PUSH0 SWAP1 POP JUMPDEST SWAP3 SWAP2 POP POP JUMP JUMPDEST PUSH0 PUSH0 PUSH0 SWAP1 POP PUSH0 PUSH1 0x1 SWAP1 POP JUMPDEST DUP4 DUP2 GT PUSH2 0x113 JUMPI PUSH0 DUP2 DUP6 PUSH2 0xDD SWAP2 SWAP1 PUSH2 0x245 JUMP JUMPDEST EQ DUP1 ISZERO PUSH2 0xF1 JUMPI POP PUSH2 0xF0 DUP5 PUSH1 0x2 PUSH2 0x98 JUMP JUMPDEST JUMPDEST PUSH2 0x102 JUMPI DUP2 PUSH2 0xFF SWAP1 PUSH2 0x2A2 JUMP JUMPDEST SWAP2 POP JUMPDEST DUP1 PUSH2 0x10C SWAP1 PUSH2 0x2A2 JUMP JUMPDEST SWAP1 POP PUSH2 0xC9 JUMP JUMPDEST POP DUP1 SWAP2 POP POP SWAP2 SWAP1 POP JUMP JUMPDEST PUSH0 PUSH0 REVERT JUMPDEST PUSH0 DUP2 SWAP1 POP SWAP2 SWAP1 POP JUMP JUMPDEST PUSH2 0x133 DUP2 PUSH2 0x121 JUMP JUMPDEST DUP2 EQ PUSH2 0x13D JUMPI PUSH0 PUSH0 REVERT JUMPDEST POP JUMP JUMPDEST PUSH0 DUP2 CALLDATALOAD SWAP1 POP PUSH2 0x14E DUP2 PUSH2 0x12A JUMP JUMPDEST SWAP3 SWAP2 POP POP JUMP JUMPDEST PUSH0 PUSH0 PUSH1 0x40 DUP4 DUP6 SUB SLT ISZERO PUSH2 0x16A JUMPI PUSH2 0x169 PUSH2 0x11D JUMP JUMPDEST JUMPDEST PUSH0 PUSH2 0x177 DUP6 DUP3 DUP7 ADD PUSH2 0x140 JUMP JUMPDEST SWAP3 POP POP PUSH1 0x20 PUSH2 0x188 DUP6 DUP3 DUP7 ADD PUSH2 0x140 JUMP JUMPDEST SWAP2 POP POP SWAP3 POP SWAP3 SWAP1 POP JUMP JUMPDEST PUSH0 DUP2 ISZERO ISZERO SWAP1 POP SWAP2 SWAP1 POP JUMP JUMPDEST PUSH2 0x1A6 DUP2 PUSH2 0x192 JUMP JUMPDEST DUP3 MSTORE POP POP JUMP JUMPDEST PUSH0 PUSH1 0x20 DUP3 ADD SWAP1 POP PUSH2 0x1BF PUSH0 DUP4 ADD DUP5 PUSH2 0x19D JUMP JUMPDEST SWAP3 SWAP2 POP POP JUMP JUMPDEST PUSH0 PUSH1 0x20 DUP3 DUP5 SUB SLT ISZERO PUSH2 0x1DA JUMPI PUSH2 0x1D9 PUSH2 0x11D JUMP JUMPDEST JUMPDEST PUSH0 PUSH2 0x1E7 DUP5 DUP3 DUP6 ADD PUSH2 0x140 JUMP JUMPDEST SWAP2 POP POP SWAP3 SWAP2 POP POP JUMP JUMPDEST PUSH2 0x1F9 DUP2 PUSH2 0x121 JUMP JUMPDEST DUP3 MSTORE POP POP JUMP JUMPDEST PUSH0 PUSH1 0x20 DUP3 ADD SWAP1 POP PUSH2 0x212 PUSH0 DUP4 ADD DUP5 PUSH2 0x1F0 JUMP JUMPDEST SWAP3 SWAP2 POP POP JUMP JUMPDEST PUSH32 0x4E487B7100000000000000000000000000000000000000000000000000000000 PUSH0 MSTORE PUSH1 0x12 PUSH1 0x4 MSTORE PUSH1 0x24 PUSH0 REVERT JUMPDEST PUSH0 PUSH2 0x24F DUP3 PUSH2 0x121 JUMP JUMPDEST SWAP2 POP PUSH2 0x25A DUP4 PUSH2 0x121 JUMP JUMPDEST SWAP3 POP DUP3 PUSH2 0x26A JUMPI PUSH2 0x269 PUSH2 0x218 JUMP JUMPDEST JUMPDEST DUP3 DUP3 MOD SWAP1 POP SWAP3 SWAP2 POP POP JUMP JUMPDEST PUSH32 0x4E487B7100000000000000000000000000000000000000000000000000000000 PUSH0 MSTORE PUSH1 0x11 PUSH1 0x4 MSTORE PUSH1 0x24 PUSH0 REVERT JUMPDEST PUSH0 PUSH2 0x2AC DUP3 PUSH2 0x121 JUMP JUMPDEST SWAP2 POP PUSH32 0xFFFFFFFFFFFFFFFFFFFFFFFFFFFFFFFFFFFFFFFFFFFFFFFFFFFFFFFFFFFFFFFF DUP3 SUB PUSH2 0x2DE JUMPI PUSH2 0x2DD PUSH2 0x275 JUMP JUMPDEST JUMPDEST PUSH1 0x1 DUP3 ADD SWAP1 POP SWAP2 SWAP1 POP JUMP INVALID LOG2 PUSH5 0x6970667358 0x22 SLT KECCAK256 GASLIMIT CALLCODE PUSH15 0xD322B73FEEE8462D24D4F7ABF79DF5 0x2F SMOD 0xBA 0xF6 DUP9 0xCB SGT 0xF7 0xB4 0xD2 DUP13 DUP11 0xDA DATALOADN 0x6473 PUSH16 0x6C634300081E00330000000000000000 "
		},
		"gasEstimates": {
			"creation": {
				"codeDepositCost": "159800",
				"executionCost": "200",
				"totalCost": "160000"
			},
			"external": {
				"checkMultiples(uint256,uint256)": "infinite",
				"checkNumbers(uint256)": "infinite"
			}
		},
		"methodIdentifiers": {
			"checkMultiples(uint256,uint256)": "36e94be5",
			"checkNumbers(uint256)": "95b2d848"
		}
	},
	"abi": [
		{
			"inputs": [
				{
					"internalType": "uint256",
					"name": "_num",
					"type": "uint256"
				},
				{
					"internalType": "uint256",
					"name": "_nums",
					"type": "uint256"
				}
			],
			"name": "checkMultiples",
			"outputs": [
				{
					"internalType": "bool",
					"name": "",
					"type": "bool"
				}
			],
			"stateMutability": "pure",
			"type": "function"
		},
		{
			"inputs": [
				{
					"internalType": "uint256",
					"name": "_num",
					"type": "uint256"
				}
			],
			"name": "checkNumbers",
			"outputs": [
				{
					"internalType": "uint256",
					"name": "",
					"type": "uint256"
				}
			],
			"stateMutability": "pure",
			"type": "function"
		}
	]
}