{
	"solidity-basics/operators/operators.sol": {
		"LearnOperators": {
			"abi": [
				{
					"inputs": [],
					"name": "calculator",
					"outputs": [
						{
							"internalType": "uint256",
							"name": "",
							"type": "uint256"
						}
					],
					"stateMutability": "pure",
					"type": "function"
				},
				{
					"inputs": [],
					"name": "compare",
					"outputs": [],
					"stateMutability": "pure",
					"type": "function"
				}
			],
			"devdoc": {
				"kind": "dev",
				"methods": {},
				"version": 1
			},
			"evm": {
				"assembly": "    /* \"solidity-basics/operators/operators.sol\":434:897  contract LearnOperators  {... */\n  mstore(0x40, 0x80)\n  callvalue\n  dup1\n  iszero\n  tag_1\n  jumpi\n  revert(0x00, 0x00)\ntag_1:\n  pop\n  dataSize(sub_0)\n  dup1\n  dataOffset(sub_0)\n  0x00\n  codecopy\n  0x00\n  return\nstop\n\nsub_0: assembly {\n        /* \"solidity-basics/operators/operators.sol\":434:897  contract LearnOperators  {... */\n      mstore(0x40, 0x80)\n      callvalue\n      dup1\n      iszero\n      tag_1\n      jumpi\n      revert(0x00, 0x00)\n    tag_1:\n      pop\n      jumpi(tag_2, lt(calldatasize, 0x04))\n      shr(0xe0, calldataload(0x00))\n      dup1\n      0x3da0ac79\n      eq\n      tag_3\n      jumpi\n      dup1\n      0xce3e39c0\n      eq\n      tag_4\n      jumpi\n    tag_2:\n      revert(0x00, 0x00)\n        /* \"solidity-basics/operators/operators.sol\":594:892  function compare() public pure  {... */\n    tag_3:\n      tag_5\n      tag_6\n      jump\t// in\n    tag_5:\n      stop\n        /* \"solidity-basics/operators/operators.sol\":466:586  function calculator()public pure returns(uint){... */\n    tag_4:\n      tag_7\n      tag_8\n      jump\t// in\n    tag_7:\n      mload(0x40)\n      tag_9\n      swap2\n      swap1\n      tag_10\n      jump\t// in\n    tag_9:\n      mload(0x40)\n      dup1\n      swap2\n      sub\n      swap1\n      return\n        /* \"solidity-basics/operators/operators.sol\":594:892  function compare() public pure  {... */\n    tag_6:\n        /* \"solidity-basics/operators/operators.sol\":637:643  uint c */\n      0x00\n        /* \"solidity-basics/operators/operators.sol\":646:647  5 */\n      0x05\n        /* \"solidity-basics/operators/operators.sol\":637:647  uint c = 5 */\n      swap1\n      pop\n        /* \"solidity-basics/operators/operators.sol\":658:664  uint d */\n      0x00\n        /* \"solidity-basics/operators/operators.sol\":668:670  10 */\n      0x0a\n        /* \"solidity-basics/operators/operators.sol\":658:670  uint d =  10 */\n      swap1\n      pop\n        /* \"solidity-basics/operators/operators.sol\":682:693  bool result */\n      0x00\n        /* \"solidity-basics/operators/operators.sol\":701:702  d */\n      dup2\n        /* \"solidity-basics/operators/operators.sol\":697:698  c */\n      dup4\n        /* \"solidity-basics/operators/operators.sol\":697:702  c > d */\n      gt\n        /* \"solidity-basics/operators/operators.sol\":682:703  bool result = (c > d) */\n      swap1\n      pop\n        /* \"solidity-basics/operators/operators.sol\":723:729  result */\n      dup1\n        /* \"solidity-basics/operators/operators.sol\":714:739  require( result ,\"false\") */\n      tag_12\n      jumpi\n      mload(0x40)\n      0x08c379a000000000000000000000000000000000000000000000000000000000\n      dup2\n      mstore\n      0x04\n      add\n      tag_13\n      swap1\n      tag_14\n      jump\t// in\n    tag_13:\n      mload(0x40)\n      dup1\n      swap2\n      sub\n      swap1\n      revert\n    tag_12:\n        /* \"solidity-basics/operators/operators.sol\":626:892  {... */\n      pop\n      pop\n      pop\n        /* \"solidity-basics/operators/operators.sol\":594:892  function compare() public pure  {... */\n      jump\t// out\n        /* \"solidity-basics/operators/operators.sol\":466:586  function calculator()public pure returns(uint){... */\n    tag_8:\n        /* \"solidity-basics/operators/operators.sol\":507:511  uint */\n      0x00\n        /* \"solidity-basics/operators/operators.sol\":523:529  uint a */\n      0x00\n        /* \"solidity-basics/operators/operators.sol\":532:533  5 */\n      0x05\n        /* \"solidity-basics/operators/operators.sol\":523:533  uint a = 5 */\n      swap1\n      pop\n        /* \"solidity-basics/operators/operators.sol\":544:550  uint b */\n      0x00\n        /* \"solidity-basics/operators/operators.sol\":553:555  10 */\n      0x0a\n        /* \"solidity-basics/operators/operators.sol\":544:555  uint b = 10 */\n      swap1\n      pop\n        /* \"solidity-basics/operators/operators.sol\":577:578  b */\n      dup1\n        /* \"solidity-basics/operators/operators.sol\":573:574  a */\n      dup3\n        /* \"solidity-basics/operators/operators.sol\":573:578  a + b */\n      tag_16\n      swap2\n      swap1\n      tag_17\n      jump\t// in\n    tag_16:\n        /* \"solidity-basics/operators/operators.sol\":566:578  return a + b */\n      swap3\n      pop\n      pop\n      pop\n        /* \"solidity-basics/operators/operators.sol\":466:586  function calculator()public pure returns(uint){... */\n      swap1\n      jump\t// out\n        /* \"#utility.yul\":7:84   */\n    tag_18:\n        /* \"#utility.yul\":44:51   */\n      0x00\n        /* \"#utility.yul\":73:78   */\n      dup2\n        /* \"#utility.yul\":62:78   */\n      swap1\n      pop\n        /* \"#utility.yul\":7:84   */\n      swap2\n      swap1\n      pop\n      jump\t// out\n        /* \"#utility.yul\":90:208   */\n    tag_19:\n        /* \"#utility.yul\":177:201   */\n      tag_27\n        /* \"#utility.yul\":195:200   */\n      dup2\n        /* \"#utility.yul\":177:201   */\n      tag_18\n      jump\t// in\n    tag_27:\n        /* \"#utility.yul\":172:175   */\n      dup3\n        /* \"#utility.yul\":165:202   */\n      mstore\n        /* \"#utility.yul\":90:208   */\n      pop\n      pop\n      jump\t// out\n        /* \"#utility.yul\":214:436   */\n    tag_10:\n        /* \"#utility.yul\":307:311   */\n      0x00\n        /* \"#utility.yul\":345:347   */\n      0x20\n        /* \"#utility.yul\":334:343   */\n      dup3\n        /* \"#utility.yul\":330:348   */\n      add\n        /* \"#utility.yul\":322:348   */\n      swap1\n      pop\n        /* \"#utility.yul\":358:429   */\n      tag_29\n        /* \"#utility.yul\":426:427   */\n      0x00\n        /* \"#utility.yul\":415:424   */\n      dup4\n        /* \"#utility.yul\":411:428   */\n      add\n        /* \"#utility.yul\":402:408   */\n      dup5\n        /* \"#utility.yul\":358:429   */\n      tag_19\n      jump\t// in\n    tag_29:\n        /* \"#utility.yul\":214:436   */\n      swap3\n      swap2\n      pop\n      pop\n      jump\t// out\n        /* \"#utility.yul\":442:611   */\n    tag_20:\n        /* \"#utility.yul\":526:537   */\n      0x00\n        /* \"#utility.yul\":560:566   */\n      dup3\n        /* \"#utility.yul\":555:558   */\n      dup3\n        /* \"#utility.yul\":548:567   */\n      mstore\n        /* \"#utility.yul\":600:604   */\n      0x20\n        /* \"#utility.yul\":595:598   */\n      dup3\n        /* \"#utility.yul\":591:605   */\n      add\n        /* \"#utility.yul\":576:605   */\n      swap1\n      pop\n        /* \"#utility.yul\":442:611   */\n      swap3\n      swap2\n      pop\n      pop\n      jump\t// out\n        /* \"#utility.yul\":617:772   */\n    tag_21:\n        /* \"#utility.yul\":757:764   */\n      0x66616c7365000000000000000000000000000000000000000000000000000000\n        /* \"#utility.yul\":753:754   */\n      0x00\n        /* \"#utility.yul\":745:751   */\n      dup3\n        /* \"#utility.yul\":741:755   */\n      add\n        /* \"#utility.yul\":734:765   */\n      mstore\n        /* \"#utility.yul\":617:772   */\n      pop\n      jump\t// out\n        /* \"#utility.yul\":778:1143   */\n    tag_22:\n        /* \"#utility.yul\":920:923   */\n      0x00\n        /* \"#utility.yul\":941:1007   */\n      tag_33\n        /* \"#utility.yul\":1005:1006   */\n      0x05\n        /* \"#utility.yul\":1000:1003   */\n      dup4\n        /* \"#utility.yul\":941:1007   */\n      tag_20\n      jump\t// in\n    tag_33:\n        /* \"#utility.yul\":934:1007   */\n      swap2\n      pop\n        /* \"#utility.yul\":1016:1109   */\n      tag_34\n        /* \"#utility.yul\":1105:1108   */\n      dup3\n        /* \"#utility.yul\":1016:1109   */\n      tag_21\n      jump\t// in\n    tag_34:\n        /* \"#utility.yul\":1134:1136   */\n      0x20\n        /* \"#utility.yul\":1129:1132   */\n      dup3\n        /* \"#utility.yul\":1125:1137   */\n      add\n        /* \"#utility.yul\":1118:1137   */\n      swap1\n      pop\n        /* \"#utility.yul\":778:1143   */\n      swap2\n      swap1\n      pop\n      jump\t// out\n        /* \"#utility.yul\":1149:1568   */\n    tag_14:\n        /* \"#utility.yul\":1315:1319   */\n      0x00\n        /* \"#utility.yul\":1353:1355   */\n      0x20\n        /* \"#utility.yul\":1342:1351   */\n      dup3\n        /* \"#utility.yul\":1338:1356   */\n      add\n        /* \"#utility.yul\":1330:1356   */\n      swap1\n      pop\n        /* \"#utility.yul\":1402:1411   */\n      dup2\n        /* \"#utility.yul\":1396:1400   */\n      dup2\n        /* \"#utility.yul\":1392:1412   */\n      sub\n        /* \"#utility.yul\":1388:1389   */\n      0x00\n        /* \"#utility.yul\":1377:1386   */\n      dup4\n        /* \"#utility.yul\":1373:1390   */\n      add\n        /* \"#utility.yul\":1366:1413   */\n      mstore\n        /* \"#utility.yul\":1430:1561   */\n      tag_36\n        /* \"#utility.yul\":1556:1560   */\n      dup2\n        /* \"#utility.yul\":1430:1561   */\n      tag_22\n      jump\t// in\n    tag_36:\n        /* \"#utility.yul\":1422:1561   */\n      swap1\n      pop\n        /* \"#utility.yul\":1149:1568   */\n      swap2\n      swap1\n      pop\n      jump\t// out\n        /* \"#utility.yul\":1574:1754   */\n    tag_23:\n        /* \"#utility.yul\":1622:1699   */\n      0x4e487b7100000000000000000000000000000000000000000000000000000000\n        /* \"#utility.yul\":1619:1620   */\n      0x00\n        /* \"#utility.yul\":1612:1700   */\n      mstore\n        /* \"#utility.yul\":1719:1723   */\n      0x11\n        /* \"#utility.yul\":1716:1717   */\n      0x04\n        /* \"#utility.yul\":1709:1724   */\n      mstore\n        /* \"#utility.yul\":1743:1747   */\n      0x24\n        /* \"#utility.yul\":1740:1741   */\n      0x00\n        /* \"#utility.yul\":1733:1748   */\n      revert\n        /* \"#utility.yul\":1760:1951   */\n    tag_17:\n        /* \"#utility.yul\":1800:1803   */\n      0x00\n        /* \"#utility.yul\":1819:1839   */\n      tag_39\n        /* \"#utility.yul\":1837:1838   */\n      dup3\n        /* \"#utility.yul\":1819:1839   */\n      tag_18\n      jump\t// in\n    tag_39:\n        /* \"#utility.yul\":1814:1839   */\n      swap2\n      pop\n        /* \"#utility.yul\":1853:1873   */\n      tag_40\n        /* \"#utility.yul\":1871:1872   */\n      dup4\n        /* \"#utility.yul\":1853:1873   */\n      tag_18\n      jump\t// in\n    tag_40:\n        /* \"#utility.yul\":1848:1873   */\n      swap3\n      pop\n        /* \"#utility.yul\":1896:1897   */\n      dup3\n        /* \"#utility.yul\":1893:1894   */\n      dup3\n        /* \"#utility.yul\":1889:1898   */\n      add\n        /* \"#utility.yul\":1882:1898   */\n      swap1\n      pop\n        /* \"#utility.yul\":1917:1920   */\n      dup1\n        /* \"#utility.yul\":1914:1915   */\n      dup3\n        /* \"#utility.yul\":1911:1921   */\n      gt\n        /* \"#utility.yul\":1908:1944   */\n      iszero\n      tag_41\n      jumpi\n        /* \"#utility.yul\":1924:1942   */\n      tag_42\n      tag_23\n      jump\t// in\n    tag_42:\n        /* \"#utility.yul\":1908:1944   */\n    tag_41:\n        /* \"#utility.yul\":1760:1951   */\n      swap3\n      swap2\n      pop\n      pop\n      jump\t// out\n\n    auxdata: 0xa26469706673582212207053926a327c212d29de574e7aee965a4473b76272e5fbb5ef64292e3ace2f8b64736f6c634300081e0033\n}\n",
				"bytecode": {
					"linkReferences": {},
					"object": "6080604052348015600e575f5ffd5b506102128061001c5f395ff3fe608060405234801561000f575f5ffd5b5060043610610034575f3560e01c80633da0ac7914610038578063ce3e39c014610042575b5f5ffd5b610040610060565b005b61004a6100b5565b60405161005791906100eb565b60405180910390f35b5f600590505f600a90505f8183119050806100b0576040517f08c379a00000000000000000000000000000000000000000000000000000000081526004016100a79061015e565b60405180910390fd5b505050565b5f5f600590505f600a905080826100cc91906101a9565b9250505090565b5f819050919050565b6100e5816100d3565b82525050565b5f6020820190506100fe5f8301846100dc565b92915050565b5f82825260208201905092915050565b7f66616c73650000000000000000000000000000000000000000000000000000005f82015250565b5f610148600583610104565b915061015382610114565b602082019050919050565b5f6020820190508181035f8301526101758161013c565b9050919050565b7f4e487b71000000000000000000000000000000000000000000000000000000005f52601160045260245ffd5b5f6101b3826100d3565b91506101be836100d3565b92508282019050808211156101d6576101d561017c565b5b9291505056fea26469706673582212207053926a327c212d29de574e7aee965a4473b76272e5fbb5ef64292e3ace2f8b64736f6c634300081e0033",
					"opcodes": "PUSH1 0x80 PUSH1 0x40 MSTORE CALLVALUE DUP1 ISZERO PUSH1 0xE JUMPI PUSH0 PUSH0 REVERT JUMPDEST POP PUSH2 0x212 DUP1 PUSH2 0x1C PUSH0 CODECOPY PUSH0 RETURN INVALID PUSH1 0x80 PUSH1 0x40 MSTORE CALLVALUE DUP1 ISZERO PUSH2 0xF JUMPI PUSH0 PUSH0 REVERT JUMPDEST POP PUSH1 0x4 CALLDATASIZE LT PUSH2 0x34 JUMPI PUSH0 CALLDATALOAD PUSH1 0xE0 SHR DUP1 PUSH4 0x3DA0AC79 EQ PUSH2 0x38 JUMPI DUP1 PUSH4 0xCE3E39C0 EQ PUSH2 0x42 JUMPI JUMPDEST PUSH0 PUSH0 REVERT JUMPDEST PUSH2 0x40 PUSH2 0x60 JUMP JUMPDEST STOP JUMPDEST PUSH2 0x4A PUSH2 0xB5 JUMP JUMPDEST PUSH1 0x40 MLOAD PUSH2 0x57 SWAP2 SWAP1 PUSH2 0xEB JUMP JUMPDEST PUSH1 0x40 MLOAD DUP1 SWAP2 SUB SWAP1 RETURN JUMPDEST PUSH0 PUSH1 0x5 SWAP1 POP PUSH0 PUSH1 0xA SWAP1 POP PUSH0 DUP2 DUP4 GT SWAP1 POP DUP1 PUSH2 0xB0 JUMPI PUSH1 0x40 MLOAD PUSH32 0x8C379A000000000000000000000000000000000000000000000000000000000 DUP2 MSTORE PUSH1 0x4 ADD PUSH2 0xA7 SWAP1 PUSH2 0x15E JUMP JUMPDEST PUSH1 0x40 MLOAD DUP1 SWAP2 SUB SWAP1 REVERT JUMPDEST POP POP POP JUMP JUMPDEST PUSH0 PUSH0 PUSH1 0x5 SWAP1 POP PUSH0 PUSH1 0xA SWAP1 POP DUP1 DUP3 PUSH2 0xCC SWAP2 SWAP1 PUSH2 0x1A9 JUMP JUMPDEST SWAP3 POP POP POP SWAP1 JUMP JUMPDEST PUSH0 DUP2 SWAP1 POP SWAP2 SWAP1 POP JUMP JUMPDEST PUSH2 0xE5 DUP2 PUSH2 0xD3 JUMP JUMPDEST DUP3 MSTORE POP POP JUMP JUMPDEST PUSH0 PUSH1 0x20 DUP3 ADD SWAP1 POP PUSH2 0xFE PUSH0 DUP4 ADD DUP5 PUSH2 0xDC JUMP JUMPDEST SWAP3 SWAP2 POP POP JUMP JUMPDEST PUSH0 DUP3 DUP3 MSTORE PUSH1 0x20 DUP3 ADD SWAP1 POP SWAP3 SWAP2 POP POP JUMP JUMPDEST PUSH32 0x66616C7365000000000000000000000000000000000000000000000000000000 PUSH0 DUP3 ADD MSTORE POP JUMP JUMPDEST PUSH0 PUSH2 0x148 PUSH1 0x5 DUP4 PUSH2 0x104 JUMP JUMPDEST SWAP2 POP PUSH2 0x153 DUP3 PUSH2 0x114 JUMP JUMPDEST PUSH1 0x20 DUP3 ADD SWAP1 POP SWAP2 SWAP1 POP JUMP JUMPDEST PUSH0 PUSH1 0x20 DUP3 ADD SWAP1 POP DUP2 DUP2 SUB PUSH0 DUP4 ADD MSTORE PUSH2 0x175 DUP2 PUSH2 0x13C JUMP JUMPDEST SWAP1 POP SWAP2 SWAP1 POP JUMP JUMPDEST PUSH32 0x4E487B7100000000000000000000000000000000000000000000000000000000 PUSH0 MSTORE PUSH1 0x11 PUSH1 0x4 MSTORE PUSH1 0x24 PUSH0 REVERT JUMPDEST PUSH0 PUSH2 0x1B3 DUP3 PUSH2 0xD3 JUMP JUMPDEST SWAP2 POP PUSH2 0x1BE DUP4 PUSH2 0xD3 JUMP JUMPDEST SWAP3 POP DUP3 DUP3 ADD SWAP1 POP DUP1 DUP3 GT ISZERO PUSH2 0x1D6 JUMPI PUSH2 0x1D5 PUSH2 0x17C JUMP JUMPDEST JUMPDEST SWAP3 SWAP2 POP POP JUMP INVALID LOG2 PUSH5 0x6970667358 0x22 SLT KECCAK256 PUSH17 0x53926A327C212D29DE574E7AEE965A4473 0xB7 PUSH3 0x72E5FB 0xB5 0xEF PUSH5 0x292E3ACE2F DUP12 PUSH5 0x736F6C6343 STOP ADDMOD 0x1E STOP CALLER "
				},
				"gasEstimates": {
					"creation": {
						"codeDepositCost": "106000",
						"executionCost": "151",
						"totalCost": "106151"
					},
					"external": {
						"calculator()": "infinite",
						"compare()": "458"
					}
				},
				"methodIdentifiers": {
					"calculator()": "ce3e39c0",
					"compare()": "3da0ac79"
				}
			},
			"storageLayout": {
				"storage": [],
				"types": null
			},
			"userdoc": {
				"kind": "user",
				"methods": {},
				"version": 1
			}
		}
	}
}