{
	"solidity-basics/DecisionMaking/decision-making.sol": {
		"DecisionMaking": {
			"abi": [
				{
					"inputs": [],
					"name": "airDrop",
					"outputs": [
						{
							"internalType": "uint256",
							"name": "",
							"type": "uint256"
						}
					],
					"stateMutability": "view",
					"type": "function"
				},
				{
					"inputs": [],
					"name": "checknumber",
					"outputs": [
						{
							"internalType": "bool",
							"name": "",
							"type": "bool"
						}
					],
					"stateMutability": "view",
					"type": "function"
				},
				{
					"inputs": [],
					"name": "iteratenumber",
					"outputs": [
						{
							"internalType": "uint256",
							"name": "",
							"type": "uint256"
						}
					],
					"stateMutability": "view",
					"type": "function"
				}
			],
			"devdoc": {
				"kind": "dev",
				"methods": {},
				"version": 1
			},
			"evm": {
				"assembly": "    /* \"solidity-basics/DecisionMaking/decision-making.sol\":179:752  contract DecisionMaking {... */\n  mstore(0x40, 0x80)\n    /* \"solidity-basics/DecisionMaking/decision-making.sol\":224:225  5 */\n  0x05\n    /* \"solidity-basics/DecisionMaking/decision-making.sol\":210:225  uint number = 5 */\n  0x00\n  sstore\n    /* \"solidity-basics/DecisionMaking/decision-making.sol\":574:576  10 */\n  0x0a\n    /* \"solidity-basics/DecisionMaking/decision-making.sol\":553:576  uint stakingwallet = 10 */\n  0x01\n  sstore\n    /* \"solidity-basics/DecisionMaking/decision-making.sol\":179:752  contract DecisionMaking {... */\n  callvalue\n  dup1\n  iszero\n  tag_1\n  jumpi\n  revert(0x00, 0x00)\ntag_1:\n  pop\n  dataSize(sub_0)\n  dup1\n  dataOffset(sub_0)\n  0x00\n  codecopy\n  0x00\n  return\nstop\n\nsub_0: assembly {\n        /* \"solidity-basics/DecisionMaking/decision-making.sol\":179:752  contract DecisionMaking {... */\n      mstore(0x40, 0x80)\n      callvalue\n      dup1\n      iszero\n      tag_1\n      jumpi\n      revert(0x00, 0x00)\n    tag_1:\n      pop\n      jumpi(tag_2, lt(calldatasize, 0x04))\n      shr(0xe0, calldataload(0x00))\n      dup1\n      0x01e551f1\n      eq\n      tag_3\n      jumpi\n      dup1\n      0xc984f6ea\n      eq\n      tag_4\n      jumpi\n      dup1\n      0xca5d0880\n      eq\n      tag_5\n      jumpi\n    tag_2:\n      revert(0x00, 0x00)\n        /* \"solidity-basics/DecisionMaking/decision-making.sol\":234:397  function checknumber() public view returns(bool){... */\n    tag_3:\n      tag_6\n      tag_7\n      jump\t// in\n    tag_6:\n      mload(0x40)\n      tag_8\n      swap2\n      swap1\n      tag_9\n      jump\t// in\n    tag_8:\n      mload(0x40)\n      dup1\n      swap2\n      sub\n      swap1\n      return\n        /* \"solidity-basics/DecisionMaking/decision-making.sol\":399:547  function iteratenumber() public view returns(uint){... */\n    tag_4:\n      tag_10\n      tag_11\n      jump\t// in\n    tag_10:\n      mload(0x40)\n      tag_12\n      swap2\n      swap1\n      tag_13\n      jump\t// in\n    tag_12:\n      mload(0x40)\n      dup1\n      swap2\n      sub\n      swap1\n      return\n        /* \"solidity-basics/DecisionMaking/decision-making.sol\":581:747  function airDrop() public view returns(uint){... */\n    tag_5:\n      tag_14\n      tag_15\n      jump\t// in\n    tag_14:\n      mload(0x40)\n      tag_16\n      swap2\n      swap1\n      tag_13\n      jump\t// in\n    tag_16:\n      mload(0x40)\n      dup1\n      swap2\n      sub\n      swap1\n      return\n        /* \"solidity-basics/DecisionMaking/decision-making.sol\":234:397  function checknumber() public view returns(bool){... */\n    tag_7:\n        /* \"solidity-basics/DecisionMaking/decision-making.sol\":277:281  bool */\n      0x00\n        /* \"solidity-basics/DecisionMaking/decision-making.sol\":306:308  10 */\n      0x0a\n        /* \"solidity-basics/DecisionMaking/decision-making.sol\":297:303  number */\n      sload(0x00)\n        /* \"solidity-basics/DecisionMaking/decision-making.sol\":297:308  number < 10 */\n      lt\n        /* \"solidity-basics/DecisionMaking/decision-making.sol\":293:390  if (number < 10){... */\n      iszero\n      tag_18\n      jumpi\n        /* \"solidity-basics/DecisionMaking/decision-making.sol\":331:335  true */\n      0x01\n        /* \"solidity-basics/DecisionMaking/decision-making.sol\":324:335  return true */\n      swap1\n      pop\n      jump(tag_17)\n        /* \"solidity-basics/DecisionMaking/decision-making.sol\":293:390  if (number < 10){... */\n    tag_18:\n        /* \"solidity-basics/DecisionMaking/decision-making.sol\":373:378  false */\n      0x00\n        /* \"solidity-basics/DecisionMaking/decision-making.sol\":366:378  return false */\n      swap1\n      pop\n        /* \"solidity-basics/DecisionMaking/decision-making.sol\":234:397  function checknumber() public view returns(bool){... */\n    tag_17:\n      swap1\n      jump\t// out\n        /* \"solidity-basics/DecisionMaking/decision-making.sol\":399:547  function iteratenumber() public view returns(uint){... */\n    tag_11:\n        /* \"solidity-basics/DecisionMaking/decision-making.sol\":444:448  uint */\n      0x00\n        /* \"solidity-basics/DecisionMaking/decision-making.sol\":456:464  uint num */\n      0x00\n        /* \"solidity-basics/DecisionMaking/decision-making.sol\":467:468  0 */\n      0x00\n        /* \"solidity-basics/DecisionMaking/decision-making.sol\":456:468  uint num = 0 */\n      swap1\n      pop\n        /* \"solidity-basics/DecisionMaking/decision-making.sol\":475:527  while(num < number ){... */\n    tag_21:\n        /* \"solidity-basics/DecisionMaking/decision-making.sol\":487:493  number */\n      sload(0x00)\n        /* \"solidity-basics/DecisionMaking/decision-making.sol\":481:484  num */\n      dup2\n        /* \"solidity-basics/DecisionMaking/decision-making.sol\":481:493  num < number */\n      lt\n        /* \"solidity-basics/DecisionMaking/decision-making.sol\":475:527  while(num < number ){... */\n      iszero\n      tag_22\n      jumpi\n        /* \"solidity-basics/DecisionMaking/decision-making.sol\":518:519  1 */\n      0x01\n        /* \"solidity-basics/DecisionMaking/decision-making.sol\":512:515  num */\n      dup2\n        /* \"solidity-basics/DecisionMaking/decision-making.sol\":512:519  num + 1 */\n      tag_23\n      swap2\n      swap1\n      tag_24\n      jump\t// in\n    tag_23:\n        /* \"solidity-basics/DecisionMaking/decision-making.sol\":506:519  num = num + 1 */\n      swap1\n      pop\n        /* \"solidity-basics/DecisionMaking/decision-making.sol\":475:527  while(num < number ){... */\n      jump(tag_21)\n    tag_22:\n        /* \"solidity-basics/DecisionMaking/decision-making.sol\":540:543  num */\n      dup1\n        /* \"solidity-basics/DecisionMaking/decision-making.sol\":533:543  return num */\n      swap2\n      pop\n      pop\n        /* \"solidity-basics/DecisionMaking/decision-making.sol\":399:547  function iteratenumber() public view returns(uint){... */\n      swap1\n      jump\t// out\n        /* \"solidity-basics/DecisionMaking/decision-making.sol\":581:747  function airDrop() public view returns(uint){... */\n    tag_15:\n        /* \"solidity-basics/DecisionMaking/decision-making.sol\":620:624  uint */\n      0x00\n        /* \"solidity-basics/DecisionMaking/decision-making.sol\":652:654  10 */\n      0x0a\n        /* \"solidity-basics/DecisionMaking/decision-making.sol\":635:648  stakingwallet */\n      sload(0x01)\n        /* \"solidity-basics/DecisionMaking/decision-making.sol\":635:654  stakingwallet == 10 */\n      sub\n        /* \"solidity-basics/DecisionMaking/decision-making.sol\":632:744  if(stakingwallet == 10){... */\n      tag_26\n      jumpi\n        /* \"solidity-basics/DecisionMaking/decision-making.sol\":687:689  10 */\n      0x0a\n        /* \"solidity-basics/DecisionMaking/decision-making.sol\":673:686  stakingwallet */\n      sload(0x01)\n        /* \"solidity-basics/DecisionMaking/decision-making.sol\":673:689  stakingwallet+10 */\n      tag_27\n      swap2\n      swap1\n      tag_24\n      jump\t// in\n    tag_27:\n        /* \"solidity-basics/DecisionMaking/decision-making.sol\":666:689  return stakingwallet+10 */\n      swap1\n      pop\n      jump(tag_25)\n        /* \"solidity-basics/DecisionMaking/decision-making.sol\":632:744  if(stakingwallet == 10){... */\n    tag_26:\n        /* \"solidity-basics/DecisionMaking/decision-making.sol\":735:736  1 */\n      0x01\n        /* \"solidity-basics/DecisionMaking/decision-making.sol\":720:733  stakingwallet */\n      dup1\n      sload\n        /* \"solidity-basics/DecisionMaking/decision-making.sol\":720:736  stakingwallet +1 */\n      tag_29\n      swap2\n      swap1\n      tag_24\n      jump\t// in\n    tag_29:\n        /* \"solidity-basics/DecisionMaking/decision-making.sol\":713:736  return stakingwallet +1 */\n      swap1\n      pop\n        /* \"solidity-basics/DecisionMaking/decision-making.sol\":581:747  function airDrop() public view returns(uint){... */\n    tag_25:\n      swap1\n      jump\t// out\n        /* \"#utility.yul\":7:97   */\n    tag_30:\n        /* \"#utility.yul\":41:48   */\n      0x00\n        /* \"#utility.yul\":84:89   */\n      dup2\n        /* \"#utility.yul\":77:90   */\n      iszero\n        /* \"#utility.yul\":70:91   */\n      iszero\n        /* \"#utility.yul\":59:91   */\n      swap1\n      pop\n        /* \"#utility.yul\":7:97   */\n      swap2\n      swap1\n      pop\n      jump\t// out\n        /* \"#utility.yul\":103:212   */\n    tag_31:\n        /* \"#utility.yul\":184:205   */\n      tag_38\n        /* \"#utility.yul\":199:204   */\n      dup2\n        /* \"#utility.yul\":184:205   */\n      tag_30\n      jump\t// in\n    tag_38:\n        /* \"#utility.yul\":179:182   */\n      dup3\n        /* \"#utility.yul\":172:206   */\n      mstore\n        /* \"#utility.yul\":103:212   */\n      pop\n      pop\n      jump\t// out\n        /* \"#utility.yul\":218:428   */\n    tag_9:\n        /* \"#utility.yul\":305:309   */\n      0x00\n        /* \"#utility.yul\":343:345   */\n      0x20\n        /* \"#utility.yul\":332:341   */\n      dup3\n        /* \"#utility.yul\":328:346   */\n      add\n        /* \"#utility.yul\":320:346   */\n      swap1\n      pop\n        /* \"#utility.yul\":356:421   */\n      tag_40\n        /* \"#utility.yul\":418:419   */\n      0x00\n        /* \"#utility.yul\":407:416   */\n      dup4\n        /* \"#utility.yul\":403:420   */\n      add\n        /* \"#utility.yul\":394:400   */\n      dup5\n        /* \"#utility.yul\":356:421   */\n      tag_31\n      jump\t// in\n    tag_40:\n        /* \"#utility.yul\":218:428   */\n      swap3\n      swap2\n      pop\n      pop\n      jump\t// out\n        /* \"#utility.yul\":434:511   */\n    tag_32:\n        /* \"#utility.yul\":471:478   */\n      0x00\n        /* \"#utility.yul\":500:505   */\n      dup2\n        /* \"#utility.yul\":489:505   */\n      swap1\n      pop\n        /* \"#utility.yul\":434:511   */\n      swap2\n      swap1\n      pop\n      jump\t// out\n        /* \"#utility.yul\":517:635   */\n    tag_33:\n        /* \"#utility.yul\":604:628   */\n      tag_43\n        /* \"#utility.yul\":622:627   */\n      dup2\n        /* \"#utility.yul\":604:628   */\n      tag_32\n      jump\t// in\n    tag_43:\n        /* \"#utility.yul\":599:602   */\n      dup3\n        /* \"#utility.yul\":592:629   */\n      mstore\n        /* \"#utility.yul\":517:635   */\n      pop\n      pop\n      jump\t// out\n        /* \"#utility.yul\":641:863   */\n    tag_13:\n        /* \"#utility.yul\":734:738   */\n      0x00\n        /* \"#utility.yul\":772:774   */\n      0x20\n        /* \"#utility.yul\":761:770   */\n      dup3\n        /* \"#utility.yul\":757:775   */\n      add\n        /* \"#utility.yul\":749:775   */\n      swap1\n      pop\n        /* \"#utility.yul\":785:856   */\n      tag_45\n        /* \"#utility.yul\":853:854   */\n      0x00\n        /* \"#utility.yul\":842:851   */\n      dup4\n        /* \"#utility.yul\":838:855   */\n      add\n        /* \"#utility.yul\":829:835   */\n      dup5\n        /* \"#utility.yul\":785:856   */\n      tag_33\n      jump\t// in\n    tag_45:\n        /* \"#utility.yul\":641:863   */\n      swap3\n      swap2\n      pop\n      pop\n      jump\t// out\n        /* \"#utility.yul\":869:1049   */\n    tag_34:\n        /* \"#utility.yul\":917:994   */\n      0x4e487b7100000000000000000000000000000000000000000000000000000000\n        /* \"#utility.yul\":914:915   */\n      0x00\n        /* \"#utility.yul\":907:995   */\n      mstore\n        /* \"#utility.yul\":1014:1018   */\n      0x11\n        /* \"#utility.yul\":1011:1012   */\n      0x04\n        /* \"#utility.yul\":1004:1019   */\n      mstore\n        /* \"#utility.yul\":1038:1042   */\n      0x24\n        /* \"#utility.yul\":1035:1036   */\n      0x00\n        /* \"#utility.yul\":1028:1043   */\n      revert\n        /* \"#utility.yul\":1055:1246   */\n    tag_24:\n        /* \"#utility.yul\":1095:1098   */\n      0x00\n        /* \"#utility.yul\":1114:1134   */\n      tag_48\n        /* \"#utility.yul\":1132:1133   */\n      dup3\n        /* \"#utility.yul\":1114:1134   */\n      tag_32\n      jump\t// in\n    tag_48:\n        /* \"#utility.yul\":1109:1134   */\n      swap2\n      pop\n        /* \"#utility.yul\":1148:1168   */\n      tag_49\n        /* \"#utility.yul\":1166:1167   */\n      dup4\n        /* \"#utility.yul\":1148:1168   */\n      tag_32\n      jump\t// in\n    tag_49:\n        /* \"#utility.yul\":1143:1168   */\n      swap3\n      pop\n        /* \"#utility.yul\":1191:1192   */\n      dup3\n        /* \"#utility.yul\":1188:1189   */\n      dup3\n        /* \"#utility.yul\":1184:1193   */\n      add\n        /* \"#utility.yul\":1177:1193   */\n      swap1\n      pop\n        /* \"#utility.yul\":1212:1215   */\n      dup1\n        /* \"#utility.yul\":1209:1210   */\n      dup3\n        /* \"#utility.yul\":1206:1216   */\n      gt\n        /* \"#utility.yul\":1203:1239   */\n      iszero\n      tag_50\n      jumpi\n        /* \"#utility.yul\":1219:1237   */\n      tag_51\n      tag_34\n      jump\t// in\n    tag_51:\n        /* \"#utility.yul\":1203:1239   */\n    tag_50:\n        /* \"#utility.yul\":1055:1246   */\n      swap3\n      swap2\n      pop\n      pop\n      jump\t// out\n\n    auxdata: 0xa26469706673582212209dd7f69c5737f14e300ff54049c0de95f47ed2a995e2eddc02aa2b8149ed7a2864736f6c634300081e0033\n}\n",
				"bytecode": {
					"linkReferences": {},
					"object": "608060405260055f55600a6001553480156017575f5ffd5b50610211806100255f395ff3fe608060405234801561000f575f5ffd5b506004361061003f575f3560e01c806301e551f114610043578063c984f6ea14610061578063ca5d08801461007f575b5f5ffd5b61004b61009d565b6040516100589190610131565b60405180910390f35b6100696100b8565b6040516100769190610162565b60405180910390f35b6100876100e2565b6040516100949190610162565b60405180910390f35b5f600a5f5410156100b157600190506100b5565b5f90505b90565b5f5f5f90505b5f548110156100db576001816100d491906101a8565b90506100be565b8091505090565b5f600a6001540361010357600a6001546100fc91906101a8565b9050610114565b6001805461011191906101a8565b90505b90565b5f8115159050919050565b61012b81610117565b82525050565b5f6020820190506101445f830184610122565b92915050565b5f819050919050565b61015c8161014a565b82525050565b5f6020820190506101755f830184610153565b92915050565b7f4e487b71000000000000000000000000000000000000000000000000000000005f52601160045260245ffd5b5f6101b28261014a565b91506101bd8361014a565b92508282019050808211156101d5576101d461017b565b5b9291505056fea26469706673582212209dd7f69c5737f14e300ff54049c0de95f47ed2a995e2eddc02aa2b8149ed7a2864736f6c634300081e0033",
					"opcodes": "PUSH1 0x80 PUSH1 0x40 MSTORE PUSH1 0x5 PUSH0 SSTORE PUSH1 0xA PUSH1 0x1 SSTORE CALLVALUE DUP1 ISZERO PUSH1 0x17 JUMPI PUSH0 PUSH0 REVERT JUMPDEST POP PUSH2 0x211 DUP1 PUSH2 0x25 PUSH0 CODECOPY PUSH0 RETURN INVALID PUSH1 0x80 PUSH1 0x40 MSTORE CALLVALUE DUP1 ISZERO PUSH2 0xF JUMPI PUSH0 PUSH0 REVERT JUMPDEST POP PUSH1 0x4 CALLDATASIZE LT PUSH2 0x3F JUMPI PUSH0 CALLDATALOAD PUSH1 0xE0 SHR DUP1 PUSH4 0x1E551F1 EQ PUSH2 0x43 JUMPI DUP1 PUSH4 0xC984F6EA EQ PUSH2 0x61 JUMPI DUP1 PUSH4 0xCA5D0880 EQ PUSH2 0x7F JUMPI JUMPDEST PUSH0 PUSH0 REVERT JUMPDEST PUSH2 0x4B PUSH2 0x9D JUMP JUMPDEST PUSH1 0x40 MLOAD PUSH2 0x58 SWAP2 SWAP1 PUSH2 0x131 JUMP JUMPDEST PUSH1 0x40 MLOAD DUP1 SWAP2 SUB SWAP1 RETURN JUMPDEST PUSH2 0x69 PUSH2 0xB8 JUMP JUMPDEST PUSH1 0x40 MLOAD PUSH2 0x76 SWAP2 SWAP1 PUSH2 0x162 JUMP JUMPDEST PUSH1 0x40 MLOAD DUP1 SWAP2 SUB SWAP1 RETURN JUMPDEST PUSH2 0x87 PUSH2 0xE2 JUMP JUMPDEST PUSH1 0x40 MLOAD PUSH2 0x94 SWAP2 SWAP1 PUSH2 0x162 JUMP JUMPDEST PUSH1 0x40 MLOAD DUP1 SWAP2 SUB SWAP1 RETURN JUMPDEST PUSH0 PUSH1 0xA PUSH0 SLOAD LT ISZERO PUSH2 0xB1 JUMPI PUSH1 0x1 SWAP1 POP PUSH2 0xB5 JUMP JUMPDEST PUSH0 SWAP1 POP JUMPDEST SWAP1 JUMP JUMPDEST PUSH0 PUSH0 PUSH0 SWAP1 POP JUMPDEST PUSH0 SLOAD DUP2 LT ISZERO PUSH2 0xDB JUMPI PUSH1 0x1 DUP2 PUSH2 0xD4 SWAP2 SWAP1 PUSH2 0x1A8 JUMP JUMPDEST SWAP1 POP PUSH2 0xBE JUMP JUMPDEST DUP1 SWAP2 POP POP SWAP1 JUMP JUMPDEST PUSH0 PUSH1 0xA PUSH1 0x1 SLOAD SUB PUSH2 0x103 JUMPI PUSH1 0xA PUSH1 0x1 SLOAD PUSH2 0xFC SWAP2 SWAP1 PUSH2 0x1A8 JUMP JUMPDEST SWAP1 POP PUSH2 0x114 JUMP JUMPDEST PUSH1 0x1 DUP1 SLOAD PUSH2 0x111 SWAP2 SWAP1 PUSH2 0x1A8 JUMP JUMPDEST SWAP1 POP JUMPDEST SWAP1 JUMP JUMPDEST PUSH0 DUP2 ISZERO ISZERO SWAP1 POP SWAP2 SWAP1 POP JUMP JUMPDEST PUSH2 0x12B DUP2 PUSH2 0x117 JUMP JUMPDEST DUP3 MSTORE POP POP JUMP JUMPDEST PUSH0 PUSH1 0x20 DUP3 ADD SWAP1 POP PUSH2 0x144 PUSH0 DUP4 ADD DUP5 PUSH2 0x122 JUMP JUMPDEST SWAP3 SWAP2 POP POP JUMP JUMPDEST PUSH0 DUP2 SWAP1 POP SWAP2 SWAP1 POP JUMP JUMPDEST PUSH2 0x15C DUP2 PUSH2 0x14A JUMP JUMPDEST DUP3 MSTORE POP POP JUMP JUMPDEST PUSH0 PUSH1 0x20 DUP3 ADD SWAP1 POP PUSH2 0x175 PUSH0 DUP4 ADD DUP5 PUSH2 0x153 JUMP JUMPDEST SWAP3 SWAP2 POP POP JUMP JUMPDEST PUSH32 0x4E487B7100000000000000000000000000000000000000000000000000000000 PUSH0 MSTORE PUSH1 0x11 PUSH1 0x4 MSTORE PUSH1 0x24 PUSH0 REVERT JUMPDEST PUSH0 PUSH2 0x1B2 DUP3 PUSH2 0x14A JUMP JUMPDEST SWAP2 POP PUSH2 0x1BD DUP4 PUSH2 0x14A JUMP JUMPDEST SWAP3 POP DUP3 DUP3 ADD SWAP1 POP DUP1 DUP3 GT ISZERO PUSH2 0x1D5 JUMPI PUSH2 0x1D4 PUSH2 0x17B JUMP JUMPDEST JUMPDEST SWAP3 SWAP2 POP POP JUMP INVALID LOG2 PUSH5 0x6970667358 0x22 SLT KECCAK256 SWAP14 0xD7 0xF6 SWAP13 JUMPI CALLDATACOPY CALL 0x4E ADDRESS 0xF CREATE2 BLOCKHASH BLOBHASH 0xC0 0xDE SWAP6 DELEGATECALL PUSH31 0xD2A995E2EDDC02AA2B8149ED7A2864736F6C634300081E0033000000000000 "
				},
				"gasEstimates": {
					"creation": {
						"codeDepositCost": "105800",
						"executionCost": "44362",
						"totalCost": "150162"
					},
					"external": {
						"airDrop()": "infinite",
						"checknumber()": "2452",
						"iteratenumber()": "infinite"
					}
				},
				"methodIdentifiers": {
					"airDrop()": "ca5d0880",
					"checknumber()": "01e551f1",
					"iteratenumber()": "c984f6ea"
				}
			},
			"storageLayout": {
				"storage": [
					{
						"astId": 4,
						"contract": "solidity-basics/DecisionMaking/decision-making.sol:DecisionMaking",
						"label": "number",
						"offset": 0,
						"slot": "0",
						"type": "t_uint256"
					},
					{
						"astId": 46,
						"contract": "solidity-basics/DecisionMaking/decision-making.sol:DecisionMaking",
						"label": "stakingwallet",
						"offset": 0,
						"slot": "1",
						"type": "t_uint256"
					}
				],
				"types": {
					"t_uint256": {
						"encoding": "inplace",
						"label": "uint256",
						"numberOfBytes": "32"
					}
				}
			},
			"userdoc": {
				"kind": "user",
				"methods": {},
				"version": 1
			}
		}
	}
}